{
  "contracts/Pawswap.sol": {
    "PawSwap": {
      "abi": [
        {
          "inputs": [
            {
              "internalType": "address",
              "name": "factory",
              "type": "address"
            },
            {
              "internalType": "address",
              "name": "router",
              "type": "address"
            },
            {
              "internalType": "address",
              "name": "weth",
              "type": "address"
            }
          ],
          "stateMutability": "nonpayable",
          "type": "constructor"
        },
        {
          "anonymous": false,
          "inputs": [
            {
              "indexed": true,
              "internalType": "address",
              "name": "buyer",
              "type": "address"
            },
            {
              "indexed": true,
              "internalType": "address",
              "name": "tokenAddress",
              "type": "address"
            },
            {
              "indexed": false,
              "internalType": "uint256",
              "name": "ethSpent",
              "type": "uint256"
            },
            {
              "indexed": false,
              "internalType": "uint256",
              "name": "tokensReceived",
              "type": "uint256"
            },
            {
              "indexed": false,
              "internalType": "uint256",
              "name": "customTaxAmount",
              "type": "uint256"
            },
            {
              "indexed": true,
              "internalType": "address",
              "name": "customTaxAddress",
              "type": "address"
            }
          ],
          "name": "Buy",
          "type": "event"
        },
        {
          "anonymous": false,
          "inputs": [
            {
              "indexed": true,
              "internalType": "address",
              "name": "previousOwner",
              "type": "address"
            },
            {
              "indexed": true,
              "internalType": "address",
              "name": "newOwner",
              "type": "address"
            }
          ],
          "name": "OwnershipTransferred",
          "type": "event"
        },
        {
          "anonymous": false,
          "inputs": [
            {
              "indexed": true,
              "internalType": "address",
              "name": "seller",
              "type": "address"
            },
            {
              "indexed": true,
              "internalType": "address",
              "name": "tokenAddress",
              "type": "address"
            },
            {
              "indexed": false,
              "internalType": "uint256",
              "name": "tokensSold",
              "type": "uint256"
            },
            {
              "indexed": false,
              "internalType": "uint256",
              "name": "ethReceived",
              "type": "uint256"
            },
            {
              "indexed": false,
              "internalType": "uint256",
              "name": "customTaxAmount",
              "type": "uint256"
            },
            {
              "indexed": true,
              "internalType": "address",
              "name": "customTaxAddress",
              "type": "address"
            }
          ],
          "name": "Sell",
          "type": "event"
        },
        {
          "inputs": [],
          "name": "WETH",
          "outputs": [
            {
              "internalType": "address",
              "name": "",
              "type": "address"
            }
          ],
          "stateMutability": "view",
          "type": "function"
        },
        {
          "inputs": [
            {
              "internalType": "address",
              "name": "tokenAddress",
              "type": "address"
            },
            {
              "internalType": "uint256",
              "name": "customTaxAmount",
              "type": "uint256"
            },
            {
              "internalType": "address",
              "name": "customTaxAddress",
              "type": "address"
            },
            {
              "internalType": "uint256",
              "name": "minTokensToReceive",
              "type": "uint256"
            },
            {
              "internalType": "bool",
              "name": "isExactIn",
              "type": "bool"
            }
          ],
          "name": "buyOnPawSwap",
          "outputs": [],
          "stateMutability": "payable",
          "type": "function"
        },
        {
          "inputs": [
            {
              "internalType": "address",
              "name": "",
              "type": "address"
            }
          ],
          "name": "dexExcludedFromTreasury",
          "outputs": [
            {
              "internalType": "bool",
              "name": "",
              "type": "bool"
            }
          ],
          "stateMutability": "view",
          "type": "function"
        },
        {
          "inputs": [
            {
              "internalType": "address",
              "name": "_tokenAddress",
              "type": "address"
            },
            {
              "internalType": "bool",
              "name": "isExcluded",
              "type": "bool"
            }
          ],
          "name": "excludeToken",
          "outputs": [],
          "stateMutability": "nonpayable",
          "type": "function"
        },
        {
          "inputs": [
            {
              "internalType": "address",
              "name": "",
              "type": "address"
            }
          ],
          "name": "excludedTokens",
          "outputs": [
            {
              "internalType": "bool",
              "name": "",
              "type": "bool"
            }
          ],
          "stateMutability": "view",
          "type": "function"
        },
        {
          "inputs": [
            {
              "internalType": "address",
              "name": "buyer",
              "type": "address"
            },
            {
              "internalType": "address",
              "name": "tokenAddress",
              "type": "address"
            },
            {
              "internalType": "uint256",
              "name": "customTaxAmount",
              "type": "uint256"
            },
            {
              "internalType": "uint256",
              "name": "minTokensToReceive",
              "type": "uint256"
            }
          ],
          "name": "getBuyAmountIn",
          "outputs": [
            {
              "internalType": "uint256",
              "name": "amountIn",
              "type": "uint256"
            }
          ],
          "stateMutability": "view",
          "type": "function"
        },
        {
          "inputs": [
            {
              "internalType": "address",
              "name": "seller",
              "type": "address"
            },
            {
              "internalType": "address",
              "name": "tokenAddress",
              "type": "address"
            },
            {
              "internalType": "uint256",
              "name": "customTaxAmount",
              "type": "uint256"
            },
            {
              "internalType": "uint256",
              "name": "minEthToReceive",
              "type": "uint256"
            }
          ],
          "name": "getSellAmountIn",
          "outputs": [
            {
              "internalType": "uint256",
              "name": "",
              "type": "uint256"
            }
          ],
          "stateMutability": "view",
          "type": "function"
        },
        {
          "inputs": [
            {
              "internalType": "address",
              "name": "",
              "type": "address"
            }
          ],
          "name": "listers",
          "outputs": [
            {
              "internalType": "bool",
              "name": "",
              "type": "bool"
            }
          ],
          "stateMutability": "view",
          "type": "function"
        },
        {
          "inputs": [],
          "name": "owner",
          "outputs": [
            {
              "internalType": "address",
              "name": "",
              "type": "address"
            }
          ],
          "stateMutability": "view",
          "type": "function"
        },
        {
          "inputs": [],
          "name": "pawSwapFactory",
          "outputs": [
            {
              "internalType": "contract PawSwapFactory",
              "name": "",
              "type": "address"
            }
          ],
          "stateMutability": "view",
          "type": "function"
        },
        {
          "inputs": [],
          "name": "pawSwapRouter",
          "outputs": [
            {
              "internalType": "address",
              "name": "",
              "type": "address"
            }
          ],
          "stateMutability": "view",
          "type": "function"
        },
        {
          "inputs": [],
          "name": "renounceOwnership",
          "outputs": [],
          "stateMutability": "nonpayable",
          "type": "function"
        },
        {
          "inputs": [
            {
              "internalType": "address",
              "name": "tokenAddress",
              "type": "address"
            },
            {
              "internalType": "uint256",
              "name": "tokensSold",
              "type": "uint256"
            },
            {
              "internalType": "uint256",
              "name": "customTaxAmount",
              "type": "uint256"
            },
            {
              "internalType": "address",
              "name": "customTaxAddress",
              "type": "address"
            },
            {
              "internalType": "uint256",
              "name": "minEthToReceive",
              "type": "uint256"
            },
            {
              "internalType": "bool",
              "name": "isExactIn",
              "type": "bool"
            }
          ],
          "name": "sellOnPawSwap",
          "outputs": [],
          "stateMutability": "nonpayable",
          "type": "function"
        },
        {
          "inputs": [
            {
              "internalType": "address",
              "name": "_address",
              "type": "address"
            },
            {
              "internalType": "bool",
              "name": "isLister",
              "type": "bool"
            }
          ],
          "name": "setListerAccount",
          "outputs": [],
          "stateMutability": "nonpayable",
          "type": "function"
        },
        {
          "inputs": [
            {
              "internalType": "address",
              "name": "_address",
              "type": "address"
            }
          ],
          "name": "setPawSwapFactory",
          "outputs": [],
          "stateMutability": "nonpayable",
          "type": "function"
        },
        {
          "inputs": [
            {
              "internalType": "address",
              "name": "_address",
              "type": "address"
            }
          ],
          "name": "setPawSwapRouter",
          "outputs": [],
          "stateMutability": "nonpayable",
          "type": "function"
        },
        {
          "inputs": [
            {
              "internalType": "address",
              "name": "_tokenAddress",
              "type": "address"
            },
            {
              "internalType": "address",
              "name": "_taxStructureContractAddress",
              "type": "address"
            }
          ],
          "name": "setTokenTaxContract",
          "outputs": [],
          "stateMutability": "nonpayable",
          "type": "function"
        },
        {
          "inputs": [
            {
              "internalType": "uint256",
              "name": "_fee",
              "type": "uint256"
            }
          ],
          "name": "setTreasuryFee",
          "outputs": [],
          "stateMutability": "nonpayable",
          "type": "function"
        },
        {
          "inputs": [
            {
              "internalType": "address",
              "name": "_dex",
              "type": "address"
            },
            {
              "internalType": "bool",
              "name": "_excluded",
              "type": "bool"
            }
          ],
          "name": "toggleDexExcludedFromTreasuryFee",
          "outputs": [],
          "stateMutability": "nonpayable",
          "type": "function"
        },
        {
          "inputs": [
            {
              "internalType": "address",
              "name": "",
              "type": "address"
            }
          ],
          "name": "tokenTaxContracts",
          "outputs": [
            {
              "internalType": "address",
              "name": "",
              "type": "address"
            }
          ],
          "stateMutability": "view",
          "type": "function"
        },
        {
          "inputs": [
            {
              "internalType": "address",
              "name": "newOwner",
              "type": "address"
            }
          ],
          "name": "transferOwnership",
          "outputs": [],
          "stateMutability": "nonpayable",
          "type": "function"
        },
        {
          "inputs": [],
          "name": "treasuryFee",
          "outputs": [
            {
              "internalType": "uint256",
              "name": "",
              "type": "uint256"
            }
          ],
          "stateMutability": "view",
          "type": "function"
        },
        {
          "inputs": [
            {
              "internalType": "uint256",
              "name": "_amount",
              "type": "uint256"
            }
          ],
          "name": "withdrawEthToOwner",
          "outputs": [],
          "stateMutability": "nonpayable",
          "type": "function"
        },
        {
          "inputs": [
            {
              "internalType": "address",
              "name": "tokenAddress",
              "type": "address"
            },
            {
              "internalType": "uint256",
              "name": "amount",
              "type": "uint256"
            }
          ],
          "name": "withdrawTokenToOwner",
          "outputs": [],
          "stateMutability": "nonpayable",
          "type": "function"
        },
        {
          "stateMutability": "payable",
          "type": "receive"
        }
      ],
      "evm": {
        "bytecode": {
          "linkReferences": {},
          "object": "60a060405260036008553480156200001657600080fd5b506040516200614138038062006141833981016040819052620000399162000109565b62000044336200009c565b60018080556001600160a01b03918216608052600680549483166001600160a01b0319958616179055600780549390921692909316821790556000908152600560205260409020805460ff1916909117905562000153565b600080546001600160a01b038381166001600160a01b0319831681178455604051919092169283917f8be0079c531659141344cd1fd0a4f28419497f9722a3daafe3b4186f6b6457e09190a35050565b80516001600160a01b03811681146200010457600080fd5b919050565b6000806000606084860312156200011f57600080fd5b6200012a84620000ec565b92506200013a60208501620000ec565b91506200014a60408501620000ec565b90509250925092565b608051615f69620001d860003960008181610456015281816139a701528181613bd201528181613c7d01528181613ced01528181613ffc015281816141f101528181614291015281816143850152818161440b015281816145d30152818161463e015281816147d0015281816149c201528181614b0c0152614ca20152615f696000f3fe60806040526004361061014f5760003560e01c80635dae8841116100b65780638f7eb3c41161006f5780638f7eb3c414610404578063a0a5c8d814610424578063ad5c464814610444578063b2d9a6da14610478578063cc32d17614610498578063f2fde38b146104ae57600080fd5b80635dae88411461034157806366e937681461037157806369c4e56214610391578063715018a6146103b157806377e741c7146103c65780638da5cb5b146103e657600080fd5b80632e568533116101085780632e568533146102635780633046a0f3146102835780634f248e7c146102a35780634f37813a146102d357806356a6338f146103015780635a1c02ef1461032157600080fd5b806302083ef71461015b578063038916701461017d5780630a018e70146101905780630b8f9cd6146101e3578063107bf304146102235780631630794e1461024357600080fd5b3661015657005b600080fd5b34801561016757600080fd5b5061017b610176366004615757565b6104ce565b005b61017b61018b3660046157be565b6105a4565b34801561019c57600080fd5b506101c66101ab36600461581d565b6004602052600090815260409020546001600160a01b031681565b6040516001600160a01b0390911681526020015b60405180910390f35b3480156101ef57600080fd5b506102136101fe36600461581d565b60056020526000908152604090205460ff1681565b60405190151581526020016101da565b34801561022f57600080fd5b5061017b61023e36600461583a565b6106d2565b34801561024f57600080fd5b5061017b61025e366004615853565b610798565b34801561026f57600080fd5b506007546101c6906001600160a01b031681565b34801561028f57600080fd5b5061017b61029e36600461588c565b6109f7565b3480156102af57600080fd5b506102136102be36600461581d565b60036020526000908152604090205460ff1681565b3480156102df57600080fd5b506102f36102ee3660046158ba565b610a4c565b6040519081526020016101da565b34801561030d57600080fd5b5061017b61031c366004615900565b610c48565b34801561032d57600080fd5b5061017b61033c36600461581d565b610da6565b34801561034d57600080fd5b5061021361035c36600461581d565b60026020526000908152604090205460ff1681565b34801561037d57600080fd5b5061017b61038c36600461588c565b610e5b565b34801561039d57600080fd5b5061017b6103ac36600461581d565b610eb0565b3480156103bd57600080fd5b5061017b610efc565b3480156103d257600080fd5b5061017b6103e136600461583a565b610f32565b3480156103f257600080fd5b506000546001600160a01b03166101c6565b34801561041057600080fd5b5061017b61041f36600461588c565b610ffc565b34801561043057600080fd5b506102f361043f3660046158ba565b611051565b34801561045057600080fd5b506101c67f000000000000000000000000000000000000000000000000000000000000000081565b34801561048457600080fd5b506006546101c6906001600160a01b031681565b3480156104a457600080fd5b506102f360085481565b3480156104ba57600080fd5b5061017b6104c936600461581d565b61123e565b6001600160a01b03808716600090815260046020526040902054168061050f5760405162461bcd60e51b81526004016105069061592c565b60405180910390fd5b60008060006105228a8a8a8a8a8a6112d9565b925092509250866001600160a01b03168a6001600160a01b03166105433390565b6001600160a01b03167ff851439257ab4721a095a66f1519733cc0ce83d271cc41e2ee699dcc580a2a2088610578578561057a565b8c5b6040805191825260208201899052810186905260600160405180910390a450505050505050505050565b600260015414156105f75760405162461bcd60e51b815260206004820152601f60248201527f5265656e7472616e637947756172643a207265656e7472616e742063616c6c006044820152606401610506565b60026001556001600160a01b03858116600090815260046020526040902054166106335760405162461bcd60e51b81526004016105069061592c565b6000806000610645888888888861146b565b925092509250856001600160a01b0316886001600160a01b03166106663390565b6001600160a01b03167f746b684d2e8096d01e8e457c9ac5f3365f1940bfe560e06d71b163ee8da5aeb9876106a45761069f863461596c565b6106a6565b345b6040805191825260208201899052810186905260600160405180910390a4505060018055505050505050565b6000546001600160a01b031633146106fc5760405162461bcd60e51b815260040161050690615983565b604051600090339083908381818185875af1925050503d806000811461073e576040519150601f19603f3d011682016040523d82523d6000602084013e610743565b606091505b50509050806107945760405162461bcd60e51b815260206004820152601b60248201527f4661696c656420746f2073656e642065746820746f206f776e657200000000006044820152606401610506565b5050565b6001600160a01b03821660009081526002602052604090205460ff16156108015760405162461bcd60e51b815260206004820152601c60248201527f546f6b656e206973206e6f7420616c6c6f77656420746f206c697374000000006044820152606401610506565b6001600160a01b038281166000908152600460205260409020548116908216141561087c5760405162461bcd60e51b815260206004820152602560248201527f53747275637475726520616c72656164792073657420746f2074686973206164604482015264647265737360d81b6064820152608401610506565b3360009081526003602052604090205460ff168061090c5750336001600160a01b0316826001600160a01b0316638da5cb5b6040518163ffffffff1660e01b8152600401602060405180830381865afa1580156108dd573d6000803e3d6000fd5b505050506040513d601f19601f8201168201806040525081019061090191906159b8565b6001600160a01b0316145b806109895750336001600160a01b0316306001600160a01b0316638da5cb5b6040518163ffffffff1660e01b8152600401602060405180830381865afa15801561095a573d6000803e3d6000fd5b505050506040513d601f19601f8201168201806040525081019061097e91906159b8565b6001600160a01b0316145b6109c95760405162461bcd60e51b815260206004820152601160248201527014195c9b5a5cdcda5bdb8819195b9a5959607a1b6044820152606401610506565b6001600160a01b03918216600090815260046020526040902080546001600160a01b03191691909216179055565b6000546001600160a01b03163314610a215760405162461bcd60e51b815260040161050690615983565b6001600160a01b03919091166000908152600360205260409020805460ff1916911515919091179055565b6001600160a01b03838116600090815260046020526040812054909116610a855760405162461bcd60e51b81526004016105069061592c565b6001600160a01b0380851660009081526004602052604081205490911690610ab1828689896001611677565b610140810151604080516002808252606082018352939450919260009291602083019080368337019050509050816001600160a01b031663ad5c46486040518163ffffffff1660e01b8152600401602060405180830381865afa158015610b1c573d6000803e3d6000fd5b505050506040513d601f19601f82011682018060405250810190610b4091906159b8565b81600081518110610b5357610b536159eb565b60200260200101906001600160a01b031690816001600160a01b0316815250508781600181518110610b8757610b876159eb565b6001600160a01b0392831660209182029290920101526000908316631f00ca74610bb18987611e79565b846040518363ffffffff1660e01b8152600401610bcf929190615a01565b600060405180830381865afa158015610bec573d6000803e3d6000fd5b505050506040513d6000823e601f3d908101601f19168201604052610c149190810190615a58565b9050610c3a81600081518110610c2c57610c2c6159eb565b602002602001015185611f23565b9a9950505050505050505050565b6000546001600160a01b03163314610c725760405162461bcd60e51b815260040161050690615983565b6040516370a0823160e01b81523060048201526000906001600160a01b038416906370a0823190602401602060405180830381865afa158015610cb9573d6000803e3d6000fd5b505050506040513d601f19601f82011682018060405250810190610cdd9190615b16565b905081811015610d2f5760405162461bcd60e51b815260206004820152601a60248201527f496e73756666696369656e7420746f6b656e2062616c616e63650000000000006044820152606401610506565b60405163a9059cbb60e01b81526001600160a01b0384169063a9059cbb90610d5d9033908690600401615b2f565b6020604051808303816000875af1158015610d7c573d6000803e3d6000fd5b505050506040513d601f19601f82011682018060405250810190610da09190615b48565b50505050565b6000546001600160a01b03163314610dd05760405162461bcd60e51b815260040161050690615983565b6007546001600160a01b0382811691161415610e395760405162461bcd60e51b815260206004820152602260248201527f526f7574657220616c72656164792073657420746f2074686973206164647265604482015261737360f01b6064820152608401610506565b600780546001600160a01b0319166001600160a01b0392909216919091179055565b6000546001600160a01b03163314610e855760405162461bcd60e51b815260040161050690615983565b6001600160a01b03919091166000908152600260205260409020805460ff1916911515919091179055565b6000546001600160a01b03163314610eda5760405162461bcd60e51b815260040161050690615983565b600680546001600160a01b0319166001600160a01b0392909216919091179055565b6000546001600160a01b03163314610f265760405162461bcd60e51b815260040161050690615983565b610f30600061203f565b565b6000546001600160a01b03163314610f5c5760405162461bcd60e51b815260040161050690615983565b806008541415610fae5760405162461bcd60e51b815260206004820152601d60248201527f46656520616c72656164792073657420746f20746869732076616c75650000006044820152606401610506565b61012c811115610ff75760405162461bcd60e51b81526020600482015260146024820152734665652063616e6e6f742065786365656420332560601b6044820152606401610506565b600855565b6000546001600160a01b031633146110265760405162461bcd60e51b815260040161050690615983565b6001600160a01b03919091166000908152600560205260409020805460ff1916911515919091179055565b6001600160a01b0383811660009081526004602052604081205490911661108a5760405162461bcd60e51b81526004016105069061592c565b6001600160a01b03808516600090815260046020526040812054909116906110b58286898985611677565b61014081015160408051600280825260608201835293945091926000929160208301908036833701905050905087816000815181106110f6576110f66159eb565b60200260200101906001600160a01b031690816001600160a01b031681525050816001600160a01b031663ad5c46486040518163ffffffff1660e01b8152600401602060405180830381865afa158015611154573d6000803e3d6000fd5b505050506040513d601f19601f8201168201806040525081019061117891906159b8565b8160018151811061118b5761118b6159eb565b6001600160a01b0392831660209182029290920101526000908316631f00ca746111b58987611f23565b846040518363ffffffff1660e01b81526004016111d3929190615a01565b600060405180830381865afa1580156111f0573d6000803e3d6000fd5b505050506040513d6000823e601f3d908101601f191682016040526112189190810190615a58565b9050610c3a81600081518110611230576112306159eb565b602002602001015185611e79565b6000546001600160a01b031633146112685760405162461bcd60e51b815260040161050690615983565b6001600160a01b0381166112cd5760405162461bcd60e51b815260206004820152602660248201527f4f776e61626c653a206e6577206f776e657220697320746865207a65726f206160448201526564647265737360d01b6064820152608401610506565b6112d68161203f565b50565b6001600160a01b038681166000908152600460205260408120549091829182911681611309828a338e6000611677565b80519091506001600160a01b03166323b872dd336040516001600160e01b031960e084901b1681526001600160a01b039091166004820152306024820152604481018d90526064016020604051808303816000875af1158015611370573d6000803e3d6000fd5b505050506040513d601f19601f820116820180604052508101906113949190615b48565b506000806113ba886113b1576113ac338f8e8d611051565b6113b3565b8c5b848661208f565b915091506000806113d6846113cf8d88611f23565b878d612326565b915091506000806113ea848f878a8c6124c6565b915091508c8210156114355760405162461bcd60e51b8152602060048201526014602482015273125b9cdd59999a58da595b9d08115512081bdd5d60621b6044820152606401610506565b6000611442838f8f612c25565b90508061144f858961596c565b839b509b509b5050505050505050505096509650969350505050565b6001600160a01b03858116600090815260046020526040812054909182918291168161149b828a338d6001611677565b905060008060006114c5896114bb576114b6338f8f8e610a4c565b6114bd565b345b8c8688612d72565b9250925092506000806114f0858c6114e6576114e18e89611e79565b6114e9565b60005b888e6134f2565b915091506000611507876000015184878a8c6136fb565b90508c8110156115595760405162461bcd60e51b815260206004820152601d60248201527f496e73756666696369656e7420746f6b656e73207075726368617365640000006044820152606401610506565b8b156115e45786516001600160a01b031663a9059cbb33836040518363ffffffff1660e01b815260040161158e929190615b2f565b6020604051808303816000875af11580156115ad573d6000803e3d6000fd5b505050506040513d601f19601f820116820180604052508101906115d19190615b48565b509950975090955061166c945050505050565b86516001600160a01b031663a9059cbb338f6040518363ffffffff1660e01b8152600401611613929190615b2f565b6020604051808303816000875af1158015611632573d6000803e3d6000fd5b505050506040513d601f19601f820116820180604052508101906116569190615b48565b508c9a5090985091965061166c95505050505050565b955095509592505050565b6116f660405180610180016040528060006001600160a01b0316815260200160008152602001600081526020016000815260200160008152602001600081526020016000815260200160008152602001600081526020016000815260200160006001600160a01b0316815260200160006001600160a01b031681525090565b8115611b7f5760408051610180810182526001600160a01b038086168252915163315535d360e21b81528683166004820152909160208301919089169063c554d74c90602401602060405180830381865afa158015611759573d6000803e3d6000fd5b505050506040513d601f19601f8201168201806040525081019061177d9190615b16565b815260405163e5902c2d60e01b81526001600160a01b03878116600483015260209092019189169063e5902c2d90602401602060405180830381865afa1580156117cb573d6000803e3d6000fd5b505050506040513d601f19601f820116820180604052508101906117ef9190615b16565b815260405163a385ac3160e01b81526001600160a01b03878116600483015260209092019189169063a385ac3190602401602060405180830381865afa15801561183d573d6000803e3d6000fd5b505050506040513d601f19601f820116820180604052508101906118619190615b16565b815260405163701b52c160e11b81526001600160a01b03878116600483015260209092019189169063e036a58290602401602060405180830381865afa1580156118af573d6000803e3d6000fd5b505050506040513d601f19601f820116820180604052508101906118d39190615b16565b815260405163a26c862960e01b81526001600160a01b03878116600483015260209092019189169063a26c862990602401602060405180830381865afa158015611921573d6000803e3d6000fd5b505050506040513d601f19601f820116820180604052508101906119459190615b16565b8152604051630bc7f14b60e21b81526001600160a01b038781166004830152602090920191891690632f1fc52c90602401602060405180830381865afa158015611993573d6000803e3d6000fd5b505050506040513d601f19601f820116820180604052508101906119b79190615b16565b815260405162f5ada960e31b81526001600160a01b0387811660048301526020909201918916906307ad6d48906024015b602060405180830381865afa158015611a05573d6000803e3d6000fd5b505050506040513d601f19601f82011682018060405250810190611a299190615b16565b8152602001868152602001876001600160a01b0316637e11b31f6040518163ffffffff1660e01b8152600401602060405180830381865afa158015611a72573d6000803e3d6000fd5b505050506040513d601f19601f82011682018060405250810190611a969190615b16565b8152602001876001600160a01b0316633268cc566040518163ffffffff1660e01b8152600401602060405180830381865afa158015611ad9573d6000803e3d6000fd5b505050506040513d601f19601f82011682018060405250810190611afd91906159b8565b6001600160a01b03168152602001876001600160a01b031663d505cc4d6040518163ffffffff1660e01b8152600401602060405180830381865afa158015611b49573d6000803e3d6000fd5b505050506040513d601f19601f82011682018060405250810190611b6d91906159b8565b6001600160a01b031690529050611e70565b60408051610180810182526001600160a01b038086168252915163e69aee9160e01b81528683166004820152909160208301919089169063e69aee9190602401602060405180830381865afa158015611bdc573d6000803e3d6000fd5b505050506040513d601f19601f82011682018060405250810190611c009190615b16565b815260405163387ad45560e21b81526001600160a01b03878116600483015260209092019189169063e1eb515490602401602060405180830381865afa158015611c4e573d6000803e3d6000fd5b505050506040513d601f19601f82011682018060405250810190611c729190615b16565b815260405163ab18363960e01b81526001600160a01b03878116600483015260209092019189169063ab18363990602401602060405180830381865afa158015611cc0573d6000803e3d6000fd5b505050506040513d601f19601f82011682018060405250810190611ce49190615b16565b815260405163041eb08f60e51b81526001600160a01b0387811660048301526020909201918916906383d611e090602401602060405180830381865afa158015611d32573d6000803e3d6000fd5b505050506040513d601f19601f82011682018060405250810190611d569190615b16565b81526040516375af309160e01b81526001600160a01b0387811660048301526020909201918916906375af309190602401602060405180830381865afa158015611da4573d6000803e3d6000fd5b505050506040513d601f19601f82011682018060405250810190611dc89190615b16565b8152604051637749eeb360e01b81526001600160a01b038781166004830152602090920191891690637749eeb390602401602060405180830381865afa158015611e16573d6000803e3d6000fd5b505050506040513d601f19601f82011682018060405250810190611e3a9190615b16565b81526040516310513c7160e21b81526001600160a01b038781166004830152602090920191891690634144f1c4906024016119e8565b95945050505050565b6000808260a001518360c0015160028560e00151611e979190615b65565b611ea19190615b87565b611eab9190615b87565b90506000818461012001516002611ec29190615b87565b611ecd90600a615c83565b611ed7919061596c565b905060008461012001516002611eed9190615b87565b611ef890600a615c83565b611f03906001615b87565b611f0d8388615b65565b611f179190615c8f565b93505050505b92915050565b600080826101000151836080015184606001518560400151866020015160028860e00151611f519190615b65565b611f5b9190615b87565b611f659190615b87565b611f6f9190615b87565b611f799190615b87565b611f839190615b87565b90506000818461012001516002611f9a9190615b87565b611fa590600a615c83565b611faf919061596c565b6101408501516001600160a01b031660009081526005602052604090205490915060ff1661200457600061271060085487611fea9190615c8f565b611ff49190615b65565b90506120008187615b87565b9550505b610120840151612015906002615b87565b61202090600a615c83565b61202b906001615b87565b6120358287615b65565b611e709190615c8f565b600080546001600160a01b038381166001600160a01b0319831681178455604051919092169283917f8be0079c531659141344cd1fd0a4f28419497f9722a3daafe3b4186f6b6457e09190a35050565b60008060008085610120015160026120a79190615b87565b6120b290600a615c83565b6120bd906001615b87565b90508560e00151600014612100578060028760e001516120dd9190615b65565b6120e79089615c8f565b6120f19190615b65565b91506120fd828861596c565b96505b60c08601511561220e576000818760c001518961211d9190615c8f565b6121279190615b65565b905086600001516001600160a01b031663a9059cbb876001600160a01b03166370d5ae056040518163ffffffff1660e01b8152600401602060405180830381865afa15801561217a573d6000803e3d6000fd5b505050506040513d601f19601f8201168201806040525081019061219e91906159b8565b836040518363ffffffff1660e01b81526004016121bc929190615b2f565b6020604051808303816000875af11580156121db573d6000803e3d6000fd5b505050506040513d601f19601f820116820180604052508101906121ff9190615b48565b5061220a818961596c565b9750505b60a08601511561231c576000818760a001518961222b9190615c8f565b6122359190615b65565b905086600001516001600160a01b031663a9059cbb876001600160a01b0316632cbfc5a56040518163ffffffff1660e01b8152600401602060405180830381865afa158015612288573d6000803e3d6000fd5b505050506040513d601f19601f820116820180604052508101906122ac91906159b8565b836040518363ffffffff1660e01b81526004016122ca929190615b2f565b6020604051808303816000875af11580156122e9573d6000803e3d6000fd5b505050506040513d601f19601f8201168201806040525081019061230d9190615b48565b50612318818961596c565b9750505b5094959350505050565b610140820151604080516002808252606082018352600093849390928492909160208301908036833701905050905085600001518160008151811061236d5761236d6159eb565b60200260200101906001600160a01b031690816001600160a01b031681525050816001600160a01b031663ad5c46486040518163ffffffff1660e01b8152600401602060405180830381865afa1580156123cb573d6000803e3d6000fd5b505050506040513d601f19601f820116820180604052508101906123ef91906159b8565b81600181518110612402576124026159eb565b6001600160a01b039283166020918202929092010152865160405163095ea7b360e01b815291169063095ea7b3906124409085908c90600401615b2f565b6020604051808303816000875af115801561245f573d6000803e3d6000fd5b505050506040513d601f19601f820116820180604052508101906124839190615b48565b5047851561249d5761249889600084866139a5565b6124ac565b6124aa888a843087613ce9565b505b6124b6814761596c565b9960009950975050505050505050565b6000806000879050600085602001516000146125f957600086610120015160026124f09190615b87565b6124fb90600a615c83565b602088015161250a908c615c8f565b6125149190615b65565b9050612520818461596c565b92506000866001600160a01b031663f3b6966b6040518163ffffffff1660e01b8152600401602060405180830381865afa158015612562573d6000803e3d6000fd5b505050506040513d601f19601f8201168201806040525081019061258691906159b8565b6001600160a01b03168260405160006040518083038185875af1925050503d80600081146125d0576040519150601f19603f3d011682016040523d82523d6000602084013e6125d5565b606091505b50509050806125f65760405162461bcd60e51b815260040161050690615cae565b50505b60408601511561272057600086610120015160026126179190615b87565b61262290600a615c83565b6040880151612631908c615c8f565b61263b9190615b65565b9050612647818461596c565b92506000866001600160a01b031663e32555526040518163ffffffff1660e01b8152600401602060405180830381865afa158015612689573d6000803e3d6000fd5b505050506040513d601f19601f820116820180604052508101906126ad91906159b8565b6001600160a01b03168260405160006040518083038185875af1925050503d80600081146126f7576040519150601f19603f3d011682016040523d82523d6000602084013e6126fc565b606091505b505090508061271d5760405162461bcd60e51b815260040161050690615cef565b50505b606086015115612847576000866101200151600261273e9190615b87565b61274990600a615c83565b6060880151612758908c615c8f565b6127629190615b65565b905061276e818461596c565b92506000866001600160a01b03166310b567ad6040518163ffffffff1660e01b8152600401602060405180830381865afa1580156127b0573d6000803e3d6000fd5b505050506040513d601f19601f820116820180604052508101906127d491906159b8565b6001600160a01b03168260405160006040518083038185875af1925050503d806000811461281e576040519150601f19603f3d011682016040523d82523d6000602084013e612823565b606091505b50509050806128445760405162461bcd60e51b815260040161050690615d30565b50505b60808601511561296e57600086610120015160026128659190615b87565b61287090600a615c83565b608088015161287f908c615c8f565b6128899190615b65565b9050612895818461596c565b92506000866001600160a01b03166380384d4d6040518163ffffffff1660e01b8152600401602060405180830381865afa1580156128d7573d6000803e3d6000fd5b505050506040513d601f19601f820116820180604052508101906128fb91906159b8565b6001600160a01b03168260405160006040518083038185875af1925050503d8060008114612945576040519150601f19603f3d011682016040523d82523d6000602084013e61294a565b606091505b505090508061296b5760405162461bcd60e51b815260040161050690615d71565b50505b61010086015115612a325761012086015161298a906002615b87565b61299590600a615c83565b6101008701516129a5908b615c8f565b6129af9190615b65565b90506129bb818361596c565b91506000886001600160a01b03168260405160006040518083038185875af1925050503d8060008114612a0a576040519150601f19603f3d011682016040523d82523d6000602084013e612a0f565b606091505b5050905080612a305760405162461bcd60e51b815260040161050690615d71565b505b6101408601516001600160a01b031660009081526005602052604090205460ff16612b9e5760006127106008548b612a6a9190615c8f565b612a749190615b65565b9050612a80818461596c565b92506000600660009054906101000a90046001600160a01b03166001600160a01b031663017e7e586040518163ffffffff1660e01b8152600401602060405180830381865afa158015612ad7573d6000803e3d6000fd5b505050506040513d601f19601f82011682018060405250810190612afb91906159b8565b6001600160a01b03168260405160006040518083038185875af1925050503d8060008114612b45576040519150601f19603f3d011682016040523d82523d6000602084013e612b4a565b606091505b5050905080612b9b5760405162461bcd60e51b815260206004820152601e60248201527f4661696c656420746f2073656e642065746820746f20747265617375727900006044820152606401610506565b50505b60e086015115612c175760008661012001516002612bbc9190615b87565b612bc790600a615c83565b60028860e00151612bd89190615b65565b612be2908c615c8f565b612bec9190615b65565b9050612bf8818461596c565b9250612c1588828961016001518a600001518b6101400151614174565b505b909890975095505050505050565b60008115612cce57604051600090339086908381818185875af1925050503d8060008114612c6f576040519150601f19603f3d011682016040523d82523d6000602084013e612c74565b606091505b5050905080612cc55760405162461bcd60e51b815260206004820152601a60248201527f4661696c656420746f2073656e642065746820746f20757365720000000000006044820152606401610506565b84915050612d6b565b604051600090339085908381818185875af1925050503d8060008114612d10576040519150601f19603f3d011682016040523d82523d6000602084013e612d15565b606091505b5050905080612d665760405162461bcd60e51b815260206004820152601a60248201527f4661696c656420746f2073656e642065746820746f20757365720000000000006044820152606401610506565b839150505b9392505050565b6101408201516001600160a01b03166000908152600560205260408120548190819087908290819060ff16612ee85760006127106008548c612db49190615c8f565b612dbe9190615b65565b9050612dca818561596c565b93506000600660009054906101000a90046001600160a01b03166001600160a01b031663017e7e586040518163ffffffff1660e01b8152600401602060405180830381865afa158015612e21573d6000803e3d6000fd5b505050506040513d601f19601f82011682018060405250810190612e4591906159b8565b6001600160a01b03168260405160006040518083038185875af1925050503d8060008114612e8f576040519150601f19603f3d011682016040523d82523d6000602084013e612e94565b606091505b5050905080612ee55760405162461bcd60e51b815260206004820152601e60248201527f4661696c656420746f2073656e642065746820746f20747265617375727900006044820152606401610506565b50505b60e088015115612f4257610120880151612f03906002615b87565b612f0e90600a615c83565b60028960e00151612f1f9190615b65565b612f29908c615c8f565b612f339190615b65565b9150612f3f828461596c565b92505b6020880151156130695760008861012001516002612f609190615b87565b612f6b90600a615c83565b60208a0151612f7a908d615c8f565b612f849190615b65565b9050612f90818561596c565b93506000886001600160a01b031663f3b6966b6040518163ffffffff1660e01b8152600401602060405180830381865afa158015612fd2573d6000803e3d6000fd5b505050506040513d601f19601f82011682018060405250810190612ff691906159b8565b6001600160a01b03168260405160006040518083038185875af1925050503d8060008114613040576040519150601f19603f3d011682016040523d82523d6000602084013e613045565b606091505b50509050806130665760405162461bcd60e51b815260040161050690615cae565b50505b60408801511561319057600088610120015160026130879190615b87565b61309290600a615c83565b60408a01516130a1908d615c8f565b6130ab9190615b65565b90506130b7818561596c565b93506000886001600160a01b031663e32555526040518163ffffffff1660e01b8152600401602060405180830381865afa1580156130f9573d6000803e3d6000fd5b505050506040513d601f19601f8201168201806040525081019061311d91906159b8565b6001600160a01b03168260405160006040518083038185875af1925050503d8060008114613167576040519150601f19603f3d011682016040523d82523d6000602084013e61316c565b606091505b505090508061318d5760405162461bcd60e51b815260040161050690615cef565b50505b6060880151156132b757600088610120015160026131ae9190615b87565b6131b990600a615c83565b60608a01516131c8908d615c8f565b6131d29190615b65565b90506131de818561596c565b93506000886001600160a01b03166310b567ad6040518163ffffffff1660e01b8152600401602060405180830381865afa158015613220573d6000803e3d6000fd5b505050506040513d601f19601f8201168201806040525081019061324491906159b8565b6001600160a01b03168260405160006040518083038185875af1925050503d806000811461328e576040519150601f19603f3d011682016040523d82523d6000602084013e613293565b606091505b50509050806132b45760405162461bcd60e51b815260040161050690615d30565b50505b6080880151156133de57600088610120015160026132d59190615b87565b6132e090600a615c83565b60808a01516132ef908d615c8f565b6132f99190615b65565b9050613305818561596c565b93506000886001600160a01b03166380384d4d6040518163ffffffff1660e01b8152600401602060405180830381865afa158015613347573d6000803e3d6000fd5b505050506040513d601f19601f8201168201806040525081019061336b91906159b8565b6001600160a01b03168260405160006040518083038185875af1925050503d80600081146133b5576040519150601f19603f3d011682016040523d82523d6000602084013e6133ba565b606091505b50509050806133db5760405162461bcd60e51b815260040161050690615d71565b50505b610100880151156134e2576101208801516133fa906002615b87565b61340590600a615c83565b610100890151613415908c615c8f565b61341f9190615b65565b905061342b818461596c565b92506000896001600160a01b03168260405160006040518083038185875af1925050503d806000811461347a576040519150601f19603f3d011682016040523d82523d6000602084013e61347f565b606091505b50509050806134e05760405162461bcd60e51b815260206004820152602760248201527f4661696c656420746f2073656e642065746820746f20637573746f6d20746178604482015266081dd85b1b195d60ca1b6064820152608401610506565b505b9199909850909650945050505050565b6101408201516040805160028082526060820183526000938493909284929091602083019080368337019050509050816001600160a01b031663ad5c46486040518163ffffffff1660e01b8152600401602060405180830381865afa15801561355f573d6000803e3d6000fd5b505050506040513d601f19601f8201168201806040525081019061358391906159b8565b81600081518110613596576135966159eb565b60200260200101906001600160a01b031690816001600160a01b0316815250508560000151816001815181106135ce576135ce6159eb565b6001600160a01b03928316602091820292909201015286516040516370a0823160e01b815230600482015260009291909116906370a0823190602401602060405180830381865afa158015613627573d6000803e3d6000fd5b505050506040513d601f19601f8201168201806040525081019061364b9190615b16565b905060008615613667576136628a600085876145d1565b613677565b6136738a8a85876149bc565b9150505b87516040516370a0823160e01b815230600482015283916001600160a01b0316906370a0823190602401602060405180830381865afa1580156136be573d6000803e3d6000fd5b505050506040513d601f19601f820116820180604052508101906136e29190615b16565b6136ec919061596c565b9a909950975050505050505050565b61012082015160009085908290613713906002615b87565b61371e90600a615c83565b613729906001615b87565b90508460e001516000146137865760008160028760e0015161374b9190615b65565b613755908a615c8f565b61375f9190615b65565b905061376b818461596c565b925061378481888861016001518c8a6101400151614174565b505b60c085015115613890576000818660c00151896137a39190615c8f565b6137ad9190615b65565b90506137b9818461596c565b9250886001600160a01b031663a9059cbb866001600160a01b03166370d5ae056040518163ffffffff1660e01b8152600401602060405180830381865afa158015613808573d6000803e3d6000fd5b505050506040513d601f19601f8201168201806040525081019061382c91906159b8565b836040518363ffffffff1660e01b815260040161384a929190615b2f565b6020604051808303816000875af1158015613869573d6000803e3d6000fd5b505050506040513d601f19601f8201168201806040525081019061388d9190615b48565b50505b60a08501511561399a576000818660a00151896138ad9190615c8f565b6138b79190615b65565b90506138c3818461596c565b9250886001600160a01b031663a9059cbb866001600160a01b0316632cbfc5a56040518163ffffffff1660e01b8152600401602060405180830381865afa158015613912573d6000803e3d6000fd5b505050506040513d601f19601f8201168201806040525081019061393691906159b8565b836040518363ffffffff1660e01b8152600401613954929190615b2f565b6020604051808303816000875af1158015613973573d6000803e3d6000fd5b505050506040513d601f19601f820116820180604052508101906139979190615b48565b50505b509695505050505050565b7f00000000000000000000000000000000000000000000000000000000000000006001600160a01b031682600184516139de919061596c565b815181106139ee576139ee6159eb565b60200260200101516001600160a01b031614613a1c5760405162461bcd60e51b815260040161050690615db2565b6000816001600160a01b031663c45a01556040518163ffffffff1660e01b8152600401602060405180830381865afa158015613a5c573d6000803e3d6000fd5b505050506040513d601f19601f82011682018060405250810190613a8091906159b8565b6001600160a01b031663e6a4390584600081518110613aa157613aa16159eb565b602002602001015185600181518110613abc57613abc6159eb565b60200260200101516040518363ffffffff1660e01b8152600401613ae1929190615de1565b602060405180830381865afa158015613afe573d6000803e3d6000fd5b505050506040513d601f19601f82011682018060405250810190613b2291906159b8565b905082600081518110613b3757613b376159eb565b60200260200101516001600160a01b031663a9059cbb82876040518363ffffffff1660e01b8152600401613b6c929190615b2f565b6020604051808303816000875af1158015613b8b573d6000803e3d6000fd5b505050506040513d601f19601f82011682018060405250810190613baf9190615b48565b50613bba8383614e51565b6040516370a0823160e01b81523060048201526000907f00000000000000000000000000000000000000000000000000000000000000006001600160a01b0316906370a0823190602401602060405180830381865afa158015613c21573d6000803e3d6000fd5b505050506040513d601f19601f82011682018060405250810190613c459190615b16565b905084811015613c675760405162461bcd60e51b815260040161050690615dfb565b604051632e1a7d4d60e01b8152600481018290527f00000000000000000000000000000000000000000000000000000000000000006001600160a01b031690632e1a7d4d90602401600060405180830381600087803b158015613cc957600080fd5b505af1158015613cdd573d6000803e3d6000fd5b50505050505050505050565b60607f00000000000000000000000000000000000000000000000000000000000000006001600160a01b03168460018651613d24919061596c565b81518110613d3457613d346159eb565b60200260200101516001600160a01b031614613d625760405162461bcd60e51b815260040161050690615db2565b6040516307c0329d60e21b81526001600160a01b03831690631f00ca7490613d909089908890600401615a01565b600060405180830381865afa158015613dad573d6000803e3d6000fd5b505050506040513d6000823e601f3d908101601f19168201604052613dd59190810190615a58565b90508481600081518110613deb57613deb6159eb565b60200260200101511115613e415760405162461bcd60e51b815260206004820152601f60248201527f506177737761703a204558434553534956455f494e5055545f414d4f554e54006044820152606401610506565b6000826001600160a01b031663c45a01556040518163ffffffff1660e01b8152600401602060405180830381865afa158015613e81573d6000803e3d6000fd5b505050506040513d601f19601f82011682018060405250810190613ea591906159b8565b6001600160a01b031663e6a4390586600081518110613ec657613ec66159eb565b602002602001015187600181518110613ee157613ee16159eb565b60200260200101516040518363ffffffff1660e01b8152600401613f06929190615de1565b602060405180830381865afa158015613f23573d6000803e3d6000fd5b505050506040513d601f19601f82011682018060405250810190613f4791906159b8565b905084600081518110613f5c57613f5c6159eb565b60200260200101516001600160a01b031663a9059cbb8284600081518110613f8657613f866159eb565b60200260200101516040518363ffffffff1660e01b8152600401613fab929190615b2f565b6020604051808303816000875af1158015613fca573d6000803e3d6000fd5b505050506040513d601f19601f82011682018060405250810190613fee9190615b48565b50613ffa8286836151bc565b7f00000000000000000000000000000000000000000000000000000000000000006001600160a01b0316632e1a7d4d8360018551614038919061596c565b81518110614048576140486159eb565b60200260200101516040518263ffffffff1660e01b815260040161406e91815260200190565b600060405180830381600087803b15801561408857600080fd5b505af115801561409c573d6000803e3d6000fd5b505050506000846001600160a01b031683600185516140bb919061596c565b815181106140cb576140cb6159eb565b602002602001015160405160006040518083038185875af1925050503d8060008114614113576040519150601f19603f3d011682016040523d82523d6000602084013e614118565b606091505b50509050806141695760405162461bcd60e51b815260206004820152601c60248201527f4661696c656420746f2073656e642065746820746f2073656c6c6572000000006044820152606401610506565b505095945050505050565b60405163095ea7b360e01b815281906001600160a01b0384169063095ea7b3906141a49084908a90600401615b2f565b6020604051808303816000875af11580156141c3573d6000803e3d6000fd5b505050506040513d601f19601f820116820180604052508101906141e79190615b48565b50600080614218857f00000000000000000000000000000000000000000000000000000000000000008a8a876152d0565b915091506000836001600160a01b031663c45a01556040518163ffffffff1660e01b8152600401602060405180830381865afa15801561425c573d6000803e3d6000fd5b505050506040513d601f19601f8201168201806040525081019061428091906159b8565b6001600160a01b031663e6a43905877f00000000000000000000000000000000000000000000000000000000000000006040518363ffffffff1660e01b81526004016142cd929190615de1565b602060405180830381865afa1580156142ea573d6000803e3d6000fd5b505050506040513d601f19601f8201168201806040525081019061430e91906159b8565b60405163a9059cbb60e01b81529091506001600160a01b0387169063a9059cbb9061433f9084908790600401615b2f565b6020604051808303816000875af115801561435e573d6000803e3d6000fd5b505050506040513d601f19601f820116820180604052508101906143829190615b48565b507f00000000000000000000000000000000000000000000000000000000000000006001600160a01b031663d0e30db0836040518263ffffffff1660e01b81526004016000604051808303818588803b1580156143de57600080fd5b505af11580156143f2573d6000803e3d6000fd5b505060405163a9059cbb60e01b81526001600160a01b037f000000000000000000000000000000000000000000000000000000000000000016935063a9059cbb9250614445915084908690600401615b2f565b6020604051808303816000875af1158015614464573d6000803e3d6000fd5b505050506040513d601f19601f820116820180604052508101906144889190615b48565b61449457614494615e3e565b6040516335313c2160e11b81526001600160a01b038881166004830152821690636a627842906024016020604051808303816000875af11580156144dc573d6000803e3d6000fd5b505050506040513d601f19601f820116820180604052508101906145009190615b16565b50818811156145c657600033614516848b61596c565b604051600081818185875af1925050503d8060008114614552576040519150601f19603f3d011682016040523d82523d6000602084013e614557565b606091505b5050905080613cdd5760405162461bcd60e51b815260206004820152603560248201527f4661696c656420746f20726566756e64207573657220647573742065746820616044820152746674657220616464696e67206c697175696469747960581b6064820152608401610506565b505050505050505050565b7f00000000000000000000000000000000000000000000000000000000000000006001600160a01b03168260008151811061460e5761460e6159eb565b60200260200101516001600160a01b03161461463c5760405162461bcd60e51b815260040161050690615db2565b7f00000000000000000000000000000000000000000000000000000000000000006001600160a01b031663d0e30db0856040518263ffffffff1660e01b81526004016000604051808303818588803b15801561469757600080fd5b505af11580156146ab573d6000803e3d6000fd5b50505050506000816001600160a01b031663c45a01556040518163ffffffff1660e01b8152600401602060405180830381865afa1580156146f0573d6000803e3d6000fd5b505050506040513d601f19601f8201168201806040525081019061471491906159b8565b6001600160a01b031663e6a4390584600081518110614735576147356159eb565b602002602001015185600181518110614750576147506159eb565b60200260200101516040518363ffffffff1660e01b8152600401614775929190615de1565b602060405180830381865afa158015614792573d6000803e3d6000fd5b505050506040513d601f19601f820116820180604052508101906147b691906159b8565b60405163a9059cbb60e01b81529091506001600160a01b037f0000000000000000000000000000000000000000000000000000000000000000169063a9059cbb906148079084908990600401615b2f565b6020604051808303816000875af1158015614826573d6000803e3d6000fd5b505050506040513d601f19601f8201168201806040525081019061484a9190615b48565b61485657614856615e3e565b60008360018551614867919061596c565b81518110614877576148776159eb565b60209081029190910101516040516370a0823160e01b81523060048201526001600160a01b03909116906370a0823190602401602060405180830381865afa1580156148c7573d6000803e3d6000fd5b505050506040513d601f19601f820116820180604052508101906148eb9190615b16565b90506148f78484614e51565b84818560018751614908919061596c565b81518110614918576149186159eb565b60209081029190910101516040516370a0823160e01b81523060048201526001600160a01b03909116906370a0823190602401602060405180830381865afa158015614968573d6000803e3d6000fd5b505050506040513d601f19601f8201168201806040525081019061498c9190615b16565b614996919061596c565b10156149b45760405162461bcd60e51b815260040161050690615dfb565b505050505050565b606060007f00000000000000000000000000000000000000000000000000000000000000006001600160a01b0316846000815181106149fd576149fd6159eb565b60200260200101516001600160a01b031614614a2b5760405162461bcd60e51b815260040161050690615db2565b6040516307c0329d60e21b81526001600160a01b03841690631f00ca7490614a599088908890600401615a01565b600060405180830381865afa158015614a76573d6000803e3d6000fd5b505050506040513d6000823e601f3d908101601f19168201604052614a9e9190810190615a58565b91508582600081518110614ab457614ab46159eb565b60200260200101511115614b0a5760405162461bcd60e51b815260206004820152601f60248201527f506177737761703a204558434553534956455f494e5055545f414d4f554e54006044820152606401610506565b7f00000000000000000000000000000000000000000000000000000000000000006001600160a01b031663d0e30db083600081518110614b4c57614b4c6159eb565b60200260200101516040518263ffffffff1660e01b81526004016000604051808303818588803b158015614b7f57600080fd5b505af1158015614b93573d6000803e3d6000fd5b50505050506000836001600160a01b031663c45a01556040518163ffffffff1660e01b8152600401602060405180830381865afa158015614bd8573d6000803e3d6000fd5b505050506040513d601f19601f82011682018060405250810190614bfc91906159b8565b6001600160a01b031663e6a4390586600081518110614c1d57614c1d6159eb565b602002602001015187600181518110614c3857614c386159eb565b60200260200101516040518363ffffffff1660e01b8152600401614c5d929190615de1565b602060405180830381865afa158015614c7a573d6000803e3d6000fd5b505050506040513d601f19601f82011682018060405250810190614c9e91906159b8565b90507f00000000000000000000000000000000000000000000000000000000000000006001600160a01b031663a9059cbb8285600081518110614ce357614ce36159eb565b60200260200101516040518363ffffffff1660e01b8152600401614d08929190615b2f565b6020604051808303816000875af1158015614d27573d6000803e3d6000fd5b505050506040513d601f19601f82011682018060405250810190614d4b9190615b48565b614d5757614d57615e3e565b614d628386836151bc565b82600081518110614d7557614d756159eb565b6020026020010151871115614e475782600081518110614d9757614d976159eb565b602002602001015187614daa919061596c565b604051909250600090339084908381818185875af1925050503d8060008114614def576040519150601f19603f3d011682016040523d82523d6000602084013e614df4565b606091505b5050905080614e455760405162461bcd60e51b815260206004820152601e60248201527f4661696c656420746f20726566756e64207573657220647573742065746800006044820152606401610506565b505b5094509492505050565b60008083600081518110614e6757614e676159eb565b602002602001015184600181518110614e8257614e826159eb565b6020026020010151915091506000614e9a8383615652565b5090506000846001600160a01b031663c45a01556040518163ffffffff1660e01b8152600401602060405180830381865afa158015614edd573d6000803e3d6000fd5b505050506040513d601f19601f82011682018060405250810190614f0191906159b8565b6001600160a01b031663e6a4390585856040518363ffffffff1660e01b8152600401614f2e929190615de1565b602060405180830381865afa158015614f4b573d6000803e3d6000fd5b505050506040513d601f19601f82011682018060405250810190614f6f91906159b8565b9050600080600080846001600160a01b0316630902f1ac6040518163ffffffff1660e01b8152600401606060405180830381865afa158015614fb5573d6000803e3d6000fd5b505050506040513d601f19601f82011682018060405250810190614fd99190615e70565b506001600160701b031691506001600160701b03169150600080876001600160a01b03168a6001600160a01b031614615013578284615016565b83835b6040516370a0823160e01b81526001600160a01b038a8116600483015292945090925083918c16906370a0823190602401602060405180830381865afa158015615064573d6000803e3d6000fd5b505050506040513d601f19601f820116820180604052508101906150889190615b16565b615092919061596c565b604051630153543560e21b81526004810182905260248101849052604481018390529096506001600160a01b038c169063054d50d490606401602060405180830381865afa1580156150e8573d6000803e3d6000fd5b505050506040513d601f19601f8201168201806040525081019061510c9190615b16565b945050505050600080856001600160a01b0316886001600160a01b0316146151365782600061513a565b6000835b6040805160008152602081019182905263022c0d9f60e01b90915291935091506001600160a01b0386169063022c0d9f9061517e9085908590309060248101615ec0565b600060405180830381600087803b15801561519857600080fd5b505af11580156151ac573d6000803e3d6000fd5b5050505050505050505050505050565b600080836000815181106151d2576151d26159eb565b6020026020010151846001815181106151ed576151ed6159eb565b60200260200101519150915060006152058383615652565b50905060008660018151811061521d5761521d6159eb565b60200260200101519050600080836001600160a01b0316866001600160a01b03161461524b5782600061524f565b6000835b6040805160008152602081019182905263022c0d9f60e01b90915291935091506001600160a01b0388169063022c0d9f906152939085908590309060248101615ec0565b600060405180830381600087803b1580156152ad57600080fd5b505af11580156152c1573d6000803e3d6000fd5b50505050505050505050505050565b6000806000836001600160a01b031663c45a01556040518163ffffffff1660e01b8152600401602060405180830381865afa158015615313573d6000803e3d6000fd5b505050506040513d601f19601f8201168201806040525081019061533791906159b8565b6001600160a01b031663e6a4390589896040518363ffffffff1660e01b8152600401615364929190615de1565b602060405180830381865afa158015615381573d6000803e3d6000fd5b505050506040513d601f19601f820116820180604052508101906153a591906159b8565b90506001600160a01b03811661548957836001600160a01b031663c45a01556040518163ffffffff1660e01b8152600401602060405180830381865afa1580156153f3573d6000803e3d6000fd5b505050506040513d601f19601f8201168201806040525081019061541791906159b8565b6001600160a01b031663c9c6539689896040518363ffffffff1660e01b8152600401615444929190615de1565b6020604051808303816000875af1158015615463573d6000803e3d6000fd5b505050506040513d601f19601f8201168201806040525081019061548791906159b8565b505b600080826001600160a01b0316630902f1ac6040518163ffffffff1660e01b8152600401606060405180830381865afa1580156154ca573d6000803e3d6000fd5b505050506040513d601f19601f820116820180604052508101906154ee9190615e70565b506001600160701b031691506001600160701b03169150816000148015615513575080155b1561552357879450869350615645565b604051632b58577b60e21b81526004810189905260248101839052604481018290526000906001600160a01b0388169063ad615dec90606401602060405180830381865afa158015615579573d6000803e3d6000fd5b505050506040513d601f19601f8201168201806040525081019061559d9190615b16565b90508781116155b157889550935083615643565b604051632b58577b60e21b81526004810189905260248101839052604481018490526000906001600160a01b0389169063ad615dec90606401602060405180830381865afa158015615607573d6000803e3d6000fd5b505050506040513d601f19601f8201168201806040525081019061562b9190615b16565b90508981111561563d5761563d615e3e565b95508794505b505b5050509550959350505050565b600080826001600160a01b0316846001600160a01b031614156156b75760405162461bcd60e51b815260206004820152601c60248201527f506177737761703a204944454e544943414c5f414444524553534553000000006044820152606401610506565b826001600160a01b0316846001600160a01b0316106156d75782846156da565b83835b90925090506001600160a01b03821661572d5760405162461bcd60e51b8152602060048201526015602482015274506177737761703a205a45524f5f4144445245535360581b6044820152606401610506565b9250929050565b6001600160a01b03811681146112d657600080fd5b80151581146112d657600080fd5b60008060008060008060c0878903121561577057600080fd5b863561577b81615734565b95506020870135945060408701359350606087013561579981615734565b92506080870135915060a08701356157b081615749565b809150509295509295509295565b600080600080600060a086880312156157d657600080fd5b85356157e181615734565b94506020860135935060408601356157f881615734565b925060608601359150608086013561580f81615749565b809150509295509295909350565b60006020828403121561582f57600080fd5b8135612d6b81615734565b60006020828403121561584c57600080fd5b5035919050565b6000806040838503121561586657600080fd5b823561587181615734565b9150602083013561588181615734565b809150509250929050565b6000806040838503121561589f57600080fd5b82356158aa81615734565b9150602083013561588181615749565b600080600080608085870312156158d057600080fd5b84356158db81615734565b935060208501356158eb81615734565b93969395505050506040820135916060013590565b6000806040838503121561591357600080fd5b823561591e81615734565b946020939093013593505050565b60208082526010908201526f151bdad95b881b9bdd081b1a5cdd195960821b604082015260600190565b634e487b7160e01b600052601160045260246000fd5b60008282101561597e5761597e615956565b500390565b6020808252818101527f4f776e61626c653a2063616c6c6572206973206e6f7420746865206f776e6572604082015260600190565b6000602082840312156159ca57600080fd5b8151612d6b81615734565b634e487b7160e01b600052604160045260246000fd5b634e487b7160e01b600052603260045260246000fd5b6000604082018483526020604081850152818551808452606086019150828701935060005b81811015615a4b5784516001600160a01b031683529383019391830191600101615a26565b5090979650505050505050565b60006020808385031215615a6b57600080fd5b825167ffffffffffffffff80821115615a8357600080fd5b818501915085601f830112615a9757600080fd5b815181811115615aa957615aa96159d5565b8060051b604051601f19603f83011681018181108582111715615ace57615ace6159d5565b604052918252848201925083810185019188831115615aec57600080fd5b938501935b82851015615b0a57845184529385019392850192615af1565b98975050505050505050565b600060208284031215615b2857600080fd5b5051919050565b6001600160a01b03929092168252602082015260400190565b600060208284031215615b5a57600080fd5b8151612d6b81615749565b600082615b8257634e487b7160e01b600052601260045260246000fd5b500490565b60008219821115615b9a57615b9a615956565b500190565b600181815b80851115615bda578160001904821115615bc057615bc0615956565b80851615615bcd57918102915b93841c9390800290615ba4565b509250929050565b600082615bf157506001611f1d565b81615bfe57506000611f1d565b8160018114615c145760028114615c1e57615c3a565b6001915050611f1d565b60ff841115615c2f57615c2f615956565b50506001821b611f1d565b5060208310610133831016604e8410600b8410161715615c5d575081810a611f1d565b615c678383615b9f565b8060001904821115615c7b57615c7b615956565b029392505050565b6000612d6b8383615be2565b6000816000190483118215151615615ca957615ca9615956565b500290565b60208082526021908201527f4661696c656420746f2073656e642065746820746f20746178312077616c6c656040820152601d60fa1b606082015260800190565b60208082526021908201527f4661696c656420746f2073656e642065746820746f20746178322077616c6c656040820152601d60fa1b606082015260800190565b60208082526021908201527f4661696c656420746f2073656e642065746820746f20746178332077616c6c656040820152601d60fa1b606082015260800190565b60208082526021908201527f4661696c656420746f2073656e642065746820746f20746178342077616c6c656040820152601d60fa1b606082015260800190565b6020808252601590820152740a0c2eee6eec2e07440929cac82989288bea082a89605b1b604082015260600190565b6001600160a01b0392831681529116602082015260400190565b60208082526023908201527f506177737761703a20494e53554646494349454e545f4f55545055545f414d4f60408201526215539560ea1b606082015260800190565b634e487b7160e01b600052600160045260246000fd5b80516001600160701b0381168114615e6b57600080fd5b919050565b600080600060608486031215615e8557600080fd5b615e8e84615e54565b9250615e9c60208501615e54565b9150604084015163ffffffff81168114615eb557600080fd5b809150509250925092565b84815260006020858184015260018060a01b038516604084015260806060840152835180608085015260005b81811015615f085785810183015185820160a001528201615eec565b81811115615f1a57600060a083870101525b50601f01601f19169290920160a001969550505050505056fea26469706673582212206205cb5da028bfb834451eace93b5bc7cb78f1e405e6cd6dc8614d4dbc13e77164736f6c634300080c0033",
          "opcodes": "PUSH1 0xA0 PUSH1 0x40 MSTORE PUSH1 0x3 PUSH1 0x8 SSTORE CALLVALUE DUP1 ISZERO PUSH3 0x16 JUMPI PUSH1 0x0 DUP1 REVERT JUMPDEST POP PUSH1 0x40 MLOAD PUSH3 0x6141 CODESIZE SUB DUP1 PUSH3 0x6141 DUP4 CODECOPY DUP2 ADD PUSH1 0x40 DUP2 SWAP1 MSTORE PUSH3 0x39 SWAP2 PUSH3 0x109 JUMP JUMPDEST PUSH3 0x44 CALLER PUSH3 0x9C JUMP JUMPDEST PUSH1 0x1 DUP1 DUP1 SSTORE PUSH1 0x1 PUSH1 0x1 PUSH1 0xA0 SHL SUB SWAP2 DUP3 AND PUSH1 0x80 MSTORE PUSH1 0x6 DUP1 SLOAD SWAP5 DUP4 AND PUSH1 0x1 PUSH1 0x1 PUSH1 0xA0 SHL SUB NOT SWAP6 DUP7 AND OR SWAP1 SSTORE PUSH1 0x7 DUP1 SLOAD SWAP4 SWAP1 SWAP3 AND SWAP3 SWAP1 SWAP4 AND DUP3 OR SWAP1 SSTORE PUSH1 0x0 SWAP1 DUP2 MSTORE PUSH1 0x5 PUSH1 0x20 MSTORE PUSH1 0x40 SWAP1 KECCAK256 DUP1 SLOAD PUSH1 0xFF NOT AND SWAP1 SWAP2 OR SWAP1 SSTORE PUSH3 0x153 JUMP JUMPDEST PUSH1 0x0 DUP1 SLOAD PUSH1 0x1 PUSH1 0x1 PUSH1 0xA0 SHL SUB DUP4 DUP2 AND PUSH1 0x1 PUSH1 0x1 PUSH1 0xA0 SHL SUB NOT DUP4 AND DUP2 OR DUP5 SSTORE PUSH1 0x40 MLOAD SWAP2 SWAP1 SWAP3 AND SWAP3 DUP4 SWAP2 PUSH32 0x8BE0079C531659141344CD1FD0A4F28419497F9722A3DAAFE3B4186F6B6457E0 SWAP2 SWAP1 LOG3 POP POP JUMP JUMPDEST DUP1 MLOAD PUSH1 0x1 PUSH1 0x1 PUSH1 0xA0 SHL SUB DUP2 AND DUP2 EQ PUSH3 0x104 JUMPI PUSH1 0x0 DUP1 REVERT JUMPDEST SWAP2 SWAP1 POP JUMP JUMPDEST PUSH1 0x0 DUP1 PUSH1 0x0 PUSH1 0x60 DUP5 DUP7 SUB SLT ISZERO PUSH3 0x11F JUMPI PUSH1 0x0 DUP1 REVERT JUMPDEST PUSH3 0x12A DUP5 PUSH3 0xEC JUMP JUMPDEST SWAP3 POP PUSH3 0x13A PUSH1 0x20 DUP6 ADD PUSH3 0xEC JUMP JUMPDEST SWAP2 POP PUSH3 0x14A PUSH1 0x40 DUP6 ADD PUSH3 0xEC JUMP JUMPDEST SWAP1 POP SWAP3 POP SWAP3 POP SWAP3 JUMP JUMPDEST PUSH1 0x80 MLOAD PUSH2 0x5F69 PUSH3 0x1D8 PUSH1 0x0 CODECOPY PUSH1 0x0 DUP2 DUP2 PUSH2 0x456 ADD MSTORE DUP2 DUP2 PUSH2 0x39A7 ADD MSTORE DUP2 DUP2 PUSH2 0x3BD2 ADD MSTORE DUP2 DUP2 PUSH2 0x3C7D ADD MSTORE DUP2 DUP2 PUSH2 0x3CED ADD MSTORE DUP2 DUP2 PUSH2 0x3FFC ADD MSTORE DUP2 DUP2 PUSH2 0x41F1 ADD MSTORE DUP2 DUP2 PUSH2 0x4291 ADD MSTORE DUP2 DUP2 PUSH2 0x4385 ADD MSTORE DUP2 DUP2 PUSH2 0x440B ADD MSTORE DUP2 DUP2 PUSH2 0x45D3 ADD MSTORE DUP2 DUP2 PUSH2 0x463E ADD MSTORE DUP2 DUP2 PUSH2 0x47D0 ADD MSTORE DUP2 DUP2 PUSH2 0x49C2 ADD MSTORE DUP2 DUP2 PUSH2 0x4B0C ADD MSTORE PUSH2 0x4CA2 ADD MSTORE PUSH2 0x5F69 PUSH1 0x0 RETURN INVALID PUSH1 0x80 PUSH1 0x40 MSTORE PUSH1 0x4 CALLDATASIZE LT PUSH2 0x14F JUMPI PUSH1 0x0 CALLDATALOAD PUSH1 0xE0 SHR DUP1 PUSH4 0x5DAE8841 GT PUSH2 0xB6 JUMPI DUP1 PUSH4 0x8F7EB3C4 GT PUSH2 0x6F JUMPI DUP1 PUSH4 0x8F7EB3C4 EQ PUSH2 0x404 JUMPI DUP1 PUSH4 0xA0A5C8D8 EQ PUSH2 0x424 JUMPI DUP1 PUSH4 0xAD5C4648 EQ PUSH2 0x444 JUMPI DUP1 PUSH4 0xB2D9A6DA EQ PUSH2 0x478 JUMPI DUP1 PUSH4 0xCC32D176 EQ PUSH2 0x498 JUMPI DUP1 PUSH4 0xF2FDE38B EQ PUSH2 0x4AE JUMPI PUSH1 0x0 DUP1 REVERT JUMPDEST DUP1 PUSH4 0x5DAE8841 EQ PUSH2 0x341 JUMPI DUP1 PUSH4 0x66E93768 EQ PUSH2 0x371 JUMPI DUP1 PUSH4 0x69C4E562 EQ PUSH2 0x391 JUMPI DUP1 PUSH4 0x715018A6 EQ PUSH2 0x3B1 JUMPI DUP1 PUSH4 0x77E741C7 EQ PUSH2 0x3C6 JUMPI DUP1 PUSH4 0x8DA5CB5B EQ PUSH2 0x3E6 JUMPI PUSH1 0x0 DUP1 REVERT JUMPDEST DUP1 PUSH4 0x2E568533 GT PUSH2 0x108 JUMPI DUP1 PUSH4 0x2E568533 EQ PUSH2 0x263 JUMPI DUP1 PUSH4 0x3046A0F3 EQ PUSH2 0x283 JUMPI DUP1 PUSH4 0x4F248E7C EQ PUSH2 0x2A3 JUMPI DUP1 PUSH4 0x4F37813A EQ PUSH2 0x2D3 JUMPI DUP1 PUSH4 0x56A6338F EQ PUSH2 0x301 JUMPI DUP1 PUSH4 0x5A1C02EF EQ PUSH2 0x321 JUMPI PUSH1 0x0 DUP1 REVERT JUMPDEST DUP1 PUSH4 0x2083EF7 EQ PUSH2 0x15B JUMPI DUP1 PUSH4 0x3891670 EQ PUSH2 0x17D JUMPI DUP1 PUSH4 0xA018E70 EQ PUSH2 0x190 JUMPI DUP1 PUSH4 0xB8F9CD6 EQ PUSH2 0x1E3 JUMPI DUP1 PUSH4 0x107BF304 EQ PUSH2 0x223 JUMPI DUP1 PUSH4 0x1630794E EQ PUSH2 0x243 JUMPI PUSH1 0x0 DUP1 REVERT JUMPDEST CALLDATASIZE PUSH2 0x156 JUMPI STOP JUMPDEST PUSH1 0x0 DUP1 REVERT JUMPDEST CALLVALUE DUP1 ISZERO PUSH2 0x167 JUMPI PUSH1 0x0 DUP1 REVERT JUMPDEST POP PUSH2 0x17B PUSH2 0x176 CALLDATASIZE PUSH1 0x4 PUSH2 0x5757 JUMP JUMPDEST PUSH2 0x4CE JUMP JUMPDEST STOP JUMPDEST PUSH2 0x17B PUSH2 0x18B CALLDATASIZE PUSH1 0x4 PUSH2 0x57BE JUMP JUMPDEST PUSH2 0x5A4 JUMP JUMPDEST CALLVALUE DUP1 ISZERO PUSH2 0x19C JUMPI PUSH1 0x0 DUP1 REVERT JUMPDEST POP PUSH2 0x1C6 PUSH2 0x1AB CALLDATASIZE PUSH1 0x4 PUSH2 0x581D JUMP JUMPDEST PUSH1 0x4 PUSH1 0x20 MSTORE PUSH1 0x0 SWAP1 DUP2 MSTORE PUSH1 0x40 SWAP1 KECCAK256 SLOAD PUSH1 0x1 PUSH1 0x1 PUSH1 0xA0 SHL SUB AND DUP2 JUMP JUMPDEST PUSH1 0x40 MLOAD PUSH1 0x1 PUSH1 0x1 PUSH1 0xA0 SHL SUB SWAP1 SWAP2 AND DUP2 MSTORE PUSH1 0x20 ADD JUMPDEST PUSH1 0x40 MLOAD DUP1 SWAP2 SUB SWAP1 RETURN JUMPDEST CALLVALUE DUP1 ISZERO PUSH2 0x1EF JUMPI PUSH1 0x0 DUP1 REVERT JUMPDEST POP PUSH2 0x213 PUSH2 0x1FE CALLDATASIZE PUSH1 0x4 PUSH2 0x581D JUMP JUMPDEST PUSH1 0x5 PUSH1 0x20 MSTORE PUSH1 0x0 SWAP1 DUP2 MSTORE PUSH1 0x40 SWAP1 KECCAK256 SLOAD PUSH1 0xFF AND DUP2 JUMP JUMPDEST PUSH1 0x40 MLOAD SWAP1 ISZERO ISZERO DUP2 MSTORE PUSH1 0x20 ADD PUSH2 0x1DA JUMP JUMPDEST CALLVALUE DUP1 ISZERO PUSH2 0x22F JUMPI PUSH1 0x0 DUP1 REVERT JUMPDEST POP PUSH2 0x17B PUSH2 0x23E CALLDATASIZE PUSH1 0x4 PUSH2 0x583A JUMP JUMPDEST PUSH2 0x6D2 JUMP JUMPDEST CALLVALUE DUP1 ISZERO PUSH2 0x24F JUMPI PUSH1 0x0 DUP1 REVERT JUMPDEST POP PUSH2 0x17B PUSH2 0x25E CALLDATASIZE PUSH1 0x4 PUSH2 0x5853 JUMP JUMPDEST PUSH2 0x798 JUMP JUMPDEST CALLVALUE DUP1 ISZERO PUSH2 0x26F JUMPI PUSH1 0x0 DUP1 REVERT JUMPDEST POP PUSH1 0x7 SLOAD PUSH2 0x1C6 SWAP1 PUSH1 0x1 PUSH1 0x1 PUSH1 0xA0 SHL SUB AND DUP2 JUMP JUMPDEST CALLVALUE DUP1 ISZERO PUSH2 0x28F JUMPI PUSH1 0x0 DUP1 REVERT JUMPDEST POP PUSH2 0x17B PUSH2 0x29E CALLDATASIZE PUSH1 0x4 PUSH2 0x588C JUMP JUMPDEST PUSH2 0x9F7 JUMP JUMPDEST CALLVALUE DUP1 ISZERO PUSH2 0x2AF JUMPI PUSH1 0x0 DUP1 REVERT JUMPDEST POP PUSH2 0x213 PUSH2 0x2BE CALLDATASIZE PUSH1 0x4 PUSH2 0x581D JUMP JUMPDEST PUSH1 0x3 PUSH1 0x20 MSTORE PUSH1 0x0 SWAP1 DUP2 MSTORE PUSH1 0x40 SWAP1 KECCAK256 SLOAD PUSH1 0xFF AND DUP2 JUMP JUMPDEST CALLVALUE DUP1 ISZERO PUSH2 0x2DF JUMPI PUSH1 0x0 DUP1 REVERT JUMPDEST POP PUSH2 0x2F3 PUSH2 0x2EE CALLDATASIZE PUSH1 0x4 PUSH2 0x58BA JUMP JUMPDEST PUSH2 0xA4C JUMP JUMPDEST PUSH1 0x40 MLOAD SWAP1 DUP2 MSTORE PUSH1 0x20 ADD PUSH2 0x1DA JUMP JUMPDEST CALLVALUE DUP1 ISZERO PUSH2 0x30D JUMPI PUSH1 0x0 DUP1 REVERT JUMPDEST POP PUSH2 0x17B PUSH2 0x31C CALLDATASIZE PUSH1 0x4 PUSH2 0x5900 JUMP JUMPDEST PUSH2 0xC48 JUMP JUMPDEST CALLVALUE DUP1 ISZERO PUSH2 0x32D JUMPI PUSH1 0x0 DUP1 REVERT JUMPDEST POP PUSH2 0x17B PUSH2 0x33C CALLDATASIZE PUSH1 0x4 PUSH2 0x581D JUMP JUMPDEST PUSH2 0xDA6 JUMP JUMPDEST CALLVALUE DUP1 ISZERO PUSH2 0x34D JUMPI PUSH1 0x0 DUP1 REVERT JUMPDEST POP PUSH2 0x213 PUSH2 0x35C CALLDATASIZE PUSH1 0x4 PUSH2 0x581D JUMP JUMPDEST PUSH1 0x2 PUSH1 0x20 MSTORE PUSH1 0x0 SWAP1 DUP2 MSTORE PUSH1 0x40 SWAP1 KECCAK256 SLOAD PUSH1 0xFF AND DUP2 JUMP JUMPDEST CALLVALUE DUP1 ISZERO PUSH2 0x37D JUMPI PUSH1 0x0 DUP1 REVERT JUMPDEST POP PUSH2 0x17B PUSH2 0x38C CALLDATASIZE PUSH1 0x4 PUSH2 0x588C JUMP JUMPDEST PUSH2 0xE5B JUMP JUMPDEST CALLVALUE DUP1 ISZERO PUSH2 0x39D JUMPI PUSH1 0x0 DUP1 REVERT JUMPDEST POP PUSH2 0x17B PUSH2 0x3AC CALLDATASIZE PUSH1 0x4 PUSH2 0x581D JUMP JUMPDEST PUSH2 0xEB0 JUMP JUMPDEST CALLVALUE DUP1 ISZERO PUSH2 0x3BD JUMPI PUSH1 0x0 DUP1 REVERT JUMPDEST POP PUSH2 0x17B PUSH2 0xEFC JUMP JUMPDEST CALLVALUE DUP1 ISZERO PUSH2 0x3D2 JUMPI PUSH1 0x0 DUP1 REVERT JUMPDEST POP PUSH2 0x17B PUSH2 0x3E1 CALLDATASIZE PUSH1 0x4 PUSH2 0x583A JUMP JUMPDEST PUSH2 0xF32 JUMP JUMPDEST CALLVALUE DUP1 ISZERO PUSH2 0x3F2 JUMPI PUSH1 0x0 DUP1 REVERT JUMPDEST POP PUSH1 0x0 SLOAD PUSH1 0x1 PUSH1 0x1 PUSH1 0xA0 SHL SUB AND PUSH2 0x1C6 JUMP JUMPDEST CALLVALUE DUP1 ISZERO PUSH2 0x410 JUMPI PUSH1 0x0 DUP1 REVERT JUMPDEST POP PUSH2 0x17B PUSH2 0x41F CALLDATASIZE PUSH1 0x4 PUSH2 0x588C JUMP JUMPDEST PUSH2 0xFFC JUMP JUMPDEST CALLVALUE DUP1 ISZERO PUSH2 0x430 JUMPI PUSH1 0x0 DUP1 REVERT JUMPDEST POP PUSH2 0x2F3 PUSH2 0x43F CALLDATASIZE PUSH1 0x4 PUSH2 0x58BA JUMP JUMPDEST PUSH2 0x1051 JUMP JUMPDEST CALLVALUE DUP1 ISZERO PUSH2 0x450 JUMPI PUSH1 0x0 DUP1 REVERT JUMPDEST POP PUSH2 0x1C6 PUSH32 0x0 DUP2 JUMP JUMPDEST CALLVALUE DUP1 ISZERO PUSH2 0x484 JUMPI PUSH1 0x0 DUP1 REVERT JUMPDEST POP PUSH1 0x6 SLOAD PUSH2 0x1C6 SWAP1 PUSH1 0x1 PUSH1 0x1 PUSH1 0xA0 SHL SUB AND DUP2 JUMP JUMPDEST CALLVALUE DUP1 ISZERO PUSH2 0x4A4 JUMPI PUSH1 0x0 DUP1 REVERT JUMPDEST POP PUSH2 0x2F3 PUSH1 0x8 SLOAD DUP2 JUMP JUMPDEST CALLVALUE DUP1 ISZERO PUSH2 0x4BA JUMPI PUSH1 0x0 DUP1 REVERT JUMPDEST POP PUSH2 0x17B PUSH2 0x4C9 CALLDATASIZE PUSH1 0x4 PUSH2 0x581D JUMP JUMPDEST PUSH2 0x123E JUMP JUMPDEST PUSH1 0x1 PUSH1 0x1 PUSH1 0xA0 SHL SUB DUP1 DUP8 AND PUSH1 0x0 SWAP1 DUP2 MSTORE PUSH1 0x4 PUSH1 0x20 MSTORE PUSH1 0x40 SWAP1 KECCAK256 SLOAD AND DUP1 PUSH2 0x50F JUMPI PUSH1 0x40 MLOAD PUSH3 0x461BCD PUSH1 0xE5 SHL DUP2 MSTORE PUSH1 0x4 ADD PUSH2 0x506 SWAP1 PUSH2 0x592C JUMP JUMPDEST PUSH1 0x40 MLOAD DUP1 SWAP2 SUB SWAP1 REVERT JUMPDEST PUSH1 0x0 DUP1 PUSH1 0x0 PUSH2 0x522 DUP11 DUP11 DUP11 DUP11 DUP11 DUP11 PUSH2 0x12D9 JUMP JUMPDEST SWAP3 POP SWAP3 POP SWAP3 POP DUP7 PUSH1 0x1 PUSH1 0x1 PUSH1 0xA0 SHL SUB AND DUP11 PUSH1 0x1 PUSH1 0x1 PUSH1 0xA0 SHL SUB AND PUSH2 0x543 CALLER SWAP1 JUMP JUMPDEST PUSH1 0x1 PUSH1 0x1 PUSH1 0xA0 SHL SUB AND PUSH32 0xF851439257AB4721A095A66F1519733CC0CE83D271CC41E2EE699DCC580A2A20 DUP9 PUSH2 0x578 JUMPI DUP6 PUSH2 0x57A JUMP JUMPDEST DUP13 JUMPDEST PUSH1 0x40 DUP1 MLOAD SWAP2 DUP3 MSTORE PUSH1 0x20 DUP3 ADD DUP10 SWAP1 MSTORE DUP2 ADD DUP7 SWAP1 MSTORE PUSH1 0x60 ADD PUSH1 0x40 MLOAD DUP1 SWAP2 SUB SWAP1 LOG4 POP POP POP POP POP POP POP POP POP POP JUMP JUMPDEST PUSH1 0x2 PUSH1 0x1 SLOAD EQ ISZERO PUSH2 0x5F7 JUMPI PUSH1 0x40 MLOAD PUSH3 0x461BCD PUSH1 0xE5 SHL DUP2 MSTORE PUSH1 0x20 PUSH1 0x4 DUP3 ADD MSTORE PUSH1 0x1F PUSH1 0x24 DUP3 ADD MSTORE PUSH32 0x5265656E7472616E637947756172643A207265656E7472616E742063616C6C00 PUSH1 0x44 DUP3 ADD MSTORE PUSH1 0x64 ADD PUSH2 0x506 JUMP JUMPDEST PUSH1 0x2 PUSH1 0x1 SSTORE PUSH1 0x1 PUSH1 0x1 PUSH1 0xA0 SHL SUB DUP6 DUP2 AND PUSH1 0x0 SWAP1 DUP2 MSTORE PUSH1 0x4 PUSH1 0x20 MSTORE PUSH1 0x40 SWAP1 KECCAK256 SLOAD AND PUSH2 0x633 JUMPI PUSH1 0x40 MLOAD PUSH3 0x461BCD PUSH1 0xE5 SHL DUP2 MSTORE PUSH1 0x4 ADD PUSH2 0x506 SWAP1 PUSH2 0x592C JUMP JUMPDEST PUSH1 0x0 DUP1 PUSH1 0x0 PUSH2 0x645 DUP9 DUP9 DUP9 DUP9 DUP9 PUSH2 0x146B JUMP JUMPDEST SWAP3 POP SWAP3 POP SWAP3 POP DUP6 PUSH1 0x1 PUSH1 0x1 PUSH1 0xA0 SHL SUB AND DUP9 PUSH1 0x1 PUSH1 0x1 PUSH1 0xA0 SHL SUB AND PUSH2 0x666 CALLER SWAP1 JUMP JUMPDEST PUSH1 0x1 PUSH1 0x1 PUSH1 0xA0 SHL SUB AND PUSH32 0x746B684D2E8096D01E8E457C9AC5F3365F1940BFE560E06D71B163EE8DA5AEB9 DUP8 PUSH2 0x6A4 JUMPI PUSH2 0x69F DUP7 CALLVALUE PUSH2 0x596C JUMP JUMPDEST PUSH2 0x6A6 JUMP JUMPDEST CALLVALUE JUMPDEST PUSH1 0x40 DUP1 MLOAD SWAP2 DUP3 MSTORE PUSH1 0x20 DUP3 ADD DUP10 SWAP1 MSTORE DUP2 ADD DUP7 SWAP1 MSTORE PUSH1 0x60 ADD PUSH1 0x40 MLOAD DUP1 SWAP2 SUB SWAP1 LOG4 POP POP PUSH1 0x1 DUP1 SSTORE POP POP POP POP POP POP JUMP JUMPDEST PUSH1 0x0 SLOAD PUSH1 0x1 PUSH1 0x1 PUSH1 0xA0 SHL SUB AND CALLER EQ PUSH2 0x6FC JUMPI PUSH1 0x40 MLOAD PUSH3 0x461BCD PUSH1 0xE5 SHL DUP2 MSTORE PUSH1 0x4 ADD PUSH2 0x506 SWAP1 PUSH2 0x5983 JUMP JUMPDEST PUSH1 0x40 MLOAD PUSH1 0x0 SWAP1 CALLER SWAP1 DUP4 SWAP1 DUP4 DUP2 DUP2 DUP2 DUP6 DUP8 GAS CALL SWAP3 POP POP POP RETURNDATASIZE DUP1 PUSH1 0x0 DUP2 EQ PUSH2 0x73E JUMPI PUSH1 0x40 MLOAD SWAP2 POP PUSH1 0x1F NOT PUSH1 0x3F RETURNDATASIZE ADD AND DUP3 ADD PUSH1 0x40 MSTORE RETURNDATASIZE DUP3 MSTORE RETURNDATASIZE PUSH1 0x0 PUSH1 0x20 DUP5 ADD RETURNDATACOPY PUSH2 0x743 JUMP JUMPDEST PUSH1 0x60 SWAP2 POP JUMPDEST POP POP SWAP1 POP DUP1 PUSH2 0x794 JUMPI PUSH1 0x40 MLOAD PUSH3 0x461BCD PUSH1 0xE5 SHL DUP2 MSTORE PUSH1 0x20 PUSH1 0x4 DUP3 ADD MSTORE PUSH1 0x1B PUSH1 0x24 DUP3 ADD MSTORE PUSH32 0x4661696C656420746F2073656E642065746820746F206F776E65720000000000 PUSH1 0x44 DUP3 ADD MSTORE PUSH1 0x64 ADD PUSH2 0x506 JUMP JUMPDEST POP POP JUMP JUMPDEST PUSH1 0x1 PUSH1 0x1 PUSH1 0xA0 SHL SUB DUP3 AND PUSH1 0x0 SWAP1 DUP2 MSTORE PUSH1 0x2 PUSH1 0x20 MSTORE PUSH1 0x40 SWAP1 KECCAK256 SLOAD PUSH1 0xFF AND ISZERO PUSH2 0x801 JUMPI PUSH1 0x40 MLOAD PUSH3 0x461BCD PUSH1 0xE5 SHL DUP2 MSTORE PUSH1 0x20 PUSH1 0x4 DUP3 ADD MSTORE PUSH1 0x1C PUSH1 0x24 DUP3 ADD MSTORE PUSH32 0x546F6B656E206973206E6F7420616C6C6F77656420746F206C69737400000000 PUSH1 0x44 DUP3 ADD MSTORE PUSH1 0x64 ADD PUSH2 0x506 JUMP JUMPDEST PUSH1 0x1 PUSH1 0x1 PUSH1 0xA0 SHL SUB DUP3 DUP2 AND PUSH1 0x0 SWAP1 DUP2 MSTORE PUSH1 0x4 PUSH1 0x20 MSTORE PUSH1 0x40 SWAP1 KECCAK256 SLOAD DUP2 AND SWAP1 DUP3 AND EQ ISZERO PUSH2 0x87C JUMPI PUSH1 0x40 MLOAD PUSH3 0x461BCD PUSH1 0xE5 SHL DUP2 MSTORE PUSH1 0x20 PUSH1 0x4 DUP3 ADD MSTORE PUSH1 0x25 PUSH1 0x24 DUP3 ADD MSTORE PUSH32 0x53747275637475726520616C72656164792073657420746F2074686973206164 PUSH1 0x44 DUP3 ADD MSTORE PUSH5 0x6472657373 PUSH1 0xD8 SHL PUSH1 0x64 DUP3 ADD MSTORE PUSH1 0x84 ADD PUSH2 0x506 JUMP JUMPDEST CALLER PUSH1 0x0 SWAP1 DUP2 MSTORE PUSH1 0x3 PUSH1 0x20 MSTORE PUSH1 0x40 SWAP1 KECCAK256 SLOAD PUSH1 0xFF AND DUP1 PUSH2 0x90C JUMPI POP CALLER PUSH1 0x1 PUSH1 0x1 PUSH1 0xA0 SHL SUB AND DUP3 PUSH1 0x1 PUSH1 0x1 PUSH1 0xA0 SHL SUB AND PUSH4 0x8DA5CB5B PUSH1 0x40 MLOAD DUP2 PUSH4 0xFFFFFFFF AND PUSH1 0xE0 SHL DUP2 MSTORE PUSH1 0x4 ADD PUSH1 0x20 PUSH1 0x40 MLOAD DUP1 DUP4 SUB DUP2 DUP7 GAS STATICCALL ISZERO DUP1 ISZERO PUSH2 0x8DD JUMPI RETURNDATASIZE PUSH1 0x0 DUP1 RETURNDATACOPY RETURNDATASIZE PUSH1 0x0 REVERT JUMPDEST POP POP POP POP PUSH1 0x40 MLOAD RETURNDATASIZE PUSH1 0x1F NOT PUSH1 0x1F DUP3 ADD AND DUP3 ADD DUP1 PUSH1 0x40 MSTORE POP DUP2 ADD SWAP1 PUSH2 0x901 SWAP2 SWAP1 PUSH2 0x59B8 JUMP JUMPDEST PUSH1 0x1 PUSH1 0x1 PUSH1 0xA0 SHL SUB AND EQ JUMPDEST DUP1 PUSH2 0x989 JUMPI POP CALLER PUSH1 0x1 PUSH1 0x1 PUSH1 0xA0 SHL SUB AND ADDRESS PUSH1 0x1 PUSH1 0x1 PUSH1 0xA0 SHL SUB AND PUSH4 0x8DA5CB5B PUSH1 0x40 MLOAD DUP2 PUSH4 0xFFFFFFFF AND PUSH1 0xE0 SHL DUP2 MSTORE PUSH1 0x4 ADD PUSH1 0x20 PUSH1 0x40 MLOAD DUP1 DUP4 SUB DUP2 DUP7 GAS STATICCALL ISZERO DUP1 ISZERO PUSH2 0x95A JUMPI RETURNDATASIZE PUSH1 0x0 DUP1 RETURNDATACOPY RETURNDATASIZE PUSH1 0x0 REVERT JUMPDEST POP POP POP POP PUSH1 0x40 MLOAD RETURNDATASIZE PUSH1 0x1F NOT PUSH1 0x1F DUP3 ADD AND DUP3 ADD DUP1 PUSH1 0x40 MSTORE POP DUP2 ADD SWAP1 PUSH2 0x97E SWAP2 SWAP1 PUSH2 0x59B8 JUMP JUMPDEST PUSH1 0x1 PUSH1 0x1 PUSH1 0xA0 SHL SUB AND EQ JUMPDEST PUSH2 0x9C9 JUMPI PUSH1 0x40 MLOAD PUSH3 0x461BCD PUSH1 0xE5 SHL DUP2 MSTORE PUSH1 0x20 PUSH1 0x4 DUP3 ADD MSTORE PUSH1 0x11 PUSH1 0x24 DUP3 ADD MSTORE PUSH17 0x14195C9B5A5CDCDA5BDB8819195B9A5959 PUSH1 0x7A SHL PUSH1 0x44 DUP3 ADD MSTORE PUSH1 0x64 ADD PUSH2 0x506 JUMP JUMPDEST PUSH1 0x1 PUSH1 0x1 PUSH1 0xA0 SHL SUB SWAP2 DUP3 AND PUSH1 0x0 SWAP1 DUP2 MSTORE PUSH1 0x4 PUSH1 0x20 MSTORE PUSH1 0x40 SWAP1 KECCAK256 DUP1 SLOAD PUSH1 0x1 PUSH1 0x1 PUSH1 0xA0 SHL SUB NOT AND SWAP2 SWAP1 SWAP3 AND OR SWAP1 SSTORE JUMP JUMPDEST PUSH1 0x0 SLOAD PUSH1 0x1 PUSH1 0x1 PUSH1 0xA0 SHL SUB AND CALLER EQ PUSH2 0xA21 JUMPI PUSH1 0x40 MLOAD PUSH3 0x461BCD PUSH1 0xE5 SHL DUP2 MSTORE PUSH1 0x4 ADD PUSH2 0x506 SWAP1 PUSH2 0x5983 JUMP JUMPDEST PUSH1 0x1 PUSH1 0x1 PUSH1 0xA0 SHL SUB SWAP2 SWAP1 SWAP2 AND PUSH1 0x0 SWAP1 DUP2 MSTORE PUSH1 0x3 PUSH1 0x20 MSTORE PUSH1 0x40 SWAP1 KECCAK256 DUP1 SLOAD PUSH1 0xFF NOT AND SWAP2 ISZERO ISZERO SWAP2 SWAP1 SWAP2 OR SWAP1 SSTORE JUMP JUMPDEST PUSH1 0x1 PUSH1 0x1 PUSH1 0xA0 SHL SUB DUP4 DUP2 AND PUSH1 0x0 SWAP1 DUP2 MSTORE PUSH1 0x4 PUSH1 0x20 MSTORE PUSH1 0x40 DUP2 KECCAK256 SLOAD SWAP1 SWAP2 AND PUSH2 0xA85 JUMPI PUSH1 0x40 MLOAD PUSH3 0x461BCD PUSH1 0xE5 SHL DUP2 MSTORE PUSH1 0x4 ADD PUSH2 0x506 SWAP1 PUSH2 0x592C JUMP JUMPDEST PUSH1 0x1 PUSH1 0x1 PUSH1 0xA0 SHL SUB DUP1 DUP6 AND PUSH1 0x0 SWAP1 DUP2 MSTORE PUSH1 0x4 PUSH1 0x20 MSTORE PUSH1 0x40 DUP2 KECCAK256 SLOAD SWAP1 SWAP2 AND SWAP1 PUSH2 0xAB1 DUP3 DUP7 DUP10 DUP10 PUSH1 0x1 PUSH2 0x1677 JUMP JUMPDEST PUSH2 0x140 DUP2 ADD MLOAD PUSH1 0x40 DUP1 MLOAD PUSH1 0x2 DUP1 DUP3 MSTORE PUSH1 0x60 DUP3 ADD DUP4 MSTORE SWAP4 SWAP5 POP SWAP2 SWAP3 PUSH1 0x0 SWAP3 SWAP2 PUSH1 0x20 DUP4 ADD SWAP1 DUP1 CALLDATASIZE DUP4 CALLDATACOPY ADD SWAP1 POP POP SWAP1 POP DUP2 PUSH1 0x1 PUSH1 0x1 PUSH1 0xA0 SHL SUB AND PUSH4 0xAD5C4648 PUSH1 0x40 MLOAD DUP2 PUSH4 0xFFFFFFFF AND PUSH1 0xE0 SHL DUP2 MSTORE PUSH1 0x4 ADD PUSH1 0x20 PUSH1 0x40 MLOAD DUP1 DUP4 SUB DUP2 DUP7 GAS STATICCALL ISZERO DUP1 ISZERO PUSH2 0xB1C JUMPI RETURNDATASIZE PUSH1 0x0 DUP1 RETURNDATACOPY RETURNDATASIZE PUSH1 0x0 REVERT JUMPDEST POP POP POP POP PUSH1 0x40 MLOAD RETURNDATASIZE PUSH1 0x1F NOT PUSH1 0x1F DUP3 ADD AND DUP3 ADD DUP1 PUSH1 0x40 MSTORE POP DUP2 ADD SWAP1 PUSH2 0xB40 SWAP2 SWAP1 PUSH2 0x59B8 JUMP JUMPDEST DUP2 PUSH1 0x0 DUP2 MLOAD DUP2 LT PUSH2 0xB53 JUMPI PUSH2 0xB53 PUSH2 0x59EB JUMP JUMPDEST PUSH1 0x20 MUL PUSH1 0x20 ADD ADD SWAP1 PUSH1 0x1 PUSH1 0x1 PUSH1 0xA0 SHL SUB AND SWAP1 DUP2 PUSH1 0x1 PUSH1 0x1 PUSH1 0xA0 SHL SUB AND DUP2 MSTORE POP POP DUP8 DUP2 PUSH1 0x1 DUP2 MLOAD DUP2 LT PUSH2 0xB87 JUMPI PUSH2 0xB87 PUSH2 0x59EB JUMP JUMPDEST PUSH1 0x1 PUSH1 0x1 PUSH1 0xA0 SHL SUB SWAP3 DUP4 AND PUSH1 0x20 SWAP2 DUP3 MUL SWAP3 SWAP1 SWAP3 ADD ADD MSTORE PUSH1 0x0 SWAP1 DUP4 AND PUSH4 0x1F00CA74 PUSH2 0xBB1 DUP10 DUP8 PUSH2 0x1E79 JUMP JUMPDEST DUP5 PUSH1 0x40 MLOAD DUP4 PUSH4 0xFFFFFFFF AND PUSH1 0xE0 SHL DUP2 MSTORE PUSH1 0x4 ADD PUSH2 0xBCF SWAP3 SWAP2 SWAP1 PUSH2 0x5A01 JUMP JUMPDEST PUSH1 0x0 PUSH1 0x40 MLOAD DUP1 DUP4 SUB DUP2 DUP7 GAS STATICCALL ISZERO DUP1 ISZERO PUSH2 0xBEC JUMPI RETURNDATASIZE PUSH1 0x0 DUP1 RETURNDATACOPY RETURNDATASIZE PUSH1 0x0 REVERT JUMPDEST POP POP POP POP PUSH1 0x40 MLOAD RETURNDATASIZE PUSH1 0x0 DUP3 RETURNDATACOPY PUSH1 0x1F RETURNDATASIZE SWAP1 DUP2 ADD PUSH1 0x1F NOT AND DUP3 ADD PUSH1 0x40 MSTORE PUSH2 0xC14 SWAP2 SWAP1 DUP2 ADD SWAP1 PUSH2 0x5A58 JUMP JUMPDEST SWAP1 POP PUSH2 0xC3A DUP2 PUSH1 0x0 DUP2 MLOAD DUP2 LT PUSH2 0xC2C JUMPI PUSH2 0xC2C PUSH2 0x59EB JUMP JUMPDEST PUSH1 0x20 MUL PUSH1 0x20 ADD ADD MLOAD DUP6 PUSH2 0x1F23 JUMP JUMPDEST SWAP11 SWAP10 POP POP POP POP POP POP POP POP POP POP JUMP JUMPDEST PUSH1 0x0 SLOAD PUSH1 0x1 PUSH1 0x1 PUSH1 0xA0 SHL SUB AND CALLER EQ PUSH2 0xC72 JUMPI PUSH1 0x40 MLOAD PUSH3 0x461BCD PUSH1 0xE5 SHL DUP2 MSTORE PUSH1 0x4 ADD PUSH2 0x506 SWAP1 PUSH2 0x5983 JUMP JUMPDEST PUSH1 0x40 MLOAD PUSH4 0x70A08231 PUSH1 0xE0 SHL DUP2 MSTORE ADDRESS PUSH1 0x4 DUP3 ADD MSTORE PUSH1 0x0 SWAP1 PUSH1 0x1 PUSH1 0x1 PUSH1 0xA0 SHL SUB DUP5 AND SWAP1 PUSH4 0x70A08231 SWAP1 PUSH1 0x24 ADD PUSH1 0x20 PUSH1 0x40 MLOAD DUP1 DUP4 SUB DUP2 DUP7 GAS STATICCALL ISZERO DUP1 ISZERO PUSH2 0xCB9 JUMPI RETURNDATASIZE PUSH1 0x0 DUP1 RETURNDATACOPY RETURNDATASIZE PUSH1 0x0 REVERT JUMPDEST POP POP POP POP PUSH1 0x40 MLOAD RETURNDATASIZE PUSH1 0x1F NOT PUSH1 0x1F DUP3 ADD AND DUP3 ADD DUP1 PUSH1 0x40 MSTORE POP DUP2 ADD SWAP1 PUSH2 0xCDD SWAP2 SWAP1 PUSH2 0x5B16 JUMP JUMPDEST SWAP1 POP DUP2 DUP2 LT ISZERO PUSH2 0xD2F JUMPI PUSH1 0x40 MLOAD PUSH3 0x461BCD PUSH1 0xE5 SHL DUP2 MSTORE PUSH1 0x20 PUSH1 0x4 DUP3 ADD MSTORE PUSH1 0x1A PUSH1 0x24 DUP3 ADD MSTORE PUSH32 0x496E73756666696369656E7420746F6B656E2062616C616E6365000000000000 PUSH1 0x44 DUP3 ADD MSTORE PUSH1 0x64 ADD PUSH2 0x506 JUMP JUMPDEST PUSH1 0x40 MLOAD PUSH4 0xA9059CBB PUSH1 0xE0 SHL DUP2 MSTORE PUSH1 0x1 PUSH1 0x1 PUSH1 0xA0 SHL SUB DUP5 AND SWAP1 PUSH4 0xA9059CBB SWAP1 PUSH2 0xD5D SWAP1 CALLER SWAP1 DUP7 SWAP1 PUSH1 0x4 ADD PUSH2 0x5B2F JUMP JUMPDEST PUSH1 0x20 PUSH1 0x40 MLOAD DUP1 DUP4 SUB DUP2 PUSH1 0x0 DUP8 GAS CALL ISZERO DUP1 ISZERO PUSH2 0xD7C JUMPI RETURNDATASIZE PUSH1 0x0 DUP1 RETURNDATACOPY RETURNDATASIZE PUSH1 0x0 REVERT JUMPDEST POP POP POP POP PUSH1 0x40 MLOAD RETURNDATASIZE PUSH1 0x1F NOT PUSH1 0x1F DUP3 ADD AND DUP3 ADD DUP1 PUSH1 0x40 MSTORE POP DUP2 ADD SWAP1 PUSH2 0xDA0 SWAP2 SWAP1 PUSH2 0x5B48 JUMP JUMPDEST POP POP POP POP JUMP JUMPDEST PUSH1 0x0 SLOAD PUSH1 0x1 PUSH1 0x1 PUSH1 0xA0 SHL SUB AND CALLER EQ PUSH2 0xDD0 JUMPI PUSH1 0x40 MLOAD PUSH3 0x461BCD PUSH1 0xE5 SHL DUP2 MSTORE PUSH1 0x4 ADD PUSH2 0x506 SWAP1 PUSH2 0x5983 JUMP JUMPDEST PUSH1 0x7 SLOAD PUSH1 0x1 PUSH1 0x1 PUSH1 0xA0 SHL SUB DUP3 DUP2 AND SWAP2 AND EQ ISZERO PUSH2 0xE39 JUMPI PUSH1 0x40 MLOAD PUSH3 0x461BCD PUSH1 0xE5 SHL DUP2 MSTORE PUSH1 0x20 PUSH1 0x4 DUP3 ADD MSTORE PUSH1 0x22 PUSH1 0x24 DUP3 ADD MSTORE PUSH32 0x526F7574657220616C72656164792073657420746F2074686973206164647265 PUSH1 0x44 DUP3 ADD MSTORE PUSH2 0x7373 PUSH1 0xF0 SHL PUSH1 0x64 DUP3 ADD MSTORE PUSH1 0x84 ADD PUSH2 0x506 JUMP JUMPDEST PUSH1 0x7 DUP1 SLOAD PUSH1 0x1 PUSH1 0x1 PUSH1 0xA0 SHL SUB NOT AND PUSH1 0x1 PUSH1 0x1 PUSH1 0xA0 SHL SUB SWAP3 SWAP1 SWAP3 AND SWAP2 SWAP1 SWAP2 OR SWAP1 SSTORE JUMP JUMPDEST PUSH1 0x0 SLOAD PUSH1 0x1 PUSH1 0x1 PUSH1 0xA0 SHL SUB AND CALLER EQ PUSH2 0xE85 JUMPI PUSH1 0x40 MLOAD PUSH3 0x461BCD PUSH1 0xE5 SHL DUP2 MSTORE PUSH1 0x4 ADD PUSH2 0x506 SWAP1 PUSH2 0x5983 JUMP JUMPDEST PUSH1 0x1 PUSH1 0x1 PUSH1 0xA0 SHL SUB SWAP2 SWAP1 SWAP2 AND PUSH1 0x0 SWAP1 DUP2 MSTORE PUSH1 0x2 PUSH1 0x20 MSTORE PUSH1 0x40 SWAP1 KECCAK256 DUP1 SLOAD PUSH1 0xFF NOT AND SWAP2 ISZERO ISZERO SWAP2 SWAP1 SWAP2 OR SWAP1 SSTORE JUMP JUMPDEST PUSH1 0x0 SLOAD PUSH1 0x1 PUSH1 0x1 PUSH1 0xA0 SHL SUB AND CALLER EQ PUSH2 0xEDA JUMPI PUSH1 0x40 MLOAD PUSH3 0x461BCD PUSH1 0xE5 SHL DUP2 MSTORE PUSH1 0x4 ADD PUSH2 0x506 SWAP1 PUSH2 0x5983 JUMP JUMPDEST PUSH1 0x6 DUP1 SLOAD PUSH1 0x1 PUSH1 0x1 PUSH1 0xA0 SHL SUB NOT AND PUSH1 0x1 PUSH1 0x1 PUSH1 0xA0 SHL SUB SWAP3 SWAP1 SWAP3 AND SWAP2 SWAP1 SWAP2 OR SWAP1 SSTORE JUMP JUMPDEST PUSH1 0x0 SLOAD PUSH1 0x1 PUSH1 0x1 PUSH1 0xA0 SHL SUB AND CALLER EQ PUSH2 0xF26 JUMPI PUSH1 0x40 MLOAD PUSH3 0x461BCD PUSH1 0xE5 SHL DUP2 MSTORE PUSH1 0x4 ADD PUSH2 0x506 SWAP1 PUSH2 0x5983 JUMP JUMPDEST PUSH2 0xF30 PUSH1 0x0 PUSH2 0x203F JUMP JUMPDEST JUMP JUMPDEST PUSH1 0x0 SLOAD PUSH1 0x1 PUSH1 0x1 PUSH1 0xA0 SHL SUB AND CALLER EQ PUSH2 0xF5C JUMPI PUSH1 0x40 MLOAD PUSH3 0x461BCD PUSH1 0xE5 SHL DUP2 MSTORE PUSH1 0x4 ADD PUSH2 0x506 SWAP1 PUSH2 0x5983 JUMP JUMPDEST DUP1 PUSH1 0x8 SLOAD EQ ISZERO PUSH2 0xFAE JUMPI PUSH1 0x40 MLOAD PUSH3 0x461BCD PUSH1 0xE5 SHL DUP2 MSTORE PUSH1 0x20 PUSH1 0x4 DUP3 ADD MSTORE PUSH1 0x1D PUSH1 0x24 DUP3 ADD MSTORE PUSH32 0x46656520616C72656164792073657420746F20746869732076616C7565000000 PUSH1 0x44 DUP3 ADD MSTORE PUSH1 0x64 ADD PUSH2 0x506 JUMP JUMPDEST PUSH2 0x12C DUP2 GT ISZERO PUSH2 0xFF7 JUMPI PUSH1 0x40 MLOAD PUSH3 0x461BCD PUSH1 0xE5 SHL DUP2 MSTORE PUSH1 0x20 PUSH1 0x4 DUP3 ADD MSTORE PUSH1 0x14 PUSH1 0x24 DUP3 ADD MSTORE PUSH20 0x4665652063616E6E6F7420657863656564203325 PUSH1 0x60 SHL PUSH1 0x44 DUP3 ADD MSTORE PUSH1 0x64 ADD PUSH2 0x506 JUMP JUMPDEST PUSH1 0x8 SSTORE JUMP JUMPDEST PUSH1 0x0 SLOAD PUSH1 0x1 PUSH1 0x1 PUSH1 0xA0 SHL SUB AND CALLER EQ PUSH2 0x1026 JUMPI PUSH1 0x40 MLOAD PUSH3 0x461BCD PUSH1 0xE5 SHL DUP2 MSTORE PUSH1 0x4 ADD PUSH2 0x506 SWAP1 PUSH2 0x5983 JUMP JUMPDEST PUSH1 0x1 PUSH1 0x1 PUSH1 0xA0 SHL SUB SWAP2 SWAP1 SWAP2 AND PUSH1 0x0 SWAP1 DUP2 MSTORE PUSH1 0x5 PUSH1 0x20 MSTORE PUSH1 0x40 SWAP1 KECCAK256 DUP1 SLOAD PUSH1 0xFF NOT AND SWAP2 ISZERO ISZERO SWAP2 SWAP1 SWAP2 OR SWAP1 SSTORE JUMP JUMPDEST PUSH1 0x1 PUSH1 0x1 PUSH1 0xA0 SHL SUB DUP4 DUP2 AND PUSH1 0x0 SWAP1 DUP2 MSTORE PUSH1 0x4 PUSH1 0x20 MSTORE PUSH1 0x40 DUP2 KECCAK256 SLOAD SWAP1 SWAP2 AND PUSH2 0x108A JUMPI PUSH1 0x40 MLOAD PUSH3 0x461BCD PUSH1 0xE5 SHL DUP2 MSTORE PUSH1 0x4 ADD PUSH2 0x506 SWAP1 PUSH2 0x592C JUMP JUMPDEST PUSH1 0x1 PUSH1 0x1 PUSH1 0xA0 SHL SUB DUP1 DUP6 AND PUSH1 0x0 SWAP1 DUP2 MSTORE PUSH1 0x4 PUSH1 0x20 MSTORE PUSH1 0x40 DUP2 KECCAK256 SLOAD SWAP1 SWAP2 AND SWAP1 PUSH2 0x10B5 DUP3 DUP7 DUP10 DUP10 DUP6 PUSH2 0x1677 JUMP JUMPDEST PUSH2 0x140 DUP2 ADD MLOAD PUSH1 0x40 DUP1 MLOAD PUSH1 0x2 DUP1 DUP3 MSTORE PUSH1 0x60 DUP3 ADD DUP4 MSTORE SWAP4 SWAP5 POP SWAP2 SWAP3 PUSH1 0x0 SWAP3 SWAP2 PUSH1 0x20 DUP4 ADD SWAP1 DUP1 CALLDATASIZE DUP4 CALLDATACOPY ADD SWAP1 POP POP SWAP1 POP DUP8 DUP2 PUSH1 0x0 DUP2 MLOAD DUP2 LT PUSH2 0x10F6 JUMPI PUSH2 0x10F6 PUSH2 0x59EB JUMP JUMPDEST PUSH1 0x20 MUL PUSH1 0x20 ADD ADD SWAP1 PUSH1 0x1 PUSH1 0x1 PUSH1 0xA0 SHL SUB AND SWAP1 DUP2 PUSH1 0x1 PUSH1 0x1 PUSH1 0xA0 SHL SUB AND DUP2 MSTORE POP POP DUP2 PUSH1 0x1 PUSH1 0x1 PUSH1 0xA0 SHL SUB AND PUSH4 0xAD5C4648 PUSH1 0x40 MLOAD DUP2 PUSH4 0xFFFFFFFF AND PUSH1 0xE0 SHL DUP2 MSTORE PUSH1 0x4 ADD PUSH1 0x20 PUSH1 0x40 MLOAD DUP1 DUP4 SUB DUP2 DUP7 GAS STATICCALL ISZERO DUP1 ISZERO PUSH2 0x1154 JUMPI RETURNDATASIZE PUSH1 0x0 DUP1 RETURNDATACOPY RETURNDATASIZE PUSH1 0x0 REVERT JUMPDEST POP POP POP POP PUSH1 0x40 MLOAD RETURNDATASIZE PUSH1 0x1F NOT PUSH1 0x1F DUP3 ADD AND DUP3 ADD DUP1 PUSH1 0x40 MSTORE POP DUP2 ADD SWAP1 PUSH2 0x1178 SWAP2 SWAP1 PUSH2 0x59B8 JUMP JUMPDEST DUP2 PUSH1 0x1 DUP2 MLOAD DUP2 LT PUSH2 0x118B JUMPI PUSH2 0x118B PUSH2 0x59EB JUMP JUMPDEST PUSH1 0x1 PUSH1 0x1 PUSH1 0xA0 SHL SUB SWAP3 DUP4 AND PUSH1 0x20 SWAP2 DUP3 MUL SWAP3 SWAP1 SWAP3 ADD ADD MSTORE PUSH1 0x0 SWAP1 DUP4 AND PUSH4 0x1F00CA74 PUSH2 0x11B5 DUP10 DUP8 PUSH2 0x1F23 JUMP JUMPDEST DUP5 PUSH1 0x40 MLOAD DUP4 PUSH4 0xFFFFFFFF AND PUSH1 0xE0 SHL DUP2 MSTORE PUSH1 0x4 ADD PUSH2 0x11D3 SWAP3 SWAP2 SWAP1 PUSH2 0x5A01 JUMP JUMPDEST PUSH1 0x0 PUSH1 0x40 MLOAD DUP1 DUP4 SUB DUP2 DUP7 GAS STATICCALL ISZERO DUP1 ISZERO PUSH2 0x11F0 JUMPI RETURNDATASIZE PUSH1 0x0 DUP1 RETURNDATACOPY RETURNDATASIZE PUSH1 0x0 REVERT JUMPDEST POP POP POP POP PUSH1 0x40 MLOAD RETURNDATASIZE PUSH1 0x0 DUP3 RETURNDATACOPY PUSH1 0x1F RETURNDATASIZE SWAP1 DUP2 ADD PUSH1 0x1F NOT AND DUP3 ADD PUSH1 0x40 MSTORE PUSH2 0x1218 SWAP2 SWAP1 DUP2 ADD SWAP1 PUSH2 0x5A58 JUMP JUMPDEST SWAP1 POP PUSH2 0xC3A DUP2 PUSH1 0x0 DUP2 MLOAD DUP2 LT PUSH2 0x1230 JUMPI PUSH2 0x1230 PUSH2 0x59EB JUMP JUMPDEST PUSH1 0x20 MUL PUSH1 0x20 ADD ADD MLOAD DUP6 PUSH2 0x1E79 JUMP JUMPDEST PUSH1 0x0 SLOAD PUSH1 0x1 PUSH1 0x1 PUSH1 0xA0 SHL SUB AND CALLER EQ PUSH2 0x1268 JUMPI PUSH1 0x40 MLOAD PUSH3 0x461BCD PUSH1 0xE5 SHL DUP2 MSTORE PUSH1 0x4 ADD PUSH2 0x506 SWAP1 PUSH2 0x5983 JUMP JUMPDEST PUSH1 0x1 PUSH1 0x1 PUSH1 0xA0 SHL SUB DUP2 AND PUSH2 0x12CD JUMPI PUSH1 0x40 MLOAD PUSH3 0x461BCD PUSH1 0xE5 SHL DUP2 MSTORE PUSH1 0x20 PUSH1 0x4 DUP3 ADD MSTORE PUSH1 0x26 PUSH1 0x24 DUP3 ADD MSTORE PUSH32 0x4F776E61626C653A206E6577206F776E657220697320746865207A65726F2061 PUSH1 0x44 DUP3 ADD MSTORE PUSH6 0x646472657373 PUSH1 0xD0 SHL PUSH1 0x64 DUP3 ADD MSTORE PUSH1 0x84 ADD PUSH2 0x506 JUMP JUMPDEST PUSH2 0x12D6 DUP2 PUSH2 0x203F JUMP JUMPDEST POP JUMP JUMPDEST PUSH1 0x1 PUSH1 0x1 PUSH1 0xA0 SHL SUB DUP7 DUP2 AND PUSH1 0x0 SWAP1 DUP2 MSTORE PUSH1 0x4 PUSH1 0x20 MSTORE PUSH1 0x40 DUP2 KECCAK256 SLOAD SWAP1 SWAP2 DUP3 SWAP2 DUP3 SWAP2 AND DUP2 PUSH2 0x1309 DUP3 DUP11 CALLER DUP15 PUSH1 0x0 PUSH2 0x1677 JUMP JUMPDEST DUP1 MLOAD SWAP1 SWAP2 POP PUSH1 0x1 PUSH1 0x1 PUSH1 0xA0 SHL SUB AND PUSH4 0x23B872DD CALLER PUSH1 0x40 MLOAD PUSH1 0x1 PUSH1 0x1 PUSH1 0xE0 SHL SUB NOT PUSH1 0xE0 DUP5 SWAP1 SHL AND DUP2 MSTORE PUSH1 0x1 PUSH1 0x1 PUSH1 0xA0 SHL SUB SWAP1 SWAP2 AND PUSH1 0x4 DUP3 ADD MSTORE ADDRESS PUSH1 0x24 DUP3 ADD MSTORE PUSH1 0x44 DUP2 ADD DUP14 SWAP1 MSTORE PUSH1 0x64 ADD PUSH1 0x20 PUSH1 0x40 MLOAD DUP1 DUP4 SUB DUP2 PUSH1 0x0 DUP8 GAS CALL ISZERO DUP1 ISZERO PUSH2 0x1370 JUMPI RETURNDATASIZE PUSH1 0x0 DUP1 RETURNDATACOPY RETURNDATASIZE PUSH1 0x0 REVERT JUMPDEST POP POP POP POP PUSH1 0x40 MLOAD RETURNDATASIZE PUSH1 0x1F NOT PUSH1 0x1F DUP3 ADD AND DUP3 ADD DUP1 PUSH1 0x40 MSTORE POP DUP2 ADD SWAP1 PUSH2 0x1394 SWAP2 SWAP1 PUSH2 0x5B48 JUMP JUMPDEST POP PUSH1 0x0 DUP1 PUSH2 0x13BA DUP9 PUSH2 0x13B1 JUMPI PUSH2 0x13AC CALLER DUP16 DUP15 DUP14 PUSH2 0x1051 JUMP JUMPDEST PUSH2 0x13B3 JUMP JUMPDEST DUP13 JUMPDEST DUP5 DUP7 PUSH2 0x208F JUMP JUMPDEST SWAP2 POP SWAP2 POP PUSH1 0x0 DUP1 PUSH2 0x13D6 DUP5 PUSH2 0x13CF DUP14 DUP9 PUSH2 0x1F23 JUMP JUMPDEST DUP8 DUP14 PUSH2 0x2326 JUMP JUMPDEST SWAP2 POP SWAP2 POP PUSH1 0x0 DUP1 PUSH2 0x13EA DUP5 DUP16 DUP8 DUP11 DUP13 PUSH2 0x24C6 JUMP JUMPDEST SWAP2 POP SWAP2 POP DUP13 DUP3 LT ISZERO PUSH2 0x1435 JUMPI PUSH1 0x40 MLOAD PUSH3 0x461BCD PUSH1 0xE5 SHL DUP2 MSTORE PUSH1 0x20 PUSH1 0x4 DUP3 ADD MSTORE PUSH1 0x14 PUSH1 0x24 DUP3 ADD MSTORE PUSH20 0x125B9CDD59999A58DA595B9D08115512081BDD5D PUSH1 0x62 SHL PUSH1 0x44 DUP3 ADD MSTORE PUSH1 0x64 ADD PUSH2 0x506 JUMP JUMPDEST PUSH1 0x0 PUSH2 0x1442 DUP4 DUP16 DUP16 PUSH2 0x2C25 JUMP JUMPDEST SWAP1 POP DUP1 PUSH2 0x144F DUP6 DUP10 PUSH2 0x596C JUMP JUMPDEST DUP4 SWAP12 POP SWAP12 POP SWAP12 POP POP POP POP POP POP POP POP POP POP SWAP7 POP SWAP7 POP SWAP7 SWAP4 POP POP POP POP JUMP JUMPDEST PUSH1 0x1 PUSH1 0x1 PUSH1 0xA0 SHL SUB DUP6 DUP2 AND PUSH1 0x0 SWAP1 DUP2 MSTORE PUSH1 0x4 PUSH1 0x20 MSTORE PUSH1 0x40 DUP2 KECCAK256 SLOAD SWAP1 SWAP2 DUP3 SWAP2 DUP3 SWAP2 AND DUP2 PUSH2 0x149B DUP3 DUP11 CALLER DUP14 PUSH1 0x1 PUSH2 0x1677 JUMP JUMPDEST SWAP1 POP PUSH1 0x0 DUP1 PUSH1 0x0 PUSH2 0x14C5 DUP10 PUSH2 0x14BB JUMPI PUSH2 0x14B6 CALLER DUP16 DUP16 DUP15 PUSH2 0xA4C JUMP JUMPDEST PUSH2 0x14BD JUMP JUMPDEST CALLVALUE JUMPDEST DUP13 DUP7 DUP9 PUSH2 0x2D72 JUMP JUMPDEST SWAP3 POP SWAP3 POP SWAP3 POP PUSH1 0x0 DUP1 PUSH2 0x14F0 DUP6 DUP13 PUSH2 0x14E6 JUMPI PUSH2 0x14E1 DUP15 DUP10 PUSH2 0x1E79 JUMP JUMPDEST PUSH2 0x14E9 JUMP JUMPDEST PUSH1 0x0 JUMPDEST DUP9 DUP15 PUSH2 0x34F2 JUMP JUMPDEST SWAP2 POP SWAP2 POP PUSH1 0x0 PUSH2 0x1507 DUP8 PUSH1 0x0 ADD MLOAD DUP5 DUP8 DUP11 DUP13 PUSH2 0x36FB JUMP JUMPDEST SWAP1 POP DUP13 DUP2 LT ISZERO PUSH2 0x1559 JUMPI PUSH1 0x40 MLOAD PUSH3 0x461BCD PUSH1 0xE5 SHL DUP2 MSTORE PUSH1 0x20 PUSH1 0x4 DUP3 ADD MSTORE PUSH1 0x1D PUSH1 0x24 DUP3 ADD MSTORE PUSH32 0x496E73756666696369656E7420746F6B656E7320707572636861736564000000 PUSH1 0x44 DUP3 ADD MSTORE PUSH1 0x64 ADD PUSH2 0x506 JUMP JUMPDEST DUP12 ISZERO PUSH2 0x15E4 JUMPI DUP7 MLOAD PUSH1 0x1 PUSH1 0x1 PUSH1 0xA0 SHL SUB AND PUSH4 0xA9059CBB CALLER DUP4 PUSH1 0x40 MLOAD DUP4 PUSH4 0xFFFFFFFF AND PUSH1 0xE0 SHL DUP2 MSTORE PUSH1 0x4 ADD PUSH2 0x158E SWAP3 SWAP2 SWAP1 PUSH2 0x5B2F JUMP JUMPDEST PUSH1 0x20 PUSH1 0x40 MLOAD DUP1 DUP4 SUB DUP2 PUSH1 0x0 DUP8 GAS CALL ISZERO DUP1 ISZERO PUSH2 0x15AD JUMPI RETURNDATASIZE PUSH1 0x0 DUP1 RETURNDATACOPY RETURNDATASIZE PUSH1 0x0 REVERT JUMPDEST POP POP POP POP PUSH1 0x40 MLOAD RETURNDATASIZE PUSH1 0x1F NOT PUSH1 0x1F DUP3 ADD AND DUP3 ADD DUP1 PUSH1 0x40 MSTORE POP DUP2 ADD SWAP1 PUSH2 0x15D1 SWAP2 SWAP1 PUSH2 0x5B48 JUMP JUMPDEST POP SWAP10 POP SWAP8 POP SWAP1 SWAP6 POP PUSH2 0x166C SWAP5 POP POP POP POP POP JUMP JUMPDEST DUP7 MLOAD PUSH1 0x1 PUSH1 0x1 PUSH1 0xA0 SHL SUB AND PUSH4 0xA9059CBB CALLER DUP16 PUSH1 0x40 MLOAD DUP4 PUSH4 0xFFFFFFFF AND PUSH1 0xE0 SHL DUP2 MSTORE PUSH1 0x4 ADD PUSH2 0x1613 SWAP3 SWAP2 SWAP1 PUSH2 0x5B2F JUMP JUMPDEST PUSH1 0x20 PUSH1 0x40 MLOAD DUP1 DUP4 SUB DUP2 PUSH1 0x0 DUP8 GAS CALL ISZERO DUP1 ISZERO PUSH2 0x1632 JUMPI RETURNDATASIZE PUSH1 0x0 DUP1 RETURNDATACOPY RETURNDATASIZE PUSH1 0x0 REVERT JUMPDEST POP POP POP POP PUSH1 0x40 MLOAD RETURNDATASIZE PUSH1 0x1F NOT PUSH1 0x1F DUP3 ADD AND DUP3 ADD DUP1 PUSH1 0x40 MSTORE POP DUP2 ADD SWAP1 PUSH2 0x1656 SWAP2 SWAP1 PUSH2 0x5B48 JUMP JUMPDEST POP DUP13 SWAP11 POP SWAP1 SWAP9 POP SWAP2 SWAP7 POP PUSH2 0x166C SWAP6 POP POP POP POP POP POP JUMP JUMPDEST SWAP6 POP SWAP6 POP SWAP6 SWAP3 POP POP POP JUMP JUMPDEST PUSH2 0x16F6 PUSH1 0x40 MLOAD DUP1 PUSH2 0x180 ADD PUSH1 0x40 MSTORE DUP1 PUSH1 0x0 PUSH1 0x1 PUSH1 0x1 PUSH1 0xA0 SHL SUB AND DUP2 MSTORE PUSH1 0x20 ADD PUSH1 0x0 DUP2 MSTORE PUSH1 0x20 ADD PUSH1 0x0 DUP2 MSTORE PUSH1 0x20 ADD PUSH1 0x0 DUP2 MSTORE PUSH1 0x20 ADD PUSH1 0x0 DUP2 MSTORE PUSH1 0x20 ADD PUSH1 0x0 DUP2 MSTORE PUSH1 0x20 ADD PUSH1 0x0 DUP2 MSTORE PUSH1 0x20 ADD PUSH1 0x0 DUP2 MSTORE PUSH1 0x20 ADD PUSH1 0x0 DUP2 MSTORE PUSH1 0x20 ADD PUSH1 0x0 DUP2 MSTORE PUSH1 0x20 ADD PUSH1 0x0 PUSH1 0x1 PUSH1 0x1 PUSH1 0xA0 SHL SUB AND DUP2 MSTORE PUSH1 0x20 ADD PUSH1 0x0 PUSH1 0x1 PUSH1 0x1 PUSH1 0xA0 SHL SUB AND DUP2 MSTORE POP SWAP1 JUMP JUMPDEST DUP2 ISZERO PUSH2 0x1B7F JUMPI PUSH1 0x40 DUP1 MLOAD PUSH2 0x180 DUP2 ADD DUP3 MSTORE PUSH1 0x1 PUSH1 0x1 PUSH1 0xA0 SHL SUB DUP1 DUP7 AND DUP3 MSTORE SWAP2 MLOAD PUSH4 0x315535D3 PUSH1 0xE2 SHL DUP2 MSTORE DUP7 DUP4 AND PUSH1 0x4 DUP3 ADD MSTORE SWAP1 SWAP2 PUSH1 0x20 DUP4 ADD SWAP2 SWAP1 DUP10 AND SWAP1 PUSH4 0xC554D74C SWAP1 PUSH1 0x24 ADD PUSH1 0x20 PUSH1 0x40 MLOAD DUP1 DUP4 SUB DUP2 DUP7 GAS STATICCALL ISZERO DUP1 ISZERO PUSH2 0x1759 JUMPI RETURNDATASIZE PUSH1 0x0 DUP1 RETURNDATACOPY RETURNDATASIZE PUSH1 0x0 REVERT JUMPDEST POP POP POP POP PUSH1 0x40 MLOAD RETURNDATASIZE PUSH1 0x1F NOT PUSH1 0x1F DUP3 ADD AND DUP3 ADD DUP1 PUSH1 0x40 MSTORE POP DUP2 ADD SWAP1 PUSH2 0x177D SWAP2 SWAP1 PUSH2 0x5B16 JUMP JUMPDEST DUP2 MSTORE PUSH1 0x40 MLOAD PUSH4 0xE5902C2D PUSH1 0xE0 SHL DUP2 MSTORE PUSH1 0x1 PUSH1 0x1 PUSH1 0xA0 SHL SUB DUP8 DUP2 AND PUSH1 0x4 DUP4 ADD MSTORE PUSH1 0x20 SWAP1 SWAP3 ADD SWAP2 DUP10 AND SWAP1 PUSH4 0xE5902C2D SWAP1 PUSH1 0x24 ADD PUSH1 0x20 PUSH1 0x40 MLOAD DUP1 DUP4 SUB DUP2 DUP7 GAS STATICCALL ISZERO DUP1 ISZERO PUSH2 0x17CB JUMPI RETURNDATASIZE PUSH1 0x0 DUP1 RETURNDATACOPY RETURNDATASIZE PUSH1 0x0 REVERT JUMPDEST POP POP POP POP PUSH1 0x40 MLOAD RETURNDATASIZE PUSH1 0x1F NOT PUSH1 0x1F DUP3 ADD AND DUP3 ADD DUP1 PUSH1 0x40 MSTORE POP DUP2 ADD SWAP1 PUSH2 0x17EF SWAP2 SWAP1 PUSH2 0x5B16 JUMP JUMPDEST DUP2 MSTORE PUSH1 0x40 MLOAD PUSH4 0xA385AC31 PUSH1 0xE0 SHL DUP2 MSTORE PUSH1 0x1 PUSH1 0x1 PUSH1 0xA0 SHL SUB DUP8 DUP2 AND PUSH1 0x4 DUP4 ADD MSTORE PUSH1 0x20 SWAP1 SWAP3 ADD SWAP2 DUP10 AND SWAP1 PUSH4 0xA385AC31 SWAP1 PUSH1 0x24 ADD PUSH1 0x20 PUSH1 0x40 MLOAD DUP1 DUP4 SUB DUP2 DUP7 GAS STATICCALL ISZERO DUP1 ISZERO PUSH2 0x183D JUMPI RETURNDATASIZE PUSH1 0x0 DUP1 RETURNDATACOPY RETURNDATASIZE PUSH1 0x0 REVERT JUMPDEST POP POP POP POP PUSH1 0x40 MLOAD RETURNDATASIZE PUSH1 0x1F NOT PUSH1 0x1F DUP3 ADD AND DUP3 ADD DUP1 PUSH1 0x40 MSTORE POP DUP2 ADD SWAP1 PUSH2 0x1861 SWAP2 SWAP1 PUSH2 0x5B16 JUMP JUMPDEST DUP2 MSTORE PUSH1 0x40 MLOAD PUSH4 0x701B52C1 PUSH1 0xE1 SHL DUP2 MSTORE PUSH1 0x1 PUSH1 0x1 PUSH1 0xA0 SHL SUB DUP8 DUP2 AND PUSH1 0x4 DUP4 ADD MSTORE PUSH1 0x20 SWAP1 SWAP3 ADD SWAP2 DUP10 AND SWAP1 PUSH4 0xE036A582 SWAP1 PUSH1 0x24 ADD PUSH1 0x20 PUSH1 0x40 MLOAD DUP1 DUP4 SUB DUP2 DUP7 GAS STATICCALL ISZERO DUP1 ISZERO PUSH2 0x18AF JUMPI RETURNDATASIZE PUSH1 0x0 DUP1 RETURNDATACOPY RETURNDATASIZE PUSH1 0x0 REVERT JUMPDEST POP POP POP POP PUSH1 0x40 MLOAD RETURNDATASIZE PUSH1 0x1F NOT PUSH1 0x1F DUP3 ADD AND DUP3 ADD DUP1 PUSH1 0x40 MSTORE POP DUP2 ADD SWAP1 PUSH2 0x18D3 SWAP2 SWAP1 PUSH2 0x5B16 JUMP JUMPDEST DUP2 MSTORE PUSH1 0x40 MLOAD PUSH4 0xA26C8629 PUSH1 0xE0 SHL DUP2 MSTORE PUSH1 0x1 PUSH1 0x1 PUSH1 0xA0 SHL SUB DUP8 DUP2 AND PUSH1 0x4 DUP4 ADD MSTORE PUSH1 0x20 SWAP1 SWAP3 ADD SWAP2 DUP10 AND SWAP1 PUSH4 0xA26C8629 SWAP1 PUSH1 0x24 ADD PUSH1 0x20 PUSH1 0x40 MLOAD DUP1 DUP4 SUB DUP2 DUP7 GAS STATICCALL ISZERO DUP1 ISZERO PUSH2 0x1921 JUMPI RETURNDATASIZE PUSH1 0x0 DUP1 RETURNDATACOPY RETURNDATASIZE PUSH1 0x0 REVERT JUMPDEST POP POP POP POP PUSH1 0x40 MLOAD RETURNDATASIZE PUSH1 0x1F NOT PUSH1 0x1F DUP3 ADD AND DUP3 ADD DUP1 PUSH1 0x40 MSTORE POP DUP2 ADD SWAP1 PUSH2 0x1945 SWAP2 SWAP1 PUSH2 0x5B16 JUMP JUMPDEST DUP2 MSTORE PUSH1 0x40 MLOAD PUSH4 0xBC7F14B PUSH1 0xE2 SHL DUP2 MSTORE PUSH1 0x1 PUSH1 0x1 PUSH1 0xA0 SHL SUB DUP8 DUP2 AND PUSH1 0x4 DUP4 ADD MSTORE PUSH1 0x20 SWAP1 SWAP3 ADD SWAP2 DUP10 AND SWAP1 PUSH4 0x2F1FC52C SWAP1 PUSH1 0x24 ADD PUSH1 0x20 PUSH1 0x40 MLOAD DUP1 DUP4 SUB DUP2 DUP7 GAS STATICCALL ISZERO DUP1 ISZERO PUSH2 0x1993 JUMPI RETURNDATASIZE PUSH1 0x0 DUP1 RETURNDATACOPY RETURNDATASIZE PUSH1 0x0 REVERT JUMPDEST POP POP POP POP PUSH1 0x40 MLOAD RETURNDATASIZE PUSH1 0x1F NOT PUSH1 0x1F DUP3 ADD AND DUP3 ADD DUP1 PUSH1 0x40 MSTORE POP DUP2 ADD SWAP1 PUSH2 0x19B7 SWAP2 SWAP1 PUSH2 0x5B16 JUMP JUMPDEST DUP2 MSTORE PUSH1 0x40 MLOAD PUSH3 0xF5ADA9 PUSH1 0xE3 SHL DUP2 MSTORE PUSH1 0x1 PUSH1 0x1 PUSH1 0xA0 SHL SUB DUP8 DUP2 AND PUSH1 0x4 DUP4 ADD MSTORE PUSH1 0x20 SWAP1 SWAP3 ADD SWAP2 DUP10 AND SWAP1 PUSH4 0x7AD6D48 SWAP1 PUSH1 0x24 ADD JUMPDEST PUSH1 0x20 PUSH1 0x40 MLOAD DUP1 DUP4 SUB DUP2 DUP7 GAS STATICCALL ISZERO DUP1 ISZERO PUSH2 0x1A05 JUMPI RETURNDATASIZE PUSH1 0x0 DUP1 RETURNDATACOPY RETURNDATASIZE PUSH1 0x0 REVERT JUMPDEST POP POP POP POP PUSH1 0x40 MLOAD RETURNDATASIZE PUSH1 0x1F NOT PUSH1 0x1F DUP3 ADD AND DUP3 ADD DUP1 PUSH1 0x40 MSTORE POP DUP2 ADD SWAP1 PUSH2 0x1A29 SWAP2 SWAP1 PUSH2 0x5B16 JUMP JUMPDEST DUP2 MSTORE PUSH1 0x20 ADD DUP7 DUP2 MSTORE PUSH1 0x20 ADD DUP8 PUSH1 0x1 PUSH1 0x1 PUSH1 0xA0 SHL SUB AND PUSH4 0x7E11B31F PUSH1 0x40 MLOAD DUP2 PUSH4 0xFFFFFFFF AND PUSH1 0xE0 SHL DUP2 MSTORE PUSH1 0x4 ADD PUSH1 0x20 PUSH1 0x40 MLOAD DUP1 DUP4 SUB DUP2 DUP7 GAS STATICCALL ISZERO DUP1 ISZERO PUSH2 0x1A72 JUMPI RETURNDATASIZE PUSH1 0x0 DUP1 RETURNDATACOPY RETURNDATASIZE PUSH1 0x0 REVERT JUMPDEST POP POP POP POP PUSH1 0x40 MLOAD RETURNDATASIZE PUSH1 0x1F NOT PUSH1 0x1F DUP3 ADD AND DUP3 ADD DUP1 PUSH1 0x40 MSTORE POP DUP2 ADD SWAP1 PUSH2 0x1A96 SWAP2 SWAP1 PUSH2 0x5B16 JUMP JUMPDEST DUP2 MSTORE PUSH1 0x20 ADD DUP8 PUSH1 0x1 PUSH1 0x1 PUSH1 0xA0 SHL SUB AND PUSH4 0x3268CC56 PUSH1 0x40 MLOAD DUP2 PUSH4 0xFFFFFFFF AND PUSH1 0xE0 SHL DUP2 MSTORE PUSH1 0x4 ADD PUSH1 0x20 PUSH1 0x40 MLOAD DUP1 DUP4 SUB DUP2 DUP7 GAS STATICCALL ISZERO DUP1 ISZERO PUSH2 0x1AD9 JUMPI RETURNDATASIZE PUSH1 0x0 DUP1 RETURNDATACOPY RETURNDATASIZE PUSH1 0x0 REVERT JUMPDEST POP POP POP POP PUSH1 0x40 MLOAD RETURNDATASIZE PUSH1 0x1F NOT PUSH1 0x1F DUP3 ADD AND DUP3 ADD DUP1 PUSH1 0x40 MSTORE POP DUP2 ADD SWAP1 PUSH2 0x1AFD SWAP2 SWAP1 PUSH2 0x59B8 JUMP JUMPDEST PUSH1 0x1 PUSH1 0x1 PUSH1 0xA0 SHL SUB AND DUP2 MSTORE PUSH1 0x20 ADD DUP8 PUSH1 0x1 PUSH1 0x1 PUSH1 0xA0 SHL SUB AND PUSH4 0xD505CC4D PUSH1 0x40 MLOAD DUP2 PUSH4 0xFFFFFFFF AND PUSH1 0xE0 SHL DUP2 MSTORE PUSH1 0x4 ADD PUSH1 0x20 PUSH1 0x40 MLOAD DUP1 DUP4 SUB DUP2 DUP7 GAS STATICCALL ISZERO DUP1 ISZERO PUSH2 0x1B49 JUMPI RETURNDATASIZE PUSH1 0x0 DUP1 RETURNDATACOPY RETURNDATASIZE PUSH1 0x0 REVERT JUMPDEST POP POP POP POP PUSH1 0x40 MLOAD RETURNDATASIZE PUSH1 0x1F NOT PUSH1 0x1F DUP3 ADD AND DUP3 ADD DUP1 PUSH1 0x40 MSTORE POP DUP2 ADD SWAP1 PUSH2 0x1B6D SWAP2 SWAP1 PUSH2 0x59B8 JUMP JUMPDEST PUSH1 0x1 PUSH1 0x1 PUSH1 0xA0 SHL SUB AND SWAP1 MSTORE SWAP1 POP PUSH2 0x1E70 JUMP JUMPDEST PUSH1 0x40 DUP1 MLOAD PUSH2 0x180 DUP2 ADD DUP3 MSTORE PUSH1 0x1 PUSH1 0x1 PUSH1 0xA0 SHL SUB DUP1 DUP7 AND DUP3 MSTORE SWAP2 MLOAD PUSH4 0xE69AEE91 PUSH1 0xE0 SHL DUP2 MSTORE DUP7 DUP4 AND PUSH1 0x4 DUP3 ADD MSTORE SWAP1 SWAP2 PUSH1 0x20 DUP4 ADD SWAP2 SWAP1 DUP10 AND SWAP1 PUSH4 0xE69AEE91 SWAP1 PUSH1 0x24 ADD PUSH1 0x20 PUSH1 0x40 MLOAD DUP1 DUP4 SUB DUP2 DUP7 GAS STATICCALL ISZERO DUP1 ISZERO PUSH2 0x1BDC JUMPI RETURNDATASIZE PUSH1 0x0 DUP1 RETURNDATACOPY RETURNDATASIZE PUSH1 0x0 REVERT JUMPDEST POP POP POP POP PUSH1 0x40 MLOAD RETURNDATASIZE PUSH1 0x1F NOT PUSH1 0x1F DUP3 ADD AND DUP3 ADD DUP1 PUSH1 0x40 MSTORE POP DUP2 ADD SWAP1 PUSH2 0x1C00 SWAP2 SWAP1 PUSH2 0x5B16 JUMP JUMPDEST DUP2 MSTORE PUSH1 0x40 MLOAD PUSH4 0x387AD455 PUSH1 0xE2 SHL DUP2 MSTORE PUSH1 0x1 PUSH1 0x1 PUSH1 0xA0 SHL SUB DUP8 DUP2 AND PUSH1 0x4 DUP4 ADD MSTORE PUSH1 0x20 SWAP1 SWAP3 ADD SWAP2 DUP10 AND SWAP1 PUSH4 0xE1EB5154 SWAP1 PUSH1 0x24 ADD PUSH1 0x20 PUSH1 0x40 MLOAD DUP1 DUP4 SUB DUP2 DUP7 GAS STATICCALL ISZERO DUP1 ISZERO PUSH2 0x1C4E JUMPI RETURNDATASIZE PUSH1 0x0 DUP1 RETURNDATACOPY RETURNDATASIZE PUSH1 0x0 REVERT JUMPDEST POP POP POP POP PUSH1 0x40 MLOAD RETURNDATASIZE PUSH1 0x1F NOT PUSH1 0x1F DUP3 ADD AND DUP3 ADD DUP1 PUSH1 0x40 MSTORE POP DUP2 ADD SWAP1 PUSH2 0x1C72 SWAP2 SWAP1 PUSH2 0x5B16 JUMP JUMPDEST DUP2 MSTORE PUSH1 0x40 MLOAD PUSH4 0xAB183639 PUSH1 0xE0 SHL DUP2 MSTORE PUSH1 0x1 PUSH1 0x1 PUSH1 0xA0 SHL SUB DUP8 DUP2 AND PUSH1 0x4 DUP4 ADD MSTORE PUSH1 0x20 SWAP1 SWAP3 ADD SWAP2 DUP10 AND SWAP1 PUSH4 0xAB183639 SWAP1 PUSH1 0x24 ADD PUSH1 0x20 PUSH1 0x40 MLOAD DUP1 DUP4 SUB DUP2 DUP7 GAS STATICCALL ISZERO DUP1 ISZERO PUSH2 0x1CC0 JUMPI RETURNDATASIZE PUSH1 0x0 DUP1 RETURNDATACOPY RETURNDATASIZE PUSH1 0x0 REVERT JUMPDEST POP POP POP POP PUSH1 0x40 MLOAD RETURNDATASIZE PUSH1 0x1F NOT PUSH1 0x1F DUP3 ADD AND DUP3 ADD DUP1 PUSH1 0x40 MSTORE POP DUP2 ADD SWAP1 PUSH2 0x1CE4 SWAP2 SWAP1 PUSH2 0x5B16 JUMP JUMPDEST DUP2 MSTORE PUSH1 0x40 MLOAD PUSH4 0x41EB08F PUSH1 0xE5 SHL DUP2 MSTORE PUSH1 0x1 PUSH1 0x1 PUSH1 0xA0 SHL SUB DUP8 DUP2 AND PUSH1 0x4 DUP4 ADD MSTORE PUSH1 0x20 SWAP1 SWAP3 ADD SWAP2 DUP10 AND SWAP1 PUSH4 0x83D611E0 SWAP1 PUSH1 0x24 ADD PUSH1 0x20 PUSH1 0x40 MLOAD DUP1 DUP4 SUB DUP2 DUP7 GAS STATICCALL ISZERO DUP1 ISZERO PUSH2 0x1D32 JUMPI RETURNDATASIZE PUSH1 0x0 DUP1 RETURNDATACOPY RETURNDATASIZE PUSH1 0x0 REVERT JUMPDEST POP POP POP POP PUSH1 0x40 MLOAD RETURNDATASIZE PUSH1 0x1F NOT PUSH1 0x1F DUP3 ADD AND DUP3 ADD DUP1 PUSH1 0x40 MSTORE POP DUP2 ADD SWAP1 PUSH2 0x1D56 SWAP2 SWAP1 PUSH2 0x5B16 JUMP JUMPDEST DUP2 MSTORE PUSH1 0x40 MLOAD PUSH4 0x75AF3091 PUSH1 0xE0 SHL DUP2 MSTORE PUSH1 0x1 PUSH1 0x1 PUSH1 0xA0 SHL SUB DUP8 DUP2 AND PUSH1 0x4 DUP4 ADD MSTORE PUSH1 0x20 SWAP1 SWAP3 ADD SWAP2 DUP10 AND SWAP1 PUSH4 0x75AF3091 SWAP1 PUSH1 0x24 ADD PUSH1 0x20 PUSH1 0x40 MLOAD DUP1 DUP4 SUB DUP2 DUP7 GAS STATICCALL ISZERO DUP1 ISZERO PUSH2 0x1DA4 JUMPI RETURNDATASIZE PUSH1 0x0 DUP1 RETURNDATACOPY RETURNDATASIZE PUSH1 0x0 REVERT JUMPDEST POP POP POP POP PUSH1 0x40 MLOAD RETURNDATASIZE PUSH1 0x1F NOT PUSH1 0x1F DUP3 ADD AND DUP3 ADD DUP1 PUSH1 0x40 MSTORE POP DUP2 ADD SWAP1 PUSH2 0x1DC8 SWAP2 SWAP1 PUSH2 0x5B16 JUMP JUMPDEST DUP2 MSTORE PUSH1 0x40 MLOAD PUSH4 0x7749EEB3 PUSH1 0xE0 SHL DUP2 MSTORE PUSH1 0x1 PUSH1 0x1 PUSH1 0xA0 SHL SUB DUP8 DUP2 AND PUSH1 0x4 DUP4 ADD MSTORE PUSH1 0x20 SWAP1 SWAP3 ADD SWAP2 DUP10 AND SWAP1 PUSH4 0x7749EEB3 SWAP1 PUSH1 0x24 ADD PUSH1 0x20 PUSH1 0x40 MLOAD DUP1 DUP4 SUB DUP2 DUP7 GAS STATICCALL ISZERO DUP1 ISZERO PUSH2 0x1E16 JUMPI RETURNDATASIZE PUSH1 0x0 DUP1 RETURNDATACOPY RETURNDATASIZE PUSH1 0x0 REVERT JUMPDEST POP POP POP POP PUSH1 0x40 MLOAD RETURNDATASIZE PUSH1 0x1F NOT PUSH1 0x1F DUP3 ADD AND DUP3 ADD DUP1 PUSH1 0x40 MSTORE POP DUP2 ADD SWAP1 PUSH2 0x1E3A SWAP2 SWAP1 PUSH2 0x5B16 JUMP JUMPDEST DUP2 MSTORE PUSH1 0x40 MLOAD PUSH4 0x10513C71 PUSH1 0xE2 SHL DUP2 MSTORE PUSH1 0x1 PUSH1 0x1 PUSH1 0xA0 SHL SUB DUP8 DUP2 AND PUSH1 0x4 DUP4 ADD MSTORE PUSH1 0x20 SWAP1 SWAP3 ADD SWAP2 DUP10 AND SWAP1 PUSH4 0x4144F1C4 SWAP1 PUSH1 0x24 ADD PUSH2 0x19E8 JUMP JUMPDEST SWAP6 SWAP5 POP POP POP POP POP JUMP JUMPDEST PUSH1 0x0 DUP1 DUP3 PUSH1 0xA0 ADD MLOAD DUP4 PUSH1 0xC0 ADD MLOAD PUSH1 0x2 DUP6 PUSH1 0xE0 ADD MLOAD PUSH2 0x1E97 SWAP2 SWAP1 PUSH2 0x5B65 JUMP JUMPDEST PUSH2 0x1EA1 SWAP2 SWAP1 PUSH2 0x5B87 JUMP JUMPDEST PUSH2 0x1EAB SWAP2 SWAP1 PUSH2 0x5B87 JUMP JUMPDEST SWAP1 POP PUSH1 0x0 DUP2 DUP5 PUSH2 0x120 ADD MLOAD PUSH1 0x2 PUSH2 0x1EC2 SWAP2 SWAP1 PUSH2 0x5B87 JUMP JUMPDEST PUSH2 0x1ECD SWAP1 PUSH1 0xA PUSH2 0x5C83 JUMP JUMPDEST PUSH2 0x1ED7 SWAP2 SWAP1 PUSH2 0x596C JUMP JUMPDEST SWAP1 POP PUSH1 0x0 DUP5 PUSH2 0x120 ADD MLOAD PUSH1 0x2 PUSH2 0x1EED SWAP2 SWAP1 PUSH2 0x5B87 JUMP JUMPDEST PUSH2 0x1EF8 SWAP1 PUSH1 0xA PUSH2 0x5C83 JUMP JUMPDEST PUSH2 0x1F03 SWAP1 PUSH1 0x1 PUSH2 0x5B87 JUMP JUMPDEST PUSH2 0x1F0D DUP4 DUP9 PUSH2 0x5B65 JUMP JUMPDEST PUSH2 0x1F17 SWAP2 SWAP1 PUSH2 0x5C8F JUMP JUMPDEST SWAP4 POP POP POP POP JUMPDEST SWAP3 SWAP2 POP POP JUMP JUMPDEST PUSH1 0x0 DUP1 DUP3 PUSH2 0x100 ADD MLOAD DUP4 PUSH1 0x80 ADD MLOAD DUP5 PUSH1 0x60 ADD MLOAD DUP6 PUSH1 0x40 ADD MLOAD DUP7 PUSH1 0x20 ADD MLOAD PUSH1 0x2 DUP9 PUSH1 0xE0 ADD MLOAD PUSH2 0x1F51 SWAP2 SWAP1 PUSH2 0x5B65 JUMP JUMPDEST PUSH2 0x1F5B SWAP2 SWAP1 PUSH2 0x5B87 JUMP JUMPDEST PUSH2 0x1F65 SWAP2 SWAP1 PUSH2 0x5B87 JUMP JUMPDEST PUSH2 0x1F6F SWAP2 SWAP1 PUSH2 0x5B87 JUMP JUMPDEST PUSH2 0x1F79 SWAP2 SWAP1 PUSH2 0x5B87 JUMP JUMPDEST PUSH2 0x1F83 SWAP2 SWAP1 PUSH2 0x5B87 JUMP JUMPDEST SWAP1 POP PUSH1 0x0 DUP2 DUP5 PUSH2 0x120 ADD MLOAD PUSH1 0x2 PUSH2 0x1F9A SWAP2 SWAP1 PUSH2 0x5B87 JUMP JUMPDEST PUSH2 0x1FA5 SWAP1 PUSH1 0xA PUSH2 0x5C83 JUMP JUMPDEST PUSH2 0x1FAF SWAP2 SWAP1 PUSH2 0x596C JUMP JUMPDEST PUSH2 0x140 DUP6 ADD MLOAD PUSH1 0x1 PUSH1 0x1 PUSH1 0xA0 SHL SUB AND PUSH1 0x0 SWAP1 DUP2 MSTORE PUSH1 0x5 PUSH1 0x20 MSTORE PUSH1 0x40 SWAP1 KECCAK256 SLOAD SWAP1 SWAP2 POP PUSH1 0xFF AND PUSH2 0x2004 JUMPI PUSH1 0x0 PUSH2 0x2710 PUSH1 0x8 SLOAD DUP8 PUSH2 0x1FEA SWAP2 SWAP1 PUSH2 0x5C8F JUMP JUMPDEST PUSH2 0x1FF4 SWAP2 SWAP1 PUSH2 0x5B65 JUMP JUMPDEST SWAP1 POP PUSH2 0x2000 DUP2 DUP8 PUSH2 0x5B87 JUMP JUMPDEST SWAP6 POP POP JUMPDEST PUSH2 0x120 DUP5 ADD MLOAD PUSH2 0x2015 SWAP1 PUSH1 0x2 PUSH2 0x5B87 JUMP JUMPDEST PUSH2 0x2020 SWAP1 PUSH1 0xA PUSH2 0x5C83 JUMP JUMPDEST PUSH2 0x202B SWAP1 PUSH1 0x1 PUSH2 0x5B87 JUMP JUMPDEST PUSH2 0x2035 DUP3 DUP8 PUSH2 0x5B65 JUMP JUMPDEST PUSH2 0x1E70 SWAP2 SWAP1 PUSH2 0x5C8F JUMP JUMPDEST PUSH1 0x0 DUP1 SLOAD PUSH1 0x1 PUSH1 0x1 PUSH1 0xA0 SHL SUB DUP4 DUP2 AND PUSH1 0x1 PUSH1 0x1 PUSH1 0xA0 SHL SUB NOT DUP4 AND DUP2 OR DUP5 SSTORE PUSH1 0x40 MLOAD SWAP2 SWAP1 SWAP3 AND SWAP3 DUP4 SWAP2 PUSH32 0x8BE0079C531659141344CD1FD0A4F28419497F9722A3DAAFE3B4186F6B6457E0 SWAP2 SWAP1 LOG3 POP POP JUMP JUMPDEST PUSH1 0x0 DUP1 PUSH1 0x0 DUP1 DUP6 PUSH2 0x120 ADD MLOAD PUSH1 0x2 PUSH2 0x20A7 SWAP2 SWAP1 PUSH2 0x5B87 JUMP JUMPDEST PUSH2 0x20B2 SWAP1 PUSH1 0xA PUSH2 0x5C83 JUMP JUMPDEST PUSH2 0x20BD SWAP1 PUSH1 0x1 PUSH2 0x5B87 JUMP JUMPDEST SWAP1 POP DUP6 PUSH1 0xE0 ADD MLOAD PUSH1 0x0 EQ PUSH2 0x2100 JUMPI DUP1 PUSH1 0x2 DUP8 PUSH1 0xE0 ADD MLOAD PUSH2 0x20DD SWAP2 SWAP1 PUSH2 0x5B65 JUMP JUMPDEST PUSH2 0x20E7 SWAP1 DUP10 PUSH2 0x5C8F JUMP JUMPDEST PUSH2 0x20F1 SWAP2 SWAP1 PUSH2 0x5B65 JUMP JUMPDEST SWAP2 POP PUSH2 0x20FD DUP3 DUP9 PUSH2 0x596C JUMP JUMPDEST SWAP7 POP JUMPDEST PUSH1 0xC0 DUP7 ADD MLOAD ISZERO PUSH2 0x220E JUMPI PUSH1 0x0 DUP2 DUP8 PUSH1 0xC0 ADD MLOAD DUP10 PUSH2 0x211D SWAP2 SWAP1 PUSH2 0x5C8F JUMP JUMPDEST PUSH2 0x2127 SWAP2 SWAP1 PUSH2 0x5B65 JUMP JUMPDEST SWAP1 POP DUP7 PUSH1 0x0 ADD MLOAD PUSH1 0x1 PUSH1 0x1 PUSH1 0xA0 SHL SUB AND PUSH4 0xA9059CBB DUP8 PUSH1 0x1 PUSH1 0x1 PUSH1 0xA0 SHL SUB AND PUSH4 0x70D5AE05 PUSH1 0x40 MLOAD DUP2 PUSH4 0xFFFFFFFF AND PUSH1 0xE0 SHL DUP2 MSTORE PUSH1 0x4 ADD PUSH1 0x20 PUSH1 0x40 MLOAD DUP1 DUP4 SUB DUP2 DUP7 GAS STATICCALL ISZERO DUP1 ISZERO PUSH2 0x217A JUMPI RETURNDATASIZE PUSH1 0x0 DUP1 RETURNDATACOPY RETURNDATASIZE PUSH1 0x0 REVERT JUMPDEST POP POP POP POP PUSH1 0x40 MLOAD RETURNDATASIZE PUSH1 0x1F NOT PUSH1 0x1F DUP3 ADD AND DUP3 ADD DUP1 PUSH1 0x40 MSTORE POP DUP2 ADD SWAP1 PUSH2 0x219E SWAP2 SWAP1 PUSH2 0x59B8 JUMP JUMPDEST DUP4 PUSH1 0x40 MLOAD DUP4 PUSH4 0xFFFFFFFF AND PUSH1 0xE0 SHL DUP2 MSTORE PUSH1 0x4 ADD PUSH2 0x21BC SWAP3 SWAP2 SWAP1 PUSH2 0x5B2F JUMP JUMPDEST PUSH1 0x20 PUSH1 0x40 MLOAD DUP1 DUP4 SUB DUP2 PUSH1 0x0 DUP8 GAS CALL ISZERO DUP1 ISZERO PUSH2 0x21DB JUMPI RETURNDATASIZE PUSH1 0x0 DUP1 RETURNDATACOPY RETURNDATASIZE PUSH1 0x0 REVERT JUMPDEST POP POP POP POP PUSH1 0x40 MLOAD RETURNDATASIZE PUSH1 0x1F NOT PUSH1 0x1F DUP3 ADD AND DUP3 ADD DUP1 PUSH1 0x40 MSTORE POP DUP2 ADD SWAP1 PUSH2 0x21FF SWAP2 SWAP1 PUSH2 0x5B48 JUMP JUMPDEST POP PUSH2 0x220A DUP2 DUP10 PUSH2 0x596C JUMP JUMPDEST SWAP8 POP POP JUMPDEST PUSH1 0xA0 DUP7 ADD MLOAD ISZERO PUSH2 0x231C JUMPI PUSH1 0x0 DUP2 DUP8 PUSH1 0xA0 ADD MLOAD DUP10 PUSH2 0x222B SWAP2 SWAP1 PUSH2 0x5C8F JUMP JUMPDEST PUSH2 0x2235 SWAP2 SWAP1 PUSH2 0x5B65 JUMP JUMPDEST SWAP1 POP DUP7 PUSH1 0x0 ADD MLOAD PUSH1 0x1 PUSH1 0x1 PUSH1 0xA0 SHL SUB AND PUSH4 0xA9059CBB DUP8 PUSH1 0x1 PUSH1 0x1 PUSH1 0xA0 SHL SUB AND PUSH4 0x2CBFC5A5 PUSH1 0x40 MLOAD DUP2 PUSH4 0xFFFFFFFF AND PUSH1 0xE0 SHL DUP2 MSTORE PUSH1 0x4 ADD PUSH1 0x20 PUSH1 0x40 MLOAD DUP1 DUP4 SUB DUP2 DUP7 GAS STATICCALL ISZERO DUP1 ISZERO PUSH2 0x2288 JUMPI RETURNDATASIZE PUSH1 0x0 DUP1 RETURNDATACOPY RETURNDATASIZE PUSH1 0x0 REVERT JUMPDEST POP POP POP POP PUSH1 0x40 MLOAD RETURNDATASIZE PUSH1 0x1F NOT PUSH1 0x1F DUP3 ADD AND DUP3 ADD DUP1 PUSH1 0x40 MSTORE POP DUP2 ADD SWAP1 PUSH2 0x22AC SWAP2 SWAP1 PUSH2 0x59B8 JUMP JUMPDEST DUP4 PUSH1 0x40 MLOAD DUP4 PUSH4 0xFFFFFFFF AND PUSH1 0xE0 SHL DUP2 MSTORE PUSH1 0x4 ADD PUSH2 0x22CA SWAP3 SWAP2 SWAP1 PUSH2 0x5B2F JUMP JUMPDEST PUSH1 0x20 PUSH1 0x40 MLOAD DUP1 DUP4 SUB DUP2 PUSH1 0x0 DUP8 GAS CALL ISZERO DUP1 ISZERO PUSH2 0x22E9 JUMPI RETURNDATASIZE PUSH1 0x0 DUP1 RETURNDATACOPY RETURNDATASIZE PUSH1 0x0 REVERT JUMPDEST POP POP POP POP PUSH1 0x40 MLOAD RETURNDATASIZE PUSH1 0x1F NOT PUSH1 0x1F DUP3 ADD AND DUP3 ADD DUP1 PUSH1 0x40 MSTORE POP DUP2 ADD SWAP1 PUSH2 0x230D SWAP2 SWAP1 PUSH2 0x5B48 JUMP JUMPDEST POP PUSH2 0x2318 DUP2 DUP10 PUSH2 0x596C JUMP JUMPDEST SWAP8 POP POP JUMPDEST POP SWAP5 SWAP6 SWAP4 POP POP POP POP JUMP JUMPDEST PUSH2 0x140 DUP3 ADD MLOAD PUSH1 0x40 DUP1 MLOAD PUSH1 0x2 DUP1 DUP3 MSTORE PUSH1 0x60 DUP3 ADD DUP4 MSTORE PUSH1 0x0 SWAP4 DUP5 SWAP4 SWAP1 SWAP3 DUP5 SWAP3 SWAP1 SWAP2 PUSH1 0x20 DUP4 ADD SWAP1 DUP1 CALLDATASIZE DUP4 CALLDATACOPY ADD SWAP1 POP POP SWAP1 POP DUP6 PUSH1 0x0 ADD MLOAD DUP2 PUSH1 0x0 DUP2 MLOAD DUP2 LT PUSH2 0x236D JUMPI PUSH2 0x236D PUSH2 0x59EB JUMP JUMPDEST PUSH1 0x20 MUL PUSH1 0x20 ADD ADD SWAP1 PUSH1 0x1 PUSH1 0x1 PUSH1 0xA0 SHL SUB AND SWAP1 DUP2 PUSH1 0x1 PUSH1 0x1 PUSH1 0xA0 SHL SUB AND DUP2 MSTORE POP POP DUP2 PUSH1 0x1 PUSH1 0x1 PUSH1 0xA0 SHL SUB AND PUSH4 0xAD5C4648 PUSH1 0x40 MLOAD DUP2 PUSH4 0xFFFFFFFF AND PUSH1 0xE0 SHL DUP2 MSTORE PUSH1 0x4 ADD PUSH1 0x20 PUSH1 0x40 MLOAD DUP1 DUP4 SUB DUP2 DUP7 GAS STATICCALL ISZERO DUP1 ISZERO PUSH2 0x23CB JUMPI RETURNDATASIZE PUSH1 0x0 DUP1 RETURNDATACOPY RETURNDATASIZE PUSH1 0x0 REVERT JUMPDEST POP POP POP POP PUSH1 0x40 MLOAD RETURNDATASIZE PUSH1 0x1F NOT PUSH1 0x1F DUP3 ADD AND DUP3 ADD DUP1 PUSH1 0x40 MSTORE POP DUP2 ADD SWAP1 PUSH2 0x23EF SWAP2 SWAP1 PUSH2 0x59B8 JUMP JUMPDEST DUP2 PUSH1 0x1 DUP2 MLOAD DUP2 LT PUSH2 0x2402 JUMPI PUSH2 0x2402 PUSH2 0x59EB JUMP JUMPDEST PUSH1 0x1 PUSH1 0x1 PUSH1 0xA0 SHL SUB SWAP3 DUP4 AND PUSH1 0x20 SWAP2 DUP3 MUL SWAP3 SWAP1 SWAP3 ADD ADD MSTORE DUP7 MLOAD PUSH1 0x40 MLOAD PUSH4 0x95EA7B3 PUSH1 0xE0 SHL DUP2 MSTORE SWAP2 AND SWAP1 PUSH4 0x95EA7B3 SWAP1 PUSH2 0x2440 SWAP1 DUP6 SWAP1 DUP13 SWAP1 PUSH1 0x4 ADD PUSH2 0x5B2F JUMP JUMPDEST PUSH1 0x20 PUSH1 0x40 MLOAD DUP1 DUP4 SUB DUP2 PUSH1 0x0 DUP8 GAS CALL ISZERO DUP1 ISZERO PUSH2 0x245F JUMPI RETURNDATASIZE PUSH1 0x0 DUP1 RETURNDATACOPY RETURNDATASIZE PUSH1 0x0 REVERT JUMPDEST POP POP POP POP PUSH1 0x40 MLOAD RETURNDATASIZE PUSH1 0x1F NOT PUSH1 0x1F DUP3 ADD AND DUP3 ADD DUP1 PUSH1 0x40 MSTORE POP DUP2 ADD SWAP1 PUSH2 0x2483 SWAP2 SWAP1 PUSH2 0x5B48 JUMP JUMPDEST POP SELFBALANCE DUP6 ISZERO PUSH2 0x249D JUMPI PUSH2 0x2498 DUP10 PUSH1 0x0 DUP5 DUP7 PUSH2 0x39A5 JUMP JUMPDEST PUSH2 0x24AC JUMP JUMPDEST PUSH2 0x24AA DUP9 DUP11 DUP5 ADDRESS DUP8 PUSH2 0x3CE9 JUMP JUMPDEST POP JUMPDEST PUSH2 0x24B6 DUP2 SELFBALANCE PUSH2 0x596C JUMP JUMPDEST SWAP10 PUSH1 0x0 SWAP10 POP SWAP8 POP POP POP POP POP POP POP POP JUMP JUMPDEST PUSH1 0x0 DUP1 PUSH1 0x0 DUP8 SWAP1 POP PUSH1 0x0 DUP6 PUSH1 0x20 ADD MLOAD PUSH1 0x0 EQ PUSH2 0x25F9 JUMPI PUSH1 0x0 DUP7 PUSH2 0x120 ADD MLOAD PUSH1 0x2 PUSH2 0x24F0 SWAP2 SWAP1 PUSH2 0x5B87 JUMP JUMPDEST PUSH2 0x24FB SWAP1 PUSH1 0xA PUSH2 0x5C83 JUMP JUMPDEST PUSH1 0x20 DUP9 ADD MLOAD PUSH2 0x250A SWAP1 DUP13 PUSH2 0x5C8F JUMP JUMPDEST PUSH2 0x2514 SWAP2 SWAP1 PUSH2 0x5B65 JUMP JUMPDEST SWAP1 POP PUSH2 0x2520 DUP2 DUP5 PUSH2 0x596C JUMP JUMPDEST SWAP3 POP PUSH1 0x0 DUP7 PUSH1 0x1 PUSH1 0x1 PUSH1 0xA0 SHL SUB AND PUSH4 0xF3B6966B PUSH1 0x40 MLOAD DUP2 PUSH4 0xFFFFFFFF AND PUSH1 0xE0 SHL DUP2 MSTORE PUSH1 0x4 ADD PUSH1 0x20 PUSH1 0x40 MLOAD DUP1 DUP4 SUB DUP2 DUP7 GAS STATICCALL ISZERO DUP1 ISZERO PUSH2 0x2562 JUMPI RETURNDATASIZE PUSH1 0x0 DUP1 RETURNDATACOPY RETURNDATASIZE PUSH1 0x0 REVERT JUMPDEST POP POP POP POP PUSH1 0x40 MLOAD RETURNDATASIZE PUSH1 0x1F NOT PUSH1 0x1F DUP3 ADD AND DUP3 ADD DUP1 PUSH1 0x40 MSTORE POP DUP2 ADD SWAP1 PUSH2 0x2586 SWAP2 SWAP1 PUSH2 0x59B8 JUMP JUMPDEST PUSH1 0x1 PUSH1 0x1 PUSH1 0xA0 SHL SUB AND DUP3 PUSH1 0x40 MLOAD PUSH1 0x0 PUSH1 0x40 MLOAD DUP1 DUP4 SUB DUP2 DUP6 DUP8 GAS CALL SWAP3 POP POP POP RETURNDATASIZE DUP1 PUSH1 0x0 DUP2 EQ PUSH2 0x25D0 JUMPI PUSH1 0x40 MLOAD SWAP2 POP PUSH1 0x1F NOT PUSH1 0x3F RETURNDATASIZE ADD AND DUP3 ADD PUSH1 0x40 MSTORE RETURNDATASIZE DUP3 MSTORE RETURNDATASIZE PUSH1 0x0 PUSH1 0x20 DUP5 ADD RETURNDATACOPY PUSH2 0x25D5 JUMP JUMPDEST PUSH1 0x60 SWAP2 POP JUMPDEST POP POP SWAP1 POP DUP1 PUSH2 0x25F6 JUMPI PUSH1 0x40 MLOAD PUSH3 0x461BCD PUSH1 0xE5 SHL DUP2 MSTORE PUSH1 0x4 ADD PUSH2 0x506 SWAP1 PUSH2 0x5CAE JUMP JUMPDEST POP POP JUMPDEST PUSH1 0x40 DUP7 ADD MLOAD ISZERO PUSH2 0x2720 JUMPI PUSH1 0x0 DUP7 PUSH2 0x120 ADD MLOAD PUSH1 0x2 PUSH2 0x2617 SWAP2 SWAP1 PUSH2 0x5B87 JUMP JUMPDEST PUSH2 0x2622 SWAP1 PUSH1 0xA PUSH2 0x5C83 JUMP JUMPDEST PUSH1 0x40 DUP9 ADD MLOAD PUSH2 0x2631 SWAP1 DUP13 PUSH2 0x5C8F JUMP JUMPDEST PUSH2 0x263B SWAP2 SWAP1 PUSH2 0x5B65 JUMP JUMPDEST SWAP1 POP PUSH2 0x2647 DUP2 DUP5 PUSH2 0x596C JUMP JUMPDEST SWAP3 POP PUSH1 0x0 DUP7 PUSH1 0x1 PUSH1 0x1 PUSH1 0xA0 SHL SUB AND PUSH4 0xE3255552 PUSH1 0x40 MLOAD DUP2 PUSH4 0xFFFFFFFF AND PUSH1 0xE0 SHL DUP2 MSTORE PUSH1 0x4 ADD PUSH1 0x20 PUSH1 0x40 MLOAD DUP1 DUP4 SUB DUP2 DUP7 GAS STATICCALL ISZERO DUP1 ISZERO PUSH2 0x2689 JUMPI RETURNDATASIZE PUSH1 0x0 DUP1 RETURNDATACOPY RETURNDATASIZE PUSH1 0x0 REVERT JUMPDEST POP POP POP POP PUSH1 0x40 MLOAD RETURNDATASIZE PUSH1 0x1F NOT PUSH1 0x1F DUP3 ADD AND DUP3 ADD DUP1 PUSH1 0x40 MSTORE POP DUP2 ADD SWAP1 PUSH2 0x26AD SWAP2 SWAP1 PUSH2 0x59B8 JUMP JUMPDEST PUSH1 0x1 PUSH1 0x1 PUSH1 0xA0 SHL SUB AND DUP3 PUSH1 0x40 MLOAD PUSH1 0x0 PUSH1 0x40 MLOAD DUP1 DUP4 SUB DUP2 DUP6 DUP8 GAS CALL SWAP3 POP POP POP RETURNDATASIZE DUP1 PUSH1 0x0 DUP2 EQ PUSH2 0x26F7 JUMPI PUSH1 0x40 MLOAD SWAP2 POP PUSH1 0x1F NOT PUSH1 0x3F RETURNDATASIZE ADD AND DUP3 ADD PUSH1 0x40 MSTORE RETURNDATASIZE DUP3 MSTORE RETURNDATASIZE PUSH1 0x0 PUSH1 0x20 DUP5 ADD RETURNDATACOPY PUSH2 0x26FC JUMP JUMPDEST PUSH1 0x60 SWAP2 POP JUMPDEST POP POP SWAP1 POP DUP1 PUSH2 0x271D JUMPI PUSH1 0x40 MLOAD PUSH3 0x461BCD PUSH1 0xE5 SHL DUP2 MSTORE PUSH1 0x4 ADD PUSH2 0x506 SWAP1 PUSH2 0x5CEF JUMP JUMPDEST POP POP JUMPDEST PUSH1 0x60 DUP7 ADD MLOAD ISZERO PUSH2 0x2847 JUMPI PUSH1 0x0 DUP7 PUSH2 0x120 ADD MLOAD PUSH1 0x2 PUSH2 0x273E SWAP2 SWAP1 PUSH2 0x5B87 JUMP JUMPDEST PUSH2 0x2749 SWAP1 PUSH1 0xA PUSH2 0x5C83 JUMP JUMPDEST PUSH1 0x60 DUP9 ADD MLOAD PUSH2 0x2758 SWAP1 DUP13 PUSH2 0x5C8F JUMP JUMPDEST PUSH2 0x2762 SWAP2 SWAP1 PUSH2 0x5B65 JUMP JUMPDEST SWAP1 POP PUSH2 0x276E DUP2 DUP5 PUSH2 0x596C JUMP JUMPDEST SWAP3 POP PUSH1 0x0 DUP7 PUSH1 0x1 PUSH1 0x1 PUSH1 0xA0 SHL SUB AND PUSH4 0x10B567AD PUSH1 0x40 MLOAD DUP2 PUSH4 0xFFFFFFFF AND PUSH1 0xE0 SHL DUP2 MSTORE PUSH1 0x4 ADD PUSH1 0x20 PUSH1 0x40 MLOAD DUP1 DUP4 SUB DUP2 DUP7 GAS STATICCALL ISZERO DUP1 ISZERO PUSH2 0x27B0 JUMPI RETURNDATASIZE PUSH1 0x0 DUP1 RETURNDATACOPY RETURNDATASIZE PUSH1 0x0 REVERT JUMPDEST POP POP POP POP PUSH1 0x40 MLOAD RETURNDATASIZE PUSH1 0x1F NOT PUSH1 0x1F DUP3 ADD AND DUP3 ADD DUP1 PUSH1 0x40 MSTORE POP DUP2 ADD SWAP1 PUSH2 0x27D4 SWAP2 SWAP1 PUSH2 0x59B8 JUMP JUMPDEST PUSH1 0x1 PUSH1 0x1 PUSH1 0xA0 SHL SUB AND DUP3 PUSH1 0x40 MLOAD PUSH1 0x0 PUSH1 0x40 MLOAD DUP1 DUP4 SUB DUP2 DUP6 DUP8 GAS CALL SWAP3 POP POP POP RETURNDATASIZE DUP1 PUSH1 0x0 DUP2 EQ PUSH2 0x281E JUMPI PUSH1 0x40 MLOAD SWAP2 POP PUSH1 0x1F NOT PUSH1 0x3F RETURNDATASIZE ADD AND DUP3 ADD PUSH1 0x40 MSTORE RETURNDATASIZE DUP3 MSTORE RETURNDATASIZE PUSH1 0x0 PUSH1 0x20 DUP5 ADD RETURNDATACOPY PUSH2 0x2823 JUMP JUMPDEST PUSH1 0x60 SWAP2 POP JUMPDEST POP POP SWAP1 POP DUP1 PUSH2 0x2844 JUMPI PUSH1 0x40 MLOAD PUSH3 0x461BCD PUSH1 0xE5 SHL DUP2 MSTORE PUSH1 0x4 ADD PUSH2 0x506 SWAP1 PUSH2 0x5D30 JUMP JUMPDEST POP POP JUMPDEST PUSH1 0x80 DUP7 ADD MLOAD ISZERO PUSH2 0x296E JUMPI PUSH1 0x0 DUP7 PUSH2 0x120 ADD MLOAD PUSH1 0x2 PUSH2 0x2865 SWAP2 SWAP1 PUSH2 0x5B87 JUMP JUMPDEST PUSH2 0x2870 SWAP1 PUSH1 0xA PUSH2 0x5C83 JUMP JUMPDEST PUSH1 0x80 DUP9 ADD MLOAD PUSH2 0x287F SWAP1 DUP13 PUSH2 0x5C8F JUMP JUMPDEST PUSH2 0x2889 SWAP2 SWAP1 PUSH2 0x5B65 JUMP JUMPDEST SWAP1 POP PUSH2 0x2895 DUP2 DUP5 PUSH2 0x596C JUMP JUMPDEST SWAP3 POP PUSH1 0x0 DUP7 PUSH1 0x1 PUSH1 0x1 PUSH1 0xA0 SHL SUB AND PUSH4 0x80384D4D PUSH1 0x40 MLOAD DUP2 PUSH4 0xFFFFFFFF AND PUSH1 0xE0 SHL DUP2 MSTORE PUSH1 0x4 ADD PUSH1 0x20 PUSH1 0x40 MLOAD DUP1 DUP4 SUB DUP2 DUP7 GAS STATICCALL ISZERO DUP1 ISZERO PUSH2 0x28D7 JUMPI RETURNDATASIZE PUSH1 0x0 DUP1 RETURNDATACOPY RETURNDATASIZE PUSH1 0x0 REVERT JUMPDEST POP POP POP POP PUSH1 0x40 MLOAD RETURNDATASIZE PUSH1 0x1F NOT PUSH1 0x1F DUP3 ADD AND DUP3 ADD DUP1 PUSH1 0x40 MSTORE POP DUP2 ADD SWAP1 PUSH2 0x28FB SWAP2 SWAP1 PUSH2 0x59B8 JUMP JUMPDEST PUSH1 0x1 PUSH1 0x1 PUSH1 0xA0 SHL SUB AND DUP3 PUSH1 0x40 MLOAD PUSH1 0x0 PUSH1 0x40 MLOAD DUP1 DUP4 SUB DUP2 DUP6 DUP8 GAS CALL SWAP3 POP POP POP RETURNDATASIZE DUP1 PUSH1 0x0 DUP2 EQ PUSH2 0x2945 JUMPI PUSH1 0x40 MLOAD SWAP2 POP PUSH1 0x1F NOT PUSH1 0x3F RETURNDATASIZE ADD AND DUP3 ADD PUSH1 0x40 MSTORE RETURNDATASIZE DUP3 MSTORE RETURNDATASIZE PUSH1 0x0 PUSH1 0x20 DUP5 ADD RETURNDATACOPY PUSH2 0x294A JUMP JUMPDEST PUSH1 0x60 SWAP2 POP JUMPDEST POP POP SWAP1 POP DUP1 PUSH2 0x296B JUMPI PUSH1 0x40 MLOAD PUSH3 0x461BCD PUSH1 0xE5 SHL DUP2 MSTORE PUSH1 0x4 ADD PUSH2 0x506 SWAP1 PUSH2 0x5D71 JUMP JUMPDEST POP POP JUMPDEST PUSH2 0x100 DUP7 ADD MLOAD ISZERO PUSH2 0x2A32 JUMPI PUSH2 0x120 DUP7 ADD MLOAD PUSH2 0x298A SWAP1 PUSH1 0x2 PUSH2 0x5B87 JUMP JUMPDEST PUSH2 0x2995 SWAP1 PUSH1 0xA PUSH2 0x5C83 JUMP JUMPDEST PUSH2 0x100 DUP8 ADD MLOAD PUSH2 0x29A5 SWAP1 DUP12 PUSH2 0x5C8F JUMP JUMPDEST PUSH2 0x29AF SWAP2 SWAP1 PUSH2 0x5B65 JUMP JUMPDEST SWAP1 POP PUSH2 0x29BB DUP2 DUP4 PUSH2 0x596C JUMP JUMPDEST SWAP2 POP PUSH1 0x0 DUP9 PUSH1 0x1 PUSH1 0x1 PUSH1 0xA0 SHL SUB AND DUP3 PUSH1 0x40 MLOAD PUSH1 0x0 PUSH1 0x40 MLOAD DUP1 DUP4 SUB DUP2 DUP6 DUP8 GAS CALL SWAP3 POP POP POP RETURNDATASIZE DUP1 PUSH1 0x0 DUP2 EQ PUSH2 0x2A0A JUMPI PUSH1 0x40 MLOAD SWAP2 POP PUSH1 0x1F NOT PUSH1 0x3F RETURNDATASIZE ADD AND DUP3 ADD PUSH1 0x40 MSTORE RETURNDATASIZE DUP3 MSTORE RETURNDATASIZE PUSH1 0x0 PUSH1 0x20 DUP5 ADD RETURNDATACOPY PUSH2 0x2A0F JUMP JUMPDEST PUSH1 0x60 SWAP2 POP JUMPDEST POP POP SWAP1 POP DUP1 PUSH2 0x2A30 JUMPI PUSH1 0x40 MLOAD PUSH3 0x461BCD PUSH1 0xE5 SHL DUP2 MSTORE PUSH1 0x4 ADD PUSH2 0x506 SWAP1 PUSH2 0x5D71 JUMP JUMPDEST POP JUMPDEST PUSH2 0x140 DUP7 ADD MLOAD PUSH1 0x1 PUSH1 0x1 PUSH1 0xA0 SHL SUB AND PUSH1 0x0 SWAP1 DUP2 MSTORE PUSH1 0x5 PUSH1 0x20 MSTORE PUSH1 0x40 SWAP1 KECCAK256 SLOAD PUSH1 0xFF AND PUSH2 0x2B9E JUMPI PUSH1 0x0 PUSH2 0x2710 PUSH1 0x8 SLOAD DUP12 PUSH2 0x2A6A SWAP2 SWAP1 PUSH2 0x5C8F JUMP JUMPDEST PUSH2 0x2A74 SWAP2 SWAP1 PUSH2 0x5B65 JUMP JUMPDEST SWAP1 POP PUSH2 0x2A80 DUP2 DUP5 PUSH2 0x596C JUMP JUMPDEST SWAP3 POP PUSH1 0x0 PUSH1 0x6 PUSH1 0x0 SWAP1 SLOAD SWAP1 PUSH2 0x100 EXP SWAP1 DIV PUSH1 0x1 PUSH1 0x1 PUSH1 0xA0 SHL SUB AND PUSH1 0x1 PUSH1 0x1 PUSH1 0xA0 SHL SUB AND PUSH4 0x17E7E58 PUSH1 0x40 MLOAD DUP2 PUSH4 0xFFFFFFFF AND PUSH1 0xE0 SHL DUP2 MSTORE PUSH1 0x4 ADD PUSH1 0x20 PUSH1 0x40 MLOAD DUP1 DUP4 SUB DUP2 DUP7 GAS STATICCALL ISZERO DUP1 ISZERO PUSH2 0x2AD7 JUMPI RETURNDATASIZE PUSH1 0x0 DUP1 RETURNDATACOPY RETURNDATASIZE PUSH1 0x0 REVERT JUMPDEST POP POP POP POP PUSH1 0x40 MLOAD RETURNDATASIZE PUSH1 0x1F NOT PUSH1 0x1F DUP3 ADD AND DUP3 ADD DUP1 PUSH1 0x40 MSTORE POP DUP2 ADD SWAP1 PUSH2 0x2AFB SWAP2 SWAP1 PUSH2 0x59B8 JUMP JUMPDEST PUSH1 0x1 PUSH1 0x1 PUSH1 0xA0 SHL SUB AND DUP3 PUSH1 0x40 MLOAD PUSH1 0x0 PUSH1 0x40 MLOAD DUP1 DUP4 SUB DUP2 DUP6 DUP8 GAS CALL SWAP3 POP POP POP RETURNDATASIZE DUP1 PUSH1 0x0 DUP2 EQ PUSH2 0x2B45 JUMPI PUSH1 0x40 MLOAD SWAP2 POP PUSH1 0x1F NOT PUSH1 0x3F RETURNDATASIZE ADD AND DUP3 ADD PUSH1 0x40 MSTORE RETURNDATASIZE DUP3 MSTORE RETURNDATASIZE PUSH1 0x0 PUSH1 0x20 DUP5 ADD RETURNDATACOPY PUSH2 0x2B4A JUMP JUMPDEST PUSH1 0x60 SWAP2 POP JUMPDEST POP POP SWAP1 POP DUP1 PUSH2 0x2B9B JUMPI PUSH1 0x40 MLOAD PUSH3 0x461BCD PUSH1 0xE5 SHL DUP2 MSTORE PUSH1 0x20 PUSH1 0x4 DUP3 ADD MSTORE PUSH1 0x1E PUSH1 0x24 DUP3 ADD MSTORE PUSH32 0x4661696C656420746F2073656E642065746820746F2074726561737572790000 PUSH1 0x44 DUP3 ADD MSTORE PUSH1 0x64 ADD PUSH2 0x506 JUMP JUMPDEST POP POP JUMPDEST PUSH1 0xE0 DUP7 ADD MLOAD ISZERO PUSH2 0x2C17 JUMPI PUSH1 0x0 DUP7 PUSH2 0x120 ADD MLOAD PUSH1 0x2 PUSH2 0x2BBC SWAP2 SWAP1 PUSH2 0x5B87 JUMP JUMPDEST PUSH2 0x2BC7 SWAP1 PUSH1 0xA PUSH2 0x5C83 JUMP JUMPDEST PUSH1 0x2 DUP9 PUSH1 0xE0 ADD MLOAD PUSH2 0x2BD8 SWAP2 SWAP1 PUSH2 0x5B65 JUMP JUMPDEST PUSH2 0x2BE2 SWAP1 DUP13 PUSH2 0x5C8F JUMP JUMPDEST PUSH2 0x2BEC SWAP2 SWAP1 PUSH2 0x5B65 JUMP JUMPDEST SWAP1 POP PUSH2 0x2BF8 DUP2 DUP5 PUSH2 0x596C JUMP JUMPDEST SWAP3 POP PUSH2 0x2C15 DUP9 DUP3 DUP10 PUSH2 0x160 ADD MLOAD DUP11 PUSH1 0x0 ADD MLOAD DUP12 PUSH2 0x140 ADD MLOAD PUSH2 0x4174 JUMP JUMPDEST POP JUMPDEST SWAP1 SWAP9 SWAP1 SWAP8 POP SWAP6 POP POP POP POP POP POP JUMP JUMPDEST PUSH1 0x0 DUP2 ISZERO PUSH2 0x2CCE JUMPI PUSH1 0x40 MLOAD PUSH1 0x0 SWAP1 CALLER SWAP1 DUP7 SWAP1 DUP4 DUP2 DUP2 DUP2 DUP6 DUP8 GAS CALL SWAP3 POP POP POP RETURNDATASIZE DUP1 PUSH1 0x0 DUP2 EQ PUSH2 0x2C6F JUMPI PUSH1 0x40 MLOAD SWAP2 POP PUSH1 0x1F NOT PUSH1 0x3F RETURNDATASIZE ADD AND DUP3 ADD PUSH1 0x40 MSTORE RETURNDATASIZE DUP3 MSTORE RETURNDATASIZE PUSH1 0x0 PUSH1 0x20 DUP5 ADD RETURNDATACOPY PUSH2 0x2C74 JUMP JUMPDEST PUSH1 0x60 SWAP2 POP JUMPDEST POP POP SWAP1 POP DUP1 PUSH2 0x2CC5 JUMPI PUSH1 0x40 MLOAD PUSH3 0x461BCD PUSH1 0xE5 SHL DUP2 MSTORE PUSH1 0x20 PUSH1 0x4 DUP3 ADD MSTORE PUSH1 0x1A PUSH1 0x24 DUP3 ADD MSTORE PUSH32 0x4661696C656420746F2073656E642065746820746F2075736572000000000000 PUSH1 0x44 DUP3 ADD MSTORE PUSH1 0x64 ADD PUSH2 0x506 JUMP JUMPDEST DUP5 SWAP2 POP POP PUSH2 0x2D6B JUMP JUMPDEST PUSH1 0x40 MLOAD PUSH1 0x0 SWAP1 CALLER SWAP1 DUP6 SWAP1 DUP4 DUP2 DUP2 DUP2 DUP6 DUP8 GAS CALL SWAP3 POP POP POP RETURNDATASIZE DUP1 PUSH1 0x0 DUP2 EQ PUSH2 0x2D10 JUMPI PUSH1 0x40 MLOAD SWAP2 POP PUSH1 0x1F NOT PUSH1 0x3F RETURNDATASIZE ADD AND DUP3 ADD PUSH1 0x40 MSTORE RETURNDATASIZE DUP3 MSTORE RETURNDATASIZE PUSH1 0x0 PUSH1 0x20 DUP5 ADD RETURNDATACOPY PUSH2 0x2D15 JUMP JUMPDEST PUSH1 0x60 SWAP2 POP JUMPDEST POP POP SWAP1 POP DUP1 PUSH2 0x2D66 JUMPI PUSH1 0x40 MLOAD PUSH3 0x461BCD PUSH1 0xE5 SHL DUP2 MSTORE PUSH1 0x20 PUSH1 0x4 DUP3 ADD MSTORE PUSH1 0x1A PUSH1 0x24 DUP3 ADD MSTORE PUSH32 0x4661696C656420746F2073656E642065746820746F2075736572000000000000 PUSH1 0x44 DUP3 ADD MSTORE PUSH1 0x64 ADD PUSH2 0x506 JUMP JUMPDEST DUP4 SWAP2 POP POP JUMPDEST SWAP4 SWAP3 POP POP POP JUMP JUMPDEST PUSH2 0x140 DUP3 ADD MLOAD PUSH1 0x1 PUSH1 0x1 PUSH1 0xA0 SHL SUB AND PUSH1 0x0 SWAP1 DUP2 MSTORE PUSH1 0x5 PUSH1 0x20 MSTORE PUSH1 0x40 DUP2 KECCAK256 SLOAD DUP2 SWAP1 DUP2 SWAP1 DUP8 SWAP1 DUP3 SWAP1 DUP2 SWAP1 PUSH1 0xFF AND PUSH2 0x2EE8 JUMPI PUSH1 0x0 PUSH2 0x2710 PUSH1 0x8 SLOAD DUP13 PUSH2 0x2DB4 SWAP2 SWAP1 PUSH2 0x5C8F JUMP JUMPDEST PUSH2 0x2DBE SWAP2 SWAP1 PUSH2 0x5B65 JUMP JUMPDEST SWAP1 POP PUSH2 0x2DCA DUP2 DUP6 PUSH2 0x596C JUMP JUMPDEST SWAP4 POP PUSH1 0x0 PUSH1 0x6 PUSH1 0x0 SWAP1 SLOAD SWAP1 PUSH2 0x100 EXP SWAP1 DIV PUSH1 0x1 PUSH1 0x1 PUSH1 0xA0 SHL SUB AND PUSH1 0x1 PUSH1 0x1 PUSH1 0xA0 SHL SUB AND PUSH4 0x17E7E58 PUSH1 0x40 MLOAD DUP2 PUSH4 0xFFFFFFFF AND PUSH1 0xE0 SHL DUP2 MSTORE PUSH1 0x4 ADD PUSH1 0x20 PUSH1 0x40 MLOAD DUP1 DUP4 SUB DUP2 DUP7 GAS STATICCALL ISZERO DUP1 ISZERO PUSH2 0x2E21 JUMPI RETURNDATASIZE PUSH1 0x0 DUP1 RETURNDATACOPY RETURNDATASIZE PUSH1 0x0 REVERT JUMPDEST POP POP POP POP PUSH1 0x40 MLOAD RETURNDATASIZE PUSH1 0x1F NOT PUSH1 0x1F DUP3 ADD AND DUP3 ADD DUP1 PUSH1 0x40 MSTORE POP DUP2 ADD SWAP1 PUSH2 0x2E45 SWAP2 SWAP1 PUSH2 0x59B8 JUMP JUMPDEST PUSH1 0x1 PUSH1 0x1 PUSH1 0xA0 SHL SUB AND DUP3 PUSH1 0x40 MLOAD PUSH1 0x0 PUSH1 0x40 MLOAD DUP1 DUP4 SUB DUP2 DUP6 DUP8 GAS CALL SWAP3 POP POP POP RETURNDATASIZE DUP1 PUSH1 0x0 DUP2 EQ PUSH2 0x2E8F JUMPI PUSH1 0x40 MLOAD SWAP2 POP PUSH1 0x1F NOT PUSH1 0x3F RETURNDATASIZE ADD AND DUP3 ADD PUSH1 0x40 MSTORE RETURNDATASIZE DUP3 MSTORE RETURNDATASIZE PUSH1 0x0 PUSH1 0x20 DUP5 ADD RETURNDATACOPY PUSH2 0x2E94 JUMP JUMPDEST PUSH1 0x60 SWAP2 POP JUMPDEST POP POP SWAP1 POP DUP1 PUSH2 0x2EE5 JUMPI PUSH1 0x40 MLOAD PUSH3 0x461BCD PUSH1 0xE5 SHL DUP2 MSTORE PUSH1 0x20 PUSH1 0x4 DUP3 ADD MSTORE PUSH1 0x1E PUSH1 0x24 DUP3 ADD MSTORE PUSH32 0x4661696C656420746F2073656E642065746820746F2074726561737572790000 PUSH1 0x44 DUP3 ADD MSTORE PUSH1 0x64 ADD PUSH2 0x506 JUMP JUMPDEST POP POP JUMPDEST PUSH1 0xE0 DUP9 ADD MLOAD ISZERO PUSH2 0x2F42 JUMPI PUSH2 0x120 DUP9 ADD MLOAD PUSH2 0x2F03 SWAP1 PUSH1 0x2 PUSH2 0x5B87 JUMP JUMPDEST PUSH2 0x2F0E SWAP1 PUSH1 0xA PUSH2 0x5C83 JUMP JUMPDEST PUSH1 0x2 DUP10 PUSH1 0xE0 ADD MLOAD PUSH2 0x2F1F SWAP2 SWAP1 PUSH2 0x5B65 JUMP JUMPDEST PUSH2 0x2F29 SWAP1 DUP13 PUSH2 0x5C8F JUMP JUMPDEST PUSH2 0x2F33 SWAP2 SWAP1 PUSH2 0x5B65 JUMP JUMPDEST SWAP2 POP PUSH2 0x2F3F DUP3 DUP5 PUSH2 0x596C JUMP JUMPDEST SWAP3 POP JUMPDEST PUSH1 0x20 DUP9 ADD MLOAD ISZERO PUSH2 0x3069 JUMPI PUSH1 0x0 DUP9 PUSH2 0x120 ADD MLOAD PUSH1 0x2 PUSH2 0x2F60 SWAP2 SWAP1 PUSH2 0x5B87 JUMP JUMPDEST PUSH2 0x2F6B SWAP1 PUSH1 0xA PUSH2 0x5C83 JUMP JUMPDEST PUSH1 0x20 DUP11 ADD MLOAD PUSH2 0x2F7A SWAP1 DUP14 PUSH2 0x5C8F JUMP JUMPDEST PUSH2 0x2F84 SWAP2 SWAP1 PUSH2 0x5B65 JUMP JUMPDEST SWAP1 POP PUSH2 0x2F90 DUP2 DUP6 PUSH2 0x596C JUMP JUMPDEST SWAP4 POP PUSH1 0x0 DUP9 PUSH1 0x1 PUSH1 0x1 PUSH1 0xA0 SHL SUB AND PUSH4 0xF3B6966B PUSH1 0x40 MLOAD DUP2 PUSH4 0xFFFFFFFF AND PUSH1 0xE0 SHL DUP2 MSTORE PUSH1 0x4 ADD PUSH1 0x20 PUSH1 0x40 MLOAD DUP1 DUP4 SUB DUP2 DUP7 GAS STATICCALL ISZERO DUP1 ISZERO PUSH2 0x2FD2 JUMPI RETURNDATASIZE PUSH1 0x0 DUP1 RETURNDATACOPY RETURNDATASIZE PUSH1 0x0 REVERT JUMPDEST POP POP POP POP PUSH1 0x40 MLOAD RETURNDATASIZE PUSH1 0x1F NOT PUSH1 0x1F DUP3 ADD AND DUP3 ADD DUP1 PUSH1 0x40 MSTORE POP DUP2 ADD SWAP1 PUSH2 0x2FF6 SWAP2 SWAP1 PUSH2 0x59B8 JUMP JUMPDEST PUSH1 0x1 PUSH1 0x1 PUSH1 0xA0 SHL SUB AND DUP3 PUSH1 0x40 MLOAD PUSH1 0x0 PUSH1 0x40 MLOAD DUP1 DUP4 SUB DUP2 DUP6 DUP8 GAS CALL SWAP3 POP POP POP RETURNDATASIZE DUP1 PUSH1 0x0 DUP2 EQ PUSH2 0x3040 JUMPI PUSH1 0x40 MLOAD SWAP2 POP PUSH1 0x1F NOT PUSH1 0x3F RETURNDATASIZE ADD AND DUP3 ADD PUSH1 0x40 MSTORE RETURNDATASIZE DUP3 MSTORE RETURNDATASIZE PUSH1 0x0 PUSH1 0x20 DUP5 ADD RETURNDATACOPY PUSH2 0x3045 JUMP JUMPDEST PUSH1 0x60 SWAP2 POP JUMPDEST POP POP SWAP1 POP DUP1 PUSH2 0x3066 JUMPI PUSH1 0x40 MLOAD PUSH3 0x461BCD PUSH1 0xE5 SHL DUP2 MSTORE PUSH1 0x4 ADD PUSH2 0x506 SWAP1 PUSH2 0x5CAE JUMP JUMPDEST POP POP JUMPDEST PUSH1 0x40 DUP9 ADD MLOAD ISZERO PUSH2 0x3190 JUMPI PUSH1 0x0 DUP9 PUSH2 0x120 ADD MLOAD PUSH1 0x2 PUSH2 0x3087 SWAP2 SWAP1 PUSH2 0x5B87 JUMP JUMPDEST PUSH2 0x3092 SWAP1 PUSH1 0xA PUSH2 0x5C83 JUMP JUMPDEST PUSH1 0x40 DUP11 ADD MLOAD PUSH2 0x30A1 SWAP1 DUP14 PUSH2 0x5C8F JUMP JUMPDEST PUSH2 0x30AB SWAP2 SWAP1 PUSH2 0x5B65 JUMP JUMPDEST SWAP1 POP PUSH2 0x30B7 DUP2 DUP6 PUSH2 0x596C JUMP JUMPDEST SWAP4 POP PUSH1 0x0 DUP9 PUSH1 0x1 PUSH1 0x1 PUSH1 0xA0 SHL SUB AND PUSH4 0xE3255552 PUSH1 0x40 MLOAD DUP2 PUSH4 0xFFFFFFFF AND PUSH1 0xE0 SHL DUP2 MSTORE PUSH1 0x4 ADD PUSH1 0x20 PUSH1 0x40 MLOAD DUP1 DUP4 SUB DUP2 DUP7 GAS STATICCALL ISZERO DUP1 ISZERO PUSH2 0x30F9 JUMPI RETURNDATASIZE PUSH1 0x0 DUP1 RETURNDATACOPY RETURNDATASIZE PUSH1 0x0 REVERT JUMPDEST POP POP POP POP PUSH1 0x40 MLOAD RETURNDATASIZE PUSH1 0x1F NOT PUSH1 0x1F DUP3 ADD AND DUP3 ADD DUP1 PUSH1 0x40 MSTORE POP DUP2 ADD SWAP1 PUSH2 0x311D SWAP2 SWAP1 PUSH2 0x59B8 JUMP JUMPDEST PUSH1 0x1 PUSH1 0x1 PUSH1 0xA0 SHL SUB AND DUP3 PUSH1 0x40 MLOAD PUSH1 0x0 PUSH1 0x40 MLOAD DUP1 DUP4 SUB DUP2 DUP6 DUP8 GAS CALL SWAP3 POP POP POP RETURNDATASIZE DUP1 PUSH1 0x0 DUP2 EQ PUSH2 0x3167 JUMPI PUSH1 0x40 MLOAD SWAP2 POP PUSH1 0x1F NOT PUSH1 0x3F RETURNDATASIZE ADD AND DUP3 ADD PUSH1 0x40 MSTORE RETURNDATASIZE DUP3 MSTORE RETURNDATASIZE PUSH1 0x0 PUSH1 0x20 DUP5 ADD RETURNDATACOPY PUSH2 0x316C JUMP JUMPDEST PUSH1 0x60 SWAP2 POP JUMPDEST POP POP SWAP1 POP DUP1 PUSH2 0x318D JUMPI PUSH1 0x40 MLOAD PUSH3 0x461BCD PUSH1 0xE5 SHL DUP2 MSTORE PUSH1 0x4 ADD PUSH2 0x506 SWAP1 PUSH2 0x5CEF JUMP JUMPDEST POP POP JUMPDEST PUSH1 0x60 DUP9 ADD MLOAD ISZERO PUSH2 0x32B7 JUMPI PUSH1 0x0 DUP9 PUSH2 0x120 ADD MLOAD PUSH1 0x2 PUSH2 0x31AE SWAP2 SWAP1 PUSH2 0x5B87 JUMP JUMPDEST PUSH2 0x31B9 SWAP1 PUSH1 0xA PUSH2 0x5C83 JUMP JUMPDEST PUSH1 0x60 DUP11 ADD MLOAD PUSH2 0x31C8 SWAP1 DUP14 PUSH2 0x5C8F JUMP JUMPDEST PUSH2 0x31D2 SWAP2 SWAP1 PUSH2 0x5B65 JUMP JUMPDEST SWAP1 POP PUSH2 0x31DE DUP2 DUP6 PUSH2 0x596C JUMP JUMPDEST SWAP4 POP PUSH1 0x0 DUP9 PUSH1 0x1 PUSH1 0x1 PUSH1 0xA0 SHL SUB AND PUSH4 0x10B567AD PUSH1 0x40 MLOAD DUP2 PUSH4 0xFFFFFFFF AND PUSH1 0xE0 SHL DUP2 MSTORE PUSH1 0x4 ADD PUSH1 0x20 PUSH1 0x40 MLOAD DUP1 DUP4 SUB DUP2 DUP7 GAS STATICCALL ISZERO DUP1 ISZERO PUSH2 0x3220 JUMPI RETURNDATASIZE PUSH1 0x0 DUP1 RETURNDATACOPY RETURNDATASIZE PUSH1 0x0 REVERT JUMPDEST POP POP POP POP PUSH1 0x40 MLOAD RETURNDATASIZE PUSH1 0x1F NOT PUSH1 0x1F DUP3 ADD AND DUP3 ADD DUP1 PUSH1 0x40 MSTORE POP DUP2 ADD SWAP1 PUSH2 0x3244 SWAP2 SWAP1 PUSH2 0x59B8 JUMP JUMPDEST PUSH1 0x1 PUSH1 0x1 PUSH1 0xA0 SHL SUB AND DUP3 PUSH1 0x40 MLOAD PUSH1 0x0 PUSH1 0x40 MLOAD DUP1 DUP4 SUB DUP2 DUP6 DUP8 GAS CALL SWAP3 POP POP POP RETURNDATASIZE DUP1 PUSH1 0x0 DUP2 EQ PUSH2 0x328E JUMPI PUSH1 0x40 MLOAD SWAP2 POP PUSH1 0x1F NOT PUSH1 0x3F RETURNDATASIZE ADD AND DUP3 ADD PUSH1 0x40 MSTORE RETURNDATASIZE DUP3 MSTORE RETURNDATASIZE PUSH1 0x0 PUSH1 0x20 DUP5 ADD RETURNDATACOPY PUSH2 0x3293 JUMP JUMPDEST PUSH1 0x60 SWAP2 POP JUMPDEST POP POP SWAP1 POP DUP1 PUSH2 0x32B4 JUMPI PUSH1 0x40 MLOAD PUSH3 0x461BCD PUSH1 0xE5 SHL DUP2 MSTORE PUSH1 0x4 ADD PUSH2 0x506 SWAP1 PUSH2 0x5D30 JUMP JUMPDEST POP POP JUMPDEST PUSH1 0x80 DUP9 ADD MLOAD ISZERO PUSH2 0x33DE JUMPI PUSH1 0x0 DUP9 PUSH2 0x120 ADD MLOAD PUSH1 0x2 PUSH2 0x32D5 SWAP2 SWAP1 PUSH2 0x5B87 JUMP JUMPDEST PUSH2 0x32E0 SWAP1 PUSH1 0xA PUSH2 0x5C83 JUMP JUMPDEST PUSH1 0x80 DUP11 ADD MLOAD PUSH2 0x32EF SWAP1 DUP14 PUSH2 0x5C8F JUMP JUMPDEST PUSH2 0x32F9 SWAP2 SWAP1 PUSH2 0x5B65 JUMP JUMPDEST SWAP1 POP PUSH2 0x3305 DUP2 DUP6 PUSH2 0x596C JUMP JUMPDEST SWAP4 POP PUSH1 0x0 DUP9 PUSH1 0x1 PUSH1 0x1 PUSH1 0xA0 SHL SUB AND PUSH4 0x80384D4D PUSH1 0x40 MLOAD DUP2 PUSH4 0xFFFFFFFF AND PUSH1 0xE0 SHL DUP2 MSTORE PUSH1 0x4 ADD PUSH1 0x20 PUSH1 0x40 MLOAD DUP1 DUP4 SUB DUP2 DUP7 GAS STATICCALL ISZERO DUP1 ISZERO PUSH2 0x3347 JUMPI RETURNDATASIZE PUSH1 0x0 DUP1 RETURNDATACOPY RETURNDATASIZE PUSH1 0x0 REVERT JUMPDEST POP POP POP POP PUSH1 0x40 MLOAD RETURNDATASIZE PUSH1 0x1F NOT PUSH1 0x1F DUP3 ADD AND DUP3 ADD DUP1 PUSH1 0x40 MSTORE POP DUP2 ADD SWAP1 PUSH2 0x336B SWAP2 SWAP1 PUSH2 0x59B8 JUMP JUMPDEST PUSH1 0x1 PUSH1 0x1 PUSH1 0xA0 SHL SUB AND DUP3 PUSH1 0x40 MLOAD PUSH1 0x0 PUSH1 0x40 MLOAD DUP1 DUP4 SUB DUP2 DUP6 DUP8 GAS CALL SWAP3 POP POP POP RETURNDATASIZE DUP1 PUSH1 0x0 DUP2 EQ PUSH2 0x33B5 JUMPI PUSH1 0x40 MLOAD SWAP2 POP PUSH1 0x1F NOT PUSH1 0x3F RETURNDATASIZE ADD AND DUP3 ADD PUSH1 0x40 MSTORE RETURNDATASIZE DUP3 MSTORE RETURNDATASIZE PUSH1 0x0 PUSH1 0x20 DUP5 ADD RETURNDATACOPY PUSH2 0x33BA JUMP JUMPDEST PUSH1 0x60 SWAP2 POP JUMPDEST POP POP SWAP1 POP DUP1 PUSH2 0x33DB JUMPI PUSH1 0x40 MLOAD PUSH3 0x461BCD PUSH1 0xE5 SHL DUP2 MSTORE PUSH1 0x4 ADD PUSH2 0x506 SWAP1 PUSH2 0x5D71 JUMP JUMPDEST POP POP JUMPDEST PUSH2 0x100 DUP9 ADD MLOAD ISZERO PUSH2 0x34E2 JUMPI PUSH2 0x120 DUP9 ADD MLOAD PUSH2 0x33FA SWAP1 PUSH1 0x2 PUSH2 0x5B87 JUMP JUMPDEST PUSH2 0x3405 SWAP1 PUSH1 0xA PUSH2 0x5C83 JUMP JUMPDEST PUSH2 0x100 DUP10 ADD MLOAD PUSH2 0x3415 SWAP1 DUP13 PUSH2 0x5C8F JUMP JUMPDEST PUSH2 0x341F SWAP2 SWAP1 PUSH2 0x5B65 JUMP JUMPDEST SWAP1 POP PUSH2 0x342B DUP2 DUP5 PUSH2 0x596C JUMP JUMPDEST SWAP3 POP PUSH1 0x0 DUP10 PUSH1 0x1 PUSH1 0x1 PUSH1 0xA0 SHL SUB AND DUP3 PUSH1 0x40 MLOAD PUSH1 0x0 PUSH1 0x40 MLOAD DUP1 DUP4 SUB DUP2 DUP6 DUP8 GAS CALL SWAP3 POP POP POP RETURNDATASIZE DUP1 PUSH1 0x0 DUP2 EQ PUSH2 0x347A JUMPI PUSH1 0x40 MLOAD SWAP2 POP PUSH1 0x1F NOT PUSH1 0x3F RETURNDATASIZE ADD AND DUP3 ADD PUSH1 0x40 MSTORE RETURNDATASIZE DUP3 MSTORE RETURNDATASIZE PUSH1 0x0 PUSH1 0x20 DUP5 ADD RETURNDATACOPY PUSH2 0x347F JUMP JUMPDEST PUSH1 0x60 SWAP2 POP JUMPDEST POP POP SWAP1 POP DUP1 PUSH2 0x34E0 JUMPI PUSH1 0x40 MLOAD PUSH3 0x461BCD PUSH1 0xE5 SHL DUP2 MSTORE PUSH1 0x20 PUSH1 0x4 DUP3 ADD MSTORE PUSH1 0x27 PUSH1 0x24 DUP3 ADD MSTORE PUSH32 0x4661696C656420746F2073656E642065746820746F20637573746F6D20746178 PUSH1 0x44 DUP3 ADD MSTORE PUSH7 0x81DD85B1B195D PUSH1 0xCA SHL PUSH1 0x64 DUP3 ADD MSTORE PUSH1 0x84 ADD PUSH2 0x506 JUMP JUMPDEST POP JUMPDEST SWAP2 SWAP10 SWAP1 SWAP9 POP SWAP1 SWAP7 POP SWAP5 POP POP POP POP POP JUMP JUMPDEST PUSH2 0x140 DUP3 ADD MLOAD PUSH1 0x40 DUP1 MLOAD PUSH1 0x2 DUP1 DUP3 MSTORE PUSH1 0x60 DUP3 ADD DUP4 MSTORE PUSH1 0x0 SWAP4 DUP5 SWAP4 SWAP1 SWAP3 DUP5 SWAP3 SWAP1 SWAP2 PUSH1 0x20 DUP4 ADD SWAP1 DUP1 CALLDATASIZE DUP4 CALLDATACOPY ADD SWAP1 POP POP SWAP1 POP DUP2 PUSH1 0x1 PUSH1 0x1 PUSH1 0xA0 SHL SUB AND PUSH4 0xAD5C4648 PUSH1 0x40 MLOAD DUP2 PUSH4 0xFFFFFFFF AND PUSH1 0xE0 SHL DUP2 MSTORE PUSH1 0x4 ADD PUSH1 0x20 PUSH1 0x40 MLOAD DUP1 DUP4 SUB DUP2 DUP7 GAS STATICCALL ISZERO DUP1 ISZERO PUSH2 0x355F JUMPI RETURNDATASIZE PUSH1 0x0 DUP1 RETURNDATACOPY RETURNDATASIZE PUSH1 0x0 REVERT JUMPDEST POP POP POP POP PUSH1 0x40 MLOAD RETURNDATASIZE PUSH1 0x1F NOT PUSH1 0x1F DUP3 ADD AND DUP3 ADD DUP1 PUSH1 0x40 MSTORE POP DUP2 ADD SWAP1 PUSH2 0x3583 SWAP2 SWAP1 PUSH2 0x59B8 JUMP JUMPDEST DUP2 PUSH1 0x0 DUP2 MLOAD DUP2 LT PUSH2 0x3596 JUMPI PUSH2 0x3596 PUSH2 0x59EB JUMP JUMPDEST PUSH1 0x20 MUL PUSH1 0x20 ADD ADD SWAP1 PUSH1 0x1 PUSH1 0x1 PUSH1 0xA0 SHL SUB AND SWAP1 DUP2 PUSH1 0x1 PUSH1 0x1 PUSH1 0xA0 SHL SUB AND DUP2 MSTORE POP POP DUP6 PUSH1 0x0 ADD MLOAD DUP2 PUSH1 0x1 DUP2 MLOAD DUP2 LT PUSH2 0x35CE JUMPI PUSH2 0x35CE PUSH2 0x59EB JUMP JUMPDEST PUSH1 0x1 PUSH1 0x1 PUSH1 0xA0 SHL SUB SWAP3 DUP4 AND PUSH1 0x20 SWAP2 DUP3 MUL SWAP3 SWAP1 SWAP3 ADD ADD MSTORE DUP7 MLOAD PUSH1 0x40 MLOAD PUSH4 0x70A08231 PUSH1 0xE0 SHL DUP2 MSTORE ADDRESS PUSH1 0x4 DUP3 ADD MSTORE PUSH1 0x0 SWAP3 SWAP2 SWAP1 SWAP2 AND SWAP1 PUSH4 0x70A08231 SWAP1 PUSH1 0x24 ADD PUSH1 0x20 PUSH1 0x40 MLOAD DUP1 DUP4 SUB DUP2 DUP7 GAS STATICCALL ISZERO DUP1 ISZERO PUSH2 0x3627 JUMPI RETURNDATASIZE PUSH1 0x0 DUP1 RETURNDATACOPY RETURNDATASIZE PUSH1 0x0 REVERT JUMPDEST POP POP POP POP PUSH1 0x40 MLOAD RETURNDATASIZE PUSH1 0x1F NOT PUSH1 0x1F DUP3 ADD AND DUP3 ADD DUP1 PUSH1 0x40 MSTORE POP DUP2 ADD SWAP1 PUSH2 0x364B SWAP2 SWAP1 PUSH2 0x5B16 JUMP JUMPDEST SWAP1 POP PUSH1 0x0 DUP7 ISZERO PUSH2 0x3667 JUMPI PUSH2 0x3662 DUP11 PUSH1 0x0 DUP6 DUP8 PUSH2 0x45D1 JUMP JUMPDEST PUSH2 0x3677 JUMP JUMPDEST PUSH2 0x3673 DUP11 DUP11 DUP6 DUP8 PUSH2 0x49BC JUMP JUMPDEST SWAP2 POP POP JUMPDEST DUP8 MLOAD PUSH1 0x40 MLOAD PUSH4 0x70A08231 PUSH1 0xE0 SHL DUP2 MSTORE ADDRESS PUSH1 0x4 DUP3 ADD MSTORE DUP4 SWAP2 PUSH1 0x1 PUSH1 0x1 PUSH1 0xA0 SHL SUB AND SWAP1 PUSH4 0x70A08231 SWAP1 PUSH1 0x24 ADD PUSH1 0x20 PUSH1 0x40 MLOAD DUP1 DUP4 SUB DUP2 DUP7 GAS STATICCALL ISZERO DUP1 ISZERO PUSH2 0x36BE JUMPI RETURNDATASIZE PUSH1 0x0 DUP1 RETURNDATACOPY RETURNDATASIZE PUSH1 0x0 REVERT JUMPDEST POP POP POP POP PUSH1 0x40 MLOAD RETURNDATASIZE PUSH1 0x1F NOT PUSH1 0x1F DUP3 ADD AND DUP3 ADD DUP1 PUSH1 0x40 MSTORE POP DUP2 ADD SWAP1 PUSH2 0x36E2 SWAP2 SWAP1 PUSH2 0x5B16 JUMP JUMPDEST PUSH2 0x36EC SWAP2 SWAP1 PUSH2 0x596C JUMP JUMPDEST SWAP11 SWAP1 SWAP10 POP SWAP8 POP POP POP POP POP POP POP POP JUMP JUMPDEST PUSH2 0x120 DUP3 ADD MLOAD PUSH1 0x0 SWAP1 DUP6 SWAP1 DUP3 SWAP1 PUSH2 0x3713 SWAP1 PUSH1 0x2 PUSH2 0x5B87 JUMP JUMPDEST PUSH2 0x371E SWAP1 PUSH1 0xA PUSH2 0x5C83 JUMP JUMPDEST PUSH2 0x3729 SWAP1 PUSH1 0x1 PUSH2 0x5B87 JUMP JUMPDEST SWAP1 POP DUP5 PUSH1 0xE0 ADD MLOAD PUSH1 0x0 EQ PUSH2 0x3786 JUMPI PUSH1 0x0 DUP2 PUSH1 0x2 DUP8 PUSH1 0xE0 ADD MLOAD PUSH2 0x374B SWAP2 SWAP1 PUSH2 0x5B65 JUMP JUMPDEST PUSH2 0x3755 SWAP1 DUP11 PUSH2 0x5C8F JUMP JUMPDEST PUSH2 0x375F SWAP2 SWAP1 PUSH2 0x5B65 JUMP JUMPDEST SWAP1 POP PUSH2 0x376B DUP2 DUP5 PUSH2 0x596C JUMP JUMPDEST SWAP3 POP PUSH2 0x3784 DUP2 DUP9 DUP9 PUSH2 0x160 ADD MLOAD DUP13 DUP11 PUSH2 0x140 ADD MLOAD PUSH2 0x4174 JUMP JUMPDEST POP JUMPDEST PUSH1 0xC0 DUP6 ADD MLOAD ISZERO PUSH2 0x3890 JUMPI PUSH1 0x0 DUP2 DUP7 PUSH1 0xC0 ADD MLOAD DUP10 PUSH2 0x37A3 SWAP2 SWAP1 PUSH2 0x5C8F JUMP JUMPDEST PUSH2 0x37AD SWAP2 SWAP1 PUSH2 0x5B65 JUMP JUMPDEST SWAP1 POP PUSH2 0x37B9 DUP2 DUP5 PUSH2 0x596C JUMP JUMPDEST SWAP3 POP DUP9 PUSH1 0x1 PUSH1 0x1 PUSH1 0xA0 SHL SUB AND PUSH4 0xA9059CBB DUP7 PUSH1 0x1 PUSH1 0x1 PUSH1 0xA0 SHL SUB AND PUSH4 0x70D5AE05 PUSH1 0x40 MLOAD DUP2 PUSH4 0xFFFFFFFF AND PUSH1 0xE0 SHL DUP2 MSTORE PUSH1 0x4 ADD PUSH1 0x20 PUSH1 0x40 MLOAD DUP1 DUP4 SUB DUP2 DUP7 GAS STATICCALL ISZERO DUP1 ISZERO PUSH2 0x3808 JUMPI RETURNDATASIZE PUSH1 0x0 DUP1 RETURNDATACOPY RETURNDATASIZE PUSH1 0x0 REVERT JUMPDEST POP POP POP POP PUSH1 0x40 MLOAD RETURNDATASIZE PUSH1 0x1F NOT PUSH1 0x1F DUP3 ADD AND DUP3 ADD DUP1 PUSH1 0x40 MSTORE POP DUP2 ADD SWAP1 PUSH2 0x382C SWAP2 SWAP1 PUSH2 0x59B8 JUMP JUMPDEST DUP4 PUSH1 0x40 MLOAD DUP4 PUSH4 0xFFFFFFFF AND PUSH1 0xE0 SHL DUP2 MSTORE PUSH1 0x4 ADD PUSH2 0x384A SWAP3 SWAP2 SWAP1 PUSH2 0x5B2F JUMP JUMPDEST PUSH1 0x20 PUSH1 0x40 MLOAD DUP1 DUP4 SUB DUP2 PUSH1 0x0 DUP8 GAS CALL ISZERO DUP1 ISZERO PUSH2 0x3869 JUMPI RETURNDATASIZE PUSH1 0x0 DUP1 RETURNDATACOPY RETURNDATASIZE PUSH1 0x0 REVERT JUMPDEST POP POP POP POP PUSH1 0x40 MLOAD RETURNDATASIZE PUSH1 0x1F NOT PUSH1 0x1F DUP3 ADD AND DUP3 ADD DUP1 PUSH1 0x40 MSTORE POP DUP2 ADD SWAP1 PUSH2 0x388D SWAP2 SWAP1 PUSH2 0x5B48 JUMP JUMPDEST POP POP JUMPDEST PUSH1 0xA0 DUP6 ADD MLOAD ISZERO PUSH2 0x399A JUMPI PUSH1 0x0 DUP2 DUP7 PUSH1 0xA0 ADD MLOAD DUP10 PUSH2 0x38AD SWAP2 SWAP1 PUSH2 0x5C8F JUMP JUMPDEST PUSH2 0x38B7 SWAP2 SWAP1 PUSH2 0x5B65 JUMP JUMPDEST SWAP1 POP PUSH2 0x38C3 DUP2 DUP5 PUSH2 0x596C JUMP JUMPDEST SWAP3 POP DUP9 PUSH1 0x1 PUSH1 0x1 PUSH1 0xA0 SHL SUB AND PUSH4 0xA9059CBB DUP7 PUSH1 0x1 PUSH1 0x1 PUSH1 0xA0 SHL SUB AND PUSH4 0x2CBFC5A5 PUSH1 0x40 MLOAD DUP2 PUSH4 0xFFFFFFFF AND PUSH1 0xE0 SHL DUP2 MSTORE PUSH1 0x4 ADD PUSH1 0x20 PUSH1 0x40 MLOAD DUP1 DUP4 SUB DUP2 DUP7 GAS STATICCALL ISZERO DUP1 ISZERO PUSH2 0x3912 JUMPI RETURNDATASIZE PUSH1 0x0 DUP1 RETURNDATACOPY RETURNDATASIZE PUSH1 0x0 REVERT JUMPDEST POP POP POP POP PUSH1 0x40 MLOAD RETURNDATASIZE PUSH1 0x1F NOT PUSH1 0x1F DUP3 ADD AND DUP3 ADD DUP1 PUSH1 0x40 MSTORE POP DUP2 ADD SWAP1 PUSH2 0x3936 SWAP2 SWAP1 PUSH2 0x59B8 JUMP JUMPDEST DUP4 PUSH1 0x40 MLOAD DUP4 PUSH4 0xFFFFFFFF AND PUSH1 0xE0 SHL DUP2 MSTORE PUSH1 0x4 ADD PUSH2 0x3954 SWAP3 SWAP2 SWAP1 PUSH2 0x5B2F JUMP JUMPDEST PUSH1 0x20 PUSH1 0x40 MLOAD DUP1 DUP4 SUB DUP2 PUSH1 0x0 DUP8 GAS CALL ISZERO DUP1 ISZERO PUSH2 0x3973 JUMPI RETURNDATASIZE PUSH1 0x0 DUP1 RETURNDATACOPY RETURNDATASIZE PUSH1 0x0 REVERT JUMPDEST POP POP POP POP PUSH1 0x40 MLOAD RETURNDATASIZE PUSH1 0x1F NOT PUSH1 0x1F DUP3 ADD AND DUP3 ADD DUP1 PUSH1 0x40 MSTORE POP DUP2 ADD SWAP1 PUSH2 0x3997 SWAP2 SWAP1 PUSH2 0x5B48 JUMP JUMPDEST POP POP JUMPDEST POP SWAP7 SWAP6 POP POP POP POP POP POP JUMP JUMPDEST PUSH32 0x0 PUSH1 0x1 PUSH1 0x1 PUSH1 0xA0 SHL SUB AND DUP3 PUSH1 0x1 DUP5 MLOAD PUSH2 0x39DE SWAP2 SWAP1 PUSH2 0x596C JUMP JUMPDEST DUP2 MLOAD DUP2 LT PUSH2 0x39EE JUMPI PUSH2 0x39EE PUSH2 0x59EB JUMP JUMPDEST PUSH1 0x20 MUL PUSH1 0x20 ADD ADD MLOAD PUSH1 0x1 PUSH1 0x1 PUSH1 0xA0 SHL SUB AND EQ PUSH2 0x3A1C JUMPI PUSH1 0x40 MLOAD PUSH3 0x461BCD PUSH1 0xE5 SHL DUP2 MSTORE PUSH1 0x4 ADD PUSH2 0x506 SWAP1 PUSH2 0x5DB2 JUMP JUMPDEST PUSH1 0x0 DUP2 PUSH1 0x1 PUSH1 0x1 PUSH1 0xA0 SHL SUB AND PUSH4 0xC45A0155 PUSH1 0x40 MLOAD DUP2 PUSH4 0xFFFFFFFF AND PUSH1 0xE0 SHL DUP2 MSTORE PUSH1 0x4 ADD PUSH1 0x20 PUSH1 0x40 MLOAD DUP1 DUP4 SUB DUP2 DUP7 GAS STATICCALL ISZERO DUP1 ISZERO PUSH2 0x3A5C JUMPI RETURNDATASIZE PUSH1 0x0 DUP1 RETURNDATACOPY RETURNDATASIZE PUSH1 0x0 REVERT JUMPDEST POP POP POP POP PUSH1 0x40 MLOAD RETURNDATASIZE PUSH1 0x1F NOT PUSH1 0x1F DUP3 ADD AND DUP3 ADD DUP1 PUSH1 0x40 MSTORE POP DUP2 ADD SWAP1 PUSH2 0x3A80 SWAP2 SWAP1 PUSH2 0x59B8 JUMP JUMPDEST PUSH1 0x1 PUSH1 0x1 PUSH1 0xA0 SHL SUB AND PUSH4 0xE6A43905 DUP5 PUSH1 0x0 DUP2 MLOAD DUP2 LT PUSH2 0x3AA1 JUMPI PUSH2 0x3AA1 PUSH2 0x59EB JUMP JUMPDEST PUSH1 0x20 MUL PUSH1 0x20 ADD ADD MLOAD DUP6 PUSH1 0x1 DUP2 MLOAD DUP2 LT PUSH2 0x3ABC JUMPI PUSH2 0x3ABC PUSH2 0x59EB JUMP JUMPDEST PUSH1 0x20 MUL PUSH1 0x20 ADD ADD MLOAD PUSH1 0x40 MLOAD DUP4 PUSH4 0xFFFFFFFF AND PUSH1 0xE0 SHL DUP2 MSTORE PUSH1 0x4 ADD PUSH2 0x3AE1 SWAP3 SWAP2 SWAP1 PUSH2 0x5DE1 JUMP JUMPDEST PUSH1 0x20 PUSH1 0x40 MLOAD DUP1 DUP4 SUB DUP2 DUP7 GAS STATICCALL ISZERO DUP1 ISZERO PUSH2 0x3AFE JUMPI RETURNDATASIZE PUSH1 0x0 DUP1 RETURNDATACOPY RETURNDATASIZE PUSH1 0x0 REVERT JUMPDEST POP POP POP POP PUSH1 0x40 MLOAD RETURNDATASIZE PUSH1 0x1F NOT PUSH1 0x1F DUP3 ADD AND DUP3 ADD DUP1 PUSH1 0x40 MSTORE POP DUP2 ADD SWAP1 PUSH2 0x3B22 SWAP2 SWAP1 PUSH2 0x59B8 JUMP JUMPDEST SWAP1 POP DUP3 PUSH1 0x0 DUP2 MLOAD DUP2 LT PUSH2 0x3B37 JUMPI PUSH2 0x3B37 PUSH2 0x59EB JUMP JUMPDEST PUSH1 0x20 MUL PUSH1 0x20 ADD ADD MLOAD PUSH1 0x1 PUSH1 0x1 PUSH1 0xA0 SHL SUB AND PUSH4 0xA9059CBB DUP3 DUP8 PUSH1 0x40 MLOAD DUP4 PUSH4 0xFFFFFFFF AND PUSH1 0xE0 SHL DUP2 MSTORE PUSH1 0x4 ADD PUSH2 0x3B6C SWAP3 SWAP2 SWAP1 PUSH2 0x5B2F JUMP JUMPDEST PUSH1 0x20 PUSH1 0x40 MLOAD DUP1 DUP4 SUB DUP2 PUSH1 0x0 DUP8 GAS CALL ISZERO DUP1 ISZERO PUSH2 0x3B8B JUMPI RETURNDATASIZE PUSH1 0x0 DUP1 RETURNDATACOPY RETURNDATASIZE PUSH1 0x0 REVERT JUMPDEST POP POP POP POP PUSH1 0x40 MLOAD RETURNDATASIZE PUSH1 0x1F NOT PUSH1 0x1F DUP3 ADD AND DUP3 ADD DUP1 PUSH1 0x40 MSTORE POP DUP2 ADD SWAP1 PUSH2 0x3BAF SWAP2 SWAP1 PUSH2 0x5B48 JUMP JUMPDEST POP PUSH2 0x3BBA DUP4 DUP4 PUSH2 0x4E51 JUMP JUMPDEST PUSH1 0x40 MLOAD PUSH4 0x70A08231 PUSH1 0xE0 SHL DUP2 MSTORE ADDRESS PUSH1 0x4 DUP3 ADD MSTORE PUSH1 0x0 SWAP1 PUSH32 0x0 PUSH1 0x1 PUSH1 0x1 PUSH1 0xA0 SHL SUB AND SWAP1 PUSH4 0x70A08231 SWAP1 PUSH1 0x24 ADD PUSH1 0x20 PUSH1 0x40 MLOAD DUP1 DUP4 SUB DUP2 DUP7 GAS STATICCALL ISZERO DUP1 ISZERO PUSH2 0x3C21 JUMPI RETURNDATASIZE PUSH1 0x0 DUP1 RETURNDATACOPY RETURNDATASIZE PUSH1 0x0 REVERT JUMPDEST POP POP POP POP PUSH1 0x40 MLOAD RETURNDATASIZE PUSH1 0x1F NOT PUSH1 0x1F DUP3 ADD AND DUP3 ADD DUP1 PUSH1 0x40 MSTORE POP DUP2 ADD SWAP1 PUSH2 0x3C45 SWAP2 SWAP1 PUSH2 0x5B16 JUMP JUMPDEST SWAP1 POP DUP5 DUP2 LT ISZERO PUSH2 0x3C67 JUMPI PUSH1 0x40 MLOAD PUSH3 0x461BCD PUSH1 0xE5 SHL DUP2 MSTORE PUSH1 0x4 ADD PUSH2 0x506 SWAP1 PUSH2 0x5DFB JUMP JUMPDEST PUSH1 0x40 MLOAD PUSH4 0x2E1A7D4D PUSH1 0xE0 SHL DUP2 MSTORE PUSH1 0x4 DUP2 ADD DUP3 SWAP1 MSTORE PUSH32 0x0 PUSH1 0x1 PUSH1 0x1 PUSH1 0xA0 SHL SUB AND SWAP1 PUSH4 0x2E1A7D4D SWAP1 PUSH1 0x24 ADD PUSH1 0x0 PUSH1 0x40 MLOAD DUP1 DUP4 SUB DUP2 PUSH1 0x0 DUP8 DUP1 EXTCODESIZE ISZERO DUP1 ISZERO PUSH2 0x3CC9 JUMPI PUSH1 0x0 DUP1 REVERT JUMPDEST POP GAS CALL ISZERO DUP1 ISZERO PUSH2 0x3CDD JUMPI RETURNDATASIZE PUSH1 0x0 DUP1 RETURNDATACOPY RETURNDATASIZE PUSH1 0x0 REVERT JUMPDEST POP POP POP POP POP POP POP POP POP POP JUMP JUMPDEST PUSH1 0x60 PUSH32 0x0 PUSH1 0x1 PUSH1 0x1 PUSH1 0xA0 SHL SUB AND DUP5 PUSH1 0x1 DUP7 MLOAD PUSH2 0x3D24 SWAP2 SWAP1 PUSH2 0x596C JUMP JUMPDEST DUP2 MLOAD DUP2 LT PUSH2 0x3D34 JUMPI PUSH2 0x3D34 PUSH2 0x59EB JUMP JUMPDEST PUSH1 0x20 MUL PUSH1 0x20 ADD ADD MLOAD PUSH1 0x1 PUSH1 0x1 PUSH1 0xA0 SHL SUB AND EQ PUSH2 0x3D62 JUMPI PUSH1 0x40 MLOAD PUSH3 0x461BCD PUSH1 0xE5 SHL DUP2 MSTORE PUSH1 0x4 ADD PUSH2 0x506 SWAP1 PUSH2 0x5DB2 JUMP JUMPDEST PUSH1 0x40 MLOAD PUSH4 0x7C0329D PUSH1 0xE2 SHL DUP2 MSTORE PUSH1 0x1 PUSH1 0x1 PUSH1 0xA0 SHL SUB DUP4 AND SWAP1 PUSH4 0x1F00CA74 SWAP1 PUSH2 0x3D90 SWAP1 DUP10 SWAP1 DUP9 SWAP1 PUSH1 0x4 ADD PUSH2 0x5A01 JUMP JUMPDEST PUSH1 0x0 PUSH1 0x40 MLOAD DUP1 DUP4 SUB DUP2 DUP7 GAS STATICCALL ISZERO DUP1 ISZERO PUSH2 0x3DAD JUMPI RETURNDATASIZE PUSH1 0x0 DUP1 RETURNDATACOPY RETURNDATASIZE PUSH1 0x0 REVERT JUMPDEST POP POP POP POP PUSH1 0x40 MLOAD RETURNDATASIZE PUSH1 0x0 DUP3 RETURNDATACOPY PUSH1 0x1F RETURNDATASIZE SWAP1 DUP2 ADD PUSH1 0x1F NOT AND DUP3 ADD PUSH1 0x40 MSTORE PUSH2 0x3DD5 SWAP2 SWAP1 DUP2 ADD SWAP1 PUSH2 0x5A58 JUMP JUMPDEST SWAP1 POP DUP5 DUP2 PUSH1 0x0 DUP2 MLOAD DUP2 LT PUSH2 0x3DEB JUMPI PUSH2 0x3DEB PUSH2 0x59EB JUMP JUMPDEST PUSH1 0x20 MUL PUSH1 0x20 ADD ADD MLOAD GT ISZERO PUSH2 0x3E41 JUMPI PUSH1 0x40 MLOAD PUSH3 0x461BCD PUSH1 0xE5 SHL DUP2 MSTORE PUSH1 0x20 PUSH1 0x4 DUP3 ADD MSTORE PUSH1 0x1F PUSH1 0x24 DUP3 ADD MSTORE PUSH32 0x506177737761703A204558434553534956455F494E5055545F414D4F554E5400 PUSH1 0x44 DUP3 ADD MSTORE PUSH1 0x64 ADD PUSH2 0x506 JUMP JUMPDEST PUSH1 0x0 DUP3 PUSH1 0x1 PUSH1 0x1 PUSH1 0xA0 SHL SUB AND PUSH4 0xC45A0155 PUSH1 0x40 MLOAD DUP2 PUSH4 0xFFFFFFFF AND PUSH1 0xE0 SHL DUP2 MSTORE PUSH1 0x4 ADD PUSH1 0x20 PUSH1 0x40 MLOAD DUP1 DUP4 SUB DUP2 DUP7 GAS STATICCALL ISZERO DUP1 ISZERO PUSH2 0x3E81 JUMPI RETURNDATASIZE PUSH1 0x0 DUP1 RETURNDATACOPY RETURNDATASIZE PUSH1 0x0 REVERT JUMPDEST POP POP POP POP PUSH1 0x40 MLOAD RETURNDATASIZE PUSH1 0x1F NOT PUSH1 0x1F DUP3 ADD AND DUP3 ADD DUP1 PUSH1 0x40 MSTORE POP DUP2 ADD SWAP1 PUSH2 0x3EA5 SWAP2 SWAP1 PUSH2 0x59B8 JUMP JUMPDEST PUSH1 0x1 PUSH1 0x1 PUSH1 0xA0 SHL SUB AND PUSH4 0xE6A43905 DUP7 PUSH1 0x0 DUP2 MLOAD DUP2 LT PUSH2 0x3EC6 JUMPI PUSH2 0x3EC6 PUSH2 0x59EB JUMP JUMPDEST PUSH1 0x20 MUL PUSH1 0x20 ADD ADD MLOAD DUP8 PUSH1 0x1 DUP2 MLOAD DUP2 LT PUSH2 0x3EE1 JUMPI PUSH2 0x3EE1 PUSH2 0x59EB JUMP JUMPDEST PUSH1 0x20 MUL PUSH1 0x20 ADD ADD MLOAD PUSH1 0x40 MLOAD DUP4 PUSH4 0xFFFFFFFF AND PUSH1 0xE0 SHL DUP2 MSTORE PUSH1 0x4 ADD PUSH2 0x3F06 SWAP3 SWAP2 SWAP1 PUSH2 0x5DE1 JUMP JUMPDEST PUSH1 0x20 PUSH1 0x40 MLOAD DUP1 DUP4 SUB DUP2 DUP7 GAS STATICCALL ISZERO DUP1 ISZERO PUSH2 0x3F23 JUMPI RETURNDATASIZE PUSH1 0x0 DUP1 RETURNDATACOPY RETURNDATASIZE PUSH1 0x0 REVERT JUMPDEST POP POP POP POP PUSH1 0x40 MLOAD RETURNDATASIZE PUSH1 0x1F NOT PUSH1 0x1F DUP3 ADD AND DUP3 ADD DUP1 PUSH1 0x40 MSTORE POP DUP2 ADD SWAP1 PUSH2 0x3F47 SWAP2 SWAP1 PUSH2 0x59B8 JUMP JUMPDEST SWAP1 POP DUP5 PUSH1 0x0 DUP2 MLOAD DUP2 LT PUSH2 0x3F5C JUMPI PUSH2 0x3F5C PUSH2 0x59EB JUMP JUMPDEST PUSH1 0x20 MUL PUSH1 0x20 ADD ADD MLOAD PUSH1 0x1 PUSH1 0x1 PUSH1 0xA0 SHL SUB AND PUSH4 0xA9059CBB DUP3 DUP5 PUSH1 0x0 DUP2 MLOAD DUP2 LT PUSH2 0x3F86 JUMPI PUSH2 0x3F86 PUSH2 0x59EB JUMP JUMPDEST PUSH1 0x20 MUL PUSH1 0x20 ADD ADD MLOAD PUSH1 0x40 MLOAD DUP4 PUSH4 0xFFFFFFFF AND PUSH1 0xE0 SHL DUP2 MSTORE PUSH1 0x4 ADD PUSH2 0x3FAB SWAP3 SWAP2 SWAP1 PUSH2 0x5B2F JUMP JUMPDEST PUSH1 0x20 PUSH1 0x40 MLOAD DUP1 DUP4 SUB DUP2 PUSH1 0x0 DUP8 GAS CALL ISZERO DUP1 ISZERO PUSH2 0x3FCA JUMPI RETURNDATASIZE PUSH1 0x0 DUP1 RETURNDATACOPY RETURNDATASIZE PUSH1 0x0 REVERT JUMPDEST POP POP POP POP PUSH1 0x40 MLOAD RETURNDATASIZE PUSH1 0x1F NOT PUSH1 0x1F DUP3 ADD AND DUP3 ADD DUP1 PUSH1 0x40 MSTORE POP DUP2 ADD SWAP1 PUSH2 0x3FEE SWAP2 SWAP1 PUSH2 0x5B48 JUMP JUMPDEST POP PUSH2 0x3FFA DUP3 DUP7 DUP4 PUSH2 0x51BC JUMP JUMPDEST PUSH32 0x0 PUSH1 0x1 PUSH1 0x1 PUSH1 0xA0 SHL SUB AND PUSH4 0x2E1A7D4D DUP4 PUSH1 0x1 DUP6 MLOAD PUSH2 0x4038 SWAP2 SWAP1 PUSH2 0x596C JUMP JUMPDEST DUP2 MLOAD DUP2 LT PUSH2 0x4048 JUMPI PUSH2 0x4048 PUSH2 0x59EB JUMP JUMPDEST PUSH1 0x20 MUL PUSH1 0x20 ADD ADD MLOAD PUSH1 0x40 MLOAD DUP3 PUSH4 0xFFFFFFFF AND PUSH1 0xE0 SHL DUP2 MSTORE PUSH1 0x4 ADD PUSH2 0x406E SWAP2 DUP2 MSTORE PUSH1 0x20 ADD SWAP1 JUMP JUMPDEST PUSH1 0x0 PUSH1 0x40 MLOAD DUP1 DUP4 SUB DUP2 PUSH1 0x0 DUP8 DUP1 EXTCODESIZE ISZERO DUP1 ISZERO PUSH2 0x4088 JUMPI PUSH1 0x0 DUP1 REVERT JUMPDEST POP GAS CALL ISZERO DUP1 ISZERO PUSH2 0x409C JUMPI RETURNDATASIZE PUSH1 0x0 DUP1 RETURNDATACOPY RETURNDATASIZE PUSH1 0x0 REVERT JUMPDEST POP POP POP POP PUSH1 0x0 DUP5 PUSH1 0x1 PUSH1 0x1 PUSH1 0xA0 SHL SUB AND DUP4 PUSH1 0x1 DUP6 MLOAD PUSH2 0x40BB SWAP2 SWAP1 PUSH2 0x596C JUMP JUMPDEST DUP2 MLOAD DUP2 LT PUSH2 0x40CB JUMPI PUSH2 0x40CB PUSH2 0x59EB JUMP JUMPDEST PUSH1 0x20 MUL PUSH1 0x20 ADD ADD MLOAD PUSH1 0x40 MLOAD PUSH1 0x0 PUSH1 0x40 MLOAD DUP1 DUP4 SUB DUP2 DUP6 DUP8 GAS CALL SWAP3 POP POP POP RETURNDATASIZE DUP1 PUSH1 0x0 DUP2 EQ PUSH2 0x4113 JUMPI PUSH1 0x40 MLOAD SWAP2 POP PUSH1 0x1F NOT PUSH1 0x3F RETURNDATASIZE ADD AND DUP3 ADD PUSH1 0x40 MSTORE RETURNDATASIZE DUP3 MSTORE RETURNDATASIZE PUSH1 0x0 PUSH1 0x20 DUP5 ADD RETURNDATACOPY PUSH2 0x4118 JUMP JUMPDEST PUSH1 0x60 SWAP2 POP JUMPDEST POP POP SWAP1 POP DUP1 PUSH2 0x4169 JUMPI PUSH1 0x40 MLOAD PUSH3 0x461BCD PUSH1 0xE5 SHL DUP2 MSTORE PUSH1 0x20 PUSH1 0x4 DUP3 ADD MSTORE PUSH1 0x1C PUSH1 0x24 DUP3 ADD MSTORE PUSH32 0x4661696C656420746F2073656E642065746820746F2073656C6C657200000000 PUSH1 0x44 DUP3 ADD MSTORE PUSH1 0x64 ADD PUSH2 0x506 JUMP JUMPDEST POP POP SWAP6 SWAP5 POP POP POP POP POP JUMP JUMPDEST PUSH1 0x40 MLOAD PUSH4 0x95EA7B3 PUSH1 0xE0 SHL DUP2 MSTORE DUP2 SWAP1 PUSH1 0x1 PUSH1 0x1 PUSH1 0xA0 SHL SUB DUP5 AND SWAP1 PUSH4 0x95EA7B3 SWAP1 PUSH2 0x41A4 SWAP1 DUP5 SWAP1 DUP11 SWAP1 PUSH1 0x4 ADD PUSH2 0x5B2F JUMP JUMPDEST PUSH1 0x20 PUSH1 0x40 MLOAD DUP1 DUP4 SUB DUP2 PUSH1 0x0 DUP8 GAS CALL ISZERO DUP1 ISZERO PUSH2 0x41C3 JUMPI RETURNDATASIZE PUSH1 0x0 DUP1 RETURNDATACOPY RETURNDATASIZE PUSH1 0x0 REVERT JUMPDEST POP POP POP POP PUSH1 0x40 MLOAD RETURNDATASIZE PUSH1 0x1F NOT PUSH1 0x1F DUP3 ADD AND DUP3 ADD DUP1 PUSH1 0x40 MSTORE POP DUP2 ADD SWAP1 PUSH2 0x41E7 SWAP2 SWAP1 PUSH2 0x5B48 JUMP JUMPDEST POP PUSH1 0x0 DUP1 PUSH2 0x4218 DUP6 PUSH32 0x0 DUP11 DUP11 DUP8 PUSH2 0x52D0 JUMP JUMPDEST SWAP2 POP SWAP2 POP PUSH1 0x0 DUP4 PUSH1 0x1 PUSH1 0x1 PUSH1 0xA0 SHL SUB AND PUSH4 0xC45A0155 PUSH1 0x40 MLOAD DUP2 PUSH4 0xFFFFFFFF AND PUSH1 0xE0 SHL DUP2 MSTORE PUSH1 0x4 ADD PUSH1 0x20 PUSH1 0x40 MLOAD DUP1 DUP4 SUB DUP2 DUP7 GAS STATICCALL ISZERO DUP1 ISZERO PUSH2 0x425C JUMPI RETURNDATASIZE PUSH1 0x0 DUP1 RETURNDATACOPY RETURNDATASIZE PUSH1 0x0 REVERT JUMPDEST POP POP POP POP PUSH1 0x40 MLOAD RETURNDATASIZE PUSH1 0x1F NOT PUSH1 0x1F DUP3 ADD AND DUP3 ADD DUP1 PUSH1 0x40 MSTORE POP DUP2 ADD SWAP1 PUSH2 0x4280 SWAP2 SWAP1 PUSH2 0x59B8 JUMP JUMPDEST PUSH1 0x1 PUSH1 0x1 PUSH1 0xA0 SHL SUB AND PUSH4 0xE6A43905 DUP8 PUSH32 0x0 PUSH1 0x40 MLOAD DUP4 PUSH4 0xFFFFFFFF AND PUSH1 0xE0 SHL DUP2 MSTORE PUSH1 0x4 ADD PUSH2 0x42CD SWAP3 SWAP2 SWAP1 PUSH2 0x5DE1 JUMP JUMPDEST PUSH1 0x20 PUSH1 0x40 MLOAD DUP1 DUP4 SUB DUP2 DUP7 GAS STATICCALL ISZERO DUP1 ISZERO PUSH2 0x42EA JUMPI RETURNDATASIZE PUSH1 0x0 DUP1 RETURNDATACOPY RETURNDATASIZE PUSH1 0x0 REVERT JUMPDEST POP POP POP POP PUSH1 0x40 MLOAD RETURNDATASIZE PUSH1 0x1F NOT PUSH1 0x1F DUP3 ADD AND DUP3 ADD DUP1 PUSH1 0x40 MSTORE POP DUP2 ADD SWAP1 PUSH2 0x430E SWAP2 SWAP1 PUSH2 0x59B8 JUMP JUMPDEST PUSH1 0x40 MLOAD PUSH4 0xA9059CBB PUSH1 0xE0 SHL DUP2 MSTORE SWAP1 SWAP2 POP PUSH1 0x1 PUSH1 0x1 PUSH1 0xA0 SHL SUB DUP8 AND SWAP1 PUSH4 0xA9059CBB SWAP1 PUSH2 0x433F SWAP1 DUP5 SWAP1 DUP8 SWAP1 PUSH1 0x4 ADD PUSH2 0x5B2F JUMP JUMPDEST PUSH1 0x20 PUSH1 0x40 MLOAD DUP1 DUP4 SUB DUP2 PUSH1 0x0 DUP8 GAS CALL ISZERO DUP1 ISZERO PUSH2 0x435E JUMPI RETURNDATASIZE PUSH1 0x0 DUP1 RETURNDATACOPY RETURNDATASIZE PUSH1 0x0 REVERT JUMPDEST POP POP POP POP PUSH1 0x40 MLOAD RETURNDATASIZE PUSH1 0x1F NOT PUSH1 0x1F DUP3 ADD AND DUP3 ADD DUP1 PUSH1 0x40 MSTORE POP DUP2 ADD SWAP1 PUSH2 0x4382 SWAP2 SWAP1 PUSH2 0x5B48 JUMP JUMPDEST POP PUSH32 0x0 PUSH1 0x1 PUSH1 0x1 PUSH1 0xA0 SHL SUB AND PUSH4 0xD0E30DB0 DUP4 PUSH1 0x40 MLOAD DUP3 PUSH4 0xFFFFFFFF AND PUSH1 0xE0 SHL DUP2 MSTORE PUSH1 0x4 ADD PUSH1 0x0 PUSH1 0x40 MLOAD DUP1 DUP4 SUB DUP2 DUP6 DUP9 DUP1 EXTCODESIZE ISZERO DUP1 ISZERO PUSH2 0x43DE JUMPI PUSH1 0x0 DUP1 REVERT JUMPDEST POP GAS CALL ISZERO DUP1 ISZERO PUSH2 0x43F2 JUMPI RETURNDATASIZE PUSH1 0x0 DUP1 RETURNDATACOPY RETURNDATASIZE PUSH1 0x0 REVERT JUMPDEST POP POP PUSH1 0x40 MLOAD PUSH4 0xA9059CBB PUSH1 0xE0 SHL DUP2 MSTORE PUSH1 0x1 PUSH1 0x1 PUSH1 0xA0 SHL SUB PUSH32 0x0 AND SWAP4 POP PUSH4 0xA9059CBB SWAP3 POP PUSH2 0x4445 SWAP2 POP DUP5 SWAP1 DUP7 SWAP1 PUSH1 0x4 ADD PUSH2 0x5B2F JUMP JUMPDEST PUSH1 0x20 PUSH1 0x40 MLOAD DUP1 DUP4 SUB DUP2 PUSH1 0x0 DUP8 GAS CALL ISZERO DUP1 ISZERO PUSH2 0x4464 JUMPI RETURNDATASIZE PUSH1 0x0 DUP1 RETURNDATACOPY RETURNDATASIZE PUSH1 0x0 REVERT JUMPDEST POP POP POP POP PUSH1 0x40 MLOAD RETURNDATASIZE PUSH1 0x1F NOT PUSH1 0x1F DUP3 ADD AND DUP3 ADD DUP1 PUSH1 0x40 MSTORE POP DUP2 ADD SWAP1 PUSH2 0x4488 SWAP2 SWAP1 PUSH2 0x5B48 JUMP JUMPDEST PUSH2 0x4494 JUMPI PUSH2 0x4494 PUSH2 0x5E3E JUMP JUMPDEST PUSH1 0x40 MLOAD PUSH4 0x35313C21 PUSH1 0xE1 SHL DUP2 MSTORE PUSH1 0x1 PUSH1 0x1 PUSH1 0xA0 SHL SUB DUP9 DUP2 AND PUSH1 0x4 DUP4 ADD MSTORE DUP3 AND SWAP1 PUSH4 0x6A627842 SWAP1 PUSH1 0x24 ADD PUSH1 0x20 PUSH1 0x40 MLOAD DUP1 DUP4 SUB DUP2 PUSH1 0x0 DUP8 GAS CALL ISZERO DUP1 ISZERO PUSH2 0x44DC JUMPI RETURNDATASIZE PUSH1 0x0 DUP1 RETURNDATACOPY RETURNDATASIZE PUSH1 0x0 REVERT JUMPDEST POP POP POP POP PUSH1 0x40 MLOAD RETURNDATASIZE PUSH1 0x1F NOT PUSH1 0x1F DUP3 ADD AND DUP3 ADD DUP1 PUSH1 0x40 MSTORE POP DUP2 ADD SWAP1 PUSH2 0x4500 SWAP2 SWAP1 PUSH2 0x5B16 JUMP JUMPDEST POP DUP2 DUP9 GT ISZERO PUSH2 0x45C6 JUMPI PUSH1 0x0 CALLER PUSH2 0x4516 DUP5 DUP12 PUSH2 0x596C JUMP JUMPDEST PUSH1 0x40 MLOAD PUSH1 0x0 DUP2 DUP2 DUP2 DUP6 DUP8 GAS CALL SWAP3 POP POP POP RETURNDATASIZE DUP1 PUSH1 0x0 DUP2 EQ PUSH2 0x4552 JUMPI PUSH1 0x40 MLOAD SWAP2 POP PUSH1 0x1F NOT PUSH1 0x3F RETURNDATASIZE ADD AND DUP3 ADD PUSH1 0x40 MSTORE RETURNDATASIZE DUP3 MSTORE RETURNDATASIZE PUSH1 0x0 PUSH1 0x20 DUP5 ADD RETURNDATACOPY PUSH2 0x4557 JUMP JUMPDEST PUSH1 0x60 SWAP2 POP JUMPDEST POP POP SWAP1 POP DUP1 PUSH2 0x3CDD JUMPI PUSH1 0x40 MLOAD PUSH3 0x461BCD PUSH1 0xE5 SHL DUP2 MSTORE PUSH1 0x20 PUSH1 0x4 DUP3 ADD MSTORE PUSH1 0x35 PUSH1 0x24 DUP3 ADD MSTORE PUSH32 0x4661696C656420746F20726566756E6420757365722064757374206574682061 PUSH1 0x44 DUP3 ADD MSTORE PUSH21 0x6674657220616464696E67206C6971756964697479 PUSH1 0x58 SHL PUSH1 0x64 DUP3 ADD MSTORE PUSH1 0x84 ADD PUSH2 0x506 JUMP JUMPDEST POP POP POP POP POP POP POP POP POP JUMP JUMPDEST PUSH32 0x0 PUSH1 0x1 PUSH1 0x1 PUSH1 0xA0 SHL SUB AND DUP3 PUSH1 0x0 DUP2 MLOAD DUP2 LT PUSH2 0x460E JUMPI PUSH2 0x460E PUSH2 0x59EB JUMP JUMPDEST PUSH1 0x20 MUL PUSH1 0x20 ADD ADD MLOAD PUSH1 0x1 PUSH1 0x1 PUSH1 0xA0 SHL SUB AND EQ PUSH2 0x463C JUMPI PUSH1 0x40 MLOAD PUSH3 0x461BCD PUSH1 0xE5 SHL DUP2 MSTORE PUSH1 0x4 ADD PUSH2 0x506 SWAP1 PUSH2 0x5DB2 JUMP JUMPDEST PUSH32 0x0 PUSH1 0x1 PUSH1 0x1 PUSH1 0xA0 SHL SUB AND PUSH4 0xD0E30DB0 DUP6 PUSH1 0x40 MLOAD DUP3 PUSH4 0xFFFFFFFF AND PUSH1 0xE0 SHL DUP2 MSTORE PUSH1 0x4 ADD PUSH1 0x0 PUSH1 0x40 MLOAD DUP1 DUP4 SUB DUP2 DUP6 DUP9 DUP1 EXTCODESIZE ISZERO DUP1 ISZERO PUSH2 0x4697 JUMPI PUSH1 0x0 DUP1 REVERT JUMPDEST POP GAS CALL ISZERO DUP1 ISZERO PUSH2 0x46AB JUMPI RETURNDATASIZE PUSH1 0x0 DUP1 RETURNDATACOPY RETURNDATASIZE PUSH1 0x0 REVERT JUMPDEST POP POP POP POP POP PUSH1 0x0 DUP2 PUSH1 0x1 PUSH1 0x1 PUSH1 0xA0 SHL SUB AND PUSH4 0xC45A0155 PUSH1 0x40 MLOAD DUP2 PUSH4 0xFFFFFFFF AND PUSH1 0xE0 SHL DUP2 MSTORE PUSH1 0x4 ADD PUSH1 0x20 PUSH1 0x40 MLOAD DUP1 DUP4 SUB DUP2 DUP7 GAS STATICCALL ISZERO DUP1 ISZERO PUSH2 0x46F0 JUMPI RETURNDATASIZE PUSH1 0x0 DUP1 RETURNDATACOPY RETURNDATASIZE PUSH1 0x0 REVERT JUMPDEST POP POP POP POP PUSH1 0x40 MLOAD RETURNDATASIZE PUSH1 0x1F NOT PUSH1 0x1F DUP3 ADD AND DUP3 ADD DUP1 PUSH1 0x40 MSTORE POP DUP2 ADD SWAP1 PUSH2 0x4714 SWAP2 SWAP1 PUSH2 0x59B8 JUMP JUMPDEST PUSH1 0x1 PUSH1 0x1 PUSH1 0xA0 SHL SUB AND PUSH4 0xE6A43905 DUP5 PUSH1 0x0 DUP2 MLOAD DUP2 LT PUSH2 0x4735 JUMPI PUSH2 0x4735 PUSH2 0x59EB JUMP JUMPDEST PUSH1 0x20 MUL PUSH1 0x20 ADD ADD MLOAD DUP6 PUSH1 0x1 DUP2 MLOAD DUP2 LT PUSH2 0x4750 JUMPI PUSH2 0x4750 PUSH2 0x59EB JUMP JUMPDEST PUSH1 0x20 MUL PUSH1 0x20 ADD ADD MLOAD PUSH1 0x40 MLOAD DUP4 PUSH4 0xFFFFFFFF AND PUSH1 0xE0 SHL DUP2 MSTORE PUSH1 0x4 ADD PUSH2 0x4775 SWAP3 SWAP2 SWAP1 PUSH2 0x5DE1 JUMP JUMPDEST PUSH1 0x20 PUSH1 0x40 MLOAD DUP1 DUP4 SUB DUP2 DUP7 GAS STATICCALL ISZERO DUP1 ISZERO PUSH2 0x4792 JUMPI RETURNDATASIZE PUSH1 0x0 DUP1 RETURNDATACOPY RETURNDATASIZE PUSH1 0x0 REVERT JUMPDEST POP POP POP POP PUSH1 0x40 MLOAD RETURNDATASIZE PUSH1 0x1F NOT PUSH1 0x1F DUP3 ADD AND DUP3 ADD DUP1 PUSH1 0x40 MSTORE POP DUP2 ADD SWAP1 PUSH2 0x47B6 SWAP2 SWAP1 PUSH2 0x59B8 JUMP JUMPDEST PUSH1 0x40 MLOAD PUSH4 0xA9059CBB PUSH1 0xE0 SHL DUP2 MSTORE SWAP1 SWAP2 POP PUSH1 0x1 PUSH1 0x1 PUSH1 0xA0 SHL SUB PUSH32 0x0 AND SWAP1 PUSH4 0xA9059CBB SWAP1 PUSH2 0x4807 SWAP1 DUP5 SWAP1 DUP10 SWAP1 PUSH1 0x4 ADD PUSH2 0x5B2F JUMP JUMPDEST PUSH1 0x20 PUSH1 0x40 MLOAD DUP1 DUP4 SUB DUP2 PUSH1 0x0 DUP8 GAS CALL ISZERO DUP1 ISZERO PUSH2 0x4826 JUMPI RETURNDATASIZE PUSH1 0x0 DUP1 RETURNDATACOPY RETURNDATASIZE PUSH1 0x0 REVERT JUMPDEST POP POP POP POP PUSH1 0x40 MLOAD RETURNDATASIZE PUSH1 0x1F NOT PUSH1 0x1F DUP3 ADD AND DUP3 ADD DUP1 PUSH1 0x40 MSTORE POP DUP2 ADD SWAP1 PUSH2 0x484A SWAP2 SWAP1 PUSH2 0x5B48 JUMP JUMPDEST PUSH2 0x4856 JUMPI PUSH2 0x4856 PUSH2 0x5E3E JUMP JUMPDEST PUSH1 0x0 DUP4 PUSH1 0x1 DUP6 MLOAD PUSH2 0x4867 SWAP2 SWAP1 PUSH2 0x596C JUMP JUMPDEST DUP2 MLOAD DUP2 LT PUSH2 0x4877 JUMPI PUSH2 0x4877 PUSH2 0x59EB JUMP JUMPDEST PUSH1 0x20 SWAP1 DUP2 MUL SWAP2 SWAP1 SWAP2 ADD ADD MLOAD PUSH1 0x40 MLOAD PUSH4 0x70A08231 PUSH1 0xE0 SHL DUP2 MSTORE ADDRESS PUSH1 0x4 DUP3 ADD MSTORE PUSH1 0x1 PUSH1 0x1 PUSH1 0xA0 SHL SUB SWAP1 SWAP2 AND SWAP1 PUSH4 0x70A08231 SWAP1 PUSH1 0x24 ADD PUSH1 0x20 PUSH1 0x40 MLOAD DUP1 DUP4 SUB DUP2 DUP7 GAS STATICCALL ISZERO DUP1 ISZERO PUSH2 0x48C7 JUMPI RETURNDATASIZE PUSH1 0x0 DUP1 RETURNDATACOPY RETURNDATASIZE PUSH1 0x0 REVERT JUMPDEST POP POP POP POP PUSH1 0x40 MLOAD RETURNDATASIZE PUSH1 0x1F NOT PUSH1 0x1F DUP3 ADD AND DUP3 ADD DUP1 PUSH1 0x40 MSTORE POP DUP2 ADD SWAP1 PUSH2 0x48EB SWAP2 SWAP1 PUSH2 0x5B16 JUMP JUMPDEST SWAP1 POP PUSH2 0x48F7 DUP5 DUP5 PUSH2 0x4E51 JUMP JUMPDEST DUP5 DUP2 DUP6 PUSH1 0x1 DUP8 MLOAD PUSH2 0x4908 SWAP2 SWAP1 PUSH2 0x596C JUMP JUMPDEST DUP2 MLOAD DUP2 LT PUSH2 0x4918 JUMPI PUSH2 0x4918 PUSH2 0x59EB JUMP JUMPDEST PUSH1 0x20 SWAP1 DUP2 MUL SWAP2 SWAP1 SWAP2 ADD ADD MLOAD PUSH1 0x40 MLOAD PUSH4 0x70A08231 PUSH1 0xE0 SHL DUP2 MSTORE ADDRESS PUSH1 0x4 DUP3 ADD MSTORE PUSH1 0x1 PUSH1 0x1 PUSH1 0xA0 SHL SUB SWAP1 SWAP2 AND SWAP1 PUSH4 0x70A08231 SWAP1 PUSH1 0x24 ADD PUSH1 0x20 PUSH1 0x40 MLOAD DUP1 DUP4 SUB DUP2 DUP7 GAS STATICCALL ISZERO DUP1 ISZERO PUSH2 0x4968 JUMPI RETURNDATASIZE PUSH1 0x0 DUP1 RETURNDATACOPY RETURNDATASIZE PUSH1 0x0 REVERT JUMPDEST POP POP POP POP PUSH1 0x40 MLOAD RETURNDATASIZE PUSH1 0x1F NOT PUSH1 0x1F DUP3 ADD AND DUP3 ADD DUP1 PUSH1 0x40 MSTORE POP DUP2 ADD SWAP1 PUSH2 0x498C SWAP2 SWAP1 PUSH2 0x5B16 JUMP JUMPDEST PUSH2 0x4996 SWAP2 SWAP1 PUSH2 0x596C JUMP JUMPDEST LT ISZERO PUSH2 0x49B4 JUMPI PUSH1 0x40 MLOAD PUSH3 0x461BCD PUSH1 0xE5 SHL DUP2 MSTORE PUSH1 0x4 ADD PUSH2 0x506 SWAP1 PUSH2 0x5DFB JUMP JUMPDEST POP POP POP POP POP POP JUMP JUMPDEST PUSH1 0x60 PUSH1 0x0 PUSH32 0x0 PUSH1 0x1 PUSH1 0x1 PUSH1 0xA0 SHL SUB AND DUP5 PUSH1 0x0 DUP2 MLOAD DUP2 LT PUSH2 0x49FD JUMPI PUSH2 0x49FD PUSH2 0x59EB JUMP JUMPDEST PUSH1 0x20 MUL PUSH1 0x20 ADD ADD MLOAD PUSH1 0x1 PUSH1 0x1 PUSH1 0xA0 SHL SUB AND EQ PUSH2 0x4A2B JUMPI PUSH1 0x40 MLOAD PUSH3 0x461BCD PUSH1 0xE5 SHL DUP2 MSTORE PUSH1 0x4 ADD PUSH2 0x506 SWAP1 PUSH2 0x5DB2 JUMP JUMPDEST PUSH1 0x40 MLOAD PUSH4 0x7C0329D PUSH1 0xE2 SHL DUP2 MSTORE PUSH1 0x1 PUSH1 0x1 PUSH1 0xA0 SHL SUB DUP5 AND SWAP1 PUSH4 0x1F00CA74 SWAP1 PUSH2 0x4A59 SWAP1 DUP9 SWAP1 DUP9 SWAP1 PUSH1 0x4 ADD PUSH2 0x5A01 JUMP JUMPDEST PUSH1 0x0 PUSH1 0x40 MLOAD DUP1 DUP4 SUB DUP2 DUP7 GAS STATICCALL ISZERO DUP1 ISZERO PUSH2 0x4A76 JUMPI RETURNDATASIZE PUSH1 0x0 DUP1 RETURNDATACOPY RETURNDATASIZE PUSH1 0x0 REVERT JUMPDEST POP POP POP POP PUSH1 0x40 MLOAD RETURNDATASIZE PUSH1 0x0 DUP3 RETURNDATACOPY PUSH1 0x1F RETURNDATASIZE SWAP1 DUP2 ADD PUSH1 0x1F NOT AND DUP3 ADD PUSH1 0x40 MSTORE PUSH2 0x4A9E SWAP2 SWAP1 DUP2 ADD SWAP1 PUSH2 0x5A58 JUMP JUMPDEST SWAP2 POP DUP6 DUP3 PUSH1 0x0 DUP2 MLOAD DUP2 LT PUSH2 0x4AB4 JUMPI PUSH2 0x4AB4 PUSH2 0x59EB JUMP JUMPDEST PUSH1 0x20 MUL PUSH1 0x20 ADD ADD MLOAD GT ISZERO PUSH2 0x4B0A JUMPI PUSH1 0x40 MLOAD PUSH3 0x461BCD PUSH1 0xE5 SHL DUP2 MSTORE PUSH1 0x20 PUSH1 0x4 DUP3 ADD MSTORE PUSH1 0x1F PUSH1 0x24 DUP3 ADD MSTORE PUSH32 0x506177737761703A204558434553534956455F494E5055545F414D4F554E5400 PUSH1 0x44 DUP3 ADD MSTORE PUSH1 0x64 ADD PUSH2 0x506 JUMP JUMPDEST PUSH32 0x0 PUSH1 0x1 PUSH1 0x1 PUSH1 0xA0 SHL SUB AND PUSH4 0xD0E30DB0 DUP4 PUSH1 0x0 DUP2 MLOAD DUP2 LT PUSH2 0x4B4C JUMPI PUSH2 0x4B4C PUSH2 0x59EB JUMP JUMPDEST PUSH1 0x20 MUL PUSH1 0x20 ADD ADD MLOAD PUSH1 0x40 MLOAD DUP3 PUSH4 0xFFFFFFFF AND PUSH1 0xE0 SHL DUP2 MSTORE PUSH1 0x4 ADD PUSH1 0x0 PUSH1 0x40 MLOAD DUP1 DUP4 SUB DUP2 DUP6 DUP9 DUP1 EXTCODESIZE ISZERO DUP1 ISZERO PUSH2 0x4B7F JUMPI PUSH1 0x0 DUP1 REVERT JUMPDEST POP GAS CALL ISZERO DUP1 ISZERO PUSH2 0x4B93 JUMPI RETURNDATASIZE PUSH1 0x0 DUP1 RETURNDATACOPY RETURNDATASIZE PUSH1 0x0 REVERT JUMPDEST POP POP POP POP POP PUSH1 0x0 DUP4 PUSH1 0x1 PUSH1 0x1 PUSH1 0xA0 SHL SUB AND PUSH4 0xC45A0155 PUSH1 0x40 MLOAD DUP2 PUSH4 0xFFFFFFFF AND PUSH1 0xE0 SHL DUP2 MSTORE PUSH1 0x4 ADD PUSH1 0x20 PUSH1 0x40 MLOAD DUP1 DUP4 SUB DUP2 DUP7 GAS STATICCALL ISZERO DUP1 ISZERO PUSH2 0x4BD8 JUMPI RETURNDATASIZE PUSH1 0x0 DUP1 RETURNDATACOPY RETURNDATASIZE PUSH1 0x0 REVERT JUMPDEST POP POP POP POP PUSH1 0x40 MLOAD RETURNDATASIZE PUSH1 0x1F NOT PUSH1 0x1F DUP3 ADD AND DUP3 ADD DUP1 PUSH1 0x40 MSTORE POP DUP2 ADD SWAP1 PUSH2 0x4BFC SWAP2 SWAP1 PUSH2 0x59B8 JUMP JUMPDEST PUSH1 0x1 PUSH1 0x1 PUSH1 0xA0 SHL SUB AND PUSH4 0xE6A43905 DUP7 PUSH1 0x0 DUP2 MLOAD DUP2 LT PUSH2 0x4C1D JUMPI PUSH2 0x4C1D PUSH2 0x59EB JUMP JUMPDEST PUSH1 0x20 MUL PUSH1 0x20 ADD ADD MLOAD DUP8 PUSH1 0x1 DUP2 MLOAD DUP2 LT PUSH2 0x4C38 JUMPI PUSH2 0x4C38 PUSH2 0x59EB JUMP JUMPDEST PUSH1 0x20 MUL PUSH1 0x20 ADD ADD MLOAD PUSH1 0x40 MLOAD DUP4 PUSH4 0xFFFFFFFF AND PUSH1 0xE0 SHL DUP2 MSTORE PUSH1 0x4 ADD PUSH2 0x4C5D SWAP3 SWAP2 SWAP1 PUSH2 0x5DE1 JUMP JUMPDEST PUSH1 0x20 PUSH1 0x40 MLOAD DUP1 DUP4 SUB DUP2 DUP7 GAS STATICCALL ISZERO DUP1 ISZERO PUSH2 0x4C7A JUMPI RETURNDATASIZE PUSH1 0x0 DUP1 RETURNDATACOPY RETURNDATASIZE PUSH1 0x0 REVERT JUMPDEST POP POP POP POP PUSH1 0x40 MLOAD RETURNDATASIZE PUSH1 0x1F NOT PUSH1 0x1F DUP3 ADD AND DUP3 ADD DUP1 PUSH1 0x40 MSTORE POP DUP2 ADD SWAP1 PUSH2 0x4C9E SWAP2 SWAP1 PUSH2 0x59B8 JUMP JUMPDEST SWAP1 POP PUSH32 0x0 PUSH1 0x1 PUSH1 0x1 PUSH1 0xA0 SHL SUB AND PUSH4 0xA9059CBB DUP3 DUP6 PUSH1 0x0 DUP2 MLOAD DUP2 LT PUSH2 0x4CE3 JUMPI PUSH2 0x4CE3 PUSH2 0x59EB JUMP JUMPDEST PUSH1 0x20 MUL PUSH1 0x20 ADD ADD MLOAD PUSH1 0x40 MLOAD DUP4 PUSH4 0xFFFFFFFF AND PUSH1 0xE0 SHL DUP2 MSTORE PUSH1 0x4 ADD PUSH2 0x4D08 SWAP3 SWAP2 SWAP1 PUSH2 0x5B2F JUMP JUMPDEST PUSH1 0x20 PUSH1 0x40 MLOAD DUP1 DUP4 SUB DUP2 PUSH1 0x0 DUP8 GAS CALL ISZERO DUP1 ISZERO PUSH2 0x4D27 JUMPI RETURNDATASIZE PUSH1 0x0 DUP1 RETURNDATACOPY RETURNDATASIZE PUSH1 0x0 REVERT JUMPDEST POP POP POP POP PUSH1 0x40 MLOAD RETURNDATASIZE PUSH1 0x1F NOT PUSH1 0x1F DUP3 ADD AND DUP3 ADD DUP1 PUSH1 0x40 MSTORE POP DUP2 ADD SWAP1 PUSH2 0x4D4B SWAP2 SWAP1 PUSH2 0x5B48 JUMP JUMPDEST PUSH2 0x4D57 JUMPI PUSH2 0x4D57 PUSH2 0x5E3E JUMP JUMPDEST PUSH2 0x4D62 DUP4 DUP7 DUP4 PUSH2 0x51BC JUMP JUMPDEST DUP3 PUSH1 0x0 DUP2 MLOAD DUP2 LT PUSH2 0x4D75 JUMPI PUSH2 0x4D75 PUSH2 0x59EB JUMP JUMPDEST PUSH1 0x20 MUL PUSH1 0x20 ADD ADD MLOAD DUP8 GT ISZERO PUSH2 0x4E47 JUMPI DUP3 PUSH1 0x0 DUP2 MLOAD DUP2 LT PUSH2 0x4D97 JUMPI PUSH2 0x4D97 PUSH2 0x59EB JUMP JUMPDEST PUSH1 0x20 MUL PUSH1 0x20 ADD ADD MLOAD DUP8 PUSH2 0x4DAA SWAP2 SWAP1 PUSH2 0x596C JUMP JUMPDEST PUSH1 0x40 MLOAD SWAP1 SWAP3 POP PUSH1 0x0 SWAP1 CALLER SWAP1 DUP5 SWAP1 DUP4 DUP2 DUP2 DUP2 DUP6 DUP8 GAS CALL SWAP3 POP POP POP RETURNDATASIZE DUP1 PUSH1 0x0 DUP2 EQ PUSH2 0x4DEF JUMPI PUSH1 0x40 MLOAD SWAP2 POP PUSH1 0x1F NOT PUSH1 0x3F RETURNDATASIZE ADD AND DUP3 ADD PUSH1 0x40 MSTORE RETURNDATASIZE DUP3 MSTORE RETURNDATASIZE PUSH1 0x0 PUSH1 0x20 DUP5 ADD RETURNDATACOPY PUSH2 0x4DF4 JUMP JUMPDEST PUSH1 0x60 SWAP2 POP JUMPDEST POP POP SWAP1 POP DUP1 PUSH2 0x4E45 JUMPI PUSH1 0x40 MLOAD PUSH3 0x461BCD PUSH1 0xE5 SHL DUP2 MSTORE PUSH1 0x20 PUSH1 0x4 DUP3 ADD MSTORE PUSH1 0x1E PUSH1 0x24 DUP3 ADD MSTORE PUSH32 0x4661696C656420746F20726566756E6420757365722064757374206574680000 PUSH1 0x44 DUP3 ADD MSTORE PUSH1 0x64 ADD PUSH2 0x506 JUMP JUMPDEST POP JUMPDEST POP SWAP5 POP SWAP5 SWAP3 POP POP POP JUMP JUMPDEST PUSH1 0x0 DUP1 DUP4 PUSH1 0x0 DUP2 MLOAD DUP2 LT PUSH2 0x4E67 JUMPI PUSH2 0x4E67 PUSH2 0x59EB JUMP JUMPDEST PUSH1 0x20 MUL PUSH1 0x20 ADD ADD MLOAD DUP5 PUSH1 0x1 DUP2 MLOAD DUP2 LT PUSH2 0x4E82 JUMPI PUSH2 0x4E82 PUSH2 0x59EB JUMP JUMPDEST PUSH1 0x20 MUL PUSH1 0x20 ADD ADD MLOAD SWAP2 POP SWAP2 POP PUSH1 0x0 PUSH2 0x4E9A DUP4 DUP4 PUSH2 0x5652 JUMP JUMPDEST POP SWAP1 POP PUSH1 0x0 DUP5 PUSH1 0x1 PUSH1 0x1 PUSH1 0xA0 SHL SUB AND PUSH4 0xC45A0155 PUSH1 0x40 MLOAD DUP2 PUSH4 0xFFFFFFFF AND PUSH1 0xE0 SHL DUP2 MSTORE PUSH1 0x4 ADD PUSH1 0x20 PUSH1 0x40 MLOAD DUP1 DUP4 SUB DUP2 DUP7 GAS STATICCALL ISZERO DUP1 ISZERO PUSH2 0x4EDD JUMPI RETURNDATASIZE PUSH1 0x0 DUP1 RETURNDATACOPY RETURNDATASIZE PUSH1 0x0 REVERT JUMPDEST POP POP POP POP PUSH1 0x40 MLOAD RETURNDATASIZE PUSH1 0x1F NOT PUSH1 0x1F DUP3 ADD AND DUP3 ADD DUP1 PUSH1 0x40 MSTORE POP DUP2 ADD SWAP1 PUSH2 0x4F01 SWAP2 SWAP1 PUSH2 0x59B8 JUMP JUMPDEST PUSH1 0x1 PUSH1 0x1 PUSH1 0xA0 SHL SUB AND PUSH4 0xE6A43905 DUP6 DUP6 PUSH1 0x40 MLOAD DUP4 PUSH4 0xFFFFFFFF AND PUSH1 0xE0 SHL DUP2 MSTORE PUSH1 0x4 ADD PUSH2 0x4F2E SWAP3 SWAP2 SWAP1 PUSH2 0x5DE1 JUMP JUMPDEST PUSH1 0x20 PUSH1 0x40 MLOAD DUP1 DUP4 SUB DUP2 DUP7 GAS STATICCALL ISZERO DUP1 ISZERO PUSH2 0x4F4B JUMPI RETURNDATASIZE PUSH1 0x0 DUP1 RETURNDATACOPY RETURNDATASIZE PUSH1 0x0 REVERT JUMPDEST POP POP POP POP PUSH1 0x40 MLOAD RETURNDATASIZE PUSH1 0x1F NOT PUSH1 0x1F DUP3 ADD AND DUP3 ADD DUP1 PUSH1 0x40 MSTORE POP DUP2 ADD SWAP1 PUSH2 0x4F6F SWAP2 SWAP1 PUSH2 0x59B8 JUMP JUMPDEST SWAP1 POP PUSH1 0x0 DUP1 PUSH1 0x0 DUP1 DUP5 PUSH1 0x1 PUSH1 0x1 PUSH1 0xA0 SHL SUB AND PUSH4 0x902F1AC PUSH1 0x40 MLOAD DUP2 PUSH4 0xFFFFFFFF AND PUSH1 0xE0 SHL DUP2 MSTORE PUSH1 0x4 ADD PUSH1 0x60 PUSH1 0x40 MLOAD DUP1 DUP4 SUB DUP2 DUP7 GAS STATICCALL ISZERO DUP1 ISZERO PUSH2 0x4FB5 JUMPI RETURNDATASIZE PUSH1 0x0 DUP1 RETURNDATACOPY RETURNDATASIZE PUSH1 0x0 REVERT JUMPDEST POP POP POP POP PUSH1 0x40 MLOAD RETURNDATASIZE PUSH1 0x1F NOT PUSH1 0x1F DUP3 ADD AND DUP3 ADD DUP1 PUSH1 0x40 MSTORE POP DUP2 ADD SWAP1 PUSH2 0x4FD9 SWAP2 SWAP1 PUSH2 0x5E70 JUMP JUMPDEST POP PUSH1 0x1 PUSH1 0x1 PUSH1 0x70 SHL SUB AND SWAP2 POP PUSH1 0x1 PUSH1 0x1 PUSH1 0x70 SHL SUB AND SWAP2 POP PUSH1 0x0 DUP1 DUP8 PUSH1 0x1 PUSH1 0x1 PUSH1 0xA0 SHL SUB AND DUP11 PUSH1 0x1 PUSH1 0x1 PUSH1 0xA0 SHL SUB AND EQ PUSH2 0x5013 JUMPI DUP3 DUP5 PUSH2 0x5016 JUMP JUMPDEST DUP4 DUP4 JUMPDEST PUSH1 0x40 MLOAD PUSH4 0x70A08231 PUSH1 0xE0 SHL DUP2 MSTORE PUSH1 0x1 PUSH1 0x1 PUSH1 0xA0 SHL SUB DUP11 DUP2 AND PUSH1 0x4 DUP4 ADD MSTORE SWAP3 SWAP5 POP SWAP1 SWAP3 POP DUP4 SWAP2 DUP13 AND SWAP1 PUSH4 0x70A08231 SWAP1 PUSH1 0x24 ADD PUSH1 0x20 PUSH1 0x40 MLOAD DUP1 DUP4 SUB DUP2 DUP7 GAS STATICCALL ISZERO DUP1 ISZERO PUSH2 0x5064 JUMPI RETURNDATASIZE PUSH1 0x0 DUP1 RETURNDATACOPY RETURNDATASIZE PUSH1 0x0 REVERT JUMPDEST POP POP POP POP PUSH1 0x40 MLOAD RETURNDATASIZE PUSH1 0x1F NOT PUSH1 0x1F DUP3 ADD AND DUP3 ADD DUP1 PUSH1 0x40 MSTORE POP DUP2 ADD SWAP1 PUSH2 0x5088 SWAP2 SWAP1 PUSH2 0x5B16 JUMP JUMPDEST PUSH2 0x5092 SWAP2 SWAP1 PUSH2 0x596C JUMP JUMPDEST PUSH1 0x40 MLOAD PUSH4 0x1535435 PUSH1 0xE2 SHL DUP2 MSTORE PUSH1 0x4 DUP2 ADD DUP3 SWAP1 MSTORE PUSH1 0x24 DUP2 ADD DUP5 SWAP1 MSTORE PUSH1 0x44 DUP2 ADD DUP4 SWAP1 MSTORE SWAP1 SWAP7 POP PUSH1 0x1 PUSH1 0x1 PUSH1 0xA0 SHL SUB DUP13 AND SWAP1 PUSH4 0x54D50D4 SWAP1 PUSH1 0x64 ADD PUSH1 0x20 PUSH1 0x40 MLOAD DUP1 DUP4 SUB DUP2 DUP7 GAS STATICCALL ISZERO DUP1 ISZERO PUSH2 0x50E8 JUMPI RETURNDATASIZE PUSH1 0x0 DUP1 RETURNDATACOPY RETURNDATASIZE PUSH1 0x0 REVERT JUMPDEST POP POP POP POP PUSH1 0x40 MLOAD RETURNDATASIZE PUSH1 0x1F NOT PUSH1 0x1F DUP3 ADD AND DUP3 ADD DUP1 PUSH1 0x40 MSTORE POP DUP2 ADD SWAP1 PUSH2 0x510C SWAP2 SWAP1 PUSH2 0x5B16 JUMP JUMPDEST SWAP5 POP POP POP POP POP PUSH1 0x0 DUP1 DUP6 PUSH1 0x1 PUSH1 0x1 PUSH1 0xA0 SHL SUB AND DUP9 PUSH1 0x1 PUSH1 0x1 PUSH1 0xA0 SHL SUB AND EQ PUSH2 0x5136 JUMPI DUP3 PUSH1 0x0 PUSH2 0x513A JUMP JUMPDEST PUSH1 0x0 DUP4 JUMPDEST PUSH1 0x40 DUP1 MLOAD PUSH1 0x0 DUP2 MSTORE PUSH1 0x20 DUP2 ADD SWAP2 DUP3 SWAP1 MSTORE PUSH4 0x22C0D9F PUSH1 0xE0 SHL SWAP1 SWAP2 MSTORE SWAP2 SWAP4 POP SWAP2 POP PUSH1 0x1 PUSH1 0x1 PUSH1 0xA0 SHL SUB DUP7 AND SWAP1 PUSH4 0x22C0D9F SWAP1 PUSH2 0x517E SWAP1 DUP6 SWAP1 DUP6 SWAP1 ADDRESS SWAP1 PUSH1 0x24 DUP2 ADD PUSH2 0x5EC0 JUMP JUMPDEST PUSH1 0x0 PUSH1 0x40 MLOAD DUP1 DUP4 SUB DUP2 PUSH1 0x0 DUP8 DUP1 EXTCODESIZE ISZERO DUP1 ISZERO PUSH2 0x5198 JUMPI PUSH1 0x0 DUP1 REVERT JUMPDEST POP GAS CALL ISZERO DUP1 ISZERO PUSH2 0x51AC JUMPI RETURNDATASIZE PUSH1 0x0 DUP1 RETURNDATACOPY RETURNDATASIZE PUSH1 0x0 REVERT JUMPDEST POP POP POP POP POP POP POP POP POP POP POP POP POP POP JUMP JUMPDEST PUSH1 0x0 DUP1 DUP4 PUSH1 0x0 DUP2 MLOAD DUP2 LT PUSH2 0x51D2 JUMPI PUSH2 0x51D2 PUSH2 0x59EB JUMP JUMPDEST PUSH1 0x20 MUL PUSH1 0x20 ADD ADD MLOAD DUP5 PUSH1 0x1 DUP2 MLOAD DUP2 LT PUSH2 0x51ED JUMPI PUSH2 0x51ED PUSH2 0x59EB JUMP JUMPDEST PUSH1 0x20 MUL PUSH1 0x20 ADD ADD MLOAD SWAP2 POP SWAP2 POP PUSH1 0x0 PUSH2 0x5205 DUP4 DUP4 PUSH2 0x5652 JUMP JUMPDEST POP SWAP1 POP PUSH1 0x0 DUP7 PUSH1 0x1 DUP2 MLOAD DUP2 LT PUSH2 0x521D JUMPI PUSH2 0x521D PUSH2 0x59EB JUMP JUMPDEST PUSH1 0x20 MUL PUSH1 0x20 ADD ADD MLOAD SWAP1 POP PUSH1 0x0 DUP1 DUP4 PUSH1 0x1 PUSH1 0x1 PUSH1 0xA0 SHL SUB AND DUP7 PUSH1 0x1 PUSH1 0x1 PUSH1 0xA0 SHL SUB AND EQ PUSH2 0x524B JUMPI DUP3 PUSH1 0x0 PUSH2 0x524F JUMP JUMPDEST PUSH1 0x0 DUP4 JUMPDEST PUSH1 0x40 DUP1 MLOAD PUSH1 0x0 DUP2 MSTORE PUSH1 0x20 DUP2 ADD SWAP2 DUP3 SWAP1 MSTORE PUSH4 0x22C0D9F PUSH1 0xE0 SHL SWAP1 SWAP2 MSTORE SWAP2 SWAP4 POP SWAP2 POP PUSH1 0x1 PUSH1 0x1 PUSH1 0xA0 SHL SUB DUP9 AND SWAP1 PUSH4 0x22C0D9F SWAP1 PUSH2 0x5293 SWAP1 DUP6 SWAP1 DUP6 SWAP1 ADDRESS SWAP1 PUSH1 0x24 DUP2 ADD PUSH2 0x5EC0 JUMP JUMPDEST PUSH1 0x0 PUSH1 0x40 MLOAD DUP1 DUP4 SUB DUP2 PUSH1 0x0 DUP8 DUP1 EXTCODESIZE ISZERO DUP1 ISZERO PUSH2 0x52AD JUMPI PUSH1 0x0 DUP1 REVERT JUMPDEST POP GAS CALL ISZERO DUP1 ISZERO PUSH2 0x52C1 JUMPI RETURNDATASIZE PUSH1 0x0 DUP1 RETURNDATACOPY RETURNDATASIZE PUSH1 0x0 REVERT JUMPDEST POP POP POP POP POP POP POP POP POP POP POP POP POP JUMP JUMPDEST PUSH1 0x0 DUP1 PUSH1 0x0 DUP4 PUSH1 0x1 PUSH1 0x1 PUSH1 0xA0 SHL SUB AND PUSH4 0xC45A0155 PUSH1 0x40 MLOAD DUP2 PUSH4 0xFFFFFFFF AND PUSH1 0xE0 SHL DUP2 MSTORE PUSH1 0x4 ADD PUSH1 0x20 PUSH1 0x40 MLOAD DUP1 DUP4 SUB DUP2 DUP7 GAS STATICCALL ISZERO DUP1 ISZERO PUSH2 0x5313 JUMPI RETURNDATASIZE PUSH1 0x0 DUP1 RETURNDATACOPY RETURNDATASIZE PUSH1 0x0 REVERT JUMPDEST POP POP POP POP PUSH1 0x40 MLOAD RETURNDATASIZE PUSH1 0x1F NOT PUSH1 0x1F DUP3 ADD AND DUP3 ADD DUP1 PUSH1 0x40 MSTORE POP DUP2 ADD SWAP1 PUSH2 0x5337 SWAP2 SWAP1 PUSH2 0x59B8 JUMP JUMPDEST PUSH1 0x1 PUSH1 0x1 PUSH1 0xA0 SHL SUB AND PUSH4 0xE6A43905 DUP10 DUP10 PUSH1 0x40 MLOAD DUP4 PUSH4 0xFFFFFFFF AND PUSH1 0xE0 SHL DUP2 MSTORE PUSH1 0x4 ADD PUSH2 0x5364 SWAP3 SWAP2 SWAP1 PUSH2 0x5DE1 JUMP JUMPDEST PUSH1 0x20 PUSH1 0x40 MLOAD DUP1 DUP4 SUB DUP2 DUP7 GAS STATICCALL ISZERO DUP1 ISZERO PUSH2 0x5381 JUMPI RETURNDATASIZE PUSH1 0x0 DUP1 RETURNDATACOPY RETURNDATASIZE PUSH1 0x0 REVERT JUMPDEST POP POP POP POP PUSH1 0x40 MLOAD RETURNDATASIZE PUSH1 0x1F NOT PUSH1 0x1F DUP3 ADD AND DUP3 ADD DUP1 PUSH1 0x40 MSTORE POP DUP2 ADD SWAP1 PUSH2 0x53A5 SWAP2 SWAP1 PUSH2 0x59B8 JUMP JUMPDEST SWAP1 POP PUSH1 0x1 PUSH1 0x1 PUSH1 0xA0 SHL SUB DUP2 AND PUSH2 0x5489 JUMPI DUP4 PUSH1 0x1 PUSH1 0x1 PUSH1 0xA0 SHL SUB AND PUSH4 0xC45A0155 PUSH1 0x40 MLOAD DUP2 PUSH4 0xFFFFFFFF AND PUSH1 0xE0 SHL DUP2 MSTORE PUSH1 0x4 ADD PUSH1 0x20 PUSH1 0x40 MLOAD DUP1 DUP4 SUB DUP2 DUP7 GAS STATICCALL ISZERO DUP1 ISZERO PUSH2 0x53F3 JUMPI RETURNDATASIZE PUSH1 0x0 DUP1 RETURNDATACOPY RETURNDATASIZE PUSH1 0x0 REVERT JUMPDEST POP POP POP POP PUSH1 0x40 MLOAD RETURNDATASIZE PUSH1 0x1F NOT PUSH1 0x1F DUP3 ADD AND DUP3 ADD DUP1 PUSH1 0x40 MSTORE POP DUP2 ADD SWAP1 PUSH2 0x5417 SWAP2 SWAP1 PUSH2 0x59B8 JUMP JUMPDEST PUSH1 0x1 PUSH1 0x1 PUSH1 0xA0 SHL SUB AND PUSH4 0xC9C65396 DUP10 DUP10 PUSH1 0x40 MLOAD DUP4 PUSH4 0xFFFFFFFF AND PUSH1 0xE0 SHL DUP2 MSTORE PUSH1 0x4 ADD PUSH2 0x5444 SWAP3 SWAP2 SWAP1 PUSH2 0x5DE1 JUMP JUMPDEST PUSH1 0x20 PUSH1 0x40 MLOAD DUP1 DUP4 SUB DUP2 PUSH1 0x0 DUP8 GAS CALL ISZERO DUP1 ISZERO PUSH2 0x5463 JUMPI RETURNDATASIZE PUSH1 0x0 DUP1 RETURNDATACOPY RETURNDATASIZE PUSH1 0x0 REVERT JUMPDEST POP POP POP POP PUSH1 0x40 MLOAD RETURNDATASIZE PUSH1 0x1F NOT PUSH1 0x1F DUP3 ADD AND DUP3 ADD DUP1 PUSH1 0x40 MSTORE POP DUP2 ADD SWAP1 PUSH2 0x5487 SWAP2 SWAP1 PUSH2 0x59B8 JUMP JUMPDEST POP JUMPDEST PUSH1 0x0 DUP1 DUP3 PUSH1 0x1 PUSH1 0x1 PUSH1 0xA0 SHL SUB AND PUSH4 0x902F1AC PUSH1 0x40 MLOAD DUP2 PUSH4 0xFFFFFFFF AND PUSH1 0xE0 SHL DUP2 MSTORE PUSH1 0x4 ADD PUSH1 0x60 PUSH1 0x40 MLOAD DUP1 DUP4 SUB DUP2 DUP7 GAS STATICCALL ISZERO DUP1 ISZERO PUSH2 0x54CA JUMPI RETURNDATASIZE PUSH1 0x0 DUP1 RETURNDATACOPY RETURNDATASIZE PUSH1 0x0 REVERT JUMPDEST POP POP POP POP PUSH1 0x40 MLOAD RETURNDATASIZE PUSH1 0x1F NOT PUSH1 0x1F DUP3 ADD AND DUP3 ADD DUP1 PUSH1 0x40 MSTORE POP DUP2 ADD SWAP1 PUSH2 0x54EE SWAP2 SWAP1 PUSH2 0x5E70 JUMP JUMPDEST POP PUSH1 0x1 PUSH1 0x1 PUSH1 0x70 SHL SUB AND SWAP2 POP PUSH1 0x1 PUSH1 0x1 PUSH1 0x70 SHL SUB AND SWAP2 POP DUP2 PUSH1 0x0 EQ DUP1 ISZERO PUSH2 0x5513 JUMPI POP DUP1 ISZERO JUMPDEST ISZERO PUSH2 0x5523 JUMPI DUP8 SWAP5 POP DUP7 SWAP4 POP PUSH2 0x5645 JUMP JUMPDEST PUSH1 0x40 MLOAD PUSH4 0x2B58577B PUSH1 0xE2 SHL DUP2 MSTORE PUSH1 0x4 DUP2 ADD DUP10 SWAP1 MSTORE PUSH1 0x24 DUP2 ADD DUP4 SWAP1 MSTORE PUSH1 0x44 DUP2 ADD DUP3 SWAP1 MSTORE PUSH1 0x0 SWAP1 PUSH1 0x1 PUSH1 0x1 PUSH1 0xA0 SHL SUB DUP9 AND SWAP1 PUSH4 0xAD615DEC SWAP1 PUSH1 0x64 ADD PUSH1 0x20 PUSH1 0x40 MLOAD DUP1 DUP4 SUB DUP2 DUP7 GAS STATICCALL ISZERO DUP1 ISZERO PUSH2 0x5579 JUMPI RETURNDATASIZE PUSH1 0x0 DUP1 RETURNDATACOPY RETURNDATASIZE PUSH1 0x0 REVERT JUMPDEST POP POP POP POP PUSH1 0x40 MLOAD RETURNDATASIZE PUSH1 0x1F NOT PUSH1 0x1F DUP3 ADD AND DUP3 ADD DUP1 PUSH1 0x40 MSTORE POP DUP2 ADD SWAP1 PUSH2 0x559D SWAP2 SWAP1 PUSH2 0x5B16 JUMP JUMPDEST SWAP1 POP DUP8 DUP2 GT PUSH2 0x55B1 JUMPI DUP9 SWAP6 POP SWAP4 POP DUP4 PUSH2 0x5643 JUMP JUMPDEST PUSH1 0x40 MLOAD PUSH4 0x2B58577B PUSH1 0xE2 SHL DUP2 MSTORE PUSH1 0x4 DUP2 ADD DUP10 SWAP1 MSTORE PUSH1 0x24 DUP2 ADD DUP4 SWAP1 MSTORE PUSH1 0x44 DUP2 ADD DUP5 SWAP1 MSTORE PUSH1 0x0 SWAP1 PUSH1 0x1 PUSH1 0x1 PUSH1 0xA0 SHL SUB DUP10 AND SWAP1 PUSH4 0xAD615DEC SWAP1 PUSH1 0x64 ADD PUSH1 0x20 PUSH1 0x40 MLOAD DUP1 DUP4 SUB DUP2 DUP7 GAS STATICCALL ISZERO DUP1 ISZERO PUSH2 0x5607 JUMPI RETURNDATASIZE PUSH1 0x0 DUP1 RETURNDATACOPY RETURNDATASIZE PUSH1 0x0 REVERT JUMPDEST POP POP POP POP PUSH1 0x40 MLOAD RETURNDATASIZE PUSH1 0x1F NOT PUSH1 0x1F DUP3 ADD AND DUP3 ADD DUP1 PUSH1 0x40 MSTORE POP DUP2 ADD SWAP1 PUSH2 0x562B SWAP2 SWAP1 PUSH2 0x5B16 JUMP JUMPDEST SWAP1 POP DUP10 DUP2 GT ISZERO PUSH2 0x563D JUMPI PUSH2 0x563D PUSH2 0x5E3E JUMP JUMPDEST SWAP6 POP DUP8 SWAP5 POP JUMPDEST POP JUMPDEST POP POP POP SWAP6 POP SWAP6 SWAP4 POP POP POP POP JUMP JUMPDEST PUSH1 0x0 DUP1 DUP3 PUSH1 0x1 PUSH1 0x1 PUSH1 0xA0 SHL SUB AND DUP5 PUSH1 0x1 PUSH1 0x1 PUSH1 0xA0 SHL SUB AND EQ ISZERO PUSH2 0x56B7 JUMPI PUSH1 0x40 MLOAD PUSH3 0x461BCD PUSH1 0xE5 SHL DUP2 MSTORE PUSH1 0x20 PUSH1 0x4 DUP3 ADD MSTORE PUSH1 0x1C PUSH1 0x24 DUP3 ADD MSTORE PUSH32 0x506177737761703A204944454E544943414C5F41444452455353455300000000 PUSH1 0x44 DUP3 ADD MSTORE PUSH1 0x64 ADD PUSH2 0x506 JUMP JUMPDEST DUP3 PUSH1 0x1 PUSH1 0x1 PUSH1 0xA0 SHL SUB AND DUP5 PUSH1 0x1 PUSH1 0x1 PUSH1 0xA0 SHL SUB AND LT PUSH2 0x56D7 JUMPI DUP3 DUP5 PUSH2 0x56DA JUMP JUMPDEST DUP4 DUP4 JUMPDEST SWAP1 SWAP3 POP SWAP1 POP PUSH1 0x1 PUSH1 0x1 PUSH1 0xA0 SHL SUB DUP3 AND PUSH2 0x572D JUMPI PUSH1 0x40 MLOAD PUSH3 0x461BCD PUSH1 0xE5 SHL DUP2 MSTORE PUSH1 0x20 PUSH1 0x4 DUP3 ADD MSTORE PUSH1 0x15 PUSH1 0x24 DUP3 ADD MSTORE PUSH21 0x506177737761703A205A45524F5F41444452455353 PUSH1 0x58 SHL PUSH1 0x44 DUP3 ADD MSTORE PUSH1 0x64 ADD PUSH2 0x506 JUMP JUMPDEST SWAP3 POP SWAP3 SWAP1 POP JUMP JUMPDEST PUSH1 0x1 PUSH1 0x1 PUSH1 0xA0 SHL SUB DUP2 AND DUP2 EQ PUSH2 0x12D6 JUMPI PUSH1 0x0 DUP1 REVERT JUMPDEST DUP1 ISZERO ISZERO DUP2 EQ PUSH2 0x12D6 JUMPI PUSH1 0x0 DUP1 REVERT JUMPDEST PUSH1 0x0 DUP1 PUSH1 0x0 DUP1 PUSH1 0x0 DUP1 PUSH1 0xC0 DUP8 DUP10 SUB SLT ISZERO PUSH2 0x5770 JUMPI PUSH1 0x0 DUP1 REVERT JUMPDEST DUP7 CALLDATALOAD PUSH2 0x577B DUP2 PUSH2 0x5734 JUMP JUMPDEST SWAP6 POP PUSH1 0x20 DUP8 ADD CALLDATALOAD SWAP5 POP PUSH1 0x40 DUP8 ADD CALLDATALOAD SWAP4 POP PUSH1 0x60 DUP8 ADD CALLDATALOAD PUSH2 0x5799 DUP2 PUSH2 0x5734 JUMP JUMPDEST SWAP3 POP PUSH1 0x80 DUP8 ADD CALLDATALOAD SWAP2 POP PUSH1 0xA0 DUP8 ADD CALLDATALOAD PUSH2 0x57B0 DUP2 PUSH2 0x5749 JUMP JUMPDEST DUP1 SWAP2 POP POP SWAP3 SWAP6 POP SWAP3 SWAP6 POP SWAP3 SWAP6 JUMP JUMPDEST PUSH1 0x0 DUP1 PUSH1 0x0 DUP1 PUSH1 0x0 PUSH1 0xA0 DUP7 DUP9 SUB SLT ISZERO PUSH2 0x57D6 JUMPI PUSH1 0x0 DUP1 REVERT JUMPDEST DUP6 CALLDATALOAD PUSH2 0x57E1 DUP2 PUSH2 0x5734 JUMP JUMPDEST SWAP5 POP PUSH1 0x20 DUP7 ADD CALLDATALOAD SWAP4 POP PUSH1 0x40 DUP7 ADD CALLDATALOAD PUSH2 0x57F8 DUP2 PUSH2 0x5734 JUMP JUMPDEST SWAP3 POP PUSH1 0x60 DUP7 ADD CALLDATALOAD SWAP2 POP PUSH1 0x80 DUP7 ADD CALLDATALOAD PUSH2 0x580F DUP2 PUSH2 0x5749 JUMP JUMPDEST DUP1 SWAP2 POP POP SWAP3 SWAP6 POP SWAP3 SWAP6 SWAP1 SWAP4 POP JUMP JUMPDEST PUSH1 0x0 PUSH1 0x20 DUP3 DUP5 SUB SLT ISZERO PUSH2 0x582F JUMPI PUSH1 0x0 DUP1 REVERT JUMPDEST DUP2 CALLDATALOAD PUSH2 0x2D6B DUP2 PUSH2 0x5734 JUMP JUMPDEST PUSH1 0x0 PUSH1 0x20 DUP3 DUP5 SUB SLT ISZERO PUSH2 0x584C JUMPI PUSH1 0x0 DUP1 REVERT JUMPDEST POP CALLDATALOAD SWAP2 SWAP1 POP JUMP JUMPDEST PUSH1 0x0 DUP1 PUSH1 0x40 DUP4 DUP6 SUB SLT ISZERO PUSH2 0x5866 JUMPI PUSH1 0x0 DUP1 REVERT JUMPDEST DUP3 CALLDATALOAD PUSH2 0x5871 DUP2 PUSH2 0x5734 JUMP JUMPDEST SWAP2 POP PUSH1 0x20 DUP4 ADD CALLDATALOAD PUSH2 0x5881 DUP2 PUSH2 0x5734 JUMP JUMPDEST DUP1 SWAP2 POP POP SWAP3 POP SWAP3 SWAP1 POP JUMP JUMPDEST PUSH1 0x0 DUP1 PUSH1 0x40 DUP4 DUP6 SUB SLT ISZERO PUSH2 0x589F JUMPI PUSH1 0x0 DUP1 REVERT JUMPDEST DUP3 CALLDATALOAD PUSH2 0x58AA DUP2 PUSH2 0x5734 JUMP JUMPDEST SWAP2 POP PUSH1 0x20 DUP4 ADD CALLDATALOAD PUSH2 0x5881 DUP2 PUSH2 0x5749 JUMP JUMPDEST PUSH1 0x0 DUP1 PUSH1 0x0 DUP1 PUSH1 0x80 DUP6 DUP8 SUB SLT ISZERO PUSH2 0x58D0 JUMPI PUSH1 0x0 DUP1 REVERT JUMPDEST DUP5 CALLDATALOAD PUSH2 0x58DB DUP2 PUSH2 0x5734 JUMP JUMPDEST SWAP4 POP PUSH1 0x20 DUP6 ADD CALLDATALOAD PUSH2 0x58EB DUP2 PUSH2 0x5734 JUMP JUMPDEST SWAP4 SWAP7 SWAP4 SWAP6 POP POP POP POP PUSH1 0x40 DUP3 ADD CALLDATALOAD SWAP2 PUSH1 0x60 ADD CALLDATALOAD SWAP1 JUMP JUMPDEST PUSH1 0x0 DUP1 PUSH1 0x40 DUP4 DUP6 SUB SLT ISZERO PUSH2 0x5913 JUMPI PUSH1 0x0 DUP1 REVERT JUMPDEST DUP3 CALLDATALOAD PUSH2 0x591E DUP2 PUSH2 0x5734 JUMP JUMPDEST SWAP5 PUSH1 0x20 SWAP4 SWAP1 SWAP4 ADD CALLDATALOAD SWAP4 POP POP POP JUMP JUMPDEST PUSH1 0x20 DUP1 DUP3 MSTORE PUSH1 0x10 SWAP1 DUP3 ADD MSTORE PUSH16 0x151BDAD95B881B9BDD081B1A5CDD1959 PUSH1 0x82 SHL PUSH1 0x40 DUP3 ADD MSTORE PUSH1 0x60 ADD SWAP1 JUMP JUMPDEST PUSH4 0x4E487B71 PUSH1 0xE0 SHL PUSH1 0x0 MSTORE PUSH1 0x11 PUSH1 0x4 MSTORE PUSH1 0x24 PUSH1 0x0 REVERT JUMPDEST PUSH1 0x0 DUP3 DUP3 LT ISZERO PUSH2 0x597E JUMPI PUSH2 0x597E PUSH2 0x5956 JUMP JUMPDEST POP SUB SWAP1 JUMP JUMPDEST PUSH1 0x20 DUP1 DUP3 MSTORE DUP2 DUP2 ADD MSTORE PUSH32 0x4F776E61626C653A2063616C6C6572206973206E6F7420746865206F776E6572 PUSH1 0x40 DUP3 ADD MSTORE PUSH1 0x60 ADD SWAP1 JUMP JUMPDEST PUSH1 0x0 PUSH1 0x20 DUP3 DUP5 SUB SLT ISZERO PUSH2 0x59CA JUMPI PUSH1 0x0 DUP1 REVERT JUMPDEST DUP2 MLOAD PUSH2 0x2D6B DUP2 PUSH2 0x5734 JUMP JUMPDEST PUSH4 0x4E487B71 PUSH1 0xE0 SHL PUSH1 0x0 MSTORE PUSH1 0x41 PUSH1 0x4 MSTORE PUSH1 0x24 PUSH1 0x0 REVERT JUMPDEST PUSH4 0x4E487B71 PUSH1 0xE0 SHL PUSH1 0x0 MSTORE PUSH1 0x32 PUSH1 0x4 MSTORE PUSH1 0x24 PUSH1 0x0 REVERT JUMPDEST PUSH1 0x0 PUSH1 0x40 DUP3 ADD DUP5 DUP4 MSTORE PUSH1 0x20 PUSH1 0x40 DUP2 DUP6 ADD MSTORE DUP2 DUP6 MLOAD DUP1 DUP5 MSTORE PUSH1 0x60 DUP7 ADD SWAP2 POP DUP3 DUP8 ADD SWAP4 POP PUSH1 0x0 JUMPDEST DUP2 DUP2 LT ISZERO PUSH2 0x5A4B JUMPI DUP5 MLOAD PUSH1 0x1 PUSH1 0x1 PUSH1 0xA0 SHL SUB AND DUP4 MSTORE SWAP4 DUP4 ADD SWAP4 SWAP2 DUP4 ADD SWAP2 PUSH1 0x1 ADD PUSH2 0x5A26 JUMP JUMPDEST POP SWAP1 SWAP8 SWAP7 POP POP POP POP POP POP POP JUMP JUMPDEST PUSH1 0x0 PUSH1 0x20 DUP1 DUP4 DUP6 SUB SLT ISZERO PUSH2 0x5A6B JUMPI PUSH1 0x0 DUP1 REVERT JUMPDEST DUP3 MLOAD PUSH8 0xFFFFFFFFFFFFFFFF DUP1 DUP3 GT ISZERO PUSH2 0x5A83 JUMPI PUSH1 0x0 DUP1 REVERT JUMPDEST DUP2 DUP6 ADD SWAP2 POP DUP6 PUSH1 0x1F DUP4 ADD SLT PUSH2 0x5A97 JUMPI PUSH1 0x0 DUP1 REVERT JUMPDEST DUP2 MLOAD DUP2 DUP2 GT ISZERO PUSH2 0x5AA9 JUMPI PUSH2 0x5AA9 PUSH2 0x59D5 JUMP JUMPDEST DUP1 PUSH1 0x5 SHL PUSH1 0x40 MLOAD PUSH1 0x1F NOT PUSH1 0x3F DUP4 ADD AND DUP2 ADD DUP2 DUP2 LT DUP6 DUP3 GT OR ISZERO PUSH2 0x5ACE JUMPI PUSH2 0x5ACE PUSH2 0x59D5 JUMP JUMPDEST PUSH1 0x40 MSTORE SWAP2 DUP3 MSTORE DUP5 DUP3 ADD SWAP3 POP DUP4 DUP2 ADD DUP6 ADD SWAP2 DUP9 DUP4 GT ISZERO PUSH2 0x5AEC JUMPI PUSH1 0x0 DUP1 REVERT JUMPDEST SWAP4 DUP6 ADD SWAP4 JUMPDEST DUP3 DUP6 LT ISZERO PUSH2 0x5B0A JUMPI DUP5 MLOAD DUP5 MSTORE SWAP4 DUP6 ADD SWAP4 SWAP3 DUP6 ADD SWAP3 PUSH2 0x5AF1 JUMP JUMPDEST SWAP9 SWAP8 POP POP POP POP POP POP POP POP JUMP JUMPDEST PUSH1 0x0 PUSH1 0x20 DUP3 DUP5 SUB SLT ISZERO PUSH2 0x5B28 JUMPI PUSH1 0x0 DUP1 REVERT JUMPDEST POP MLOAD SWAP2 SWAP1 POP JUMP JUMPDEST PUSH1 0x1 PUSH1 0x1 PUSH1 0xA0 SHL SUB SWAP3 SWAP1 SWAP3 AND DUP3 MSTORE PUSH1 0x20 DUP3 ADD MSTORE PUSH1 0x40 ADD SWAP1 JUMP JUMPDEST PUSH1 0x0 PUSH1 0x20 DUP3 DUP5 SUB SLT ISZERO PUSH2 0x5B5A JUMPI PUSH1 0x0 DUP1 REVERT JUMPDEST DUP2 MLOAD PUSH2 0x2D6B DUP2 PUSH2 0x5749 JUMP JUMPDEST PUSH1 0x0 DUP3 PUSH2 0x5B82 JUMPI PUSH4 0x4E487B71 PUSH1 0xE0 SHL PUSH1 0x0 MSTORE PUSH1 0x12 PUSH1 0x4 MSTORE PUSH1 0x24 PUSH1 0x0 REVERT JUMPDEST POP DIV SWAP1 JUMP JUMPDEST PUSH1 0x0 DUP3 NOT DUP3 GT ISZERO PUSH2 0x5B9A JUMPI PUSH2 0x5B9A PUSH2 0x5956 JUMP JUMPDEST POP ADD SWAP1 JUMP JUMPDEST PUSH1 0x1 DUP2 DUP2 JUMPDEST DUP1 DUP6 GT ISZERO PUSH2 0x5BDA JUMPI DUP2 PUSH1 0x0 NOT DIV DUP3 GT ISZERO PUSH2 0x5BC0 JUMPI PUSH2 0x5BC0 PUSH2 0x5956 JUMP JUMPDEST DUP1 DUP6 AND ISZERO PUSH2 0x5BCD JUMPI SWAP2 DUP2 MUL SWAP2 JUMPDEST SWAP4 DUP5 SHR SWAP4 SWAP1 DUP1 MUL SWAP1 PUSH2 0x5BA4 JUMP JUMPDEST POP SWAP3 POP SWAP3 SWAP1 POP JUMP JUMPDEST PUSH1 0x0 DUP3 PUSH2 0x5BF1 JUMPI POP PUSH1 0x1 PUSH2 0x1F1D JUMP JUMPDEST DUP2 PUSH2 0x5BFE JUMPI POP PUSH1 0x0 PUSH2 0x1F1D JUMP JUMPDEST DUP2 PUSH1 0x1 DUP2 EQ PUSH2 0x5C14 JUMPI PUSH1 0x2 DUP2 EQ PUSH2 0x5C1E JUMPI PUSH2 0x5C3A JUMP JUMPDEST PUSH1 0x1 SWAP2 POP POP PUSH2 0x1F1D JUMP JUMPDEST PUSH1 0xFF DUP5 GT ISZERO PUSH2 0x5C2F JUMPI PUSH2 0x5C2F PUSH2 0x5956 JUMP JUMPDEST POP POP PUSH1 0x1 DUP3 SHL PUSH2 0x1F1D JUMP JUMPDEST POP PUSH1 0x20 DUP4 LT PUSH2 0x133 DUP4 LT AND PUSH1 0x4E DUP5 LT PUSH1 0xB DUP5 LT AND OR ISZERO PUSH2 0x5C5D JUMPI POP DUP2 DUP2 EXP PUSH2 0x1F1D JUMP JUMPDEST PUSH2 0x5C67 DUP4 DUP4 PUSH2 0x5B9F JUMP JUMPDEST DUP1 PUSH1 0x0 NOT DIV DUP3 GT ISZERO PUSH2 0x5C7B JUMPI PUSH2 0x5C7B PUSH2 0x5956 JUMP JUMPDEST MUL SWAP4 SWAP3 POP POP POP JUMP JUMPDEST PUSH1 0x0 PUSH2 0x2D6B DUP4 DUP4 PUSH2 0x5BE2 JUMP JUMPDEST PUSH1 0x0 DUP2 PUSH1 0x0 NOT DIV DUP4 GT DUP3 ISZERO ISZERO AND ISZERO PUSH2 0x5CA9 JUMPI PUSH2 0x5CA9 PUSH2 0x5956 JUMP JUMPDEST POP MUL SWAP1 JUMP JUMPDEST PUSH1 0x20 DUP1 DUP3 MSTORE PUSH1 0x21 SWAP1 DUP3 ADD MSTORE PUSH32 0x4661696C656420746F2073656E642065746820746F20746178312077616C6C65 PUSH1 0x40 DUP3 ADD MSTORE PUSH1 0x1D PUSH1 0xFA SHL PUSH1 0x60 DUP3 ADD MSTORE PUSH1 0x80 ADD SWAP1 JUMP JUMPDEST PUSH1 0x20 DUP1 DUP3 MSTORE PUSH1 0x21 SWAP1 DUP3 ADD MSTORE PUSH32 0x4661696C656420746F2073656E642065746820746F20746178322077616C6C65 PUSH1 0x40 DUP3 ADD MSTORE PUSH1 0x1D PUSH1 0xFA SHL PUSH1 0x60 DUP3 ADD MSTORE PUSH1 0x80 ADD SWAP1 JUMP JUMPDEST PUSH1 0x20 DUP1 DUP3 MSTORE PUSH1 0x21 SWAP1 DUP3 ADD MSTORE PUSH32 0x4661696C656420746F2073656E642065746820746F20746178332077616C6C65 PUSH1 0x40 DUP3 ADD MSTORE PUSH1 0x1D PUSH1 0xFA SHL PUSH1 0x60 DUP3 ADD MSTORE PUSH1 0x80 ADD SWAP1 JUMP JUMPDEST PUSH1 0x20 DUP1 DUP3 MSTORE PUSH1 0x21 SWAP1 DUP3 ADD MSTORE PUSH32 0x4661696C656420746F2073656E642065746820746F20746178342077616C6C65 PUSH1 0x40 DUP3 ADD MSTORE PUSH1 0x1D PUSH1 0xFA SHL PUSH1 0x60 DUP3 ADD MSTORE PUSH1 0x80 ADD SWAP1 JUMP JUMPDEST PUSH1 0x20 DUP1 DUP3 MSTORE PUSH1 0x15 SWAP1 DUP3 ADD MSTORE PUSH21 0xA0C2EEE6EEC2E07440929CAC82989288BEA082A89 PUSH1 0x5B SHL PUSH1 0x40 DUP3 ADD MSTORE PUSH1 0x60 ADD SWAP1 JUMP JUMPDEST PUSH1 0x1 PUSH1 0x1 PUSH1 0xA0 SHL SUB SWAP3 DUP4 AND DUP2 MSTORE SWAP2 AND PUSH1 0x20 DUP3 ADD MSTORE PUSH1 0x40 ADD SWAP1 JUMP JUMPDEST PUSH1 0x20 DUP1 DUP3 MSTORE PUSH1 0x23 SWAP1 DUP3 ADD MSTORE PUSH32 0x506177737761703A20494E53554646494349454E545F4F55545055545F414D4F PUSH1 0x40 DUP3 ADD MSTORE PUSH3 0x155395 PUSH1 0xEA SHL PUSH1 0x60 DUP3 ADD MSTORE PUSH1 0x80 ADD SWAP1 JUMP JUMPDEST PUSH4 0x4E487B71 PUSH1 0xE0 SHL PUSH1 0x0 MSTORE PUSH1 0x1 PUSH1 0x4 MSTORE PUSH1 0x24 PUSH1 0x0 REVERT JUMPDEST DUP1 MLOAD PUSH1 0x1 PUSH1 0x1 PUSH1 0x70 SHL SUB DUP2 AND DUP2 EQ PUSH2 0x5E6B JUMPI PUSH1 0x0 DUP1 REVERT JUMPDEST SWAP2 SWAP1 POP JUMP JUMPDEST PUSH1 0x0 DUP1 PUSH1 0x0 PUSH1 0x60 DUP5 DUP7 SUB SLT ISZERO PUSH2 0x5E85 JUMPI PUSH1 0x0 DUP1 REVERT JUMPDEST PUSH2 0x5E8E DUP5 PUSH2 0x5E54 JUMP JUMPDEST SWAP3 POP PUSH2 0x5E9C PUSH1 0x20 DUP6 ADD PUSH2 0x5E54 JUMP JUMPDEST SWAP2 POP PUSH1 0x40 DUP5 ADD MLOAD PUSH4 0xFFFFFFFF DUP2 AND DUP2 EQ PUSH2 0x5EB5 JUMPI PUSH1 0x0 DUP1 REVERT JUMPDEST DUP1 SWAP2 POP POP SWAP3 POP SWAP3 POP SWAP3 JUMP JUMPDEST DUP5 DUP2 MSTORE PUSH1 0x0 PUSH1 0x20 DUP6 DUP2 DUP5 ADD MSTORE PUSH1 0x1 DUP1 PUSH1 0xA0 SHL SUB DUP6 AND PUSH1 0x40 DUP5 ADD MSTORE PUSH1 0x80 PUSH1 0x60 DUP5 ADD MSTORE DUP4 MLOAD DUP1 PUSH1 0x80 DUP6 ADD MSTORE PUSH1 0x0 JUMPDEST DUP2 DUP2 LT ISZERO PUSH2 0x5F08 JUMPI DUP6 DUP2 ADD DUP4 ADD MLOAD DUP6 DUP3 ADD PUSH1 0xA0 ADD MSTORE DUP3 ADD PUSH2 0x5EEC JUMP JUMPDEST DUP2 DUP2 GT ISZERO PUSH2 0x5F1A JUMPI PUSH1 0x0 PUSH1 0xA0 DUP4 DUP8 ADD ADD MSTORE JUMPDEST POP PUSH1 0x1F ADD PUSH1 0x1F NOT AND SWAP3 SWAP1 SWAP3 ADD PUSH1 0xA0 ADD SWAP7 SWAP6 POP POP POP POP POP POP JUMP INVALID LOG2 PUSH5 0x6970667358 0x22 SLT KECCAK256 PUSH3 0x5CB5D LOG0 0x28 0xBF 0xB8 CALLVALUE GASLIMIT 0x1E 0xAC 0xE9 EXTCODESIZE JUMPDEST 0xC7 0xCB PUSH25 0xF1E405E6CD6DC8614D4DBC13E77164736F6C634300080C0033 "
        },
        "methodIdentifiers": {
          "WETH()": "ad5c4648",
          "buyOnPawSwap(address,uint256,address,uint256,bool)": "03891670",
          "dexExcludedFromTreasury(address)": "0b8f9cd6",
          "excludeToken(address,bool)": "66e93768",
          "excludedTokens(address)": "5dae8841",
          "getBuyAmountIn(address,address,uint256,uint256)": "4f37813a",
          "getSellAmountIn(address,address,uint256,uint256)": "a0a5c8d8",
          "listers(address)": "4f248e7c",
          "owner()": "8da5cb5b",
          "pawSwapFactory()": "b2d9a6da",
          "pawSwapRouter()": "2e568533",
          "renounceOwnership()": "715018a6",
          "sellOnPawSwap(address,uint256,uint256,address,uint256,bool)": "02083ef7",
          "setListerAccount(address,bool)": "3046a0f3",
          "setPawSwapFactory(address)": "69c4e562",
          "setPawSwapRouter(address)": "5a1c02ef",
          "setTokenTaxContract(address,address)": "1630794e",
          "setTreasuryFee(uint256)": "77e741c7",
          "toggleDexExcludedFromTreasuryFee(address,bool)": "8f7eb3c4",
          "tokenTaxContracts(address)": "0a018e70",
          "transferOwnership(address)": "f2fde38b",
          "treasuryFee()": "cc32d176",
          "withdrawEthToOwner(uint256)": "107bf304",
          "withdrawTokenToOwner(address,uint256)": "56a6338f"
        }
      }
    }
  }
}