{
  "contracts/PawthTaxStructure.sol": {
    "PawthTaxStructure": {
      "abi": [
        {
          "inputs": [
            {
              "internalType": "address",
              "name": "_pawthereum",
              "type": "address"
            },
            {
              "internalType": "address",
              "name": "_router",
              "type": "address"
            }
          ],
          "stateMutability": "nonpayable",
          "type": "constructor"
        },
        {
          "anonymous": false,
          "inputs": [
            {
              "indexed": false,
              "internalType": "string",
              "name": "oldName",
              "type": "string"
            },
            {
              "indexed": false,
              "internalType": "string",
              "name": "newName",
              "type": "string"
            }
          ],
          "name": "CustomTaxNameUpdated",
          "type": "event"
        },
        {
          "anonymous": false,
          "inputs": [
            {
              "indexed": true,
              "internalType": "address",
              "name": "previousOwner",
              "type": "address"
            },
            {
              "indexed": true,
              "internalType": "address",
              "name": "newOwner",
              "type": "address"
            }
          ],
          "name": "OwnershipTransferred",
          "type": "event"
        },
        {
          "anonymous": false,
          "inputs": [
            {
              "indexed": false,
              "internalType": "address",
              "name": "oldRouter",
              "type": "address"
            },
            {
              "indexed": false,
              "internalType": "address",
              "name": "newRouter",
              "type": "address"
            }
          ],
          "name": "RouterUpdated",
          "type": "event"
        },
        {
          "anonymous": false,
          "inputs": [
            {
              "indexed": false,
              "internalType": "string",
              "name": "oldName",
              "type": "string"
            },
            {
              "indexed": false,
              "internalType": "address",
              "name": "oldWallet",
              "type": "address"
            },
            {
              "indexed": false,
              "internalType": "uint256",
              "name": "oldBuyAmount",
              "type": "uint256"
            },
            {
              "indexed": false,
              "internalType": "uint256",
              "name": "oldSellAmount",
              "type": "uint256"
            },
            {
              "indexed": false,
              "internalType": "string",
              "name": "newName",
              "type": "string"
            },
            {
              "indexed": false,
              "internalType": "address",
              "name": "newWallet",
              "type": "address"
            },
            {
              "indexed": false,
              "internalType": "uint256",
              "name": "newBuyAmount",
              "type": "uint256"
            },
            {
              "indexed": false,
              "internalType": "uint256",
              "name": "newSellAmount",
              "type": "uint256"
            }
          ],
          "name": "TaxUpdated",
          "type": "event"
        },
        {
          "inputs": [],
          "name": "burnAddress",
          "outputs": [
            {
              "internalType": "address",
              "name": "",
              "type": "address"
            }
          ],
          "stateMutability": "view",
          "type": "function"
        },
        {
          "inputs": [
            {
              "internalType": "address",
              "name": "_address",
              "type": "address"
            }
          ],
          "name": "burnTaxBuyAmount",
          "outputs": [
            {
              "internalType": "uint256",
              "name": "",
              "type": "uint256"
            }
          ],
          "stateMutability": "view",
          "type": "function"
        },
        {
          "inputs": [],
          "name": "burnTaxBuyAmountConfig",
          "outputs": [
            {
              "internalType": "uint256",
              "name": "",
              "type": "uint256"
            }
          ],
          "stateMutability": "view",
          "type": "function"
        },
        {
          "inputs": [
            {
              "internalType": "address",
              "name": "_address",
              "type": "address"
            }
          ],
          "name": "burnTaxSellAmount",
          "outputs": [
            {
              "internalType": "uint256",
              "name": "",
              "type": "uint256"
            }
          ],
          "stateMutability": "view",
          "type": "function"
        },
        {
          "inputs": [],
          "name": "burnTaxSellAmountConfig",
          "outputs": [
            {
              "internalType": "uint256",
              "name": "",
              "type": "uint256"
            }
          ],
          "stateMutability": "view",
          "type": "function"
        },
        {
          "inputs": [],
          "name": "customTaxName",
          "outputs": [
            {
              "internalType": "string",
              "name": "",
              "type": "string"
            }
          ],
          "stateMutability": "view",
          "type": "function"
        },
        {
          "inputs": [],
          "name": "feeDecimal",
          "outputs": [
            {
              "internalType": "uint256",
              "name": "",
              "type": "uint256"
            }
          ],
          "stateMutability": "view",
          "type": "function"
        },
        {
          "inputs": [
            {
              "internalType": "address",
              "name": "_address",
              "type": "address"
            }
          ],
          "name": "getBuyTaxAmounts",
          "outputs": [
            {
              "internalType": "uint256",
              "name": "",
              "type": "uint256"
            },
            {
              "internalType": "uint256",
              "name": "",
              "type": "uint256"
            },
            {
              "internalType": "uint256",
              "name": "",
              "type": "uint256"
            },
            {
              "internalType": "uint256",
              "name": "",
              "type": "uint256"
            },
            {
              "internalType": "uint256",
              "name": "",
              "type": "uint256"
            },
            {
              "internalType": "uint256",
              "name": "",
              "type": "uint256"
            },
            {
              "internalType": "uint256",
              "name": "",
              "type": "uint256"
            }
          ],
          "stateMutability": "view",
          "type": "function"
        },
        {
          "inputs": [
            {
              "internalType": "address",
              "name": "_token",
              "type": "address"
            }
          ],
          "name": "getPair",
          "outputs": [
            {
              "internalType": "address",
              "name": "",
              "type": "address"
            }
          ],
          "stateMutability": "view",
          "type": "function"
        },
        {
          "inputs": [
            {
              "internalType": "address",
              "name": "_address",
              "type": "address"
            }
          ],
          "name": "getPostSwapBuyTaxAmount",
          "outputs": [
            {
              "internalType": "uint256",
              "name": "",
              "type": "uint256"
            }
          ],
          "stateMutability": "view",
          "type": "function"
        },
        {
          "inputs": [
            {
              "internalType": "address",
              "name": "_address",
              "type": "address"
            }
          ],
          "name": "getPostSwapSellTaxAmount",
          "outputs": [
            {
              "internalType": "uint256",
              "name": "",
              "type": "uint256"
            }
          ],
          "stateMutability": "view",
          "type": "function"
        },
        {
          "inputs": [
            {
              "internalType": "address",
              "name": "_address",
              "type": "address"
            },
            {
              "internalType": "uint256",
              "name": "customTaxAmount",
              "type": "uint256"
            }
          ],
          "name": "getPreSwapBuyTaxAmount",
          "outputs": [
            {
              "internalType": "uint256",
              "name": "",
              "type": "uint256"
            }
          ],
          "stateMutability": "view",
          "type": "function"
        },
        {
          "inputs": [
            {
              "internalType": "address",
              "name": "_address",
              "type": "address"
            }
          ],
          "name": "getPreSwapSellTaxAmount",
          "outputs": [
            {
              "internalType": "uint256",
              "name": "",
              "type": "uint256"
            }
          ],
          "stateMutability": "view",
          "type": "function"
        },
        {
          "inputs": [
            {
              "internalType": "address",
              "name": "_token",
              "type": "address"
            }
          ],
          "name": "getReserves",
          "outputs": [
            {
              "internalType": "uint112",
              "name": "",
              "type": "uint112"
            },
            {
              "internalType": "uint112",
              "name": "",
              "type": "uint112"
            },
            {
              "internalType": "uint32",
              "name": "",
              "type": "uint32"
            }
          ],
          "stateMutability": "view",
          "type": "function"
        },
        {
          "inputs": [
            {
              "internalType": "address",
              "name": "_address",
              "type": "address"
            }
          ],
          "name": "getSellTaxAmounts",
          "outputs": [
            {
              "internalType": "uint256",
              "name": "",
              "type": "uint256"
            },
            {
              "internalType": "uint256",
              "name": "",
              "type": "uint256"
            },
            {
              "internalType": "uint256",
              "name": "",
              "type": "uint256"
            },
            {
              "internalType": "uint256",
              "name": "",
              "type": "uint256"
            },
            {
              "internalType": "uint256",
              "name": "",
              "type": "uint256"
            },
            {
              "internalType": "uint256",
              "name": "",
              "type": "uint256"
            },
            {
              "internalType": "uint256",
              "name": "",
              "type": "uint256"
            }
          ],
          "stateMutability": "view",
          "type": "function"
        },
        {
          "inputs": [],
          "name": "getTaxNamesAndWallets",
          "outputs": [
            {
              "internalType": "string",
              "name": "",
              "type": "string"
            },
            {
              "internalType": "address",
              "name": "",
              "type": "address"
            },
            {
              "internalType": "string",
              "name": "",
              "type": "string"
            },
            {
              "internalType": "address",
              "name": "",
              "type": "address"
            },
            {
              "internalType": "string",
              "name": "",
              "type": "string"
            },
            {
              "internalType": "address",
              "name": "",
              "type": "address"
            },
            {
              "internalType": "string",
              "name": "",
              "type": "string"
            },
            {
              "internalType": "address",
              "name": "",
              "type": "address"
            },
            {
              "internalType": "string",
              "name": "",
              "type": "string"
            },
            {
              "internalType": "address",
              "name": "",
              "type": "address"
            },
            {
              "internalType": "address",
              "name": "",
              "type": "address"
            },
            {
              "internalType": "address",
              "name": "",
              "type": "address"
            }
          ],
          "stateMutability": "view",
          "type": "function"
        },
        {
          "inputs": [
            {
              "internalType": "address",
              "name": "_address",
              "type": "address"
            }
          ],
          "name": "liquidityTaxBuyAmount",
          "outputs": [
            {
              "internalType": "uint256",
              "name": "",
              "type": "uint256"
            }
          ],
          "stateMutability": "view",
          "type": "function"
        },
        {
          "inputs": [],
          "name": "liquidityTaxBuyAmountConfig",
          "outputs": [
            {
              "internalType": "uint256",
              "name": "",
              "type": "uint256"
            }
          ],
          "stateMutability": "view",
          "type": "function"
        },
        {
          "inputs": [
            {
              "internalType": "address",
              "name": "_address",
              "type": "address"
            }
          ],
          "name": "liquidityTaxSellAmount",
          "outputs": [
            {
              "internalType": "uint256",
              "name": "",
              "type": "uint256"
            }
          ],
          "stateMutability": "view",
          "type": "function"
        },
        {
          "inputs": [],
          "name": "liquidityTaxSellAmountConfig",
          "outputs": [
            {
              "internalType": "uint256",
              "name": "",
              "type": "uint256"
            }
          ],
          "stateMutability": "view",
          "type": "function"
        },
        {
          "inputs": [],
          "name": "lpTokenHolder",
          "outputs": [
            {
              "internalType": "address",
              "name": "",
              "type": "address"
            }
          ],
          "stateMutability": "view",
          "type": "function"
        },
        {
          "inputs": [],
          "name": "nft1155BenefitAddress",
          "outputs": [
            {
              "internalType": "address",
              "name": "",
              "type": "address"
            }
          ],
          "stateMutability": "view",
          "type": "function"
        },
        {
          "inputs": [],
          "name": "nft1155BenefitId",
          "outputs": [
            {
              "internalType": "uint256",
              "name": "",
              "type": "uint256"
            }
          ],
          "stateMutability": "view",
          "type": "function"
        },
        {
          "inputs": [],
          "name": "nft1155HoldFactor",
          "outputs": [
            {
              "internalType": "uint256",
              "name": "",
              "type": "uint256"
            }
          ],
          "stateMutability": "view",
          "type": "function"
        },
        {
          "inputs": [],
          "name": "owner",
          "outputs": [
            {
              "internalType": "address",
              "name": "",
              "type": "address"
            }
          ],
          "stateMutability": "view",
          "type": "function"
        },
        {
          "inputs": [],
          "name": "purrBuyFactor",
          "outputs": [
            {
              "internalType": "uint256",
              "name": "",
              "type": "uint256"
            }
          ],
          "stateMutability": "view",
          "type": "function"
        },
        {
          "inputs": [],
          "name": "purrSellFactor",
          "outputs": [
            {
              "internalType": "uint256",
              "name": "",
              "type": "uint256"
            }
          ],
          "stateMutability": "view",
          "type": "function"
        },
        {
          "inputs": [],
          "name": "renounceOwnership",
          "outputs": [],
          "stateMutability": "nonpayable",
          "type": "function"
        },
        {
          "inputs": [],
          "name": "respect1155",
          "outputs": [
            {
              "internalType": "bool",
              "name": "",
              "type": "bool"
            }
          ],
          "stateMutability": "view",
          "type": "function"
        },
        {
          "inputs": [],
          "name": "respectPurr",
          "outputs": [
            {
              "internalType": "bool",
              "name": "",
              "type": "bool"
            }
          ],
          "stateMutability": "view",
          "type": "function"
        },
        {
          "inputs": [],
          "name": "routerAddress",
          "outputs": [
            {
              "internalType": "address",
              "name": "",
              "type": "address"
            }
          ],
          "stateMutability": "view",
          "type": "function"
        },
        {
          "inputs": [
            {
              "internalType": "address",
              "name": "_burnAddress",
              "type": "address"
            },
            {
              "internalType": "uint256",
              "name": "_buyAmount",
              "type": "uint256"
            },
            {
              "internalType": "uint256",
              "name": "_sellAmount",
              "type": "uint256"
            }
          ],
          "name": "setBurnTax",
          "outputs": [],
          "stateMutability": "nonpayable",
          "type": "function"
        },
        {
          "inputs": [
            {
              "internalType": "string",
              "name": "_name",
              "type": "string"
            }
          ],
          "name": "setCustomTaxName",
          "outputs": [],
          "stateMutability": "nonpayable",
          "type": "function"
        },
        {
          "inputs": [
            {
              "internalType": "address",
              "name": "_lpTokenHolder",
              "type": "address"
            },
            {
              "internalType": "uint256",
              "name": "_buyAmount",
              "type": "uint256"
            },
            {
              "internalType": "uint256",
              "name": "_sellAmount",
              "type": "uint256"
            }
          ],
          "name": "setLiquidityTax",
          "outputs": [],
          "stateMutability": "nonpayable",
          "type": "function"
        },
        {
          "inputs": [
            {
              "internalType": "bool",
              "name": "_respect1155",
              "type": "bool"
            },
            {
              "internalType": "uint256",
              "name": "_nft1155HoldFactor",
              "type": "uint256"
            },
            {
              "internalType": "address",
              "name": "_nftAddress",
              "type": "address"
            },
            {
              "internalType": "uint256",
              "name": "_nftId",
              "type": "uint256"
            }
          ],
          "name": "setNft1155Config",
          "outputs": [],
          "stateMutability": "nonpayable",
          "type": "function"
        },
        {
          "inputs": [
            {
              "internalType": "address",
              "name": "_pawthereum",
              "type": "address"
            }
          ],
          "name": "setPawthereum",
          "outputs": [],
          "stateMutability": "nonpayable",
          "type": "function"
        },
        {
          "inputs": [
            {
              "internalType": "bool",
              "name": "_respectPurr",
              "type": "bool"
            },
            {
              "internalType": "uint256",
              "name": "_purrBuyFactor",
              "type": "uint256"
            },
            {
              "internalType": "uint256",
              "name": "_purrSellFactor",
              "type": "uint256"
            }
          ],
          "name": "setPurrConfig",
          "outputs": [],
          "stateMutability": "nonpayable",
          "type": "function"
        },
        {
          "inputs": [
            {
              "internalType": "address",
              "name": "_newRouterAddress",
              "type": "address"
            }
          ],
          "name": "setRouterAddress",
          "outputs": [],
          "stateMutability": "nonpayable",
          "type": "function"
        },
        {
          "inputs": [
            {
              "internalType": "string",
              "name": "_name",
              "type": "string"
            },
            {
              "internalType": "address",
              "name": "_wallet",
              "type": "address"
            },
            {
              "internalType": "uint256",
              "name": "_buyAmount",
              "type": "uint256"
            },
            {
              "internalType": "uint256",
              "name": "_sellAmount",
              "type": "uint256"
            }
          ],
          "name": "setTax1",
          "outputs": [],
          "stateMutability": "nonpayable",
          "type": "function"
        },
        {
          "inputs": [
            {
              "internalType": "string",
              "name": "_name",
              "type": "string"
            },
            {
              "internalType": "address",
              "name": "_wallet",
              "type": "address"
            },
            {
              "internalType": "uint256",
              "name": "_buyAmount",
              "type": "uint256"
            },
            {
              "internalType": "uint256",
              "name": "_sellAmount",
              "type": "uint256"
            }
          ],
          "name": "setTax2",
          "outputs": [],
          "stateMutability": "nonpayable",
          "type": "function"
        },
        {
          "inputs": [
            {
              "internalType": "string",
              "name": "_name",
              "type": "string"
            },
            {
              "internalType": "address",
              "name": "_wallet",
              "type": "address"
            },
            {
              "internalType": "uint256",
              "name": "_buyAmount",
              "type": "uint256"
            },
            {
              "internalType": "uint256",
              "name": "_sellAmount",
              "type": "uint256"
            }
          ],
          "name": "setTax3",
          "outputs": [],
          "stateMutability": "nonpayable",
          "type": "function"
        },
        {
          "inputs": [
            {
              "internalType": "string",
              "name": "_name",
              "type": "string"
            },
            {
              "internalType": "address",
              "name": "_wallet",
              "type": "address"
            },
            {
              "internalType": "uint256",
              "name": "_buyAmount",
              "type": "uint256"
            },
            {
              "internalType": "uint256",
              "name": "_sellAmount",
              "type": "uint256"
            }
          ],
          "name": "setTax4",
          "outputs": [],
          "stateMutability": "nonpayable",
          "type": "function"
        },
        {
          "inputs": [
            {
              "internalType": "string",
              "name": "_name",
              "type": "string"
            },
            {
              "internalType": "address",
              "name": "_wallet",
              "type": "address"
            },
            {
              "internalType": "uint256",
              "name": "_buyAmount",
              "type": "uint256"
            },
            {
              "internalType": "uint256",
              "name": "_sellAmount",
              "type": "uint256"
            }
          ],
          "name": "setTokenTax",
          "outputs": [],
          "stateMutability": "nonpayable",
          "type": "function"
        },
        {
          "inputs": [
            {
              "internalType": "address",
              "name": "_address",
              "type": "address"
            }
          ],
          "name": "tax1",
          "outputs": [
            {
              "internalType": "uint256",
              "name": "",
              "type": "uint256"
            },
            {
              "internalType": "address",
              "name": "",
              "type": "address"
            }
          ],
          "stateMutability": "view",
          "type": "function"
        },
        {
          "inputs": [
            {
              "internalType": "address",
              "name": "_address",
              "type": "address"
            }
          ],
          "name": "tax1BuyAmount",
          "outputs": [
            {
              "internalType": "uint256",
              "name": "",
              "type": "uint256"
            }
          ],
          "stateMutability": "view",
          "type": "function"
        },
        {
          "inputs": [],
          "name": "tax1BuyAmountConfig",
          "outputs": [
            {
              "internalType": "uint256",
              "name": "",
              "type": "uint256"
            }
          ],
          "stateMutability": "view",
          "type": "function"
        },
        {
          "inputs": [],
          "name": "tax1Name",
          "outputs": [
            {
              "internalType": "string",
              "name": "",
              "type": "string"
            }
          ],
          "stateMutability": "view",
          "type": "function"
        },
        {
          "inputs": [
            {
              "internalType": "address",
              "name": "_address",
              "type": "address"
            }
          ],
          "name": "tax1SellAmount",
          "outputs": [
            {
              "internalType": "uint256",
              "name": "",
              "type": "uint256"
            }
          ],
          "stateMutability": "view",
          "type": "function"
        },
        {
          "inputs": [],
          "name": "tax1SellAmountConfig",
          "outputs": [
            {
              "internalType": "uint256",
              "name": "",
              "type": "uint256"
            }
          ],
          "stateMutability": "view",
          "type": "function"
        },
        {
          "inputs": [],
          "name": "tax1Wallet",
          "outputs": [
            {
              "internalType": "address",
              "name": "",
              "type": "address"
            }
          ],
          "stateMutability": "view",
          "type": "function"
        },
        {
          "inputs": [
            {
              "internalType": "address",
              "name": "_address",
              "type": "address"
            }
          ],
          "name": "tax2",
          "outputs": [
            {
              "internalType": "uint256",
              "name": "",
              "type": "uint256"
            },
            {
              "internalType": "address",
              "name": "",
              "type": "address"
            }
          ],
          "stateMutability": "view",
          "type": "function"
        },
        {
          "inputs": [
            {
              "internalType": "address",
              "name": "_address",
              "type": "address"
            }
          ],
          "name": "tax2BuyAmount",
          "outputs": [
            {
              "internalType": "uint256",
              "name": "",
              "type": "uint256"
            }
          ],
          "stateMutability": "view",
          "type": "function"
        },
        {
          "inputs": [],
          "name": "tax2BuyAmountConfig",
          "outputs": [
            {
              "internalType": "uint256",
              "name": "",
              "type": "uint256"
            }
          ],
          "stateMutability": "view",
          "type": "function"
        },
        {
          "inputs": [],
          "name": "tax2Name",
          "outputs": [
            {
              "internalType": "string",
              "name": "",
              "type": "string"
            }
          ],
          "stateMutability": "view",
          "type": "function"
        },
        {
          "inputs": [
            {
              "internalType": "address",
              "name": "_address",
              "type": "address"
            }
          ],
          "name": "tax2SellAmount",
          "outputs": [
            {
              "internalType": "uint256",
              "name": "",
              "type": "uint256"
            }
          ],
          "stateMutability": "view",
          "type": "function"
        },
        {
          "inputs": [],
          "name": "tax2SellAmountConfig",
          "outputs": [
            {
              "internalType": "uint256",
              "name": "",
              "type": "uint256"
            }
          ],
          "stateMutability": "view",
          "type": "function"
        },
        {
          "inputs": [],
          "name": "tax2Wallet",
          "outputs": [
            {
              "internalType": "address",
              "name": "",
              "type": "address"
            }
          ],
          "stateMutability": "view",
          "type": "function"
        },
        {
          "inputs": [
            {
              "internalType": "address",
              "name": "_address",
              "type": "address"
            }
          ],
          "name": "tax3BuyAmount",
          "outputs": [
            {
              "internalType": "uint256",
              "name": "",
              "type": "uint256"
            }
          ],
          "stateMutability": "view",
          "type": "function"
        },
        {
          "inputs": [],
          "name": "tax3BuyAmountConfig",
          "outputs": [
            {
              "internalType": "uint256",
              "name": "",
              "type": "uint256"
            }
          ],
          "stateMutability": "view",
          "type": "function"
        },
        {
          "inputs": [],
          "name": "tax3Name",
          "outputs": [
            {
              "internalType": "string",
              "name": "",
              "type": "string"
            }
          ],
          "stateMutability": "view",
          "type": "function"
        },
        {
          "inputs": [
            {
              "internalType": "address",
              "name": "_address",
              "type": "address"
            }
          ],
          "name": "tax3SellAmount",
          "outputs": [
            {
              "internalType": "uint256",
              "name": "",
              "type": "uint256"
            }
          ],
          "stateMutability": "view",
          "type": "function"
        },
        {
          "inputs": [],
          "name": "tax3SellAmountConfig",
          "outputs": [
            {
              "internalType": "uint256",
              "name": "",
              "type": "uint256"
            }
          ],
          "stateMutability": "view",
          "type": "function"
        },
        {
          "inputs": [],
          "name": "tax3Wallet",
          "outputs": [
            {
              "internalType": "address",
              "name": "",
              "type": "address"
            }
          ],
          "stateMutability": "view",
          "type": "function"
        },
        {
          "inputs": [
            {
              "internalType": "address",
              "name": "_address",
              "type": "address"
            }
          ],
          "name": "tax4BuyAmount",
          "outputs": [
            {
              "internalType": "uint256",
              "name": "",
              "type": "uint256"
            }
          ],
          "stateMutability": "view",
          "type": "function"
        },
        {
          "inputs": [],
          "name": "tax4BuyAmountConfig",
          "outputs": [
            {
              "internalType": "uint256",
              "name": "",
              "type": "uint256"
            }
          ],
          "stateMutability": "view",
          "type": "function"
        },
        {
          "inputs": [],
          "name": "tax4Name",
          "outputs": [
            {
              "internalType": "string",
              "name": "",
              "type": "string"
            }
          ],
          "stateMutability": "view",
          "type": "function"
        },
        {
          "inputs": [
            {
              "internalType": "address",
              "name": "_address",
              "type": "address"
            }
          ],
          "name": "tax4SellAmount",
          "outputs": [
            {
              "internalType": "uint256",
              "name": "",
              "type": "uint256"
            }
          ],
          "stateMutability": "view",
          "type": "function"
        },
        {
          "inputs": [],
          "name": "tax4SellAmountConfig",
          "outputs": [
            {
              "internalType": "uint256",
              "name": "",
              "type": "uint256"
            }
          ],
          "stateMutability": "view",
          "type": "function"
        },
        {
          "inputs": [],
          "name": "tax4Wallet",
          "outputs": [
            {
              "internalType": "address",
              "name": "",
              "type": "address"
            }
          ],
          "stateMutability": "view",
          "type": "function"
        },
        {
          "inputs": [
            {
              "internalType": "address",
              "name": "_address",
              "type": "address"
            }
          ],
          "name": "tokenTaxBuyAmount",
          "outputs": [
            {
              "internalType": "uint256",
              "name": "",
              "type": "uint256"
            }
          ],
          "stateMutability": "view",
          "type": "function"
        },
        {
          "inputs": [],
          "name": "tokenTaxBuyAmountConfig",
          "outputs": [
            {
              "internalType": "uint256",
              "name": "",
              "type": "uint256"
            }
          ],
          "stateMutability": "view",
          "type": "function"
        },
        {
          "inputs": [],
          "name": "tokenTaxName",
          "outputs": [
            {
              "internalType": "string",
              "name": "",
              "type": "string"
            }
          ],
          "stateMutability": "view",
          "type": "function"
        },
        {
          "inputs": [
            {
              "internalType": "address",
              "name": "_address",
              "type": "address"
            }
          ],
          "name": "tokenTaxSellAmount",
          "outputs": [
            {
              "internalType": "uint256",
              "name": "",
              "type": "uint256"
            }
          ],
          "stateMutability": "view",
          "type": "function"
        },
        {
          "inputs": [],
          "name": "tokenTaxSellAmountConfig",
          "outputs": [
            {
              "internalType": "uint256",
              "name": "",
              "type": "uint256"
            }
          ],
          "stateMutability": "view",
          "type": "function"
        },
        {
          "inputs": [],
          "name": "tokenTaxWallet",
          "outputs": [
            {
              "internalType": "address",
              "name": "",
              "type": "address"
            }
          ],
          "stateMutability": "view",
          "type": "function"
        },
        {
          "inputs": [
            {
              "internalType": "address",
              "name": "newOwner",
              "type": "address"
            }
          ],
          "name": "transferOwnership",
          "outputs": [],
          "stateMutability": "nonpayable",
          "type": "function"
        },
        {
          "inputs": [
            {
              "internalType": "uint256",
              "name": "_amount",
              "type": "uint256"
            }
          ],
          "name": "withdrawEthToOwner",
          "outputs": [],
          "stateMutability": "nonpayable",
          "type": "function"
        },
        {
          "inputs": [
            {
              "internalType": "address",
              "name": "tokenAddress",
              "type": "address"
            },
            {
              "internalType": "uint256",
              "name": "amount",
              "type": "uint256"
            }
          ],
          "name": "withdrawTokenToOwner",
          "outputs": [],
          "stateMutability": "nonpayable",
          "type": "function"
        },
        {
          "stateMutability": "payable",
          "type": "receive"
        }
      ],
      "evm": {
        "bytecode": {
          "linkReferences": {},
          "object": "6001805460ff60a01b19168155600280546001600160a01b0319908116736de1863f4f408d6d2ffc34a83308a386d8316b1917909155600060035561138860048190556005805460ff1916909317909255600691909155614e2060075560088054909116739ac64cc6e4415144c455bd8e4837fea55603e5c317905560c0604052600d60808190526c09ac2e4d6cae8d2dcce40a8c2f609b1b60a0908152620000ac9160099190620002d0565b50600a80546001600160a01b031916736dfcd4331b0d86bfe0318706c76b832da4c03c1b17905560c8600b818155600c91909155604080518082019091528181526a086d0c2e4d2e8f240a8c2f60ab1b60209091019081526200011391600d9190620002d0565b50600e80546001600160a01b03191673a56891cfbd0175e6fc46bf7d647de26100e95c7817905560c8600f8190556010556040805180820190915260158082527f427579204261636b20616e64204275726e20546178000000000000000000000060209092019182526200018a91601191620002d0565b50601280546001600160a01b0319908116735a185c361dd4573f1bb8044d5d8275e25831b53e17909155601680548216739036464e4ecd2d40d21ee38a0398aedd6805a09b908117909155601a8054831673445664d66c294f49bb55a90d3c30bcab0f9502a9179055601d8054831661dead1790556020805490921617905560c860218190556022553480156200022057600080fd5b506040516200346438038062003464833981016040819052620002439162000393565b6200024e3362000280565b600180546001600160a01b039384166001600160a01b0319918216179091556008805492909316911617905562000408565b600080546001600160a01b038381166001600160a01b0319831681178455604051919092169283917f8be0079c531659141344cd1fd0a4f28419497f9722a3daafe3b4186f6b6457e09190a35050565b828054620002de90620003cb565b90600052602060002090601f0160209004810192826200030257600085556200034d565b82601f106200031d57805160ff19168380011785556200034d565b828001600101855582156200034d579182015b828111156200034d57825182559160200191906001019062000330565b506200035b9291506200035f565b5090565b5b808211156200035b576000815560010162000360565b80516001600160a01b03811681146200038e57600080fd5b919050565b60008060408385031215620003a757600080fd5b620003b28362000376565b9150620003c26020840162000376565b90509250929050565b600181811c90821680620003e057607f821691505b602082108114156200040257634e487b7160e01b600052602260045260246000fd5b50919050565b61304c80620004186000396000f3fe6080604052600436106104615760003560e01c8063832033c21161023f578063bbaec3e011610139578063e1eb5154116100b6578063eaa847761161007a578063eaa8477614610d59578063f2fde38b14610d6f578063f39331fd14610d8f578063f3b6966b14610daf578063f9110af314610dcf57600080fd5b8063e1eb515414610cb9578063e325555214610cd9578063e52aaf2b14610cf9578063e5902c2d14610d19578063e69aee9114610d3957600080fd5b8063cb6798a4116100fd578063cb6798a414610c2d578063ce94b99a14610c43578063d162d41514610c59578063d505cc4d14610c79578063e036a58214610c9957600080fd5b8063bbaec3e014610b8d578063bc040da314610bad578063c554d74c14610bcd578063c8d87f9114610bed578063ca682c6d14610c0d57600080fd5b80639bc81a2c116101c7578063ab1836391161018b578063ab18363914610b08578063ae46567c14610b28578063b40a3f9314610b3d578063b566540014610b53578063b7b4005014610b6d57600080fd5b80639bc81a2c14610a725780639d4c411c14610a92578063a26c862914610aa8578063a385ac3114610ac8578063a8b5afdc14610ae857600080fd5b8063885b922d1161020e578063885b922d146109d15780638da5cb5b146109f15780639712a17314610a0f5780639818748414610a255780639af1461214610a5257600080fd5b8063832033c21461094a57806383d611e014610960578063862737c914610980578063875138aa146109a057600080fd5b806341cb87fc1161035b578063715018a6116102d8578063776f1e101161029c578063776f1e10146108d55780637d485eb9146108ea5780637e11b31f146109005780637f582e0e1461091557806380384d4d1461092a57600080fd5b8063715018a61461084a5780637435a21f1461085f57806375af30911461087557806376d747e9146108955780637749eeb3146108b557600080fd5b806356a6338f1161031f57806356a6338f146107c95780635c5aa9b2146107e95780636a5c5c3a146107fe5780636f1bd5e01461081457806370d5ae051461082a57600080fd5b806341cb87fc1461072b57806342d7359b1461074b57806348de3f4f146107615780634f2fc5c11461079e57806356355a90146107b457600080fd5b806318b38e8a116103e95780633268cc56116103ad5780633268cc5614610673578063357579d2146106935780633c743beb146106a95780633e99c1e4146106bf5780634144f1c41461070b57600080fd5b806318b38e8a146105e75780631a788a02146105fd5780632cbfc5a51461061d5780632f1fc52c1461063d5780633079221b1461065d57600080fd5b8063107bf30411610430578063107bf3041461053757806310b567ad146105575780631217b0cb1461058f5780631820fe0c146105a55780631866cbfa146105c557600080fd5b806305bdf4641461046d5780630787150a1461048f57806307ad6d48146104c25780630a9ee06c146104e257600080fd5b3661046857005b600080fd5b34801561047957600080fd5b5061048d61048836600461279b565b610def565b005b34801561049b57600080fd5b506104af6104aa3660046127d0565b610e90565b6040519081526020015b60405180910390f35b3480156104ce57600080fd5b506104af6104dd3660046127d0565b610ed7565b3480156104ee57600080fd5b506105026104fd3660046127d0565b610fd8565b604080519788526020880196909652948601939093526060850191909152608084015260a083015260c082015260e0016104b9565b34801561054357600080fd5b5061048d6105523660046127ed565b611039565b34801561056357600080fd5b50601254610577906001600160a01b031681565b6040516001600160a01b0390911681526020016104b9565b34801561059b57600080fd5b506104af60035481565b3480156105b157600080fd5b5061048d6105c03660046128a9565b611094565b3480156105d157600080fd5b506105da6111e1565b6040516104b99190612955565b3480156105f357600080fd5b506104af60215481565b34801561060957600080fd5b506105776106183660046127d0565b61126f565b34801561062957600080fd5b50601a54610577906001600160a01b031681565b34801561064957600080fd5b506104af6106583660046127d0565b6113cc565b34801561066957600080fd5b506104af60225481565b34801561067f57600080fd5b50600854610577906001600160a01b031681565b34801561069f57600080fd5b506104af601e5481565b3480156106b557600080fd5b506104af60175481565b3480156106cb57600080fd5b506106df6106da3660046127d0565b6113f0565b604080516001600160701b03948516815293909216602084015263ffffffff16908201526060016104b9565b34801561071757600080fd5b506104af6107263660046127d0565b611471565b34801561073757600080fd5b5061048d6107463660046127d0565b611562565b34801561075757600080fd5b506104af601f5481565b34801561076d57600080fd5b5061078161077c3660046127d0565b6115ee565b604080519283526001600160a01b039091166020830152016104b9565b3480156107aa57600080fd5b506104af600f5481565b3480156107c057600080fd5b506105da611611565b3480156107d557600080fd5b5061048d6107e4366004612968565b61161e565b3480156107f557600080fd5b506105da61178c565b34801561080a57600080fd5b506104af60185481565b34801561082057600080fd5b506104af60145481565b34801561083657600080fd5b50601d54610577906001600160a01b031681565b34801561085657600080fd5b5061048d611799565b34801561086b57600080fd5b506104af60045481565b34801561088157600080fd5b506104af6108903660046127d0565b6117cf565b3480156108a157600080fd5b506104af6108b03660046127d0565b6117f3565b3480156108c157600080fd5b506104af6108d03660046127d0565b611845565b3480156108e157600080fd5b506105da611869565b3480156108f657600080fd5b506104af600c5481565b34801561090c57600080fd5b506104af600281565b34801561092157600080fd5b506105da611876565b34801561093657600080fd5b50601654610577906001600160a01b031681565b34801561095657600080fd5b506104af60135481565b34801561096c57600080fd5b506104af61097b3660046127d0565b611883565b34801561098c57600080fd5b5061048d61099b3660046128a9565b6118a7565b3480156109ac57600080fd5b506001546109c190600160a01b900460ff1681565b60405190151581526020016104b9565b3480156109dd57600080fd5b506104af6109ec3660046127d0565b6119e2565b3480156109fd57600080fd5b506000546001600160a01b0316610577565b348015610a1b57600080fd5b506104af601b5481565b348015610a3157600080fd5b50610a3a6119f7565b6040516104b99c9b9a99989796959493929190612994565b348015610a5e57600080fd5b5061048d610a6d3660046127d0565b611d3a565b348015610a7e57600080fd5b5061048d610a8d3660046128a9565b611d86565b348015610a9e57600080fd5b506104af60075481565b348015610ab457600080fd5b506104af610ac33660046127d0565b611ec1565b348015610ad457600080fd5b506104af610ae33660046127d0565b611ee5565b348015610af457600080fd5b5061048d610b0336600461279b565b611f09565b348015610b1457600080fd5b506104af610b233660046127d0565b611f91565b348015610b3457600080fd5b506105da611fb5565b348015610b4957600080fd5b506104af600b5481565b348015610b5f57600080fd5b506005546109c19060ff1681565b348015610b7957600080fd5b5061048d610b883660046128a9565b611fc2565b348015610b9957600080fd5b5061048d610ba8366004612a8c565b6120fd565b348015610bb957600080fd5b506104af610bc8366004612968565b612141565b348015610bd957600080fd5b506104af610be83660046127d0565b6121b1565b348015610bf957600080fd5b5061048d610c08366004612aac565b6121d5565b348015610c1957600080fd5b5061048d610c28366004612af4565b612248565b348015610c3957600080fd5b506104af60065481565b348015610c4f57600080fd5b506104af601c5481565b348015610c6557600080fd5b5061048d610c743660046128a9565b612349565b348015610c8557600080fd5b50602054610577906001600160a01b031681565b348015610ca557600080fd5b506104af610cb43660046127d0565b612484565b348015610cc557600080fd5b506104af610cd43660046127d0565b6124a8565b348015610ce557600080fd5b50600e54610577906001600160a01b031681565b348015610d0557600080fd5b50600254610577906001600160a01b031681565b348015610d2557600080fd5b506104af610d343660046127d0565b6124cc565b348015610d4557600080fd5b506104af610d543660046127d0565b6124f0565b348015610d6557600080fd5b506104af60105481565b348015610d7b57600080fd5b5061048d610d8a3660046127d0565b612514565b348015610d9b57600080fd5b50610781610daa3660046127d0565b6125af565b348015610dbb57600080fd5b50600a54610577906001600160a01b031681565b348015610ddb57600080fd5b50610502610dea3660046127d0565b6125d2565b6000546001600160a01b03163314610e225760405162461bcd60e51b8152600401610e1990612b29565b60405180910390fd5b6020805460218054602280546001600160a01b038981166001600160a01b03198716811790975593889055908690556040519290931693909291600080516020612ff783398151915291610e8091869186918691908b908b90612b5e565b60405180910390a1505050505050565b600080610e9c836113cc565b610ea584611ec1565b610eaf9190612c0d565b90506002610ebc84610ed7565b610ec69190612c25565b610ed09082612c0d565b9392505050565b60215460015460009190600160a01b900460ff168015610efb5750610efb8361261c565b15610f2657610f0c6004600a612d2b565b600454610f199083612d37565b610f239190612c25565b90505b60055460ff168015610faa5750600160009054906101000a90046001600160a01b03166001600160a01b031663a13ec8d36040518163ffffffff1660e01b8152600401602060405180830381865afa158015610f86573d6000803e3d6000fd5b505050506040513d601f19601f82011682018060405250810190610faa9190612d56565b15610fd257610fbb6004600a612d2b565b600654610fc89083612d37565b610ed09190612c25565b92915050565b6000806000806000806000610fec886124f0565b610ff5896124a8565b610ffe8a611f91565b6110078b611883565b6110108c6117cf565b6110198d611845565b6110228e611471565b959e949d50929b5090995097509550909350915050565b6000546001600160a01b031633146110635760405162461bcd60e51b8152600401610e1990612b29565b604051339082156108fc029083906000818181858888f19350505050158015611090573d6000803e3d6000fd5b5050565b6000546001600160a01b031633146110be5760405162461bcd60e51b8152600401610e1990612b29565b6000601580546110cd90612d73565b80601f01602080910402602001604051908101604052809291908181526020018280546110f990612d73565b80156111465780601f1061111b57610100808354040283529160200191611146565b820191906000526020600020905b81548152906001019060200180831161112957829003601f168201915b50506016546017546018548b519697506001600160a01b039092169590945090925061117a915060159060208b01906126ed565b50601680546001600160a01b0319166001600160a01b03891690811790915560178790556018869055604051600080516020612ff7833981519152916111cf918791879187918791601591908e908e90612e4e565b60405180910390a15050505050505050565b601580546111ee90612d73565b80601f016020809104026020016040519081016040528092919081815260200182805461121a90612d73565b80156112675780601f1061123c57610100808354040283529160200191611267565b820191906000526020600020905b81548152906001019060200180831161124a57829003601f168201915b505050505081565b6008546040805163c45a015560e01b815290516000926001600160a01b0316918391839163c45a01559160048083019260209291908290030181865afa1580156112bd573d6000803e3d6000fd5b505050506040513d601f19601f820116820180604052508101906112e19190612eb5565b9050806001600160a01b031663e6a43905836001600160a01b031663ad5c46486040518163ffffffff1660e01b8152600401602060405180830381865afa158015611330573d6000803e3d6000fd5b505050506040513d601f19601f820116820180604052508101906113549190612eb5565b6040516001600160e01b031960e084901b1681526001600160a01b0391821660048201529087166024820152604401602060405180830381865afa1580156113a0573d6000803e3d6000fd5b505050506040513d601f19601f820116820180604052508101906113c49190612eb5565b949350505050565b601e5460015460009190600160a01b900460ff168015610efb5750610efb8361261c565b6000806000806113ff8561126f565b9050806001600160a01b0316630902f1ac6040518163ffffffff1660e01b8152600401606060405180830381865afa15801561143f573d6000803e3d6000fd5b505050506040513d601f19601f820116820180604052508101906114639190612eee565b935093509350509193909250565b60225460015460009190600160a01b900460ff16801561149557506114958361261c565b156114c0576114a66004600a612d2b565b6004546114b39083612d37565b6114bd9190612c25565b90505b60055460ff1680156115445750600160009054906101000a90046001600160a01b03166001600160a01b031663a13ec8d36040518163ffffffff1660e01b8152600401602060405180830381865afa158015611520573d6000803e3d6000fd5b505050506040513d601f19601f820116820180604052508101906115449190612d56565b15610fd2576115556004600a612d2b565b600754610fc89083612d37565b6000546001600160a01b0316331461158c5760405162461bcd60e51b8152600401610e1990612b29565b600880546001600160a01b038381166001600160a01b031983168117909355604080519190921680825260208201939093527f02dc5c233404867c793b749c6d644beb2277536d18a7e7974d3f238e4c6f168491015b60405180910390a15050565b6000806115fa836124cc565b600e5490946001600160a01b039091169350915050565b600980546111ee90612d73565b6000546001600160a01b031633146116485760405162461bcd60e51b8152600401610e1990612b29565b6040516370a0823160e01b81523060048201526000906001600160a01b038416906370a0823190602401602060405180830381865afa15801561168f573d6000803e3d6000fd5b505050506040513d601f19601f820116820180604052508101906116b39190612f3e565b9050818110156117055760405162461bcd60e51b815260206004820152601a60248201527f496e73756666696369656e7420746f6b656e2062616c616e63650000000000006044820152606401610e19565b6001600160a01b03831663a9059cbb336040516001600160e01b031960e084901b1681526001600160a01b039091166004820152602481018590526044016020604051808303816000875af1158015611762573d6000803e3d6000fd5b505050506040513d601f19601f820116820180604052508101906117869190612d56565b50505050565b601180546111ee90612d73565b6000546001600160a01b031633146117c35760405162461bcd60e51b8152600401610e1990612b29565b6117cd600061269d565b565b601c5460015460009190600160a01b900460ff16801561149557506114958361261c565b6000806117ff83611883565b61180884611f91565b611811856124a8565b61181a866124f0565b6118249190612c0d565b61182e9190612c0d565b6118389190612c0d565b90506002610ebc84611471565b601f5460015460009190600160a01b900460ff16801561149557506114958361261c565b600d80546111ee90612d73565b602380546111ee90612d73565b60185460015460009190600160a01b900460ff16801561149557506114958361261c565b6000546001600160a01b031633146118d15760405162461bcd60e51b8152600401610e1990612b29565b6000600d80546118e090612d73565b80601f016020809104026020016040519081016040528092919081815260200182805461190c90612d73565b80156119595780601f1061192e57610100808354040283529160200191611959565b820191906000526020600020905b81548152906001019060200180831161193c57829003601f168201915b5050600e54600f546010548b519697506001600160a01b039092169590945090925061198d9150600d9060208b01906126ed565b50600e80546001600160a01b0319166001600160a01b038916908117909155600f8790556010869055604051600080516020612ff7833981519152916111cf918791879187918791600d91908e908e90612e4e565b6000806119ee83611845565b61182e846117cf565b600a54600e54601254601654601a54601d54602054600980546060986000988a988a988a988a988a988a988a988a988998899893976001600160a01b0392831697600d979284169660119685169560159593841694601994938416939081169216908c90611a6490612d73565b80601f0160208091040260200160405190810160405280929190818152602001828054611a9090612d73565b8015611add5780601f10611ab257610100808354040283529160200191611add565b820191906000526020600020905b815481529060010190602001808311611ac057829003601f168201915b50505050509b50898054611af090612d73565b80601f0160208091040260200160405190810160405280929190818152602001828054611b1c90612d73565b8015611b695780601f10611b3e57610100808354040283529160200191611b69565b820191906000526020600020905b815481529060010190602001808311611b4c57829003601f168201915b50505050509950878054611b7c90612d73565b80601f0160208091040260200160405190810160405280929190818152602001828054611ba890612d73565b8015611bf55780601f10611bca57610100808354040283529160200191611bf5565b820191906000526020600020905b815481529060010190602001808311611bd857829003601f168201915b50505050509750858054611c0890612d73565b80601f0160208091040260200160405190810160405280929190818152602001828054611c3490612d73565b8015611c815780601f10611c5657610100808354040283529160200191611c81565b820191906000526020600020905b815481529060010190602001808311611c6457829003601f168201915b50505050509550838054611c9490612d73565b80601f0160208091040260200160405190810160405280929190818152602001828054611cc090612d73565b8015611d0d5780601f10611ce257610100808354040283529160200191611d0d565b820191906000526020600020905b815481529060010190602001808311611cf057829003601f168201915b505050505093509b509b509b509b509b509b509b509b509b509b509b509b50909192939495969798999a9b565b6000546001600160a01b03163314611d645760405162461bcd60e51b8152600401610e1990612b29565b600180546001600160a01b0319166001600160a01b0392909216919091179055565b6000546001600160a01b03163314611db05760405162461bcd60e51b8152600401610e1990612b29565b600060098054611dbf90612d73565b80601f0160208091040260200160405190810160405280929190818152602001828054611deb90612d73565b8015611e385780601f10611e0d57610100808354040283529160200191611e38565b820191906000526020600020905b815481529060010190602001808311611e1b57829003601f168201915b5050600a54600b54600c548b519697506001600160a01b0390921695909450909250611e6c915060099060208b01906126ed565b50600a80546001600160a01b0319166001600160a01b038916908117909155600b879055600c869055604051600080516020612ff7833981519152916111cf918791879187918791600991908e908e90612e4e565b601b5460015460009190600160a01b900460ff168015610efb5750610efb8361261c565b60135460015460009190600160a01b900460ff168015610efb5750610efb8361261c565b6000546001600160a01b03163314611f335760405162461bcd60e51b8152600401610e1990612b29565b601d8054601e8054601f80546001600160a01b038981166001600160a01b03198716811790975593889055908690556040519290931693909291600080516020612ff783398151915291610e8091869186918691908b908b90612f57565b60145460015460009190600160a01b900460ff16801561149557506114958361261c565b601980546111ee90612d73565b6000546001600160a01b03163314611fec5760405162461bcd60e51b8152600401610e1990612b29565b600060198054611ffb90612d73565b80601f016020809104026020016040519081016040528092919081815260200182805461202790612d73565b80156120745780601f1061204957610100808354040283529160200191612074565b820191906000526020600020905b81548152906001019060200180831161205757829003601f168201915b5050601a54601b54601c548b519697506001600160a01b03909216959094509092506120a8915060199060208b01906126ed565b50601a80546001600160a01b0319166001600160a01b038916908117909155601b879055601c869055604051600080516020612ff7833981519152916111cf918791879187918791601991908e908e90612e4e565b6000546001600160a01b031633146121275760405162461bcd60e51b8152600401610e1990612b29565b6005805460ff191693151593909317909255600655600755565b60008061214d84612484565b61215685611ee5565b61215f866124cc565b612168876121b1565b6121729190612c0d565b61217c9190612c0d565b6121869190612c0d565b9050600261219385610ed7565b61219d9190612c25565b6121a78285612c0d565b6113c49190612c0d565b600b5460015460009190600160a01b900460ff168015610efb5750610efb8361261c565b6000546001600160a01b031633146121ff5760405162461bcd60e51b8152600401610e1990612b29565b60018054941515600160a01b0260ff60a01b1990951694909417909355600280546001600160a01b039092166001600160a01b0319909216919091179055600391909155600455565b6000546001600160a01b031633146122725760405162461bcd60e51b8152600401610e1990612b29565b60006023805461228190612d73565b80601f01602080910402602001604051908101604052809291908181526020018280546122ad90612d73565b80156122fa5780601f106122cf576101008083540402835291602001916122fa565b820191906000526020600020905b8154815290600101906020018083116122dd57829003601f168201915b50508551939450612316936023935060208701925090506126ed565b507ff1b71db64e8d2411035c219af08906744c6341d677da5fc7c9f08dc7bd1a9a698160236040516115e2929190612fc8565b6000546001600160a01b031633146123735760405162461bcd60e51b8152600401610e1990612b29565b60006011805461238290612d73565b80601f01602080910402602001604051908101604052809291908181526020018280546123ae90612d73565b80156123fb5780601f106123d0576101008083540402835291602001916123fb565b820191906000526020600020905b8154815290600101906020018083116123de57829003601f168201915b50506012546013546014548b519697506001600160a01b039092169590945090925061242f915060119060208b01906126ed565b50601280546001600160a01b0319166001600160a01b03891690811790915560138790556014869055604051600080516020612ff7833981519152916111cf918791879187918791601191908e908e90612e4e565b60175460015460009190600160a01b900460ff168015610efb5750610efb8361261c565b60105460015460009190600160a01b900460ff16801561149557506114958361261c565b600f5460015460009190600160a01b900460ff168015610efb5750610efb8361261c565b600c5460015460009190600160a01b900460ff16801561149557506114958361261c565b6000546001600160a01b0316331461253e5760405162461bcd60e51b8152600401610e1990612b29565b6001600160a01b0381166125a35760405162461bcd60e51b815260206004820152602660248201527f4f776e61626c653a206e6577206f776e657220697320746865207a65726f206160448201526564647265737360d01b6064820152608401610e19565b6125ac8161269d565b50565b6000806125bb836121b1565b600a5490946001600160a01b039091169350915050565b60008060008060008060006125e6886121b1565b6125ef896124cc565b6125f88a611ee5565b6126018b612484565b61260a8c611ec1565b6126138d6113cc565b6110228e610ed7565b600254600354604051627eeac760e11b81526001600160a01b03848116600483015260248201929092526000928392169062fdd58e90604401602060405180830381865afa158015612672573d6000803e3d6000fd5b505050506040513d601f19601f820116820180604052508101906126969190612f3e565b1192915050565b600080546001600160a01b038381166001600160a01b0319831681178455604051919092169283917f8be0079c531659141344cd1fd0a4f28419497f9722a3daafe3b4186f6b6457e09190a35050565b8280546126f990612d73565b90600052602060002090601f01602090048101928261271b5760008555612761565b82601f1061273457805160ff1916838001178555612761565b82800160010185558215612761579182015b82811115612761578251825591602001919060010190612746565b5061276d929150612771565b5090565b5b8082111561276d5760008155600101612772565b6001600160a01b03811681146125ac57600080fd5b6000806000606084860312156127b057600080fd5b83356127bb81612786565b95602085013595506040909401359392505050565b6000602082840312156127e257600080fd5b8135610ed081612786565b6000602082840312156127ff57600080fd5b5035919050565b634e487b7160e01b600052604160045260246000fd5b600082601f83011261282d57600080fd5b813567ffffffffffffffff8082111561284857612848612806565b604051601f8301601f19908116603f0116810190828211818310171561287057612870612806565b8160405283815286602085880101111561288957600080fd5b836020870160208301376000602085830101528094505050505092915050565b600080600080608085870312156128bf57600080fd5b843567ffffffffffffffff8111156128d657600080fd5b6128e28782880161281c565b94505060208501356128f381612786565b93969395505050506040820135916060013590565b6000815180845260005b8181101561292e57602081850181015186830182015201612912565b81811115612940576000602083870101525b50601f01601f19169290920160200192915050565b602081526000610ed06020830184612908565b6000806040838503121561297b57600080fd5b823561298681612786565b946020939093013593505050565b610180815260006129a961018083018f612908565b6001600160a01b038e16602084015282810360408401526129ca818e612908565b6001600160a01b038d166060850152905082810360808401526129ed818c612908565b6001600160a01b038b1660a0850152905082810360c0840152612a10818a612908565b6001600160a01b03891660e08501529050828103610100840152612a348188612908565b915050612a4d6101208301866001600160a01b03169052565b6001600160a01b0384166101408301526001600160a01b0383166101608301529d9c50505050505050505050505050565b80151581146125ac57600080fd5b600080600060608486031215612aa157600080fd5b83356127bb81612a7e565b60008060008060808587031215612ac257600080fd5b8435612acd81612a7e565b9350602085013592506040850135612ae481612786565b9396929550929360600135925050565b600060208284031215612b0657600080fd5b813567ffffffffffffffff811115612b1d57600080fd5b6113c48482850161281c565b6020808252818101527f4f776e61626c653a2063616c6c6572206973206e6f7420746865206f776e6572604082015260600190565b6000610100808352612b8c818401600d81526c098d2e2ead2c8d2e8f240a8c2f609b1b602082015260400190565b6001600160a01b038a81166020860152604085018a9052606085018990528482036080860152909150612bd982600d81526c098d2e2ead2c8d2e8f240a8c2f609b1b602082015260400190565b961660a0840152505060c081019290925260e0909101529392505050565b634e487b7160e01b600052601160045260246000fd5b60008219821115612c2057612c20612bf7565b500190565b600082612c4257634e487b7160e01b600052601260045260246000fd5b500490565b600181815b80851115612c82578160001904821115612c6857612c68612bf7565b80851615612c7557918102915b93841c9390800290612c4c565b509250929050565b600082612c9957506001610fd2565b81612ca657506000610fd2565b8160018114612cbc5760028114612cc657612ce2565b6001915050610fd2565b60ff841115612cd757612cd7612bf7565b50506001821b610fd2565b5060208310610133831016604e8410600b8410161715612d05575081810a610fd2565b612d0f8383612c47565b8060001904821115612d2357612d23612bf7565b029392505050565b6000610ed08383612c8a565b6000816000190483118215151615612d5157612d51612bf7565b500290565b600060208284031215612d6857600080fd5b8151610ed081612a7e565b600181811c90821680612d8757607f821691505b60208210811415612da857634e487b7160e01b600052602260045260246000fd5b50919050565b8054600090600181811c9080831680612dc857607f831692505b6020808410821415612dea57634e487b7160e01b600052602260045260246000fd5b83885260208801828015612e055760018114612e1657612e41565b60ff19871682528282019750612e41565b60008981526020902060005b87811015612e3b57815484820152908601908401612e22565b83019850505b5050505050505092915050565b6000610100808352612e628184018c612908565b6001600160a01b038b81166020860152604085018b9052606085018a90528482036080860152909150612e958289612dae565b961660a0840152505060c081019290925260e09091015295945050505050565b600060208284031215612ec757600080fd5b8151610ed081612786565b80516001600160701b0381168114612ee957600080fd5b919050565b600080600060608486031215612f0357600080fd5b612f0c84612ed2565b9250612f1a60208501612ed2565b9150604084015163ffffffff81168114612f3357600080fd5b809150509250925092565b600060208284031215612f5057600080fd5b5051919050565b6000610100808352612f808184016008815267084eae4dc40a8c2f60c31b602082015260400190565b6001600160a01b038a81166020860152604085018a9052606085018990528482036080860152909150612bd9826008815267084eae4dc40a8c2f60c31b602082015260400190565b604081526000612fdb6040830185612908565b8281036020840152612fed8185612dae565b9594505050505056fea8a8ba62162bcc4c125b3b832495f50d313eb4892e9ad2ab9900fe34831c40a6a264697066735822122025d8106c5643079e546e5bc5acbea38507e5583bcb8fd700ca6a981a5a7d657464736f6c634300080c0033",
          "opcodes": "PUSH1 0x1 DUP1 SLOAD PUSH1 0xFF PUSH1 0xA0 SHL NOT AND DUP2 SSTORE PUSH1 0x2 DUP1 SLOAD PUSH1 0x1 PUSH1 0x1 PUSH1 0xA0 SHL SUB NOT SWAP1 DUP2 AND PUSH20 0x6DE1863F4F408D6D2FFC34A83308A386D8316B19 OR SWAP1 SWAP2 SSTORE PUSH1 0x0 PUSH1 0x3 SSTORE PUSH2 0x1388 PUSH1 0x4 DUP2 SWAP1 SSTORE PUSH1 0x5 DUP1 SLOAD PUSH1 0xFF NOT AND SWAP1 SWAP4 OR SWAP1 SWAP3 SSTORE PUSH1 0x6 SWAP2 SWAP1 SWAP2 SSTORE PUSH2 0x4E20 PUSH1 0x7 SSTORE PUSH1 0x8 DUP1 SLOAD SWAP1 SWAP2 AND PUSH20 0x9AC64CC6E4415144C455BD8E4837FEA55603E5C3 OR SWAP1 SSTORE PUSH1 0xC0 PUSH1 0x40 MSTORE PUSH1 0xD PUSH1 0x80 DUP2 SWAP1 MSTORE PUSH13 0x9AC2E4D6CAE8D2DCCE40A8C2F PUSH1 0x9B SHL PUSH1 0xA0 SWAP1 DUP2 MSTORE PUSH3 0xAC SWAP2 PUSH1 0x9 SWAP2 SWAP1 PUSH3 0x2D0 JUMP JUMPDEST POP PUSH1 0xA DUP1 SLOAD PUSH1 0x1 PUSH1 0x1 PUSH1 0xA0 SHL SUB NOT AND PUSH20 0x6DFCD4331B0D86BFE0318706C76B832DA4C03C1B OR SWAP1 SSTORE PUSH1 0xC8 PUSH1 0xB DUP2 DUP2 SSTORE PUSH1 0xC SWAP2 SWAP1 SWAP2 SSTORE PUSH1 0x40 DUP1 MLOAD DUP1 DUP3 ADD SWAP1 SWAP2 MSTORE DUP2 DUP2 MSTORE PUSH11 0x86D0C2E4D2E8F240A8C2F PUSH1 0xAB SHL PUSH1 0x20 SWAP1 SWAP2 ADD SWAP1 DUP2 MSTORE PUSH3 0x113 SWAP2 PUSH1 0xD SWAP2 SWAP1 PUSH3 0x2D0 JUMP JUMPDEST POP PUSH1 0xE DUP1 SLOAD PUSH1 0x1 PUSH1 0x1 PUSH1 0xA0 SHL SUB NOT AND PUSH20 0xA56891CFBD0175E6FC46BF7D647DE26100E95C78 OR SWAP1 SSTORE PUSH1 0xC8 PUSH1 0xF DUP2 SWAP1 SSTORE PUSH1 0x10 SSTORE PUSH1 0x40 DUP1 MLOAD DUP1 DUP3 ADD SWAP1 SWAP2 MSTORE PUSH1 0x15 DUP1 DUP3 MSTORE PUSH32 0x427579204261636B20616E64204275726E205461780000000000000000000000 PUSH1 0x20 SWAP1 SWAP3 ADD SWAP2 DUP3 MSTORE PUSH3 0x18A SWAP2 PUSH1 0x11 SWAP2 PUSH3 0x2D0 JUMP JUMPDEST POP PUSH1 0x12 DUP1 SLOAD PUSH1 0x1 PUSH1 0x1 PUSH1 0xA0 SHL SUB NOT SWAP1 DUP2 AND PUSH20 0x5A185C361DD4573F1BB8044D5D8275E25831B53E OR SWAP1 SWAP2 SSTORE PUSH1 0x16 DUP1 SLOAD DUP3 AND PUSH20 0x9036464E4ECD2D40D21EE38A0398AEDD6805A09B SWAP1 DUP2 OR SWAP1 SWAP2 SSTORE PUSH1 0x1A DUP1 SLOAD DUP4 AND PUSH20 0x445664D66C294F49BB55A90D3C30BCAB0F9502A9 OR SWAP1 SSTORE PUSH1 0x1D DUP1 SLOAD DUP4 AND PUSH2 0xDEAD OR SWAP1 SSTORE PUSH1 0x20 DUP1 SLOAD SWAP1 SWAP3 AND OR SWAP1 SSTORE PUSH1 0xC8 PUSH1 0x21 DUP2 SWAP1 SSTORE PUSH1 0x22 SSTORE CALLVALUE DUP1 ISZERO PUSH3 0x220 JUMPI PUSH1 0x0 DUP1 REVERT JUMPDEST POP PUSH1 0x40 MLOAD PUSH3 0x3464 CODESIZE SUB DUP1 PUSH3 0x3464 DUP4 CODECOPY DUP2 ADD PUSH1 0x40 DUP2 SWAP1 MSTORE PUSH3 0x243 SWAP2 PUSH3 0x393 JUMP JUMPDEST PUSH3 0x24E CALLER PUSH3 0x280 JUMP JUMPDEST PUSH1 0x1 DUP1 SLOAD PUSH1 0x1 PUSH1 0x1 PUSH1 0xA0 SHL SUB SWAP4 DUP5 AND PUSH1 0x1 PUSH1 0x1 PUSH1 0xA0 SHL SUB NOT SWAP2 DUP3 AND OR SWAP1 SWAP2 SSTORE PUSH1 0x8 DUP1 SLOAD SWAP3 SWAP1 SWAP4 AND SWAP2 AND OR SWAP1 SSTORE PUSH3 0x408 JUMP JUMPDEST PUSH1 0x0 DUP1 SLOAD PUSH1 0x1 PUSH1 0x1 PUSH1 0xA0 SHL SUB DUP4 DUP2 AND PUSH1 0x1 PUSH1 0x1 PUSH1 0xA0 SHL SUB NOT DUP4 AND DUP2 OR DUP5 SSTORE PUSH1 0x40 MLOAD SWAP2 SWAP1 SWAP3 AND SWAP3 DUP4 SWAP2 PUSH32 0x8BE0079C531659141344CD1FD0A4F28419497F9722A3DAAFE3B4186F6B6457E0 SWAP2 SWAP1 LOG3 POP POP JUMP JUMPDEST DUP3 DUP1 SLOAD PUSH3 0x2DE SWAP1 PUSH3 0x3CB JUMP JUMPDEST SWAP1 PUSH1 0x0 MSTORE PUSH1 0x20 PUSH1 0x0 KECCAK256 SWAP1 PUSH1 0x1F ADD PUSH1 0x20 SWAP1 DIV DUP2 ADD SWAP3 DUP3 PUSH3 0x302 JUMPI PUSH1 0x0 DUP6 SSTORE PUSH3 0x34D JUMP JUMPDEST DUP3 PUSH1 0x1F LT PUSH3 0x31D JUMPI DUP1 MLOAD PUSH1 0xFF NOT AND DUP4 DUP1 ADD OR DUP6 SSTORE PUSH3 0x34D JUMP JUMPDEST DUP3 DUP1 ADD PUSH1 0x1 ADD DUP6 SSTORE DUP3 ISZERO PUSH3 0x34D JUMPI SWAP2 DUP3 ADD JUMPDEST DUP3 DUP2 GT ISZERO PUSH3 0x34D JUMPI DUP3 MLOAD DUP3 SSTORE SWAP2 PUSH1 0x20 ADD SWAP2 SWAP1 PUSH1 0x1 ADD SWAP1 PUSH3 0x330 JUMP JUMPDEST POP PUSH3 0x35B SWAP3 SWAP2 POP PUSH3 0x35F JUMP JUMPDEST POP SWAP1 JUMP JUMPDEST JUMPDEST DUP1 DUP3 GT ISZERO PUSH3 0x35B JUMPI PUSH1 0x0 DUP2 SSTORE PUSH1 0x1 ADD PUSH3 0x360 JUMP JUMPDEST DUP1 MLOAD PUSH1 0x1 PUSH1 0x1 PUSH1 0xA0 SHL SUB DUP2 AND DUP2 EQ PUSH3 0x38E JUMPI PUSH1 0x0 DUP1 REVERT JUMPDEST SWAP2 SWAP1 POP JUMP JUMPDEST PUSH1 0x0 DUP1 PUSH1 0x40 DUP4 DUP6 SUB SLT ISZERO PUSH3 0x3A7 JUMPI PUSH1 0x0 DUP1 REVERT JUMPDEST PUSH3 0x3B2 DUP4 PUSH3 0x376 JUMP JUMPDEST SWAP2 POP PUSH3 0x3C2 PUSH1 0x20 DUP5 ADD PUSH3 0x376 JUMP JUMPDEST SWAP1 POP SWAP3 POP SWAP3 SWAP1 POP JUMP JUMPDEST PUSH1 0x1 DUP2 DUP2 SHR SWAP1 DUP3 AND DUP1 PUSH3 0x3E0 JUMPI PUSH1 0x7F DUP3 AND SWAP2 POP JUMPDEST PUSH1 0x20 DUP3 LT DUP2 EQ ISZERO PUSH3 0x402 JUMPI PUSH4 0x4E487B71 PUSH1 0xE0 SHL PUSH1 0x0 MSTORE PUSH1 0x22 PUSH1 0x4 MSTORE PUSH1 0x24 PUSH1 0x0 REVERT JUMPDEST POP SWAP2 SWAP1 POP JUMP JUMPDEST PUSH2 0x304C DUP1 PUSH3 0x418 PUSH1 0x0 CODECOPY PUSH1 0x0 RETURN INVALID PUSH1 0x80 PUSH1 0x40 MSTORE PUSH1 0x4 CALLDATASIZE LT PUSH2 0x461 JUMPI PUSH1 0x0 CALLDATALOAD PUSH1 0xE0 SHR DUP1 PUSH4 0x832033C2 GT PUSH2 0x23F JUMPI DUP1 PUSH4 0xBBAEC3E0 GT PUSH2 0x139 JUMPI DUP1 PUSH4 0xE1EB5154 GT PUSH2 0xB6 JUMPI DUP1 PUSH4 0xEAA84776 GT PUSH2 0x7A JUMPI DUP1 PUSH4 0xEAA84776 EQ PUSH2 0xD59 JUMPI DUP1 PUSH4 0xF2FDE38B EQ PUSH2 0xD6F JUMPI DUP1 PUSH4 0xF39331FD EQ PUSH2 0xD8F JUMPI DUP1 PUSH4 0xF3B6966B EQ PUSH2 0xDAF JUMPI DUP1 PUSH4 0xF9110AF3 EQ PUSH2 0xDCF JUMPI PUSH1 0x0 DUP1 REVERT JUMPDEST DUP1 PUSH4 0xE1EB5154 EQ PUSH2 0xCB9 JUMPI DUP1 PUSH4 0xE3255552 EQ PUSH2 0xCD9 JUMPI DUP1 PUSH4 0xE52AAF2B EQ PUSH2 0xCF9 JUMPI DUP1 PUSH4 0xE5902C2D EQ PUSH2 0xD19 JUMPI DUP1 PUSH4 0xE69AEE91 EQ PUSH2 0xD39 JUMPI PUSH1 0x0 DUP1 REVERT JUMPDEST DUP1 PUSH4 0xCB6798A4 GT PUSH2 0xFD JUMPI DUP1 PUSH4 0xCB6798A4 EQ PUSH2 0xC2D JUMPI DUP1 PUSH4 0xCE94B99A EQ PUSH2 0xC43 JUMPI DUP1 PUSH4 0xD162D415 EQ PUSH2 0xC59 JUMPI DUP1 PUSH4 0xD505CC4D EQ PUSH2 0xC79 JUMPI DUP1 PUSH4 0xE036A582 EQ PUSH2 0xC99 JUMPI PUSH1 0x0 DUP1 REVERT JUMPDEST DUP1 PUSH4 0xBBAEC3E0 EQ PUSH2 0xB8D JUMPI DUP1 PUSH4 0xBC040DA3 EQ PUSH2 0xBAD JUMPI DUP1 PUSH4 0xC554D74C EQ PUSH2 0xBCD JUMPI DUP1 PUSH4 0xC8D87F91 EQ PUSH2 0xBED JUMPI DUP1 PUSH4 0xCA682C6D EQ PUSH2 0xC0D JUMPI PUSH1 0x0 DUP1 REVERT JUMPDEST DUP1 PUSH4 0x9BC81A2C GT PUSH2 0x1C7 JUMPI DUP1 PUSH4 0xAB183639 GT PUSH2 0x18B JUMPI DUP1 PUSH4 0xAB183639 EQ PUSH2 0xB08 JUMPI DUP1 PUSH4 0xAE46567C EQ PUSH2 0xB28 JUMPI DUP1 PUSH4 0xB40A3F93 EQ PUSH2 0xB3D JUMPI DUP1 PUSH4 0xB5665400 EQ PUSH2 0xB53 JUMPI DUP1 PUSH4 0xB7B40050 EQ PUSH2 0xB6D JUMPI PUSH1 0x0 DUP1 REVERT JUMPDEST DUP1 PUSH4 0x9BC81A2C EQ PUSH2 0xA72 JUMPI DUP1 PUSH4 0x9D4C411C EQ PUSH2 0xA92 JUMPI DUP1 PUSH4 0xA26C8629 EQ PUSH2 0xAA8 JUMPI DUP1 PUSH4 0xA385AC31 EQ PUSH2 0xAC8 JUMPI DUP1 PUSH4 0xA8B5AFDC EQ PUSH2 0xAE8 JUMPI PUSH1 0x0 DUP1 REVERT JUMPDEST DUP1 PUSH4 0x885B922D GT PUSH2 0x20E JUMPI DUP1 PUSH4 0x885B922D EQ PUSH2 0x9D1 JUMPI DUP1 PUSH4 0x8DA5CB5B EQ PUSH2 0x9F1 JUMPI DUP1 PUSH4 0x9712A173 EQ PUSH2 0xA0F JUMPI DUP1 PUSH4 0x98187484 EQ PUSH2 0xA25 JUMPI DUP1 PUSH4 0x9AF14612 EQ PUSH2 0xA52 JUMPI PUSH1 0x0 DUP1 REVERT JUMPDEST DUP1 PUSH4 0x832033C2 EQ PUSH2 0x94A JUMPI DUP1 PUSH4 0x83D611E0 EQ PUSH2 0x960 JUMPI DUP1 PUSH4 0x862737C9 EQ PUSH2 0x980 JUMPI DUP1 PUSH4 0x875138AA EQ PUSH2 0x9A0 JUMPI PUSH1 0x0 DUP1 REVERT JUMPDEST DUP1 PUSH4 0x41CB87FC GT PUSH2 0x35B JUMPI DUP1 PUSH4 0x715018A6 GT PUSH2 0x2D8 JUMPI DUP1 PUSH4 0x776F1E10 GT PUSH2 0x29C JUMPI DUP1 PUSH4 0x776F1E10 EQ PUSH2 0x8D5 JUMPI DUP1 PUSH4 0x7D485EB9 EQ PUSH2 0x8EA JUMPI DUP1 PUSH4 0x7E11B31F EQ PUSH2 0x900 JUMPI DUP1 PUSH4 0x7F582E0E EQ PUSH2 0x915 JUMPI DUP1 PUSH4 0x80384D4D EQ PUSH2 0x92A JUMPI PUSH1 0x0 DUP1 REVERT JUMPDEST DUP1 PUSH4 0x715018A6 EQ PUSH2 0x84A JUMPI DUP1 PUSH4 0x7435A21F EQ PUSH2 0x85F JUMPI DUP1 PUSH4 0x75AF3091 EQ PUSH2 0x875 JUMPI DUP1 PUSH4 0x76D747E9 EQ PUSH2 0x895 JUMPI DUP1 PUSH4 0x7749EEB3 EQ PUSH2 0x8B5 JUMPI PUSH1 0x0 DUP1 REVERT JUMPDEST DUP1 PUSH4 0x56A6338F GT PUSH2 0x31F JUMPI DUP1 PUSH4 0x56A6338F EQ PUSH2 0x7C9 JUMPI DUP1 PUSH4 0x5C5AA9B2 EQ PUSH2 0x7E9 JUMPI DUP1 PUSH4 0x6A5C5C3A EQ PUSH2 0x7FE JUMPI DUP1 PUSH4 0x6F1BD5E0 EQ PUSH2 0x814 JUMPI DUP1 PUSH4 0x70D5AE05 EQ PUSH2 0x82A JUMPI PUSH1 0x0 DUP1 REVERT JUMPDEST DUP1 PUSH4 0x41CB87FC EQ PUSH2 0x72B JUMPI DUP1 PUSH4 0x42D7359B EQ PUSH2 0x74B JUMPI DUP1 PUSH4 0x48DE3F4F EQ PUSH2 0x761 JUMPI DUP1 PUSH4 0x4F2FC5C1 EQ PUSH2 0x79E JUMPI DUP1 PUSH4 0x56355A90 EQ PUSH2 0x7B4 JUMPI PUSH1 0x0 DUP1 REVERT JUMPDEST DUP1 PUSH4 0x18B38E8A GT PUSH2 0x3E9 JUMPI DUP1 PUSH4 0x3268CC56 GT PUSH2 0x3AD JUMPI DUP1 PUSH4 0x3268CC56 EQ PUSH2 0x673 JUMPI DUP1 PUSH4 0x357579D2 EQ PUSH2 0x693 JUMPI DUP1 PUSH4 0x3C743BEB EQ PUSH2 0x6A9 JUMPI DUP1 PUSH4 0x3E99C1E4 EQ PUSH2 0x6BF JUMPI DUP1 PUSH4 0x4144F1C4 EQ PUSH2 0x70B JUMPI PUSH1 0x0 DUP1 REVERT JUMPDEST DUP1 PUSH4 0x18B38E8A EQ PUSH2 0x5E7 JUMPI DUP1 PUSH4 0x1A788A02 EQ PUSH2 0x5FD JUMPI DUP1 PUSH4 0x2CBFC5A5 EQ PUSH2 0x61D JUMPI DUP1 PUSH4 0x2F1FC52C EQ PUSH2 0x63D JUMPI DUP1 PUSH4 0x3079221B EQ PUSH2 0x65D JUMPI PUSH1 0x0 DUP1 REVERT JUMPDEST DUP1 PUSH4 0x107BF304 GT PUSH2 0x430 JUMPI DUP1 PUSH4 0x107BF304 EQ PUSH2 0x537 JUMPI DUP1 PUSH4 0x10B567AD EQ PUSH2 0x557 JUMPI DUP1 PUSH4 0x1217B0CB EQ PUSH2 0x58F JUMPI DUP1 PUSH4 0x1820FE0C EQ PUSH2 0x5A5 JUMPI DUP1 PUSH4 0x1866CBFA EQ PUSH2 0x5C5 JUMPI PUSH1 0x0 DUP1 REVERT JUMPDEST DUP1 PUSH4 0x5BDF464 EQ PUSH2 0x46D JUMPI DUP1 PUSH4 0x787150A EQ PUSH2 0x48F JUMPI DUP1 PUSH4 0x7AD6D48 EQ PUSH2 0x4C2 JUMPI DUP1 PUSH4 0xA9EE06C EQ PUSH2 0x4E2 JUMPI PUSH1 0x0 DUP1 REVERT JUMPDEST CALLDATASIZE PUSH2 0x468 JUMPI STOP JUMPDEST PUSH1 0x0 DUP1 REVERT JUMPDEST CALLVALUE DUP1 ISZERO PUSH2 0x479 JUMPI PUSH1 0x0 DUP1 REVERT JUMPDEST POP PUSH2 0x48D PUSH2 0x488 CALLDATASIZE PUSH1 0x4 PUSH2 0x279B JUMP JUMPDEST PUSH2 0xDEF JUMP JUMPDEST STOP JUMPDEST CALLVALUE DUP1 ISZERO PUSH2 0x49B JUMPI PUSH1 0x0 DUP1 REVERT JUMPDEST POP PUSH2 0x4AF PUSH2 0x4AA CALLDATASIZE PUSH1 0x4 PUSH2 0x27D0 JUMP JUMPDEST PUSH2 0xE90 JUMP JUMPDEST PUSH1 0x40 MLOAD SWAP1 DUP2 MSTORE PUSH1 0x20 ADD JUMPDEST PUSH1 0x40 MLOAD DUP1 SWAP2 SUB SWAP1 RETURN JUMPDEST CALLVALUE DUP1 ISZERO PUSH2 0x4CE JUMPI PUSH1 0x0 DUP1 REVERT JUMPDEST POP PUSH2 0x4AF PUSH2 0x4DD CALLDATASIZE PUSH1 0x4 PUSH2 0x27D0 JUMP JUMPDEST PUSH2 0xED7 JUMP JUMPDEST CALLVALUE DUP1 ISZERO PUSH2 0x4EE JUMPI PUSH1 0x0 DUP1 REVERT JUMPDEST POP PUSH2 0x502 PUSH2 0x4FD CALLDATASIZE PUSH1 0x4 PUSH2 0x27D0 JUMP JUMPDEST PUSH2 0xFD8 JUMP JUMPDEST PUSH1 0x40 DUP1 MLOAD SWAP8 DUP9 MSTORE PUSH1 0x20 DUP9 ADD SWAP7 SWAP1 SWAP7 MSTORE SWAP5 DUP7 ADD SWAP4 SWAP1 SWAP4 MSTORE PUSH1 0x60 DUP6 ADD SWAP2 SWAP1 SWAP2 MSTORE PUSH1 0x80 DUP5 ADD MSTORE PUSH1 0xA0 DUP4 ADD MSTORE PUSH1 0xC0 DUP3 ADD MSTORE PUSH1 0xE0 ADD PUSH2 0x4B9 JUMP JUMPDEST CALLVALUE DUP1 ISZERO PUSH2 0x543 JUMPI PUSH1 0x0 DUP1 REVERT JUMPDEST POP PUSH2 0x48D PUSH2 0x552 CALLDATASIZE PUSH1 0x4 PUSH2 0x27ED JUMP JUMPDEST PUSH2 0x1039 JUMP JUMPDEST CALLVALUE DUP1 ISZERO PUSH2 0x563 JUMPI PUSH1 0x0 DUP1 REVERT JUMPDEST POP PUSH1 0x12 SLOAD PUSH2 0x577 SWAP1 PUSH1 0x1 PUSH1 0x1 PUSH1 0xA0 SHL SUB AND DUP2 JUMP JUMPDEST PUSH1 0x40 MLOAD PUSH1 0x1 PUSH1 0x1 PUSH1 0xA0 SHL SUB SWAP1 SWAP2 AND DUP2 MSTORE PUSH1 0x20 ADD PUSH2 0x4B9 JUMP JUMPDEST CALLVALUE DUP1 ISZERO PUSH2 0x59B JUMPI PUSH1 0x0 DUP1 REVERT JUMPDEST POP PUSH2 0x4AF PUSH1 0x3 SLOAD DUP2 JUMP JUMPDEST CALLVALUE DUP1 ISZERO PUSH2 0x5B1 JUMPI PUSH1 0x0 DUP1 REVERT JUMPDEST POP PUSH2 0x48D PUSH2 0x5C0 CALLDATASIZE PUSH1 0x4 PUSH2 0x28A9 JUMP JUMPDEST PUSH2 0x1094 JUMP JUMPDEST CALLVALUE DUP1 ISZERO PUSH2 0x5D1 JUMPI PUSH1 0x0 DUP1 REVERT JUMPDEST POP PUSH2 0x5DA PUSH2 0x11E1 JUMP JUMPDEST PUSH1 0x40 MLOAD PUSH2 0x4B9 SWAP2 SWAP1 PUSH2 0x2955 JUMP JUMPDEST CALLVALUE DUP1 ISZERO PUSH2 0x5F3 JUMPI PUSH1 0x0 DUP1 REVERT JUMPDEST POP PUSH2 0x4AF PUSH1 0x21 SLOAD DUP2 JUMP JUMPDEST CALLVALUE DUP1 ISZERO PUSH2 0x609 JUMPI PUSH1 0x0 DUP1 REVERT JUMPDEST POP PUSH2 0x577 PUSH2 0x618 CALLDATASIZE PUSH1 0x4 PUSH2 0x27D0 JUMP JUMPDEST PUSH2 0x126F JUMP JUMPDEST CALLVALUE DUP1 ISZERO PUSH2 0x629 JUMPI PUSH1 0x0 DUP1 REVERT JUMPDEST POP PUSH1 0x1A SLOAD PUSH2 0x577 SWAP1 PUSH1 0x1 PUSH1 0x1 PUSH1 0xA0 SHL SUB AND DUP2 JUMP JUMPDEST CALLVALUE DUP1 ISZERO PUSH2 0x649 JUMPI PUSH1 0x0 DUP1 REVERT JUMPDEST POP PUSH2 0x4AF PUSH2 0x658 CALLDATASIZE PUSH1 0x4 PUSH2 0x27D0 JUMP JUMPDEST PUSH2 0x13CC JUMP JUMPDEST CALLVALUE DUP1 ISZERO PUSH2 0x669 JUMPI PUSH1 0x0 DUP1 REVERT JUMPDEST POP PUSH2 0x4AF PUSH1 0x22 SLOAD DUP2 JUMP JUMPDEST CALLVALUE DUP1 ISZERO PUSH2 0x67F JUMPI PUSH1 0x0 DUP1 REVERT JUMPDEST POP PUSH1 0x8 SLOAD PUSH2 0x577 SWAP1 PUSH1 0x1 PUSH1 0x1 PUSH1 0xA0 SHL SUB AND DUP2 JUMP JUMPDEST CALLVALUE DUP1 ISZERO PUSH2 0x69F JUMPI PUSH1 0x0 DUP1 REVERT JUMPDEST POP PUSH2 0x4AF PUSH1 0x1E SLOAD DUP2 JUMP JUMPDEST CALLVALUE DUP1 ISZERO PUSH2 0x6B5 JUMPI PUSH1 0x0 DUP1 REVERT JUMPDEST POP PUSH2 0x4AF PUSH1 0x17 SLOAD DUP2 JUMP JUMPDEST CALLVALUE DUP1 ISZERO PUSH2 0x6CB JUMPI PUSH1 0x0 DUP1 REVERT JUMPDEST POP PUSH2 0x6DF PUSH2 0x6DA CALLDATASIZE PUSH1 0x4 PUSH2 0x27D0 JUMP JUMPDEST PUSH2 0x13F0 JUMP JUMPDEST PUSH1 0x40 DUP1 MLOAD PUSH1 0x1 PUSH1 0x1 PUSH1 0x70 SHL SUB SWAP5 DUP6 AND DUP2 MSTORE SWAP4 SWAP1 SWAP3 AND PUSH1 0x20 DUP5 ADD MSTORE PUSH4 0xFFFFFFFF AND SWAP1 DUP3 ADD MSTORE PUSH1 0x60 ADD PUSH2 0x4B9 JUMP JUMPDEST CALLVALUE DUP1 ISZERO PUSH2 0x717 JUMPI PUSH1 0x0 DUP1 REVERT JUMPDEST POP PUSH2 0x4AF PUSH2 0x726 CALLDATASIZE PUSH1 0x4 PUSH2 0x27D0 JUMP JUMPDEST PUSH2 0x1471 JUMP JUMPDEST CALLVALUE DUP1 ISZERO PUSH2 0x737 JUMPI PUSH1 0x0 DUP1 REVERT JUMPDEST POP PUSH2 0x48D PUSH2 0x746 CALLDATASIZE PUSH1 0x4 PUSH2 0x27D0 JUMP JUMPDEST PUSH2 0x1562 JUMP JUMPDEST CALLVALUE DUP1 ISZERO PUSH2 0x757 JUMPI PUSH1 0x0 DUP1 REVERT JUMPDEST POP PUSH2 0x4AF PUSH1 0x1F SLOAD DUP2 JUMP JUMPDEST CALLVALUE DUP1 ISZERO PUSH2 0x76D JUMPI PUSH1 0x0 DUP1 REVERT JUMPDEST POP PUSH2 0x781 PUSH2 0x77C CALLDATASIZE PUSH1 0x4 PUSH2 0x27D0 JUMP JUMPDEST PUSH2 0x15EE JUMP JUMPDEST PUSH1 0x40 DUP1 MLOAD SWAP3 DUP4 MSTORE PUSH1 0x1 PUSH1 0x1 PUSH1 0xA0 SHL SUB SWAP1 SWAP2 AND PUSH1 0x20 DUP4 ADD MSTORE ADD PUSH2 0x4B9 JUMP JUMPDEST CALLVALUE DUP1 ISZERO PUSH2 0x7AA JUMPI PUSH1 0x0 DUP1 REVERT JUMPDEST POP PUSH2 0x4AF PUSH1 0xF SLOAD DUP2 JUMP JUMPDEST CALLVALUE DUP1 ISZERO PUSH2 0x7C0 JUMPI PUSH1 0x0 DUP1 REVERT JUMPDEST POP PUSH2 0x5DA PUSH2 0x1611 JUMP JUMPDEST CALLVALUE DUP1 ISZERO PUSH2 0x7D5 JUMPI PUSH1 0x0 DUP1 REVERT JUMPDEST POP PUSH2 0x48D PUSH2 0x7E4 CALLDATASIZE PUSH1 0x4 PUSH2 0x2968 JUMP JUMPDEST PUSH2 0x161E JUMP JUMPDEST CALLVALUE DUP1 ISZERO PUSH2 0x7F5 JUMPI PUSH1 0x0 DUP1 REVERT JUMPDEST POP PUSH2 0x5DA PUSH2 0x178C JUMP JUMPDEST CALLVALUE DUP1 ISZERO PUSH2 0x80A JUMPI PUSH1 0x0 DUP1 REVERT JUMPDEST POP PUSH2 0x4AF PUSH1 0x18 SLOAD DUP2 JUMP JUMPDEST CALLVALUE DUP1 ISZERO PUSH2 0x820 JUMPI PUSH1 0x0 DUP1 REVERT JUMPDEST POP PUSH2 0x4AF PUSH1 0x14 SLOAD DUP2 JUMP JUMPDEST CALLVALUE DUP1 ISZERO PUSH2 0x836 JUMPI PUSH1 0x0 DUP1 REVERT JUMPDEST POP PUSH1 0x1D SLOAD PUSH2 0x577 SWAP1 PUSH1 0x1 PUSH1 0x1 PUSH1 0xA0 SHL SUB AND DUP2 JUMP JUMPDEST CALLVALUE DUP1 ISZERO PUSH2 0x856 JUMPI PUSH1 0x0 DUP1 REVERT JUMPDEST POP PUSH2 0x48D PUSH2 0x1799 JUMP JUMPDEST CALLVALUE DUP1 ISZERO PUSH2 0x86B JUMPI PUSH1 0x0 DUP1 REVERT JUMPDEST POP PUSH2 0x4AF PUSH1 0x4 SLOAD DUP2 JUMP JUMPDEST CALLVALUE DUP1 ISZERO PUSH2 0x881 JUMPI PUSH1 0x0 DUP1 REVERT JUMPDEST POP PUSH2 0x4AF PUSH2 0x890 CALLDATASIZE PUSH1 0x4 PUSH2 0x27D0 JUMP JUMPDEST PUSH2 0x17CF JUMP JUMPDEST CALLVALUE DUP1 ISZERO PUSH2 0x8A1 JUMPI PUSH1 0x0 DUP1 REVERT JUMPDEST POP PUSH2 0x4AF PUSH2 0x8B0 CALLDATASIZE PUSH1 0x4 PUSH2 0x27D0 JUMP JUMPDEST PUSH2 0x17F3 JUMP JUMPDEST CALLVALUE DUP1 ISZERO PUSH2 0x8C1 JUMPI PUSH1 0x0 DUP1 REVERT JUMPDEST POP PUSH2 0x4AF PUSH2 0x8D0 CALLDATASIZE PUSH1 0x4 PUSH2 0x27D0 JUMP JUMPDEST PUSH2 0x1845 JUMP JUMPDEST CALLVALUE DUP1 ISZERO PUSH2 0x8E1 JUMPI PUSH1 0x0 DUP1 REVERT JUMPDEST POP PUSH2 0x5DA PUSH2 0x1869 JUMP JUMPDEST CALLVALUE DUP1 ISZERO PUSH2 0x8F6 JUMPI PUSH1 0x0 DUP1 REVERT JUMPDEST POP PUSH2 0x4AF PUSH1 0xC SLOAD DUP2 JUMP JUMPDEST CALLVALUE DUP1 ISZERO PUSH2 0x90C JUMPI PUSH1 0x0 DUP1 REVERT JUMPDEST POP PUSH2 0x4AF PUSH1 0x2 DUP2 JUMP JUMPDEST CALLVALUE DUP1 ISZERO PUSH2 0x921 JUMPI PUSH1 0x0 DUP1 REVERT JUMPDEST POP PUSH2 0x5DA PUSH2 0x1876 JUMP JUMPDEST CALLVALUE DUP1 ISZERO PUSH2 0x936 JUMPI PUSH1 0x0 DUP1 REVERT JUMPDEST POP PUSH1 0x16 SLOAD PUSH2 0x577 SWAP1 PUSH1 0x1 PUSH1 0x1 PUSH1 0xA0 SHL SUB AND DUP2 JUMP JUMPDEST CALLVALUE DUP1 ISZERO PUSH2 0x956 JUMPI PUSH1 0x0 DUP1 REVERT JUMPDEST POP PUSH2 0x4AF PUSH1 0x13 SLOAD DUP2 JUMP JUMPDEST CALLVALUE DUP1 ISZERO PUSH2 0x96C JUMPI PUSH1 0x0 DUP1 REVERT JUMPDEST POP PUSH2 0x4AF PUSH2 0x97B CALLDATASIZE PUSH1 0x4 PUSH2 0x27D0 JUMP JUMPDEST PUSH2 0x1883 JUMP JUMPDEST CALLVALUE DUP1 ISZERO PUSH2 0x98C JUMPI PUSH1 0x0 DUP1 REVERT JUMPDEST POP PUSH2 0x48D PUSH2 0x99B CALLDATASIZE PUSH1 0x4 PUSH2 0x28A9 JUMP JUMPDEST PUSH2 0x18A7 JUMP JUMPDEST CALLVALUE DUP1 ISZERO PUSH2 0x9AC JUMPI PUSH1 0x0 DUP1 REVERT JUMPDEST POP PUSH1 0x1 SLOAD PUSH2 0x9C1 SWAP1 PUSH1 0x1 PUSH1 0xA0 SHL SWAP1 DIV PUSH1 0xFF AND DUP2 JUMP JUMPDEST PUSH1 0x40 MLOAD SWAP1 ISZERO ISZERO DUP2 MSTORE PUSH1 0x20 ADD PUSH2 0x4B9 JUMP JUMPDEST CALLVALUE DUP1 ISZERO PUSH2 0x9DD JUMPI PUSH1 0x0 DUP1 REVERT JUMPDEST POP PUSH2 0x4AF PUSH2 0x9EC CALLDATASIZE PUSH1 0x4 PUSH2 0x27D0 JUMP JUMPDEST PUSH2 0x19E2 JUMP JUMPDEST CALLVALUE DUP1 ISZERO PUSH2 0x9FD JUMPI PUSH1 0x0 DUP1 REVERT JUMPDEST POP PUSH1 0x0 SLOAD PUSH1 0x1 PUSH1 0x1 PUSH1 0xA0 SHL SUB AND PUSH2 0x577 JUMP JUMPDEST CALLVALUE DUP1 ISZERO PUSH2 0xA1B JUMPI PUSH1 0x0 DUP1 REVERT JUMPDEST POP PUSH2 0x4AF PUSH1 0x1B SLOAD DUP2 JUMP JUMPDEST CALLVALUE DUP1 ISZERO PUSH2 0xA31 JUMPI PUSH1 0x0 DUP1 REVERT JUMPDEST POP PUSH2 0xA3A PUSH2 0x19F7 JUMP JUMPDEST PUSH1 0x40 MLOAD PUSH2 0x4B9 SWAP13 SWAP12 SWAP11 SWAP10 SWAP9 SWAP8 SWAP7 SWAP6 SWAP5 SWAP4 SWAP3 SWAP2 SWAP1 PUSH2 0x2994 JUMP JUMPDEST CALLVALUE DUP1 ISZERO PUSH2 0xA5E JUMPI PUSH1 0x0 DUP1 REVERT JUMPDEST POP PUSH2 0x48D PUSH2 0xA6D CALLDATASIZE PUSH1 0x4 PUSH2 0x27D0 JUMP JUMPDEST PUSH2 0x1D3A JUMP JUMPDEST CALLVALUE DUP1 ISZERO PUSH2 0xA7E JUMPI PUSH1 0x0 DUP1 REVERT JUMPDEST POP PUSH2 0x48D PUSH2 0xA8D CALLDATASIZE PUSH1 0x4 PUSH2 0x28A9 JUMP JUMPDEST PUSH2 0x1D86 JUMP JUMPDEST CALLVALUE DUP1 ISZERO PUSH2 0xA9E JUMPI PUSH1 0x0 DUP1 REVERT JUMPDEST POP PUSH2 0x4AF PUSH1 0x7 SLOAD DUP2 JUMP JUMPDEST CALLVALUE DUP1 ISZERO PUSH2 0xAB4 JUMPI PUSH1 0x0 DUP1 REVERT JUMPDEST POP PUSH2 0x4AF PUSH2 0xAC3 CALLDATASIZE PUSH1 0x4 PUSH2 0x27D0 JUMP JUMPDEST PUSH2 0x1EC1 JUMP JUMPDEST CALLVALUE DUP1 ISZERO PUSH2 0xAD4 JUMPI PUSH1 0x0 DUP1 REVERT JUMPDEST POP PUSH2 0x4AF PUSH2 0xAE3 CALLDATASIZE PUSH1 0x4 PUSH2 0x27D0 JUMP JUMPDEST PUSH2 0x1EE5 JUMP JUMPDEST CALLVALUE DUP1 ISZERO PUSH2 0xAF4 JUMPI PUSH1 0x0 DUP1 REVERT JUMPDEST POP PUSH2 0x48D PUSH2 0xB03 CALLDATASIZE PUSH1 0x4 PUSH2 0x279B JUMP JUMPDEST PUSH2 0x1F09 JUMP JUMPDEST CALLVALUE DUP1 ISZERO PUSH2 0xB14 JUMPI PUSH1 0x0 DUP1 REVERT JUMPDEST POP PUSH2 0x4AF PUSH2 0xB23 CALLDATASIZE PUSH1 0x4 PUSH2 0x27D0 JUMP JUMPDEST PUSH2 0x1F91 JUMP JUMPDEST CALLVALUE DUP1 ISZERO PUSH2 0xB34 JUMPI PUSH1 0x0 DUP1 REVERT JUMPDEST POP PUSH2 0x5DA PUSH2 0x1FB5 JUMP JUMPDEST CALLVALUE DUP1 ISZERO PUSH2 0xB49 JUMPI PUSH1 0x0 DUP1 REVERT JUMPDEST POP PUSH2 0x4AF PUSH1 0xB SLOAD DUP2 JUMP JUMPDEST CALLVALUE DUP1 ISZERO PUSH2 0xB5F JUMPI PUSH1 0x0 DUP1 REVERT JUMPDEST POP PUSH1 0x5 SLOAD PUSH2 0x9C1 SWAP1 PUSH1 0xFF AND DUP2 JUMP JUMPDEST CALLVALUE DUP1 ISZERO PUSH2 0xB79 JUMPI PUSH1 0x0 DUP1 REVERT JUMPDEST POP PUSH2 0x48D PUSH2 0xB88 CALLDATASIZE PUSH1 0x4 PUSH2 0x28A9 JUMP JUMPDEST PUSH2 0x1FC2 JUMP JUMPDEST CALLVALUE DUP1 ISZERO PUSH2 0xB99 JUMPI PUSH1 0x0 DUP1 REVERT JUMPDEST POP PUSH2 0x48D PUSH2 0xBA8 CALLDATASIZE PUSH1 0x4 PUSH2 0x2A8C JUMP JUMPDEST PUSH2 0x20FD JUMP JUMPDEST CALLVALUE DUP1 ISZERO PUSH2 0xBB9 JUMPI PUSH1 0x0 DUP1 REVERT JUMPDEST POP PUSH2 0x4AF PUSH2 0xBC8 CALLDATASIZE PUSH1 0x4 PUSH2 0x2968 JUMP JUMPDEST PUSH2 0x2141 JUMP JUMPDEST CALLVALUE DUP1 ISZERO PUSH2 0xBD9 JUMPI PUSH1 0x0 DUP1 REVERT JUMPDEST POP PUSH2 0x4AF PUSH2 0xBE8 CALLDATASIZE PUSH1 0x4 PUSH2 0x27D0 JUMP JUMPDEST PUSH2 0x21B1 JUMP JUMPDEST CALLVALUE DUP1 ISZERO PUSH2 0xBF9 JUMPI PUSH1 0x0 DUP1 REVERT JUMPDEST POP PUSH2 0x48D PUSH2 0xC08 CALLDATASIZE PUSH1 0x4 PUSH2 0x2AAC JUMP JUMPDEST PUSH2 0x21D5 JUMP JUMPDEST CALLVALUE DUP1 ISZERO PUSH2 0xC19 JUMPI PUSH1 0x0 DUP1 REVERT JUMPDEST POP PUSH2 0x48D PUSH2 0xC28 CALLDATASIZE PUSH1 0x4 PUSH2 0x2AF4 JUMP JUMPDEST PUSH2 0x2248 JUMP JUMPDEST CALLVALUE DUP1 ISZERO PUSH2 0xC39 JUMPI PUSH1 0x0 DUP1 REVERT JUMPDEST POP PUSH2 0x4AF PUSH1 0x6 SLOAD DUP2 JUMP JUMPDEST CALLVALUE DUP1 ISZERO PUSH2 0xC4F JUMPI PUSH1 0x0 DUP1 REVERT JUMPDEST POP PUSH2 0x4AF PUSH1 0x1C SLOAD DUP2 JUMP JUMPDEST CALLVALUE DUP1 ISZERO PUSH2 0xC65 JUMPI PUSH1 0x0 DUP1 REVERT JUMPDEST POP PUSH2 0x48D PUSH2 0xC74 CALLDATASIZE PUSH1 0x4 PUSH2 0x28A9 JUMP JUMPDEST PUSH2 0x2349 JUMP JUMPDEST CALLVALUE DUP1 ISZERO PUSH2 0xC85 JUMPI PUSH1 0x0 DUP1 REVERT JUMPDEST POP PUSH1 0x20 SLOAD PUSH2 0x577 SWAP1 PUSH1 0x1 PUSH1 0x1 PUSH1 0xA0 SHL SUB AND DUP2 JUMP JUMPDEST CALLVALUE DUP1 ISZERO PUSH2 0xCA5 JUMPI PUSH1 0x0 DUP1 REVERT JUMPDEST POP PUSH2 0x4AF PUSH2 0xCB4 CALLDATASIZE PUSH1 0x4 PUSH2 0x27D0 JUMP JUMPDEST PUSH2 0x2484 JUMP JUMPDEST CALLVALUE DUP1 ISZERO PUSH2 0xCC5 JUMPI PUSH1 0x0 DUP1 REVERT JUMPDEST POP PUSH2 0x4AF PUSH2 0xCD4 CALLDATASIZE PUSH1 0x4 PUSH2 0x27D0 JUMP JUMPDEST PUSH2 0x24A8 JUMP JUMPDEST CALLVALUE DUP1 ISZERO PUSH2 0xCE5 JUMPI PUSH1 0x0 DUP1 REVERT JUMPDEST POP PUSH1 0xE SLOAD PUSH2 0x577 SWAP1 PUSH1 0x1 PUSH1 0x1 PUSH1 0xA0 SHL SUB AND DUP2 JUMP JUMPDEST CALLVALUE DUP1 ISZERO PUSH2 0xD05 JUMPI PUSH1 0x0 DUP1 REVERT JUMPDEST POP PUSH1 0x2 SLOAD PUSH2 0x577 SWAP1 PUSH1 0x1 PUSH1 0x1 PUSH1 0xA0 SHL SUB AND DUP2 JUMP JUMPDEST CALLVALUE DUP1 ISZERO PUSH2 0xD25 JUMPI PUSH1 0x0 DUP1 REVERT JUMPDEST POP PUSH2 0x4AF PUSH2 0xD34 CALLDATASIZE PUSH1 0x4 PUSH2 0x27D0 JUMP JUMPDEST PUSH2 0x24CC JUMP JUMPDEST CALLVALUE DUP1 ISZERO PUSH2 0xD45 JUMPI PUSH1 0x0 DUP1 REVERT JUMPDEST POP PUSH2 0x4AF PUSH2 0xD54 CALLDATASIZE PUSH1 0x4 PUSH2 0x27D0 JUMP JUMPDEST PUSH2 0x24F0 JUMP JUMPDEST CALLVALUE DUP1 ISZERO PUSH2 0xD65 JUMPI PUSH1 0x0 DUP1 REVERT JUMPDEST POP PUSH2 0x4AF PUSH1 0x10 SLOAD DUP2 JUMP JUMPDEST CALLVALUE DUP1 ISZERO PUSH2 0xD7B JUMPI PUSH1 0x0 DUP1 REVERT JUMPDEST POP PUSH2 0x48D PUSH2 0xD8A CALLDATASIZE PUSH1 0x4 PUSH2 0x27D0 JUMP JUMPDEST PUSH2 0x2514 JUMP JUMPDEST CALLVALUE DUP1 ISZERO PUSH2 0xD9B JUMPI PUSH1 0x0 DUP1 REVERT JUMPDEST POP PUSH2 0x781 PUSH2 0xDAA CALLDATASIZE PUSH1 0x4 PUSH2 0x27D0 JUMP JUMPDEST PUSH2 0x25AF JUMP JUMPDEST CALLVALUE DUP1 ISZERO PUSH2 0xDBB JUMPI PUSH1 0x0 DUP1 REVERT JUMPDEST POP PUSH1 0xA SLOAD PUSH2 0x577 SWAP1 PUSH1 0x1 PUSH1 0x1 PUSH1 0xA0 SHL SUB AND DUP2 JUMP JUMPDEST CALLVALUE DUP1 ISZERO PUSH2 0xDDB JUMPI PUSH1 0x0 DUP1 REVERT JUMPDEST POP PUSH2 0x502 PUSH2 0xDEA CALLDATASIZE PUSH1 0x4 PUSH2 0x27D0 JUMP JUMPDEST PUSH2 0x25D2 JUMP JUMPDEST PUSH1 0x0 SLOAD PUSH1 0x1 PUSH1 0x1 PUSH1 0xA0 SHL SUB AND CALLER EQ PUSH2 0xE22 JUMPI PUSH1 0x40 MLOAD PUSH3 0x461BCD PUSH1 0xE5 SHL DUP2 MSTORE PUSH1 0x4 ADD PUSH2 0xE19 SWAP1 PUSH2 0x2B29 JUMP JUMPDEST PUSH1 0x40 MLOAD DUP1 SWAP2 SUB SWAP1 REVERT JUMPDEST PUSH1 0x20 DUP1 SLOAD PUSH1 0x21 DUP1 SLOAD PUSH1 0x22 DUP1 SLOAD PUSH1 0x1 PUSH1 0x1 PUSH1 0xA0 SHL SUB DUP10 DUP2 AND PUSH1 0x1 PUSH1 0x1 PUSH1 0xA0 SHL SUB NOT DUP8 AND DUP2 OR SWAP1 SWAP8 SSTORE SWAP4 DUP9 SWAP1 SSTORE SWAP1 DUP7 SWAP1 SSTORE PUSH1 0x40 MLOAD SWAP3 SWAP1 SWAP4 AND SWAP4 SWAP1 SWAP3 SWAP2 PUSH1 0x0 DUP1 MLOAD PUSH1 0x20 PUSH2 0x2FF7 DUP4 CODECOPY DUP2 MLOAD SWAP2 MSTORE SWAP2 PUSH2 0xE80 SWAP2 DUP7 SWAP2 DUP7 SWAP2 DUP7 SWAP2 SWAP1 DUP12 SWAP1 DUP12 SWAP1 PUSH2 0x2B5E JUMP JUMPDEST PUSH1 0x40 MLOAD DUP1 SWAP2 SUB SWAP1 LOG1 POP POP POP POP POP POP JUMP JUMPDEST PUSH1 0x0 DUP1 PUSH2 0xE9C DUP4 PUSH2 0x13CC JUMP JUMPDEST PUSH2 0xEA5 DUP5 PUSH2 0x1EC1 JUMP JUMPDEST PUSH2 0xEAF SWAP2 SWAP1 PUSH2 0x2C0D JUMP JUMPDEST SWAP1 POP PUSH1 0x2 PUSH2 0xEBC DUP5 PUSH2 0xED7 JUMP JUMPDEST PUSH2 0xEC6 SWAP2 SWAP1 PUSH2 0x2C25 JUMP JUMPDEST PUSH2 0xED0 SWAP1 DUP3 PUSH2 0x2C0D JUMP JUMPDEST SWAP4 SWAP3 POP POP POP JUMP JUMPDEST PUSH1 0x21 SLOAD PUSH1 0x1 SLOAD PUSH1 0x0 SWAP2 SWAP1 PUSH1 0x1 PUSH1 0xA0 SHL SWAP1 DIV PUSH1 0xFF AND DUP1 ISZERO PUSH2 0xEFB JUMPI POP PUSH2 0xEFB DUP4 PUSH2 0x261C JUMP JUMPDEST ISZERO PUSH2 0xF26 JUMPI PUSH2 0xF0C PUSH1 0x4 PUSH1 0xA PUSH2 0x2D2B JUMP JUMPDEST PUSH1 0x4 SLOAD PUSH2 0xF19 SWAP1 DUP4 PUSH2 0x2D37 JUMP JUMPDEST PUSH2 0xF23 SWAP2 SWAP1 PUSH2 0x2C25 JUMP JUMPDEST SWAP1 POP JUMPDEST PUSH1 0x5 SLOAD PUSH1 0xFF AND DUP1 ISZERO PUSH2 0xFAA JUMPI POP PUSH1 0x1 PUSH1 0x0 SWAP1 SLOAD SWAP1 PUSH2 0x100 EXP SWAP1 DIV PUSH1 0x1 PUSH1 0x1 PUSH1 0xA0 SHL SUB AND PUSH1 0x1 PUSH1 0x1 PUSH1 0xA0 SHL SUB AND PUSH4 0xA13EC8D3 PUSH1 0x40 MLOAD DUP2 PUSH4 0xFFFFFFFF AND PUSH1 0xE0 SHL DUP2 MSTORE PUSH1 0x4 ADD PUSH1 0x20 PUSH1 0x40 MLOAD DUP1 DUP4 SUB DUP2 DUP7 GAS STATICCALL ISZERO DUP1 ISZERO PUSH2 0xF86 JUMPI RETURNDATASIZE PUSH1 0x0 DUP1 RETURNDATACOPY RETURNDATASIZE PUSH1 0x0 REVERT JUMPDEST POP POP POP POP PUSH1 0x40 MLOAD RETURNDATASIZE PUSH1 0x1F NOT PUSH1 0x1F DUP3 ADD AND DUP3 ADD DUP1 PUSH1 0x40 MSTORE POP DUP2 ADD SWAP1 PUSH2 0xFAA SWAP2 SWAP1 PUSH2 0x2D56 JUMP JUMPDEST ISZERO PUSH2 0xFD2 JUMPI PUSH2 0xFBB PUSH1 0x4 PUSH1 0xA PUSH2 0x2D2B JUMP JUMPDEST PUSH1 0x6 SLOAD PUSH2 0xFC8 SWAP1 DUP4 PUSH2 0x2D37 JUMP JUMPDEST PUSH2 0xED0 SWAP2 SWAP1 PUSH2 0x2C25 JUMP JUMPDEST SWAP3 SWAP2 POP POP JUMP JUMPDEST PUSH1 0x0 DUP1 PUSH1 0x0 DUP1 PUSH1 0x0 DUP1 PUSH1 0x0 PUSH2 0xFEC DUP9 PUSH2 0x24F0 JUMP JUMPDEST PUSH2 0xFF5 DUP10 PUSH2 0x24A8 JUMP JUMPDEST PUSH2 0xFFE DUP11 PUSH2 0x1F91 JUMP JUMPDEST PUSH2 0x1007 DUP12 PUSH2 0x1883 JUMP JUMPDEST PUSH2 0x1010 DUP13 PUSH2 0x17CF JUMP JUMPDEST PUSH2 0x1019 DUP14 PUSH2 0x1845 JUMP JUMPDEST PUSH2 0x1022 DUP15 PUSH2 0x1471 JUMP JUMPDEST SWAP6 SWAP15 SWAP5 SWAP14 POP SWAP3 SWAP12 POP SWAP1 SWAP10 POP SWAP8 POP SWAP6 POP SWAP1 SWAP4 POP SWAP2 POP POP JUMP JUMPDEST PUSH1 0x0 SLOAD PUSH1 0x1 PUSH1 0x1 PUSH1 0xA0 SHL SUB AND CALLER EQ PUSH2 0x1063 JUMPI PUSH1 0x40 MLOAD PUSH3 0x461BCD PUSH1 0xE5 SHL DUP2 MSTORE PUSH1 0x4 ADD PUSH2 0xE19 SWAP1 PUSH2 0x2B29 JUMP JUMPDEST PUSH1 0x40 MLOAD CALLER SWAP1 DUP3 ISZERO PUSH2 0x8FC MUL SWAP1 DUP4 SWAP1 PUSH1 0x0 DUP2 DUP2 DUP2 DUP6 DUP9 DUP9 CALL SWAP4 POP POP POP POP ISZERO DUP1 ISZERO PUSH2 0x1090 JUMPI RETURNDATASIZE PUSH1 0x0 DUP1 RETURNDATACOPY RETURNDATASIZE PUSH1 0x0 REVERT JUMPDEST POP POP JUMP JUMPDEST PUSH1 0x0 SLOAD PUSH1 0x1 PUSH1 0x1 PUSH1 0xA0 SHL SUB AND CALLER EQ PUSH2 0x10BE JUMPI PUSH1 0x40 MLOAD PUSH3 0x461BCD PUSH1 0xE5 SHL DUP2 MSTORE PUSH1 0x4 ADD PUSH2 0xE19 SWAP1 PUSH2 0x2B29 JUMP JUMPDEST PUSH1 0x0 PUSH1 0x15 DUP1 SLOAD PUSH2 0x10CD SWAP1 PUSH2 0x2D73 JUMP JUMPDEST DUP1 PUSH1 0x1F ADD PUSH1 0x20 DUP1 SWAP2 DIV MUL PUSH1 0x20 ADD PUSH1 0x40 MLOAD SWAP1 DUP2 ADD PUSH1 0x40 MSTORE DUP1 SWAP3 SWAP2 SWAP1 DUP2 DUP2 MSTORE PUSH1 0x20 ADD DUP3 DUP1 SLOAD PUSH2 0x10F9 SWAP1 PUSH2 0x2D73 JUMP JUMPDEST DUP1 ISZERO PUSH2 0x1146 JUMPI DUP1 PUSH1 0x1F LT PUSH2 0x111B JUMPI PUSH2 0x100 DUP1 DUP4 SLOAD DIV MUL DUP4 MSTORE SWAP2 PUSH1 0x20 ADD SWAP2 PUSH2 0x1146 JUMP JUMPDEST DUP3 ADD SWAP2 SWAP1 PUSH1 0x0 MSTORE PUSH1 0x20 PUSH1 0x0 KECCAK256 SWAP1 JUMPDEST DUP2 SLOAD DUP2 MSTORE SWAP1 PUSH1 0x1 ADD SWAP1 PUSH1 0x20 ADD DUP1 DUP4 GT PUSH2 0x1129 JUMPI DUP3 SWAP1 SUB PUSH1 0x1F AND DUP3 ADD SWAP2 JUMPDEST POP POP PUSH1 0x16 SLOAD PUSH1 0x17 SLOAD PUSH1 0x18 SLOAD DUP12 MLOAD SWAP7 SWAP8 POP PUSH1 0x1 PUSH1 0x1 PUSH1 0xA0 SHL SUB SWAP1 SWAP3 AND SWAP6 SWAP1 SWAP5 POP SWAP1 SWAP3 POP PUSH2 0x117A SWAP2 POP PUSH1 0x15 SWAP1 PUSH1 0x20 DUP12 ADD SWAP1 PUSH2 0x26ED JUMP JUMPDEST POP PUSH1 0x16 DUP1 SLOAD PUSH1 0x1 PUSH1 0x1 PUSH1 0xA0 SHL SUB NOT AND PUSH1 0x1 PUSH1 0x1 PUSH1 0xA0 SHL SUB DUP10 AND SWAP1 DUP2 OR SWAP1 SWAP2 SSTORE PUSH1 0x17 DUP8 SWAP1 SSTORE PUSH1 0x18 DUP7 SWAP1 SSTORE PUSH1 0x40 MLOAD PUSH1 0x0 DUP1 MLOAD PUSH1 0x20 PUSH2 0x2FF7 DUP4 CODECOPY DUP2 MLOAD SWAP2 MSTORE SWAP2 PUSH2 0x11CF SWAP2 DUP8 SWAP2 DUP8 SWAP2 DUP8 SWAP2 DUP8 SWAP2 PUSH1 0x15 SWAP2 SWAP1 DUP15 SWAP1 DUP15 SWAP1 PUSH2 0x2E4E JUMP JUMPDEST PUSH1 0x40 MLOAD DUP1 SWAP2 SUB SWAP1 LOG1 POP POP POP POP POP POP POP POP JUMP JUMPDEST PUSH1 0x15 DUP1 SLOAD PUSH2 0x11EE SWAP1 PUSH2 0x2D73 JUMP JUMPDEST DUP1 PUSH1 0x1F ADD PUSH1 0x20 DUP1 SWAP2 DIV MUL PUSH1 0x20 ADD PUSH1 0x40 MLOAD SWAP1 DUP2 ADD PUSH1 0x40 MSTORE DUP1 SWAP3 SWAP2 SWAP1 DUP2 DUP2 MSTORE PUSH1 0x20 ADD DUP3 DUP1 SLOAD PUSH2 0x121A SWAP1 PUSH2 0x2D73 JUMP JUMPDEST DUP1 ISZERO PUSH2 0x1267 JUMPI DUP1 PUSH1 0x1F LT PUSH2 0x123C JUMPI PUSH2 0x100 DUP1 DUP4 SLOAD DIV MUL DUP4 MSTORE SWAP2 PUSH1 0x20 ADD SWAP2 PUSH2 0x1267 JUMP JUMPDEST DUP3 ADD SWAP2 SWAP1 PUSH1 0x0 MSTORE PUSH1 0x20 PUSH1 0x0 KECCAK256 SWAP1 JUMPDEST DUP2 SLOAD DUP2 MSTORE SWAP1 PUSH1 0x1 ADD SWAP1 PUSH1 0x20 ADD DUP1 DUP4 GT PUSH2 0x124A JUMPI DUP3 SWAP1 SUB PUSH1 0x1F AND DUP3 ADD SWAP2 JUMPDEST POP POP POP POP POP DUP2 JUMP JUMPDEST PUSH1 0x8 SLOAD PUSH1 0x40 DUP1 MLOAD PUSH4 0xC45A0155 PUSH1 0xE0 SHL DUP2 MSTORE SWAP1 MLOAD PUSH1 0x0 SWAP3 PUSH1 0x1 PUSH1 0x1 PUSH1 0xA0 SHL SUB AND SWAP2 DUP4 SWAP2 DUP4 SWAP2 PUSH4 0xC45A0155 SWAP2 PUSH1 0x4 DUP1 DUP4 ADD SWAP3 PUSH1 0x20 SWAP3 SWAP2 SWAP1 DUP3 SWAP1 SUB ADD DUP2 DUP7 GAS STATICCALL ISZERO DUP1 ISZERO PUSH2 0x12BD JUMPI RETURNDATASIZE PUSH1 0x0 DUP1 RETURNDATACOPY RETURNDATASIZE PUSH1 0x0 REVERT JUMPDEST POP POP POP POP PUSH1 0x40 MLOAD RETURNDATASIZE PUSH1 0x1F NOT PUSH1 0x1F DUP3 ADD AND DUP3 ADD DUP1 PUSH1 0x40 MSTORE POP DUP2 ADD SWAP1 PUSH2 0x12E1 SWAP2 SWAP1 PUSH2 0x2EB5 JUMP JUMPDEST SWAP1 POP DUP1 PUSH1 0x1 PUSH1 0x1 PUSH1 0xA0 SHL SUB AND PUSH4 0xE6A43905 DUP4 PUSH1 0x1 PUSH1 0x1 PUSH1 0xA0 SHL SUB AND PUSH4 0xAD5C4648 PUSH1 0x40 MLOAD DUP2 PUSH4 0xFFFFFFFF AND PUSH1 0xE0 SHL DUP2 MSTORE PUSH1 0x4 ADD PUSH1 0x20 PUSH1 0x40 MLOAD DUP1 DUP4 SUB DUP2 DUP7 GAS STATICCALL ISZERO DUP1 ISZERO PUSH2 0x1330 JUMPI RETURNDATASIZE PUSH1 0x0 DUP1 RETURNDATACOPY RETURNDATASIZE PUSH1 0x0 REVERT JUMPDEST POP POP POP POP PUSH1 0x40 MLOAD RETURNDATASIZE PUSH1 0x1F NOT PUSH1 0x1F DUP3 ADD AND DUP3 ADD DUP1 PUSH1 0x40 MSTORE POP DUP2 ADD SWAP1 PUSH2 0x1354 SWAP2 SWAP1 PUSH2 0x2EB5 JUMP JUMPDEST PUSH1 0x40 MLOAD PUSH1 0x1 PUSH1 0x1 PUSH1 0xE0 SHL SUB NOT PUSH1 0xE0 DUP5 SWAP1 SHL AND DUP2 MSTORE PUSH1 0x1 PUSH1 0x1 PUSH1 0xA0 SHL SUB SWAP2 DUP3 AND PUSH1 0x4 DUP3 ADD MSTORE SWAP1 DUP8 AND PUSH1 0x24 DUP3 ADD MSTORE PUSH1 0x44 ADD PUSH1 0x20 PUSH1 0x40 MLOAD DUP1 DUP4 SUB DUP2 DUP7 GAS STATICCALL ISZERO DUP1 ISZERO PUSH2 0x13A0 JUMPI RETURNDATASIZE PUSH1 0x0 DUP1 RETURNDATACOPY RETURNDATASIZE PUSH1 0x0 REVERT JUMPDEST POP POP POP POP PUSH1 0x40 MLOAD RETURNDATASIZE PUSH1 0x1F NOT PUSH1 0x1F DUP3 ADD AND DUP3 ADD DUP1 PUSH1 0x40 MSTORE POP DUP2 ADD SWAP1 PUSH2 0x13C4 SWAP2 SWAP1 PUSH2 0x2EB5 JUMP JUMPDEST SWAP5 SWAP4 POP POP POP POP JUMP JUMPDEST PUSH1 0x1E SLOAD PUSH1 0x1 SLOAD PUSH1 0x0 SWAP2 SWAP1 PUSH1 0x1 PUSH1 0xA0 SHL SWAP1 DIV PUSH1 0xFF AND DUP1 ISZERO PUSH2 0xEFB JUMPI POP PUSH2 0xEFB DUP4 PUSH2 0x261C JUMP JUMPDEST PUSH1 0x0 DUP1 PUSH1 0x0 DUP1 PUSH2 0x13FF DUP6 PUSH2 0x126F JUMP JUMPDEST SWAP1 POP DUP1 PUSH1 0x1 PUSH1 0x1 PUSH1 0xA0 SHL SUB AND PUSH4 0x902F1AC PUSH1 0x40 MLOAD DUP2 PUSH4 0xFFFFFFFF AND PUSH1 0xE0 SHL DUP2 MSTORE PUSH1 0x4 ADD PUSH1 0x60 PUSH1 0x40 MLOAD DUP1 DUP4 SUB DUP2 DUP7 GAS STATICCALL ISZERO DUP1 ISZERO PUSH2 0x143F JUMPI RETURNDATASIZE PUSH1 0x0 DUP1 RETURNDATACOPY RETURNDATASIZE PUSH1 0x0 REVERT JUMPDEST POP POP POP POP PUSH1 0x40 MLOAD RETURNDATASIZE PUSH1 0x1F NOT PUSH1 0x1F DUP3 ADD AND DUP3 ADD DUP1 PUSH1 0x40 MSTORE POP DUP2 ADD SWAP1 PUSH2 0x1463 SWAP2 SWAP1 PUSH2 0x2EEE JUMP JUMPDEST SWAP4 POP SWAP4 POP SWAP4 POP POP SWAP2 SWAP4 SWAP1 SWAP3 POP JUMP JUMPDEST PUSH1 0x22 SLOAD PUSH1 0x1 SLOAD PUSH1 0x0 SWAP2 SWAP1 PUSH1 0x1 PUSH1 0xA0 SHL SWAP1 DIV PUSH1 0xFF AND DUP1 ISZERO PUSH2 0x1495 JUMPI POP PUSH2 0x1495 DUP4 PUSH2 0x261C JUMP JUMPDEST ISZERO PUSH2 0x14C0 JUMPI PUSH2 0x14A6 PUSH1 0x4 PUSH1 0xA PUSH2 0x2D2B JUMP JUMPDEST PUSH1 0x4 SLOAD PUSH2 0x14B3 SWAP1 DUP4 PUSH2 0x2D37 JUMP JUMPDEST PUSH2 0x14BD SWAP2 SWAP1 PUSH2 0x2C25 JUMP JUMPDEST SWAP1 POP JUMPDEST PUSH1 0x5 SLOAD PUSH1 0xFF AND DUP1 ISZERO PUSH2 0x1544 JUMPI POP PUSH1 0x1 PUSH1 0x0 SWAP1 SLOAD SWAP1 PUSH2 0x100 EXP SWAP1 DIV PUSH1 0x1 PUSH1 0x1 PUSH1 0xA0 SHL SUB AND PUSH1 0x1 PUSH1 0x1 PUSH1 0xA0 SHL SUB AND PUSH4 0xA13EC8D3 PUSH1 0x40 MLOAD DUP2 PUSH4 0xFFFFFFFF AND PUSH1 0xE0 SHL DUP2 MSTORE PUSH1 0x4 ADD PUSH1 0x20 PUSH1 0x40 MLOAD DUP1 DUP4 SUB DUP2 DUP7 GAS STATICCALL ISZERO DUP1 ISZERO PUSH2 0x1520 JUMPI RETURNDATASIZE PUSH1 0x0 DUP1 RETURNDATACOPY RETURNDATASIZE PUSH1 0x0 REVERT JUMPDEST POP POP POP POP PUSH1 0x40 MLOAD RETURNDATASIZE PUSH1 0x1F NOT PUSH1 0x1F DUP3 ADD AND DUP3 ADD DUP1 PUSH1 0x40 MSTORE POP DUP2 ADD SWAP1 PUSH2 0x1544 SWAP2 SWAP1 PUSH2 0x2D56 JUMP JUMPDEST ISZERO PUSH2 0xFD2 JUMPI PUSH2 0x1555 PUSH1 0x4 PUSH1 0xA PUSH2 0x2D2B JUMP JUMPDEST PUSH1 0x7 SLOAD PUSH2 0xFC8 SWAP1 DUP4 PUSH2 0x2D37 JUMP JUMPDEST PUSH1 0x0 SLOAD PUSH1 0x1 PUSH1 0x1 PUSH1 0xA0 SHL SUB AND CALLER EQ PUSH2 0x158C JUMPI PUSH1 0x40 MLOAD PUSH3 0x461BCD PUSH1 0xE5 SHL DUP2 MSTORE PUSH1 0x4 ADD PUSH2 0xE19 SWAP1 PUSH2 0x2B29 JUMP JUMPDEST PUSH1 0x8 DUP1 SLOAD PUSH1 0x1 PUSH1 0x1 PUSH1 0xA0 SHL SUB DUP4 DUP2 AND PUSH1 0x1 PUSH1 0x1 PUSH1 0xA0 SHL SUB NOT DUP4 AND DUP2 OR SWAP1 SWAP4 SSTORE PUSH1 0x40 DUP1 MLOAD SWAP2 SWAP1 SWAP3 AND DUP1 DUP3 MSTORE PUSH1 0x20 DUP3 ADD SWAP4 SWAP1 SWAP4 MSTORE PUSH32 0x2DC5C233404867C793B749C6D644BEB2277536D18A7E7974D3F238E4C6F1684 SWAP2 ADD JUMPDEST PUSH1 0x40 MLOAD DUP1 SWAP2 SUB SWAP1 LOG1 POP POP JUMP JUMPDEST PUSH1 0x0 DUP1 PUSH2 0x15FA DUP4 PUSH2 0x24CC JUMP JUMPDEST PUSH1 0xE SLOAD SWAP1 SWAP5 PUSH1 0x1 PUSH1 0x1 PUSH1 0xA0 SHL SUB SWAP1 SWAP2 AND SWAP4 POP SWAP2 POP POP JUMP JUMPDEST PUSH1 0x9 DUP1 SLOAD PUSH2 0x11EE SWAP1 PUSH2 0x2D73 JUMP JUMPDEST PUSH1 0x0 SLOAD PUSH1 0x1 PUSH1 0x1 PUSH1 0xA0 SHL SUB AND CALLER EQ PUSH2 0x1648 JUMPI PUSH1 0x40 MLOAD PUSH3 0x461BCD PUSH1 0xE5 SHL DUP2 MSTORE PUSH1 0x4 ADD PUSH2 0xE19 SWAP1 PUSH2 0x2B29 JUMP JUMPDEST PUSH1 0x40 MLOAD PUSH4 0x70A08231 PUSH1 0xE0 SHL DUP2 MSTORE ADDRESS PUSH1 0x4 DUP3 ADD MSTORE PUSH1 0x0 SWAP1 PUSH1 0x1 PUSH1 0x1 PUSH1 0xA0 SHL SUB DUP5 AND SWAP1 PUSH4 0x70A08231 SWAP1 PUSH1 0x24 ADD PUSH1 0x20 PUSH1 0x40 MLOAD DUP1 DUP4 SUB DUP2 DUP7 GAS STATICCALL ISZERO DUP1 ISZERO PUSH2 0x168F JUMPI RETURNDATASIZE PUSH1 0x0 DUP1 RETURNDATACOPY RETURNDATASIZE PUSH1 0x0 REVERT JUMPDEST POP POP POP POP PUSH1 0x40 MLOAD RETURNDATASIZE PUSH1 0x1F NOT PUSH1 0x1F DUP3 ADD AND DUP3 ADD DUP1 PUSH1 0x40 MSTORE POP DUP2 ADD SWAP1 PUSH2 0x16B3 SWAP2 SWAP1 PUSH2 0x2F3E JUMP JUMPDEST SWAP1 POP DUP2 DUP2 LT ISZERO PUSH2 0x1705 JUMPI PUSH1 0x40 MLOAD PUSH3 0x461BCD PUSH1 0xE5 SHL DUP2 MSTORE PUSH1 0x20 PUSH1 0x4 DUP3 ADD MSTORE PUSH1 0x1A PUSH1 0x24 DUP3 ADD MSTORE PUSH32 0x496E73756666696369656E7420746F6B656E2062616C616E6365000000000000 PUSH1 0x44 DUP3 ADD MSTORE PUSH1 0x64 ADD PUSH2 0xE19 JUMP JUMPDEST PUSH1 0x1 PUSH1 0x1 PUSH1 0xA0 SHL SUB DUP4 AND PUSH4 0xA9059CBB CALLER PUSH1 0x40 MLOAD PUSH1 0x1 PUSH1 0x1 PUSH1 0xE0 SHL SUB NOT PUSH1 0xE0 DUP5 SWAP1 SHL AND DUP2 MSTORE PUSH1 0x1 PUSH1 0x1 PUSH1 0xA0 SHL SUB SWAP1 SWAP2 AND PUSH1 0x4 DUP3 ADD MSTORE PUSH1 0x24 DUP2 ADD DUP6 SWAP1 MSTORE PUSH1 0x44 ADD PUSH1 0x20 PUSH1 0x40 MLOAD DUP1 DUP4 SUB DUP2 PUSH1 0x0 DUP8 GAS CALL ISZERO DUP1 ISZERO PUSH2 0x1762 JUMPI RETURNDATASIZE PUSH1 0x0 DUP1 RETURNDATACOPY RETURNDATASIZE PUSH1 0x0 REVERT JUMPDEST POP POP POP POP PUSH1 0x40 MLOAD RETURNDATASIZE PUSH1 0x1F NOT PUSH1 0x1F DUP3 ADD AND DUP3 ADD DUP1 PUSH1 0x40 MSTORE POP DUP2 ADD SWAP1 PUSH2 0x1786 SWAP2 SWAP1 PUSH2 0x2D56 JUMP JUMPDEST POP POP POP POP JUMP JUMPDEST PUSH1 0x11 DUP1 SLOAD PUSH2 0x11EE SWAP1 PUSH2 0x2D73 JUMP JUMPDEST PUSH1 0x0 SLOAD PUSH1 0x1 PUSH1 0x1 PUSH1 0xA0 SHL SUB AND CALLER EQ PUSH2 0x17C3 JUMPI PUSH1 0x40 MLOAD PUSH3 0x461BCD PUSH1 0xE5 SHL DUP2 MSTORE PUSH1 0x4 ADD PUSH2 0xE19 SWAP1 PUSH2 0x2B29 JUMP JUMPDEST PUSH2 0x17CD PUSH1 0x0 PUSH2 0x269D JUMP JUMPDEST JUMP JUMPDEST PUSH1 0x1C SLOAD PUSH1 0x1 SLOAD PUSH1 0x0 SWAP2 SWAP1 PUSH1 0x1 PUSH1 0xA0 SHL SWAP1 DIV PUSH1 0xFF AND DUP1 ISZERO PUSH2 0x1495 JUMPI POP PUSH2 0x1495 DUP4 PUSH2 0x261C JUMP JUMPDEST PUSH1 0x0 DUP1 PUSH2 0x17FF DUP4 PUSH2 0x1883 JUMP JUMPDEST PUSH2 0x1808 DUP5 PUSH2 0x1F91 JUMP JUMPDEST PUSH2 0x1811 DUP6 PUSH2 0x24A8 JUMP JUMPDEST PUSH2 0x181A DUP7 PUSH2 0x24F0 JUMP JUMPDEST PUSH2 0x1824 SWAP2 SWAP1 PUSH2 0x2C0D JUMP JUMPDEST PUSH2 0x182E SWAP2 SWAP1 PUSH2 0x2C0D JUMP JUMPDEST PUSH2 0x1838 SWAP2 SWAP1 PUSH2 0x2C0D JUMP JUMPDEST SWAP1 POP PUSH1 0x2 PUSH2 0xEBC DUP5 PUSH2 0x1471 JUMP JUMPDEST PUSH1 0x1F SLOAD PUSH1 0x1 SLOAD PUSH1 0x0 SWAP2 SWAP1 PUSH1 0x1 PUSH1 0xA0 SHL SWAP1 DIV PUSH1 0xFF AND DUP1 ISZERO PUSH2 0x1495 JUMPI POP PUSH2 0x1495 DUP4 PUSH2 0x261C JUMP JUMPDEST PUSH1 0xD DUP1 SLOAD PUSH2 0x11EE SWAP1 PUSH2 0x2D73 JUMP JUMPDEST PUSH1 0x23 DUP1 SLOAD PUSH2 0x11EE SWAP1 PUSH2 0x2D73 JUMP JUMPDEST PUSH1 0x18 SLOAD PUSH1 0x1 SLOAD PUSH1 0x0 SWAP2 SWAP1 PUSH1 0x1 PUSH1 0xA0 SHL SWAP1 DIV PUSH1 0xFF AND DUP1 ISZERO PUSH2 0x1495 JUMPI POP PUSH2 0x1495 DUP4 PUSH2 0x261C JUMP JUMPDEST PUSH1 0x0 SLOAD PUSH1 0x1 PUSH1 0x1 PUSH1 0xA0 SHL SUB AND CALLER EQ PUSH2 0x18D1 JUMPI PUSH1 0x40 MLOAD PUSH3 0x461BCD PUSH1 0xE5 SHL DUP2 MSTORE PUSH1 0x4 ADD PUSH2 0xE19 SWAP1 PUSH2 0x2B29 JUMP JUMPDEST PUSH1 0x0 PUSH1 0xD DUP1 SLOAD PUSH2 0x18E0 SWAP1 PUSH2 0x2D73 JUMP JUMPDEST DUP1 PUSH1 0x1F ADD PUSH1 0x20 DUP1 SWAP2 DIV MUL PUSH1 0x20 ADD PUSH1 0x40 MLOAD SWAP1 DUP2 ADD PUSH1 0x40 MSTORE DUP1 SWAP3 SWAP2 SWAP1 DUP2 DUP2 MSTORE PUSH1 0x20 ADD DUP3 DUP1 SLOAD PUSH2 0x190C SWAP1 PUSH2 0x2D73 JUMP JUMPDEST DUP1 ISZERO PUSH2 0x1959 JUMPI DUP1 PUSH1 0x1F LT PUSH2 0x192E JUMPI PUSH2 0x100 DUP1 DUP4 SLOAD DIV MUL DUP4 MSTORE SWAP2 PUSH1 0x20 ADD SWAP2 PUSH2 0x1959 JUMP JUMPDEST DUP3 ADD SWAP2 SWAP1 PUSH1 0x0 MSTORE PUSH1 0x20 PUSH1 0x0 KECCAK256 SWAP1 JUMPDEST DUP2 SLOAD DUP2 MSTORE SWAP1 PUSH1 0x1 ADD SWAP1 PUSH1 0x20 ADD DUP1 DUP4 GT PUSH2 0x193C JUMPI DUP3 SWAP1 SUB PUSH1 0x1F AND DUP3 ADD SWAP2 JUMPDEST POP POP PUSH1 0xE SLOAD PUSH1 0xF SLOAD PUSH1 0x10 SLOAD DUP12 MLOAD SWAP7 SWAP8 POP PUSH1 0x1 PUSH1 0x1 PUSH1 0xA0 SHL SUB SWAP1 SWAP3 AND SWAP6 SWAP1 SWAP5 POP SWAP1 SWAP3 POP PUSH2 0x198D SWAP2 POP PUSH1 0xD SWAP1 PUSH1 0x20 DUP12 ADD SWAP1 PUSH2 0x26ED JUMP JUMPDEST POP PUSH1 0xE DUP1 SLOAD PUSH1 0x1 PUSH1 0x1 PUSH1 0xA0 SHL SUB NOT AND PUSH1 0x1 PUSH1 0x1 PUSH1 0xA0 SHL SUB DUP10 AND SWAP1 DUP2 OR SWAP1 SWAP2 SSTORE PUSH1 0xF DUP8 SWAP1 SSTORE PUSH1 0x10 DUP7 SWAP1 SSTORE PUSH1 0x40 MLOAD PUSH1 0x0 DUP1 MLOAD PUSH1 0x20 PUSH2 0x2FF7 DUP4 CODECOPY DUP2 MLOAD SWAP2 MSTORE SWAP2 PUSH2 0x11CF SWAP2 DUP8 SWAP2 DUP8 SWAP2 DUP8 SWAP2 DUP8 SWAP2 PUSH1 0xD SWAP2 SWAP1 DUP15 SWAP1 DUP15 SWAP1 PUSH2 0x2E4E JUMP JUMPDEST PUSH1 0x0 DUP1 PUSH2 0x19EE DUP4 PUSH2 0x1845 JUMP JUMPDEST PUSH2 0x182E DUP5 PUSH2 0x17CF JUMP JUMPDEST PUSH1 0xA SLOAD PUSH1 0xE SLOAD PUSH1 0x12 SLOAD PUSH1 0x16 SLOAD PUSH1 0x1A SLOAD PUSH1 0x1D SLOAD PUSH1 0x20 SLOAD PUSH1 0x9 DUP1 SLOAD PUSH1 0x60 SWAP9 PUSH1 0x0 SWAP9 DUP11 SWAP9 DUP11 SWAP9 DUP11 SWAP9 DUP11 SWAP9 DUP11 SWAP9 DUP11 SWAP9 DUP11 SWAP9 DUP11 SWAP9 DUP10 SWAP9 DUP10 SWAP9 SWAP4 SWAP8 PUSH1 0x1 PUSH1 0x1 PUSH1 0xA0 SHL SUB SWAP3 DUP4 AND SWAP8 PUSH1 0xD SWAP8 SWAP3 DUP5 AND SWAP7 PUSH1 0x11 SWAP7 DUP6 AND SWAP6 PUSH1 0x15 SWAP6 SWAP4 DUP5 AND SWAP5 PUSH1 0x19 SWAP5 SWAP4 DUP5 AND SWAP4 SWAP1 DUP2 AND SWAP3 AND SWAP1 DUP13 SWAP1 PUSH2 0x1A64 SWAP1 PUSH2 0x2D73 JUMP JUMPDEST DUP1 PUSH1 0x1F ADD PUSH1 0x20 DUP1 SWAP2 DIV MUL PUSH1 0x20 ADD PUSH1 0x40 MLOAD SWAP1 DUP2 ADD PUSH1 0x40 MSTORE DUP1 SWAP3 SWAP2 SWAP1 DUP2 DUP2 MSTORE PUSH1 0x20 ADD DUP3 DUP1 SLOAD PUSH2 0x1A90 SWAP1 PUSH2 0x2D73 JUMP JUMPDEST DUP1 ISZERO PUSH2 0x1ADD JUMPI DUP1 PUSH1 0x1F LT PUSH2 0x1AB2 JUMPI PUSH2 0x100 DUP1 DUP4 SLOAD DIV MUL DUP4 MSTORE SWAP2 PUSH1 0x20 ADD SWAP2 PUSH2 0x1ADD JUMP JUMPDEST DUP3 ADD SWAP2 SWAP1 PUSH1 0x0 MSTORE PUSH1 0x20 PUSH1 0x0 KECCAK256 SWAP1 JUMPDEST DUP2 SLOAD DUP2 MSTORE SWAP1 PUSH1 0x1 ADD SWAP1 PUSH1 0x20 ADD DUP1 DUP4 GT PUSH2 0x1AC0 JUMPI DUP3 SWAP1 SUB PUSH1 0x1F AND DUP3 ADD SWAP2 JUMPDEST POP POP POP POP POP SWAP12 POP DUP10 DUP1 SLOAD PUSH2 0x1AF0 SWAP1 PUSH2 0x2D73 JUMP JUMPDEST DUP1 PUSH1 0x1F ADD PUSH1 0x20 DUP1 SWAP2 DIV MUL PUSH1 0x20 ADD PUSH1 0x40 MLOAD SWAP1 DUP2 ADD PUSH1 0x40 MSTORE DUP1 SWAP3 SWAP2 SWAP1 DUP2 DUP2 MSTORE PUSH1 0x20 ADD DUP3 DUP1 SLOAD PUSH2 0x1B1C SWAP1 PUSH2 0x2D73 JUMP JUMPDEST DUP1 ISZERO PUSH2 0x1B69 JUMPI DUP1 PUSH1 0x1F LT PUSH2 0x1B3E JUMPI PUSH2 0x100 DUP1 DUP4 SLOAD DIV MUL DUP4 MSTORE SWAP2 PUSH1 0x20 ADD SWAP2 PUSH2 0x1B69 JUMP JUMPDEST DUP3 ADD SWAP2 SWAP1 PUSH1 0x0 MSTORE PUSH1 0x20 PUSH1 0x0 KECCAK256 SWAP1 JUMPDEST DUP2 SLOAD DUP2 MSTORE SWAP1 PUSH1 0x1 ADD SWAP1 PUSH1 0x20 ADD DUP1 DUP4 GT PUSH2 0x1B4C JUMPI DUP3 SWAP1 SUB PUSH1 0x1F AND DUP3 ADD SWAP2 JUMPDEST POP POP POP POP POP SWAP10 POP DUP8 DUP1 SLOAD PUSH2 0x1B7C SWAP1 PUSH2 0x2D73 JUMP JUMPDEST DUP1 PUSH1 0x1F ADD PUSH1 0x20 DUP1 SWAP2 DIV MUL PUSH1 0x20 ADD PUSH1 0x40 MLOAD SWAP1 DUP2 ADD PUSH1 0x40 MSTORE DUP1 SWAP3 SWAP2 SWAP1 DUP2 DUP2 MSTORE PUSH1 0x20 ADD DUP3 DUP1 SLOAD PUSH2 0x1BA8 SWAP1 PUSH2 0x2D73 JUMP JUMPDEST DUP1 ISZERO PUSH2 0x1BF5 JUMPI DUP1 PUSH1 0x1F LT PUSH2 0x1BCA JUMPI PUSH2 0x100 DUP1 DUP4 SLOAD DIV MUL DUP4 MSTORE SWAP2 PUSH1 0x20 ADD SWAP2 PUSH2 0x1BF5 JUMP JUMPDEST DUP3 ADD SWAP2 SWAP1 PUSH1 0x0 MSTORE PUSH1 0x20 PUSH1 0x0 KECCAK256 SWAP1 JUMPDEST DUP2 SLOAD DUP2 MSTORE SWAP1 PUSH1 0x1 ADD SWAP1 PUSH1 0x20 ADD DUP1 DUP4 GT PUSH2 0x1BD8 JUMPI DUP3 SWAP1 SUB PUSH1 0x1F AND DUP3 ADD SWAP2 JUMPDEST POP POP POP POP POP SWAP8 POP DUP6 DUP1 SLOAD PUSH2 0x1C08 SWAP1 PUSH2 0x2D73 JUMP JUMPDEST DUP1 PUSH1 0x1F ADD PUSH1 0x20 DUP1 SWAP2 DIV MUL PUSH1 0x20 ADD PUSH1 0x40 MLOAD SWAP1 DUP2 ADD PUSH1 0x40 MSTORE DUP1 SWAP3 SWAP2 SWAP1 DUP2 DUP2 MSTORE PUSH1 0x20 ADD DUP3 DUP1 SLOAD PUSH2 0x1C34 SWAP1 PUSH2 0x2D73 JUMP JUMPDEST DUP1 ISZERO PUSH2 0x1C81 JUMPI DUP1 PUSH1 0x1F LT PUSH2 0x1C56 JUMPI PUSH2 0x100 DUP1 DUP4 SLOAD DIV MUL DUP4 MSTORE SWAP2 PUSH1 0x20 ADD SWAP2 PUSH2 0x1C81 JUMP JUMPDEST DUP3 ADD SWAP2 SWAP1 PUSH1 0x0 MSTORE PUSH1 0x20 PUSH1 0x0 KECCAK256 SWAP1 JUMPDEST DUP2 SLOAD DUP2 MSTORE SWAP1 PUSH1 0x1 ADD SWAP1 PUSH1 0x20 ADD DUP1 DUP4 GT PUSH2 0x1C64 JUMPI DUP3 SWAP1 SUB PUSH1 0x1F AND DUP3 ADD SWAP2 JUMPDEST POP POP POP POP POP SWAP6 POP DUP4 DUP1 SLOAD PUSH2 0x1C94 SWAP1 PUSH2 0x2D73 JUMP JUMPDEST DUP1 PUSH1 0x1F ADD PUSH1 0x20 DUP1 SWAP2 DIV MUL PUSH1 0x20 ADD PUSH1 0x40 MLOAD SWAP1 DUP2 ADD PUSH1 0x40 MSTORE DUP1 SWAP3 SWAP2 SWAP1 DUP2 DUP2 MSTORE PUSH1 0x20 ADD DUP3 DUP1 SLOAD PUSH2 0x1CC0 SWAP1 PUSH2 0x2D73 JUMP JUMPDEST DUP1 ISZERO PUSH2 0x1D0D JUMPI DUP1 PUSH1 0x1F LT PUSH2 0x1CE2 JUMPI PUSH2 0x100 DUP1 DUP4 SLOAD DIV MUL DUP4 MSTORE SWAP2 PUSH1 0x20 ADD SWAP2 PUSH2 0x1D0D JUMP JUMPDEST DUP3 ADD SWAP2 SWAP1 PUSH1 0x0 MSTORE PUSH1 0x20 PUSH1 0x0 KECCAK256 SWAP1 JUMPDEST DUP2 SLOAD DUP2 MSTORE SWAP1 PUSH1 0x1 ADD SWAP1 PUSH1 0x20 ADD DUP1 DUP4 GT PUSH2 0x1CF0 JUMPI DUP3 SWAP1 SUB PUSH1 0x1F AND DUP3 ADD SWAP2 JUMPDEST POP POP POP POP POP SWAP4 POP SWAP12 POP SWAP12 POP SWAP12 POP SWAP12 POP SWAP12 POP SWAP12 POP SWAP12 POP SWAP12 POP SWAP12 POP SWAP12 POP SWAP12 POP SWAP12 POP SWAP1 SWAP2 SWAP3 SWAP4 SWAP5 SWAP6 SWAP7 SWAP8 SWAP9 SWAP10 SWAP11 SWAP12 JUMP JUMPDEST PUSH1 0x0 SLOAD PUSH1 0x1 PUSH1 0x1 PUSH1 0xA0 SHL SUB AND CALLER EQ PUSH2 0x1D64 JUMPI PUSH1 0x40 MLOAD PUSH3 0x461BCD PUSH1 0xE5 SHL DUP2 MSTORE PUSH1 0x4 ADD PUSH2 0xE19 SWAP1 PUSH2 0x2B29 JUMP JUMPDEST PUSH1 0x1 DUP1 SLOAD PUSH1 0x1 PUSH1 0x1 PUSH1 0xA0 SHL SUB NOT AND PUSH1 0x1 PUSH1 0x1 PUSH1 0xA0 SHL SUB SWAP3 SWAP1 SWAP3 AND SWAP2 SWAP1 SWAP2 OR SWAP1 SSTORE JUMP JUMPDEST PUSH1 0x0 SLOAD PUSH1 0x1 PUSH1 0x1 PUSH1 0xA0 SHL SUB AND CALLER EQ PUSH2 0x1DB0 JUMPI PUSH1 0x40 MLOAD PUSH3 0x461BCD PUSH1 0xE5 SHL DUP2 MSTORE PUSH1 0x4 ADD PUSH2 0xE19 SWAP1 PUSH2 0x2B29 JUMP JUMPDEST PUSH1 0x0 PUSH1 0x9 DUP1 SLOAD PUSH2 0x1DBF SWAP1 PUSH2 0x2D73 JUMP JUMPDEST DUP1 PUSH1 0x1F ADD PUSH1 0x20 DUP1 SWAP2 DIV MUL PUSH1 0x20 ADD PUSH1 0x40 MLOAD SWAP1 DUP2 ADD PUSH1 0x40 MSTORE DUP1 SWAP3 SWAP2 SWAP1 DUP2 DUP2 MSTORE PUSH1 0x20 ADD DUP3 DUP1 SLOAD PUSH2 0x1DEB SWAP1 PUSH2 0x2D73 JUMP JUMPDEST DUP1 ISZERO PUSH2 0x1E38 JUMPI DUP1 PUSH1 0x1F LT PUSH2 0x1E0D JUMPI PUSH2 0x100 DUP1 DUP4 SLOAD DIV MUL DUP4 MSTORE SWAP2 PUSH1 0x20 ADD SWAP2 PUSH2 0x1E38 JUMP JUMPDEST DUP3 ADD SWAP2 SWAP1 PUSH1 0x0 MSTORE PUSH1 0x20 PUSH1 0x0 KECCAK256 SWAP1 JUMPDEST DUP2 SLOAD DUP2 MSTORE SWAP1 PUSH1 0x1 ADD SWAP1 PUSH1 0x20 ADD DUP1 DUP4 GT PUSH2 0x1E1B JUMPI DUP3 SWAP1 SUB PUSH1 0x1F AND DUP3 ADD SWAP2 JUMPDEST POP POP PUSH1 0xA SLOAD PUSH1 0xB SLOAD PUSH1 0xC SLOAD DUP12 MLOAD SWAP7 SWAP8 POP PUSH1 0x1 PUSH1 0x1 PUSH1 0xA0 SHL SUB SWAP1 SWAP3 AND SWAP6 SWAP1 SWAP5 POP SWAP1 SWAP3 POP PUSH2 0x1E6C SWAP2 POP PUSH1 0x9 SWAP1 PUSH1 0x20 DUP12 ADD SWAP1 PUSH2 0x26ED JUMP JUMPDEST POP PUSH1 0xA DUP1 SLOAD PUSH1 0x1 PUSH1 0x1 PUSH1 0xA0 SHL SUB NOT AND PUSH1 0x1 PUSH1 0x1 PUSH1 0xA0 SHL SUB DUP10 AND SWAP1 DUP2 OR SWAP1 SWAP2 SSTORE PUSH1 0xB DUP8 SWAP1 SSTORE PUSH1 0xC DUP7 SWAP1 SSTORE PUSH1 0x40 MLOAD PUSH1 0x0 DUP1 MLOAD PUSH1 0x20 PUSH2 0x2FF7 DUP4 CODECOPY DUP2 MLOAD SWAP2 MSTORE SWAP2 PUSH2 0x11CF SWAP2 DUP8 SWAP2 DUP8 SWAP2 DUP8 SWAP2 DUP8 SWAP2 PUSH1 0x9 SWAP2 SWAP1 DUP15 SWAP1 DUP15 SWAP1 PUSH2 0x2E4E JUMP JUMPDEST PUSH1 0x1B SLOAD PUSH1 0x1 SLOAD PUSH1 0x0 SWAP2 SWAP1 PUSH1 0x1 PUSH1 0xA0 SHL SWAP1 DIV PUSH1 0xFF AND DUP1 ISZERO PUSH2 0xEFB JUMPI POP PUSH2 0xEFB DUP4 PUSH2 0x261C JUMP JUMPDEST PUSH1 0x13 SLOAD PUSH1 0x1 SLOAD PUSH1 0x0 SWAP2 SWAP1 PUSH1 0x1 PUSH1 0xA0 SHL SWAP1 DIV PUSH1 0xFF AND DUP1 ISZERO PUSH2 0xEFB JUMPI POP PUSH2 0xEFB DUP4 PUSH2 0x261C JUMP JUMPDEST PUSH1 0x0 SLOAD PUSH1 0x1 PUSH1 0x1 PUSH1 0xA0 SHL SUB AND CALLER EQ PUSH2 0x1F33 JUMPI PUSH1 0x40 MLOAD PUSH3 0x461BCD PUSH1 0xE5 SHL DUP2 MSTORE PUSH1 0x4 ADD PUSH2 0xE19 SWAP1 PUSH2 0x2B29 JUMP JUMPDEST PUSH1 0x1D DUP1 SLOAD PUSH1 0x1E DUP1 SLOAD PUSH1 0x1F DUP1 SLOAD PUSH1 0x1 PUSH1 0x1 PUSH1 0xA0 SHL SUB DUP10 DUP2 AND PUSH1 0x1 PUSH1 0x1 PUSH1 0xA0 SHL SUB NOT DUP8 AND DUP2 OR SWAP1 SWAP8 SSTORE SWAP4 DUP9 SWAP1 SSTORE SWAP1 DUP7 SWAP1 SSTORE PUSH1 0x40 MLOAD SWAP3 SWAP1 SWAP4 AND SWAP4 SWAP1 SWAP3 SWAP2 PUSH1 0x0 DUP1 MLOAD PUSH1 0x20 PUSH2 0x2FF7 DUP4 CODECOPY DUP2 MLOAD SWAP2 MSTORE SWAP2 PUSH2 0xE80 SWAP2 DUP7 SWAP2 DUP7 SWAP2 DUP7 SWAP2 SWAP1 DUP12 SWAP1 DUP12 SWAP1 PUSH2 0x2F57 JUMP JUMPDEST PUSH1 0x14 SLOAD PUSH1 0x1 SLOAD PUSH1 0x0 SWAP2 SWAP1 PUSH1 0x1 PUSH1 0xA0 SHL SWAP1 DIV PUSH1 0xFF AND DUP1 ISZERO PUSH2 0x1495 JUMPI POP PUSH2 0x1495 DUP4 PUSH2 0x261C JUMP JUMPDEST PUSH1 0x19 DUP1 SLOAD PUSH2 0x11EE SWAP1 PUSH2 0x2D73 JUMP JUMPDEST PUSH1 0x0 SLOAD PUSH1 0x1 PUSH1 0x1 PUSH1 0xA0 SHL SUB AND CALLER EQ PUSH2 0x1FEC JUMPI PUSH1 0x40 MLOAD PUSH3 0x461BCD PUSH1 0xE5 SHL DUP2 MSTORE PUSH1 0x4 ADD PUSH2 0xE19 SWAP1 PUSH2 0x2B29 JUMP JUMPDEST PUSH1 0x0 PUSH1 0x19 DUP1 SLOAD PUSH2 0x1FFB SWAP1 PUSH2 0x2D73 JUMP JUMPDEST DUP1 PUSH1 0x1F ADD PUSH1 0x20 DUP1 SWAP2 DIV MUL PUSH1 0x20 ADD PUSH1 0x40 MLOAD SWAP1 DUP2 ADD PUSH1 0x40 MSTORE DUP1 SWAP3 SWAP2 SWAP1 DUP2 DUP2 MSTORE PUSH1 0x20 ADD DUP3 DUP1 SLOAD PUSH2 0x2027 SWAP1 PUSH2 0x2D73 JUMP JUMPDEST DUP1 ISZERO PUSH2 0x2074 JUMPI DUP1 PUSH1 0x1F LT PUSH2 0x2049 JUMPI PUSH2 0x100 DUP1 DUP4 SLOAD DIV MUL DUP4 MSTORE SWAP2 PUSH1 0x20 ADD SWAP2 PUSH2 0x2074 JUMP JUMPDEST DUP3 ADD SWAP2 SWAP1 PUSH1 0x0 MSTORE PUSH1 0x20 PUSH1 0x0 KECCAK256 SWAP1 JUMPDEST DUP2 SLOAD DUP2 MSTORE SWAP1 PUSH1 0x1 ADD SWAP1 PUSH1 0x20 ADD DUP1 DUP4 GT PUSH2 0x2057 JUMPI DUP3 SWAP1 SUB PUSH1 0x1F AND DUP3 ADD SWAP2 JUMPDEST POP POP PUSH1 0x1A SLOAD PUSH1 0x1B SLOAD PUSH1 0x1C SLOAD DUP12 MLOAD SWAP7 SWAP8 POP PUSH1 0x1 PUSH1 0x1 PUSH1 0xA0 SHL SUB SWAP1 SWAP3 AND SWAP6 SWAP1 SWAP5 POP SWAP1 SWAP3 POP PUSH2 0x20A8 SWAP2 POP PUSH1 0x19 SWAP1 PUSH1 0x20 DUP12 ADD SWAP1 PUSH2 0x26ED JUMP JUMPDEST POP PUSH1 0x1A DUP1 SLOAD PUSH1 0x1 PUSH1 0x1 PUSH1 0xA0 SHL SUB NOT AND PUSH1 0x1 PUSH1 0x1 PUSH1 0xA0 SHL SUB DUP10 AND SWAP1 DUP2 OR SWAP1 SWAP2 SSTORE PUSH1 0x1B DUP8 SWAP1 SSTORE PUSH1 0x1C DUP7 SWAP1 SSTORE PUSH1 0x40 MLOAD PUSH1 0x0 DUP1 MLOAD PUSH1 0x20 PUSH2 0x2FF7 DUP4 CODECOPY DUP2 MLOAD SWAP2 MSTORE SWAP2 PUSH2 0x11CF SWAP2 DUP8 SWAP2 DUP8 SWAP2 DUP8 SWAP2 DUP8 SWAP2 PUSH1 0x19 SWAP2 SWAP1 DUP15 SWAP1 DUP15 SWAP1 PUSH2 0x2E4E JUMP JUMPDEST PUSH1 0x0 SLOAD PUSH1 0x1 PUSH1 0x1 PUSH1 0xA0 SHL SUB AND CALLER EQ PUSH2 0x2127 JUMPI PUSH1 0x40 MLOAD PUSH3 0x461BCD PUSH1 0xE5 SHL DUP2 MSTORE PUSH1 0x4 ADD PUSH2 0xE19 SWAP1 PUSH2 0x2B29 JUMP JUMPDEST PUSH1 0x5 DUP1 SLOAD PUSH1 0xFF NOT AND SWAP4 ISZERO ISZERO SWAP4 SWAP1 SWAP4 OR SWAP1 SWAP3 SSTORE PUSH1 0x6 SSTORE PUSH1 0x7 SSTORE JUMP JUMPDEST PUSH1 0x0 DUP1 PUSH2 0x214D DUP5 PUSH2 0x2484 JUMP JUMPDEST PUSH2 0x2156 DUP6 PUSH2 0x1EE5 JUMP JUMPDEST PUSH2 0x215F DUP7 PUSH2 0x24CC JUMP JUMPDEST PUSH2 0x2168 DUP8 PUSH2 0x21B1 JUMP JUMPDEST PUSH2 0x2172 SWAP2 SWAP1 PUSH2 0x2C0D JUMP JUMPDEST PUSH2 0x217C SWAP2 SWAP1 PUSH2 0x2C0D JUMP JUMPDEST PUSH2 0x2186 SWAP2 SWAP1 PUSH2 0x2C0D JUMP JUMPDEST SWAP1 POP PUSH1 0x2 PUSH2 0x2193 DUP6 PUSH2 0xED7 JUMP JUMPDEST PUSH2 0x219D SWAP2 SWAP1 PUSH2 0x2C25 JUMP JUMPDEST PUSH2 0x21A7 DUP3 DUP6 PUSH2 0x2C0D JUMP JUMPDEST PUSH2 0x13C4 SWAP2 SWAP1 PUSH2 0x2C0D JUMP JUMPDEST PUSH1 0xB SLOAD PUSH1 0x1 SLOAD PUSH1 0x0 SWAP2 SWAP1 PUSH1 0x1 PUSH1 0xA0 SHL SWAP1 DIV PUSH1 0xFF AND DUP1 ISZERO PUSH2 0xEFB JUMPI POP PUSH2 0xEFB DUP4 PUSH2 0x261C JUMP JUMPDEST PUSH1 0x0 SLOAD PUSH1 0x1 PUSH1 0x1 PUSH1 0xA0 SHL SUB AND CALLER EQ PUSH2 0x21FF JUMPI PUSH1 0x40 MLOAD PUSH3 0x461BCD PUSH1 0xE5 SHL DUP2 MSTORE PUSH1 0x4 ADD PUSH2 0xE19 SWAP1 PUSH2 0x2B29 JUMP JUMPDEST PUSH1 0x1 DUP1 SLOAD SWAP5 ISZERO ISZERO PUSH1 0x1 PUSH1 0xA0 SHL MUL PUSH1 0xFF PUSH1 0xA0 SHL NOT SWAP1 SWAP6 AND SWAP5 SWAP1 SWAP5 OR SWAP1 SWAP4 SSTORE PUSH1 0x2 DUP1 SLOAD PUSH1 0x1 PUSH1 0x1 PUSH1 0xA0 SHL SUB SWAP1 SWAP3 AND PUSH1 0x1 PUSH1 0x1 PUSH1 0xA0 SHL SUB NOT SWAP1 SWAP3 AND SWAP2 SWAP1 SWAP2 OR SWAP1 SSTORE PUSH1 0x3 SWAP2 SWAP1 SWAP2 SSTORE PUSH1 0x4 SSTORE JUMP JUMPDEST PUSH1 0x0 SLOAD PUSH1 0x1 PUSH1 0x1 PUSH1 0xA0 SHL SUB AND CALLER EQ PUSH2 0x2272 JUMPI PUSH1 0x40 MLOAD PUSH3 0x461BCD PUSH1 0xE5 SHL DUP2 MSTORE PUSH1 0x4 ADD PUSH2 0xE19 SWAP1 PUSH2 0x2B29 JUMP JUMPDEST PUSH1 0x0 PUSH1 0x23 DUP1 SLOAD PUSH2 0x2281 SWAP1 PUSH2 0x2D73 JUMP JUMPDEST DUP1 PUSH1 0x1F ADD PUSH1 0x20 DUP1 SWAP2 DIV MUL PUSH1 0x20 ADD PUSH1 0x40 MLOAD SWAP1 DUP2 ADD PUSH1 0x40 MSTORE DUP1 SWAP3 SWAP2 SWAP1 DUP2 DUP2 MSTORE PUSH1 0x20 ADD DUP3 DUP1 SLOAD PUSH2 0x22AD SWAP1 PUSH2 0x2D73 JUMP JUMPDEST DUP1 ISZERO PUSH2 0x22FA JUMPI DUP1 PUSH1 0x1F LT PUSH2 0x22CF JUMPI PUSH2 0x100 DUP1 DUP4 SLOAD DIV MUL DUP4 MSTORE SWAP2 PUSH1 0x20 ADD SWAP2 PUSH2 0x22FA JUMP JUMPDEST DUP3 ADD SWAP2 SWAP1 PUSH1 0x0 MSTORE PUSH1 0x20 PUSH1 0x0 KECCAK256 SWAP1 JUMPDEST DUP2 SLOAD DUP2 MSTORE SWAP1 PUSH1 0x1 ADD SWAP1 PUSH1 0x20 ADD DUP1 DUP4 GT PUSH2 0x22DD JUMPI DUP3 SWAP1 SUB PUSH1 0x1F AND DUP3 ADD SWAP2 JUMPDEST POP POP DUP6 MLOAD SWAP4 SWAP5 POP PUSH2 0x2316 SWAP4 PUSH1 0x23 SWAP4 POP PUSH1 0x20 DUP8 ADD SWAP3 POP SWAP1 POP PUSH2 0x26ED JUMP JUMPDEST POP PUSH32 0xF1B71DB64E8D2411035C219AF08906744C6341D677DA5FC7C9F08DC7BD1A9A69 DUP2 PUSH1 0x23 PUSH1 0x40 MLOAD PUSH2 0x15E2 SWAP3 SWAP2 SWAP1 PUSH2 0x2FC8 JUMP JUMPDEST PUSH1 0x0 SLOAD PUSH1 0x1 PUSH1 0x1 PUSH1 0xA0 SHL SUB AND CALLER EQ PUSH2 0x2373 JUMPI PUSH1 0x40 MLOAD PUSH3 0x461BCD PUSH1 0xE5 SHL DUP2 MSTORE PUSH1 0x4 ADD PUSH2 0xE19 SWAP1 PUSH2 0x2B29 JUMP JUMPDEST PUSH1 0x0 PUSH1 0x11 DUP1 SLOAD PUSH2 0x2382 SWAP1 PUSH2 0x2D73 JUMP JUMPDEST DUP1 PUSH1 0x1F ADD PUSH1 0x20 DUP1 SWAP2 DIV MUL PUSH1 0x20 ADD PUSH1 0x40 MLOAD SWAP1 DUP2 ADD PUSH1 0x40 MSTORE DUP1 SWAP3 SWAP2 SWAP1 DUP2 DUP2 MSTORE PUSH1 0x20 ADD DUP3 DUP1 SLOAD PUSH2 0x23AE SWAP1 PUSH2 0x2D73 JUMP JUMPDEST DUP1 ISZERO PUSH2 0x23FB JUMPI DUP1 PUSH1 0x1F LT PUSH2 0x23D0 JUMPI PUSH2 0x100 DUP1 DUP4 SLOAD DIV MUL DUP4 MSTORE SWAP2 PUSH1 0x20 ADD SWAP2 PUSH2 0x23FB JUMP JUMPDEST DUP3 ADD SWAP2 SWAP1 PUSH1 0x0 MSTORE PUSH1 0x20 PUSH1 0x0 KECCAK256 SWAP1 JUMPDEST DUP2 SLOAD DUP2 MSTORE SWAP1 PUSH1 0x1 ADD SWAP1 PUSH1 0x20 ADD DUP1 DUP4 GT PUSH2 0x23DE JUMPI DUP3 SWAP1 SUB PUSH1 0x1F AND DUP3 ADD SWAP2 JUMPDEST POP POP PUSH1 0x12 SLOAD PUSH1 0x13 SLOAD PUSH1 0x14 SLOAD DUP12 MLOAD SWAP7 SWAP8 POP PUSH1 0x1 PUSH1 0x1 PUSH1 0xA0 SHL SUB SWAP1 SWAP3 AND SWAP6 SWAP1 SWAP5 POP SWAP1 SWAP3 POP PUSH2 0x242F SWAP2 POP PUSH1 0x11 SWAP1 PUSH1 0x20 DUP12 ADD SWAP1 PUSH2 0x26ED JUMP JUMPDEST POP PUSH1 0x12 DUP1 SLOAD PUSH1 0x1 PUSH1 0x1 PUSH1 0xA0 SHL SUB NOT AND PUSH1 0x1 PUSH1 0x1 PUSH1 0xA0 SHL SUB DUP10 AND SWAP1 DUP2 OR SWAP1 SWAP2 SSTORE PUSH1 0x13 DUP8 SWAP1 SSTORE PUSH1 0x14 DUP7 SWAP1 SSTORE PUSH1 0x40 MLOAD PUSH1 0x0 DUP1 MLOAD PUSH1 0x20 PUSH2 0x2FF7 DUP4 CODECOPY DUP2 MLOAD SWAP2 MSTORE SWAP2 PUSH2 0x11CF SWAP2 DUP8 SWAP2 DUP8 SWAP2 DUP8 SWAP2 DUP8 SWAP2 PUSH1 0x11 SWAP2 SWAP1 DUP15 SWAP1 DUP15 SWAP1 PUSH2 0x2E4E JUMP JUMPDEST PUSH1 0x17 SLOAD PUSH1 0x1 SLOAD PUSH1 0x0 SWAP2 SWAP1 PUSH1 0x1 PUSH1 0xA0 SHL SWAP1 DIV PUSH1 0xFF AND DUP1 ISZERO PUSH2 0xEFB JUMPI POP PUSH2 0xEFB DUP4 PUSH2 0x261C JUMP JUMPDEST PUSH1 0x10 SLOAD PUSH1 0x1 SLOAD PUSH1 0x0 SWAP2 SWAP1 PUSH1 0x1 PUSH1 0xA0 SHL SWAP1 DIV PUSH1 0xFF AND DUP1 ISZERO PUSH2 0x1495 JUMPI POP PUSH2 0x1495 DUP4 PUSH2 0x261C JUMP JUMPDEST PUSH1 0xF SLOAD PUSH1 0x1 SLOAD PUSH1 0x0 SWAP2 SWAP1 PUSH1 0x1 PUSH1 0xA0 SHL SWAP1 DIV PUSH1 0xFF AND DUP1 ISZERO PUSH2 0xEFB JUMPI POP PUSH2 0xEFB DUP4 PUSH2 0x261C JUMP JUMPDEST PUSH1 0xC SLOAD PUSH1 0x1 SLOAD PUSH1 0x0 SWAP2 SWAP1 PUSH1 0x1 PUSH1 0xA0 SHL SWAP1 DIV PUSH1 0xFF AND DUP1 ISZERO PUSH2 0x1495 JUMPI POP PUSH2 0x1495 DUP4 PUSH2 0x261C JUMP JUMPDEST PUSH1 0x0 SLOAD PUSH1 0x1 PUSH1 0x1 PUSH1 0xA0 SHL SUB AND CALLER EQ PUSH2 0x253E JUMPI PUSH1 0x40 MLOAD PUSH3 0x461BCD PUSH1 0xE5 SHL DUP2 MSTORE PUSH1 0x4 ADD PUSH2 0xE19 SWAP1 PUSH2 0x2B29 JUMP JUMPDEST PUSH1 0x1 PUSH1 0x1 PUSH1 0xA0 SHL SUB DUP2 AND PUSH2 0x25A3 JUMPI PUSH1 0x40 MLOAD PUSH3 0x461BCD PUSH1 0xE5 SHL DUP2 MSTORE PUSH1 0x20 PUSH1 0x4 DUP3 ADD MSTORE PUSH1 0x26 PUSH1 0x24 DUP3 ADD MSTORE PUSH32 0x4F776E61626C653A206E6577206F776E657220697320746865207A65726F2061 PUSH1 0x44 DUP3 ADD MSTORE PUSH6 0x646472657373 PUSH1 0xD0 SHL PUSH1 0x64 DUP3 ADD MSTORE PUSH1 0x84 ADD PUSH2 0xE19 JUMP JUMPDEST PUSH2 0x25AC DUP2 PUSH2 0x269D JUMP JUMPDEST POP JUMP JUMPDEST PUSH1 0x0 DUP1 PUSH2 0x25BB DUP4 PUSH2 0x21B1 JUMP JUMPDEST PUSH1 0xA SLOAD SWAP1 SWAP5 PUSH1 0x1 PUSH1 0x1 PUSH1 0xA0 SHL SUB SWAP1 SWAP2 AND SWAP4 POP SWAP2 POP POP JUMP JUMPDEST PUSH1 0x0 DUP1 PUSH1 0x0 DUP1 PUSH1 0x0 DUP1 PUSH1 0x0 PUSH2 0x25E6 DUP9 PUSH2 0x21B1 JUMP JUMPDEST PUSH2 0x25EF DUP10 PUSH2 0x24CC JUMP JUMPDEST PUSH2 0x25F8 DUP11 PUSH2 0x1EE5 JUMP JUMPDEST PUSH2 0x2601 DUP12 PUSH2 0x2484 JUMP JUMPDEST PUSH2 0x260A DUP13 PUSH2 0x1EC1 JUMP JUMPDEST PUSH2 0x2613 DUP14 PUSH2 0x13CC JUMP JUMPDEST PUSH2 0x1022 DUP15 PUSH2 0xED7 JUMP JUMPDEST PUSH1 0x2 SLOAD PUSH1 0x3 SLOAD PUSH1 0x40 MLOAD PUSH3 0x7EEAC7 PUSH1 0xE1 SHL DUP2 MSTORE PUSH1 0x1 PUSH1 0x1 PUSH1 0xA0 SHL SUB DUP5 DUP2 AND PUSH1 0x4 DUP4 ADD MSTORE PUSH1 0x24 DUP3 ADD SWAP3 SWAP1 SWAP3 MSTORE PUSH1 0x0 SWAP3 DUP4 SWAP3 AND SWAP1 PUSH3 0xFDD58E SWAP1 PUSH1 0x44 ADD PUSH1 0x20 PUSH1 0x40 MLOAD DUP1 DUP4 SUB DUP2 DUP7 GAS STATICCALL ISZERO DUP1 ISZERO PUSH2 0x2672 JUMPI RETURNDATASIZE PUSH1 0x0 DUP1 RETURNDATACOPY RETURNDATASIZE PUSH1 0x0 REVERT JUMPDEST POP POP POP POP PUSH1 0x40 MLOAD RETURNDATASIZE PUSH1 0x1F NOT PUSH1 0x1F DUP3 ADD AND DUP3 ADD DUP1 PUSH1 0x40 MSTORE POP DUP2 ADD SWAP1 PUSH2 0x2696 SWAP2 SWAP1 PUSH2 0x2F3E JUMP JUMPDEST GT SWAP3 SWAP2 POP POP JUMP JUMPDEST PUSH1 0x0 DUP1 SLOAD PUSH1 0x1 PUSH1 0x1 PUSH1 0xA0 SHL SUB DUP4 DUP2 AND PUSH1 0x1 PUSH1 0x1 PUSH1 0xA0 SHL SUB NOT DUP4 AND DUP2 OR DUP5 SSTORE PUSH1 0x40 MLOAD SWAP2 SWAP1 SWAP3 AND SWAP3 DUP4 SWAP2 PUSH32 0x8BE0079C531659141344CD1FD0A4F28419497F9722A3DAAFE3B4186F6B6457E0 SWAP2 SWAP1 LOG3 POP POP JUMP JUMPDEST DUP3 DUP1 SLOAD PUSH2 0x26F9 SWAP1 PUSH2 0x2D73 JUMP JUMPDEST SWAP1 PUSH1 0x0 MSTORE PUSH1 0x20 PUSH1 0x0 KECCAK256 SWAP1 PUSH1 0x1F ADD PUSH1 0x20 SWAP1 DIV DUP2 ADD SWAP3 DUP3 PUSH2 0x271B JUMPI PUSH1 0x0 DUP6 SSTORE PUSH2 0x2761 JUMP JUMPDEST DUP3 PUSH1 0x1F LT PUSH2 0x2734 JUMPI DUP1 MLOAD PUSH1 0xFF NOT AND DUP4 DUP1 ADD OR DUP6 SSTORE PUSH2 0x2761 JUMP JUMPDEST DUP3 DUP1 ADD PUSH1 0x1 ADD DUP6 SSTORE DUP3 ISZERO PUSH2 0x2761 JUMPI SWAP2 DUP3 ADD JUMPDEST DUP3 DUP2 GT ISZERO PUSH2 0x2761 JUMPI DUP3 MLOAD DUP3 SSTORE SWAP2 PUSH1 0x20 ADD SWAP2 SWAP1 PUSH1 0x1 ADD SWAP1 PUSH2 0x2746 JUMP JUMPDEST POP PUSH2 0x276D SWAP3 SWAP2 POP PUSH2 0x2771 JUMP JUMPDEST POP SWAP1 JUMP JUMPDEST JUMPDEST DUP1 DUP3 GT ISZERO PUSH2 0x276D JUMPI PUSH1 0x0 DUP2 SSTORE PUSH1 0x1 ADD PUSH2 0x2772 JUMP JUMPDEST PUSH1 0x1 PUSH1 0x1 PUSH1 0xA0 SHL SUB DUP2 AND DUP2 EQ PUSH2 0x25AC JUMPI PUSH1 0x0 DUP1 REVERT JUMPDEST PUSH1 0x0 DUP1 PUSH1 0x0 PUSH1 0x60 DUP5 DUP7 SUB SLT ISZERO PUSH2 0x27B0 JUMPI PUSH1 0x0 DUP1 REVERT JUMPDEST DUP4 CALLDATALOAD PUSH2 0x27BB DUP2 PUSH2 0x2786 JUMP JUMPDEST SWAP6 PUSH1 0x20 DUP6 ADD CALLDATALOAD SWAP6 POP PUSH1 0x40 SWAP1 SWAP5 ADD CALLDATALOAD SWAP4 SWAP3 POP POP POP JUMP JUMPDEST PUSH1 0x0 PUSH1 0x20 DUP3 DUP5 SUB SLT ISZERO PUSH2 0x27E2 JUMPI PUSH1 0x0 DUP1 REVERT JUMPDEST DUP2 CALLDATALOAD PUSH2 0xED0 DUP2 PUSH2 0x2786 JUMP JUMPDEST PUSH1 0x0 PUSH1 0x20 DUP3 DUP5 SUB SLT ISZERO PUSH2 0x27FF JUMPI PUSH1 0x0 DUP1 REVERT JUMPDEST POP CALLDATALOAD SWAP2 SWAP1 POP JUMP JUMPDEST PUSH4 0x4E487B71 PUSH1 0xE0 SHL PUSH1 0x0 MSTORE PUSH1 0x41 PUSH1 0x4 MSTORE PUSH1 0x24 PUSH1 0x0 REVERT JUMPDEST PUSH1 0x0 DUP3 PUSH1 0x1F DUP4 ADD SLT PUSH2 0x282D JUMPI PUSH1 0x0 DUP1 REVERT JUMPDEST DUP2 CALLDATALOAD PUSH8 0xFFFFFFFFFFFFFFFF DUP1 DUP3 GT ISZERO PUSH2 0x2848 JUMPI PUSH2 0x2848 PUSH2 0x2806 JUMP JUMPDEST PUSH1 0x40 MLOAD PUSH1 0x1F DUP4 ADD PUSH1 0x1F NOT SWAP1 DUP2 AND PUSH1 0x3F ADD AND DUP2 ADD SWAP1 DUP3 DUP3 GT DUP2 DUP4 LT OR ISZERO PUSH2 0x2870 JUMPI PUSH2 0x2870 PUSH2 0x2806 JUMP JUMPDEST DUP2 PUSH1 0x40 MSTORE DUP4 DUP2 MSTORE DUP7 PUSH1 0x20 DUP6 DUP9 ADD ADD GT ISZERO PUSH2 0x2889 JUMPI PUSH1 0x0 DUP1 REVERT JUMPDEST DUP4 PUSH1 0x20 DUP8 ADD PUSH1 0x20 DUP4 ADD CALLDATACOPY PUSH1 0x0 PUSH1 0x20 DUP6 DUP4 ADD ADD MSTORE DUP1 SWAP5 POP POP POP POP POP SWAP3 SWAP2 POP POP JUMP JUMPDEST PUSH1 0x0 DUP1 PUSH1 0x0 DUP1 PUSH1 0x80 DUP6 DUP8 SUB SLT ISZERO PUSH2 0x28BF JUMPI PUSH1 0x0 DUP1 REVERT JUMPDEST DUP5 CALLDATALOAD PUSH8 0xFFFFFFFFFFFFFFFF DUP2 GT ISZERO PUSH2 0x28D6 JUMPI PUSH1 0x0 DUP1 REVERT JUMPDEST PUSH2 0x28E2 DUP8 DUP3 DUP9 ADD PUSH2 0x281C JUMP JUMPDEST SWAP5 POP POP PUSH1 0x20 DUP6 ADD CALLDATALOAD PUSH2 0x28F3 DUP2 PUSH2 0x2786 JUMP JUMPDEST SWAP4 SWAP7 SWAP4 SWAP6 POP POP POP POP PUSH1 0x40 DUP3 ADD CALLDATALOAD SWAP2 PUSH1 0x60 ADD CALLDATALOAD SWAP1 JUMP JUMPDEST PUSH1 0x0 DUP2 MLOAD DUP1 DUP5 MSTORE PUSH1 0x0 JUMPDEST DUP2 DUP2 LT ISZERO PUSH2 0x292E JUMPI PUSH1 0x20 DUP2 DUP6 ADD DUP2 ADD MLOAD DUP7 DUP4 ADD DUP3 ADD MSTORE ADD PUSH2 0x2912 JUMP JUMPDEST DUP2 DUP2 GT ISZERO PUSH2 0x2940 JUMPI PUSH1 0x0 PUSH1 0x20 DUP4 DUP8 ADD ADD MSTORE JUMPDEST POP PUSH1 0x1F ADD PUSH1 0x1F NOT AND SWAP3 SWAP1 SWAP3 ADD PUSH1 0x20 ADD SWAP3 SWAP2 POP POP JUMP JUMPDEST PUSH1 0x20 DUP2 MSTORE PUSH1 0x0 PUSH2 0xED0 PUSH1 0x20 DUP4 ADD DUP5 PUSH2 0x2908 JUMP JUMPDEST PUSH1 0x0 DUP1 PUSH1 0x40 DUP4 DUP6 SUB SLT ISZERO PUSH2 0x297B JUMPI PUSH1 0x0 DUP1 REVERT JUMPDEST DUP3 CALLDATALOAD PUSH2 0x2986 DUP2 PUSH2 0x2786 JUMP JUMPDEST SWAP5 PUSH1 0x20 SWAP4 SWAP1 SWAP4 ADD CALLDATALOAD SWAP4 POP POP POP JUMP JUMPDEST PUSH2 0x180 DUP2 MSTORE PUSH1 0x0 PUSH2 0x29A9 PUSH2 0x180 DUP4 ADD DUP16 PUSH2 0x2908 JUMP JUMPDEST PUSH1 0x1 PUSH1 0x1 PUSH1 0xA0 SHL SUB DUP15 AND PUSH1 0x20 DUP5 ADD MSTORE DUP3 DUP2 SUB PUSH1 0x40 DUP5 ADD MSTORE PUSH2 0x29CA DUP2 DUP15 PUSH2 0x2908 JUMP JUMPDEST PUSH1 0x1 PUSH1 0x1 PUSH1 0xA0 SHL SUB DUP14 AND PUSH1 0x60 DUP6 ADD MSTORE SWAP1 POP DUP3 DUP2 SUB PUSH1 0x80 DUP5 ADD MSTORE PUSH2 0x29ED DUP2 DUP13 PUSH2 0x2908 JUMP JUMPDEST PUSH1 0x1 PUSH1 0x1 PUSH1 0xA0 SHL SUB DUP12 AND PUSH1 0xA0 DUP6 ADD MSTORE SWAP1 POP DUP3 DUP2 SUB PUSH1 0xC0 DUP5 ADD MSTORE PUSH2 0x2A10 DUP2 DUP11 PUSH2 0x2908 JUMP JUMPDEST PUSH1 0x1 PUSH1 0x1 PUSH1 0xA0 SHL SUB DUP10 AND PUSH1 0xE0 DUP6 ADD MSTORE SWAP1 POP DUP3 DUP2 SUB PUSH2 0x100 DUP5 ADD MSTORE PUSH2 0x2A34 DUP2 DUP9 PUSH2 0x2908 JUMP JUMPDEST SWAP2 POP POP PUSH2 0x2A4D PUSH2 0x120 DUP4 ADD DUP7 PUSH1 0x1 PUSH1 0x1 PUSH1 0xA0 SHL SUB AND SWAP1 MSTORE JUMP JUMPDEST PUSH1 0x1 PUSH1 0x1 PUSH1 0xA0 SHL SUB DUP5 AND PUSH2 0x140 DUP4 ADD MSTORE PUSH1 0x1 PUSH1 0x1 PUSH1 0xA0 SHL SUB DUP4 AND PUSH2 0x160 DUP4 ADD MSTORE SWAP14 SWAP13 POP POP POP POP POP POP POP POP POP POP POP POP POP JUMP JUMPDEST DUP1 ISZERO ISZERO DUP2 EQ PUSH2 0x25AC JUMPI PUSH1 0x0 DUP1 REVERT JUMPDEST PUSH1 0x0 DUP1 PUSH1 0x0 PUSH1 0x60 DUP5 DUP7 SUB SLT ISZERO PUSH2 0x2AA1 JUMPI PUSH1 0x0 DUP1 REVERT JUMPDEST DUP4 CALLDATALOAD PUSH2 0x27BB DUP2 PUSH2 0x2A7E JUMP JUMPDEST PUSH1 0x0 DUP1 PUSH1 0x0 DUP1 PUSH1 0x80 DUP6 DUP8 SUB SLT ISZERO PUSH2 0x2AC2 JUMPI PUSH1 0x0 DUP1 REVERT JUMPDEST DUP5 CALLDATALOAD PUSH2 0x2ACD DUP2 PUSH2 0x2A7E JUMP JUMPDEST SWAP4 POP PUSH1 0x20 DUP6 ADD CALLDATALOAD SWAP3 POP PUSH1 0x40 DUP6 ADD CALLDATALOAD PUSH2 0x2AE4 DUP2 PUSH2 0x2786 JUMP JUMPDEST SWAP4 SWAP7 SWAP3 SWAP6 POP SWAP3 SWAP4 PUSH1 0x60 ADD CALLDATALOAD SWAP3 POP POP JUMP JUMPDEST PUSH1 0x0 PUSH1 0x20 DUP3 DUP5 SUB SLT ISZERO PUSH2 0x2B06 JUMPI PUSH1 0x0 DUP1 REVERT JUMPDEST DUP2 CALLDATALOAD PUSH8 0xFFFFFFFFFFFFFFFF DUP2 GT ISZERO PUSH2 0x2B1D JUMPI PUSH1 0x0 DUP1 REVERT JUMPDEST PUSH2 0x13C4 DUP5 DUP3 DUP6 ADD PUSH2 0x281C JUMP JUMPDEST PUSH1 0x20 DUP1 DUP3 MSTORE DUP2 DUP2 ADD MSTORE PUSH32 0x4F776E61626C653A2063616C6C6572206973206E6F7420746865206F776E6572 PUSH1 0x40 DUP3 ADD MSTORE PUSH1 0x60 ADD SWAP1 JUMP JUMPDEST PUSH1 0x0 PUSH2 0x100 DUP1 DUP4 MSTORE PUSH2 0x2B8C DUP2 DUP5 ADD PUSH1 0xD DUP2 MSTORE PUSH13 0x98D2E2EAD2C8D2E8F240A8C2F PUSH1 0x9B SHL PUSH1 0x20 DUP3 ADD MSTORE PUSH1 0x40 ADD SWAP1 JUMP JUMPDEST PUSH1 0x1 PUSH1 0x1 PUSH1 0xA0 SHL SUB DUP11 DUP2 AND PUSH1 0x20 DUP7 ADD MSTORE PUSH1 0x40 DUP6 ADD DUP11 SWAP1 MSTORE PUSH1 0x60 DUP6 ADD DUP10 SWAP1 MSTORE DUP5 DUP3 SUB PUSH1 0x80 DUP7 ADD MSTORE SWAP1 SWAP2 POP PUSH2 0x2BD9 DUP3 PUSH1 0xD DUP2 MSTORE PUSH13 0x98D2E2EAD2C8D2E8F240A8C2F PUSH1 0x9B SHL PUSH1 0x20 DUP3 ADD MSTORE PUSH1 0x40 ADD SWAP1 JUMP JUMPDEST SWAP7 AND PUSH1 0xA0 DUP5 ADD MSTORE POP POP PUSH1 0xC0 DUP2 ADD SWAP3 SWAP1 SWAP3 MSTORE PUSH1 0xE0 SWAP1 SWAP2 ADD MSTORE SWAP4 SWAP3 POP POP POP JUMP JUMPDEST PUSH4 0x4E487B71 PUSH1 0xE0 SHL PUSH1 0x0 MSTORE PUSH1 0x11 PUSH1 0x4 MSTORE PUSH1 0x24 PUSH1 0x0 REVERT JUMPDEST PUSH1 0x0 DUP3 NOT DUP3 GT ISZERO PUSH2 0x2C20 JUMPI PUSH2 0x2C20 PUSH2 0x2BF7 JUMP JUMPDEST POP ADD SWAP1 JUMP JUMPDEST PUSH1 0x0 DUP3 PUSH2 0x2C42 JUMPI PUSH4 0x4E487B71 PUSH1 0xE0 SHL PUSH1 0x0 MSTORE PUSH1 0x12 PUSH1 0x4 MSTORE PUSH1 0x24 PUSH1 0x0 REVERT JUMPDEST POP DIV SWAP1 JUMP JUMPDEST PUSH1 0x1 DUP2 DUP2 JUMPDEST DUP1 DUP6 GT ISZERO PUSH2 0x2C82 JUMPI DUP2 PUSH1 0x0 NOT DIV DUP3 GT ISZERO PUSH2 0x2C68 JUMPI PUSH2 0x2C68 PUSH2 0x2BF7 JUMP JUMPDEST DUP1 DUP6 AND ISZERO PUSH2 0x2C75 JUMPI SWAP2 DUP2 MUL SWAP2 JUMPDEST SWAP4 DUP5 SHR SWAP4 SWAP1 DUP1 MUL SWAP1 PUSH2 0x2C4C JUMP JUMPDEST POP SWAP3 POP SWAP3 SWAP1 POP JUMP JUMPDEST PUSH1 0x0 DUP3 PUSH2 0x2C99 JUMPI POP PUSH1 0x1 PUSH2 0xFD2 JUMP JUMPDEST DUP2 PUSH2 0x2CA6 JUMPI POP PUSH1 0x0 PUSH2 0xFD2 JUMP JUMPDEST DUP2 PUSH1 0x1 DUP2 EQ PUSH2 0x2CBC JUMPI PUSH1 0x2 DUP2 EQ PUSH2 0x2CC6 JUMPI PUSH2 0x2CE2 JUMP JUMPDEST PUSH1 0x1 SWAP2 POP POP PUSH2 0xFD2 JUMP JUMPDEST PUSH1 0xFF DUP5 GT ISZERO PUSH2 0x2CD7 JUMPI PUSH2 0x2CD7 PUSH2 0x2BF7 JUMP JUMPDEST POP POP PUSH1 0x1 DUP3 SHL PUSH2 0xFD2 JUMP JUMPDEST POP PUSH1 0x20 DUP4 LT PUSH2 0x133 DUP4 LT AND PUSH1 0x4E DUP5 LT PUSH1 0xB DUP5 LT AND OR ISZERO PUSH2 0x2D05 JUMPI POP DUP2 DUP2 EXP PUSH2 0xFD2 JUMP JUMPDEST PUSH2 0x2D0F DUP4 DUP4 PUSH2 0x2C47 JUMP JUMPDEST DUP1 PUSH1 0x0 NOT DIV DUP3 GT ISZERO PUSH2 0x2D23 JUMPI PUSH2 0x2D23 PUSH2 0x2BF7 JUMP JUMPDEST MUL SWAP4 SWAP3 POP POP POP JUMP JUMPDEST PUSH1 0x0 PUSH2 0xED0 DUP4 DUP4 PUSH2 0x2C8A JUMP JUMPDEST PUSH1 0x0 DUP2 PUSH1 0x0 NOT DIV DUP4 GT DUP3 ISZERO ISZERO AND ISZERO PUSH2 0x2D51 JUMPI PUSH2 0x2D51 PUSH2 0x2BF7 JUMP JUMPDEST POP MUL SWAP1 JUMP JUMPDEST PUSH1 0x0 PUSH1 0x20 DUP3 DUP5 SUB SLT ISZERO PUSH2 0x2D68 JUMPI PUSH1 0x0 DUP1 REVERT JUMPDEST DUP2 MLOAD PUSH2 0xED0 DUP2 PUSH2 0x2A7E JUMP JUMPDEST PUSH1 0x1 DUP2 DUP2 SHR SWAP1 DUP3 AND DUP1 PUSH2 0x2D87 JUMPI PUSH1 0x7F DUP3 AND SWAP2 POP JUMPDEST PUSH1 0x20 DUP3 LT DUP2 EQ ISZERO PUSH2 0x2DA8 JUMPI PUSH4 0x4E487B71 PUSH1 0xE0 SHL PUSH1 0x0 MSTORE PUSH1 0x22 PUSH1 0x4 MSTORE PUSH1 0x24 PUSH1 0x0 REVERT JUMPDEST POP SWAP2 SWAP1 POP JUMP JUMPDEST DUP1 SLOAD PUSH1 0x0 SWAP1 PUSH1 0x1 DUP2 DUP2 SHR SWAP1 DUP1 DUP4 AND DUP1 PUSH2 0x2DC8 JUMPI PUSH1 0x7F DUP4 AND SWAP3 POP JUMPDEST PUSH1 0x20 DUP1 DUP5 LT DUP3 EQ ISZERO PUSH2 0x2DEA JUMPI PUSH4 0x4E487B71 PUSH1 0xE0 SHL PUSH1 0x0 MSTORE PUSH1 0x22 PUSH1 0x4 MSTORE PUSH1 0x24 PUSH1 0x0 REVERT JUMPDEST DUP4 DUP9 MSTORE PUSH1 0x20 DUP9 ADD DUP3 DUP1 ISZERO PUSH2 0x2E05 JUMPI PUSH1 0x1 DUP2 EQ PUSH2 0x2E16 JUMPI PUSH2 0x2E41 JUMP JUMPDEST PUSH1 0xFF NOT DUP8 AND DUP3 MSTORE DUP3 DUP3 ADD SWAP8 POP PUSH2 0x2E41 JUMP JUMPDEST PUSH1 0x0 DUP10 DUP2 MSTORE PUSH1 0x20 SWAP1 KECCAK256 PUSH1 0x0 JUMPDEST DUP8 DUP2 LT ISZERO PUSH2 0x2E3B JUMPI DUP2 SLOAD DUP5 DUP3 ADD MSTORE SWAP1 DUP7 ADD SWAP1 DUP5 ADD PUSH2 0x2E22 JUMP JUMPDEST DUP4 ADD SWAP9 POP POP JUMPDEST POP POP POP POP POP POP POP SWAP3 SWAP2 POP POP JUMP JUMPDEST PUSH1 0x0 PUSH2 0x100 DUP1 DUP4 MSTORE PUSH2 0x2E62 DUP2 DUP5 ADD DUP13 PUSH2 0x2908 JUMP JUMPDEST PUSH1 0x1 PUSH1 0x1 PUSH1 0xA0 SHL SUB DUP12 DUP2 AND PUSH1 0x20 DUP7 ADD MSTORE PUSH1 0x40 DUP6 ADD DUP12 SWAP1 MSTORE PUSH1 0x60 DUP6 ADD DUP11 SWAP1 MSTORE DUP5 DUP3 SUB PUSH1 0x80 DUP7 ADD MSTORE SWAP1 SWAP2 POP PUSH2 0x2E95 DUP3 DUP10 PUSH2 0x2DAE JUMP JUMPDEST SWAP7 AND PUSH1 0xA0 DUP5 ADD MSTORE POP POP PUSH1 0xC0 DUP2 ADD SWAP3 SWAP1 SWAP3 MSTORE PUSH1 0xE0 SWAP1 SWAP2 ADD MSTORE SWAP6 SWAP5 POP POP POP POP POP JUMP JUMPDEST PUSH1 0x0 PUSH1 0x20 DUP3 DUP5 SUB SLT ISZERO PUSH2 0x2EC7 JUMPI PUSH1 0x0 DUP1 REVERT JUMPDEST DUP2 MLOAD PUSH2 0xED0 DUP2 PUSH2 0x2786 JUMP JUMPDEST DUP1 MLOAD PUSH1 0x1 PUSH1 0x1 PUSH1 0x70 SHL SUB DUP2 AND DUP2 EQ PUSH2 0x2EE9 JUMPI PUSH1 0x0 DUP1 REVERT JUMPDEST SWAP2 SWAP1 POP JUMP JUMPDEST PUSH1 0x0 DUP1 PUSH1 0x0 PUSH1 0x60 DUP5 DUP7 SUB SLT ISZERO PUSH2 0x2F03 JUMPI PUSH1 0x0 DUP1 REVERT JUMPDEST PUSH2 0x2F0C DUP5 PUSH2 0x2ED2 JUMP JUMPDEST SWAP3 POP PUSH2 0x2F1A PUSH1 0x20 DUP6 ADD PUSH2 0x2ED2 JUMP JUMPDEST SWAP2 POP PUSH1 0x40 DUP5 ADD MLOAD PUSH4 0xFFFFFFFF DUP2 AND DUP2 EQ PUSH2 0x2F33 JUMPI PUSH1 0x0 DUP1 REVERT JUMPDEST DUP1 SWAP2 POP POP SWAP3 POP SWAP3 POP SWAP3 JUMP JUMPDEST PUSH1 0x0 PUSH1 0x20 DUP3 DUP5 SUB SLT ISZERO PUSH2 0x2F50 JUMPI PUSH1 0x0 DUP1 REVERT JUMPDEST POP MLOAD SWAP2 SWAP1 POP JUMP JUMPDEST PUSH1 0x0 PUSH2 0x100 DUP1 DUP4 MSTORE PUSH2 0x2F80 DUP2 DUP5 ADD PUSH1 0x8 DUP2 MSTORE PUSH8 0x84EAE4DC40A8C2F PUSH1 0xC3 SHL PUSH1 0x20 DUP3 ADD MSTORE PUSH1 0x40 ADD SWAP1 JUMP JUMPDEST PUSH1 0x1 PUSH1 0x1 PUSH1 0xA0 SHL SUB DUP11 DUP2 AND PUSH1 0x20 DUP7 ADD MSTORE PUSH1 0x40 DUP6 ADD DUP11 SWAP1 MSTORE PUSH1 0x60 DUP6 ADD DUP10 SWAP1 MSTORE DUP5 DUP3 SUB PUSH1 0x80 DUP7 ADD MSTORE SWAP1 SWAP2 POP PUSH2 0x2BD9 DUP3 PUSH1 0x8 DUP2 MSTORE PUSH8 0x84EAE4DC40A8C2F PUSH1 0xC3 SHL PUSH1 0x20 DUP3 ADD MSTORE PUSH1 0x40 ADD SWAP1 JUMP JUMPDEST PUSH1 0x40 DUP2 MSTORE PUSH1 0x0 PUSH2 0x2FDB PUSH1 0x40 DUP4 ADD DUP6 PUSH2 0x2908 JUMP JUMPDEST DUP3 DUP2 SUB PUSH1 0x20 DUP5 ADD MSTORE PUSH2 0x2FED DUP2 DUP6 PUSH2 0x2DAE JUMP JUMPDEST SWAP6 SWAP5 POP POP POP POP POP JUMP INVALID 0xA8 0xA8 0xBA PUSH3 0x162BCC 0x4C SLT JUMPDEST EXTCODESIZE DUP4 0x24 SWAP6 CREATE2 0xD BALANCE RETURNDATACOPY 0xB4 DUP10 0x2E SWAP11 0xD2 0xAB SWAP10 STOP INVALID CALLVALUE DUP4 SHR BLOCKHASH 0xA6 LOG2 PUSH5 0x6970667358 0x22 SLT KECCAK256 0x25 0xD8 LT PUSH13 0x5643079E546E5BC5ACBEA38507 0xE5 PC EXTCODESIZE 0xCB DUP16 0xD7 STOP 0xCA PUSH11 0x981A5A7D657464736F6C63 NUMBER STOP ADDMOD 0xC STOP CALLER "
        },
        "methodIdentifiers": {
          "burnAddress()": "70d5ae05",
          "burnTaxBuyAmount(address)": "2f1fc52c",
          "burnTaxBuyAmountConfig()": "357579d2",
          "burnTaxSellAmount(address)": "7749eeb3",
          "burnTaxSellAmountConfig()": "42d7359b",
          "customTaxName()": "7f582e0e",
          "feeDecimal()": "7e11b31f",
          "getBuyTaxAmounts(address)": "f9110af3",
          "getPair(address)": "1a788a02",
          "getPostSwapBuyTaxAmount(address)": "0787150a",
          "getPostSwapSellTaxAmount(address)": "76d747e9",
          "getPreSwapBuyTaxAmount(address,uint256)": "bc040da3",
          "getPreSwapSellTaxAmount(address)": "885b922d",
          "getReserves(address)": "3e99c1e4",
          "getSellTaxAmounts(address)": "0a9ee06c",
          "getTaxNamesAndWallets()": "98187484",
          "liquidityTaxBuyAmount(address)": "07ad6d48",
          "liquidityTaxBuyAmountConfig()": "18b38e8a",
          "liquidityTaxSellAmount(address)": "4144f1c4",
          "liquidityTaxSellAmountConfig()": "3079221b",
          "lpTokenHolder()": "d505cc4d",
          "nft1155BenefitAddress()": "e52aaf2b",
          "nft1155BenefitId()": "1217b0cb",
          "nft1155HoldFactor()": "7435a21f",
          "owner()": "8da5cb5b",
          "purrBuyFactor()": "cb6798a4",
          "purrSellFactor()": "9d4c411c",
          "renounceOwnership()": "715018a6",
          "respect1155()": "875138aa",
          "respectPurr()": "b5665400",
          "routerAddress()": "3268cc56",
          "setBurnTax(address,uint256,uint256)": "a8b5afdc",
          "setCustomTaxName(string)": "ca682c6d",
          "setLiquidityTax(address,uint256,uint256)": "05bdf464",
          "setNft1155Config(bool,uint256,address,uint256)": "c8d87f91",
          "setPawthereum(address)": "9af14612",
          "setPurrConfig(bool,uint256,uint256)": "bbaec3e0",
          "setRouterAddress(address)": "41cb87fc",
          "setTax1(string,address,uint256,uint256)": "9bc81a2c",
          "setTax2(string,address,uint256,uint256)": "862737c9",
          "setTax3(string,address,uint256,uint256)": "d162d415",
          "setTax4(string,address,uint256,uint256)": "1820fe0c",
          "setTokenTax(string,address,uint256,uint256)": "b7b40050",
          "tax1(address)": "f39331fd",
          "tax1BuyAmount(address)": "c554d74c",
          "tax1BuyAmountConfig()": "b40a3f93",
          "tax1Name()": "56355a90",
          "tax1SellAmount(address)": "e69aee91",
          "tax1SellAmountConfig()": "7d485eb9",
          "tax1Wallet()": "f3b6966b",
          "tax2(address)": "48de3f4f",
          "tax2BuyAmount(address)": "e5902c2d",
          "tax2BuyAmountConfig()": "4f2fc5c1",
          "tax2Name()": "776f1e10",
          "tax2SellAmount(address)": "e1eb5154",
          "tax2SellAmountConfig()": "eaa84776",
          "tax2Wallet()": "e3255552",
          "tax3BuyAmount(address)": "a385ac31",
          "tax3BuyAmountConfig()": "832033c2",
          "tax3Name()": "5c5aa9b2",
          "tax3SellAmount(address)": "ab183639",
          "tax3SellAmountConfig()": "6f1bd5e0",
          "tax3Wallet()": "10b567ad",
          "tax4BuyAmount(address)": "e036a582",
          "tax4BuyAmountConfig()": "3c743beb",
          "tax4Name()": "1866cbfa",
          "tax4SellAmount(address)": "83d611e0",
          "tax4SellAmountConfig()": "6a5c5c3a",
          "tax4Wallet()": "80384d4d",
          "tokenTaxBuyAmount(address)": "a26c8629",
          "tokenTaxBuyAmountConfig()": "9712a173",
          "tokenTaxName()": "ae46567c",
          "tokenTaxSellAmount(address)": "75af3091",
          "tokenTaxSellAmountConfig()": "ce94b99a",
          "tokenTaxWallet()": "2cbfc5a5",
          "transferOwnership(address)": "f2fde38b",
          "withdrawEthToOwner(uint256)": "107bf304",
          "withdrawTokenToOwner(address,uint256)": "56a6338f"
        }
      }
    }
  }
}