{
  "contracts/PawthTaxStructure.sol": {
    "PawthTaxStructure": {
      "abi": [
        {
          "inputs": [
            {
              "internalType": "address",
              "name": "_pawthereum",
              "type": "address"
            },
            {
              "internalType": "address",
              "name": "_router",
              "type": "address"
            }
          ],
          "stateMutability": "nonpayable",
          "type": "constructor"
        },
        {
          "anonymous": false,
          "inputs": [
            {
              "indexed": false,
              "internalType": "string",
              "name": "oldName",
              "type": "string"
            },
            {
              "indexed": false,
              "internalType": "string",
              "name": "newName",
              "type": "string"
            }
          ],
          "name": "CustomTaxNameUpdated",
          "type": "event"
        },
        {
          "anonymous": false,
          "inputs": [
            {
              "indexed": true,
              "internalType": "address",
              "name": "previousOwner",
              "type": "address"
            },
            {
              "indexed": true,
              "internalType": "address",
              "name": "newOwner",
              "type": "address"
            }
          ],
          "name": "OwnershipTransferred",
          "type": "event"
        },
        {
          "anonymous": false,
          "inputs": [
            {
              "indexed": false,
              "internalType": "address",
              "name": "oldRouter",
              "type": "address"
            },
            {
              "indexed": false,
              "internalType": "address",
              "name": "newRouter",
              "type": "address"
            }
          ],
          "name": "RouterUpdated",
          "type": "event"
        },
        {
          "anonymous": false,
          "inputs": [
            {
              "indexed": false,
              "internalType": "string",
              "name": "oldName",
              "type": "string"
            },
            {
              "indexed": false,
              "internalType": "address",
              "name": "oldWallet",
              "type": "address"
            },
            {
              "indexed": false,
              "internalType": "uint256",
              "name": "oldBuyAmount",
              "type": "uint256"
            },
            {
              "indexed": false,
              "internalType": "uint256",
              "name": "oldSellAmount",
              "type": "uint256"
            },
            {
              "indexed": false,
              "internalType": "string",
              "name": "newName",
              "type": "string"
            },
            {
              "indexed": false,
              "internalType": "address",
              "name": "newWallet",
              "type": "address"
            },
            {
              "indexed": false,
              "internalType": "uint256",
              "name": "newBuyAmount",
              "type": "uint256"
            },
            {
              "indexed": false,
              "internalType": "uint256",
              "name": "newSellAmount",
              "type": "uint256"
            }
          ],
          "name": "TaxUpdated",
          "type": "event"
        },
        {
          "inputs": [],
          "name": "burnAddress",
          "outputs": [
            {
              "internalType": "address",
              "name": "",
              "type": "address"
            }
          ],
          "stateMutability": "view",
          "type": "function"
        },
        {
          "inputs": [
            {
              "internalType": "address",
              "name": "_address",
              "type": "address"
            }
          ],
          "name": "burnTaxBuyAmount",
          "outputs": [
            {
              "internalType": "uint256",
              "name": "",
              "type": "uint256"
            }
          ],
          "stateMutability": "view",
          "type": "function"
        },
        {
          "inputs": [],
          "name": "burnTaxBuyAmountConfig",
          "outputs": [
            {
              "internalType": "uint256",
              "name": "",
              "type": "uint256"
            }
          ],
          "stateMutability": "view",
          "type": "function"
        },
        {
          "inputs": [
            {
              "internalType": "address",
              "name": "_address",
              "type": "address"
            }
          ],
          "name": "burnTaxSellAmount",
          "outputs": [
            {
              "internalType": "uint256",
              "name": "",
              "type": "uint256"
            }
          ],
          "stateMutability": "view",
          "type": "function"
        },
        {
          "inputs": [],
          "name": "burnTaxSellAmountConfig",
          "outputs": [
            {
              "internalType": "uint256",
              "name": "",
              "type": "uint256"
            }
          ],
          "stateMutability": "view",
          "type": "function"
        },
        {
          "inputs": [],
          "name": "customTaxName",
          "outputs": [
            {
              "internalType": "string",
              "name": "",
              "type": "string"
            }
          ],
          "stateMutability": "view",
          "type": "function"
        },
        {
          "inputs": [],
          "name": "feeDecimal",
          "outputs": [
            {
              "internalType": "uint256",
              "name": "",
              "type": "uint256"
            }
          ],
          "stateMutability": "view",
          "type": "function"
        },
        {
          "inputs": [
            {
              "internalType": "address",
              "name": "_address",
              "type": "address"
            }
          ],
          "name": "getBuyTaxAmounts",
          "outputs": [
            {
              "internalType": "uint256",
              "name": "",
              "type": "uint256"
            },
            {
              "internalType": "uint256",
              "name": "",
              "type": "uint256"
            },
            {
              "internalType": "uint256",
              "name": "",
              "type": "uint256"
            },
            {
              "internalType": "uint256",
              "name": "",
              "type": "uint256"
            },
            {
              "internalType": "uint256",
              "name": "",
              "type": "uint256"
            },
            {
              "internalType": "uint256",
              "name": "",
              "type": "uint256"
            },
            {
              "internalType": "uint256",
              "name": "",
              "type": "uint256"
            }
          ],
          "stateMutability": "view",
          "type": "function"
        },
        {
          "inputs": [
            {
              "internalType": "address",
              "name": "_token",
              "type": "address"
            }
          ],
          "name": "getPair",
          "outputs": [
            {
              "internalType": "address",
              "name": "",
              "type": "address"
            }
          ],
          "stateMutability": "view",
          "type": "function"
        },
        {
          "inputs": [
            {
              "internalType": "address",
              "name": "_address",
              "type": "address"
            }
          ],
          "name": "getPostSwapBuyTaxAmount",
          "outputs": [
            {
              "internalType": "uint256",
              "name": "",
              "type": "uint256"
            }
          ],
          "stateMutability": "view",
          "type": "function"
        },
        {
          "inputs": [
            {
              "internalType": "address",
              "name": "_address",
              "type": "address"
            }
          ],
          "name": "getPostSwapSellTaxAmount",
          "outputs": [
            {
              "internalType": "uint256",
              "name": "",
              "type": "uint256"
            }
          ],
          "stateMutability": "view",
          "type": "function"
        },
        {
          "inputs": [
            {
              "internalType": "address",
              "name": "_address",
              "type": "address"
            },
            {
              "internalType": "uint256",
              "name": "customTaxAmount",
              "type": "uint256"
            }
          ],
          "name": "getPreSwapBuyTaxAmount",
          "outputs": [
            {
              "internalType": "uint256",
              "name": "",
              "type": "uint256"
            }
          ],
          "stateMutability": "view",
          "type": "function"
        },
        {
          "inputs": [
            {
              "internalType": "address",
              "name": "_address",
              "type": "address"
            }
          ],
          "name": "getPreSwapSellTaxAmount",
          "outputs": [
            {
              "internalType": "uint256",
              "name": "",
              "type": "uint256"
            }
          ],
          "stateMutability": "view",
          "type": "function"
        },
        {
          "inputs": [
            {
              "internalType": "address",
              "name": "_token",
              "type": "address"
            }
          ],
          "name": "getReserves",
          "outputs": [
            {
              "internalType": "uint112",
              "name": "",
              "type": "uint112"
            },
            {
              "internalType": "uint112",
              "name": "",
              "type": "uint112"
            },
            {
              "internalType": "uint32",
              "name": "",
              "type": "uint32"
            }
          ],
          "stateMutability": "view",
          "type": "function"
        },
        {
          "inputs": [
            {
              "internalType": "address",
              "name": "_address",
              "type": "address"
            }
          ],
          "name": "getSellTaxAmounts",
          "outputs": [
            {
              "internalType": "uint256",
              "name": "",
              "type": "uint256"
            },
            {
              "internalType": "uint256",
              "name": "",
              "type": "uint256"
            },
            {
              "internalType": "uint256",
              "name": "",
              "type": "uint256"
            },
            {
              "internalType": "uint256",
              "name": "",
              "type": "uint256"
            },
            {
              "internalType": "uint256",
              "name": "",
              "type": "uint256"
            },
            {
              "internalType": "uint256",
              "name": "",
              "type": "uint256"
            },
            {
              "internalType": "uint256",
              "name": "",
              "type": "uint256"
            }
          ],
          "stateMutability": "view",
          "type": "function"
        },
        {
          "inputs": [],
          "name": "getTaxNames",
          "outputs": [
            {
              "internalType": "string",
              "name": "",
              "type": "string"
            },
            {
              "internalType": "string",
              "name": "",
              "type": "string"
            },
            {
              "internalType": "string",
              "name": "",
              "type": "string"
            },
            {
              "internalType": "string",
              "name": "",
              "type": "string"
            },
            {
              "internalType": "string",
              "name": "",
              "type": "string"
            },
            {
              "internalType": "string",
              "name": "",
              "type": "string"
            },
            {
              "internalType": "string",
              "name": "",
              "type": "string"
            }
          ],
          "stateMutability": "view",
          "type": "function"
        },
        {
          "inputs": [],
          "name": "getTaxWallets",
          "outputs": [
            {
              "internalType": "address",
              "name": "",
              "type": "address"
            },
            {
              "internalType": "address",
              "name": "",
              "type": "address"
            },
            {
              "internalType": "address",
              "name": "",
              "type": "address"
            },
            {
              "internalType": "address",
              "name": "",
              "type": "address"
            },
            {
              "internalType": "address",
              "name": "",
              "type": "address"
            },
            {
              "internalType": "address",
              "name": "",
              "type": "address"
            },
            {
              "internalType": "address",
              "name": "",
              "type": "address"
            }
          ],
          "stateMutability": "view",
          "type": "function"
        },
        {
          "inputs": [
            {
              "internalType": "address",
              "name": "_address",
              "type": "address"
            }
          ],
          "name": "liquidityTaxBuyAmount",
          "outputs": [
            {
              "internalType": "uint256",
              "name": "",
              "type": "uint256"
            }
          ],
          "stateMutability": "view",
          "type": "function"
        },
        {
          "inputs": [],
          "name": "liquidityTaxBuyAmountConfig",
          "outputs": [
            {
              "internalType": "uint256",
              "name": "",
              "type": "uint256"
            }
          ],
          "stateMutability": "view",
          "type": "function"
        },
        {
          "inputs": [
            {
              "internalType": "address",
              "name": "_address",
              "type": "address"
            }
          ],
          "name": "liquidityTaxSellAmount",
          "outputs": [
            {
              "internalType": "uint256",
              "name": "",
              "type": "uint256"
            }
          ],
          "stateMutability": "view",
          "type": "function"
        },
        {
          "inputs": [],
          "name": "liquidityTaxSellAmountConfig",
          "outputs": [
            {
              "internalType": "uint256",
              "name": "",
              "type": "uint256"
            }
          ],
          "stateMutability": "view",
          "type": "function"
        },
        {
          "inputs": [],
          "name": "lpTokenHolder",
          "outputs": [
            {
              "internalType": "address",
              "name": "",
              "type": "address"
            }
          ],
          "stateMutability": "view",
          "type": "function"
        },
        {
          "inputs": [],
          "name": "nft1155BenefitAddress",
          "outputs": [
            {
              "internalType": "address",
              "name": "",
              "type": "address"
            }
          ],
          "stateMutability": "view",
          "type": "function"
        },
        {
          "inputs": [],
          "name": "nft1155BenefitId",
          "outputs": [
            {
              "internalType": "uint256",
              "name": "",
              "type": "uint256"
            }
          ],
          "stateMutability": "view",
          "type": "function"
        },
        {
          "inputs": [],
          "name": "nft1155HoldFactor",
          "outputs": [
            {
              "internalType": "uint256",
              "name": "",
              "type": "uint256"
            }
          ],
          "stateMutability": "view",
          "type": "function"
        },
        {
          "inputs": [],
          "name": "owner",
          "outputs": [
            {
              "internalType": "address",
              "name": "",
              "type": "address"
            }
          ],
          "stateMutability": "view",
          "type": "function"
        },
        {
          "inputs": [],
          "name": "purrBuyFactor",
          "outputs": [
            {
              "internalType": "uint256",
              "name": "",
              "type": "uint256"
            }
          ],
          "stateMutability": "view",
          "type": "function"
        },
        {
          "inputs": [],
          "name": "purrSellFactor",
          "outputs": [
            {
              "internalType": "uint256",
              "name": "",
              "type": "uint256"
            }
          ],
          "stateMutability": "view",
          "type": "function"
        },
        {
          "inputs": [],
          "name": "renounceOwnership",
          "outputs": [],
          "stateMutability": "nonpayable",
          "type": "function"
        },
        {
          "inputs": [],
          "name": "respect1155",
          "outputs": [
            {
              "internalType": "bool",
              "name": "",
              "type": "bool"
            }
          ],
          "stateMutability": "view",
          "type": "function"
        },
        {
          "inputs": [],
          "name": "respectPurr",
          "outputs": [
            {
              "internalType": "bool",
              "name": "",
              "type": "bool"
            }
          ],
          "stateMutability": "view",
          "type": "function"
        },
        {
          "inputs": [],
          "name": "routerAddress",
          "outputs": [
            {
              "internalType": "address",
              "name": "",
              "type": "address"
            }
          ],
          "stateMutability": "view",
          "type": "function"
        },
        {
          "inputs": [
            {
              "internalType": "address",
              "name": "_burnAddress",
              "type": "address"
            },
            {
              "internalType": "uint256",
              "name": "_buyAmount",
              "type": "uint256"
            },
            {
              "internalType": "uint256",
              "name": "_sellAmount",
              "type": "uint256"
            }
          ],
          "name": "setBurnTax",
          "outputs": [],
          "stateMutability": "nonpayable",
          "type": "function"
        },
        {
          "inputs": [
            {
              "internalType": "string",
              "name": "_name",
              "type": "string"
            }
          ],
          "name": "setCustomTaxName",
          "outputs": [],
          "stateMutability": "nonpayable",
          "type": "function"
        },
        {
          "inputs": [
            {
              "internalType": "address",
              "name": "_lpTokenHolder",
              "type": "address"
            },
            {
              "internalType": "uint256",
              "name": "_buyAmount",
              "type": "uint256"
            },
            {
              "internalType": "uint256",
              "name": "_sellAmount",
              "type": "uint256"
            }
          ],
          "name": "setLiquidityTax",
          "outputs": [],
          "stateMutability": "nonpayable",
          "type": "function"
        },
        {
          "inputs": [
            {
              "internalType": "bool",
              "name": "_respect1155",
              "type": "bool"
            },
            {
              "internalType": "uint256",
              "name": "_nft1155HoldFactor",
              "type": "uint256"
            },
            {
              "internalType": "address",
              "name": "_nftAddress",
              "type": "address"
            },
            {
              "internalType": "uint256",
              "name": "_nftId",
              "type": "uint256"
            }
          ],
          "name": "setNft1155Config",
          "outputs": [],
          "stateMutability": "nonpayable",
          "type": "function"
        },
        {
          "inputs": [
            {
              "internalType": "address",
              "name": "_pawthereum",
              "type": "address"
            }
          ],
          "name": "setPawthereum",
          "outputs": [],
          "stateMutability": "nonpayable",
          "type": "function"
        },
        {
          "inputs": [
            {
              "internalType": "bool",
              "name": "_respectPurr",
              "type": "bool"
            },
            {
              "internalType": "uint256",
              "name": "_purrBuyFactor",
              "type": "uint256"
            },
            {
              "internalType": "uint256",
              "name": "_purrSellFactor",
              "type": "uint256"
            }
          ],
          "name": "setPurrConfig",
          "outputs": [],
          "stateMutability": "nonpayable",
          "type": "function"
        },
        {
          "inputs": [
            {
              "internalType": "address",
              "name": "_newRouterAddress",
              "type": "address"
            }
          ],
          "name": "setRouterAddress",
          "outputs": [],
          "stateMutability": "nonpayable",
          "type": "function"
        },
        {
          "inputs": [
            {
              "internalType": "string",
              "name": "_name",
              "type": "string"
            },
            {
              "internalType": "address",
              "name": "_wallet",
              "type": "address"
            },
            {
              "internalType": "uint256",
              "name": "_buyAmount",
              "type": "uint256"
            },
            {
              "internalType": "uint256",
              "name": "_sellAmount",
              "type": "uint256"
            }
          ],
          "name": "setTax1",
          "outputs": [],
          "stateMutability": "nonpayable",
          "type": "function"
        },
        {
          "inputs": [
            {
              "internalType": "string",
              "name": "_name",
              "type": "string"
            },
            {
              "internalType": "address",
              "name": "_wallet",
              "type": "address"
            },
            {
              "internalType": "uint256",
              "name": "_buyAmount",
              "type": "uint256"
            },
            {
              "internalType": "uint256",
              "name": "_sellAmount",
              "type": "uint256"
            }
          ],
          "name": "setTax2",
          "outputs": [],
          "stateMutability": "nonpayable",
          "type": "function"
        },
        {
          "inputs": [
            {
              "internalType": "string",
              "name": "_name",
              "type": "string"
            },
            {
              "internalType": "address",
              "name": "_wallet",
              "type": "address"
            },
            {
              "internalType": "uint256",
              "name": "_buyAmount",
              "type": "uint256"
            },
            {
              "internalType": "uint256",
              "name": "_sellAmount",
              "type": "uint256"
            }
          ],
          "name": "setTax3",
          "outputs": [],
          "stateMutability": "nonpayable",
          "type": "function"
        },
        {
          "inputs": [
            {
              "internalType": "string",
              "name": "_name",
              "type": "string"
            },
            {
              "internalType": "address",
              "name": "_wallet",
              "type": "address"
            },
            {
              "internalType": "uint256",
              "name": "_buyAmount",
              "type": "uint256"
            },
            {
              "internalType": "uint256",
              "name": "_sellAmount",
              "type": "uint256"
            }
          ],
          "name": "setTax4",
          "outputs": [],
          "stateMutability": "nonpayable",
          "type": "function"
        },
        {
          "inputs": [
            {
              "internalType": "string",
              "name": "_name",
              "type": "string"
            },
            {
              "internalType": "address",
              "name": "_wallet",
              "type": "address"
            },
            {
              "internalType": "uint256",
              "name": "_buyAmount",
              "type": "uint256"
            },
            {
              "internalType": "uint256",
              "name": "_sellAmount",
              "type": "uint256"
            }
          ],
          "name": "setTokenTax",
          "outputs": [],
          "stateMutability": "nonpayable",
          "type": "function"
        },
        {
          "inputs": [
            {
              "internalType": "address",
              "name": "_address",
              "type": "address"
            }
          ],
          "name": "tax1",
          "outputs": [
            {
              "internalType": "uint256",
              "name": "",
              "type": "uint256"
            },
            {
              "internalType": "address",
              "name": "",
              "type": "address"
            }
          ],
          "stateMutability": "view",
          "type": "function"
        },
        {
          "inputs": [
            {
              "internalType": "address",
              "name": "_address",
              "type": "address"
            }
          ],
          "name": "tax1BuyAmount",
          "outputs": [
            {
              "internalType": "uint256",
              "name": "",
              "type": "uint256"
            }
          ],
          "stateMutability": "view",
          "type": "function"
        },
        {
          "inputs": [],
          "name": "tax1BuyAmountConfig",
          "outputs": [
            {
              "internalType": "uint256",
              "name": "",
              "type": "uint256"
            }
          ],
          "stateMutability": "view",
          "type": "function"
        },
        {
          "inputs": [],
          "name": "tax1Name",
          "outputs": [
            {
              "internalType": "string",
              "name": "",
              "type": "string"
            }
          ],
          "stateMutability": "view",
          "type": "function"
        },
        {
          "inputs": [
            {
              "internalType": "address",
              "name": "_address",
              "type": "address"
            }
          ],
          "name": "tax1SellAmount",
          "outputs": [
            {
              "internalType": "uint256",
              "name": "",
              "type": "uint256"
            }
          ],
          "stateMutability": "view",
          "type": "function"
        },
        {
          "inputs": [],
          "name": "tax1SellAmountConfig",
          "outputs": [
            {
              "internalType": "uint256",
              "name": "",
              "type": "uint256"
            }
          ],
          "stateMutability": "view",
          "type": "function"
        },
        {
          "inputs": [],
          "name": "tax1Wallet",
          "outputs": [
            {
              "internalType": "address",
              "name": "",
              "type": "address"
            }
          ],
          "stateMutability": "view",
          "type": "function"
        },
        {
          "inputs": [
            {
              "internalType": "address",
              "name": "_address",
              "type": "address"
            }
          ],
          "name": "tax2",
          "outputs": [
            {
              "internalType": "uint256",
              "name": "",
              "type": "uint256"
            },
            {
              "internalType": "address",
              "name": "",
              "type": "address"
            }
          ],
          "stateMutability": "view",
          "type": "function"
        },
        {
          "inputs": [
            {
              "internalType": "address",
              "name": "_address",
              "type": "address"
            }
          ],
          "name": "tax2BuyAmount",
          "outputs": [
            {
              "internalType": "uint256",
              "name": "",
              "type": "uint256"
            }
          ],
          "stateMutability": "view",
          "type": "function"
        },
        {
          "inputs": [],
          "name": "tax2BuyAmountConfig",
          "outputs": [
            {
              "internalType": "uint256",
              "name": "",
              "type": "uint256"
            }
          ],
          "stateMutability": "view",
          "type": "function"
        },
        {
          "inputs": [],
          "name": "tax2Name",
          "outputs": [
            {
              "internalType": "string",
              "name": "",
              "type": "string"
            }
          ],
          "stateMutability": "view",
          "type": "function"
        },
        {
          "inputs": [
            {
              "internalType": "address",
              "name": "_address",
              "type": "address"
            }
          ],
          "name": "tax2SellAmount",
          "outputs": [
            {
              "internalType": "uint256",
              "name": "",
              "type": "uint256"
            }
          ],
          "stateMutability": "view",
          "type": "function"
        },
        {
          "inputs": [],
          "name": "tax2SellAmountConfig",
          "outputs": [
            {
              "internalType": "uint256",
              "name": "",
              "type": "uint256"
            }
          ],
          "stateMutability": "view",
          "type": "function"
        },
        {
          "inputs": [],
          "name": "tax2Wallet",
          "outputs": [
            {
              "internalType": "address",
              "name": "",
              "type": "address"
            }
          ],
          "stateMutability": "view",
          "type": "function"
        },
        {
          "inputs": [
            {
              "internalType": "address",
              "name": "_address",
              "type": "address"
            }
          ],
          "name": "tax3BuyAmount",
          "outputs": [
            {
              "internalType": "uint256",
              "name": "",
              "type": "uint256"
            }
          ],
          "stateMutability": "view",
          "type": "function"
        },
        {
          "inputs": [],
          "name": "tax3BuyAmountConfig",
          "outputs": [
            {
              "internalType": "uint256",
              "name": "",
              "type": "uint256"
            }
          ],
          "stateMutability": "view",
          "type": "function"
        },
        {
          "inputs": [],
          "name": "tax3Name",
          "outputs": [
            {
              "internalType": "string",
              "name": "",
              "type": "string"
            }
          ],
          "stateMutability": "view",
          "type": "function"
        },
        {
          "inputs": [
            {
              "internalType": "address",
              "name": "_address",
              "type": "address"
            }
          ],
          "name": "tax3SellAmount",
          "outputs": [
            {
              "internalType": "uint256",
              "name": "",
              "type": "uint256"
            }
          ],
          "stateMutability": "view",
          "type": "function"
        },
        {
          "inputs": [],
          "name": "tax3SellAmountConfig",
          "outputs": [
            {
              "internalType": "uint256",
              "name": "",
              "type": "uint256"
            }
          ],
          "stateMutability": "view",
          "type": "function"
        },
        {
          "inputs": [],
          "name": "tax3Wallet",
          "outputs": [
            {
              "internalType": "address",
              "name": "",
              "type": "address"
            }
          ],
          "stateMutability": "view",
          "type": "function"
        },
        {
          "inputs": [
            {
              "internalType": "address",
              "name": "_address",
              "type": "address"
            }
          ],
          "name": "tax4BuyAmount",
          "outputs": [
            {
              "internalType": "uint256",
              "name": "",
              "type": "uint256"
            }
          ],
          "stateMutability": "view",
          "type": "function"
        },
        {
          "inputs": [],
          "name": "tax4BuyAmountConfig",
          "outputs": [
            {
              "internalType": "uint256",
              "name": "",
              "type": "uint256"
            }
          ],
          "stateMutability": "view",
          "type": "function"
        },
        {
          "inputs": [],
          "name": "tax4Name",
          "outputs": [
            {
              "internalType": "string",
              "name": "",
              "type": "string"
            }
          ],
          "stateMutability": "view",
          "type": "function"
        },
        {
          "inputs": [
            {
              "internalType": "address",
              "name": "_address",
              "type": "address"
            }
          ],
          "name": "tax4SellAmount",
          "outputs": [
            {
              "internalType": "uint256",
              "name": "",
              "type": "uint256"
            }
          ],
          "stateMutability": "view",
          "type": "function"
        },
        {
          "inputs": [],
          "name": "tax4SellAmountConfig",
          "outputs": [
            {
              "internalType": "uint256",
              "name": "",
              "type": "uint256"
            }
          ],
          "stateMutability": "view",
          "type": "function"
        },
        {
          "inputs": [],
          "name": "tax4Wallet",
          "outputs": [
            {
              "internalType": "address",
              "name": "",
              "type": "address"
            }
          ],
          "stateMutability": "view",
          "type": "function"
        },
        {
          "inputs": [
            {
              "internalType": "address",
              "name": "_address",
              "type": "address"
            }
          ],
          "name": "tokenTaxBuyAmount",
          "outputs": [
            {
              "internalType": "uint256",
              "name": "",
              "type": "uint256"
            }
          ],
          "stateMutability": "view",
          "type": "function"
        },
        {
          "inputs": [],
          "name": "tokenTaxBuyAmountConfig",
          "outputs": [
            {
              "internalType": "uint256",
              "name": "",
              "type": "uint256"
            }
          ],
          "stateMutability": "view",
          "type": "function"
        },
        {
          "inputs": [],
          "name": "tokenTaxName",
          "outputs": [
            {
              "internalType": "string",
              "name": "",
              "type": "string"
            }
          ],
          "stateMutability": "view",
          "type": "function"
        },
        {
          "inputs": [
            {
              "internalType": "address",
              "name": "_address",
              "type": "address"
            }
          ],
          "name": "tokenTaxSellAmount",
          "outputs": [
            {
              "internalType": "uint256",
              "name": "",
              "type": "uint256"
            }
          ],
          "stateMutability": "view",
          "type": "function"
        },
        {
          "inputs": [],
          "name": "tokenTaxSellAmountConfig",
          "outputs": [
            {
              "internalType": "uint256",
              "name": "",
              "type": "uint256"
            }
          ],
          "stateMutability": "view",
          "type": "function"
        },
        {
          "inputs": [],
          "name": "tokenTaxWallet",
          "outputs": [
            {
              "internalType": "address",
              "name": "",
              "type": "address"
            }
          ],
          "stateMutability": "view",
          "type": "function"
        },
        {
          "inputs": [
            {
              "internalType": "address",
              "name": "newOwner",
              "type": "address"
            }
          ],
          "name": "transferOwnership",
          "outputs": [],
          "stateMutability": "nonpayable",
          "type": "function"
        },
        {
          "inputs": [
            {
              "internalType": "uint256",
              "name": "_amount",
              "type": "uint256"
            }
          ],
          "name": "withdrawEthToOwner",
          "outputs": [],
          "stateMutability": "nonpayable",
          "type": "function"
        },
        {
          "inputs": [
            {
              "internalType": "address",
              "name": "tokenAddress",
              "type": "address"
            },
            {
              "internalType": "uint256",
              "name": "amount",
              "type": "uint256"
            }
          ],
          "name": "withdrawTokenToOwner",
          "outputs": [],
          "stateMutability": "nonpayable",
          "type": "function"
        },
        {
          "stateMutability": "payable",
          "type": "receive"
        }
      ],
      "evm": {
        "bytecode": {
          "linkReferences": {},
          "object": "6001805460ff60a01b19168155600280546001600160a01b0319908116736de1863f4f408d6d2ffc34a83308a386d8316b1917909155600060035561138860048190556005805460ff1916909317909255600691909155614e2060075560088054909116739ac64cc6e4415144c455bd8e4837fea55603e5c317905560c0604052600d60808190526c09ac2e4d6cae8d2dcce40a8c2f609b1b60a0908152620000ac9160099190620002d0565b50600a80546001600160a01b031916736dfcd4331b0d86bfe0318706c76b832da4c03c1b17905560c8600b818155600c91909155604080518082019091528181526a086d0c2e4d2e8f240a8c2f60ab1b60209091019081526200011391600d9190620002d0565b50600e80546001600160a01b03191673a56891cfbd0175e6fc46bf7d647de26100e95c7817905560c8600f8190556010556040805180820190915260158082527f427579204261636b20616e64204275726e20546178000000000000000000000060209092019182526200018a91601191620002d0565b50601280546001600160a01b0319908116735a185c361dd4573f1bb8044d5d8275e25831b53e17909155601680548216739036464e4ecd2d40d21ee38a0398aedd6805a09b908117909155601a8054831673445664d66c294f49bb55a90d3c30bcab0f9502a9179055601d8054831661dead1790556020805490921617905560c860218190556022553480156200022057600080fd5b506040516200346f3803806200346f833981016040819052620002439162000393565b6200024e3362000280565b600180546001600160a01b039384166001600160a01b0319918216179091556008805492909316911617905562000408565b600080546001600160a01b038381166001600160a01b0319831681178455604051919092169283917f8be0079c531659141344cd1fd0a4f28419497f9722a3daafe3b4186f6b6457e09190a35050565b828054620002de90620003cb565b90600052602060002090601f0160209004810192826200030257600085556200034d565b82601f106200031d57805160ff19168380011785556200034d565b828001600101855582156200034d579182015b828111156200034d57825182559160200191906001019062000330565b506200035b9291506200035f565b5090565b5b808211156200035b576000815560010162000360565b80516001600160a01b03811681146200038e57600080fd5b919050565b60008060408385031215620003a757600080fd5b620003b28362000376565b9150620003c26020840162000376565b90509250929050565b600181811c90821680620003e057607f821691505b602082108114156200040257634e487b7160e01b600052602260045260246000fd5b50919050565b61305780620004186000396000f3fe60806040526004361061046c5760003560e01c806380384d4d1161024a578063bc040da311610139578063e3255552116100b6578063f2fde38b1161007a578063f2fde38b14610d75578063f39331fd14610d95578063f3b6966b14610db5578063f9110af314610dd5578063fb61e99814610df557600080fd5b8063e325555214610cdf578063e52aaf2b14610cff578063e5902c2d14610d1f578063e69aee9114610d3f578063eaa8477614610d5f57600080fd5b8063ce94b99a116100fd578063ce94b99a14610c49578063d162d41514610c5f578063d505cc4d14610c7f578063e036a58214610c9f578063e1eb515414610cbf57600080fd5b8063bc040da314610bb3578063c554d74c14610bd3578063c8d87f9114610bf3578063ca682c6d14610c13578063cb6798a414610c3357600080fd5b80639d4c411c116101c7578063ae46567c1161018b578063ae46567c14610b2e578063b40a3f9314610b43578063b566540014610b59578063b7b4005014610b73578063bbaec3e014610b9357600080fd5b80639d4c411c14610a98578063a26c862914610aae578063a385ac3114610ace578063a8b5afdc14610aee578063ab18363914610b0e57600080fd5b8063885b922d1161020e578063885b922d14610a045780638da5cb5b14610a245780639712a17314610a425780639af1461214610a585780639bc81a2c14610a7857600080fd5b806380384d4d1461095d578063832033c21461097d57806383d611e014610993578063862737c9146109b3578063875138aa146109d357600080fd5b806341cb87fc1161036657806370d5ae05116102e35780637749eeb3116102a75780637749eeb3146108e8578063776f1e10146109085780637d485eb91461091d5780637e11b31f146109335780637f582e0e1461094857600080fd5b806370d5ae051461085d578063715018a61461087d5780637435a21f1461089257806375af3091146108a857806376d747e9146108c857600080fd5b806356355a901161032a57806356355a90146107e757806356a6338f146107fc5780635c5aa9b21461081c5780636a5c5c3a146108315780636f1bd5e01461084757600080fd5b806341cb87fc1461073657806342d7359b1461075657806348de3f4f1461076c5780634f12da14146107a95780634f2fc5c1146107d157600080fd5b806318b38e8a116103f45780633268cc56116103b85780633268cc561461067e578063357579d21461069e5780633c743beb146106b45780633e99c1e4146106ca5780634144f1c41461071657600080fd5b806318b38e8a146105f25780631a788a02146106085780632cbfc5a5146106285780632f1fc52c146106485780633079221b1461066857600080fd5b8063107bf3041161043b578063107bf3041461054257806310b567ad146105625780631217b0cb1461059a5780631820fe0c146105b05780631866cbfa146105d057600080fd5b806305bdf464146104785780630787150a1461049a57806307ad6d48146104cd5780630a9ee06c146104ed57600080fd5b3661047357005b600080fd5b34801561048457600080fd5b506104986104933660046127f9565b610e61565b005b3480156104a657600080fd5b506104ba6104b536600461282e565b610f02565b6040519081526020015b60405180910390f35b3480156104d957600080fd5b506104ba6104e836600461282e565b610f49565b3480156104f957600080fd5b5061050d61050836600461282e565b61104a565b604080519788526020880196909652948601939093526060850191909152608084015260a083015260c082015260e0016104c4565b34801561054e57600080fd5b5061049861055d36600461284b565b6110ab565b34801561056e57600080fd5b50601254610582906001600160a01b031681565b6040516001600160a01b0390911681526020016104c4565b3480156105a657600080fd5b506104ba60035481565b3480156105bc57600080fd5b506104986105cb366004612907565b611106565b3480156105dc57600080fd5b506105e5611253565b6040516104c491906129b3565b3480156105fe57600080fd5b506104ba60215481565b34801561061457600080fd5b5061058261062336600461282e565b6112e1565b34801561063457600080fd5b50601a54610582906001600160a01b031681565b34801561065457600080fd5b506104ba61066336600461282e565b61143e565b34801561067457600080fd5b506104ba60225481565b34801561068a57600080fd5b50600854610582906001600160a01b031681565b3480156106aa57600080fd5b506104ba601e5481565b3480156106c057600080fd5b506104ba60175481565b3480156106d657600080fd5b506106ea6106e536600461282e565b611462565b604080516001600160701b03948516815293909216602084015263ffffffff16908201526060016104c4565b34801561072257600080fd5b506104ba61073136600461282e565b6114e3565b34801561074257600080fd5b5061049861075136600461282e565b6115d4565b34801561076257600080fd5b506104ba601f5481565b34801561077857600080fd5b5061078c61078736600461282e565b611660565b604080519283526001600160a01b039091166020830152016104c4565b3480156107b557600080fd5b506107be611683565b6040516104c497969594939291906129c6565b3480156107dd57600080fd5b506104ba600f5481565b3480156107f357600080fd5b506105e56119b2565b34801561080857600080fd5b50610498610817366004612a5d565b6119bf565b34801561082857600080fd5b506105e5611b2d565b34801561083d57600080fd5b506104ba60185481565b34801561085357600080fd5b506104ba60145481565b34801561086957600080fd5b50601d54610582906001600160a01b031681565b34801561088957600080fd5b50610498611b3a565b34801561089e57600080fd5b506104ba60045481565b3480156108b457600080fd5b506104ba6108c336600461282e565b611b70565b3480156108d457600080fd5b506104ba6108e336600461282e565b611b94565b3480156108f457600080fd5b506104ba61090336600461282e565b611be6565b34801561091457600080fd5b506105e5611c0a565b34801561092957600080fd5b506104ba600c5481565b34801561093f57600080fd5b506104ba600281565b34801561095457600080fd5b506105e5611c17565b34801561096957600080fd5b50601654610582906001600160a01b031681565b34801561098957600080fd5b506104ba60135481565b34801561099f57600080fd5b506104ba6109ae36600461282e565b611c24565b3480156109bf57600080fd5b506104986109ce366004612907565b611c48565b3480156109df57600080fd5b506001546109f490600160a01b900460ff1681565b60405190151581526020016104c4565b348015610a1057600080fd5b506104ba610a1f36600461282e565b611d83565b348015610a3057600080fd5b506000546001600160a01b0316610582565b348015610a4e57600080fd5b506104ba601b5481565b348015610a6457600080fd5b50610498610a7336600461282e565b611d98565b348015610a8457600080fd5b50610498610a93366004612907565b611de4565b348015610aa457600080fd5b506104ba60075481565b348015610aba57600080fd5b506104ba610ac936600461282e565b611f1f565b348015610ada57600080fd5b506104ba610ae936600461282e565b611f43565b348015610afa57600080fd5b50610498610b093660046127f9565b611f67565b348015610b1a57600080fd5b506104ba610b2936600461282e565b611fef565b348015610b3a57600080fd5b506105e5612013565b348015610b4f57600080fd5b506104ba600b5481565b348015610b6557600080fd5b506005546109f49060ff1681565b348015610b7f57600080fd5b50610498610b8e366004612907565b612020565b348015610b9f57600080fd5b50610498610bae366004612a97565b61215b565b348015610bbf57600080fd5b506104ba610bce366004612a5d565b61219f565b348015610bdf57600080fd5b506104ba610bee36600461282e565b61220f565b348015610bff57600080fd5b50610498610c0e366004612ab7565b612233565b348015610c1f57600080fd5b50610498610c2e366004612aff565b6122a6565b348015610c3f57600080fd5b506104ba60065481565b348015610c5557600080fd5b506104ba601c5481565b348015610c6b57600080fd5b50610498610c7a366004612907565b6123a7565b348015610c8b57600080fd5b50602054610582906001600160a01b031681565b348015610cab57600080fd5b506104ba610cba36600461282e565b6124e2565b348015610ccb57600080fd5b506104ba610cda36600461282e565b612506565b348015610ceb57600080fd5b50600e54610582906001600160a01b031681565b348015610d0b57600080fd5b50600254610582906001600160a01b031681565b348015610d2b57600080fd5b506104ba610d3a36600461282e565b61252a565b348015610d4b57600080fd5b506104ba610d5a36600461282e565b61254e565b348015610d6b57600080fd5b506104ba60105481565b348015610d8157600080fd5b50610498610d9036600461282e565b612572565b348015610da157600080fd5b5061078c610db036600461282e565b61260d565b348015610dc157600080fd5b50600a54610582906001600160a01b031681565b348015610de157600080fd5b5061050d610df036600461282e565b612630565b348015610e0157600080fd5b50600a54600e54601254601654601a54601d5460208054604080516001600160a01b03998a1681529789169288019290925294871690860152918516606085015284166080840152831660a08301529190911660c082015260e0016104c4565b6000546001600160a01b03163314610e945760405162461bcd60e51b8152600401610e8b90612b34565b60405180910390fd5b6020805460218054602280546001600160a01b038981166001600160a01b0319871681179097559388905590869055604051929093169390929160008051602061300283398151915291610ef291869186918691908b908b90612b69565b60405180910390a1505050505050565b600080610f0e8361143e565b610f1784611f1f565b610f219190612c18565b90506002610f2e84610f49565b610f389190612c30565b610f429082612c18565b9392505050565b60215460015460009190600160a01b900460ff168015610f6d5750610f6d8361267a565b15610f9857610f7e6004600a612d36565b600454610f8b9083612d42565b610f959190612c30565b90505b60055460ff16801561101c5750600160009054906101000a90046001600160a01b03166001600160a01b031663a13ec8d36040518163ffffffff1660e01b8152600401602060405180830381865afa158015610ff8573d6000803e3d6000fd5b505050506040513d601f19601f8201168201806040525081019061101c9190612d61565b156110445761102d6004600a612d36565b60065461103a9083612d42565b610f429190612c30565b92915050565b600080600080600080600061105e8861254e565b61106789612506565b6110708a611fef565b6110798b611c24565b6110828c611b70565b61108b8d611be6565b6110948e6114e3565b959e949d50929b5090995097509550909350915050565b6000546001600160a01b031633146110d55760405162461bcd60e51b8152600401610e8b90612b34565b604051339082156108fc029083906000818181858888f19350505050158015611102573d6000803e3d6000fd5b5050565b6000546001600160a01b031633146111305760405162461bcd60e51b8152600401610e8b90612b34565b60006015805461113f90612d7e565b80601f016020809104026020016040519081016040528092919081815260200182805461116b90612d7e565b80156111b85780601f1061118d576101008083540402835291602001916111b8565b820191906000526020600020905b81548152906001019060200180831161119b57829003601f168201915b50506016546017546018548b519697506001600160a01b03909216959094509092506111ec915060159060208b019061274b565b50601680546001600160a01b0319166001600160a01b0389169081179091556017879055601886905560405160008051602061300283398151915291611241918791879187918791601591908e908e90612e59565b60405180910390a15050505050505050565b6015805461126090612d7e565b80601f016020809104026020016040519081016040528092919081815260200182805461128c90612d7e565b80156112d95780601f106112ae576101008083540402835291602001916112d9565b820191906000526020600020905b8154815290600101906020018083116112bc57829003601f168201915b505050505081565b6008546040805163c45a015560e01b815290516000926001600160a01b0316918391839163c45a01559160048083019260209291908290030181865afa15801561132f573d6000803e3d6000fd5b505050506040513d601f19601f820116820180604052508101906113539190612ec0565b9050806001600160a01b031663e6a43905836001600160a01b031663ad5c46486040518163ffffffff1660e01b8152600401602060405180830381865afa1580156113a2573d6000803e3d6000fd5b505050506040513d601f19601f820116820180604052508101906113c69190612ec0565b6040516001600160e01b031960e084901b1681526001600160a01b0391821660048201529087166024820152604401602060405180830381865afa158015611412573d6000803e3d6000fd5b505050506040513d601f19601f820116820180604052508101906114369190612ec0565b949350505050565b601e5460015460009190600160a01b900460ff168015610f6d5750610f6d8361267a565b600080600080611471856112e1565b9050806001600160a01b0316630902f1ac6040518163ffffffff1660e01b8152600401606060405180830381865afa1580156114b1573d6000803e3d6000fd5b505050506040513d601f19601f820116820180604052508101906114d59190612ef9565b935093509350509193909250565b60225460015460009190600160a01b900460ff16801561150757506115078361267a565b15611532576115186004600a612d36565b6004546115259083612d42565b61152f9190612c30565b90505b60055460ff1680156115b65750600160009054906101000a90046001600160a01b03166001600160a01b031663a13ec8d36040518163ffffffff1660e01b8152600401602060405180830381865afa158015611592573d6000803e3d6000fd5b505050506040513d601f19601f820116820180604052508101906115b69190612d61565b15611044576115c76004600a612d36565b60075461103a9083612d42565b6000546001600160a01b031633146115fe5760405162461bcd60e51b8152600401610e8b90612b34565b600880546001600160a01b038381166001600160a01b031983168117909355604080519190921680825260208201939093527f02dc5c233404867c793b749c6d644beb2277536d18a7e7974d3f238e4c6f168491015b60405180910390a15050565b60008061166c8361252a565b600e5490946001600160a01b039091169350915050565b60608060608060608060606009600d6011601560198480546116a490612d7e565b80601f01602080910402602001604051908101604052809291908181526020018280546116d090612d7e565b801561171d5780601f106116f25761010080835404028352916020019161171d565b820191906000526020600020905b81548152906001019060200180831161170057829003601f168201915b5050505050945083805461173090612d7e565b80601f016020809104026020016040519081016040528092919081815260200182805461175c90612d7e565b80156117a95780601f1061177e576101008083540402835291602001916117a9565b820191906000526020600020905b81548152906001019060200180831161178c57829003601f168201915b505050505093508280546117bc90612d7e565b80601f01602080910402602001604051908101604052809291908181526020018280546117e890612d7e565b80156118355780601f1061180a57610100808354040283529160200191611835565b820191906000526020600020905b81548152906001019060200180831161181857829003601f168201915b5050505050925081805461184890612d7e565b80601f016020809104026020016040519081016040528092919081815260200182805461187490612d7e565b80156118c15780601f10611896576101008083540402835291602001916118c1565b820191906000526020600020905b8154815290600101906020018083116118a457829003601f168201915b505050505091508080546118d490612d7e565b80601f016020809104026020016040519081016040528092919081815260200182805461190090612d7e565b801561194d5780601f106119225761010080835404028352916020019161194d565b820191906000526020600020905b81548152906001019060200180831161193057829003601f168201915b5050505050905060405180604001604052806008815260200167084eae4dc40a8c2f60c31b8152506040518060400160405280600d81526020016c098d2e2ead2c8d2e8f240a8c2f609b1b815250965096509650965096509650965090919293949596565b6009805461126090612d7e565b6000546001600160a01b031633146119e95760405162461bcd60e51b8152600401610e8b90612b34565b6040516370a0823160e01b81523060048201526000906001600160a01b038416906370a0823190602401602060405180830381865afa158015611a30573d6000803e3d6000fd5b505050506040513d601f19601f82011682018060405250810190611a549190612f49565b905081811015611aa65760405162461bcd60e51b815260206004820152601a60248201527f496e73756666696369656e7420746f6b656e2062616c616e63650000000000006044820152606401610e8b565b6001600160a01b03831663a9059cbb336040516001600160e01b031960e084901b1681526001600160a01b039091166004820152602481018590526044016020604051808303816000875af1158015611b03573d6000803e3d6000fd5b505050506040513d601f19601f82011682018060405250810190611b279190612d61565b50505050565b6011805461126090612d7e565b6000546001600160a01b03163314611b645760405162461bcd60e51b8152600401610e8b90612b34565b611b6e60006126fb565b565b601c5460015460009190600160a01b900460ff16801561150757506115078361267a565b600080611ba083611c24565b611ba984611fef565b611bb285612506565b611bbb8661254e565b611bc59190612c18565b611bcf9190612c18565b611bd99190612c18565b90506002610f2e846114e3565b601f5460015460009190600160a01b900460ff16801561150757506115078361267a565b600d805461126090612d7e565b6023805461126090612d7e565b60185460015460009190600160a01b900460ff16801561150757506115078361267a565b6000546001600160a01b03163314611c725760405162461bcd60e51b8152600401610e8b90612b34565b6000600d8054611c8190612d7e565b80601f0160208091040260200160405190810160405280929190818152602001828054611cad90612d7e565b8015611cfa5780601f10611ccf57610100808354040283529160200191611cfa565b820191906000526020600020905b815481529060010190602001808311611cdd57829003601f168201915b5050600e54600f546010548b519697506001600160a01b0390921695909450909250611d2e9150600d9060208b019061274b565b50600e80546001600160a01b0319166001600160a01b038916908117909155600f879055601086905560405160008051602061300283398151915291611241918791879187918791600d91908e908e90612e59565b600080611d8f83611be6565b611bcf84611b70565b6000546001600160a01b03163314611dc25760405162461bcd60e51b8152600401610e8b90612b34565b600180546001600160a01b0319166001600160a01b0392909216919091179055565b6000546001600160a01b03163314611e0e5760405162461bcd60e51b8152600401610e8b90612b34565b600060098054611e1d90612d7e565b80601f0160208091040260200160405190810160405280929190818152602001828054611e4990612d7e565b8015611e965780601f10611e6b57610100808354040283529160200191611e96565b820191906000526020600020905b815481529060010190602001808311611e7957829003601f168201915b5050600a54600b54600c548b519697506001600160a01b0390921695909450909250611eca915060099060208b019061274b565b50600a80546001600160a01b0319166001600160a01b038916908117909155600b879055600c86905560405160008051602061300283398151915291611241918791879187918791600991908e908e90612e59565b601b5460015460009190600160a01b900460ff168015610f6d5750610f6d8361267a565b60135460015460009190600160a01b900460ff168015610f6d5750610f6d8361267a565b6000546001600160a01b03163314611f915760405162461bcd60e51b8152600401610e8b90612b34565b601d8054601e8054601f80546001600160a01b038981166001600160a01b0319871681179097559388905590869055604051929093169390929160008051602061300283398151915291610ef291869186918691908b908b90612f62565b60145460015460009190600160a01b900460ff16801561150757506115078361267a565b6019805461126090612d7e565b6000546001600160a01b0316331461204a5760405162461bcd60e51b8152600401610e8b90612b34565b60006019805461205990612d7e565b80601f016020809104026020016040519081016040528092919081815260200182805461208590612d7e565b80156120d25780601f106120a7576101008083540402835291602001916120d2565b820191906000526020600020905b8154815290600101906020018083116120b557829003601f168201915b5050601a54601b54601c548b519697506001600160a01b0390921695909450909250612106915060199060208b019061274b565b50601a80546001600160a01b0319166001600160a01b038916908117909155601b879055601c86905560405160008051602061300283398151915291611241918791879187918791601991908e908e90612e59565b6000546001600160a01b031633146121855760405162461bcd60e51b8152600401610e8b90612b34565b6005805460ff191693151593909317909255600655600755565b6000806121ab846124e2565b6121b485611f43565b6121bd8661252a565b6121c68761220f565b6121d09190612c18565b6121da9190612c18565b6121e49190612c18565b905060026121f185610f49565b6121fb9190612c30565b6122058285612c18565b6114369190612c18565b600b5460015460009190600160a01b900460ff168015610f6d5750610f6d8361267a565b6000546001600160a01b0316331461225d5760405162461bcd60e51b8152600401610e8b90612b34565b60018054941515600160a01b0260ff60a01b1990951694909417909355600280546001600160a01b039092166001600160a01b0319909216919091179055600391909155600455565b6000546001600160a01b031633146122d05760405162461bcd60e51b8152600401610e8b90612b34565b6000602380546122df90612d7e565b80601f016020809104026020016040519081016040528092919081815260200182805461230b90612d7e565b80156123585780601f1061232d57610100808354040283529160200191612358565b820191906000526020600020905b81548152906001019060200180831161233b57829003601f168201915b505085519394506123749360239350602087019250905061274b565b507ff1b71db64e8d2411035c219af08906744c6341d677da5fc7c9f08dc7bd1a9a69816023604051611654929190612fd3565b6000546001600160a01b031633146123d15760405162461bcd60e51b8152600401610e8b90612b34565b6000601180546123e090612d7e565b80601f016020809104026020016040519081016040528092919081815260200182805461240c90612d7e565b80156124595780601f1061242e57610100808354040283529160200191612459565b820191906000526020600020905b81548152906001019060200180831161243c57829003601f168201915b50506012546013546014548b519697506001600160a01b039092169590945090925061248d915060119060208b019061274b565b50601280546001600160a01b0319166001600160a01b0389169081179091556013879055601486905560405160008051602061300283398151915291611241918791879187918791601191908e908e90612e59565b60175460015460009190600160a01b900460ff168015610f6d5750610f6d8361267a565b60105460015460009190600160a01b900460ff16801561150757506115078361267a565b600f5460015460009190600160a01b900460ff168015610f6d5750610f6d8361267a565b600c5460015460009190600160a01b900460ff16801561150757506115078361267a565b6000546001600160a01b0316331461259c5760405162461bcd60e51b8152600401610e8b90612b34565b6001600160a01b0381166126015760405162461bcd60e51b815260206004820152602660248201527f4f776e61626c653a206e6577206f776e657220697320746865207a65726f206160448201526564647265737360d01b6064820152608401610e8b565b61260a816126fb565b50565b6000806126198361220f565b600a5490946001600160a01b039091169350915050565b60008060008060008060006126448861220f565b61264d8961252a565b6126568a611f43565b61265f8b6124e2565b6126688c611f1f565b6126718d61143e565b6110948e610f49565b600254600354604051627eeac760e11b81526001600160a01b03848116600483015260248201929092526000928392169062fdd58e90604401602060405180830381865afa1580156126d0573d6000803e3d6000fd5b505050506040513d601f19601f820116820180604052508101906126f49190612f49565b1192915050565b600080546001600160a01b038381166001600160a01b0319831681178455604051919092169283917f8be0079c531659141344cd1fd0a4f28419497f9722a3daafe3b4186f6b6457e09190a35050565b82805461275790612d7e565b90600052602060002090601f01602090048101928261277957600085556127bf565b82601f1061279257805160ff19168380011785556127bf565b828001600101855582156127bf579182015b828111156127bf5782518255916020019190600101906127a4565b506127cb9291506127cf565b5090565b5b808211156127cb57600081556001016127d0565b6001600160a01b038116811461260a57600080fd5b60008060006060848603121561280e57600080fd5b8335612819816127e4565b95602085013595506040909401359392505050565b60006020828403121561284057600080fd5b8135610f42816127e4565b60006020828403121561285d57600080fd5b5035919050565b634e487b7160e01b600052604160045260246000fd5b600082601f83011261288b57600080fd5b813567ffffffffffffffff808211156128a6576128a6612864565b604051601f8301601f19908116603f011681019082821181831017156128ce576128ce612864565b816040528381528660208588010111156128e757600080fd5b836020870160208301376000602085830101528094505050505092915050565b6000806000806080858703121561291d57600080fd5b843567ffffffffffffffff81111561293457600080fd5b6129408782880161287a565b9450506020850135612951816127e4565b93969395505050506040820135916060013590565b6000815180845260005b8181101561298c57602081850181015186830182015201612970565b8181111561299e576000602083870101525b50601f01601f19169290920160200192915050565b602081526000610f426020830184612966565b60e0815260006129d960e083018a612966565b82810360208401526129eb818a612966565b905082810360408401526129ff8189612966565b90508281036060840152612a138188612966565b90508281036080840152612a278187612966565b905082810360a0840152612a3b8186612966565b905082810360c0840152612a4f8185612966565b9a9950505050505050505050565b60008060408385031215612a7057600080fd5b8235612a7b816127e4565b946020939093013593505050565b801515811461260a57600080fd5b600080600060608486031215612aac57600080fd5b833561281981612a89565b60008060008060808587031215612acd57600080fd5b8435612ad881612a89565b9350602085013592506040850135612aef816127e4565b9396929550929360600135925050565b600060208284031215612b1157600080fd5b813567ffffffffffffffff811115612b2857600080fd5b6114368482850161287a565b6020808252818101527f4f776e61626c653a2063616c6c6572206973206e6f7420746865206f776e6572604082015260600190565b6000610100808352612b97818401600d81526c098d2e2ead2c8d2e8f240a8c2f609b1b602082015260400190565b6001600160a01b038a81166020860152604085018a9052606085018990528482036080860152909150612be482600d81526c098d2e2ead2c8d2e8f240a8c2f609b1b602082015260400190565b961660a0840152505060c081019290925260e0909101529392505050565b634e487b7160e01b600052601160045260246000fd5b60008219821115612c2b57612c2b612c02565b500190565b600082612c4d57634e487b7160e01b600052601260045260246000fd5b500490565b600181815b80851115612c8d578160001904821115612c7357612c73612c02565b80851615612c8057918102915b93841c9390800290612c57565b509250929050565b600082612ca457506001611044565b81612cb157506000611044565b8160018114612cc75760028114612cd157612ced565b6001915050611044565b60ff841115612ce257612ce2612c02565b50506001821b611044565b5060208310610133831016604e8410600b8410161715612d10575081810a611044565b612d1a8383612c52565b8060001904821115612d2e57612d2e612c02565b029392505050565b6000610f428383612c95565b6000816000190483118215151615612d5c57612d5c612c02565b500290565b600060208284031215612d7357600080fd5b8151610f4281612a89565b600181811c90821680612d9257607f821691505b60208210811415612db357634e487b7160e01b600052602260045260246000fd5b50919050565b8054600090600181811c9080831680612dd357607f831692505b6020808410821415612df557634e487b7160e01b600052602260045260246000fd5b83885260208801828015612e105760018114612e2157612e4c565b60ff19871682528282019750612e4c565b60008981526020902060005b87811015612e4657815484820152908601908401612e2d565b83019850505b5050505050505092915050565b6000610100808352612e6d8184018c612966565b6001600160a01b038b81166020860152604085018b9052606085018a90528482036080860152909150612ea08289612db9565b961660a0840152505060c081019290925260e09091015295945050505050565b600060208284031215612ed257600080fd5b8151610f42816127e4565b80516001600160701b0381168114612ef457600080fd5b919050565b600080600060608486031215612f0e57600080fd5b612f1784612edd565b9250612f2560208501612edd565b9150604084015163ffffffff81168114612f3e57600080fd5b809150509250925092565b600060208284031215612f5b57600080fd5b5051919050565b6000610100808352612f8b8184016008815267084eae4dc40a8c2f60c31b602082015260400190565b6001600160a01b038a81166020860152604085018a9052606085018990528482036080860152909150612be4826008815267084eae4dc40a8c2f60c31b602082015260400190565b604081526000612fe66040830185612966565b8281036020840152612ff88185612db9565b9594505050505056fea8a8ba62162bcc4c125b3b832495f50d313eb4892e9ad2ab9900fe34831c40a6a26469706673582212208752958ad403ceedfa0e51aa44bbaadd533560453296e4ea92e1133e886aefa764736f6c634300080c0033",
          "opcodes": "PUSH1 0x1 DUP1 SLOAD PUSH1 0xFF PUSH1 0xA0 SHL NOT AND DUP2 SSTORE PUSH1 0x2 DUP1 SLOAD PUSH1 0x1 PUSH1 0x1 PUSH1 0xA0 SHL SUB NOT SWAP1 DUP2 AND PUSH20 0x6DE1863F4F408D6D2FFC34A83308A386D8316B19 OR SWAP1 SWAP2 SSTORE PUSH1 0x0 PUSH1 0x3 SSTORE PUSH2 0x1388 PUSH1 0x4 DUP2 SWAP1 SSTORE PUSH1 0x5 DUP1 SLOAD PUSH1 0xFF NOT AND SWAP1 SWAP4 OR SWAP1 SWAP3 SSTORE PUSH1 0x6 SWAP2 SWAP1 SWAP2 SSTORE PUSH2 0x4E20 PUSH1 0x7 SSTORE PUSH1 0x8 DUP1 SLOAD SWAP1 SWAP2 AND PUSH20 0x9AC64CC6E4415144C455BD8E4837FEA55603E5C3 OR SWAP1 SSTORE PUSH1 0xC0 PUSH1 0x40 MSTORE PUSH1 0xD PUSH1 0x80 DUP2 SWAP1 MSTORE PUSH13 0x9AC2E4D6CAE8D2DCCE40A8C2F PUSH1 0x9B SHL PUSH1 0xA0 SWAP1 DUP2 MSTORE PUSH3 0xAC SWAP2 PUSH1 0x9 SWAP2 SWAP1 PUSH3 0x2D0 JUMP JUMPDEST POP PUSH1 0xA DUP1 SLOAD PUSH1 0x1 PUSH1 0x1 PUSH1 0xA0 SHL SUB NOT AND PUSH20 0x6DFCD4331B0D86BFE0318706C76B832DA4C03C1B OR SWAP1 SSTORE PUSH1 0xC8 PUSH1 0xB DUP2 DUP2 SSTORE PUSH1 0xC SWAP2 SWAP1 SWAP2 SSTORE PUSH1 0x40 DUP1 MLOAD DUP1 DUP3 ADD SWAP1 SWAP2 MSTORE DUP2 DUP2 MSTORE PUSH11 0x86D0C2E4D2E8F240A8C2F PUSH1 0xAB SHL PUSH1 0x20 SWAP1 SWAP2 ADD SWAP1 DUP2 MSTORE PUSH3 0x113 SWAP2 PUSH1 0xD SWAP2 SWAP1 PUSH3 0x2D0 JUMP JUMPDEST POP PUSH1 0xE DUP1 SLOAD PUSH1 0x1 PUSH1 0x1 PUSH1 0xA0 SHL SUB NOT AND PUSH20 0xA56891CFBD0175E6FC46BF7D647DE26100E95C78 OR SWAP1 SSTORE PUSH1 0xC8 PUSH1 0xF DUP2 SWAP1 SSTORE PUSH1 0x10 SSTORE PUSH1 0x40 DUP1 MLOAD DUP1 DUP3 ADD SWAP1 SWAP2 MSTORE PUSH1 0x15 DUP1 DUP3 MSTORE PUSH32 0x427579204261636B20616E64204275726E205461780000000000000000000000 PUSH1 0x20 SWAP1 SWAP3 ADD SWAP2 DUP3 MSTORE PUSH3 0x18A SWAP2 PUSH1 0x11 SWAP2 PUSH3 0x2D0 JUMP JUMPDEST POP PUSH1 0x12 DUP1 SLOAD PUSH1 0x1 PUSH1 0x1 PUSH1 0xA0 SHL SUB NOT SWAP1 DUP2 AND PUSH20 0x5A185C361DD4573F1BB8044D5D8275E25831B53E OR SWAP1 SWAP2 SSTORE PUSH1 0x16 DUP1 SLOAD DUP3 AND PUSH20 0x9036464E4ECD2D40D21EE38A0398AEDD6805A09B SWAP1 DUP2 OR SWAP1 SWAP2 SSTORE PUSH1 0x1A DUP1 SLOAD DUP4 AND PUSH20 0x445664D66C294F49BB55A90D3C30BCAB0F9502A9 OR SWAP1 SSTORE PUSH1 0x1D DUP1 SLOAD DUP4 AND PUSH2 0xDEAD OR SWAP1 SSTORE PUSH1 0x20 DUP1 SLOAD SWAP1 SWAP3 AND OR SWAP1 SSTORE PUSH1 0xC8 PUSH1 0x21 DUP2 SWAP1 SSTORE PUSH1 0x22 SSTORE CALLVALUE DUP1 ISZERO PUSH3 0x220 JUMPI PUSH1 0x0 DUP1 REVERT JUMPDEST POP PUSH1 0x40 MLOAD PUSH3 0x346F CODESIZE SUB DUP1 PUSH3 0x346F DUP4 CODECOPY DUP2 ADD PUSH1 0x40 DUP2 SWAP1 MSTORE PUSH3 0x243 SWAP2 PUSH3 0x393 JUMP JUMPDEST PUSH3 0x24E CALLER PUSH3 0x280 JUMP JUMPDEST PUSH1 0x1 DUP1 SLOAD PUSH1 0x1 PUSH1 0x1 PUSH1 0xA0 SHL SUB SWAP4 DUP5 AND PUSH1 0x1 PUSH1 0x1 PUSH1 0xA0 SHL SUB NOT SWAP2 DUP3 AND OR SWAP1 SWAP2 SSTORE PUSH1 0x8 DUP1 SLOAD SWAP3 SWAP1 SWAP4 AND SWAP2 AND OR SWAP1 SSTORE PUSH3 0x408 JUMP JUMPDEST PUSH1 0x0 DUP1 SLOAD PUSH1 0x1 PUSH1 0x1 PUSH1 0xA0 SHL SUB DUP4 DUP2 AND PUSH1 0x1 PUSH1 0x1 PUSH1 0xA0 SHL SUB NOT DUP4 AND DUP2 OR DUP5 SSTORE PUSH1 0x40 MLOAD SWAP2 SWAP1 SWAP3 AND SWAP3 DUP4 SWAP2 PUSH32 0x8BE0079C531659141344CD1FD0A4F28419497F9722A3DAAFE3B4186F6B6457E0 SWAP2 SWAP1 LOG3 POP POP JUMP JUMPDEST DUP3 DUP1 SLOAD PUSH3 0x2DE SWAP1 PUSH3 0x3CB JUMP JUMPDEST SWAP1 PUSH1 0x0 MSTORE PUSH1 0x20 PUSH1 0x0 KECCAK256 SWAP1 PUSH1 0x1F ADD PUSH1 0x20 SWAP1 DIV DUP2 ADD SWAP3 DUP3 PUSH3 0x302 JUMPI PUSH1 0x0 DUP6 SSTORE PUSH3 0x34D JUMP JUMPDEST DUP3 PUSH1 0x1F LT PUSH3 0x31D JUMPI DUP1 MLOAD PUSH1 0xFF NOT AND DUP4 DUP1 ADD OR DUP6 SSTORE PUSH3 0x34D JUMP JUMPDEST DUP3 DUP1 ADD PUSH1 0x1 ADD DUP6 SSTORE DUP3 ISZERO PUSH3 0x34D JUMPI SWAP2 DUP3 ADD JUMPDEST DUP3 DUP2 GT ISZERO PUSH3 0x34D JUMPI DUP3 MLOAD DUP3 SSTORE SWAP2 PUSH1 0x20 ADD SWAP2 SWAP1 PUSH1 0x1 ADD SWAP1 PUSH3 0x330 JUMP JUMPDEST POP PUSH3 0x35B SWAP3 SWAP2 POP PUSH3 0x35F JUMP JUMPDEST POP SWAP1 JUMP JUMPDEST JUMPDEST DUP1 DUP3 GT ISZERO PUSH3 0x35B JUMPI PUSH1 0x0 DUP2 SSTORE PUSH1 0x1 ADD PUSH3 0x360 JUMP JUMPDEST DUP1 MLOAD PUSH1 0x1 PUSH1 0x1 PUSH1 0xA0 SHL SUB DUP2 AND DUP2 EQ PUSH3 0x38E JUMPI PUSH1 0x0 DUP1 REVERT JUMPDEST SWAP2 SWAP1 POP JUMP JUMPDEST PUSH1 0x0 DUP1 PUSH1 0x40 DUP4 DUP6 SUB SLT ISZERO PUSH3 0x3A7 JUMPI PUSH1 0x0 DUP1 REVERT JUMPDEST PUSH3 0x3B2 DUP4 PUSH3 0x376 JUMP JUMPDEST SWAP2 POP PUSH3 0x3C2 PUSH1 0x20 DUP5 ADD PUSH3 0x376 JUMP JUMPDEST SWAP1 POP SWAP3 POP SWAP3 SWAP1 POP JUMP JUMPDEST PUSH1 0x1 DUP2 DUP2 SHR SWAP1 DUP3 AND DUP1 PUSH3 0x3E0 JUMPI PUSH1 0x7F DUP3 AND SWAP2 POP JUMPDEST PUSH1 0x20 DUP3 LT DUP2 EQ ISZERO PUSH3 0x402 JUMPI PUSH4 0x4E487B71 PUSH1 0xE0 SHL PUSH1 0x0 MSTORE PUSH1 0x22 PUSH1 0x4 MSTORE PUSH1 0x24 PUSH1 0x0 REVERT JUMPDEST POP SWAP2 SWAP1 POP JUMP JUMPDEST PUSH2 0x3057 DUP1 PUSH3 0x418 PUSH1 0x0 CODECOPY PUSH1 0x0 RETURN INVALID PUSH1 0x80 PUSH1 0x40 MSTORE PUSH1 0x4 CALLDATASIZE LT PUSH2 0x46C JUMPI PUSH1 0x0 CALLDATALOAD PUSH1 0xE0 SHR DUP1 PUSH4 0x80384D4D GT PUSH2 0x24A JUMPI DUP1 PUSH4 0xBC040DA3 GT PUSH2 0x139 JUMPI DUP1 PUSH4 0xE3255552 GT PUSH2 0xB6 JUMPI DUP1 PUSH4 0xF2FDE38B GT PUSH2 0x7A JUMPI DUP1 PUSH4 0xF2FDE38B EQ PUSH2 0xD75 JUMPI DUP1 PUSH4 0xF39331FD EQ PUSH2 0xD95 JUMPI DUP1 PUSH4 0xF3B6966B EQ PUSH2 0xDB5 JUMPI DUP1 PUSH4 0xF9110AF3 EQ PUSH2 0xDD5 JUMPI DUP1 PUSH4 0xFB61E998 EQ PUSH2 0xDF5 JUMPI PUSH1 0x0 DUP1 REVERT JUMPDEST DUP1 PUSH4 0xE3255552 EQ PUSH2 0xCDF JUMPI DUP1 PUSH4 0xE52AAF2B EQ PUSH2 0xCFF JUMPI DUP1 PUSH4 0xE5902C2D EQ PUSH2 0xD1F JUMPI DUP1 PUSH4 0xE69AEE91 EQ PUSH2 0xD3F JUMPI DUP1 PUSH4 0xEAA84776 EQ PUSH2 0xD5F JUMPI PUSH1 0x0 DUP1 REVERT JUMPDEST DUP1 PUSH4 0xCE94B99A GT PUSH2 0xFD JUMPI DUP1 PUSH4 0xCE94B99A EQ PUSH2 0xC49 JUMPI DUP1 PUSH4 0xD162D415 EQ PUSH2 0xC5F JUMPI DUP1 PUSH4 0xD505CC4D EQ PUSH2 0xC7F JUMPI DUP1 PUSH4 0xE036A582 EQ PUSH2 0xC9F JUMPI DUP1 PUSH4 0xE1EB5154 EQ PUSH2 0xCBF JUMPI PUSH1 0x0 DUP1 REVERT JUMPDEST DUP1 PUSH4 0xBC040DA3 EQ PUSH2 0xBB3 JUMPI DUP1 PUSH4 0xC554D74C EQ PUSH2 0xBD3 JUMPI DUP1 PUSH4 0xC8D87F91 EQ PUSH2 0xBF3 JUMPI DUP1 PUSH4 0xCA682C6D EQ PUSH2 0xC13 JUMPI DUP1 PUSH4 0xCB6798A4 EQ PUSH2 0xC33 JUMPI PUSH1 0x0 DUP1 REVERT JUMPDEST DUP1 PUSH4 0x9D4C411C GT PUSH2 0x1C7 JUMPI DUP1 PUSH4 0xAE46567C GT PUSH2 0x18B JUMPI DUP1 PUSH4 0xAE46567C EQ PUSH2 0xB2E JUMPI DUP1 PUSH4 0xB40A3F93 EQ PUSH2 0xB43 JUMPI DUP1 PUSH4 0xB5665400 EQ PUSH2 0xB59 JUMPI DUP1 PUSH4 0xB7B40050 EQ PUSH2 0xB73 JUMPI DUP1 PUSH4 0xBBAEC3E0 EQ PUSH2 0xB93 JUMPI PUSH1 0x0 DUP1 REVERT JUMPDEST DUP1 PUSH4 0x9D4C411C EQ PUSH2 0xA98 JUMPI DUP1 PUSH4 0xA26C8629 EQ PUSH2 0xAAE JUMPI DUP1 PUSH4 0xA385AC31 EQ PUSH2 0xACE JUMPI DUP1 PUSH4 0xA8B5AFDC EQ PUSH2 0xAEE JUMPI DUP1 PUSH4 0xAB183639 EQ PUSH2 0xB0E JUMPI PUSH1 0x0 DUP1 REVERT JUMPDEST DUP1 PUSH4 0x885B922D GT PUSH2 0x20E JUMPI DUP1 PUSH4 0x885B922D EQ PUSH2 0xA04 JUMPI DUP1 PUSH4 0x8DA5CB5B EQ PUSH2 0xA24 JUMPI DUP1 PUSH4 0x9712A173 EQ PUSH2 0xA42 JUMPI DUP1 PUSH4 0x9AF14612 EQ PUSH2 0xA58 JUMPI DUP1 PUSH4 0x9BC81A2C EQ PUSH2 0xA78 JUMPI PUSH1 0x0 DUP1 REVERT JUMPDEST DUP1 PUSH4 0x80384D4D EQ PUSH2 0x95D JUMPI DUP1 PUSH4 0x832033C2 EQ PUSH2 0x97D JUMPI DUP1 PUSH4 0x83D611E0 EQ PUSH2 0x993 JUMPI DUP1 PUSH4 0x862737C9 EQ PUSH2 0x9B3 JUMPI DUP1 PUSH4 0x875138AA EQ PUSH2 0x9D3 JUMPI PUSH1 0x0 DUP1 REVERT JUMPDEST DUP1 PUSH4 0x41CB87FC GT PUSH2 0x366 JUMPI DUP1 PUSH4 0x70D5AE05 GT PUSH2 0x2E3 JUMPI DUP1 PUSH4 0x7749EEB3 GT PUSH2 0x2A7 JUMPI DUP1 PUSH4 0x7749EEB3 EQ PUSH2 0x8E8 JUMPI DUP1 PUSH4 0x776F1E10 EQ PUSH2 0x908 JUMPI DUP1 PUSH4 0x7D485EB9 EQ PUSH2 0x91D JUMPI DUP1 PUSH4 0x7E11B31F EQ PUSH2 0x933 JUMPI DUP1 PUSH4 0x7F582E0E EQ PUSH2 0x948 JUMPI PUSH1 0x0 DUP1 REVERT JUMPDEST DUP1 PUSH4 0x70D5AE05 EQ PUSH2 0x85D JUMPI DUP1 PUSH4 0x715018A6 EQ PUSH2 0x87D JUMPI DUP1 PUSH4 0x7435A21F EQ PUSH2 0x892 JUMPI DUP1 PUSH4 0x75AF3091 EQ PUSH2 0x8A8 JUMPI DUP1 PUSH4 0x76D747E9 EQ PUSH2 0x8C8 JUMPI PUSH1 0x0 DUP1 REVERT JUMPDEST DUP1 PUSH4 0x56355A90 GT PUSH2 0x32A JUMPI DUP1 PUSH4 0x56355A90 EQ PUSH2 0x7E7 JUMPI DUP1 PUSH4 0x56A6338F EQ PUSH2 0x7FC JUMPI DUP1 PUSH4 0x5C5AA9B2 EQ PUSH2 0x81C JUMPI DUP1 PUSH4 0x6A5C5C3A EQ PUSH2 0x831 JUMPI DUP1 PUSH4 0x6F1BD5E0 EQ PUSH2 0x847 JUMPI PUSH1 0x0 DUP1 REVERT JUMPDEST DUP1 PUSH4 0x41CB87FC EQ PUSH2 0x736 JUMPI DUP1 PUSH4 0x42D7359B EQ PUSH2 0x756 JUMPI DUP1 PUSH4 0x48DE3F4F EQ PUSH2 0x76C JUMPI DUP1 PUSH4 0x4F12DA14 EQ PUSH2 0x7A9 JUMPI DUP1 PUSH4 0x4F2FC5C1 EQ PUSH2 0x7D1 JUMPI PUSH1 0x0 DUP1 REVERT JUMPDEST DUP1 PUSH4 0x18B38E8A GT PUSH2 0x3F4 JUMPI DUP1 PUSH4 0x3268CC56 GT PUSH2 0x3B8 JUMPI DUP1 PUSH4 0x3268CC56 EQ PUSH2 0x67E JUMPI DUP1 PUSH4 0x357579D2 EQ PUSH2 0x69E JUMPI DUP1 PUSH4 0x3C743BEB EQ PUSH2 0x6B4 JUMPI DUP1 PUSH4 0x3E99C1E4 EQ PUSH2 0x6CA JUMPI DUP1 PUSH4 0x4144F1C4 EQ PUSH2 0x716 JUMPI PUSH1 0x0 DUP1 REVERT JUMPDEST DUP1 PUSH4 0x18B38E8A EQ PUSH2 0x5F2 JUMPI DUP1 PUSH4 0x1A788A02 EQ PUSH2 0x608 JUMPI DUP1 PUSH4 0x2CBFC5A5 EQ PUSH2 0x628 JUMPI DUP1 PUSH4 0x2F1FC52C EQ PUSH2 0x648 JUMPI DUP1 PUSH4 0x3079221B EQ PUSH2 0x668 JUMPI PUSH1 0x0 DUP1 REVERT JUMPDEST DUP1 PUSH4 0x107BF304 GT PUSH2 0x43B JUMPI DUP1 PUSH4 0x107BF304 EQ PUSH2 0x542 JUMPI DUP1 PUSH4 0x10B567AD EQ PUSH2 0x562 JUMPI DUP1 PUSH4 0x1217B0CB EQ PUSH2 0x59A JUMPI DUP1 PUSH4 0x1820FE0C EQ PUSH2 0x5B0 JUMPI DUP1 PUSH4 0x1866CBFA EQ PUSH2 0x5D0 JUMPI PUSH1 0x0 DUP1 REVERT JUMPDEST DUP1 PUSH4 0x5BDF464 EQ PUSH2 0x478 JUMPI DUP1 PUSH4 0x787150A EQ PUSH2 0x49A JUMPI DUP1 PUSH4 0x7AD6D48 EQ PUSH2 0x4CD JUMPI DUP1 PUSH4 0xA9EE06C EQ PUSH2 0x4ED JUMPI PUSH1 0x0 DUP1 REVERT JUMPDEST CALLDATASIZE PUSH2 0x473 JUMPI STOP JUMPDEST PUSH1 0x0 DUP1 REVERT JUMPDEST CALLVALUE DUP1 ISZERO PUSH2 0x484 JUMPI PUSH1 0x0 DUP1 REVERT JUMPDEST POP PUSH2 0x498 PUSH2 0x493 CALLDATASIZE PUSH1 0x4 PUSH2 0x27F9 JUMP JUMPDEST PUSH2 0xE61 JUMP JUMPDEST STOP JUMPDEST CALLVALUE DUP1 ISZERO PUSH2 0x4A6 JUMPI PUSH1 0x0 DUP1 REVERT JUMPDEST POP PUSH2 0x4BA PUSH2 0x4B5 CALLDATASIZE PUSH1 0x4 PUSH2 0x282E JUMP JUMPDEST PUSH2 0xF02 JUMP JUMPDEST PUSH1 0x40 MLOAD SWAP1 DUP2 MSTORE PUSH1 0x20 ADD JUMPDEST PUSH1 0x40 MLOAD DUP1 SWAP2 SUB SWAP1 RETURN JUMPDEST CALLVALUE DUP1 ISZERO PUSH2 0x4D9 JUMPI PUSH1 0x0 DUP1 REVERT JUMPDEST POP PUSH2 0x4BA PUSH2 0x4E8 CALLDATASIZE PUSH1 0x4 PUSH2 0x282E JUMP JUMPDEST PUSH2 0xF49 JUMP JUMPDEST CALLVALUE DUP1 ISZERO PUSH2 0x4F9 JUMPI PUSH1 0x0 DUP1 REVERT JUMPDEST POP PUSH2 0x50D PUSH2 0x508 CALLDATASIZE PUSH1 0x4 PUSH2 0x282E JUMP JUMPDEST PUSH2 0x104A JUMP JUMPDEST PUSH1 0x40 DUP1 MLOAD SWAP8 DUP9 MSTORE PUSH1 0x20 DUP9 ADD SWAP7 SWAP1 SWAP7 MSTORE SWAP5 DUP7 ADD SWAP4 SWAP1 SWAP4 MSTORE PUSH1 0x60 DUP6 ADD SWAP2 SWAP1 SWAP2 MSTORE PUSH1 0x80 DUP5 ADD MSTORE PUSH1 0xA0 DUP4 ADD MSTORE PUSH1 0xC0 DUP3 ADD MSTORE PUSH1 0xE0 ADD PUSH2 0x4C4 JUMP JUMPDEST CALLVALUE DUP1 ISZERO PUSH2 0x54E JUMPI PUSH1 0x0 DUP1 REVERT JUMPDEST POP PUSH2 0x498 PUSH2 0x55D CALLDATASIZE PUSH1 0x4 PUSH2 0x284B JUMP JUMPDEST PUSH2 0x10AB JUMP JUMPDEST CALLVALUE DUP1 ISZERO PUSH2 0x56E JUMPI PUSH1 0x0 DUP1 REVERT JUMPDEST POP PUSH1 0x12 SLOAD PUSH2 0x582 SWAP1 PUSH1 0x1 PUSH1 0x1 PUSH1 0xA0 SHL SUB AND DUP2 JUMP JUMPDEST PUSH1 0x40 MLOAD PUSH1 0x1 PUSH1 0x1 PUSH1 0xA0 SHL SUB SWAP1 SWAP2 AND DUP2 MSTORE PUSH1 0x20 ADD PUSH2 0x4C4 JUMP JUMPDEST CALLVALUE DUP1 ISZERO PUSH2 0x5A6 JUMPI PUSH1 0x0 DUP1 REVERT JUMPDEST POP PUSH2 0x4BA PUSH1 0x3 SLOAD DUP2 JUMP JUMPDEST CALLVALUE DUP1 ISZERO PUSH2 0x5BC JUMPI PUSH1 0x0 DUP1 REVERT JUMPDEST POP PUSH2 0x498 PUSH2 0x5CB CALLDATASIZE PUSH1 0x4 PUSH2 0x2907 JUMP JUMPDEST PUSH2 0x1106 JUMP JUMPDEST CALLVALUE DUP1 ISZERO PUSH2 0x5DC JUMPI PUSH1 0x0 DUP1 REVERT JUMPDEST POP PUSH2 0x5E5 PUSH2 0x1253 JUMP JUMPDEST PUSH1 0x40 MLOAD PUSH2 0x4C4 SWAP2 SWAP1 PUSH2 0x29B3 JUMP JUMPDEST CALLVALUE DUP1 ISZERO PUSH2 0x5FE JUMPI PUSH1 0x0 DUP1 REVERT JUMPDEST POP PUSH2 0x4BA PUSH1 0x21 SLOAD DUP2 JUMP JUMPDEST CALLVALUE DUP1 ISZERO PUSH2 0x614 JUMPI PUSH1 0x0 DUP1 REVERT JUMPDEST POP PUSH2 0x582 PUSH2 0x623 CALLDATASIZE PUSH1 0x4 PUSH2 0x282E JUMP JUMPDEST PUSH2 0x12E1 JUMP JUMPDEST CALLVALUE DUP1 ISZERO PUSH2 0x634 JUMPI PUSH1 0x0 DUP1 REVERT JUMPDEST POP PUSH1 0x1A SLOAD PUSH2 0x582 SWAP1 PUSH1 0x1 PUSH1 0x1 PUSH1 0xA0 SHL SUB AND DUP2 JUMP JUMPDEST CALLVALUE DUP1 ISZERO PUSH2 0x654 JUMPI PUSH1 0x0 DUP1 REVERT JUMPDEST POP PUSH2 0x4BA PUSH2 0x663 CALLDATASIZE PUSH1 0x4 PUSH2 0x282E JUMP JUMPDEST PUSH2 0x143E JUMP JUMPDEST CALLVALUE DUP1 ISZERO PUSH2 0x674 JUMPI PUSH1 0x0 DUP1 REVERT JUMPDEST POP PUSH2 0x4BA PUSH1 0x22 SLOAD DUP2 JUMP JUMPDEST CALLVALUE DUP1 ISZERO PUSH2 0x68A JUMPI PUSH1 0x0 DUP1 REVERT JUMPDEST POP PUSH1 0x8 SLOAD PUSH2 0x582 SWAP1 PUSH1 0x1 PUSH1 0x1 PUSH1 0xA0 SHL SUB AND DUP2 JUMP JUMPDEST CALLVALUE DUP1 ISZERO PUSH2 0x6AA JUMPI PUSH1 0x0 DUP1 REVERT JUMPDEST POP PUSH2 0x4BA PUSH1 0x1E SLOAD DUP2 JUMP JUMPDEST CALLVALUE DUP1 ISZERO PUSH2 0x6C0 JUMPI PUSH1 0x0 DUP1 REVERT JUMPDEST POP PUSH2 0x4BA PUSH1 0x17 SLOAD DUP2 JUMP JUMPDEST CALLVALUE DUP1 ISZERO PUSH2 0x6D6 JUMPI PUSH1 0x0 DUP1 REVERT JUMPDEST POP PUSH2 0x6EA PUSH2 0x6E5 CALLDATASIZE PUSH1 0x4 PUSH2 0x282E JUMP JUMPDEST PUSH2 0x1462 JUMP JUMPDEST PUSH1 0x40 DUP1 MLOAD PUSH1 0x1 PUSH1 0x1 PUSH1 0x70 SHL SUB SWAP5 DUP6 AND DUP2 MSTORE SWAP4 SWAP1 SWAP3 AND PUSH1 0x20 DUP5 ADD MSTORE PUSH4 0xFFFFFFFF AND SWAP1 DUP3 ADD MSTORE PUSH1 0x60 ADD PUSH2 0x4C4 JUMP JUMPDEST CALLVALUE DUP1 ISZERO PUSH2 0x722 JUMPI PUSH1 0x0 DUP1 REVERT JUMPDEST POP PUSH2 0x4BA PUSH2 0x731 CALLDATASIZE PUSH1 0x4 PUSH2 0x282E JUMP JUMPDEST PUSH2 0x14E3 JUMP JUMPDEST CALLVALUE DUP1 ISZERO PUSH2 0x742 JUMPI PUSH1 0x0 DUP1 REVERT JUMPDEST POP PUSH2 0x498 PUSH2 0x751 CALLDATASIZE PUSH1 0x4 PUSH2 0x282E JUMP JUMPDEST PUSH2 0x15D4 JUMP JUMPDEST CALLVALUE DUP1 ISZERO PUSH2 0x762 JUMPI PUSH1 0x0 DUP1 REVERT JUMPDEST POP PUSH2 0x4BA PUSH1 0x1F SLOAD DUP2 JUMP JUMPDEST CALLVALUE DUP1 ISZERO PUSH2 0x778 JUMPI PUSH1 0x0 DUP1 REVERT JUMPDEST POP PUSH2 0x78C PUSH2 0x787 CALLDATASIZE PUSH1 0x4 PUSH2 0x282E JUMP JUMPDEST PUSH2 0x1660 JUMP JUMPDEST PUSH1 0x40 DUP1 MLOAD SWAP3 DUP4 MSTORE PUSH1 0x1 PUSH1 0x1 PUSH1 0xA0 SHL SUB SWAP1 SWAP2 AND PUSH1 0x20 DUP4 ADD MSTORE ADD PUSH2 0x4C4 JUMP JUMPDEST CALLVALUE DUP1 ISZERO PUSH2 0x7B5 JUMPI PUSH1 0x0 DUP1 REVERT JUMPDEST POP PUSH2 0x7BE PUSH2 0x1683 JUMP JUMPDEST PUSH1 0x40 MLOAD PUSH2 0x4C4 SWAP8 SWAP7 SWAP6 SWAP5 SWAP4 SWAP3 SWAP2 SWAP1 PUSH2 0x29C6 JUMP JUMPDEST CALLVALUE DUP1 ISZERO PUSH2 0x7DD JUMPI PUSH1 0x0 DUP1 REVERT JUMPDEST POP PUSH2 0x4BA PUSH1 0xF SLOAD DUP2 JUMP JUMPDEST CALLVALUE DUP1 ISZERO PUSH2 0x7F3 JUMPI PUSH1 0x0 DUP1 REVERT JUMPDEST POP PUSH2 0x5E5 PUSH2 0x19B2 JUMP JUMPDEST CALLVALUE DUP1 ISZERO PUSH2 0x808 JUMPI PUSH1 0x0 DUP1 REVERT JUMPDEST POP PUSH2 0x498 PUSH2 0x817 CALLDATASIZE PUSH1 0x4 PUSH2 0x2A5D JUMP JUMPDEST PUSH2 0x19BF JUMP JUMPDEST CALLVALUE DUP1 ISZERO PUSH2 0x828 JUMPI PUSH1 0x0 DUP1 REVERT JUMPDEST POP PUSH2 0x5E5 PUSH2 0x1B2D JUMP JUMPDEST CALLVALUE DUP1 ISZERO PUSH2 0x83D JUMPI PUSH1 0x0 DUP1 REVERT JUMPDEST POP PUSH2 0x4BA PUSH1 0x18 SLOAD DUP2 JUMP JUMPDEST CALLVALUE DUP1 ISZERO PUSH2 0x853 JUMPI PUSH1 0x0 DUP1 REVERT JUMPDEST POP PUSH2 0x4BA PUSH1 0x14 SLOAD DUP2 JUMP JUMPDEST CALLVALUE DUP1 ISZERO PUSH2 0x869 JUMPI PUSH1 0x0 DUP1 REVERT JUMPDEST POP PUSH1 0x1D SLOAD PUSH2 0x582 SWAP1 PUSH1 0x1 PUSH1 0x1 PUSH1 0xA0 SHL SUB AND DUP2 JUMP JUMPDEST CALLVALUE DUP1 ISZERO PUSH2 0x889 JUMPI PUSH1 0x0 DUP1 REVERT JUMPDEST POP PUSH2 0x498 PUSH2 0x1B3A JUMP JUMPDEST CALLVALUE DUP1 ISZERO PUSH2 0x89E JUMPI PUSH1 0x0 DUP1 REVERT JUMPDEST POP PUSH2 0x4BA PUSH1 0x4 SLOAD DUP2 JUMP JUMPDEST CALLVALUE DUP1 ISZERO PUSH2 0x8B4 JUMPI PUSH1 0x0 DUP1 REVERT JUMPDEST POP PUSH2 0x4BA PUSH2 0x8C3 CALLDATASIZE PUSH1 0x4 PUSH2 0x282E JUMP JUMPDEST PUSH2 0x1B70 JUMP JUMPDEST CALLVALUE DUP1 ISZERO PUSH2 0x8D4 JUMPI PUSH1 0x0 DUP1 REVERT JUMPDEST POP PUSH2 0x4BA PUSH2 0x8E3 CALLDATASIZE PUSH1 0x4 PUSH2 0x282E JUMP JUMPDEST PUSH2 0x1B94 JUMP JUMPDEST CALLVALUE DUP1 ISZERO PUSH2 0x8F4 JUMPI PUSH1 0x0 DUP1 REVERT JUMPDEST POP PUSH2 0x4BA PUSH2 0x903 CALLDATASIZE PUSH1 0x4 PUSH2 0x282E JUMP JUMPDEST PUSH2 0x1BE6 JUMP JUMPDEST CALLVALUE DUP1 ISZERO PUSH2 0x914 JUMPI PUSH1 0x0 DUP1 REVERT JUMPDEST POP PUSH2 0x5E5 PUSH2 0x1C0A JUMP JUMPDEST CALLVALUE DUP1 ISZERO PUSH2 0x929 JUMPI PUSH1 0x0 DUP1 REVERT JUMPDEST POP PUSH2 0x4BA PUSH1 0xC SLOAD DUP2 JUMP JUMPDEST CALLVALUE DUP1 ISZERO PUSH2 0x93F JUMPI PUSH1 0x0 DUP1 REVERT JUMPDEST POP PUSH2 0x4BA PUSH1 0x2 DUP2 JUMP JUMPDEST CALLVALUE DUP1 ISZERO PUSH2 0x954 JUMPI PUSH1 0x0 DUP1 REVERT JUMPDEST POP PUSH2 0x5E5 PUSH2 0x1C17 JUMP JUMPDEST CALLVALUE DUP1 ISZERO PUSH2 0x969 JUMPI PUSH1 0x0 DUP1 REVERT JUMPDEST POP PUSH1 0x16 SLOAD PUSH2 0x582 SWAP1 PUSH1 0x1 PUSH1 0x1 PUSH1 0xA0 SHL SUB AND DUP2 JUMP JUMPDEST CALLVALUE DUP1 ISZERO PUSH2 0x989 JUMPI PUSH1 0x0 DUP1 REVERT JUMPDEST POP PUSH2 0x4BA PUSH1 0x13 SLOAD DUP2 JUMP JUMPDEST CALLVALUE DUP1 ISZERO PUSH2 0x99F JUMPI PUSH1 0x0 DUP1 REVERT JUMPDEST POP PUSH2 0x4BA PUSH2 0x9AE CALLDATASIZE PUSH1 0x4 PUSH2 0x282E JUMP JUMPDEST PUSH2 0x1C24 JUMP JUMPDEST CALLVALUE DUP1 ISZERO PUSH2 0x9BF JUMPI PUSH1 0x0 DUP1 REVERT JUMPDEST POP PUSH2 0x498 PUSH2 0x9CE CALLDATASIZE PUSH1 0x4 PUSH2 0x2907 JUMP JUMPDEST PUSH2 0x1C48 JUMP JUMPDEST CALLVALUE DUP1 ISZERO PUSH2 0x9DF JUMPI PUSH1 0x0 DUP1 REVERT JUMPDEST POP PUSH1 0x1 SLOAD PUSH2 0x9F4 SWAP1 PUSH1 0x1 PUSH1 0xA0 SHL SWAP1 DIV PUSH1 0xFF AND DUP2 JUMP JUMPDEST PUSH1 0x40 MLOAD SWAP1 ISZERO ISZERO DUP2 MSTORE PUSH1 0x20 ADD PUSH2 0x4C4 JUMP JUMPDEST CALLVALUE DUP1 ISZERO PUSH2 0xA10 JUMPI PUSH1 0x0 DUP1 REVERT JUMPDEST POP PUSH2 0x4BA PUSH2 0xA1F CALLDATASIZE PUSH1 0x4 PUSH2 0x282E JUMP JUMPDEST PUSH2 0x1D83 JUMP JUMPDEST CALLVALUE DUP1 ISZERO PUSH2 0xA30 JUMPI PUSH1 0x0 DUP1 REVERT JUMPDEST POP PUSH1 0x0 SLOAD PUSH1 0x1 PUSH1 0x1 PUSH1 0xA0 SHL SUB AND PUSH2 0x582 JUMP JUMPDEST CALLVALUE DUP1 ISZERO PUSH2 0xA4E JUMPI PUSH1 0x0 DUP1 REVERT JUMPDEST POP PUSH2 0x4BA PUSH1 0x1B SLOAD DUP2 JUMP JUMPDEST CALLVALUE DUP1 ISZERO PUSH2 0xA64 JUMPI PUSH1 0x0 DUP1 REVERT JUMPDEST POP PUSH2 0x498 PUSH2 0xA73 CALLDATASIZE PUSH1 0x4 PUSH2 0x282E JUMP JUMPDEST PUSH2 0x1D98 JUMP JUMPDEST CALLVALUE DUP1 ISZERO PUSH2 0xA84 JUMPI PUSH1 0x0 DUP1 REVERT JUMPDEST POP PUSH2 0x498 PUSH2 0xA93 CALLDATASIZE PUSH1 0x4 PUSH2 0x2907 JUMP JUMPDEST PUSH2 0x1DE4 JUMP JUMPDEST CALLVALUE DUP1 ISZERO PUSH2 0xAA4 JUMPI PUSH1 0x0 DUP1 REVERT JUMPDEST POP PUSH2 0x4BA PUSH1 0x7 SLOAD DUP2 JUMP JUMPDEST CALLVALUE DUP1 ISZERO PUSH2 0xABA JUMPI PUSH1 0x0 DUP1 REVERT JUMPDEST POP PUSH2 0x4BA PUSH2 0xAC9 CALLDATASIZE PUSH1 0x4 PUSH2 0x282E JUMP JUMPDEST PUSH2 0x1F1F JUMP JUMPDEST CALLVALUE DUP1 ISZERO PUSH2 0xADA JUMPI PUSH1 0x0 DUP1 REVERT JUMPDEST POP PUSH2 0x4BA PUSH2 0xAE9 CALLDATASIZE PUSH1 0x4 PUSH2 0x282E JUMP JUMPDEST PUSH2 0x1F43 JUMP JUMPDEST CALLVALUE DUP1 ISZERO PUSH2 0xAFA JUMPI PUSH1 0x0 DUP1 REVERT JUMPDEST POP PUSH2 0x498 PUSH2 0xB09 CALLDATASIZE PUSH1 0x4 PUSH2 0x27F9 JUMP JUMPDEST PUSH2 0x1F67 JUMP JUMPDEST CALLVALUE DUP1 ISZERO PUSH2 0xB1A JUMPI PUSH1 0x0 DUP1 REVERT JUMPDEST POP PUSH2 0x4BA PUSH2 0xB29 CALLDATASIZE PUSH1 0x4 PUSH2 0x282E JUMP JUMPDEST PUSH2 0x1FEF JUMP JUMPDEST CALLVALUE DUP1 ISZERO PUSH2 0xB3A JUMPI PUSH1 0x0 DUP1 REVERT JUMPDEST POP PUSH2 0x5E5 PUSH2 0x2013 JUMP JUMPDEST CALLVALUE DUP1 ISZERO PUSH2 0xB4F JUMPI PUSH1 0x0 DUP1 REVERT JUMPDEST POP PUSH2 0x4BA PUSH1 0xB SLOAD DUP2 JUMP JUMPDEST CALLVALUE DUP1 ISZERO PUSH2 0xB65 JUMPI PUSH1 0x0 DUP1 REVERT JUMPDEST POP PUSH1 0x5 SLOAD PUSH2 0x9F4 SWAP1 PUSH1 0xFF AND DUP2 JUMP JUMPDEST CALLVALUE DUP1 ISZERO PUSH2 0xB7F JUMPI PUSH1 0x0 DUP1 REVERT JUMPDEST POP PUSH2 0x498 PUSH2 0xB8E CALLDATASIZE PUSH1 0x4 PUSH2 0x2907 JUMP JUMPDEST PUSH2 0x2020 JUMP JUMPDEST CALLVALUE DUP1 ISZERO PUSH2 0xB9F JUMPI PUSH1 0x0 DUP1 REVERT JUMPDEST POP PUSH2 0x498 PUSH2 0xBAE CALLDATASIZE PUSH1 0x4 PUSH2 0x2A97 JUMP JUMPDEST PUSH2 0x215B JUMP JUMPDEST CALLVALUE DUP1 ISZERO PUSH2 0xBBF JUMPI PUSH1 0x0 DUP1 REVERT JUMPDEST POP PUSH2 0x4BA PUSH2 0xBCE CALLDATASIZE PUSH1 0x4 PUSH2 0x2A5D JUMP JUMPDEST PUSH2 0x219F JUMP JUMPDEST CALLVALUE DUP1 ISZERO PUSH2 0xBDF JUMPI PUSH1 0x0 DUP1 REVERT JUMPDEST POP PUSH2 0x4BA PUSH2 0xBEE CALLDATASIZE PUSH1 0x4 PUSH2 0x282E JUMP JUMPDEST PUSH2 0x220F JUMP JUMPDEST CALLVALUE DUP1 ISZERO PUSH2 0xBFF JUMPI PUSH1 0x0 DUP1 REVERT JUMPDEST POP PUSH2 0x498 PUSH2 0xC0E CALLDATASIZE PUSH1 0x4 PUSH2 0x2AB7 JUMP JUMPDEST PUSH2 0x2233 JUMP JUMPDEST CALLVALUE DUP1 ISZERO PUSH2 0xC1F JUMPI PUSH1 0x0 DUP1 REVERT JUMPDEST POP PUSH2 0x498 PUSH2 0xC2E CALLDATASIZE PUSH1 0x4 PUSH2 0x2AFF JUMP JUMPDEST PUSH2 0x22A6 JUMP JUMPDEST CALLVALUE DUP1 ISZERO PUSH2 0xC3F JUMPI PUSH1 0x0 DUP1 REVERT JUMPDEST POP PUSH2 0x4BA PUSH1 0x6 SLOAD DUP2 JUMP JUMPDEST CALLVALUE DUP1 ISZERO PUSH2 0xC55 JUMPI PUSH1 0x0 DUP1 REVERT JUMPDEST POP PUSH2 0x4BA PUSH1 0x1C SLOAD DUP2 JUMP JUMPDEST CALLVALUE DUP1 ISZERO PUSH2 0xC6B JUMPI PUSH1 0x0 DUP1 REVERT JUMPDEST POP PUSH2 0x498 PUSH2 0xC7A CALLDATASIZE PUSH1 0x4 PUSH2 0x2907 JUMP JUMPDEST PUSH2 0x23A7 JUMP JUMPDEST CALLVALUE DUP1 ISZERO PUSH2 0xC8B JUMPI PUSH1 0x0 DUP1 REVERT JUMPDEST POP PUSH1 0x20 SLOAD PUSH2 0x582 SWAP1 PUSH1 0x1 PUSH1 0x1 PUSH1 0xA0 SHL SUB AND DUP2 JUMP JUMPDEST CALLVALUE DUP1 ISZERO PUSH2 0xCAB JUMPI PUSH1 0x0 DUP1 REVERT JUMPDEST POP PUSH2 0x4BA PUSH2 0xCBA CALLDATASIZE PUSH1 0x4 PUSH2 0x282E JUMP JUMPDEST PUSH2 0x24E2 JUMP JUMPDEST CALLVALUE DUP1 ISZERO PUSH2 0xCCB JUMPI PUSH1 0x0 DUP1 REVERT JUMPDEST POP PUSH2 0x4BA PUSH2 0xCDA CALLDATASIZE PUSH1 0x4 PUSH2 0x282E JUMP JUMPDEST PUSH2 0x2506 JUMP JUMPDEST CALLVALUE DUP1 ISZERO PUSH2 0xCEB JUMPI PUSH1 0x0 DUP1 REVERT JUMPDEST POP PUSH1 0xE SLOAD PUSH2 0x582 SWAP1 PUSH1 0x1 PUSH1 0x1 PUSH1 0xA0 SHL SUB AND DUP2 JUMP JUMPDEST CALLVALUE DUP1 ISZERO PUSH2 0xD0B JUMPI PUSH1 0x0 DUP1 REVERT JUMPDEST POP PUSH1 0x2 SLOAD PUSH2 0x582 SWAP1 PUSH1 0x1 PUSH1 0x1 PUSH1 0xA0 SHL SUB AND DUP2 JUMP JUMPDEST CALLVALUE DUP1 ISZERO PUSH2 0xD2B JUMPI PUSH1 0x0 DUP1 REVERT JUMPDEST POP PUSH2 0x4BA PUSH2 0xD3A CALLDATASIZE PUSH1 0x4 PUSH2 0x282E JUMP JUMPDEST PUSH2 0x252A JUMP JUMPDEST CALLVALUE DUP1 ISZERO PUSH2 0xD4B JUMPI PUSH1 0x0 DUP1 REVERT JUMPDEST POP PUSH2 0x4BA PUSH2 0xD5A CALLDATASIZE PUSH1 0x4 PUSH2 0x282E JUMP JUMPDEST PUSH2 0x254E JUMP JUMPDEST CALLVALUE DUP1 ISZERO PUSH2 0xD6B JUMPI PUSH1 0x0 DUP1 REVERT JUMPDEST POP PUSH2 0x4BA PUSH1 0x10 SLOAD DUP2 JUMP JUMPDEST CALLVALUE DUP1 ISZERO PUSH2 0xD81 JUMPI PUSH1 0x0 DUP1 REVERT JUMPDEST POP PUSH2 0x498 PUSH2 0xD90 CALLDATASIZE PUSH1 0x4 PUSH2 0x282E JUMP JUMPDEST PUSH2 0x2572 JUMP JUMPDEST CALLVALUE DUP1 ISZERO PUSH2 0xDA1 JUMPI PUSH1 0x0 DUP1 REVERT JUMPDEST POP PUSH2 0x78C PUSH2 0xDB0 CALLDATASIZE PUSH1 0x4 PUSH2 0x282E JUMP JUMPDEST PUSH2 0x260D JUMP JUMPDEST CALLVALUE DUP1 ISZERO PUSH2 0xDC1 JUMPI PUSH1 0x0 DUP1 REVERT JUMPDEST POP PUSH1 0xA SLOAD PUSH2 0x582 SWAP1 PUSH1 0x1 PUSH1 0x1 PUSH1 0xA0 SHL SUB AND DUP2 JUMP JUMPDEST CALLVALUE DUP1 ISZERO PUSH2 0xDE1 JUMPI PUSH1 0x0 DUP1 REVERT JUMPDEST POP PUSH2 0x50D PUSH2 0xDF0 CALLDATASIZE PUSH1 0x4 PUSH2 0x282E JUMP JUMPDEST PUSH2 0x2630 JUMP JUMPDEST CALLVALUE DUP1 ISZERO PUSH2 0xE01 JUMPI PUSH1 0x0 DUP1 REVERT JUMPDEST POP PUSH1 0xA SLOAD PUSH1 0xE SLOAD PUSH1 0x12 SLOAD PUSH1 0x16 SLOAD PUSH1 0x1A SLOAD PUSH1 0x1D SLOAD PUSH1 0x20 DUP1 SLOAD PUSH1 0x40 DUP1 MLOAD PUSH1 0x1 PUSH1 0x1 PUSH1 0xA0 SHL SUB SWAP10 DUP11 AND DUP2 MSTORE SWAP8 DUP10 AND SWAP3 DUP9 ADD SWAP3 SWAP1 SWAP3 MSTORE SWAP5 DUP8 AND SWAP1 DUP7 ADD MSTORE SWAP2 DUP6 AND PUSH1 0x60 DUP6 ADD MSTORE DUP5 AND PUSH1 0x80 DUP5 ADD MSTORE DUP4 AND PUSH1 0xA0 DUP4 ADD MSTORE SWAP2 SWAP1 SWAP2 AND PUSH1 0xC0 DUP3 ADD MSTORE PUSH1 0xE0 ADD PUSH2 0x4C4 JUMP JUMPDEST PUSH1 0x0 SLOAD PUSH1 0x1 PUSH1 0x1 PUSH1 0xA0 SHL SUB AND CALLER EQ PUSH2 0xE94 JUMPI PUSH1 0x40 MLOAD PUSH3 0x461BCD PUSH1 0xE5 SHL DUP2 MSTORE PUSH1 0x4 ADD PUSH2 0xE8B SWAP1 PUSH2 0x2B34 JUMP JUMPDEST PUSH1 0x40 MLOAD DUP1 SWAP2 SUB SWAP1 REVERT JUMPDEST PUSH1 0x20 DUP1 SLOAD PUSH1 0x21 DUP1 SLOAD PUSH1 0x22 DUP1 SLOAD PUSH1 0x1 PUSH1 0x1 PUSH1 0xA0 SHL SUB DUP10 DUP2 AND PUSH1 0x1 PUSH1 0x1 PUSH1 0xA0 SHL SUB NOT DUP8 AND DUP2 OR SWAP1 SWAP8 SSTORE SWAP4 DUP9 SWAP1 SSTORE SWAP1 DUP7 SWAP1 SSTORE PUSH1 0x40 MLOAD SWAP3 SWAP1 SWAP4 AND SWAP4 SWAP1 SWAP3 SWAP2 PUSH1 0x0 DUP1 MLOAD PUSH1 0x20 PUSH2 0x3002 DUP4 CODECOPY DUP2 MLOAD SWAP2 MSTORE SWAP2 PUSH2 0xEF2 SWAP2 DUP7 SWAP2 DUP7 SWAP2 DUP7 SWAP2 SWAP1 DUP12 SWAP1 DUP12 SWAP1 PUSH2 0x2B69 JUMP JUMPDEST PUSH1 0x40 MLOAD DUP1 SWAP2 SUB SWAP1 LOG1 POP POP POP POP POP POP JUMP JUMPDEST PUSH1 0x0 DUP1 PUSH2 0xF0E DUP4 PUSH2 0x143E JUMP JUMPDEST PUSH2 0xF17 DUP5 PUSH2 0x1F1F JUMP JUMPDEST PUSH2 0xF21 SWAP2 SWAP1 PUSH2 0x2C18 JUMP JUMPDEST SWAP1 POP PUSH1 0x2 PUSH2 0xF2E DUP5 PUSH2 0xF49 JUMP JUMPDEST PUSH2 0xF38 SWAP2 SWAP1 PUSH2 0x2C30 JUMP JUMPDEST PUSH2 0xF42 SWAP1 DUP3 PUSH2 0x2C18 JUMP JUMPDEST SWAP4 SWAP3 POP POP POP JUMP JUMPDEST PUSH1 0x21 SLOAD PUSH1 0x1 SLOAD PUSH1 0x0 SWAP2 SWAP1 PUSH1 0x1 PUSH1 0xA0 SHL SWAP1 DIV PUSH1 0xFF AND DUP1 ISZERO PUSH2 0xF6D JUMPI POP PUSH2 0xF6D DUP4 PUSH2 0x267A JUMP JUMPDEST ISZERO PUSH2 0xF98 JUMPI PUSH2 0xF7E PUSH1 0x4 PUSH1 0xA PUSH2 0x2D36 JUMP JUMPDEST PUSH1 0x4 SLOAD PUSH2 0xF8B SWAP1 DUP4 PUSH2 0x2D42 JUMP JUMPDEST PUSH2 0xF95 SWAP2 SWAP1 PUSH2 0x2C30 JUMP JUMPDEST SWAP1 POP JUMPDEST PUSH1 0x5 SLOAD PUSH1 0xFF AND DUP1 ISZERO PUSH2 0x101C JUMPI POP PUSH1 0x1 PUSH1 0x0 SWAP1 SLOAD SWAP1 PUSH2 0x100 EXP SWAP1 DIV PUSH1 0x1 PUSH1 0x1 PUSH1 0xA0 SHL SUB AND PUSH1 0x1 PUSH1 0x1 PUSH1 0xA0 SHL SUB AND PUSH4 0xA13EC8D3 PUSH1 0x40 MLOAD DUP2 PUSH4 0xFFFFFFFF AND PUSH1 0xE0 SHL DUP2 MSTORE PUSH1 0x4 ADD PUSH1 0x20 PUSH1 0x40 MLOAD DUP1 DUP4 SUB DUP2 DUP7 GAS STATICCALL ISZERO DUP1 ISZERO PUSH2 0xFF8 JUMPI RETURNDATASIZE PUSH1 0x0 DUP1 RETURNDATACOPY RETURNDATASIZE PUSH1 0x0 REVERT JUMPDEST POP POP POP POP PUSH1 0x40 MLOAD RETURNDATASIZE PUSH1 0x1F NOT PUSH1 0x1F DUP3 ADD AND DUP3 ADD DUP1 PUSH1 0x40 MSTORE POP DUP2 ADD SWAP1 PUSH2 0x101C SWAP2 SWAP1 PUSH2 0x2D61 JUMP JUMPDEST ISZERO PUSH2 0x1044 JUMPI PUSH2 0x102D PUSH1 0x4 PUSH1 0xA PUSH2 0x2D36 JUMP JUMPDEST PUSH1 0x6 SLOAD PUSH2 0x103A SWAP1 DUP4 PUSH2 0x2D42 JUMP JUMPDEST PUSH2 0xF42 SWAP2 SWAP1 PUSH2 0x2C30 JUMP JUMPDEST SWAP3 SWAP2 POP POP JUMP JUMPDEST PUSH1 0x0 DUP1 PUSH1 0x0 DUP1 PUSH1 0x0 DUP1 PUSH1 0x0 PUSH2 0x105E DUP9 PUSH2 0x254E JUMP JUMPDEST PUSH2 0x1067 DUP10 PUSH2 0x2506 JUMP JUMPDEST PUSH2 0x1070 DUP11 PUSH2 0x1FEF JUMP JUMPDEST PUSH2 0x1079 DUP12 PUSH2 0x1C24 JUMP JUMPDEST PUSH2 0x1082 DUP13 PUSH2 0x1B70 JUMP JUMPDEST PUSH2 0x108B DUP14 PUSH2 0x1BE6 JUMP JUMPDEST PUSH2 0x1094 DUP15 PUSH2 0x14E3 JUMP JUMPDEST SWAP6 SWAP15 SWAP5 SWAP14 POP SWAP3 SWAP12 POP SWAP1 SWAP10 POP SWAP8 POP SWAP6 POP SWAP1 SWAP4 POP SWAP2 POP POP JUMP JUMPDEST PUSH1 0x0 SLOAD PUSH1 0x1 PUSH1 0x1 PUSH1 0xA0 SHL SUB AND CALLER EQ PUSH2 0x10D5 JUMPI PUSH1 0x40 MLOAD PUSH3 0x461BCD PUSH1 0xE5 SHL DUP2 MSTORE PUSH1 0x4 ADD PUSH2 0xE8B SWAP1 PUSH2 0x2B34 JUMP JUMPDEST PUSH1 0x40 MLOAD CALLER SWAP1 DUP3 ISZERO PUSH2 0x8FC MUL SWAP1 DUP4 SWAP1 PUSH1 0x0 DUP2 DUP2 DUP2 DUP6 DUP9 DUP9 CALL SWAP4 POP POP POP POP ISZERO DUP1 ISZERO PUSH2 0x1102 JUMPI RETURNDATASIZE PUSH1 0x0 DUP1 RETURNDATACOPY RETURNDATASIZE PUSH1 0x0 REVERT JUMPDEST POP POP JUMP JUMPDEST PUSH1 0x0 SLOAD PUSH1 0x1 PUSH1 0x1 PUSH1 0xA0 SHL SUB AND CALLER EQ PUSH2 0x1130 JUMPI PUSH1 0x40 MLOAD PUSH3 0x461BCD PUSH1 0xE5 SHL DUP2 MSTORE PUSH1 0x4 ADD PUSH2 0xE8B SWAP1 PUSH2 0x2B34 JUMP JUMPDEST PUSH1 0x0 PUSH1 0x15 DUP1 SLOAD PUSH2 0x113F SWAP1 PUSH2 0x2D7E JUMP JUMPDEST DUP1 PUSH1 0x1F ADD PUSH1 0x20 DUP1 SWAP2 DIV MUL PUSH1 0x20 ADD PUSH1 0x40 MLOAD SWAP1 DUP2 ADD PUSH1 0x40 MSTORE DUP1 SWAP3 SWAP2 SWAP1 DUP2 DUP2 MSTORE PUSH1 0x20 ADD DUP3 DUP1 SLOAD PUSH2 0x116B SWAP1 PUSH2 0x2D7E JUMP JUMPDEST DUP1 ISZERO PUSH2 0x11B8 JUMPI DUP1 PUSH1 0x1F LT PUSH2 0x118D JUMPI PUSH2 0x100 DUP1 DUP4 SLOAD DIV MUL DUP4 MSTORE SWAP2 PUSH1 0x20 ADD SWAP2 PUSH2 0x11B8 JUMP JUMPDEST DUP3 ADD SWAP2 SWAP1 PUSH1 0x0 MSTORE PUSH1 0x20 PUSH1 0x0 KECCAK256 SWAP1 JUMPDEST DUP2 SLOAD DUP2 MSTORE SWAP1 PUSH1 0x1 ADD SWAP1 PUSH1 0x20 ADD DUP1 DUP4 GT PUSH2 0x119B JUMPI DUP3 SWAP1 SUB PUSH1 0x1F AND DUP3 ADD SWAP2 JUMPDEST POP POP PUSH1 0x16 SLOAD PUSH1 0x17 SLOAD PUSH1 0x18 SLOAD DUP12 MLOAD SWAP7 SWAP8 POP PUSH1 0x1 PUSH1 0x1 PUSH1 0xA0 SHL SUB SWAP1 SWAP3 AND SWAP6 SWAP1 SWAP5 POP SWAP1 SWAP3 POP PUSH2 0x11EC SWAP2 POP PUSH1 0x15 SWAP1 PUSH1 0x20 DUP12 ADD SWAP1 PUSH2 0x274B JUMP JUMPDEST POP PUSH1 0x16 DUP1 SLOAD PUSH1 0x1 PUSH1 0x1 PUSH1 0xA0 SHL SUB NOT AND PUSH1 0x1 PUSH1 0x1 PUSH1 0xA0 SHL SUB DUP10 AND SWAP1 DUP2 OR SWAP1 SWAP2 SSTORE PUSH1 0x17 DUP8 SWAP1 SSTORE PUSH1 0x18 DUP7 SWAP1 SSTORE PUSH1 0x40 MLOAD PUSH1 0x0 DUP1 MLOAD PUSH1 0x20 PUSH2 0x3002 DUP4 CODECOPY DUP2 MLOAD SWAP2 MSTORE SWAP2 PUSH2 0x1241 SWAP2 DUP8 SWAP2 DUP8 SWAP2 DUP8 SWAP2 DUP8 SWAP2 PUSH1 0x15 SWAP2 SWAP1 DUP15 SWAP1 DUP15 SWAP1 PUSH2 0x2E59 JUMP JUMPDEST PUSH1 0x40 MLOAD DUP1 SWAP2 SUB SWAP1 LOG1 POP POP POP POP POP POP POP POP JUMP JUMPDEST PUSH1 0x15 DUP1 SLOAD PUSH2 0x1260 SWAP1 PUSH2 0x2D7E JUMP JUMPDEST DUP1 PUSH1 0x1F ADD PUSH1 0x20 DUP1 SWAP2 DIV MUL PUSH1 0x20 ADD PUSH1 0x40 MLOAD SWAP1 DUP2 ADD PUSH1 0x40 MSTORE DUP1 SWAP3 SWAP2 SWAP1 DUP2 DUP2 MSTORE PUSH1 0x20 ADD DUP3 DUP1 SLOAD PUSH2 0x128C SWAP1 PUSH2 0x2D7E JUMP JUMPDEST DUP1 ISZERO PUSH2 0x12D9 JUMPI DUP1 PUSH1 0x1F LT PUSH2 0x12AE JUMPI PUSH2 0x100 DUP1 DUP4 SLOAD DIV MUL DUP4 MSTORE SWAP2 PUSH1 0x20 ADD SWAP2 PUSH2 0x12D9 JUMP JUMPDEST DUP3 ADD SWAP2 SWAP1 PUSH1 0x0 MSTORE PUSH1 0x20 PUSH1 0x0 KECCAK256 SWAP1 JUMPDEST DUP2 SLOAD DUP2 MSTORE SWAP1 PUSH1 0x1 ADD SWAP1 PUSH1 0x20 ADD DUP1 DUP4 GT PUSH2 0x12BC JUMPI DUP3 SWAP1 SUB PUSH1 0x1F AND DUP3 ADD SWAP2 JUMPDEST POP POP POP POP POP DUP2 JUMP JUMPDEST PUSH1 0x8 SLOAD PUSH1 0x40 DUP1 MLOAD PUSH4 0xC45A0155 PUSH1 0xE0 SHL DUP2 MSTORE SWAP1 MLOAD PUSH1 0x0 SWAP3 PUSH1 0x1 PUSH1 0x1 PUSH1 0xA0 SHL SUB AND SWAP2 DUP4 SWAP2 DUP4 SWAP2 PUSH4 0xC45A0155 SWAP2 PUSH1 0x4 DUP1 DUP4 ADD SWAP3 PUSH1 0x20 SWAP3 SWAP2 SWAP1 DUP3 SWAP1 SUB ADD DUP2 DUP7 GAS STATICCALL ISZERO DUP1 ISZERO PUSH2 0x132F JUMPI RETURNDATASIZE PUSH1 0x0 DUP1 RETURNDATACOPY RETURNDATASIZE PUSH1 0x0 REVERT JUMPDEST POP POP POP POP PUSH1 0x40 MLOAD RETURNDATASIZE PUSH1 0x1F NOT PUSH1 0x1F DUP3 ADD AND DUP3 ADD DUP1 PUSH1 0x40 MSTORE POP DUP2 ADD SWAP1 PUSH2 0x1353 SWAP2 SWAP1 PUSH2 0x2EC0 JUMP JUMPDEST SWAP1 POP DUP1 PUSH1 0x1 PUSH1 0x1 PUSH1 0xA0 SHL SUB AND PUSH4 0xE6A43905 DUP4 PUSH1 0x1 PUSH1 0x1 PUSH1 0xA0 SHL SUB AND PUSH4 0xAD5C4648 PUSH1 0x40 MLOAD DUP2 PUSH4 0xFFFFFFFF AND PUSH1 0xE0 SHL DUP2 MSTORE PUSH1 0x4 ADD PUSH1 0x20 PUSH1 0x40 MLOAD DUP1 DUP4 SUB DUP2 DUP7 GAS STATICCALL ISZERO DUP1 ISZERO PUSH2 0x13A2 JUMPI RETURNDATASIZE PUSH1 0x0 DUP1 RETURNDATACOPY RETURNDATASIZE PUSH1 0x0 REVERT JUMPDEST POP POP POP POP PUSH1 0x40 MLOAD RETURNDATASIZE PUSH1 0x1F NOT PUSH1 0x1F DUP3 ADD AND DUP3 ADD DUP1 PUSH1 0x40 MSTORE POP DUP2 ADD SWAP1 PUSH2 0x13C6 SWAP2 SWAP1 PUSH2 0x2EC0 JUMP JUMPDEST PUSH1 0x40 MLOAD PUSH1 0x1 PUSH1 0x1 PUSH1 0xE0 SHL SUB NOT PUSH1 0xE0 DUP5 SWAP1 SHL AND DUP2 MSTORE PUSH1 0x1 PUSH1 0x1 PUSH1 0xA0 SHL SUB SWAP2 DUP3 AND PUSH1 0x4 DUP3 ADD MSTORE SWAP1 DUP8 AND PUSH1 0x24 DUP3 ADD MSTORE PUSH1 0x44 ADD PUSH1 0x20 PUSH1 0x40 MLOAD DUP1 DUP4 SUB DUP2 DUP7 GAS STATICCALL ISZERO DUP1 ISZERO PUSH2 0x1412 JUMPI RETURNDATASIZE PUSH1 0x0 DUP1 RETURNDATACOPY RETURNDATASIZE PUSH1 0x0 REVERT JUMPDEST POP POP POP POP PUSH1 0x40 MLOAD RETURNDATASIZE PUSH1 0x1F NOT PUSH1 0x1F DUP3 ADD AND DUP3 ADD DUP1 PUSH1 0x40 MSTORE POP DUP2 ADD SWAP1 PUSH2 0x1436 SWAP2 SWAP1 PUSH2 0x2EC0 JUMP JUMPDEST SWAP5 SWAP4 POP POP POP POP JUMP JUMPDEST PUSH1 0x1E SLOAD PUSH1 0x1 SLOAD PUSH1 0x0 SWAP2 SWAP1 PUSH1 0x1 PUSH1 0xA0 SHL SWAP1 DIV PUSH1 0xFF AND DUP1 ISZERO PUSH2 0xF6D JUMPI POP PUSH2 0xF6D DUP4 PUSH2 0x267A JUMP JUMPDEST PUSH1 0x0 DUP1 PUSH1 0x0 DUP1 PUSH2 0x1471 DUP6 PUSH2 0x12E1 JUMP JUMPDEST SWAP1 POP DUP1 PUSH1 0x1 PUSH1 0x1 PUSH1 0xA0 SHL SUB AND PUSH4 0x902F1AC PUSH1 0x40 MLOAD DUP2 PUSH4 0xFFFFFFFF AND PUSH1 0xE0 SHL DUP2 MSTORE PUSH1 0x4 ADD PUSH1 0x60 PUSH1 0x40 MLOAD DUP1 DUP4 SUB DUP2 DUP7 GAS STATICCALL ISZERO DUP1 ISZERO PUSH2 0x14B1 JUMPI RETURNDATASIZE PUSH1 0x0 DUP1 RETURNDATACOPY RETURNDATASIZE PUSH1 0x0 REVERT JUMPDEST POP POP POP POP PUSH1 0x40 MLOAD RETURNDATASIZE PUSH1 0x1F NOT PUSH1 0x1F DUP3 ADD AND DUP3 ADD DUP1 PUSH1 0x40 MSTORE POP DUP2 ADD SWAP1 PUSH2 0x14D5 SWAP2 SWAP1 PUSH2 0x2EF9 JUMP JUMPDEST SWAP4 POP SWAP4 POP SWAP4 POP POP SWAP2 SWAP4 SWAP1 SWAP3 POP JUMP JUMPDEST PUSH1 0x22 SLOAD PUSH1 0x1 SLOAD PUSH1 0x0 SWAP2 SWAP1 PUSH1 0x1 PUSH1 0xA0 SHL SWAP1 DIV PUSH1 0xFF AND DUP1 ISZERO PUSH2 0x1507 JUMPI POP PUSH2 0x1507 DUP4 PUSH2 0x267A JUMP JUMPDEST ISZERO PUSH2 0x1532 JUMPI PUSH2 0x1518 PUSH1 0x4 PUSH1 0xA PUSH2 0x2D36 JUMP JUMPDEST PUSH1 0x4 SLOAD PUSH2 0x1525 SWAP1 DUP4 PUSH2 0x2D42 JUMP JUMPDEST PUSH2 0x152F SWAP2 SWAP1 PUSH2 0x2C30 JUMP JUMPDEST SWAP1 POP JUMPDEST PUSH1 0x5 SLOAD PUSH1 0xFF AND DUP1 ISZERO PUSH2 0x15B6 JUMPI POP PUSH1 0x1 PUSH1 0x0 SWAP1 SLOAD SWAP1 PUSH2 0x100 EXP SWAP1 DIV PUSH1 0x1 PUSH1 0x1 PUSH1 0xA0 SHL SUB AND PUSH1 0x1 PUSH1 0x1 PUSH1 0xA0 SHL SUB AND PUSH4 0xA13EC8D3 PUSH1 0x40 MLOAD DUP2 PUSH4 0xFFFFFFFF AND PUSH1 0xE0 SHL DUP2 MSTORE PUSH1 0x4 ADD PUSH1 0x20 PUSH1 0x40 MLOAD DUP1 DUP4 SUB DUP2 DUP7 GAS STATICCALL ISZERO DUP1 ISZERO PUSH2 0x1592 JUMPI RETURNDATASIZE PUSH1 0x0 DUP1 RETURNDATACOPY RETURNDATASIZE PUSH1 0x0 REVERT JUMPDEST POP POP POP POP PUSH1 0x40 MLOAD RETURNDATASIZE PUSH1 0x1F NOT PUSH1 0x1F DUP3 ADD AND DUP3 ADD DUP1 PUSH1 0x40 MSTORE POP DUP2 ADD SWAP1 PUSH2 0x15B6 SWAP2 SWAP1 PUSH2 0x2D61 JUMP JUMPDEST ISZERO PUSH2 0x1044 JUMPI PUSH2 0x15C7 PUSH1 0x4 PUSH1 0xA PUSH2 0x2D36 JUMP JUMPDEST PUSH1 0x7 SLOAD PUSH2 0x103A SWAP1 DUP4 PUSH2 0x2D42 JUMP JUMPDEST PUSH1 0x0 SLOAD PUSH1 0x1 PUSH1 0x1 PUSH1 0xA0 SHL SUB AND CALLER EQ PUSH2 0x15FE JUMPI PUSH1 0x40 MLOAD PUSH3 0x461BCD PUSH1 0xE5 SHL DUP2 MSTORE PUSH1 0x4 ADD PUSH2 0xE8B SWAP1 PUSH2 0x2B34 JUMP JUMPDEST PUSH1 0x8 DUP1 SLOAD PUSH1 0x1 PUSH1 0x1 PUSH1 0xA0 SHL SUB DUP4 DUP2 AND PUSH1 0x1 PUSH1 0x1 PUSH1 0xA0 SHL SUB NOT DUP4 AND DUP2 OR SWAP1 SWAP4 SSTORE PUSH1 0x40 DUP1 MLOAD SWAP2 SWAP1 SWAP3 AND DUP1 DUP3 MSTORE PUSH1 0x20 DUP3 ADD SWAP4 SWAP1 SWAP4 MSTORE PUSH32 0x2DC5C233404867C793B749C6D644BEB2277536D18A7E7974D3F238E4C6F1684 SWAP2 ADD JUMPDEST PUSH1 0x40 MLOAD DUP1 SWAP2 SUB SWAP1 LOG1 POP POP JUMP JUMPDEST PUSH1 0x0 DUP1 PUSH2 0x166C DUP4 PUSH2 0x252A JUMP JUMPDEST PUSH1 0xE SLOAD SWAP1 SWAP5 PUSH1 0x1 PUSH1 0x1 PUSH1 0xA0 SHL SUB SWAP1 SWAP2 AND SWAP4 POP SWAP2 POP POP JUMP JUMPDEST PUSH1 0x60 DUP1 PUSH1 0x60 DUP1 PUSH1 0x60 DUP1 PUSH1 0x60 PUSH1 0x9 PUSH1 0xD PUSH1 0x11 PUSH1 0x15 PUSH1 0x19 DUP5 DUP1 SLOAD PUSH2 0x16A4 SWAP1 PUSH2 0x2D7E JUMP JUMPDEST DUP1 PUSH1 0x1F ADD PUSH1 0x20 DUP1 SWAP2 DIV MUL PUSH1 0x20 ADD PUSH1 0x40 MLOAD SWAP1 DUP2 ADD PUSH1 0x40 MSTORE DUP1 SWAP3 SWAP2 SWAP1 DUP2 DUP2 MSTORE PUSH1 0x20 ADD DUP3 DUP1 SLOAD PUSH2 0x16D0 SWAP1 PUSH2 0x2D7E JUMP JUMPDEST DUP1 ISZERO PUSH2 0x171D JUMPI DUP1 PUSH1 0x1F LT PUSH2 0x16F2 JUMPI PUSH2 0x100 DUP1 DUP4 SLOAD DIV MUL DUP4 MSTORE SWAP2 PUSH1 0x20 ADD SWAP2 PUSH2 0x171D JUMP JUMPDEST DUP3 ADD SWAP2 SWAP1 PUSH1 0x0 MSTORE PUSH1 0x20 PUSH1 0x0 KECCAK256 SWAP1 JUMPDEST DUP2 SLOAD DUP2 MSTORE SWAP1 PUSH1 0x1 ADD SWAP1 PUSH1 0x20 ADD DUP1 DUP4 GT PUSH2 0x1700 JUMPI DUP3 SWAP1 SUB PUSH1 0x1F AND DUP3 ADD SWAP2 JUMPDEST POP POP POP POP POP SWAP5 POP DUP4 DUP1 SLOAD PUSH2 0x1730 SWAP1 PUSH2 0x2D7E JUMP JUMPDEST DUP1 PUSH1 0x1F ADD PUSH1 0x20 DUP1 SWAP2 DIV MUL PUSH1 0x20 ADD PUSH1 0x40 MLOAD SWAP1 DUP2 ADD PUSH1 0x40 MSTORE DUP1 SWAP3 SWAP2 SWAP1 DUP2 DUP2 MSTORE PUSH1 0x20 ADD DUP3 DUP1 SLOAD PUSH2 0x175C SWAP1 PUSH2 0x2D7E JUMP JUMPDEST DUP1 ISZERO PUSH2 0x17A9 JUMPI DUP1 PUSH1 0x1F LT PUSH2 0x177E JUMPI PUSH2 0x100 DUP1 DUP4 SLOAD DIV MUL DUP4 MSTORE SWAP2 PUSH1 0x20 ADD SWAP2 PUSH2 0x17A9 JUMP JUMPDEST DUP3 ADD SWAP2 SWAP1 PUSH1 0x0 MSTORE PUSH1 0x20 PUSH1 0x0 KECCAK256 SWAP1 JUMPDEST DUP2 SLOAD DUP2 MSTORE SWAP1 PUSH1 0x1 ADD SWAP1 PUSH1 0x20 ADD DUP1 DUP4 GT PUSH2 0x178C JUMPI DUP3 SWAP1 SUB PUSH1 0x1F AND DUP3 ADD SWAP2 JUMPDEST POP POP POP POP POP SWAP4 POP DUP3 DUP1 SLOAD PUSH2 0x17BC SWAP1 PUSH2 0x2D7E JUMP JUMPDEST DUP1 PUSH1 0x1F ADD PUSH1 0x20 DUP1 SWAP2 DIV MUL PUSH1 0x20 ADD PUSH1 0x40 MLOAD SWAP1 DUP2 ADD PUSH1 0x40 MSTORE DUP1 SWAP3 SWAP2 SWAP1 DUP2 DUP2 MSTORE PUSH1 0x20 ADD DUP3 DUP1 SLOAD PUSH2 0x17E8 SWAP1 PUSH2 0x2D7E JUMP JUMPDEST DUP1 ISZERO PUSH2 0x1835 JUMPI DUP1 PUSH1 0x1F LT PUSH2 0x180A JUMPI PUSH2 0x100 DUP1 DUP4 SLOAD DIV MUL DUP4 MSTORE SWAP2 PUSH1 0x20 ADD SWAP2 PUSH2 0x1835 JUMP JUMPDEST DUP3 ADD SWAP2 SWAP1 PUSH1 0x0 MSTORE PUSH1 0x20 PUSH1 0x0 KECCAK256 SWAP1 JUMPDEST DUP2 SLOAD DUP2 MSTORE SWAP1 PUSH1 0x1 ADD SWAP1 PUSH1 0x20 ADD DUP1 DUP4 GT PUSH2 0x1818 JUMPI DUP3 SWAP1 SUB PUSH1 0x1F AND DUP3 ADD SWAP2 JUMPDEST POP POP POP POP POP SWAP3 POP DUP2 DUP1 SLOAD PUSH2 0x1848 SWAP1 PUSH2 0x2D7E JUMP JUMPDEST DUP1 PUSH1 0x1F ADD PUSH1 0x20 DUP1 SWAP2 DIV MUL PUSH1 0x20 ADD PUSH1 0x40 MLOAD SWAP1 DUP2 ADD PUSH1 0x40 MSTORE DUP1 SWAP3 SWAP2 SWAP1 DUP2 DUP2 MSTORE PUSH1 0x20 ADD DUP3 DUP1 SLOAD PUSH2 0x1874 SWAP1 PUSH2 0x2D7E JUMP JUMPDEST DUP1 ISZERO PUSH2 0x18C1 JUMPI DUP1 PUSH1 0x1F LT PUSH2 0x1896 JUMPI PUSH2 0x100 DUP1 DUP4 SLOAD DIV MUL DUP4 MSTORE SWAP2 PUSH1 0x20 ADD SWAP2 PUSH2 0x18C1 JUMP JUMPDEST DUP3 ADD SWAP2 SWAP1 PUSH1 0x0 MSTORE PUSH1 0x20 PUSH1 0x0 KECCAK256 SWAP1 JUMPDEST DUP2 SLOAD DUP2 MSTORE SWAP1 PUSH1 0x1 ADD SWAP1 PUSH1 0x20 ADD DUP1 DUP4 GT PUSH2 0x18A4 JUMPI DUP3 SWAP1 SUB PUSH1 0x1F AND DUP3 ADD SWAP2 JUMPDEST POP POP POP POP POP SWAP2 POP DUP1 DUP1 SLOAD PUSH2 0x18D4 SWAP1 PUSH2 0x2D7E JUMP JUMPDEST DUP1 PUSH1 0x1F ADD PUSH1 0x20 DUP1 SWAP2 DIV MUL PUSH1 0x20 ADD PUSH1 0x40 MLOAD SWAP1 DUP2 ADD PUSH1 0x40 MSTORE DUP1 SWAP3 SWAP2 SWAP1 DUP2 DUP2 MSTORE PUSH1 0x20 ADD DUP3 DUP1 SLOAD PUSH2 0x1900 SWAP1 PUSH2 0x2D7E JUMP JUMPDEST DUP1 ISZERO PUSH2 0x194D JUMPI DUP1 PUSH1 0x1F LT PUSH2 0x1922 JUMPI PUSH2 0x100 DUP1 DUP4 SLOAD DIV MUL DUP4 MSTORE SWAP2 PUSH1 0x20 ADD SWAP2 PUSH2 0x194D JUMP JUMPDEST DUP3 ADD SWAP2 SWAP1 PUSH1 0x0 MSTORE PUSH1 0x20 PUSH1 0x0 KECCAK256 SWAP1 JUMPDEST DUP2 SLOAD DUP2 MSTORE SWAP1 PUSH1 0x1 ADD SWAP1 PUSH1 0x20 ADD DUP1 DUP4 GT PUSH2 0x1930 JUMPI DUP3 SWAP1 SUB PUSH1 0x1F AND DUP3 ADD SWAP2 JUMPDEST POP POP POP POP POP SWAP1 POP PUSH1 0x40 MLOAD DUP1 PUSH1 0x40 ADD PUSH1 0x40 MSTORE DUP1 PUSH1 0x8 DUP2 MSTORE PUSH1 0x20 ADD PUSH8 0x84EAE4DC40A8C2F PUSH1 0xC3 SHL DUP2 MSTORE POP PUSH1 0x40 MLOAD DUP1 PUSH1 0x40 ADD PUSH1 0x40 MSTORE DUP1 PUSH1 0xD DUP2 MSTORE PUSH1 0x20 ADD PUSH13 0x98D2E2EAD2C8D2E8F240A8C2F PUSH1 0x9B SHL DUP2 MSTORE POP SWAP7 POP SWAP7 POP SWAP7 POP SWAP7 POP SWAP7 POP SWAP7 POP SWAP7 POP SWAP1 SWAP2 SWAP3 SWAP4 SWAP5 SWAP6 SWAP7 JUMP JUMPDEST PUSH1 0x9 DUP1 SLOAD PUSH2 0x1260 SWAP1 PUSH2 0x2D7E JUMP JUMPDEST PUSH1 0x0 SLOAD PUSH1 0x1 PUSH1 0x1 PUSH1 0xA0 SHL SUB AND CALLER EQ PUSH2 0x19E9 JUMPI PUSH1 0x40 MLOAD PUSH3 0x461BCD PUSH1 0xE5 SHL DUP2 MSTORE PUSH1 0x4 ADD PUSH2 0xE8B SWAP1 PUSH2 0x2B34 JUMP JUMPDEST PUSH1 0x40 MLOAD PUSH4 0x70A08231 PUSH1 0xE0 SHL DUP2 MSTORE ADDRESS PUSH1 0x4 DUP3 ADD MSTORE PUSH1 0x0 SWAP1 PUSH1 0x1 PUSH1 0x1 PUSH1 0xA0 SHL SUB DUP5 AND SWAP1 PUSH4 0x70A08231 SWAP1 PUSH1 0x24 ADD PUSH1 0x20 PUSH1 0x40 MLOAD DUP1 DUP4 SUB DUP2 DUP7 GAS STATICCALL ISZERO DUP1 ISZERO PUSH2 0x1A30 JUMPI RETURNDATASIZE PUSH1 0x0 DUP1 RETURNDATACOPY RETURNDATASIZE PUSH1 0x0 REVERT JUMPDEST POP POP POP POP PUSH1 0x40 MLOAD RETURNDATASIZE PUSH1 0x1F NOT PUSH1 0x1F DUP3 ADD AND DUP3 ADD DUP1 PUSH1 0x40 MSTORE POP DUP2 ADD SWAP1 PUSH2 0x1A54 SWAP2 SWAP1 PUSH2 0x2F49 JUMP JUMPDEST SWAP1 POP DUP2 DUP2 LT ISZERO PUSH2 0x1AA6 JUMPI PUSH1 0x40 MLOAD PUSH3 0x461BCD PUSH1 0xE5 SHL DUP2 MSTORE PUSH1 0x20 PUSH1 0x4 DUP3 ADD MSTORE PUSH1 0x1A PUSH1 0x24 DUP3 ADD MSTORE PUSH32 0x496E73756666696369656E7420746F6B656E2062616C616E6365000000000000 PUSH1 0x44 DUP3 ADD MSTORE PUSH1 0x64 ADD PUSH2 0xE8B JUMP JUMPDEST PUSH1 0x1 PUSH1 0x1 PUSH1 0xA0 SHL SUB DUP4 AND PUSH4 0xA9059CBB CALLER PUSH1 0x40 MLOAD PUSH1 0x1 PUSH1 0x1 PUSH1 0xE0 SHL SUB NOT PUSH1 0xE0 DUP5 SWAP1 SHL AND DUP2 MSTORE PUSH1 0x1 PUSH1 0x1 PUSH1 0xA0 SHL SUB SWAP1 SWAP2 AND PUSH1 0x4 DUP3 ADD MSTORE PUSH1 0x24 DUP2 ADD DUP6 SWAP1 MSTORE PUSH1 0x44 ADD PUSH1 0x20 PUSH1 0x40 MLOAD DUP1 DUP4 SUB DUP2 PUSH1 0x0 DUP8 GAS CALL ISZERO DUP1 ISZERO PUSH2 0x1B03 JUMPI RETURNDATASIZE PUSH1 0x0 DUP1 RETURNDATACOPY RETURNDATASIZE PUSH1 0x0 REVERT JUMPDEST POP POP POP POP PUSH1 0x40 MLOAD RETURNDATASIZE PUSH1 0x1F NOT PUSH1 0x1F DUP3 ADD AND DUP3 ADD DUP1 PUSH1 0x40 MSTORE POP DUP2 ADD SWAP1 PUSH2 0x1B27 SWAP2 SWAP1 PUSH2 0x2D61 JUMP JUMPDEST POP POP POP POP JUMP JUMPDEST PUSH1 0x11 DUP1 SLOAD PUSH2 0x1260 SWAP1 PUSH2 0x2D7E JUMP JUMPDEST PUSH1 0x0 SLOAD PUSH1 0x1 PUSH1 0x1 PUSH1 0xA0 SHL SUB AND CALLER EQ PUSH2 0x1B64 JUMPI PUSH1 0x40 MLOAD PUSH3 0x461BCD PUSH1 0xE5 SHL DUP2 MSTORE PUSH1 0x4 ADD PUSH2 0xE8B SWAP1 PUSH2 0x2B34 JUMP JUMPDEST PUSH2 0x1B6E PUSH1 0x0 PUSH2 0x26FB JUMP JUMPDEST JUMP JUMPDEST PUSH1 0x1C SLOAD PUSH1 0x1 SLOAD PUSH1 0x0 SWAP2 SWAP1 PUSH1 0x1 PUSH1 0xA0 SHL SWAP1 DIV PUSH1 0xFF AND DUP1 ISZERO PUSH2 0x1507 JUMPI POP PUSH2 0x1507 DUP4 PUSH2 0x267A JUMP JUMPDEST PUSH1 0x0 DUP1 PUSH2 0x1BA0 DUP4 PUSH2 0x1C24 JUMP JUMPDEST PUSH2 0x1BA9 DUP5 PUSH2 0x1FEF JUMP JUMPDEST PUSH2 0x1BB2 DUP6 PUSH2 0x2506 JUMP JUMPDEST PUSH2 0x1BBB DUP7 PUSH2 0x254E JUMP JUMPDEST PUSH2 0x1BC5 SWAP2 SWAP1 PUSH2 0x2C18 JUMP JUMPDEST PUSH2 0x1BCF SWAP2 SWAP1 PUSH2 0x2C18 JUMP JUMPDEST PUSH2 0x1BD9 SWAP2 SWAP1 PUSH2 0x2C18 JUMP JUMPDEST SWAP1 POP PUSH1 0x2 PUSH2 0xF2E DUP5 PUSH2 0x14E3 JUMP JUMPDEST PUSH1 0x1F SLOAD PUSH1 0x1 SLOAD PUSH1 0x0 SWAP2 SWAP1 PUSH1 0x1 PUSH1 0xA0 SHL SWAP1 DIV PUSH1 0xFF AND DUP1 ISZERO PUSH2 0x1507 JUMPI POP PUSH2 0x1507 DUP4 PUSH2 0x267A JUMP JUMPDEST PUSH1 0xD DUP1 SLOAD PUSH2 0x1260 SWAP1 PUSH2 0x2D7E JUMP JUMPDEST PUSH1 0x23 DUP1 SLOAD PUSH2 0x1260 SWAP1 PUSH2 0x2D7E JUMP JUMPDEST PUSH1 0x18 SLOAD PUSH1 0x1 SLOAD PUSH1 0x0 SWAP2 SWAP1 PUSH1 0x1 PUSH1 0xA0 SHL SWAP1 DIV PUSH1 0xFF AND DUP1 ISZERO PUSH2 0x1507 JUMPI POP PUSH2 0x1507 DUP4 PUSH2 0x267A JUMP JUMPDEST PUSH1 0x0 SLOAD PUSH1 0x1 PUSH1 0x1 PUSH1 0xA0 SHL SUB AND CALLER EQ PUSH2 0x1C72 JUMPI PUSH1 0x40 MLOAD PUSH3 0x461BCD PUSH1 0xE5 SHL DUP2 MSTORE PUSH1 0x4 ADD PUSH2 0xE8B SWAP1 PUSH2 0x2B34 JUMP JUMPDEST PUSH1 0x0 PUSH1 0xD DUP1 SLOAD PUSH2 0x1C81 SWAP1 PUSH2 0x2D7E JUMP JUMPDEST DUP1 PUSH1 0x1F ADD PUSH1 0x20 DUP1 SWAP2 DIV MUL PUSH1 0x20 ADD PUSH1 0x40 MLOAD SWAP1 DUP2 ADD PUSH1 0x40 MSTORE DUP1 SWAP3 SWAP2 SWAP1 DUP2 DUP2 MSTORE PUSH1 0x20 ADD DUP3 DUP1 SLOAD PUSH2 0x1CAD SWAP1 PUSH2 0x2D7E JUMP JUMPDEST DUP1 ISZERO PUSH2 0x1CFA JUMPI DUP1 PUSH1 0x1F LT PUSH2 0x1CCF JUMPI PUSH2 0x100 DUP1 DUP4 SLOAD DIV MUL DUP4 MSTORE SWAP2 PUSH1 0x20 ADD SWAP2 PUSH2 0x1CFA JUMP JUMPDEST DUP3 ADD SWAP2 SWAP1 PUSH1 0x0 MSTORE PUSH1 0x20 PUSH1 0x0 KECCAK256 SWAP1 JUMPDEST DUP2 SLOAD DUP2 MSTORE SWAP1 PUSH1 0x1 ADD SWAP1 PUSH1 0x20 ADD DUP1 DUP4 GT PUSH2 0x1CDD JUMPI DUP3 SWAP1 SUB PUSH1 0x1F AND DUP3 ADD SWAP2 JUMPDEST POP POP PUSH1 0xE SLOAD PUSH1 0xF SLOAD PUSH1 0x10 SLOAD DUP12 MLOAD SWAP7 SWAP8 POP PUSH1 0x1 PUSH1 0x1 PUSH1 0xA0 SHL SUB SWAP1 SWAP3 AND SWAP6 SWAP1 SWAP5 POP SWAP1 SWAP3 POP PUSH2 0x1D2E SWAP2 POP PUSH1 0xD SWAP1 PUSH1 0x20 DUP12 ADD SWAP1 PUSH2 0x274B JUMP JUMPDEST POP PUSH1 0xE DUP1 SLOAD PUSH1 0x1 PUSH1 0x1 PUSH1 0xA0 SHL SUB NOT AND PUSH1 0x1 PUSH1 0x1 PUSH1 0xA0 SHL SUB DUP10 AND SWAP1 DUP2 OR SWAP1 SWAP2 SSTORE PUSH1 0xF DUP8 SWAP1 SSTORE PUSH1 0x10 DUP7 SWAP1 SSTORE PUSH1 0x40 MLOAD PUSH1 0x0 DUP1 MLOAD PUSH1 0x20 PUSH2 0x3002 DUP4 CODECOPY DUP2 MLOAD SWAP2 MSTORE SWAP2 PUSH2 0x1241 SWAP2 DUP8 SWAP2 DUP8 SWAP2 DUP8 SWAP2 DUP8 SWAP2 PUSH1 0xD SWAP2 SWAP1 DUP15 SWAP1 DUP15 SWAP1 PUSH2 0x2E59 JUMP JUMPDEST PUSH1 0x0 DUP1 PUSH2 0x1D8F DUP4 PUSH2 0x1BE6 JUMP JUMPDEST PUSH2 0x1BCF DUP5 PUSH2 0x1B70 JUMP JUMPDEST PUSH1 0x0 SLOAD PUSH1 0x1 PUSH1 0x1 PUSH1 0xA0 SHL SUB AND CALLER EQ PUSH2 0x1DC2 JUMPI PUSH1 0x40 MLOAD PUSH3 0x461BCD PUSH1 0xE5 SHL DUP2 MSTORE PUSH1 0x4 ADD PUSH2 0xE8B SWAP1 PUSH2 0x2B34 JUMP JUMPDEST PUSH1 0x1 DUP1 SLOAD PUSH1 0x1 PUSH1 0x1 PUSH1 0xA0 SHL SUB NOT AND PUSH1 0x1 PUSH1 0x1 PUSH1 0xA0 SHL SUB SWAP3 SWAP1 SWAP3 AND SWAP2 SWAP1 SWAP2 OR SWAP1 SSTORE JUMP JUMPDEST PUSH1 0x0 SLOAD PUSH1 0x1 PUSH1 0x1 PUSH1 0xA0 SHL SUB AND CALLER EQ PUSH2 0x1E0E JUMPI PUSH1 0x40 MLOAD PUSH3 0x461BCD PUSH1 0xE5 SHL DUP2 MSTORE PUSH1 0x4 ADD PUSH2 0xE8B SWAP1 PUSH2 0x2B34 JUMP JUMPDEST PUSH1 0x0 PUSH1 0x9 DUP1 SLOAD PUSH2 0x1E1D SWAP1 PUSH2 0x2D7E JUMP JUMPDEST DUP1 PUSH1 0x1F ADD PUSH1 0x20 DUP1 SWAP2 DIV MUL PUSH1 0x20 ADD PUSH1 0x40 MLOAD SWAP1 DUP2 ADD PUSH1 0x40 MSTORE DUP1 SWAP3 SWAP2 SWAP1 DUP2 DUP2 MSTORE PUSH1 0x20 ADD DUP3 DUP1 SLOAD PUSH2 0x1E49 SWAP1 PUSH2 0x2D7E JUMP JUMPDEST DUP1 ISZERO PUSH2 0x1E96 JUMPI DUP1 PUSH1 0x1F LT PUSH2 0x1E6B JUMPI PUSH2 0x100 DUP1 DUP4 SLOAD DIV MUL DUP4 MSTORE SWAP2 PUSH1 0x20 ADD SWAP2 PUSH2 0x1E96 JUMP JUMPDEST DUP3 ADD SWAP2 SWAP1 PUSH1 0x0 MSTORE PUSH1 0x20 PUSH1 0x0 KECCAK256 SWAP1 JUMPDEST DUP2 SLOAD DUP2 MSTORE SWAP1 PUSH1 0x1 ADD SWAP1 PUSH1 0x20 ADD DUP1 DUP4 GT PUSH2 0x1E79 JUMPI DUP3 SWAP1 SUB PUSH1 0x1F AND DUP3 ADD SWAP2 JUMPDEST POP POP PUSH1 0xA SLOAD PUSH1 0xB SLOAD PUSH1 0xC SLOAD DUP12 MLOAD SWAP7 SWAP8 POP PUSH1 0x1 PUSH1 0x1 PUSH1 0xA0 SHL SUB SWAP1 SWAP3 AND SWAP6 SWAP1 SWAP5 POP SWAP1 SWAP3 POP PUSH2 0x1ECA SWAP2 POP PUSH1 0x9 SWAP1 PUSH1 0x20 DUP12 ADD SWAP1 PUSH2 0x274B JUMP JUMPDEST POP PUSH1 0xA DUP1 SLOAD PUSH1 0x1 PUSH1 0x1 PUSH1 0xA0 SHL SUB NOT AND PUSH1 0x1 PUSH1 0x1 PUSH1 0xA0 SHL SUB DUP10 AND SWAP1 DUP2 OR SWAP1 SWAP2 SSTORE PUSH1 0xB DUP8 SWAP1 SSTORE PUSH1 0xC DUP7 SWAP1 SSTORE PUSH1 0x40 MLOAD PUSH1 0x0 DUP1 MLOAD PUSH1 0x20 PUSH2 0x3002 DUP4 CODECOPY DUP2 MLOAD SWAP2 MSTORE SWAP2 PUSH2 0x1241 SWAP2 DUP8 SWAP2 DUP8 SWAP2 DUP8 SWAP2 DUP8 SWAP2 PUSH1 0x9 SWAP2 SWAP1 DUP15 SWAP1 DUP15 SWAP1 PUSH2 0x2E59 JUMP JUMPDEST PUSH1 0x1B SLOAD PUSH1 0x1 SLOAD PUSH1 0x0 SWAP2 SWAP1 PUSH1 0x1 PUSH1 0xA0 SHL SWAP1 DIV PUSH1 0xFF AND DUP1 ISZERO PUSH2 0xF6D JUMPI POP PUSH2 0xF6D DUP4 PUSH2 0x267A JUMP JUMPDEST PUSH1 0x13 SLOAD PUSH1 0x1 SLOAD PUSH1 0x0 SWAP2 SWAP1 PUSH1 0x1 PUSH1 0xA0 SHL SWAP1 DIV PUSH1 0xFF AND DUP1 ISZERO PUSH2 0xF6D JUMPI POP PUSH2 0xF6D DUP4 PUSH2 0x267A JUMP JUMPDEST PUSH1 0x0 SLOAD PUSH1 0x1 PUSH1 0x1 PUSH1 0xA0 SHL SUB AND CALLER EQ PUSH2 0x1F91 JUMPI PUSH1 0x40 MLOAD PUSH3 0x461BCD PUSH1 0xE5 SHL DUP2 MSTORE PUSH1 0x4 ADD PUSH2 0xE8B SWAP1 PUSH2 0x2B34 JUMP JUMPDEST PUSH1 0x1D DUP1 SLOAD PUSH1 0x1E DUP1 SLOAD PUSH1 0x1F DUP1 SLOAD PUSH1 0x1 PUSH1 0x1 PUSH1 0xA0 SHL SUB DUP10 DUP2 AND PUSH1 0x1 PUSH1 0x1 PUSH1 0xA0 SHL SUB NOT DUP8 AND DUP2 OR SWAP1 SWAP8 SSTORE SWAP4 DUP9 SWAP1 SSTORE SWAP1 DUP7 SWAP1 SSTORE PUSH1 0x40 MLOAD SWAP3 SWAP1 SWAP4 AND SWAP4 SWAP1 SWAP3 SWAP2 PUSH1 0x0 DUP1 MLOAD PUSH1 0x20 PUSH2 0x3002 DUP4 CODECOPY DUP2 MLOAD SWAP2 MSTORE SWAP2 PUSH2 0xEF2 SWAP2 DUP7 SWAP2 DUP7 SWAP2 DUP7 SWAP2 SWAP1 DUP12 SWAP1 DUP12 SWAP1 PUSH2 0x2F62 JUMP JUMPDEST PUSH1 0x14 SLOAD PUSH1 0x1 SLOAD PUSH1 0x0 SWAP2 SWAP1 PUSH1 0x1 PUSH1 0xA0 SHL SWAP1 DIV PUSH1 0xFF AND DUP1 ISZERO PUSH2 0x1507 JUMPI POP PUSH2 0x1507 DUP4 PUSH2 0x267A JUMP JUMPDEST PUSH1 0x19 DUP1 SLOAD PUSH2 0x1260 SWAP1 PUSH2 0x2D7E JUMP JUMPDEST PUSH1 0x0 SLOAD PUSH1 0x1 PUSH1 0x1 PUSH1 0xA0 SHL SUB AND CALLER EQ PUSH2 0x204A JUMPI PUSH1 0x40 MLOAD PUSH3 0x461BCD PUSH1 0xE5 SHL DUP2 MSTORE PUSH1 0x4 ADD PUSH2 0xE8B SWAP1 PUSH2 0x2B34 JUMP JUMPDEST PUSH1 0x0 PUSH1 0x19 DUP1 SLOAD PUSH2 0x2059 SWAP1 PUSH2 0x2D7E JUMP JUMPDEST DUP1 PUSH1 0x1F ADD PUSH1 0x20 DUP1 SWAP2 DIV MUL PUSH1 0x20 ADD PUSH1 0x40 MLOAD SWAP1 DUP2 ADD PUSH1 0x40 MSTORE DUP1 SWAP3 SWAP2 SWAP1 DUP2 DUP2 MSTORE PUSH1 0x20 ADD DUP3 DUP1 SLOAD PUSH2 0x2085 SWAP1 PUSH2 0x2D7E JUMP JUMPDEST DUP1 ISZERO PUSH2 0x20D2 JUMPI DUP1 PUSH1 0x1F LT PUSH2 0x20A7 JUMPI PUSH2 0x100 DUP1 DUP4 SLOAD DIV MUL DUP4 MSTORE SWAP2 PUSH1 0x20 ADD SWAP2 PUSH2 0x20D2 JUMP JUMPDEST DUP3 ADD SWAP2 SWAP1 PUSH1 0x0 MSTORE PUSH1 0x20 PUSH1 0x0 KECCAK256 SWAP1 JUMPDEST DUP2 SLOAD DUP2 MSTORE SWAP1 PUSH1 0x1 ADD SWAP1 PUSH1 0x20 ADD DUP1 DUP4 GT PUSH2 0x20B5 JUMPI DUP3 SWAP1 SUB PUSH1 0x1F AND DUP3 ADD SWAP2 JUMPDEST POP POP PUSH1 0x1A SLOAD PUSH1 0x1B SLOAD PUSH1 0x1C SLOAD DUP12 MLOAD SWAP7 SWAP8 POP PUSH1 0x1 PUSH1 0x1 PUSH1 0xA0 SHL SUB SWAP1 SWAP3 AND SWAP6 SWAP1 SWAP5 POP SWAP1 SWAP3 POP PUSH2 0x2106 SWAP2 POP PUSH1 0x19 SWAP1 PUSH1 0x20 DUP12 ADD SWAP1 PUSH2 0x274B JUMP JUMPDEST POP PUSH1 0x1A DUP1 SLOAD PUSH1 0x1 PUSH1 0x1 PUSH1 0xA0 SHL SUB NOT AND PUSH1 0x1 PUSH1 0x1 PUSH1 0xA0 SHL SUB DUP10 AND SWAP1 DUP2 OR SWAP1 SWAP2 SSTORE PUSH1 0x1B DUP8 SWAP1 SSTORE PUSH1 0x1C DUP7 SWAP1 SSTORE PUSH1 0x40 MLOAD PUSH1 0x0 DUP1 MLOAD PUSH1 0x20 PUSH2 0x3002 DUP4 CODECOPY DUP2 MLOAD SWAP2 MSTORE SWAP2 PUSH2 0x1241 SWAP2 DUP8 SWAP2 DUP8 SWAP2 DUP8 SWAP2 DUP8 SWAP2 PUSH1 0x19 SWAP2 SWAP1 DUP15 SWAP1 DUP15 SWAP1 PUSH2 0x2E59 JUMP JUMPDEST PUSH1 0x0 SLOAD PUSH1 0x1 PUSH1 0x1 PUSH1 0xA0 SHL SUB AND CALLER EQ PUSH2 0x2185 JUMPI PUSH1 0x40 MLOAD PUSH3 0x461BCD PUSH1 0xE5 SHL DUP2 MSTORE PUSH1 0x4 ADD PUSH2 0xE8B SWAP1 PUSH2 0x2B34 JUMP JUMPDEST PUSH1 0x5 DUP1 SLOAD PUSH1 0xFF NOT AND SWAP4 ISZERO ISZERO SWAP4 SWAP1 SWAP4 OR SWAP1 SWAP3 SSTORE PUSH1 0x6 SSTORE PUSH1 0x7 SSTORE JUMP JUMPDEST PUSH1 0x0 DUP1 PUSH2 0x21AB DUP5 PUSH2 0x24E2 JUMP JUMPDEST PUSH2 0x21B4 DUP6 PUSH2 0x1F43 JUMP JUMPDEST PUSH2 0x21BD DUP7 PUSH2 0x252A JUMP JUMPDEST PUSH2 0x21C6 DUP8 PUSH2 0x220F JUMP JUMPDEST PUSH2 0x21D0 SWAP2 SWAP1 PUSH2 0x2C18 JUMP JUMPDEST PUSH2 0x21DA SWAP2 SWAP1 PUSH2 0x2C18 JUMP JUMPDEST PUSH2 0x21E4 SWAP2 SWAP1 PUSH2 0x2C18 JUMP JUMPDEST SWAP1 POP PUSH1 0x2 PUSH2 0x21F1 DUP6 PUSH2 0xF49 JUMP JUMPDEST PUSH2 0x21FB SWAP2 SWAP1 PUSH2 0x2C30 JUMP JUMPDEST PUSH2 0x2205 DUP3 DUP6 PUSH2 0x2C18 JUMP JUMPDEST PUSH2 0x1436 SWAP2 SWAP1 PUSH2 0x2C18 JUMP JUMPDEST PUSH1 0xB SLOAD PUSH1 0x1 SLOAD PUSH1 0x0 SWAP2 SWAP1 PUSH1 0x1 PUSH1 0xA0 SHL SWAP1 DIV PUSH1 0xFF AND DUP1 ISZERO PUSH2 0xF6D JUMPI POP PUSH2 0xF6D DUP4 PUSH2 0x267A JUMP JUMPDEST PUSH1 0x0 SLOAD PUSH1 0x1 PUSH1 0x1 PUSH1 0xA0 SHL SUB AND CALLER EQ PUSH2 0x225D JUMPI PUSH1 0x40 MLOAD PUSH3 0x461BCD PUSH1 0xE5 SHL DUP2 MSTORE PUSH1 0x4 ADD PUSH2 0xE8B SWAP1 PUSH2 0x2B34 JUMP JUMPDEST PUSH1 0x1 DUP1 SLOAD SWAP5 ISZERO ISZERO PUSH1 0x1 PUSH1 0xA0 SHL MUL PUSH1 0xFF PUSH1 0xA0 SHL NOT SWAP1 SWAP6 AND SWAP5 SWAP1 SWAP5 OR SWAP1 SWAP4 SSTORE PUSH1 0x2 DUP1 SLOAD PUSH1 0x1 PUSH1 0x1 PUSH1 0xA0 SHL SUB SWAP1 SWAP3 AND PUSH1 0x1 PUSH1 0x1 PUSH1 0xA0 SHL SUB NOT SWAP1 SWAP3 AND SWAP2 SWAP1 SWAP2 OR SWAP1 SSTORE PUSH1 0x3 SWAP2 SWAP1 SWAP2 SSTORE PUSH1 0x4 SSTORE JUMP JUMPDEST PUSH1 0x0 SLOAD PUSH1 0x1 PUSH1 0x1 PUSH1 0xA0 SHL SUB AND CALLER EQ PUSH2 0x22D0 JUMPI PUSH1 0x40 MLOAD PUSH3 0x461BCD PUSH1 0xE5 SHL DUP2 MSTORE PUSH1 0x4 ADD PUSH2 0xE8B SWAP1 PUSH2 0x2B34 JUMP JUMPDEST PUSH1 0x0 PUSH1 0x23 DUP1 SLOAD PUSH2 0x22DF SWAP1 PUSH2 0x2D7E JUMP JUMPDEST DUP1 PUSH1 0x1F ADD PUSH1 0x20 DUP1 SWAP2 DIV MUL PUSH1 0x20 ADD PUSH1 0x40 MLOAD SWAP1 DUP2 ADD PUSH1 0x40 MSTORE DUP1 SWAP3 SWAP2 SWAP1 DUP2 DUP2 MSTORE PUSH1 0x20 ADD DUP3 DUP1 SLOAD PUSH2 0x230B SWAP1 PUSH2 0x2D7E JUMP JUMPDEST DUP1 ISZERO PUSH2 0x2358 JUMPI DUP1 PUSH1 0x1F LT PUSH2 0x232D JUMPI PUSH2 0x100 DUP1 DUP4 SLOAD DIV MUL DUP4 MSTORE SWAP2 PUSH1 0x20 ADD SWAP2 PUSH2 0x2358 JUMP JUMPDEST DUP3 ADD SWAP2 SWAP1 PUSH1 0x0 MSTORE PUSH1 0x20 PUSH1 0x0 KECCAK256 SWAP1 JUMPDEST DUP2 SLOAD DUP2 MSTORE SWAP1 PUSH1 0x1 ADD SWAP1 PUSH1 0x20 ADD DUP1 DUP4 GT PUSH2 0x233B JUMPI DUP3 SWAP1 SUB PUSH1 0x1F AND DUP3 ADD SWAP2 JUMPDEST POP POP DUP6 MLOAD SWAP4 SWAP5 POP PUSH2 0x2374 SWAP4 PUSH1 0x23 SWAP4 POP PUSH1 0x20 DUP8 ADD SWAP3 POP SWAP1 POP PUSH2 0x274B JUMP JUMPDEST POP PUSH32 0xF1B71DB64E8D2411035C219AF08906744C6341D677DA5FC7C9F08DC7BD1A9A69 DUP2 PUSH1 0x23 PUSH1 0x40 MLOAD PUSH2 0x1654 SWAP3 SWAP2 SWAP1 PUSH2 0x2FD3 JUMP JUMPDEST PUSH1 0x0 SLOAD PUSH1 0x1 PUSH1 0x1 PUSH1 0xA0 SHL SUB AND CALLER EQ PUSH2 0x23D1 JUMPI PUSH1 0x40 MLOAD PUSH3 0x461BCD PUSH1 0xE5 SHL DUP2 MSTORE PUSH1 0x4 ADD PUSH2 0xE8B SWAP1 PUSH2 0x2B34 JUMP JUMPDEST PUSH1 0x0 PUSH1 0x11 DUP1 SLOAD PUSH2 0x23E0 SWAP1 PUSH2 0x2D7E JUMP JUMPDEST DUP1 PUSH1 0x1F ADD PUSH1 0x20 DUP1 SWAP2 DIV MUL PUSH1 0x20 ADD PUSH1 0x40 MLOAD SWAP1 DUP2 ADD PUSH1 0x40 MSTORE DUP1 SWAP3 SWAP2 SWAP1 DUP2 DUP2 MSTORE PUSH1 0x20 ADD DUP3 DUP1 SLOAD PUSH2 0x240C SWAP1 PUSH2 0x2D7E JUMP JUMPDEST DUP1 ISZERO PUSH2 0x2459 JUMPI DUP1 PUSH1 0x1F LT PUSH2 0x242E JUMPI PUSH2 0x100 DUP1 DUP4 SLOAD DIV MUL DUP4 MSTORE SWAP2 PUSH1 0x20 ADD SWAP2 PUSH2 0x2459 JUMP JUMPDEST DUP3 ADD SWAP2 SWAP1 PUSH1 0x0 MSTORE PUSH1 0x20 PUSH1 0x0 KECCAK256 SWAP1 JUMPDEST DUP2 SLOAD DUP2 MSTORE SWAP1 PUSH1 0x1 ADD SWAP1 PUSH1 0x20 ADD DUP1 DUP4 GT PUSH2 0x243C JUMPI DUP3 SWAP1 SUB PUSH1 0x1F AND DUP3 ADD SWAP2 JUMPDEST POP POP PUSH1 0x12 SLOAD PUSH1 0x13 SLOAD PUSH1 0x14 SLOAD DUP12 MLOAD SWAP7 SWAP8 POP PUSH1 0x1 PUSH1 0x1 PUSH1 0xA0 SHL SUB SWAP1 SWAP3 AND SWAP6 SWAP1 SWAP5 POP SWAP1 SWAP3 POP PUSH2 0x248D SWAP2 POP PUSH1 0x11 SWAP1 PUSH1 0x20 DUP12 ADD SWAP1 PUSH2 0x274B JUMP JUMPDEST POP PUSH1 0x12 DUP1 SLOAD PUSH1 0x1 PUSH1 0x1 PUSH1 0xA0 SHL SUB NOT AND PUSH1 0x1 PUSH1 0x1 PUSH1 0xA0 SHL SUB DUP10 AND SWAP1 DUP2 OR SWAP1 SWAP2 SSTORE PUSH1 0x13 DUP8 SWAP1 SSTORE PUSH1 0x14 DUP7 SWAP1 SSTORE PUSH1 0x40 MLOAD PUSH1 0x0 DUP1 MLOAD PUSH1 0x20 PUSH2 0x3002 DUP4 CODECOPY DUP2 MLOAD SWAP2 MSTORE SWAP2 PUSH2 0x1241 SWAP2 DUP8 SWAP2 DUP8 SWAP2 DUP8 SWAP2 DUP8 SWAP2 PUSH1 0x11 SWAP2 SWAP1 DUP15 SWAP1 DUP15 SWAP1 PUSH2 0x2E59 JUMP JUMPDEST PUSH1 0x17 SLOAD PUSH1 0x1 SLOAD PUSH1 0x0 SWAP2 SWAP1 PUSH1 0x1 PUSH1 0xA0 SHL SWAP1 DIV PUSH1 0xFF AND DUP1 ISZERO PUSH2 0xF6D JUMPI POP PUSH2 0xF6D DUP4 PUSH2 0x267A JUMP JUMPDEST PUSH1 0x10 SLOAD PUSH1 0x1 SLOAD PUSH1 0x0 SWAP2 SWAP1 PUSH1 0x1 PUSH1 0xA0 SHL SWAP1 DIV PUSH1 0xFF AND DUP1 ISZERO PUSH2 0x1507 JUMPI POP PUSH2 0x1507 DUP4 PUSH2 0x267A JUMP JUMPDEST PUSH1 0xF SLOAD PUSH1 0x1 SLOAD PUSH1 0x0 SWAP2 SWAP1 PUSH1 0x1 PUSH1 0xA0 SHL SWAP1 DIV PUSH1 0xFF AND DUP1 ISZERO PUSH2 0xF6D JUMPI POP PUSH2 0xF6D DUP4 PUSH2 0x267A JUMP JUMPDEST PUSH1 0xC SLOAD PUSH1 0x1 SLOAD PUSH1 0x0 SWAP2 SWAP1 PUSH1 0x1 PUSH1 0xA0 SHL SWAP1 DIV PUSH1 0xFF AND DUP1 ISZERO PUSH2 0x1507 JUMPI POP PUSH2 0x1507 DUP4 PUSH2 0x267A JUMP JUMPDEST PUSH1 0x0 SLOAD PUSH1 0x1 PUSH1 0x1 PUSH1 0xA0 SHL SUB AND CALLER EQ PUSH2 0x259C JUMPI PUSH1 0x40 MLOAD PUSH3 0x461BCD PUSH1 0xE5 SHL DUP2 MSTORE PUSH1 0x4 ADD PUSH2 0xE8B SWAP1 PUSH2 0x2B34 JUMP JUMPDEST PUSH1 0x1 PUSH1 0x1 PUSH1 0xA0 SHL SUB DUP2 AND PUSH2 0x2601 JUMPI PUSH1 0x40 MLOAD PUSH3 0x461BCD PUSH1 0xE5 SHL DUP2 MSTORE PUSH1 0x20 PUSH1 0x4 DUP3 ADD MSTORE PUSH1 0x26 PUSH1 0x24 DUP3 ADD MSTORE PUSH32 0x4F776E61626C653A206E6577206F776E657220697320746865207A65726F2061 PUSH1 0x44 DUP3 ADD MSTORE PUSH6 0x646472657373 PUSH1 0xD0 SHL PUSH1 0x64 DUP3 ADD MSTORE PUSH1 0x84 ADD PUSH2 0xE8B JUMP JUMPDEST PUSH2 0x260A DUP2 PUSH2 0x26FB JUMP JUMPDEST POP JUMP JUMPDEST PUSH1 0x0 DUP1 PUSH2 0x2619 DUP4 PUSH2 0x220F JUMP JUMPDEST PUSH1 0xA SLOAD SWAP1 SWAP5 PUSH1 0x1 PUSH1 0x1 PUSH1 0xA0 SHL SUB SWAP1 SWAP2 AND SWAP4 POP SWAP2 POP POP JUMP JUMPDEST PUSH1 0x0 DUP1 PUSH1 0x0 DUP1 PUSH1 0x0 DUP1 PUSH1 0x0 PUSH2 0x2644 DUP9 PUSH2 0x220F JUMP JUMPDEST PUSH2 0x264D DUP10 PUSH2 0x252A JUMP JUMPDEST PUSH2 0x2656 DUP11 PUSH2 0x1F43 JUMP JUMPDEST PUSH2 0x265F DUP12 PUSH2 0x24E2 JUMP JUMPDEST PUSH2 0x2668 DUP13 PUSH2 0x1F1F JUMP JUMPDEST PUSH2 0x2671 DUP14 PUSH2 0x143E JUMP JUMPDEST PUSH2 0x1094 DUP15 PUSH2 0xF49 JUMP JUMPDEST PUSH1 0x2 SLOAD PUSH1 0x3 SLOAD PUSH1 0x40 MLOAD PUSH3 0x7EEAC7 PUSH1 0xE1 SHL DUP2 MSTORE PUSH1 0x1 PUSH1 0x1 PUSH1 0xA0 SHL SUB DUP5 DUP2 AND PUSH1 0x4 DUP4 ADD MSTORE PUSH1 0x24 DUP3 ADD SWAP3 SWAP1 SWAP3 MSTORE PUSH1 0x0 SWAP3 DUP4 SWAP3 AND SWAP1 PUSH3 0xFDD58E SWAP1 PUSH1 0x44 ADD PUSH1 0x20 PUSH1 0x40 MLOAD DUP1 DUP4 SUB DUP2 DUP7 GAS STATICCALL ISZERO DUP1 ISZERO PUSH2 0x26D0 JUMPI RETURNDATASIZE PUSH1 0x0 DUP1 RETURNDATACOPY RETURNDATASIZE PUSH1 0x0 REVERT JUMPDEST POP POP POP POP PUSH1 0x40 MLOAD RETURNDATASIZE PUSH1 0x1F NOT PUSH1 0x1F DUP3 ADD AND DUP3 ADD DUP1 PUSH1 0x40 MSTORE POP DUP2 ADD SWAP1 PUSH2 0x26F4 SWAP2 SWAP1 PUSH2 0x2F49 JUMP JUMPDEST GT SWAP3 SWAP2 POP POP JUMP JUMPDEST PUSH1 0x0 DUP1 SLOAD PUSH1 0x1 PUSH1 0x1 PUSH1 0xA0 SHL SUB DUP4 DUP2 AND PUSH1 0x1 PUSH1 0x1 PUSH1 0xA0 SHL SUB NOT DUP4 AND DUP2 OR DUP5 SSTORE PUSH1 0x40 MLOAD SWAP2 SWAP1 SWAP3 AND SWAP3 DUP4 SWAP2 PUSH32 0x8BE0079C531659141344CD1FD0A4F28419497F9722A3DAAFE3B4186F6B6457E0 SWAP2 SWAP1 LOG3 POP POP JUMP JUMPDEST DUP3 DUP1 SLOAD PUSH2 0x2757 SWAP1 PUSH2 0x2D7E JUMP JUMPDEST SWAP1 PUSH1 0x0 MSTORE PUSH1 0x20 PUSH1 0x0 KECCAK256 SWAP1 PUSH1 0x1F ADD PUSH1 0x20 SWAP1 DIV DUP2 ADD SWAP3 DUP3 PUSH2 0x2779 JUMPI PUSH1 0x0 DUP6 SSTORE PUSH2 0x27BF JUMP JUMPDEST DUP3 PUSH1 0x1F LT PUSH2 0x2792 JUMPI DUP1 MLOAD PUSH1 0xFF NOT AND DUP4 DUP1 ADD OR DUP6 SSTORE PUSH2 0x27BF JUMP JUMPDEST DUP3 DUP1 ADD PUSH1 0x1 ADD DUP6 SSTORE DUP3 ISZERO PUSH2 0x27BF JUMPI SWAP2 DUP3 ADD JUMPDEST DUP3 DUP2 GT ISZERO PUSH2 0x27BF JUMPI DUP3 MLOAD DUP3 SSTORE SWAP2 PUSH1 0x20 ADD SWAP2 SWAP1 PUSH1 0x1 ADD SWAP1 PUSH2 0x27A4 JUMP JUMPDEST POP PUSH2 0x27CB SWAP3 SWAP2 POP PUSH2 0x27CF JUMP JUMPDEST POP SWAP1 JUMP JUMPDEST JUMPDEST DUP1 DUP3 GT ISZERO PUSH2 0x27CB JUMPI PUSH1 0x0 DUP2 SSTORE PUSH1 0x1 ADD PUSH2 0x27D0 JUMP JUMPDEST PUSH1 0x1 PUSH1 0x1 PUSH1 0xA0 SHL SUB DUP2 AND DUP2 EQ PUSH2 0x260A JUMPI PUSH1 0x0 DUP1 REVERT JUMPDEST PUSH1 0x0 DUP1 PUSH1 0x0 PUSH1 0x60 DUP5 DUP7 SUB SLT ISZERO PUSH2 0x280E JUMPI PUSH1 0x0 DUP1 REVERT JUMPDEST DUP4 CALLDATALOAD PUSH2 0x2819 DUP2 PUSH2 0x27E4 JUMP JUMPDEST SWAP6 PUSH1 0x20 DUP6 ADD CALLDATALOAD SWAP6 POP PUSH1 0x40 SWAP1 SWAP5 ADD CALLDATALOAD SWAP4 SWAP3 POP POP POP JUMP JUMPDEST PUSH1 0x0 PUSH1 0x20 DUP3 DUP5 SUB SLT ISZERO PUSH2 0x2840 JUMPI PUSH1 0x0 DUP1 REVERT JUMPDEST DUP2 CALLDATALOAD PUSH2 0xF42 DUP2 PUSH2 0x27E4 JUMP JUMPDEST PUSH1 0x0 PUSH1 0x20 DUP3 DUP5 SUB SLT ISZERO PUSH2 0x285D JUMPI PUSH1 0x0 DUP1 REVERT JUMPDEST POP CALLDATALOAD SWAP2 SWAP1 POP JUMP JUMPDEST PUSH4 0x4E487B71 PUSH1 0xE0 SHL PUSH1 0x0 MSTORE PUSH1 0x41 PUSH1 0x4 MSTORE PUSH1 0x24 PUSH1 0x0 REVERT JUMPDEST PUSH1 0x0 DUP3 PUSH1 0x1F DUP4 ADD SLT PUSH2 0x288B JUMPI PUSH1 0x0 DUP1 REVERT JUMPDEST DUP2 CALLDATALOAD PUSH8 0xFFFFFFFFFFFFFFFF DUP1 DUP3 GT ISZERO PUSH2 0x28A6 JUMPI PUSH2 0x28A6 PUSH2 0x2864 JUMP JUMPDEST PUSH1 0x40 MLOAD PUSH1 0x1F DUP4 ADD PUSH1 0x1F NOT SWAP1 DUP2 AND PUSH1 0x3F ADD AND DUP2 ADD SWAP1 DUP3 DUP3 GT DUP2 DUP4 LT OR ISZERO PUSH2 0x28CE JUMPI PUSH2 0x28CE PUSH2 0x2864 JUMP JUMPDEST DUP2 PUSH1 0x40 MSTORE DUP4 DUP2 MSTORE DUP7 PUSH1 0x20 DUP6 DUP9 ADD ADD GT ISZERO PUSH2 0x28E7 JUMPI PUSH1 0x0 DUP1 REVERT JUMPDEST DUP4 PUSH1 0x20 DUP8 ADD PUSH1 0x20 DUP4 ADD CALLDATACOPY PUSH1 0x0 PUSH1 0x20 DUP6 DUP4 ADD ADD MSTORE DUP1 SWAP5 POP POP POP POP POP SWAP3 SWAP2 POP POP JUMP JUMPDEST PUSH1 0x0 DUP1 PUSH1 0x0 DUP1 PUSH1 0x80 DUP6 DUP8 SUB SLT ISZERO PUSH2 0x291D JUMPI PUSH1 0x0 DUP1 REVERT JUMPDEST DUP5 CALLDATALOAD PUSH8 0xFFFFFFFFFFFFFFFF DUP2 GT ISZERO PUSH2 0x2934 JUMPI PUSH1 0x0 DUP1 REVERT JUMPDEST PUSH2 0x2940 DUP8 DUP3 DUP9 ADD PUSH2 0x287A JUMP JUMPDEST SWAP5 POP POP PUSH1 0x20 DUP6 ADD CALLDATALOAD PUSH2 0x2951 DUP2 PUSH2 0x27E4 JUMP JUMPDEST SWAP4 SWAP7 SWAP4 SWAP6 POP POP POP POP PUSH1 0x40 DUP3 ADD CALLDATALOAD SWAP2 PUSH1 0x60 ADD CALLDATALOAD SWAP1 JUMP JUMPDEST PUSH1 0x0 DUP2 MLOAD DUP1 DUP5 MSTORE PUSH1 0x0 JUMPDEST DUP2 DUP2 LT ISZERO PUSH2 0x298C JUMPI PUSH1 0x20 DUP2 DUP6 ADD DUP2 ADD MLOAD DUP7 DUP4 ADD DUP3 ADD MSTORE ADD PUSH2 0x2970 JUMP JUMPDEST DUP2 DUP2 GT ISZERO PUSH2 0x299E JUMPI PUSH1 0x0 PUSH1 0x20 DUP4 DUP8 ADD ADD MSTORE JUMPDEST POP PUSH1 0x1F ADD PUSH1 0x1F NOT AND SWAP3 SWAP1 SWAP3 ADD PUSH1 0x20 ADD SWAP3 SWAP2 POP POP JUMP JUMPDEST PUSH1 0x20 DUP2 MSTORE PUSH1 0x0 PUSH2 0xF42 PUSH1 0x20 DUP4 ADD DUP5 PUSH2 0x2966 JUMP JUMPDEST PUSH1 0xE0 DUP2 MSTORE PUSH1 0x0 PUSH2 0x29D9 PUSH1 0xE0 DUP4 ADD DUP11 PUSH2 0x2966 JUMP JUMPDEST DUP3 DUP2 SUB PUSH1 0x20 DUP5 ADD MSTORE PUSH2 0x29EB DUP2 DUP11 PUSH2 0x2966 JUMP JUMPDEST SWAP1 POP DUP3 DUP2 SUB PUSH1 0x40 DUP5 ADD MSTORE PUSH2 0x29FF DUP2 DUP10 PUSH2 0x2966 JUMP JUMPDEST SWAP1 POP DUP3 DUP2 SUB PUSH1 0x60 DUP5 ADD MSTORE PUSH2 0x2A13 DUP2 DUP9 PUSH2 0x2966 JUMP JUMPDEST SWAP1 POP DUP3 DUP2 SUB PUSH1 0x80 DUP5 ADD MSTORE PUSH2 0x2A27 DUP2 DUP8 PUSH2 0x2966 JUMP JUMPDEST SWAP1 POP DUP3 DUP2 SUB PUSH1 0xA0 DUP5 ADD MSTORE PUSH2 0x2A3B DUP2 DUP7 PUSH2 0x2966 JUMP JUMPDEST SWAP1 POP DUP3 DUP2 SUB PUSH1 0xC0 DUP5 ADD MSTORE PUSH2 0x2A4F DUP2 DUP6 PUSH2 0x2966 JUMP JUMPDEST SWAP11 SWAP10 POP POP POP POP POP POP POP POP POP POP JUMP JUMPDEST PUSH1 0x0 DUP1 PUSH1 0x40 DUP4 DUP6 SUB SLT ISZERO PUSH2 0x2A70 JUMPI PUSH1 0x0 DUP1 REVERT JUMPDEST DUP3 CALLDATALOAD PUSH2 0x2A7B DUP2 PUSH2 0x27E4 JUMP JUMPDEST SWAP5 PUSH1 0x20 SWAP4 SWAP1 SWAP4 ADD CALLDATALOAD SWAP4 POP POP POP JUMP JUMPDEST DUP1 ISZERO ISZERO DUP2 EQ PUSH2 0x260A JUMPI PUSH1 0x0 DUP1 REVERT JUMPDEST PUSH1 0x0 DUP1 PUSH1 0x0 PUSH1 0x60 DUP5 DUP7 SUB SLT ISZERO PUSH2 0x2AAC JUMPI PUSH1 0x0 DUP1 REVERT JUMPDEST DUP4 CALLDATALOAD PUSH2 0x2819 DUP2 PUSH2 0x2A89 JUMP JUMPDEST PUSH1 0x0 DUP1 PUSH1 0x0 DUP1 PUSH1 0x80 DUP6 DUP8 SUB SLT ISZERO PUSH2 0x2ACD JUMPI PUSH1 0x0 DUP1 REVERT JUMPDEST DUP5 CALLDATALOAD PUSH2 0x2AD8 DUP2 PUSH2 0x2A89 JUMP JUMPDEST SWAP4 POP PUSH1 0x20 DUP6 ADD CALLDATALOAD SWAP3 POP PUSH1 0x40 DUP6 ADD CALLDATALOAD PUSH2 0x2AEF DUP2 PUSH2 0x27E4 JUMP JUMPDEST SWAP4 SWAP7 SWAP3 SWAP6 POP SWAP3 SWAP4 PUSH1 0x60 ADD CALLDATALOAD SWAP3 POP POP JUMP JUMPDEST PUSH1 0x0 PUSH1 0x20 DUP3 DUP5 SUB SLT ISZERO PUSH2 0x2B11 JUMPI PUSH1 0x0 DUP1 REVERT JUMPDEST DUP2 CALLDATALOAD PUSH8 0xFFFFFFFFFFFFFFFF DUP2 GT ISZERO PUSH2 0x2B28 JUMPI PUSH1 0x0 DUP1 REVERT JUMPDEST PUSH2 0x1436 DUP5 DUP3 DUP6 ADD PUSH2 0x287A JUMP JUMPDEST PUSH1 0x20 DUP1 DUP3 MSTORE DUP2 DUP2 ADD MSTORE PUSH32 0x4F776E61626C653A2063616C6C6572206973206E6F7420746865206F776E6572 PUSH1 0x40 DUP3 ADD MSTORE PUSH1 0x60 ADD SWAP1 JUMP JUMPDEST PUSH1 0x0 PUSH2 0x100 DUP1 DUP4 MSTORE PUSH2 0x2B97 DUP2 DUP5 ADD PUSH1 0xD DUP2 MSTORE PUSH13 0x98D2E2EAD2C8D2E8F240A8C2F PUSH1 0x9B SHL PUSH1 0x20 DUP3 ADD MSTORE PUSH1 0x40 ADD SWAP1 JUMP JUMPDEST PUSH1 0x1 PUSH1 0x1 PUSH1 0xA0 SHL SUB DUP11 DUP2 AND PUSH1 0x20 DUP7 ADD MSTORE PUSH1 0x40 DUP6 ADD DUP11 SWAP1 MSTORE PUSH1 0x60 DUP6 ADD DUP10 SWAP1 MSTORE DUP5 DUP3 SUB PUSH1 0x80 DUP7 ADD MSTORE SWAP1 SWAP2 POP PUSH2 0x2BE4 DUP3 PUSH1 0xD DUP2 MSTORE PUSH13 0x98D2E2EAD2C8D2E8F240A8C2F PUSH1 0x9B SHL PUSH1 0x20 DUP3 ADD MSTORE PUSH1 0x40 ADD SWAP1 JUMP JUMPDEST SWAP7 AND PUSH1 0xA0 DUP5 ADD MSTORE POP POP PUSH1 0xC0 DUP2 ADD SWAP3 SWAP1 SWAP3 MSTORE PUSH1 0xE0 SWAP1 SWAP2 ADD MSTORE SWAP4 SWAP3 POP POP POP JUMP JUMPDEST PUSH4 0x4E487B71 PUSH1 0xE0 SHL PUSH1 0x0 MSTORE PUSH1 0x11 PUSH1 0x4 MSTORE PUSH1 0x24 PUSH1 0x0 REVERT JUMPDEST PUSH1 0x0 DUP3 NOT DUP3 GT ISZERO PUSH2 0x2C2B JUMPI PUSH2 0x2C2B PUSH2 0x2C02 JUMP JUMPDEST POP ADD SWAP1 JUMP JUMPDEST PUSH1 0x0 DUP3 PUSH2 0x2C4D JUMPI PUSH4 0x4E487B71 PUSH1 0xE0 SHL PUSH1 0x0 MSTORE PUSH1 0x12 PUSH1 0x4 MSTORE PUSH1 0x24 PUSH1 0x0 REVERT JUMPDEST POP DIV SWAP1 JUMP JUMPDEST PUSH1 0x1 DUP2 DUP2 JUMPDEST DUP1 DUP6 GT ISZERO PUSH2 0x2C8D JUMPI DUP2 PUSH1 0x0 NOT DIV DUP3 GT ISZERO PUSH2 0x2C73 JUMPI PUSH2 0x2C73 PUSH2 0x2C02 JUMP JUMPDEST DUP1 DUP6 AND ISZERO PUSH2 0x2C80 JUMPI SWAP2 DUP2 MUL SWAP2 JUMPDEST SWAP4 DUP5 SHR SWAP4 SWAP1 DUP1 MUL SWAP1 PUSH2 0x2C57 JUMP JUMPDEST POP SWAP3 POP SWAP3 SWAP1 POP JUMP JUMPDEST PUSH1 0x0 DUP3 PUSH2 0x2CA4 JUMPI POP PUSH1 0x1 PUSH2 0x1044 JUMP JUMPDEST DUP2 PUSH2 0x2CB1 JUMPI POP PUSH1 0x0 PUSH2 0x1044 JUMP JUMPDEST DUP2 PUSH1 0x1 DUP2 EQ PUSH2 0x2CC7 JUMPI PUSH1 0x2 DUP2 EQ PUSH2 0x2CD1 JUMPI PUSH2 0x2CED JUMP JUMPDEST PUSH1 0x1 SWAP2 POP POP PUSH2 0x1044 JUMP JUMPDEST PUSH1 0xFF DUP5 GT ISZERO PUSH2 0x2CE2 JUMPI PUSH2 0x2CE2 PUSH2 0x2C02 JUMP JUMPDEST POP POP PUSH1 0x1 DUP3 SHL PUSH2 0x1044 JUMP JUMPDEST POP PUSH1 0x20 DUP4 LT PUSH2 0x133 DUP4 LT AND PUSH1 0x4E DUP5 LT PUSH1 0xB DUP5 LT AND OR ISZERO PUSH2 0x2D10 JUMPI POP DUP2 DUP2 EXP PUSH2 0x1044 JUMP JUMPDEST PUSH2 0x2D1A DUP4 DUP4 PUSH2 0x2C52 JUMP JUMPDEST DUP1 PUSH1 0x0 NOT DIV DUP3 GT ISZERO PUSH2 0x2D2E JUMPI PUSH2 0x2D2E PUSH2 0x2C02 JUMP JUMPDEST MUL SWAP4 SWAP3 POP POP POP JUMP JUMPDEST PUSH1 0x0 PUSH2 0xF42 DUP4 DUP4 PUSH2 0x2C95 JUMP JUMPDEST PUSH1 0x0 DUP2 PUSH1 0x0 NOT DIV DUP4 GT DUP3 ISZERO ISZERO AND ISZERO PUSH2 0x2D5C JUMPI PUSH2 0x2D5C PUSH2 0x2C02 JUMP JUMPDEST POP MUL SWAP1 JUMP JUMPDEST PUSH1 0x0 PUSH1 0x20 DUP3 DUP5 SUB SLT ISZERO PUSH2 0x2D73 JUMPI PUSH1 0x0 DUP1 REVERT JUMPDEST DUP2 MLOAD PUSH2 0xF42 DUP2 PUSH2 0x2A89 JUMP JUMPDEST PUSH1 0x1 DUP2 DUP2 SHR SWAP1 DUP3 AND DUP1 PUSH2 0x2D92 JUMPI PUSH1 0x7F DUP3 AND SWAP2 POP JUMPDEST PUSH1 0x20 DUP3 LT DUP2 EQ ISZERO PUSH2 0x2DB3 JUMPI PUSH4 0x4E487B71 PUSH1 0xE0 SHL PUSH1 0x0 MSTORE PUSH1 0x22 PUSH1 0x4 MSTORE PUSH1 0x24 PUSH1 0x0 REVERT JUMPDEST POP SWAP2 SWAP1 POP JUMP JUMPDEST DUP1 SLOAD PUSH1 0x0 SWAP1 PUSH1 0x1 DUP2 DUP2 SHR SWAP1 DUP1 DUP4 AND DUP1 PUSH2 0x2DD3 JUMPI PUSH1 0x7F DUP4 AND SWAP3 POP JUMPDEST PUSH1 0x20 DUP1 DUP5 LT DUP3 EQ ISZERO PUSH2 0x2DF5 JUMPI PUSH4 0x4E487B71 PUSH1 0xE0 SHL PUSH1 0x0 MSTORE PUSH1 0x22 PUSH1 0x4 MSTORE PUSH1 0x24 PUSH1 0x0 REVERT JUMPDEST DUP4 DUP9 MSTORE PUSH1 0x20 DUP9 ADD DUP3 DUP1 ISZERO PUSH2 0x2E10 JUMPI PUSH1 0x1 DUP2 EQ PUSH2 0x2E21 JUMPI PUSH2 0x2E4C JUMP JUMPDEST PUSH1 0xFF NOT DUP8 AND DUP3 MSTORE DUP3 DUP3 ADD SWAP8 POP PUSH2 0x2E4C JUMP JUMPDEST PUSH1 0x0 DUP10 DUP2 MSTORE PUSH1 0x20 SWAP1 KECCAK256 PUSH1 0x0 JUMPDEST DUP8 DUP2 LT ISZERO PUSH2 0x2E46 JUMPI DUP2 SLOAD DUP5 DUP3 ADD MSTORE SWAP1 DUP7 ADD SWAP1 DUP5 ADD PUSH2 0x2E2D JUMP JUMPDEST DUP4 ADD SWAP9 POP POP JUMPDEST POP POP POP POP POP POP POP SWAP3 SWAP2 POP POP JUMP JUMPDEST PUSH1 0x0 PUSH2 0x100 DUP1 DUP4 MSTORE PUSH2 0x2E6D DUP2 DUP5 ADD DUP13 PUSH2 0x2966 JUMP JUMPDEST PUSH1 0x1 PUSH1 0x1 PUSH1 0xA0 SHL SUB DUP12 DUP2 AND PUSH1 0x20 DUP7 ADD MSTORE PUSH1 0x40 DUP6 ADD DUP12 SWAP1 MSTORE PUSH1 0x60 DUP6 ADD DUP11 SWAP1 MSTORE DUP5 DUP3 SUB PUSH1 0x80 DUP7 ADD MSTORE SWAP1 SWAP2 POP PUSH2 0x2EA0 DUP3 DUP10 PUSH2 0x2DB9 JUMP JUMPDEST SWAP7 AND PUSH1 0xA0 DUP5 ADD MSTORE POP POP PUSH1 0xC0 DUP2 ADD SWAP3 SWAP1 SWAP3 MSTORE PUSH1 0xE0 SWAP1 SWAP2 ADD MSTORE SWAP6 SWAP5 POP POP POP POP POP JUMP JUMPDEST PUSH1 0x0 PUSH1 0x20 DUP3 DUP5 SUB SLT ISZERO PUSH2 0x2ED2 JUMPI PUSH1 0x0 DUP1 REVERT JUMPDEST DUP2 MLOAD PUSH2 0xF42 DUP2 PUSH2 0x27E4 JUMP JUMPDEST DUP1 MLOAD PUSH1 0x1 PUSH1 0x1 PUSH1 0x70 SHL SUB DUP2 AND DUP2 EQ PUSH2 0x2EF4 JUMPI PUSH1 0x0 DUP1 REVERT JUMPDEST SWAP2 SWAP1 POP JUMP JUMPDEST PUSH1 0x0 DUP1 PUSH1 0x0 PUSH1 0x60 DUP5 DUP7 SUB SLT ISZERO PUSH2 0x2F0E JUMPI PUSH1 0x0 DUP1 REVERT JUMPDEST PUSH2 0x2F17 DUP5 PUSH2 0x2EDD JUMP JUMPDEST SWAP3 POP PUSH2 0x2F25 PUSH1 0x20 DUP6 ADD PUSH2 0x2EDD JUMP JUMPDEST SWAP2 POP PUSH1 0x40 DUP5 ADD MLOAD PUSH4 0xFFFFFFFF DUP2 AND DUP2 EQ PUSH2 0x2F3E JUMPI PUSH1 0x0 DUP1 REVERT JUMPDEST DUP1 SWAP2 POP POP SWAP3 POP SWAP3 POP SWAP3 JUMP JUMPDEST PUSH1 0x0 PUSH1 0x20 DUP3 DUP5 SUB SLT ISZERO PUSH2 0x2F5B JUMPI PUSH1 0x0 DUP1 REVERT JUMPDEST POP MLOAD SWAP2 SWAP1 POP JUMP JUMPDEST PUSH1 0x0 PUSH2 0x100 DUP1 DUP4 MSTORE PUSH2 0x2F8B DUP2 DUP5 ADD PUSH1 0x8 DUP2 MSTORE PUSH8 0x84EAE4DC40A8C2F PUSH1 0xC3 SHL PUSH1 0x20 DUP3 ADD MSTORE PUSH1 0x40 ADD SWAP1 JUMP JUMPDEST PUSH1 0x1 PUSH1 0x1 PUSH1 0xA0 SHL SUB DUP11 DUP2 AND PUSH1 0x20 DUP7 ADD MSTORE PUSH1 0x40 DUP6 ADD DUP11 SWAP1 MSTORE PUSH1 0x60 DUP6 ADD DUP10 SWAP1 MSTORE DUP5 DUP3 SUB PUSH1 0x80 DUP7 ADD MSTORE SWAP1 SWAP2 POP PUSH2 0x2BE4 DUP3 PUSH1 0x8 DUP2 MSTORE PUSH8 0x84EAE4DC40A8C2F PUSH1 0xC3 SHL PUSH1 0x20 DUP3 ADD MSTORE PUSH1 0x40 ADD SWAP1 JUMP JUMPDEST PUSH1 0x40 DUP2 MSTORE PUSH1 0x0 PUSH2 0x2FE6 PUSH1 0x40 DUP4 ADD DUP6 PUSH2 0x2966 JUMP JUMPDEST DUP3 DUP2 SUB PUSH1 0x20 DUP5 ADD MSTORE PUSH2 0x2FF8 DUP2 DUP6 PUSH2 0x2DB9 JUMP JUMPDEST SWAP6 SWAP5 POP POP POP POP POP JUMP INVALID 0xA8 0xA8 0xBA PUSH3 0x162BCC 0x4C SLT JUMPDEST EXTCODESIZE DUP4 0x24 SWAP6 CREATE2 0xD BALANCE RETURNDATACOPY 0xB4 DUP10 0x2E SWAP11 0xD2 0xAB SWAP10 STOP INVALID CALLVALUE DUP4 SHR BLOCKHASH 0xA6 LOG2 PUSH5 0x6970667358 0x22 SLT KECCAK256 DUP8 MSTORE SWAP6 DUP11 0xD4 SUB 0xCE 0xED STATICCALL 0xE MLOAD 0xAA DIFFICULTY 0xBB 0xAA 0xDD MSTORE8 CALLDATALOAD PUSH1 0x45 ORIGIN SWAP7 0xE4 0xEA SWAP3 0xE1 SGT RETURNDATACOPY DUP9 PUSH11 0xEFA764736F6C634300080C STOP CALLER "
        },
        "methodIdentifiers": {
          "burnAddress()": "70d5ae05",
          "burnTaxBuyAmount(address)": "2f1fc52c",
          "burnTaxBuyAmountConfig()": "357579d2",
          "burnTaxSellAmount(address)": "7749eeb3",
          "burnTaxSellAmountConfig()": "42d7359b",
          "customTaxName()": "7f582e0e",
          "feeDecimal()": "7e11b31f",
          "getBuyTaxAmounts(address)": "f9110af3",
          "getPair(address)": "1a788a02",
          "getPostSwapBuyTaxAmount(address)": "0787150a",
          "getPostSwapSellTaxAmount(address)": "76d747e9",
          "getPreSwapBuyTaxAmount(address,uint256)": "bc040da3",
          "getPreSwapSellTaxAmount(address)": "885b922d",
          "getReserves(address)": "3e99c1e4",
          "getSellTaxAmounts(address)": "0a9ee06c",
          "getTaxNames()": "4f12da14",
          "getTaxWallets()": "fb61e998",
          "liquidityTaxBuyAmount(address)": "07ad6d48",
          "liquidityTaxBuyAmountConfig()": "18b38e8a",
          "liquidityTaxSellAmount(address)": "4144f1c4",
          "liquidityTaxSellAmountConfig()": "3079221b",
          "lpTokenHolder()": "d505cc4d",
          "nft1155BenefitAddress()": "e52aaf2b",
          "nft1155BenefitId()": "1217b0cb",
          "nft1155HoldFactor()": "7435a21f",
          "owner()": "8da5cb5b",
          "purrBuyFactor()": "cb6798a4",
          "purrSellFactor()": "9d4c411c",
          "renounceOwnership()": "715018a6",
          "respect1155()": "875138aa",
          "respectPurr()": "b5665400",
          "routerAddress()": "3268cc56",
          "setBurnTax(address,uint256,uint256)": "a8b5afdc",
          "setCustomTaxName(string)": "ca682c6d",
          "setLiquidityTax(address,uint256,uint256)": "05bdf464",
          "setNft1155Config(bool,uint256,address,uint256)": "c8d87f91",
          "setPawthereum(address)": "9af14612",
          "setPurrConfig(bool,uint256,uint256)": "bbaec3e0",
          "setRouterAddress(address)": "41cb87fc",
          "setTax1(string,address,uint256,uint256)": "9bc81a2c",
          "setTax2(string,address,uint256,uint256)": "862737c9",
          "setTax3(string,address,uint256,uint256)": "d162d415",
          "setTax4(string,address,uint256,uint256)": "1820fe0c",
          "setTokenTax(string,address,uint256,uint256)": "b7b40050",
          "tax1(address)": "f39331fd",
          "tax1BuyAmount(address)": "c554d74c",
          "tax1BuyAmountConfig()": "b40a3f93",
          "tax1Name()": "56355a90",
          "tax1SellAmount(address)": "e69aee91",
          "tax1SellAmountConfig()": "7d485eb9",
          "tax1Wallet()": "f3b6966b",
          "tax2(address)": "48de3f4f",
          "tax2BuyAmount(address)": "e5902c2d",
          "tax2BuyAmountConfig()": "4f2fc5c1",
          "tax2Name()": "776f1e10",
          "tax2SellAmount(address)": "e1eb5154",
          "tax2SellAmountConfig()": "eaa84776",
          "tax2Wallet()": "e3255552",
          "tax3BuyAmount(address)": "a385ac31",
          "tax3BuyAmountConfig()": "832033c2",
          "tax3Name()": "5c5aa9b2",
          "tax3SellAmount(address)": "ab183639",
          "tax3SellAmountConfig()": "6f1bd5e0",
          "tax3Wallet()": "10b567ad",
          "tax4BuyAmount(address)": "e036a582",
          "tax4BuyAmountConfig()": "3c743beb",
          "tax4Name()": "1866cbfa",
          "tax4SellAmount(address)": "83d611e0",
          "tax4SellAmountConfig()": "6a5c5c3a",
          "tax4Wallet()": "80384d4d",
          "tokenTaxBuyAmount(address)": "a26c8629",
          "tokenTaxBuyAmountConfig()": "9712a173",
          "tokenTaxName()": "ae46567c",
          "tokenTaxSellAmount(address)": "75af3091",
          "tokenTaxSellAmountConfig()": "ce94b99a",
          "tokenTaxWallet()": "2cbfc5a5",
          "transferOwnership(address)": "f2fde38b",
          "withdrawEthToOwner(uint256)": "107bf304",
          "withdrawTokenToOwner(address,uint256)": "56a6338f"
        }
      }
    }
  }
}