{
  "_format": "hh-sol-artifact-1",
  "contractName": "MultiCall",
  "sourceName": "contracts/Multicall.sol",
  "abi": [
    {
      "inputs": [
        {
          "internalType": "address[]",
          "name": "targets",
          "type": "address[]"
        },
        {
          "internalType": "bytes[]",
          "name": "data",
          "type": "bytes[]"
        }
      ],
      "name": "multiCall",
      "outputs": [
        {
          "internalType": "bytes[]",
          "name": "",
          "type": "bytes[]"
        }
      ],
      "stateMutability": "view",
      "type": "function"
    }
  ],
  "bytecode": "0x608060405234801561001057600080fd5b50610461806100206000396000f3fe608060405234801561001057600080fd5b506004361061002b5760003560e01c8063da5b4ffd14610030575b600080fd5b61004361003e366004610271565b610059565b60405161005091906102dd565b60405180910390f35b60608382146100af5760405162461bcd60e51b815260206004820152601c60248201527f746172676574206c656e67746820213d2064617461206c656e6774680000000060448201526064015b60405180910390fd5b60008267ffffffffffffffff8111156100ca576100ca610378565b6040519080825280602002602001820160405280156100fd57816020015b60608152602001906001900390816100e85790505b5090508460005b81811015610219576000808989848181106101215761012161038e565b905060200201602081019061013691906103a4565b6001600160a01b03168888858181106101515761015161038e565b905060200281019061016391906103d4565b60405161017192919061041b565b600060405180830381855afa9150503d80600081146101ac576040519150601f19603f3d011682016040523d82523d6000602084013e6101b1565b606091505b5091509150816101f15760405162461bcd60e51b815260206004820152600b60248201526a18d85b1b0819985a5b195960aa1b60448201526064016100a6565b808584815181106102045761020461038e565b60209081029190910101525050600101610104565b50909695505050505050565b60008083601f84011261023757600080fd5b50813567ffffffffffffffff81111561024f57600080fd5b6020830191508360208260051b850101111561026a57600080fd5b9250929050565b6000806000806040858703121561028757600080fd5b843567ffffffffffffffff8082111561029f57600080fd5b6102ab88838901610225565b909650945060208701359150808211156102c457600080fd5b506102d187828801610225565b95989497509550505050565b6000602080830181845280855180835260408601915060408160051b87010192508387016000805b8381101561036a57888603603f1901855282518051808852835b8181101561033a578281018a01518982018b0152890161031f565b8181111561034a57848a838b0101525b50601f01601f191696909601870195509386019391860191600101610305565b509398975050505050505050565b634e487b7160e01b600052604160045260246000fd5b634e487b7160e01b600052603260045260246000fd5b6000602082840312156103b657600080fd5b81356001600160a01b03811681146103cd57600080fd5b9392505050565b6000808335601e198436030181126103eb57600080fd5b83018035915067ffffffffffffffff82111561040657600080fd5b60200191503681900382131561026a57600080fd5b818382376000910190815291905056fea264697066735822122059b26c7eed8457a6d45d1716b338639e2429e4e74b6453210e148cc90ae6440f64736f6c634300080c0033",
  "linkReferences": {},
  "deployedLinkReferences": {}
}