{
  "_format": "hh-sol-artifact-1",
  "contractName": "PawthStaking",
  "sourceName": "contracts/PawthStaking.sol",
  "abi": [
    {
      "inputs": [],
      "stateMutability": "nonpayable",
      "type": "constructor"
    },
    {
      "anonymous": false,
      "inputs": [
        {
          "indexed": false,
          "internalType": "address",
          "name": "tokenRecovered",
          "type": "address"
        },
        {
          "indexed": false,
          "internalType": "uint256",
          "name": "amount",
          "type": "uint256"
        }
      ],
      "name": "AdminTokenRecovered",
      "type": "event"
    },
    {
      "anonymous": false,
      "inputs": [
        {
          "indexed": false,
          "internalType": "address",
          "name": "_addr",
          "type": "address"
        }
      ],
      "name": "BuybackAddressUpadted",
      "type": "event"
    },
    {
      "anonymous": false,
      "inputs": [
        {
          "indexed": true,
          "internalType": "address",
          "name": "user",
          "type": "address"
        },
        {
          "indexed": false,
          "internalType": "uint256",
          "name": "amount",
          "type": "uint256"
        }
      ],
      "name": "Deposit",
      "type": "event"
    },
    {
      "anonymous": false,
      "inputs": [
        {
          "indexed": false,
          "internalType": "uint256",
          "name": "_duration",
          "type": "uint256"
        }
      ],
      "name": "DurationUpdated",
      "type": "event"
    },
    {
      "anonymous": false,
      "inputs": [
        {
          "indexed": true,
          "internalType": "address",
          "name": "user",
          "type": "address"
        },
        {
          "indexed": false,
          "internalType": "uint256",
          "name": "amount",
          "type": "uint256"
        }
      ],
      "name": "EmergencyWithdraw",
      "type": "event"
    },
    {
      "anonymous": false,
      "inputs": [
        {
          "indexed": false,
          "internalType": "uint256",
          "name": "poolLimitPerUser",
          "type": "uint256"
        }
      ],
      "name": "NewPoolLimit",
      "type": "event"
    },
    {
      "anonymous": false,
      "inputs": [
        {
          "indexed": false,
          "internalType": "uint256",
          "name": "rewardPerBlock",
          "type": "uint256"
        }
      ],
      "name": "NewRewardPerBlock",
      "type": "event"
    },
    {
      "anonymous": false,
      "inputs": [
        {
          "indexed": false,
          "internalType": "uint256",
          "name": "startBlock",
          "type": "uint256"
        },
        {
          "indexed": false,
          "internalType": "uint256",
          "name": "endBlock",
          "type": "uint256"
        }
      ],
      "name": "NewStartAndEndBlocks",
      "type": "event"
    },
    {
      "anonymous": false,
      "inputs": [
        {
          "indexed": true,
          "internalType": "address",
          "name": "previousOwner",
          "type": "address"
        },
        {
          "indexed": true,
          "internalType": "address",
          "name": "newOwner",
          "type": "address"
        }
      ],
      "name": "OwnershipTransferred",
      "type": "event"
    },
    {
      "anonymous": false,
      "inputs": [
        {
          "indexed": false,
          "internalType": "uint256",
          "name": "blockNumber",
          "type": "uint256"
        }
      ],
      "name": "RewardsStop",
      "type": "event"
    },
    {
      "anonymous": false,
      "inputs": [
        {
          "indexed": false,
          "internalType": "address",
          "name": "_addr",
          "type": "address"
        },
        {
          "indexed": false,
          "internalType": "uint256",
          "name": "_fee",
          "type": "uint256"
        }
      ],
      "name": "ServiceInfoUpadted",
      "type": "event"
    },
    {
      "anonymous": false,
      "inputs": [
        {
          "indexed": false,
          "internalType": "uint256",
          "name": "_depositFee",
          "type": "uint256"
        },
        {
          "indexed": false,
          "internalType": "uint256",
          "name": "_withdrawFee",
          "type": "uint256"
        },
        {
          "indexed": false,
          "internalType": "uint256",
          "name": "_walletARate",
          "type": "uint256"
        },
        {
          "indexed": false,
          "internalType": "uint256",
          "name": "_slippageFactor",
          "type": "uint256"
        },
        {
          "indexed": false,
          "internalType": "address",
          "name": "_uniRouter",
          "type": "address"
        },
        {
          "indexed": false,
          "internalType": "address[]",
          "name": "_path0",
          "type": "address[]"
        },
        {
          "indexed": false,
          "internalType": "address[]",
          "name": "_path1",
          "type": "address[]"
        }
      ],
      "name": "SetSettings",
      "type": "event"
    },
    {
      "anonymous": false,
      "inputs": [
        {
          "indexed": false,
          "internalType": "address",
          "name": "_addr",
          "type": "address"
        }
      ],
      "name": "WalletAUpdated",
      "type": "event"
    },
    {
      "anonymous": false,
      "inputs": [
        {
          "indexed": true,
          "internalType": "address",
          "name": "user",
          "type": "address"
        },
        {
          "indexed": false,
          "internalType": "uint256",
          "name": "amount",
          "type": "uint256"
        }
      ],
      "name": "Withdraw",
      "type": "event"
    },
    {
      "inputs": [],
      "name": "MAX_FEE",
      "outputs": [
        {
          "internalType": "uint256",
          "name": "",
          "type": "uint256"
        }
      ],
      "stateMutability": "view",
      "type": "function"
    },
    {
      "inputs": [],
      "name": "POOL_FACTORY",
      "outputs": [
        {
          "internalType": "address",
          "name": "",
          "type": "address"
        }
      ],
      "stateMutability": "view",
      "type": "function"
    },
    {
      "inputs": [],
      "name": "PRECISION_FACTOR",
      "outputs": [
        {
          "internalType": "uint256",
          "name": "",
          "type": "uint256"
        }
      ],
      "stateMutability": "view",
      "type": "function"
    },
    {
      "inputs": [],
      "name": "PRECISION_FACTOR_REFLECTION",
      "outputs": [
        {
          "internalType": "uint256",
          "name": "",
          "type": "uint256"
        }
      ],
      "stateMutability": "view",
      "type": "function"
    },
    {
      "inputs": [],
      "name": "accDividendPerShare",
      "outputs": [
        {
          "internalType": "uint256",
          "name": "",
          "type": "uint256"
        }
      ],
      "stateMutability": "view",
      "type": "function"
    },
    {
      "inputs": [],
      "name": "accTokenPerShare",
      "outputs": [
        {
          "internalType": "uint256",
          "name": "",
          "type": "uint256"
        }
      ],
      "stateMutability": "view",
      "type": "function"
    },
    {
      "inputs": [],
      "name": "availableRewardTokens",
      "outputs": [
        {
          "internalType": "uint256",
          "name": "",
          "type": "uint256"
        }
      ],
      "stateMutability": "view",
      "type": "function"
    },
    {
      "inputs": [],
      "name": "availabledividendTokens",
      "outputs": [
        {
          "internalType": "uint256",
          "name": "",
          "type": "uint256"
        }
      ],
      "stateMutability": "view",
      "type": "function"
    },
    {
      "inputs": [
        {
          "internalType": "address",
          "name": "account",
          "type": "address"
        }
      ],
      "name": "balanceOf",
      "outputs": [
        {
          "internalType": "uint256",
          "name": "",
          "type": "uint256"
        }
      ],
      "stateMutability": "view",
      "type": "function"
    },
    {
      "inputs": [],
      "name": "bonusEndBlock",
      "outputs": [
        {
          "internalType": "uint256",
          "name": "",
          "type": "uint256"
        }
      ],
      "stateMutability": "view",
      "type": "function"
    },
    {
      "inputs": [],
      "name": "buyBackAddress",
      "outputs": [
        {
          "internalType": "address",
          "name": "",
          "type": "address"
        }
      ],
      "stateMutability": "view",
      "type": "function"
    },
    {
      "inputs": [],
      "name": "buyBackRate",
      "outputs": [
        {
          "internalType": "uint256",
          "name": "",
          "type": "uint256"
        }
      ],
      "stateMutability": "view",
      "type": "function"
    },
    {
      "inputs": [],
      "name": "buyBackWallet",
      "outputs": [
        {
          "internalType": "address",
          "name": "",
          "type": "address"
        }
      ],
      "stateMutability": "view",
      "type": "function"
    },
    {
      "inputs": [],
      "name": "claimDividend",
      "outputs": [],
      "stateMutability": "payable",
      "type": "function"
    },
    {
      "inputs": [],
      "name": "claimReward",
      "outputs": [],
      "stateMutability": "payable",
      "type": "function"
    },
    {
      "inputs": [],
      "name": "compoundDividend",
      "outputs": [],
      "stateMutability": "payable",
      "type": "function"
    },
    {
      "inputs": [],
      "name": "compoundReward",
      "outputs": [],
      "stateMutability": "payable",
      "type": "function"
    },
    {
      "inputs": [
        {
          "internalType": "uint256",
          "name": "_amount",
          "type": "uint256"
        }
      ],
      "name": "deposit",
      "outputs": [],
      "stateMutability": "nonpayable",
      "type": "function"
    },
    {
      "inputs": [],
      "name": "depositFee",
      "outputs": [
        {
          "internalType": "uint256",
          "name": "",
          "type": "uint256"
        }
      ],
      "stateMutability": "view",
      "type": "function"
    },
    {
      "inputs": [
        {
          "internalType": "uint256",
          "name": "_amount",
          "type": "uint256"
        }
      ],
      "name": "depositRewards",
      "outputs": [],
      "stateMutability": "nonpayable",
      "type": "function"
    },
    {
      "inputs": [],
      "name": "dividendToken",
      "outputs": [
        {
          "internalType": "address",
          "name": "",
          "type": "address"
        }
      ],
      "stateMutability": "view",
      "type": "function"
    },
    {
      "inputs": [],
      "name": "duration",
      "outputs": [
        {
          "internalType": "uint256",
          "name": "",
          "type": "uint256"
        }
      ],
      "stateMutability": "view",
      "type": "function"
    },
    {
      "inputs": [
        {
          "internalType": "uint256",
          "name": "",
          "type": "uint256"
        }
      ],
      "name": "earnedToStakedPath",
      "outputs": [
        {
          "internalType": "address",
          "name": "",
          "type": "address"
        }
      ],
      "stateMutability": "view",
      "type": "function"
    },
    {
      "inputs": [],
      "name": "earnedToken",
      "outputs": [
        {
          "internalType": "contract IERC20",
          "name": "",
          "type": "address"
        }
      ],
      "stateMutability": "view",
      "type": "function"
    },
    {
      "inputs": [
        {
          "internalType": "uint256",
          "name": "_amount",
          "type": "uint256"
        }
      ],
      "name": "emergencyRewardWithdraw",
      "outputs": [],
      "stateMutability": "nonpayable",
      "type": "function"
    },
    {
      "inputs": [],
      "name": "emergencyWithdraw",
      "outputs": [],
      "stateMutability": "nonpayable",
      "type": "function"
    },
    {
      "inputs": [],
      "name": "harvest",
      "outputs": [],
      "stateMutability": "nonpayable",
      "type": "function"
    },
    {
      "inputs": [],
      "name": "hasDividend",
      "outputs": [
        {
          "internalType": "bool",
          "name": "",
          "type": "bool"
        }
      ],
      "stateMutability": "view",
      "type": "function"
    },
    {
      "inputs": [],
      "name": "hasUserLimit",
      "outputs": [
        {
          "internalType": "bool",
          "name": "",
          "type": "bool"
        }
      ],
      "stateMutability": "view",
      "type": "function"
    },
    {
      "inputs": [
        {
          "internalType": "contract IERC20",
          "name": "_stakingToken",
          "type": "address"
        },
        {
          "internalType": "contract IERC20",
          "name": "_earnedToken",
          "type": "address"
        },
        {
          "internalType": "address",
          "name": "_dividendToken",
          "type": "address"
        },
        {
          "internalType": "uint256",
          "name": "_rewardPerBlock",
          "type": "uint256"
        },
        {
          "internalType": "uint256",
          "name": "_depositFee",
          "type": "uint256"
        },
        {
          "internalType": "uint256",
          "name": "_withdrawFee",
          "type": "uint256"
        },
        {
          "internalType": "address",
          "name": "_uniRouter",
          "type": "address"
        },
        {
          "internalType": "address[]",
          "name": "_earnedToStakedPath",
          "type": "address[]"
        },
        {
          "internalType": "address[]",
          "name": "_reflectionToStakedPath",
          "type": "address[]"
        },
        {
          "internalType": "bool",
          "name": "_hasDividend",
          "type": "bool"
        }
      ],
      "name": "initialize",
      "outputs": [],
      "stateMutability": "nonpayable",
      "type": "function"
    },
    {
      "inputs": [],
      "name": "isInitialized",
      "outputs": [
        {
          "internalType": "bool",
          "name": "",
          "type": "bool"
        }
      ],
      "stateMutability": "view",
      "type": "function"
    },
    {
      "inputs": [],
      "name": "lastRewardBlock",
      "outputs": [
        {
          "internalType": "uint256",
          "name": "",
          "type": "uint256"
        }
      ],
      "stateMutability": "view",
      "type": "function"
    },
    {
      "inputs": [],
      "name": "owner",
      "outputs": [
        {
          "internalType": "address",
          "name": "",
          "type": "address"
        }
      ],
      "stateMutability": "view",
      "type": "function"
    },
    {
      "inputs": [
        {
          "internalType": "address",
          "name": "_user",
          "type": "address"
        }
      ],
      "name": "pendingDividends",
      "outputs": [
        {
          "internalType": "uint256",
          "name": "",
          "type": "uint256"
        }
      ],
      "stateMutability": "view",
      "type": "function"
    },
    {
      "inputs": [
        {
          "internalType": "address",
          "name": "_user",
          "type": "address"
        }
      ],
      "name": "pendingReward",
      "outputs": [
        {
          "internalType": "uint256",
          "name": "",
          "type": "uint256"
        }
      ],
      "stateMutability": "view",
      "type": "function"
    },
    {
      "inputs": [],
      "name": "performanceFee",
      "outputs": [
        {
          "internalType": "uint256",
          "name": "",
          "type": "uint256"
        }
      ],
      "stateMutability": "view",
      "type": "function"
    },
    {
      "inputs": [],
      "name": "poolLimitPerUser",
      "outputs": [
        {
          "internalType": "uint256",
          "name": "",
          "type": "uint256"
        }
      ],
      "stateMutability": "view",
      "type": "function"
    },
    {
      "inputs": [
        {
          "internalType": "address",
          "name": "_tokenAddress",
          "type": "address"
        },
        {
          "internalType": "uint256",
          "name": "_tokenAmount",
          "type": "uint256"
        }
      ],
      "name": "recoverWrongTokens",
      "outputs": [],
      "stateMutability": "nonpayable",
      "type": "function"
    },
    {
      "inputs": [
        {
          "internalType": "uint256",
          "name": "",
          "type": "uint256"
        }
      ],
      "name": "reflectionToStakedPath",
      "outputs": [
        {
          "internalType": "address",
          "name": "",
          "type": "address"
        }
      ],
      "stateMutability": "view",
      "type": "function"
    },
    {
      "inputs": [],
      "name": "renounceOwnership",
      "outputs": [],
      "stateMutability": "nonpayable",
      "type": "function"
    },
    {
      "inputs": [],
      "name": "resetAllowances",
      "outputs": [],
      "stateMutability": "nonpayable",
      "type": "function"
    },
    {
      "inputs": [],
      "name": "rewardPerBlock",
      "outputs": [
        {
          "internalType": "uint256",
          "name": "",
          "type": "uint256"
        }
      ],
      "stateMutability": "view",
      "type": "function"
    },
    {
      "inputs": [
        {
          "internalType": "uint256",
          "name": "_duration",
          "type": "uint256"
        }
      ],
      "name": "setDuration",
      "outputs": [],
      "stateMutability": "nonpayable",
      "type": "function"
    },
    {
      "inputs": [
        {
          "internalType": "address",
          "name": "_buyBackWallet",
          "type": "address"
        },
        {
          "internalType": "uint256",
          "name": "_fee",
          "type": "uint256"
        }
      ],
      "name": "setServiceInfo",
      "outputs": [],
      "stateMutability": "nonpayable",
      "type": "function"
    },
    {
      "inputs": [
        {
          "internalType": "uint256",
          "name": "_depositFee",
          "type": "uint256"
        },
        {
          "internalType": "uint256",
          "name": "_withdrawFee",
          "type": "uint256"
        },
        {
          "internalType": "uint256",
          "name": "_walletARate",
          "type": "uint256"
        },
        {
          "internalType": "uint256",
          "name": "_slippageFactor",
          "type": "uint256"
        },
        {
          "internalType": "address",
          "name": "_uniRouter",
          "type": "address"
        },
        {
          "internalType": "address[]",
          "name": "_earnedToStakedPath",
          "type": "address[]"
        },
        {
          "internalType": "address[]",
          "name": "_reflectionToStakedPath",
          "type": "address[]"
        }
      ],
      "name": "setSettings",
      "outputs": [],
      "stateMutability": "nonpayable",
      "type": "function"
    },
    {
      "inputs": [],
      "name": "slippageFactor",
      "outputs": [
        {
          "internalType": "uint256",
          "name": "",
          "type": "uint256"
        }
      ],
      "stateMutability": "view",
      "type": "function"
    },
    {
      "inputs": [],
      "name": "slippageFactorUL",
      "outputs": [
        {
          "internalType": "uint256",
          "name": "",
          "type": "uint256"
        }
      ],
      "stateMutability": "view",
      "type": "function"
    },
    {
      "inputs": [],
      "name": "stakingToken",
      "outputs": [
        {
          "internalType": "contract IERC20",
          "name": "",
          "type": "address"
        }
      ],
      "stateMutability": "view",
      "type": "function"
    },
    {
      "inputs": [],
      "name": "startBlock",
      "outputs": [
        {
          "internalType": "uint256",
          "name": "",
          "type": "uint256"
        }
      ],
      "stateMutability": "view",
      "type": "function"
    },
    {
      "inputs": [
        {
          "internalType": "uint256",
          "name": "_blocksInFuture",
          "type": "uint256"
        }
      ],
      "name": "startReward",
      "outputs": [],
      "stateMutability": "nonpayable",
      "type": "function"
    },
    {
      "inputs": [],
      "name": "stopReward",
      "outputs": [],
      "stateMutability": "nonpayable",
      "type": "function"
    },
    {
      "inputs": [],
      "name": "totalStaked",
      "outputs": [
        {
          "internalType": "uint256",
          "name": "",
          "type": "uint256"
        }
      ],
      "stateMutability": "view",
      "type": "function"
    },
    {
      "inputs": [
        {
          "internalType": "address",
          "name": "newOwner",
          "type": "address"
        }
      ],
      "name": "transferOwnership",
      "outputs": [],
      "stateMutability": "nonpayable",
      "type": "function"
    },
    {
      "inputs": [],
      "name": "uniRouterAddress",
      "outputs": [
        {
          "internalType": "address",
          "name": "",
          "type": "address"
        }
      ],
      "stateMutability": "view",
      "type": "function"
    },
    {
      "inputs": [
        {
          "internalType": "address",
          "name": "_addr",
          "type": "address"
        }
      ],
      "name": "updateBuybackAddr",
      "outputs": [],
      "stateMutability": "nonpayable",
      "type": "function"
    },
    {
      "inputs": [
        {
          "internalType": "bool",
          "name": "_hasUserLimit",
          "type": "bool"
        },
        {
          "internalType": "uint256",
          "name": "_poolLimitPerUser",
          "type": "uint256"
        }
      ],
      "name": "updatePoolLimitPerUser",
      "outputs": [],
      "stateMutability": "nonpayable",
      "type": "function"
    },
    {
      "inputs": [
        {
          "internalType": "uint256",
          "name": "_rewardPerBlock",
          "type": "uint256"
        }
      ],
      "name": "updateRewardPerBlock",
      "outputs": [],
      "stateMutability": "nonpayable",
      "type": "function"
    },
    {
      "inputs": [
        {
          "internalType": "address",
          "name": "_walletA",
          "type": "address"
        }
      ],
      "name": "updateWalletA",
      "outputs": [],
      "stateMutability": "nonpayable",
      "type": "function"
    },
    {
      "inputs": [
        {
          "internalType": "address",
          "name": "",
          "type": "address"
        }
      ],
      "name": "userInfo",
      "outputs": [
        {
          "internalType": "uint256",
          "name": "amount",
          "type": "uint256"
        },
        {
          "internalType": "uint256",
          "name": "rewardDebt",
          "type": "uint256"
        },
        {
          "internalType": "uint256",
          "name": "reflectionDebt",
          "type": "uint256"
        }
      ],
      "stateMutability": "view",
      "type": "function"
    },
    {
      "inputs": [],
      "name": "walletA",
      "outputs": [
        {
          "internalType": "address",
          "name": "",
          "type": "address"
        }
      ],
      "stateMutability": "view",
      "type": "function"
    },
    {
      "inputs": [],
      "name": "walletARate",
      "outputs": [
        {
          "internalType": "uint256",
          "name": "",
          "type": "uint256"
        }
      ],
      "stateMutability": "view",
      "type": "function"
    },
    {
      "inputs": [
        {
          "internalType": "uint256",
          "name": "_amount",
          "type": "uint256"
        }
      ],
      "name": "withdraw",
      "outputs": [],
      "stateMutability": "nonpayable",
      "type": "function"
    },
    {
      "inputs": [],
      "name": "withdrawFee",
      "outputs": [
        {
          "internalType": "uint256",
          "name": "",
          "type": "uint256"
        }
      ],
      "stateMutability": "view",
      "type": "function"
    },
    {
      "stateMutability": "payable",
      "type": "receive"
    }
  ],
  "bytecode": "0x608060405261016d6003556103b6600a55611d4c6010556109c4601155601380546001600160a01b031990811661dead1790915560148054909116739036464e4ecd2d40d21ee38a0398aedd6805a09b1790556601c6bf526340006015553480156200006a57600080fd5b50620000763362000092565b60018055600280546001600160a01b03191633179055620000e2565b600080546001600160a01b038381166001600160a01b0319831681178455604051919092169283917f8be0079c531659141344cd1fd0a4f28419497f9722a3daafe3b4186f6b6457e09190a35050565b61471e80620000f26000396000f3fe6080604052600436106103bb5760003560e01c806388bbb0c1116101f2578063bc063e1a1161010d578063db2e21bc116100a0578063f2fde38b1161006f578063f2fde38b14610a4a578063f40f0f5214610a6a578063f6be71d114610a8a578063ffbd3b1f14610aaa57600080fd5b8063db2e21bc14610a01578063e4eceff014610a16578063e941fa7814610a2c578063f0fc6bca14610a4257600080fd5b8063c909f152116100dc578063c909f1521461098b578063ccd34cd5146109ab578063ce8b6061146109c1578063d8e31608146109e157600080fd5b8063bc063e1a14610920578063bd01ac4e14610936578063c1e22a651461094b578063c79264581461096b57600080fd5b8063a0b4090511610185578063b6b55f2511610154578063b6b55f25146108c2578063b74cd242146108e2578063b77e7da0146108f8578063b88a802f1461091857600080fd5b8063a0b409051461084b578063a5bfd0f21461086b578063a9f8d1811461088c578063b1722d9e146108a257600080fd5b80638f662915116101c15780638f662915146107f057806392b46e5b1461080657806392e8990e1461081c5780639f94e2721461083657600080fd5b806388bbb0c1146107865780638ae39cac1461079c5780638bdf67f2146107b25780638da5cb5b146107d257600080fd5b806348cd4cb1116102e2578063715018a61161027557806380dc06721161024457806380dc067214610725578063817b1cd21461073a57806381b6194814610750578063877887821461077057600080fd5b8063715018a6146106b057806372f702f3146106c5578063783478ad146106e55780637972271b1461070557600080fd5b8063693a090b116102b1578063693a090b146106325780636d971a10146106525780636e707b731461065a57806370a082311461067a57600080fd5b806348cd4cb1146105e85780634de8ff21146105fe57806366fe9f8a1461060657806367a527931461061c57600080fd5b80631aed65531161035a5780633505b09f116103295780633505b09f1461056d578063392e53cd146105825780633f138d4b146105b35780634641257d146105d357600080fd5b80631aed6553146104f75780631cd348c01461050d5780632e1a7d4d1461052d5780633279beab1461054d57600080fd5b80631582358e116103965780631582358e14610432578063167d2dbe1461046a578063178a8d071461048a5780631959a002146104a057600080fd5b8062722765146103c757806301f8a976146103e95780630fb5a6b41461040957600080fd5b366103c257005b600080fd5b3480156103d357600080fd5b506103e76103e2366004613fe4565b610ac0565b005b3480156103f557600080fd5b506103e7610404366004614081565b610c86565b34801561041557600080fd5b5061041f60035481565b6040519081526020015b60405180910390f35b34801561043e57600080fd5b50601a54610452906001600160a01b031681565b6040516001600160a01b039091168152602001610429565b34801561047657600080fd5b50610452610485366004614081565b610cec565b34801561049657600080fd5b5061041f60105481565b3480156104ac57600080fd5b506104dc6104bb36600461409a565b60216020526000908152604090208054600182015460029092015490919083565b60408051938452602084019290925290820152606001610429565b34801561050357600080fd5b5061041f60075481565b34801561051957600080fd5b50601454610452906001600160a01b031681565b34801561053957600080fd5b506103e7610548366004614081565b610d16565b34801561055957600080fd5b506103e7610568366004614081565b6110d4565b34801561057957600080fd5b506103e76111d5565b34801561058e57600080fd5b506002546105a390600160a01b900460ff1681565b6040519015158152602001610429565b3480156105bf57600080fd5b506103e76105ce3660046140b7565b611209565b3480156105df57600080fd5b506103e7611408565b3480156105f457600080fd5b5061041f60065481565b6103e761158b565b34801561061257600080fd5b5061041f60055481565b34801561062857600080fd5b5061041f600e5481565b34801561063e57600080fd5b50600b54610452906001600160a01b031681565b6103e76119af565b34801561066657600080fd5b50601954610452906001600160a01b031681565b34801561068657600080fd5b5061041f61069536600461409a565b6001600160a01b031660009081526021602052604090205490565b3480156106bc57600080fd5b506103e7611cdc565b3480156106d157600080fd5b50601854610452906001600160a01b031681565b3480156106f157600080fd5b50601354610452906001600160a01b031681565b34801561071157600080fd5b506103e761072036600461409a565b611d10565b34801561073157600080fd5b506103e7611dc9565b34801561074657600080fd5b5061041f601d5481565b34801561075c57600080fd5b506103e761076b3660046140b7565b611df9565b34801561077c57600080fd5b5061041f60155481565b34801561079257600080fd5b5061041f60175481565b3480156107a857600080fd5b5061041f60085481565b3480156107be57600080fd5b506103e76107cd366004614081565b611eed565b3480156107de57600080fd5b506000546001600160a01b0316610452565b3480156107fc57600080fd5b5061041f601b5481565b34801561081257600080fd5b5061041f601c5481565b34801561082857600080fd5b506004546105a39060ff1681565b34801561084257600080fd5b5061041f61203b565b34801561085757600080fd5b506103e76108663660046140fc565b612112565b34801561087757600080fd5b50601a546105a390600160a01b900460ff1681565b34801561089857600080fd5b5061041f60095481565b3480156108ae57600080fd5b506103e76108bd36600461411a565b612224565b3480156108ce57600080fd5b506103e76108dd366004614081565b6125f3565b3480156108ee57600080fd5b5061041f6103e381565b34801561090457600080fd5b50601254610452906001600160a01b031681565b6103e76129fc565b34801561092c57600080fd5b5061041f6107d081565b34801561094257600080fd5b5061041f612af9565b34801561095757600080fd5b50610452610966366004614081565b612bfc565b34801561097757600080fd5b5061041f61098636600461409a565b612c0c565b34801561099757600080fd5b506103e76109a6366004614081565b612d13565b3480156109b757600080fd5b5061041f60165481565b3480156109cd57600080fd5b506103e76109dc36600461409a565b612e19565b3480156109ed57600080fd5b50600254610452906001600160a01b031681565b348015610a0d57600080fd5b506103e7612ed2565b348015610a2257600080fd5b5061041f60115481565b348015610a3857600080fd5b5061041f600f5481565b6103e7612f87565b348015610a5657600080fd5b506103e7610a6536600461409a565b6130db565b348015610a7657600080fd5b5061041f610a8536600461409a565b613173565b348015610a9657600080fd5b506103e7610aa5366004614081565b613261565b348015610ab657600080fd5b5061041f600a5481565b6000546001600160a01b03163314610af35760405162461bcd60e51b8152600401610aea906141f0565b60405180910390fd5b6107d08710610b3a5760405162461bcd60e51b8152602060048201526013602482015272496e76616c6964206465706f7369742066656560681b6044820152606401610aea565b6107d08610610b825760405162461bcd60e51b8152602060048201526014602482015273496e76616c69642077697468647261772066656560601b6044820152606401610aea565b6103e3841115610bd45760405162461bcd60e51b815260206004820152601860248201527f5f736c697070616765466163746f7220746f6f206869676800000000000000006044820152606401610aea565b600e879055600f8690556011859055610bef61271086613352565b601055600a849055600b80546001600160a01b0319166001600160a01b0385161790558051610c2590600c906020840190613e6b565b508151610c3990600d906020850190613e6b565b507fe517d267fff2c58a025040c7695bb2572821d50c6deba9d8eaebc6f84db5335b87878787878787604051610c759796959493929190614269565b60405180910390a150505050505050565b6000546001600160a01b03163314610cb05760405162461bcd60e51b8152600401610aea906141f0565b60088190556040518181527f0c4d677eef92893ac7ec52faf8140fc6c851ab4736302b4f3a89dfb20696a0df906020015b60405180910390a150565b600c8181548110610cfc57600080fd5b6000918252602090912001546001600160a01b0316905081565b60026001541415610d395760405162461bcd60e51b8152600401610aea906142c2565b600260015580610d8b5760405162461bcd60e51b815260206004820152601f60248201527f416d6f756e742073686f756c642062652067726561746572207468616e2030006044820152606401610aea565b3360009081526021602052604090208054821115610deb5760405162461bcd60e51b815260206004820152601b60248201527f416d6f756e7420746f20776974686472617720746f6f206869676800000000006044820152606401610aea565b610df361335e565b805415610f51576000610e2f8260010154610e29601654610e23601b54876000015461349d90919063ffffffff16565b906134a9565b90613352565b90508015610e9a5780610e4061203b565b1015610e5e5760405162461bcd60e51b8152600401610aea906142f9565b601954610e75906001600160a01b031633836134b5565b80601e541115610e9457601e54610e8c9082613352565b601e55610e9a565b6000601e555b6000610ec38360020154610e29601754610e23601c54886000015461349d90919063ffffffff16565b9050600081118015610ede5750601a54600160a01b900460ff165b15610f4e57601a546001600160a01b0316610f2657604051339082156108fc029083906000818181858888f19350505050158015610f20573d6000803e3d6000fd5b50610f3d565b601a54610f3d906001600160a01b031633836134b5565b601f54610f4a9082613352565b601f555b50505b80548290811115610f60575080545b8154610f6c9082613352565b8255601d54610f7b9082613352565b601d55600f5415611047576000610fa3612710610e23600f548561349d90919063ffffffff16565b90506000610fc2612710610e236011548561349d90919063ffffffff16565b90508015610ff457601254601854610fe7916001600160a01b039182169116836134b5565b610ff18382613352565b92505b6000611011612710610e236010548661349d90919063ffffffff16565b9050801561104357601354601854611036916001600160a01b039182169116836134b5565b6110408482613352565b93505b5050505b60185461105e906001600160a01b031633836134b5565b601654601b5483546110759291610e23919061349d565b6001830155601754601c5483546110919291610e23919061349d565b600283015560405183815233907f884edad9ce6fa2440d8a54cc123490eb96d2768479d49ff9c7366125a94243649060200160405180910390a250506001805550565b6000546001600160a01b031633146110fe5760405162461bcd60e51b8152600401610aea906141f0565b60075443116111415760405162461bcd60e51b815260206004820152600f60248201526e506f6f6c2069732072756e6e696e6760881b6044820152606401610aea565b601a546019546001600160a01b03908116911614611180578061116261203b565b10156111805760405162461bcd60e51b8152600401610aea906142f9565b806111905761118d61203b565b90505b6019546111a7906001600160a01b031633836134b5565b601e54156111d257601e548111156111c1576000601e5550565b601e546111ce9082613352565b601e555b50565b6000546001600160a01b031633146111ff5760405162461bcd60e51b8152600401610aea906141f0565b61120761351d565b565b6000546001600160a01b031633146112335760405162461bcd60e51b8152600401610aea906141f0565b6019546001600160a01b038381169116141561128a5760405162461bcd60e51b815260206004820152601660248201527521b0b73737ba103132903932bbb0b932103a37b5b2b760511b6044820152606401610aea565b6018546001600160a01b038381169116141561136c576018546040516370a0823160e01b81523060048201526000916001600160a01b0316906370a0823190602401602060405180830381865afa1580156112e9573d6000803e3d6000fd5b505050506040513d601f19601f8201168201806040525081019061130d9190614330565b9050611324601d548261335290919063ffffffff16565b82111561136a5760405162461bcd60e51b8152602060048201526014602482015273496e73756666696369656e742062616c616e636560601b6044820152606401610aea565b505b6001600160a01b0382166113ad57604051339082156108fc029083906000818181858888f193505050501580156113a7573d6000803e3d6000fd5b506113c1565b6113c16001600160a01b03831633836134b5565b604080516001600160a01b0384168152602081018390527f74f5dcd55c394cb1c6d3b9da22c2464bcc46c38cc3865bd629ed75823249b40b91015b60405180910390a15050565b6000546001600160a01b031633146114325760405162461bcd60e51b8152600401610aea906141f0565b61143a61335e565b6018546040516370a0823160e01b81523060048201526000916001600160a01b0316906370a0823190602401602060405180830381865afa158015611483573d6000803e3d6000fd5b505050506040513d601f19601f820116820180604052508101906114a79190614330565b90506114be601d548261335290919063ffffffff16565b905060006114e3602054610e29601754610e23601c548761349d90919063ffffffff16565b9050801561156957601a546001600160a01b031661153b576012546040516001600160a01b039091169082156108fc029083906000818181858888f19350505050158015611535573d6000803e3d6000fd5b50611558565b601254601a54611558916001600160a01b039182169116836134b5565b601f546115659082613352565b601f555b611584601754610e23601c548561349d90919063ffffffff16565b6020555050565b600260015414156115ae5760405162461bcd60e51b8152600401610aea906142c2565b60026001908155601a54600160a01b900460ff161515146116025760405162461bcd60e51b815260206004820152600e60248201526d4e6f207265666c656374696f6e7360901b6044820152606401610aea565b33600090815260216020526040902061161961364f565b61162161335e565b805461162d57506119a9565b60006116568260020154610e29601754610e23601c54876000015461349d90919063ffffffff16565b9050801561198757601f5461166b9082613352565b601f55601a546018546001600160a01b039081169116146118ae57601a546001600160a01b031661175c57600b54604080516315ab88c960e31b815290516000926001600160a01b03169163ad5c46489160048083019260209291908290030181865afa1580156116e0573d6000803e3d6000fd5b505050506040513d601f19601f820116820180604052508101906117049190614349565b9050806001600160a01b031663d0e30db0836040518263ffffffff1660e01b81526004016000604051808303818588803b15801561174157600080fd5b505af1158015611755573d6000803e3d6000fd5b5050505050505b6018546040516370a0823160e01b81523060048201526000916001600160a01b0316906370a0823190602401602060405180830381865afa1580156117a5573d6000803e3d6000fd5b505050506040513d601f19601f820116820180604052508101906117c99190614330565b905061183082600c80548060200260200160405190810160405280929190818152602001828054801561182557602002820191906000526020600020905b81546001600160a01b03168152600190910190602001808311611807575b50505050503061382d565b6018546040516370a0823160e01b81523060048201526000916001600160a01b0316906370a0823190602401602060405180830381865afa158015611879573d6000803e3d6000fd5b505050506040513d601f19601f8201168201806040525081019061189d9190614330565b90506118a98183613352565b925050505b60045460ff16156118e75760055482546118c9908390613996565b11156118e75760405162461bcd60e51b8152600401610aea90614366565b601d546118f49082613996565b601d5581546119039082613996565b8083556001830154601654601b5461194c936119359392610e29929091610e23919061192f9089613352565b9061349d565b601654601b548554610e299291610e23919061349d565b600183015560405181815233907fe1fffcc4923d04b559f4d29a8bfc6cda04eb5b0d3c460751c2402c5c5cc9109c9060200160405180910390a25b601754601c54835461199e9291610e23919061349d565b826002018190555050505b60018055565b600260015414156119d25760405162461bcd60e51b8152600401610aea906142c2565b60026001553360009081526021602052604090206119ee61364f565b6119f661335e565b8054611a0257506119a9565b6000611a2b8260010154610e29601654610e23601b54876000015461349d90919063ffffffff16565b90508015611cba5780611a3c61203b565b1015611a5a5760405162461bcd60e51b8152600401610aea906142f9565b80601e541115611a7957601e54611a719082613352565b601e55611a7f565b6000601e555b6019546018546001600160a01b03908116911614611be7576018546040516370a0823160e01b81523060048201526000916001600160a01b0316906370a0823190602401602060405180830381865afa158015611ae0573d6000803e3d6000fd5b505050506040513d601f19601f82011682018060405250810190611b049190614330565b9050611b6982600d805480602002602001604051908101604052809291908181526020018280548015611825576020028201919060005260206000209081546001600160a01b031681526001909101906020018083116118075750505050503061382d565b6018546040516370a0823160e01b81523060048201526000916001600160a01b0316906370a0823190602401602060405180830381865afa158015611bb2573d6000803e3d6000fd5b505050506040513d601f19601f82011682018060405250810190611bd69190614330565b9050611be28183613352565b925050505b60045460ff1615611c20576005548254611c02908390613996565b1115611c205760405162461bcd60e51b8152600401610aea90614366565b601d54611c2d9082613996565b601d558154611c3c9082613996565b8083556002830154601754601c54611c7f93611c689392610e29929091610e23919061192f9089613352565b601754601c548554610e299291610e23919061349d565b600283015560405181815233907fe1fffcc4923d04b559f4d29a8bfc6cda04eb5b0d3c460751c2402c5c5cc9109c9060200160405180910390a25b601654601b548354611cd19291610e23919061349d565b600192830155508055565b6000546001600160a01b03163314611d065760405162461bcd60e51b8152600401610aea906141f0565b61120760006139a2565b6000546001600160a01b03163314611d3a5760405162461bcd60e51b8152600401610aea906141f0565b6001600160a01b038116151580611d5f57506012546001600160a01b03828116911614155b611d7b5760405162461bcd60e51b8152600401610aea9061439d565b601280546001600160a01b0319166001600160a01b0383169081179091556040519081527f6de6ddf87fbce1f42220b349684d9b952eac9bffd639fd2093096032cb1d4d4e90602001610ce1565b6000546001600160a01b03163314611df35760405162461bcd60e51b8152600401610aea906141f0565b43600755565b6014546001600160a01b03163314611e535760405162461bcd60e51b815260206004820152601960248201527f73657453657276696365496e666f3a20464f5242494444454e000000000000006044820152606401610aea565b6001600160a01b038216151580611e7857506014546001600160a01b03838116911614155b611e945760405162461bcd60e51b8152600401610aea9061439d565b601480546001600160a01b0319166001600160a01b038416908117909155601582905560408051918252602082018390527f232f2e6280d2064b1e439bf40ecdada042d84eefbb55039e4c49e8dc4f4c90c991016113fc565b60026001541415611f105760405162461bcd60e51b8152600401610aea906142c2565b600260015580611f1f57600080fd5b6019546040516370a0823160e01b81523060048201526000916001600160a01b0316906370a0823190602401602060405180830381865afa158015611f68573d6000803e3d6000fd5b505050506040513d601f19601f82011682018060405250810190611f8c9190614330565b601954909150611fa7906001600160a01b03163330856139f2565b6019546040516370a0823160e01b81523060048201526000916001600160a01b0316906370a0823190602401602060405180830381865afa158015611ff0573d6000803e3d6000fd5b505050506040513d601f19601f820116820180604052508101906120149190614330565b905061202f82610e2983601e5461399690919063ffffffff16565b601e5550506001805550565b601a546019546000916001600160a01b039182169116141561205e5750601e5490565b6019546040516370a0823160e01b81523060048201526000916001600160a01b0316906370a0823190602401602060405180830381865afa1580156120a7573d6000803e3d6000fd5b505050506040513d601f19601f820116820180604052508101906120cb9190614330565b6018546019549192506001600160a01b039182169116141561210d57601d548110156120f957600091505090565b601d54612107908290613352565b91505090565b919050565b6000546001600160a01b0316331461213c5760405162461bcd60e51b8152600401610aea906141f0565b60045460ff1661217c5760405162461bcd60e51b815260206004820152600b60248201526a135d5cdd081899481cd95d60aa1b6044820152606401610aea565b81156121dd5760055481116121d35760405162461bcd60e51b815260206004820152601860248201527f4e6577206c696d6974206d7573742062652068696768657200000000000000006044820152606401610aea565b60058190556121f1565b6004805460ff191683151517905560006005555b7f241f67ee5f41b7a5cabf911367329be7215900f602ebfc47f89dce2a6bcd847c6005546040516113fc91815260200190565b600254600160a01b900460ff16156122745760405162461bcd60e51b8152602060048201526013602482015272105b1c9958591e481a5b9a5d1a585b1a5e9959606a1b6044820152606401610aea565b6002546001600160a01b031633146122bc5760405162461bcd60e51b815260206004820152600b60248201526a4e6f7420666163746f727960a81b6044820152606401610aea565b6002805460ff60a01b1916600160a01b908117909155601880546001600160a01b03808e166001600160a01b031992831617909255601980548d84169216919091179055601a80548415159093026001600160a81b0319909316918b169190911791909117905560088790556107d0861061236f5760405162461bcd60e51b8152602060048201526013602482015272496e76616c6964206465706f7369742066656560681b6044820152606401610aea565b6107d085106123b75760405162461bcd60e51b8152602060048201526014602482015273496e76616c69642077697468647261772066656560601b6044820152606401610aea565b600e869055600f859055601280546001600160a01b031916331790556019546040805163313ce56760e01b815290516000926001600160a01b03169163313ce5679160048083019260209291908290030181865afa15801561241d573d6000803e3d6000fd5b505050506040513d601f19601f8201168201806040525081019061244191906143c6565b60ff169050601e811061248f5760405162461bcd60e51b815260206004820152601660248201527504d75737420626520696e666572696f7220746f2033360541b6044820152606401610aea565b61249a602882613352565b6124a590600a6144e3565b601655601a546012906001600160a01b03161561258157601a60009054906101000a90046001600160a01b03166001600160a01b031663313ce5676040518163ffffffff1660e01b8152600401602060405180830381865afa15801561250f573d6000803e3d6000fd5b505050506040513d601f19601f8201168201806040525081019061253391906143c6565b60ff169050601e81106125815760405162461bcd60e51b815260206004820152601660248201527504d75737420626520696e666572696f7220746f2033360541b6044820152606401610aea565b61258c602882613352565b61259790600a6144e3565b601755600b80546001600160a01b0319166001600160a01b03881617905584516125c890600d906020880190613e6b565b5083516125dc90600c906020870190613e6b565b506125e561351d565b505050505050505050505050565b600260015414156126165760405162461bcd60e51b8152600401610aea906142c2565b6002600155806126685760405162461bcd60e51b815260206004820152601f60248201527f416d6f756e742073686f756c642062652067726561746572207468616e2030006044820152606401610aea565b33600090815260216020526040902060045460ff16156126b0576005548154612692908490613996565b11156126b05760405162461bcd60e51b8152600401610aea90614366565b6126b861335e565b80541561280a5760006126e88260010154610e29601654610e23601b54876000015461349d90919063ffffffff16565b9050801561275357806126f961203b565b10156127175760405162461bcd60e51b8152600401610aea906142f9565b60195461272e906001600160a01b031633836134b5565b80601e54111561274d57601e546127459082613352565b601e55612753565b6000601e555b600061277c8360020154610e29601754610e23601c54886000015461349d90919063ffffffff16565b90506000811180156127975750601a54600160a01b900460ff165b1561280757601a546001600160a01b03166127df57604051339082156108fc029083906000818181858888f193505050501580156127d9573d6000803e3d6000fd5b506127f6565b601a546127f6906001600160a01b031633836134b5565b601f546128039082613352565b601f555b50505b6018546040516370a0823160e01b81523060048201526000916001600160a01b0316906370a0823190602401602060405180830381865afa158015612853573d6000803e3d6000fd5b505050506040513d601f19601f820116820180604052508101906128779190614330565b601854909150612892906001600160a01b03163330866139f2565b6018546040516370a0823160e01b81523060048201526000916001600160a01b0316906370a0823190602401602060405180830381865afa1580156128db573d6000803e3d6000fd5b505050506040513d601f19601f820116820180604052508101906128ff9190614330565b9050600061290d8284613352565b600e5490915015612969576000612935612710610e23600e548561349d90919063ffffffff16565b905080156129675760125460185461295a916001600160a01b039182169116836134b5565b6129648282613352565b91505b505b83546129759082613996565b808555601654601b5461298b92610e239161349d565b6001850155601754601c5485546129a79291610e23919061349d565b6002850155601d546129b99082613996565b601d5560405181815233907fe1fffcc4923d04b559f4d29a8bfc6cda04eb5b0d3c460751c2402c5c5cc9109c9060200160405180910390a2505060018055505050565b60026001541415612a1f5760405162461bcd60e51b8152600401610aea906142c2565b6002600155336000908152602160205260409020612a3b61364f565b612a4361335e565b8054612a4f57506119a9565b6000612a788260010154610e29601654610e23601b54876000015461349d90919063ffffffff16565b90508015611cba5780612a8961203b565b1015612aa75760405162461bcd60e51b8152600401610aea906142f9565b601954612abe906001600160a01b031633836134b5565b80601e541115612add57601e54612ad59082613352565b601e55611cba565b6000601e55601654601b548354611cd19291610e23919061349d565b601a546000906001600160a01b0316612b1157504790565b601a546040516370a0823160e01b81523060048201526000916001600160a01b0316906370a0823190602401602060405180830381865afa158015612b5a573d6000803e3d6000fd5b505050506040513d601f19601f82011682018060405250810190612b7e9190614330565b601954601a549192506001600160a01b0391821691161415612bbd57601e54811015612bac57600091505090565b601e54612bba908290613352565b90505b601854601a546001600160a01b039081169116141561210d57601d54811015612be857600091505090565b601d54612bf6908290613352565b92915050565b600d8181548110610cfc57600080fd5b6001600160a01b0381166000908152602160205260408120601d54612c345750600092915050565b6000612c3e612af9565b6018546040516370a0823160e01b81523060048201529192506000916001600160a01b03909116906370a0823190602401602060405180830381865afa158015612c8c573d6000803e3d6000fd5b505050506040513d601f19601f82011682018060405250810190612cb09190614330565b90506000612cdf612cd683610e2360175461192f601f548961335290919063ffffffff16565b601c5490613996565b90506000612d088560020154610e29601754610e23868a6000015461349d90919063ffffffff16565b979650505050505050565b6000546001600160a01b03163314612d3d5760405162461bcd60e51b8152600401610aea906141f0565b60065415612d885760405162461bcd60e51b8152602060048201526018602482015277141bdbdb081dd85cc8185b1c9958591e481cdd185c9d195960421b6044820152606401610aea565b612d924382613996565b600655600354612db190612da8906170806144ef565b60065490613996565b6007819055600654612dc29161450e565b612dca61203b565b612dd49190614525565b60085560065460098190556007546040517f7cd0ab87d19036f3dfadadb232c78aa4879dda3f0c994a9d637532410ee2ce0692610ce192908252602082015260400190565b6000546001600160a01b03163314612e435760405162461bcd60e51b8152600401610aea906141f0565b6001600160a01b038116151580612e6857506013546001600160a01b03828116911614155b612e845760405162461bcd60e51b8152600401610aea9061439d565b601380546001600160a01b0319166001600160a01b0383169081179091556040519081527f8a9b7fb782d8cd36cf5ad685904b90ca468e92438523cf13ea97450249e41c2a90602001610ce1565b60026001541415612ef55760405162461bcd60e51b8152600401610aea906142c2565b600260018181553360009081526021602052604081208054828255928101829055928301558015612f4857601854612f37906001600160a01b031633836134b5565b601d54612f449082613352565b601d555b815460405190815233907f5fafa99d0643513820be26656b45130b01e1c03062e1266bf36f88cbd3bd96959060200160405180910390a2505060018055565b60026001541415612faa5760405162461bcd60e51b8152600401610aea906142c2565b60026001908155601a54600160a01b900460ff16151514612ffe5760405162461bcd60e51b815260206004820152600e60248201526d4e6f207265666c656374696f6e7360901b6044820152606401610aea565b33600090815260216020526040902061301561364f565b61301d61335e565b805461302957506119a9565b60006130528260020154610e29601754610e23601c54876000015461349d90919063ffffffff16565b9050801561198757601a546001600160a01b031661309d57604051339082156108fc029083906000818181858888f19350505050158015613097573d6000803e3d6000fd5b506130b4565b601a546130b4906001600160a01b031633836134b5565b601f546130c19082613352565b601f55601754601c54835461199e9291610e23919061349d565b6000546001600160a01b031633146131055760405162461bcd60e51b8152600401610aea906141f0565b6001600160a01b03811661316a5760405162461bcd60e51b815260206004820152602660248201527f4f776e61626c653a206e6577206f776e657220697320746865207a65726f206160448201526564647265737360d01b6064820152608401610aea565b6111d2816139a2565b6001600160a01b03811660009081526021602052604081206009544311801561319d5750601d5415155b80156131ab57506000600954115b156132335760006131be60095443613a30565b905060006131d76008548361349d90919063ffffffff16565b905060006132026131f9601d54610e236016548661349d90919063ffffffff16565b601b5490613996565b90506132298460010154610e29601654610e2385896000015461349d90919063ffffffff16565b9695505050505050565b61325a8160010154610e29601654610e23601b54866000015461349d90919063ffffffff16565b9392505050565b6000546001600160a01b0316331461328b5760405162461bcd60e51b8152600401610aea906141f0565b600654156132d65760405162461bcd60e51b8152602060048201526018602482015277141bdbdb081dd85cc8185b1c9958591e481cdd185c9d195960421b6044820152606401610aea565b601e81101561331d5760405162461bcd60e51b81526020600482015260136024820152721b1bddd95c881b1a5b5a5d081c995858da1959606a1b6044820152606401610aea565b60038190556040518181527f91abcc2d6823e3a3f11d31b208dd3065d2c6a791f1c7c9fe96a42ce12897eac590602001610ce1565b600061325a828461450e565b6000601d541180156133795750601a54600160a01b900460ff165b15613426576000613388612af9565b6018546040516370a0823160e01b81523060048201529192506000916001600160a01b03909116906370a0823190602401602060405180830381865afa1580156133d6573d6000803e3d6000fd5b505050506040513d601f19601f820116820180604052508101906133fa9190614330565b905061341e612cd682610e2360175461192f601f548861335290919063ffffffff16565b601c5550601f555b600954431115806134375750600954155b1561343e57565b601d5461344b5743600955565b600061345960095443613a30565b905060006134726008548361349d90919063ffffffff16565b90506134926131f9601d54610e236016548561349d90919063ffffffff16565b601b55505043600955565b600061325a82846144ef565b600061325a8284614525565b6040516001600160a01b03831660248201526044810182905261351890849063a9059cbb60e01b906064015b60408051601f198184030181529190526020810180516001600160e01b03166001600160e01b031990931692909217909152613a6a565b505050565b600b5460195461353b916001600160a01b0391821691166000613b3c565b600b5460195461355a916001600160a01b039182169116600019613c51565b601a546001600160a01b031661361257600b54604080516315ab88c960e31b815290516000926001600160a01b03169163ad5c46489160048083019260209291908290030181865afa1580156135b4573d6000803e3d6000fd5b505050506040513d601f19601f820116820180604052508101906135d89190614349565b600b549091506135f6906001600160a01b0380841691166000613b3c565b600b546111d2906001600160a01b038381169116600019613c51565b600b54601a54613630916001600160a01b0391821691166000613b3c565b600b54601a54611207916001600160a01b039182169116600019613c51565b6015543410156136b55760405162461bcd60e51b815260206004820152602b60248201527f73686f756c642070617920736d616c6c2067617320746f20636f6d706f756e6460448201526a081bdc881a185c9d995cdd60aa1b6064820152608401610aea565b6014546015546040516000926001600160a01b031691908381818185875af1925050503d8060008114613704576040519150601f19603f3d011682016040523d82523d6000602084013e613709565b606091505b50509050806137655760405162461bcd60e51b815260206004820152602260248201527f4661696c656420746f207472616e7366657220706572666f726d616e63652066604482015261656560f01b6064820152608401610aea565b6015543411156111d2576015546000903390613782903490613352565b604051600081818185875af1925050503d80600081146137be576040519150601f19603f3d011682016040523d82523d6000602084013e6137c3565b606091505b50509050806138295760405162461bcd60e51b815260206004820152602c60248201527f4661696c656420746f20726566756e64207375706572666c756f75732070657260448201526b666f726d616e63652066656560a01b6064820152608401610aea565b5050565b600b5460405163d06ca61f60e01b81526000916001600160a01b03169063d06ca61f906138609087908790600401614547565b600060405180830381865afa15801561387d573d6000803e3d6000fd5b505050506040513d6000823e601f3d908101601f191682016040526138a59190810190614560565b90506000816138bf6001845161335290919063ffffffff16565b815181106138cf576138cf6145e6565b60200260200101519050600b60009054906101000a90046001600160a01b03166001600160a01b03166338ed1739866139196103e8610e23600a548761349d90919063ffffffff16565b878761392742610258613996565b6040518663ffffffff1660e01b81526004016139479594939291906145fc565b6000604051808303816000875af1158015613966573d6000803e3d6000fd5b505050506040513d6000823e601f3d908101601f1916820160405261398e9190810190614560565b505050505050565b600061325a8284614638565b600080546001600160a01b038381166001600160a01b0319831681178455604051919092169283917f8be0079c531659141344cd1fd0a4f28419497f9722a3daafe3b4186f6b6457e09190a35050565b6040516001600160a01b0380851660248301528316604482015260648101829052613a2a9085906323b872dd60e01b906084016134e1565b50505050565b60006007548211613a4c57613a458284613352565b9050612bf6565b6007548310613a5d57506000612bf6565b600754613a459084613352565b6000613abf826040518060400160405280602081526020017f5361666545524332303a206c6f772d6c6576656c2063616c6c206661696c6564815250856001600160a01b0316613d039092919063ffffffff16565b8051909150156135185780806020019051810190613add9190614650565b6135185760405162461bcd60e51b815260206004820152602a60248201527f5361666545524332303a204552433230206f7065726174696f6e20646964206e6044820152691bdd081cdd58d8d9595960b21b6064820152608401610aea565b801580613bb65750604051636eb1769f60e11b81523060048201526001600160a01b03838116602483015284169063dd62ed3e90604401602060405180830381865afa158015613b90573d6000803e3d6000fd5b505050506040513d601f19601f82011682018060405250810190613bb49190614330565b155b613c215760405162461bcd60e51b815260206004820152603660248201527f5361666545524332303a20617070726f76652066726f6d206e6f6e2d7a65726f60448201527520746f206e6f6e2d7a65726f20616c6c6f77616e636560501b6064820152608401610aea565b6040516001600160a01b03831660248201526044810182905261351890849063095ea7b360e01b906064016134e1565b604051636eb1769f60e11b81523060048201526001600160a01b038381166024830152600091839186169063dd62ed3e90604401602060405180830381865afa158015613ca2573d6000803e3d6000fd5b505050506040513d601f19601f82011682018060405250810190613cc69190614330565b613cd09190614638565b6040516001600160a01b038516602482015260448101829052909150613a2a90859063095ea7b360e01b906064016134e1565b6060613d128484600085613d1a565b949350505050565b606082471015613d7b5760405162461bcd60e51b815260206004820152602660248201527f416464726573733a20696e73756666696369656e742062616c616e636520666f6044820152651c8818d85b1b60d21b6064820152608401610aea565b843b613dc95760405162461bcd60e51b815260206004820152601d60248201527f416464726573733a2063616c6c20746f206e6f6e2d636f6e74726163740000006044820152606401610aea565b600080866001600160a01b03168587604051613de59190614699565b60006040518083038185875af1925050503d8060008114613e22576040519150601f19603f3d011682016040523d82523d6000602084013e613e27565b606091505b5091509150612d0882828660608315613e4157508161325a565b825115613e515782518084602001fd5b8160405162461bcd60e51b8152600401610aea91906146b5565b828054828255906000526020600020908101928215613ec0579160200282015b82811115613ec057825182546001600160a01b0319166001600160a01b03909116178255602090920191600190910190613e8b565b50613ecc929150613ed0565b5090565b5b80821115613ecc5760008155600101613ed1565b6001600160a01b03811681146111d257600080fd5b803561210d81613ee5565b634e487b7160e01b600052604160045260246000fd5b604051601f8201601f1916810167ffffffffffffffff81118282101715613f4457613f44613f05565b604052919050565b600067ffffffffffffffff821115613f6657613f66613f05565b5060051b60200190565b600082601f830112613f8157600080fd5b81356020613f96613f9183613f4c565b613f1b565b82815260059290921b84018101918181019086841115613fb557600080fd5b8286015b84811015613fd9578035613fcc81613ee5565b8352918301918301613fb9565b509695505050505050565b600080600080600080600060e0888a031215613fff57600080fd5b87359650602088013595506040880135945060608801359350608088013561402681613ee5565b925060a088013567ffffffffffffffff8082111561404357600080fd5b61404f8b838c01613f70565b935060c08a013591508082111561406557600080fd5b506140728a828b01613f70565b91505092959891949750929550565b60006020828403121561409357600080fd5b5035919050565b6000602082840312156140ac57600080fd5b813561325a81613ee5565b600080604083850312156140ca57600080fd5b82356140d581613ee5565b946020939093013593505050565b80151581146111d257600080fd5b803561210d816140e3565b6000806040838503121561410f57600080fd5b82356140d5816140e3565b6000806000806000806000806000806101408b8d03121561413a57600080fd5b6141438b613efa565b995061415160208c01613efa565b985061415f60408c01613efa565b975060608b0135965060808b0135955060a08b0135945061418260c08c01613efa565b935060e08b013567ffffffffffffffff8082111561419f57600080fd5b6141ab8e838f01613f70565b94506101008d01359150808211156141c257600080fd5b506141cf8d828e01613f70565b9250506141df6101208c016140f1565b90509295989b9194979a5092959850565b6020808252818101527f4f776e61626c653a2063616c6c6572206973206e6f7420746865206f776e6572604082015260600190565b600081518084526020808501945080840160005b8381101561425e5781516001600160a01b031687529582019590820190600101614239565b509495945050505050565b87815286602082015285604082015284606082015260018060a01b038416608082015260e060a082015260006142a260e0830185614225565b82810360c08401526142b48185614225565b9a9950505050505050505050565b6020808252601f908201527f5265656e7472616e637947756172643a207265656e7472616e742063616c6c00604082015260600190565b6020808252601a908201527f496e73756666696369656e742072657761726420746f6b656e73000000000000604082015260600190565b60006020828403121561434257600080fd5b5051919050565b60006020828403121561435b57600080fd5b815161325a81613ee5565b60208082526017908201527f5573657220616d6f756e742061626f7665206c696d6974000000000000000000604082015260600190565b6020808252600f908201526e496e76616c6964206164647265737360881b604082015260600190565b6000602082840312156143d857600080fd5b815160ff8116811461325a57600080fd5b634e487b7160e01b600052601160045260246000fd5b600181815b8085111561443a578160001904821115614420576144206143e9565b8085161561442d57918102915b93841c9390800290614404565b509250929050565b60008261445157506001612bf6565b8161445e57506000612bf6565b8160018114614474576002811461447e5761449a565b6001915050612bf6565b60ff84111561448f5761448f6143e9565b50506001821b612bf6565b5060208310610133831016604e8410600b84101617156144bd575081810a612bf6565b6144c783836143ff565b80600019048211156144db576144db6143e9565b029392505050565b600061325a8383614442565b6000816000190483118215151615614509576145096143e9565b500290565b600082821015614520576145206143e9565b500390565b60008261454257634e487b7160e01b600052601260045260246000fd5b500490565b828152604060208201526000613d126040830184614225565b6000602080838503121561457357600080fd5b825167ffffffffffffffff81111561458a57600080fd5b8301601f8101851361459b57600080fd5b80516145a9613f9182613f4c565b81815260059190911b820183019083810190878311156145c857600080fd5b928401925b82841015612d08578351825292840192908401906145cd565b634e487b7160e01b600052603260045260246000fd5b85815284602082015260a06040820152600061461b60a0830186614225565b6001600160a01b0394909416606083015250608001529392505050565b6000821982111561464b5761464b6143e9565b500190565b60006020828403121561466257600080fd5b815161325a816140e3565b60005b83811015614688578181015183820152602001614670565b83811115613a2a5750506000910152565b600082516146ab81846020870161466d565b9190910192915050565b60208152600082518060208401526146d481604085016020870161466d565b601f01601f1916919091016040019291505056fea264697066735822122015686d3773df91a498373b4d72071fb11e8f803a198f89e654ffe891acc2059264736f6c634300080c0033",
  "linkReferences": {},
  "deployedLinkReferences": {}
}