{
  "_format": "hh-sol-artifact-1",
  "contractName": "PawswapRouter",
  "sourceName": "contracts/PawswapRouter.sol",
  "abi": [
    {
      "inputs": [
        {
          "internalType": "address",
          "name": "_factory",
          "type": "address"
        },
        {
          "internalType": "address",
          "name": "_WETH",
          "type": "address"
        }
      ],
      "stateMutability": "nonpayable",
      "type": "constructor"
    },
    {
      "inputs": [],
      "name": "WETH",
      "outputs": [
        {
          "internalType": "address",
          "name": "",
          "type": "address"
        }
      ],
      "stateMutability": "view",
      "type": "function"
    },
    {
      "inputs": [
        {
          "internalType": "address",
          "name": "tokenA",
          "type": "address"
        },
        {
          "internalType": "address",
          "name": "tokenB",
          "type": "address"
        },
        {
          "internalType": "uint256",
          "name": "amountADesired",
          "type": "uint256"
        },
        {
          "internalType": "uint256",
          "name": "amountBDesired",
          "type": "uint256"
        },
        {
          "internalType": "uint256",
          "name": "amountAMin",
          "type": "uint256"
        },
        {
          "internalType": "uint256",
          "name": "amountBMin",
          "type": "uint256"
        },
        {
          "internalType": "address",
          "name": "to",
          "type": "address"
        },
        {
          "internalType": "uint256",
          "name": "deadline",
          "type": "uint256"
        }
      ],
      "name": "addLiquidity",
      "outputs": [
        {
          "internalType": "uint256",
          "name": "amountA",
          "type": "uint256"
        },
        {
          "internalType": "uint256",
          "name": "amountB",
          "type": "uint256"
        },
        {
          "internalType": "uint256",
          "name": "liquidity",
          "type": "uint256"
        }
      ],
      "stateMutability": "nonpayable",
      "type": "function"
    },
    {
      "inputs": [
        {
          "internalType": "address",
          "name": "token",
          "type": "address"
        },
        {
          "internalType": "uint256",
          "name": "amountTokenDesired",
          "type": "uint256"
        },
        {
          "internalType": "uint256",
          "name": "amountTokenMin",
          "type": "uint256"
        },
        {
          "internalType": "uint256",
          "name": "amountETHMin",
          "type": "uint256"
        },
        {
          "internalType": "address",
          "name": "to",
          "type": "address"
        },
        {
          "internalType": "uint256",
          "name": "deadline",
          "type": "uint256"
        }
      ],
      "name": "addLiquidityETH",
      "outputs": [
        {
          "internalType": "uint256",
          "name": "amountToken",
          "type": "uint256"
        },
        {
          "internalType": "uint256",
          "name": "amountETH",
          "type": "uint256"
        },
        {
          "internalType": "uint256",
          "name": "liquidity",
          "type": "uint256"
        }
      ],
      "stateMutability": "payable",
      "type": "function"
    },
    {
      "inputs": [],
      "name": "factory",
      "outputs": [
        {
          "internalType": "address",
          "name": "",
          "type": "address"
        }
      ],
      "stateMutability": "view",
      "type": "function"
    },
    {
      "inputs": [
        {
          "internalType": "uint256",
          "name": "amountOut",
          "type": "uint256"
        },
        {
          "internalType": "uint256",
          "name": "reserveIn",
          "type": "uint256"
        },
        {
          "internalType": "uint256",
          "name": "reserveOut",
          "type": "uint256"
        }
      ],
      "name": "getAmountIn",
      "outputs": [
        {
          "internalType": "uint256",
          "name": "amountIn",
          "type": "uint256"
        }
      ],
      "stateMutability": "pure",
      "type": "function"
    },
    {
      "inputs": [
        {
          "internalType": "uint256",
          "name": "amountIn",
          "type": "uint256"
        },
        {
          "internalType": "uint256",
          "name": "reserveIn",
          "type": "uint256"
        },
        {
          "internalType": "uint256",
          "name": "reserveOut",
          "type": "uint256"
        }
      ],
      "name": "getAmountOut",
      "outputs": [
        {
          "internalType": "uint256",
          "name": "amountOut",
          "type": "uint256"
        }
      ],
      "stateMutability": "pure",
      "type": "function"
    },
    {
      "inputs": [
        {
          "internalType": "uint256",
          "name": "amountOut",
          "type": "uint256"
        },
        {
          "internalType": "address[]",
          "name": "path",
          "type": "address[]"
        }
      ],
      "name": "getAmountsIn",
      "outputs": [
        {
          "internalType": "uint256[]",
          "name": "amounts",
          "type": "uint256[]"
        }
      ],
      "stateMutability": "view",
      "type": "function"
    },
    {
      "inputs": [
        {
          "internalType": "uint256",
          "name": "amountIn",
          "type": "uint256"
        },
        {
          "internalType": "address[]",
          "name": "path",
          "type": "address[]"
        }
      ],
      "name": "getAmountsOut",
      "outputs": [
        {
          "internalType": "uint256[]",
          "name": "amounts",
          "type": "uint256[]"
        }
      ],
      "stateMutability": "view",
      "type": "function"
    },
    {
      "inputs": [
        {
          "internalType": "uint256",
          "name": "amountA",
          "type": "uint256"
        },
        {
          "internalType": "uint256",
          "name": "reserveA",
          "type": "uint256"
        },
        {
          "internalType": "uint256",
          "name": "reserveB",
          "type": "uint256"
        }
      ],
      "name": "quote",
      "outputs": [
        {
          "internalType": "uint256",
          "name": "amountB",
          "type": "uint256"
        }
      ],
      "stateMutability": "pure",
      "type": "function"
    },
    {
      "inputs": [
        {
          "internalType": "address",
          "name": "tokenA",
          "type": "address"
        },
        {
          "internalType": "address",
          "name": "tokenB",
          "type": "address"
        },
        {
          "internalType": "uint256",
          "name": "liquidity",
          "type": "uint256"
        },
        {
          "internalType": "uint256",
          "name": "amountAMin",
          "type": "uint256"
        },
        {
          "internalType": "uint256",
          "name": "amountBMin",
          "type": "uint256"
        },
        {
          "internalType": "address",
          "name": "to",
          "type": "address"
        },
        {
          "internalType": "uint256",
          "name": "deadline",
          "type": "uint256"
        }
      ],
      "name": "removeLiquidity",
      "outputs": [
        {
          "internalType": "uint256",
          "name": "amountA",
          "type": "uint256"
        },
        {
          "internalType": "uint256",
          "name": "amountB",
          "type": "uint256"
        }
      ],
      "stateMutability": "nonpayable",
      "type": "function"
    },
    {
      "inputs": [
        {
          "internalType": "address",
          "name": "token",
          "type": "address"
        },
        {
          "internalType": "uint256",
          "name": "liquidity",
          "type": "uint256"
        },
        {
          "internalType": "uint256",
          "name": "amountTokenMin",
          "type": "uint256"
        },
        {
          "internalType": "uint256",
          "name": "amountETHMin",
          "type": "uint256"
        },
        {
          "internalType": "address",
          "name": "to",
          "type": "address"
        },
        {
          "internalType": "uint256",
          "name": "deadline",
          "type": "uint256"
        }
      ],
      "name": "removeLiquidityETH",
      "outputs": [
        {
          "internalType": "uint256",
          "name": "amountToken",
          "type": "uint256"
        },
        {
          "internalType": "uint256",
          "name": "amountETH",
          "type": "uint256"
        }
      ],
      "stateMutability": "nonpayable",
      "type": "function"
    },
    {
      "inputs": [
        {
          "internalType": "address",
          "name": "token",
          "type": "address"
        },
        {
          "internalType": "uint256",
          "name": "liquidity",
          "type": "uint256"
        },
        {
          "internalType": "uint256",
          "name": "amountTokenMin",
          "type": "uint256"
        },
        {
          "internalType": "uint256",
          "name": "amountETHMin",
          "type": "uint256"
        },
        {
          "internalType": "address",
          "name": "to",
          "type": "address"
        },
        {
          "internalType": "uint256",
          "name": "deadline",
          "type": "uint256"
        }
      ],
      "name": "removeLiquidityETHSupportingFeeOnTransferTokens",
      "outputs": [
        {
          "internalType": "uint256",
          "name": "amountETH",
          "type": "uint256"
        }
      ],
      "stateMutability": "nonpayable",
      "type": "function"
    },
    {
      "inputs": [
        {
          "internalType": "address",
          "name": "token",
          "type": "address"
        },
        {
          "internalType": "uint256",
          "name": "liquidity",
          "type": "uint256"
        },
        {
          "internalType": "uint256",
          "name": "amountTokenMin",
          "type": "uint256"
        },
        {
          "internalType": "uint256",
          "name": "amountETHMin",
          "type": "uint256"
        },
        {
          "internalType": "address",
          "name": "to",
          "type": "address"
        },
        {
          "internalType": "uint256",
          "name": "deadline",
          "type": "uint256"
        },
        {
          "internalType": "bool",
          "name": "approveMax",
          "type": "bool"
        },
        {
          "internalType": "uint8",
          "name": "v",
          "type": "uint8"
        },
        {
          "internalType": "bytes32",
          "name": "r",
          "type": "bytes32"
        },
        {
          "internalType": "bytes32",
          "name": "s",
          "type": "bytes32"
        }
      ],
      "name": "removeLiquidityETHWithPermit",
      "outputs": [
        {
          "internalType": "uint256",
          "name": "amountToken",
          "type": "uint256"
        },
        {
          "internalType": "uint256",
          "name": "amountETH",
          "type": "uint256"
        }
      ],
      "stateMutability": "nonpayable",
      "type": "function"
    },
    {
      "inputs": [
        {
          "internalType": "address",
          "name": "token",
          "type": "address"
        },
        {
          "internalType": "uint256",
          "name": "liquidity",
          "type": "uint256"
        },
        {
          "internalType": "uint256",
          "name": "amountTokenMin",
          "type": "uint256"
        },
        {
          "internalType": "uint256",
          "name": "amountETHMin",
          "type": "uint256"
        },
        {
          "internalType": "address",
          "name": "to",
          "type": "address"
        },
        {
          "internalType": "uint256",
          "name": "deadline",
          "type": "uint256"
        },
        {
          "internalType": "bool",
          "name": "approveMax",
          "type": "bool"
        },
        {
          "internalType": "uint8",
          "name": "v",
          "type": "uint8"
        },
        {
          "internalType": "bytes32",
          "name": "r",
          "type": "bytes32"
        },
        {
          "internalType": "bytes32",
          "name": "s",
          "type": "bytes32"
        }
      ],
      "name": "removeLiquidityETHWithPermitSupportingFeeOnTransferTokens",
      "outputs": [
        {
          "internalType": "uint256",
          "name": "amountETH",
          "type": "uint256"
        }
      ],
      "stateMutability": "nonpayable",
      "type": "function"
    },
    {
      "inputs": [
        {
          "internalType": "address",
          "name": "tokenA",
          "type": "address"
        },
        {
          "internalType": "address",
          "name": "tokenB",
          "type": "address"
        },
        {
          "internalType": "uint256",
          "name": "liquidity",
          "type": "uint256"
        },
        {
          "internalType": "uint256",
          "name": "amountAMin",
          "type": "uint256"
        },
        {
          "internalType": "uint256",
          "name": "amountBMin",
          "type": "uint256"
        },
        {
          "internalType": "address",
          "name": "to",
          "type": "address"
        },
        {
          "internalType": "uint256",
          "name": "deadline",
          "type": "uint256"
        },
        {
          "internalType": "bool",
          "name": "approveMax",
          "type": "bool"
        },
        {
          "internalType": "uint8",
          "name": "v",
          "type": "uint8"
        },
        {
          "internalType": "bytes32",
          "name": "r",
          "type": "bytes32"
        },
        {
          "internalType": "bytes32",
          "name": "s",
          "type": "bytes32"
        }
      ],
      "name": "removeLiquidityWithPermit",
      "outputs": [
        {
          "internalType": "uint256",
          "name": "amountA",
          "type": "uint256"
        },
        {
          "internalType": "uint256",
          "name": "amountB",
          "type": "uint256"
        }
      ],
      "stateMutability": "nonpayable",
      "type": "function"
    },
    {
      "inputs": [
        {
          "internalType": "uint256",
          "name": "amountOut",
          "type": "uint256"
        },
        {
          "internalType": "address[]",
          "name": "path",
          "type": "address[]"
        },
        {
          "internalType": "address",
          "name": "to",
          "type": "address"
        },
        {
          "internalType": "uint256",
          "name": "deadline",
          "type": "uint256"
        }
      ],
      "name": "swapETHForExactTokens",
      "outputs": [
        {
          "internalType": "uint256[]",
          "name": "amounts",
          "type": "uint256[]"
        }
      ],
      "stateMutability": "payable",
      "type": "function"
    },
    {
      "inputs": [
        {
          "internalType": "uint256",
          "name": "amountOutMin",
          "type": "uint256"
        },
        {
          "internalType": "address[]",
          "name": "path",
          "type": "address[]"
        },
        {
          "internalType": "address",
          "name": "to",
          "type": "address"
        },
        {
          "internalType": "uint256",
          "name": "deadline",
          "type": "uint256"
        }
      ],
      "name": "swapExactETHForTokens",
      "outputs": [
        {
          "internalType": "uint256[]",
          "name": "amounts",
          "type": "uint256[]"
        }
      ],
      "stateMutability": "payable",
      "type": "function"
    },
    {
      "inputs": [
        {
          "internalType": "uint256",
          "name": "amountOutMin",
          "type": "uint256"
        },
        {
          "internalType": "address[]",
          "name": "path",
          "type": "address[]"
        },
        {
          "internalType": "address",
          "name": "to",
          "type": "address"
        },
        {
          "internalType": "uint256",
          "name": "deadline",
          "type": "uint256"
        }
      ],
      "name": "swapExactETHForTokensSupportingFeeOnTransferTokens",
      "outputs": [],
      "stateMutability": "payable",
      "type": "function"
    },
    {
      "inputs": [
        {
          "internalType": "uint256",
          "name": "amountIn",
          "type": "uint256"
        },
        {
          "internalType": "uint256",
          "name": "amountOutMin",
          "type": "uint256"
        },
        {
          "internalType": "address[]",
          "name": "path",
          "type": "address[]"
        },
        {
          "internalType": "address",
          "name": "to",
          "type": "address"
        },
        {
          "internalType": "uint256",
          "name": "deadline",
          "type": "uint256"
        }
      ],
      "name": "swapExactTokensForETH",
      "outputs": [
        {
          "internalType": "uint256[]",
          "name": "amounts",
          "type": "uint256[]"
        }
      ],
      "stateMutability": "nonpayable",
      "type": "function"
    },
    {
      "inputs": [
        {
          "internalType": "uint256",
          "name": "amountIn",
          "type": "uint256"
        },
        {
          "internalType": "uint256",
          "name": "amountOutMin",
          "type": "uint256"
        },
        {
          "internalType": "address[]",
          "name": "path",
          "type": "address[]"
        },
        {
          "internalType": "address",
          "name": "to",
          "type": "address"
        },
        {
          "internalType": "uint256",
          "name": "deadline",
          "type": "uint256"
        }
      ],
      "name": "swapExactTokensForETHSupportingFeeOnTransferTokens",
      "outputs": [],
      "stateMutability": "nonpayable",
      "type": "function"
    },
    {
      "inputs": [
        {
          "internalType": "uint256",
          "name": "amountIn",
          "type": "uint256"
        },
        {
          "internalType": "uint256",
          "name": "amountOutMin",
          "type": "uint256"
        },
        {
          "internalType": "address[]",
          "name": "path",
          "type": "address[]"
        },
        {
          "internalType": "address",
          "name": "to",
          "type": "address"
        },
        {
          "internalType": "uint256",
          "name": "deadline",
          "type": "uint256"
        }
      ],
      "name": "swapExactTokensForTokens",
      "outputs": [
        {
          "internalType": "uint256[]",
          "name": "amounts",
          "type": "uint256[]"
        }
      ],
      "stateMutability": "nonpayable",
      "type": "function"
    },
    {
      "inputs": [
        {
          "internalType": "uint256",
          "name": "amountIn",
          "type": "uint256"
        },
        {
          "internalType": "uint256",
          "name": "amountOutMin",
          "type": "uint256"
        },
        {
          "internalType": "address[]",
          "name": "path",
          "type": "address[]"
        },
        {
          "internalType": "address",
          "name": "to",
          "type": "address"
        },
        {
          "internalType": "uint256",
          "name": "deadline",
          "type": "uint256"
        }
      ],
      "name": "swapExactTokensForTokensSupportingFeeOnTransferTokens",
      "outputs": [],
      "stateMutability": "nonpayable",
      "type": "function"
    },
    {
      "inputs": [
        {
          "internalType": "uint256",
          "name": "amountOut",
          "type": "uint256"
        },
        {
          "internalType": "uint256",
          "name": "amountInMax",
          "type": "uint256"
        },
        {
          "internalType": "address[]",
          "name": "path",
          "type": "address[]"
        },
        {
          "internalType": "address",
          "name": "to",
          "type": "address"
        },
        {
          "internalType": "uint256",
          "name": "deadline",
          "type": "uint256"
        }
      ],
      "name": "swapTokensForExactETH",
      "outputs": [
        {
          "internalType": "uint256[]",
          "name": "amounts",
          "type": "uint256[]"
        }
      ],
      "stateMutability": "nonpayable",
      "type": "function"
    },
    {
      "inputs": [
        {
          "internalType": "uint256",
          "name": "amountOut",
          "type": "uint256"
        },
        {
          "internalType": "uint256",
          "name": "amountInMax",
          "type": "uint256"
        },
        {
          "internalType": "address[]",
          "name": "path",
          "type": "address[]"
        },
        {
          "internalType": "address",
          "name": "to",
          "type": "address"
        },
        {
          "internalType": "uint256",
          "name": "deadline",
          "type": "uint256"
        }
      ],
      "name": "swapTokensForExactTokens",
      "outputs": [
        {
          "internalType": "uint256[]",
          "name": "amounts",
          "type": "uint256[]"
        }
      ],
      "stateMutability": "nonpayable",
      "type": "function"
    },
    {
      "inputs": [
        {
          "internalType": "address",
          "name": "",
          "type": "address"
        }
      ],
      "name": "tokenTaxContracts",
      "outputs": [
        {
          "internalType": "address",
          "name": "",
          "type": "address"
        }
      ],
      "stateMutability": "view",
      "type": "function"
    },
    {
      "stateMutability": "payable",
      "type": "receive"
    }
  ],
  "bytecode": "0x60c060405234801561001057600080fd5b5060405162004b1838038062004b188339818101604052604081101561003557600080fd5b5080516020909101516001600160601b0319606092831b8116608052911b1660a05260805160601c60a05160601c614984620001946000398061017a5280610d325280610d6d5280610e7f52806110a9528061144c52806115d952806116b75280611a7e5280611b785280611c2e5280611cfc5280611e425280611eca528061210f528061218a52806122395280612305528061239a528061240e528061290c5280612b7f5280612bd55280612c095280612c7d5280612e1d5280612f605280612fe8525080610f195280610ff0528061117d52806111b652806112f152806114da528061169552806118055280611d8f5280611efc528061205f52806124405280612699528061289152806128ba52806128ea5280612a575280612bb35280612eb0528061301a52806137fe528061398452806139c75280613c825280613db05280613f2f528061435f528061440d528061448d52506149846000f3fe60806040526004361061016a5760003560e01c806385f8c259116100d1578063baa2abde1161008a578063ded9382a11610064578063ded9382a14610b28578063e8e3370014610b9b578063f305d71914610c1b578063fb3bdb4114610c61576101a3565b8063baa2abde14610a01578063c45a015514610a5e578063d06ca61f14610a73576101a3565b806385f8c259146108135780638803dbee14610849578063ad5c4648146108df578063ad615dec146108f4578063af2979eb1461092a578063b6f9de951461097d576101a3565b806338ed17391161012357806338ed1739146104c45780634a25d94a1461055a5780635b0d5984146105f05780635c11d79514610663578063791ac947146106f95780637ff36ab51461078f576101a3565b806302751cec146101a8578063054d50d4146102145780630a018e701461025c57806318cbafe5146102ab5780631f00ca74146103915780632195995c14610446576101a3565b366101a357336001600160a01b037f000000000000000000000000000000000000000000000000000000000000000016146101a157fe5b005b600080fd5b3480156101b457600080fd5b506101fb600480360360c08110156101cb57600080fd5b506001600160a01b0381358116916020810135916040820135916060810135916080820135169060a00135610ce5565b6040805192835260208301919091528051918290030190f35b34801561022057600080fd5b5061024a6004803603606081101561023757600080fd5b5080359060208101359060400135610dff565b60408051918252519081900360200190f35b34801561026857600080fd5b5061028f6004803603602081101561027f57600080fd5b50356001600160a01b0316610e14565b604080516001600160a01b039092168252519081900360200190f35b3480156102b757600080fd5b50610341600480360360a08110156102ce57600080fd5b813591602081013591810190606081016040820135600160201b8111156102f457600080fd5b82018360208201111561030657600080fd5b803590602001918460208302840111600160201b8311171561032757600080fd5b91935091506001600160a01b038135169060200135610e2f565b60408051602080825283518183015283519192839290830191858101910280838360005b8381101561037d578181015183820152602001610365565b505050509050019250505060405180910390f35b34801561039d57600080fd5b50610341600480360360408110156103b457600080fd5b81359190810190604081016020820135600160201b8111156103d557600080fd5b8201836020820111156103e757600080fd5b803590602001918460208302840111600160201b8311171561040857600080fd5b919080806020026020016040519081016040528093929190818152602001838360200280828437600092019190915250929550611176945050505050565b34801561045257600080fd5b506101fb600480360361016081101561046a57600080fd5b506001600160a01b038135811691602081013582169160408201359160608101359160808201359160a08101359091169060c08101359060e081013515159060ff61010082013516906101208101359061014001356111ac565b3480156104d057600080fd5b50610341600480360360a08110156104e757600080fd5b813591602081013591810190606081016040820135600160201b81111561050d57600080fd5b82018360208201111561051f57600080fd5b803590602001918460208302840111600160201b8311171561054057600080fd5b91935091506001600160a01b0381351690602001356112a6565b34801561056657600080fd5b50610341600480360360a081101561057d57600080fd5b813591602081013591810190606081016040820135600160201b8111156105a357600080fd5b8201836020820111156105b557600080fd5b803590602001918460208302840111600160201b831117156105d657600080fd5b91935091506001600160a01b0381351690602001356113fc565b3480156105fc57600080fd5b5061024a600480360361014081101561061457600080fd5b506001600160a01b0381358116916020810135916040820135916060810135916080820135169060a08101359060c081013515159060ff60e0820135169061010081013590610120013561168d565b34801561066f57600080fd5b506101a1600480360360a081101561068657600080fd5b813591602081013591810190606081016040820135600160201b8111156106ac57600080fd5b8201836020820111156106be57600080fd5b803590602001918460208302840111600160201b831117156106df57600080fd5b91935091506001600160a01b03813516906020013561179b565b34801561070557600080fd5b506101a1600480360360a081101561071c57600080fd5b813591602081013591810190606081016040820135600160201b81111561074257600080fd5b82018360208201111561075457600080fd5b803590602001918460208302840111600160201b8311171561077557600080fd5b91935091506001600160a01b038135169060200135611a30565b610341600480360360808110156107a557600080fd5b81359190810190604081016020820135600160201b8111156107c657600080fd5b8201836020820111156107d857600080fd5b803590602001918460208302840111600160201b831117156107f957600080fd5b91935091506001600160a01b038135169060200135611cb4565b34801561081f57600080fd5b5061024a6004803603606081101561083657600080fd5b5080359060208101359060400135612007565b34801561085557600080fd5b50610341600480360360a081101561086c57600080fd5b813591602081013591810190606081016040820135600160201b81111561089257600080fd5b8201836020820111156108a457600080fd5b803590602001918460208302840111600160201b831117156108c557600080fd5b91935091506001600160a01b038135169060200135612014565b3480156108eb57600080fd5b5061028f61210d565b34801561090057600080fd5b5061024a6004803603606081101561091757600080fd5b5080359060208101359060400135612131565b34801561093657600080fd5b5061024a600480360360c081101561094d57600080fd5b506001600160a01b0381358116916020810135916040820135916060810135916080820135169060a0013561213e565b6101a16004803603608081101561099357600080fd5b81359190810190604081016020820135600160201b8111156109b457600080fd5b8201836020820111156109c657600080fd5b803590602001918460208302840111600160201b831117156109e757600080fd5b91935091506001600160a01b0381351690602001356122bf565b348015610a0d57600080fd5b506101fb600480360360e0811015610a2457600080fd5b506001600160a01b038135811691602081013582169160408201359160608101359160808201359160a08101359091169060c0013561264b565b348015610a6a57600080fd5b5061028f61288f565b348015610a7f57600080fd5b5061034160048036036040811015610a9657600080fd5b81359190810190604081016020820135600160201b811115610ab757600080fd5b820183602082011115610ac957600080fd5b803590602001918460208302840111600160201b83111715610aea57600080fd5b9190808060200260200160405190810160405280939291908181526020018383602002808284376000920191909152509295506128b3945050505050565b348015610b3457600080fd5b506101fb6004803603610140811015610b4c57600080fd5b506001600160a01b0381358116916020810135916040820135916060810135916080820135169060a08101359060c081013515159060ff60e082013516906101008101359061012001356128e0565b348015610ba757600080fd5b50610bfd6004803603610100811015610bbf57600080fd5b506001600160a01b038135811691602081013582169160408201359160608101359160808201359160a08101359160c0820135169060e001356129f4565b60408051938452602084019290925282820152519081900360600190f35b610bfd600480360360c0811015610c3157600080fd5b506001600160a01b0381358116916020810135916040820135916060810135916080820135169060a00135612b30565b61034160048036036080811015610c7757600080fd5b81359190810190604081016020820135600160201b811115610c9857600080fd5b820183602082011115610caa57600080fd5b803590602001918460208302840111600160201b83111715610ccb57600080fd5b91935091506001600160a01b038135169060200135612dd5565b6000808242811015610d2c576040805162461bcd60e51b8152602060048201526016602482015260008051602061476f833981519152604482015290519081900360640190fd5b610d5b897f00000000000000000000000000000000000000000000000000000000000000008a8a8a308a61264b565b9093509150610d6b898685613157565b7f00000000000000000000000000000000000000000000000000000000000000006001600160a01b0316632e1a7d4d836040518263ffffffff1660e01b815260040180828152602001915050600060405180830381600087803b158015610dd157600080fd5b505af1158015610de5573d6000803e3d6000fd5b50505050610df385836132ab565b50965096945050505050565b6000610e0c8484846133a3565b949350505050565b6000602081905290815260409020546001600160a01b031681565b60608142811015610e75576040805162461bcd60e51b8152602060048201526016602482015260008051602061476f833981519152604482015290519081900360640190fd5b6001600160a01b037f00000000000000000000000000000000000000000000000000000000000000001686866000198101818110610eaf57fe5b905060200201356001600160a01b03166001600160a01b0316148015610ed55750600285145b610f14576040805162461bcd60e51b815260206004820152601b6024820152600080516020614843833981519152604482015290519081900360640190fd5b610f727f00000000000000000000000000000000000000000000000000000000000000008988888080602002602001604051908101604052809392919081815260200183836020028082843760009201919091525061349392505050565b91508682600184510381518110610f8557fe5b60200260200101511015610fca5760405162461bcd60e51b81526004018080602001828103825260298152602001806148636029913960400191505060405180910390fd5b61106886866000818110610fda57fe5b905060200201356001600160a01b03163361104e7f00000000000000000000000000000000000000000000000000000000000000008a8a600081811061101c57fe5b905060200201356001600160a01b03168b8b600181811061103957fe5b905060200201356001600160a01b03166135df565b8560008151811061105b57fe5b602002602001015161369f565b6110a7828787808060200260200160405190810160405280939291908181526020018383602002808284376000920191909152503092506137fc915050565b7f00000000000000000000000000000000000000000000000000000000000000006001600160a01b0316632e1a7d4d836001855103815181106110e657fe5b60200260200101516040518263ffffffff1660e01b815260040180828152602001915050600060405180830381600087803b15801561112457600080fd5b505af1158015611138573d6000803e3d6000fd5b50505050600061115e8360018551038151811061115157fe5b6020026020010151613b1b565b905061116a85826132ab565b50509695505050505050565b60606111a37f00000000000000000000000000000000000000000000000000000000000000008484613b48565b90505b92915050565b60008060006111dc7f00000000000000000000000000000000000000000000000000000000000000008f8f6135df565b90506000876111eb578c6111ef565b6000195b6040805163d505accf60e01b815233600482015230602482015260448101839052606481018c905260ff8a16608482015260a4810189905260c4810188905290519192506001600160a01b0384169163d505accf9160e48082019260009290919082900301818387803b15801561126557600080fd5b505af1158015611279573d6000803e3d6000fd5b5050505061128c8f8f8f8f8f8f8f61264b565b809450819550505050509b509b9950505050505050505050565b606081428110156112ec576040805162461bcd60e51b8152602060048201526016602482015260008051602061476f833981519152604482015290519081900360640190fd5b61134a7f00000000000000000000000000000000000000000000000000000000000000008988888080602002602001604051908101604052809392919081815260200183836020028082843760009201919091525061349392505050565b9150868260018451038151811061135d57fe5b602002602001015110156113a25760405162461bcd60e51b81526004018080602001828103825260298152602001806148636029913960400191505060405180910390fd5b6113b286866000818110610fda57fe5b6113f1828787808060200260200160405190810160405280939291908181526020018383602002808284376000920191909152508992506137fc915050565b509695505050505050565b60608142811015611442576040805162461bcd60e51b8152602060048201526016602482015260008051602061476f833981519152604482015290519081900360640190fd5b6001600160a01b037f0000000000000000000000000000000000000000000000000000000000000000168686600019810181811061147c57fe5b905060200201356001600160a01b03166001600160a01b0316146114d5576040805162461bcd60e51b815260206004820152601b6024820152600080516020614843833981519152604482015290519081900360640190fd5b6115337f000000000000000000000000000000000000000000000000000000000000000089888880806020026020016040519081016040528093929190818152602001838360200280828437600092019190915250613b4892505050565b9150868260008151811061154357fe5b602002602001015111156115885760405162461bcd60e51b81526004018080602001828103825260258152602001806148fd6025913960400191505060405180910390fd5b61159886866000818110610fda57fe5b6115d7828787808060200260200160405190810160405280939291908181526020018383602002808284376000920191909152503092506137fc915050565b7f00000000000000000000000000000000000000000000000000000000000000006001600160a01b0316632e1a7d4d8360018551038151811061161657fe5b60200260200101516040518263ffffffff1660e01b815260040180828152602001915050600060405180830381600087803b15801561165457600080fd5b505af1158015611668573d6000803e3d6000fd5b505050506113f1848360018551038151811061168057fe5b60200260200101516132ab565b6000806116db7f00000000000000000000000000000000000000000000000000000000000000008d7f00000000000000000000000000000000000000000000000000000000000000006135df565b90506000866116ea578b6116ee565b6000195b6040805163d505accf60e01b815233600482015230602482015260448101839052606481018b905260ff8916608482015260a4810188905260c4810187905290519192506001600160a01b0384169163d505accf9160e48082019260009290919082900301818387803b15801561176457600080fd5b505af1158015611778573d6000803e3d6000fd5b5050505061178a8d8d8d8d8d8d61213e565b9d9c50505050505050505050505050565b80428110156117df576040805162461bcd60e51b8152602060048201526016602482015260008051602061476f833981519152604482015290519081900360640190fd5b611854858560008181106117ef57fe5b905060200201356001600160a01b03163361184e7f00000000000000000000000000000000000000000000000000000000000000008989600081811061183157fe5b905060200201356001600160a01b03168a8a600181811061103957fe5b8a61369f565b60008585600019810181811061186657fe5b905060200201356001600160a01b03166001600160a01b03166370a08231856040518263ffffffff1660e01b815260040180826001600160a01b03166001600160a01b0316815260200191505060206040518083038186803b1580156118cb57600080fd5b505afa1580156118df573d6000803e3d6000fd5b505050506040513d60208110156118f557600080fd5b50516040805160208881028281018201909352888252929350611937929091899189918291850190849080828437600092019190915250889250613c80915050565b866119e9828888600019810181811061194c57fe5b905060200201356001600160a01b03166001600160a01b03166370a08231886040518263ffffffff1660e01b815260040180826001600160a01b03166001600160a01b0316815260200191505060206040518083038186803b1580156119b157600080fd5b505afa1580156119c5573d6000803e3d6000fd5b505050506040513d60208110156119db57600080fd5b50519063ffffffff61406416565b1015611a265760405162461bcd60e51b81526004018080602001828103825260298152602001806148636029913960400191505060405180910390fd5b5050505050505050565b8042811015611a74576040805162461bcd60e51b8152602060048201526016602482015260008051602061476f833981519152604482015290519081900360640190fd5b6001600160a01b037f00000000000000000000000000000000000000000000000000000000000000001685856000198101818110611aae57fe5b905060200201356001600160a01b03166001600160a01b031614611b07576040805162461bcd60e51b815260206004820152601b6024820152600080516020614843833981519152604482015290519081900360640190fd5b611b17858560008181106117ef57fe5b611b55858580806020026020016040519081016040528093929190818152602001838360200280828437600092019190915250309250613c80915050565b604080516370a0823160e01b815230600482015290516000916001600160a01b037f000000000000000000000000000000000000000000000000000000000000000016916370a0823191602480820192602092909190829003018186803b158015611bbf57600080fd5b505afa158015611bd3573d6000803e3d6000fd5b505050506040513d6020811015611be957600080fd5b5051905086811015611c2c5760405162461bcd60e51b81526004018080602001828103825260298152602001806148636029913960400191505060405180910390fd5b7f00000000000000000000000000000000000000000000000000000000000000006001600160a01b0316632e1a7d4d826040518263ffffffff1660e01b815260040180828152602001915050600060405180830381600087803b158015611c9257600080fd5b505af1158015611ca6573d6000803e3d6000fd5b50505050611a2684826132ab565b60608142811015611cfa576040805162461bcd60e51b8152602060048201526016602482015260008051602061476f833981519152604482015290519081900360640190fd5b7f00000000000000000000000000000000000000000000000000000000000000006001600160a01b031686866000818110611d3157fe5b905060200201356001600160a01b03166001600160a01b031614611d8a576040805162461bcd60e51b815260206004820152601b6024820152600080516020614843833981519152604482015290519081900360640190fd5b611de87f00000000000000000000000000000000000000000000000000000000000000003488888080602002602001604051908101604052809392919081815260200183836020028082843760009201919091525061349392505050565b91508682600184510381518110611dfb57fe5b60200260200101511015611e405760405162461bcd60e51b81526004018080602001828103825260298152602001806148636029913960400191505060405180910390fd5b7f00000000000000000000000000000000000000000000000000000000000000006001600160a01b031663d0e30db083600081518110611e7c57fe5b60200260200101516040518263ffffffff1660e01b81526004016000604051808303818588803b158015611eaf57600080fd5b505af1158015611ec3573d6000803e3d6000fd5b50505050507f00000000000000000000000000000000000000000000000000000000000000006001600160a01b031663a9059cbb611f287f00000000000000000000000000000000000000000000000000000000000000008989600081811061183157fe5b84600081518110611f3557fe5b60200260200101516040518363ffffffff1660e01b815260040180836001600160a01b03166001600160a01b0316815260200182815260200192505050602060405180830381600087803b158015611f8c57600080fd5b505af1158015611fa0573d6000803e3d6000fd5b505050506040513d6020811015611fb657600080fd5b5051611fbe57fe5b611ffd828787808060200260200160405190810160405280939291908181526020018383602002808284376000920191909152508992506137fc915050565b5095945050505050565b6000610e0c8484846140b4565b6060814281101561205a576040805162461bcd60e51b8152602060048201526016602482015260008051602061476f833981519152604482015290519081900360640190fd5b6120b87f000000000000000000000000000000000000000000000000000000000000000089888880806020026020016040519081016040528093929190818152602001838360200280828437600092019190915250613b4892505050565b915086826000815181106120c857fe5b602002602001015111156113a25760405162461bcd60e51b81526004018080602001828103825260258152602001806148fd6025913960400191505060405180910390fd5b7f000000000000000000000000000000000000000000000000000000000000000081565b6000610e0c8484846141a4565b60008142811015612184576040805162461bcd60e51b8152602060048201526016602482015260008051602061476f833981519152604482015290519081900360640190fd5b6121b3887f0000000000000000000000000000000000000000000000000000000000000000898989308961264b565b604080516370a0823160e01b8152306004820152905191945061223792508a9187916001600160a01b038416916370a0823191602480820192602092909190829003018186803b15801561220657600080fd5b505afa15801561221a573d6000803e3d6000fd5b505050506040513d602081101561223057600080fd5b5051613157565b7f00000000000000000000000000000000000000000000000000000000000000006001600160a01b0316632e1a7d4d836040518263ffffffff1660e01b815260040180828152602001915050600060405180830381600087803b15801561229d57600080fd5b505af11580156122b1573d6000803e3d6000fd5b505050506113f184836132ab565b8042811015612303576040805162461bcd60e51b8152602060048201526016602482015260008051602061476f833981519152604482015290519081900360640190fd5b7f00000000000000000000000000000000000000000000000000000000000000006001600160a01b03168585600081811061233a57fe5b905060200201356001600160a01b03166001600160a01b031614612393576040805162461bcd60e51b815260206004820152601b6024820152600080516020614843833981519152604482015290519081900360640190fd5b60003490507f00000000000000000000000000000000000000000000000000000000000000006001600160a01b031663d0e30db0826040518263ffffffff1660e01b81526004016000604051808303818588803b1580156123f357600080fd5b505af1158015612407573d6000803e3d6000fd5b50505050507f00000000000000000000000000000000000000000000000000000000000000006001600160a01b031663a9059cbb61246c7f00000000000000000000000000000000000000000000000000000000000000008989600081811061183157fe5b836040518363ffffffff1660e01b815260040180836001600160a01b03166001600160a01b0316815260200182815260200192505050602060405180830381600087803b1580156124bc57600080fd5b505af11580156124d0573d6000803e3d6000fd5b505050506040513d60208110156124e657600080fd5b50516124ee57fe5b60008686600019810181811061250057fe5b905060200201356001600160a01b03166001600160a01b03166370a08231866040518263ffffffff1660e01b815260040180826001600160a01b03166001600160a01b0316815260200191505060206040518083038186803b15801561256557600080fd5b505afa158015612579573d6000803e3d6000fd5b505050506040513d602081101561258f57600080fd5b505160408051602089810282810182019093528982529293506125d19290918a918a918291850190849080828437600092019190915250899250613c80915050565b876119e982898960001981018181106125e657fe5b905060200201356001600160a01b03166001600160a01b03166370a08231896040518263ffffffff1660e01b815260040180826001600160a01b03166001600160a01b0316815260200191505060206040518083038186803b1580156119b157600080fd5b6000808242811015612692576040805162461bcd60e51b8152602060048201526016602482015260008051602061476f833981519152604482015290519081900360640190fd5b60006126bf7f00000000000000000000000000000000000000000000000000000000000000008c8c6135df565b604080516323b872dd60e01b81523360048201526001600160a01b03831660248201819052604482018d9052915192935090916323b872dd916064808201926020929091908290030181600087803b15801561271a57600080fd5b505af115801561272e573d6000803e3d6000fd5b505050506040513d602081101561274457600080fd5b50506040805163226bf2d160e21b81526001600160a01b03888116600483015282516000938493928616926389afcb44926024808301939282900301818787803b15801561279157600080fd5b505af11580156127a5573d6000803e3d6000fd5b505050506040513d60408110156127bb57600080fd5b508051602090910151909250905060006127d58e8e614250565b509050806001600160a01b03168e6001600160a01b0316146127f85781836127fb565b82825b90975095508a87101561283f5760405162461bcd60e51b81526004018080602001828103825260248152602001806148d96024913960400191505060405180910390fd5b8986101561287e5760405162461bcd60e51b815260040180806020018281038252602481526020018061474b6024913960400191505060405180910390fd5b505050505097509795505050505050565b7f000000000000000000000000000000000000000000000000000000000000000081565b60606111a37f00000000000000000000000000000000000000000000000000000000000000008484613493565b60008060006129307f00000000000000000000000000000000000000000000000000000000000000008e7f00000000000000000000000000000000000000000000000000000000000000006135df565b905060008761293f578c612943565b6000195b6040805163d505accf60e01b815233600482015230602482015260448101839052606481018c905260ff8a16608482015260a4810189905260c4810188905290519192506001600160a01b0384169163d505accf9160e48082019260009290919082900301818387803b1580156129b957600080fd5b505af11580156129cd573d6000803e3d6000fd5b505050506129df8e8e8e8e8e8e610ce5565b909f909e509c50505050505050505050505050565b60008060008342811015612a3d576040805162461bcd60e51b8152602060048201526016602482015260008051602061476f833981519152604482015290519081900360640190fd5b612a4b8c8c8c8c8c8c61432e565b90945092506000612a7d7f00000000000000000000000000000000000000000000000000000000000000008e8e6135df565b9050612a8b8d33838861369f565b612a978c33838761369f565b806001600160a01b0316636a627842886040518263ffffffff1660e01b815260040180826001600160a01b03166001600160a01b03168152602001915050602060405180830381600087803b158015612aef57600080fd5b505af1158015612b03573d6000803e3d6000fd5b505050506040513d6020811015612b1957600080fd5b5051949d939c50939a509198505050505050505050565b60008060008342811015612b79576040805162461bcd60e51b8152602060048201526016602482015260008051602061476f833981519152604482015290519081900360640190fd5b612ba78a7f00000000000000000000000000000000000000000000000000000000000000008b348c8c61432e565b90945092506000612bf97f00000000000000000000000000000000000000000000000000000000000000008c7f00000000000000000000000000000000000000000000000000000000000000006135df565b9050612c078b33838861369f565b7f00000000000000000000000000000000000000000000000000000000000000006001600160a01b031663d0e30db0856040518263ffffffff1660e01b81526004016000604051808303818588803b158015612c6257600080fd5b505af1158015612c76573d6000803e3d6000fd5b50505050507f00000000000000000000000000000000000000000000000000000000000000006001600160a01b031663a9059cbb82866040518363ffffffff1660e01b815260040180836001600160a01b03166001600160a01b0316815260200182815260200192505050602060405180830381600087803b158015612cfb57600080fd5b505af1158015612d0f573d6000803e3d6000fd5b505050506040513d6020811015612d2557600080fd5b5051612d2d57fe5b806001600160a01b0316636a627842886040518263ffffffff1660e01b815260040180826001600160a01b03166001600160a01b03168152602001915050602060405180830381600087803b158015612d8557600080fd5b505af1158015612d99573d6000803e3d6000fd5b505050506040513d6020811015612daf57600080fd5b5051925034841015612dc757612dc7338534036132ab565b505096509650969350505050565b60608142811015612e1b576040805162461bcd60e51b8152602060048201526016602482015260008051602061476f833981519152604482015290519081900360640190fd5b7f00000000000000000000000000000000000000000000000000000000000000006001600160a01b031686866000818110612e5257fe5b905060200201356001600160a01b03166001600160a01b031614612eab576040805162461bcd60e51b815260206004820152601b6024820152600080516020614843833981519152604482015290519081900360640190fd5b612f097f000000000000000000000000000000000000000000000000000000000000000088888880806020026020016040519081016040528093929190818152602001838360200280828437600092019190915250613b4892505050565b91503482600081518110612f1957fe5b60200260200101511115612f5e5760405162461bcd60e51b81526004018080602001828103825260258152602001806148fd6025913960400191505060405180910390fd5b7f00000000000000000000000000000000000000000000000000000000000000006001600160a01b031663d0e30db083600081518110612f9a57fe5b60200260200101516040518263ffffffff1660e01b81526004016000604051808303818588803b158015612fcd57600080fd5b505af1158015612fe1573d6000803e3d6000fd5b50505050507f00000000000000000000000000000000000000000000000000000000000000006001600160a01b031663a9059cbb6130467f00000000000000000000000000000000000000000000000000000000000000008989600081811061183157fe5b8460008151811061305357fe5b60200260200101516040518363ffffffff1660e01b815260040180836001600160a01b03166001600160a01b0316815260200182815260200192505050602060405180830381600087803b1580156130aa57600080fd5b505af11580156130be573d6000803e3d6000fd5b505050506040513d60208110156130d457600080fd5b50516130dc57fe5b61311b828787808060200260200160405190810160405280939291908181526020018383602002808284376000920191909152508992506137fc915050565b8160008151811061312857fe5b6020026020010151341115611ffd57611ffd338360008151811061314857fe5b602002602001015134036132ab565b604080516001600160a01b038481166024830152604480830185905283518084039091018152606490920183526020820180516001600160e01b031663a9059cbb60e01b178152925182516000946060949389169392918291908083835b602083106131d45780518252601f1990920191602091820191016131b5565b6001836020036101000a0380198251168184511680821785525050505050509050019150506000604051808303816000865af19150503d8060008114613236576040519150601f19603f3d011682016040523d82523d6000602084013e61323b565b606091505b5091509150818015613269575080511580613269575080806020019051602081101561326657600080fd5b50515b6132a45760405162461bcd60e51b815260040180806020018281038252602d815260200180614922602d913960400191505060405180910390fd5b5050505050565b604080516000808252602082019092526001600160a01b0384169083906040518082805190602001908083835b602083106132f75780518252601f1990920191602091820191016132d8565b6001836020036101000a03801982511681845116808217855250505050505090500191505060006040518083038185875af1925050503d8060008114613359576040519150601f19603f3d011682016040523d82523d6000602084013e61335e565b606091505b505090508061339e5760405162461bcd60e51b815260040180806020018281038252603481526020018061480f6034913960400191505060405180910390fd5b505050565b60008084116133e35760405162461bcd60e51b815260040180806020018281038252602981526020018061478f6029913960400191505060405180910390fd5b6000831180156133f35750600082115b61342e5760405162461bcd60e51b81526004018080602001828103825260268152602001806147b86026913960400191505060405180910390fd5b6000613442856103e663ffffffff6145a216565b90506000613456828563ffffffff6145a216565b9050600061347c83613470886103e863ffffffff6145a216565b9063ffffffff61460516565b905080828161348757fe5b04979650505050505050565b60606002825110156134ec576040805162461bcd60e51b815260206004820152601c60248201527f506177737761704c6962726172793a20494e56414c49445f5041544800000000604482015290519081900360640190fd5b815167ffffffffffffffff8111801561350457600080fd5b5060405190808252806020026020018201604052801561352e578160200160208202803683370190505b509050828160008151811061353f57fe5b60200260200101818152505060005b60018351038110156135d7576000806135918786858151811061356d57fe5b602002602001015187866001018151811061358457fe5b6020026020010151614654565b915091506135b38484815181106135a457fe5b602002602001015183836133a3565b8484600101815181106135c257fe5b6020908102919091010152505060010161354e565b509392505050565b60008060006135ee8585614250565b604080516bffffffffffffffffffffffff19606094851b811660208084019190915293851b81166034830152825160288184030181526048830184528051908501206001600160f81b031960688401529a90941b9093166069840152607d8301989098527fb23d0371be9bb96ee2d50bd7d313afedad5b11c533ad0adc43ce62480b2a6301609d808401919091528851808403909101815260bd909201909752805196019590952095945050505050565b604080516001600160a01b0385811660248301528481166044830152606480830185905283518084039091018152608490920183526020820180516001600160e01b03166323b872dd60e01b17815292518251600094606094938a169392918291908083835b602083106137245780518252601f199092019160209182019101613705565b6001836020036101000a0380198251168184511680821785525050505050509050019150506000604051808303816000865af19150503d8060008114613786576040519150601f19603f3d011682016040523d82523d6000602084013e61378b565b606091505b50915091508180156137b95750805115806137b957508080602001905160208110156137b657600080fd5b50515b6137f45760405162461bcd60e51b81526004018080602001828103825260318152602001806147de6031913960400191505060405180910390fd5b505050505050565b7f00000000000000000000000000000000000000000000000000000000000000006001600160a01b031663082e66416040518163ffffffff1660e01b815260040160206040518083038186803b15801561385557600080fd5b505afa158015613869573d6000803e3d6000fd5b505050506040513d602081101561387f57600080fd5b50516001600160a01b031633146138d5576040805162461bcd60e51b815260206004820152601560248201527404f6e6c7920506177537761702063616e207377617605c1b604482015290519081900360640190fd5b60005b6001835103811015613b15576000808483815181106138f357fe5b602002602001015185846001018151811061390a57fe5b60200260200101519150915060006139228383614250565b509050600087856001018151811061393657fe5b60200260200101519050600080836001600160a01b0316866001600160a01b03161461396457826000613968565b6000835b91509150600060028a5103881061397f57886139c0565b6139c07f0000000000000000000000000000000000000000000000000000000000000000878c8b600201815181106139b357fe5b60200260200101516135df565b90506139ed7f000000000000000000000000000000000000000000000000000000000000000088886135df565b6001600160a01b031663022c0d9f84848460006040519080825280601f01601f191660200182016040528015613a2a576020820181803683370190505b506040518563ffffffff1660e01b815260040180858152602001848152602001836001600160a01b03166001600160a01b0316815260200180602001828103825283818151815260200191508051906020019080838360005b83811015613a9b578181015183820152602001613a83565b50505050905090810190601f168015613ac85780820380516001836020036101000a031916815260200191505b5095505050505050600060405180830381600087803b158015613aea57600080fd5b505af1158015613afe573d6000803e3d6000fd5b5050600190990198506138d8975050505050505050565b50505050565b6000613b3e73e07cb1c63ecff5fda2a18ace4c1e603b09e1cac6600284046132ab565b5060028104900390565b6060600282511015613ba1576040805162461bcd60e51b815260206004820152601c60248201527f506177737761704c6962726172793a20494e56414c49445f5041544800000000604482015290519081900360640190fd5b815167ffffffffffffffff81118015613bb957600080fd5b50604051908082528060200260200182016040528015613be3578160200160208202803683370190505b5090508281600183510381518110613bf757fe5b60209081029190910101528151600019015b80156135d757600080613c3987866001860381518110613c2557fe5b602002602001015187868151811061358457fe5b91509150613c5b848481518110613c4c57fe5b602002602001015183836140b4565b846001850381518110613c6a57fe5b6020908102919091010152505060001901613c09565b7f00000000000000000000000000000000000000000000000000000000000000006001600160a01b031663082e66416040518163ffffffff1660e01b815260040160206040518083038186803b158015613cd957600080fd5b505afa158015613ced573d6000803e3d6000fd5b505050506040513d6020811015613d0357600080fd5b50516001600160a01b03163314613d59576040805162461bcd60e51b815260206004820152601560248201527404f6e6c7920506177537761702063616e207377617605c1b604482015290519081900360640190fd5b60005b600183510381101561339e57600080848381518110613d7757fe5b6020026020010151858460010181518110613d8e57fe5b6020026020010151915091506000613da68383614250565b5090506000613dd67f000000000000000000000000000000000000000000000000000000000000000085856135df565b9050600080600080846001600160a01b0316630902f1ac6040518163ffffffff1660e01b815260040160606040518083038186803b158015613e1757600080fd5b505afa158015613e2b573d6000803e3d6000fd5b505050506040513d6060811015613e4157600080fd5b5080516020909101516001600160701b0391821693501690506000806001600160a01b038a811690891614613e77578284613e7a565b83835b91509150613ed8828b6001600160a01b03166370a082318a6040518263ffffffff1660e01b815260040180826001600160a01b03166001600160a01b0316815260200191505060206040518083038186803b1580156119b157600080fd5b9550613ee58683836133a3565b945050505050600080856001600160a01b0316886001600160a01b031614613f0f57826000613f13565b6000835b91509150600060028c51038a10613f2a578a613f5e565b613f5e7f0000000000000000000000000000000000000000000000000000000000000000898e8d600201815181106139b357fe5b604080516000808252602082019283905263022c0d9f60e01b835260248201878152604483018790526001600160a01b038086166064850152608060848501908152845160a48601819052969750908c169563022c0d9f958a958a958a9591949193919260c486019290918190849084905b83811015613fe8578181015183820152602001613fd0565b50505050905090810190601f1680156140155780820380516001836020036101000a031916815260200191505b5095505050505050600060405180830381600087803b15801561403757600080fd5b505af115801561404b573d6000803e3d6000fd5b50506001909b019a50613d5c9950505050505050505050565b808203828111156111a6576040805162461bcd60e51b815260206004820152601560248201527464732d6d6174682d7375622d756e646572666c6f7760581b604482015290519081900360640190fd5b60008084116140f45760405162461bcd60e51b815260040180806020018281038252602a81526020018061488c602a913960400191505060405180910390fd5b6000831180156141045750600082115b61413f5760405162461bcd60e51b81526004018080602001828103825260268152602001806147b86026913960400191505060405180910390fd5b60006141636103e8614157868863ffffffff6145a216565b9063ffffffff6145a216565b9050600061417d6103e6614157868963ffffffff61406416565b905061419a600182848161418d57fe5b049063ffffffff61460516565b9695505050505050565b60008084116141e45760405162461bcd60e51b81526004018080602001828103825260238152602001806147286023913960400191505060405180910390fd5b6000831180156141f45750600082115b61422f5760405162461bcd60e51b81526004018080602001828103825260268152602001806147b86026913960400191505060405180910390fd5b82614240858463ffffffff6145a216565b8161424757fe5b04949350505050565b600080826001600160a01b0316846001600160a01b031614156142a45760405162461bcd60e51b81526004018080602001828103825260238152602001806148b66023913960400191505060405180910390fd5b826001600160a01b0316846001600160a01b0316106142c45782846142c7565b83835b90925090506001600160a01b038216614327576040805162461bcd60e51b815260206004820152601c60248201527f506177737761704c6962726172793a205a45524f5f4144445245535300000000604482015290519081900360640190fd5b9250929050565b6040805163e6a4390560e01b81526001600160a01b03888116600483015287811660248301529151600092839283927f00000000000000000000000000000000000000000000000000000000000000009092169163e6a4390591604480820192602092909190829003018186803b1580156143a857600080fd5b505afa1580156143bc573d6000803e3d6000fd5b505050506040513d60208110156143d257600080fd5b50516001600160a01b0316141561448557604080516364e329cb60e11b81526001600160a01b038a81166004830152898116602483015291517f00000000000000000000000000000000000000000000000000000000000000009092169163c9c65396916044808201926020929091908290030181600087803b15801561445857600080fd5b505af115801561446c573d6000803e3d6000fd5b505050506040513d602081101561448257600080fd5b50505b6000806144b37f00000000000000000000000000000000000000000000000000000000000000008b8b614654565b915091508160001480156144c5575080155b156144d557879350869250614595565b60006144e28984846141a4565b9050878111614535578581101561452a5760405162461bcd60e51b815260040180806020018281038252602481526020018061474b6024913960400191505060405180910390fd5b889450925082614593565b60006145428984866141a4565b90508981111561454e57fe5b8781101561458d5760405162461bcd60e51b81526004018080602001828103825260248152602001806148d96024913960400191505060405180910390fd5b94508793505b505b5050965096945050505050565b60008115806145bd575050808202828282816145ba57fe5b04145b6111a6576040805162461bcd60e51b815260206004820152601460248201527364732d6d6174682d6d756c2d6f766572666c6f7760601b604482015290519081900360640190fd5b808201828110156111a6576040805162461bcd60e51b815260206004820152601460248201527364732d6d6174682d6164642d6f766572666c6f7760601b604482015290519081900360640190fd5b60008060006146638585614250565b5090506146718686866135df565b506000806146808888886135df565b6001600160a01b0316630902f1ac6040518163ffffffff1660e01b815260040160606040518083038186803b1580156146b857600080fd5b505afa1580156146cc573d6000803e3d6000fd5b505050506040513d60608110156146e257600080fd5b5080516020909101516001600160701b0391821693501690506001600160a01b0387811690841614614715578082614718565b81815b9099909850965050505050505056fe506177737761704c6962726172793a20494e53554646494349454e545f414d4f554e5450617773776170526f757465723a20494e53554646494349454e545f425f414d4f554e5450617773776170526f757465723a204558504952454400000000000000000000506177737761704c6962726172793a20494e53554646494349454e545f494e5055545f414d4f554e54506177737761704c6962726172793a20494e53554646494349454e545f4c49515549444954595472616e7366657248656c7065723a3a7472616e7366657246726f6d3a207472616e7366657246726f6d206661696c65645472616e7366657248656c7065723a3a736166655472616e736665724554483a20455448207472616e73666572206661696c656450617773776170526f757465723a20494e56414c49445f50415448000000000050617773776170526f757465723a20494e53554646494349454e545f4f55545055545f414d4f554e54506177737761704c6962726172793a20494e53554646494349454e545f4f55545055545f414d4f554e54506177737761704c6962726172793a204944454e544943414c5f41444452455353455350617773776170526f757465723a20494e53554646494349454e545f415f414d4f554e5450617773776170526f757465723a204558434553534956455f494e5055545f414d4f554e545472616e7366657248656c7065723a3a736166655472616e736665723a207472616e73666572206661696c6564a2646970667358221220b45eedaacbd06e2c9ca995efe21571cb448e5ef67598ee0d8a4d0074f455a53664736f6c63430006060033",
  "linkReferences": {},
  "deployedLinkReferences": {}
}