{
  "_format": "hh-sol-artifact-1",
  "contractName": "TaxStructureFactory",
  "sourceName": "contracts/TaxStructureFactory.sol",
  "abi": [
    {
      "inputs": [],
      "stateMutability": "nonpayable",
      "type": "constructor"
    },
    {
      "anonymous": false,
      "inputs": [
        {
          "indexed": false,
          "internalType": "address",
          "name": "addr",
          "type": "address"
        },
        {
          "indexed": false,
          "internalType": "address",
          "name": "deployer",
          "type": "address"
        }
      ],
      "name": "Deploy",
      "type": "event"
    },
    {
      "anonymous": false,
      "inputs": [
        {
          "indexed": true,
          "internalType": "address",
          "name": "previousOwner",
          "type": "address"
        },
        {
          "indexed": true,
          "internalType": "address",
          "name": "newOwner",
          "type": "address"
        }
      ],
      "name": "OwnershipTransferred",
      "type": "event"
    },
    {
      "inputs": [
        {
          "internalType": "uint256",
          "name": "_salt",
          "type": "uint256"
        },
        {
          "internalType": "address",
          "name": "_router",
          "type": "address"
        }
      ],
      "name": "deployTaxStructure",
      "outputs": [
        {
          "internalType": "address",
          "name": "",
          "type": "address"
        }
      ],
      "stateMutability": "nonpayable",
      "type": "function"
    },
    {
      "inputs": [],
      "name": "owner",
      "outputs": [
        {
          "internalType": "address",
          "name": "",
          "type": "address"
        }
      ],
      "stateMutability": "view",
      "type": "function"
    },
    {
      "inputs": [],
      "name": "renounceOwnership",
      "outputs": [],
      "stateMutability": "nonpayable",
      "type": "function"
    },
    {
      "inputs": [
        {
          "internalType": "address",
          "name": "newOwner",
          "type": "address"
        }
      ],
      "name": "transferOwnership",
      "outputs": [],
      "stateMutability": "nonpayable",
      "type": "function"
    }
  ],
  "bytecode": "0x608060405234801561001057600080fd5b5061001a3361001f565b61006f565b600080546001600160a01b038381166001600160a01b0319831681178455604051919092169283917f8be0079c531659141344cd1fd0a4f28419497f9722a3daafe3b4186f6b6457e09190a35050565b612d2c8061007e6000396000f3fe608060405234801561001057600080fd5b506004361061004c5760003560e01c8063715018a6146100515780638052fe181461005b5780638da5cb5b1461008a578063f2fde38b1461009b575b600080fd5b6100596100ae565b005b61006e6100693660046102f2565b610119565b6040516001600160a01b03909116815260200160405180910390f35b6000546001600160a01b031661006e565b6100596100a936600461031e565b6101ae565b6000546001600160a01b0316331461010d5760405162461bcd60e51b815260206004820181905260248201527f4f776e61626c653a2063616c6c6572206973206e6f7420746865206f776e657260448201526064015b60405180910390fd5b6101176000610279565b565b60008083338460405161012b906102c9565b6001600160a01b039283168152911660208201526040018190604051809103906000f5905080158015610162573d6000803e3d6000fd5b50604080516001600160a01b03831681523360208201529192507fb1a29087760d8e8f9b263f598962f752e7bd23badd44897e2966d376d1a59dca910160405180910390a19392505050565b6000546001600160a01b031633146102085760405162461bcd60e51b815260206004820181905260248201527f4f776e61626c653a2063616c6c6572206973206e6f7420746865206f776e65726044820152606401610104565b6001600160a01b03811661026d5760405162461bcd60e51b815260206004820152602660248201527f4f776e61626c653a206e6577206f776e657220697320746865207a65726f206160448201526564647265737360d01b6064820152608401610104565b61027681610279565b50565b600080546001600160a01b038381166001600160a01b0319831681178455604051919092169283917f8be0079c531659141344cd1fd0a4f28419497f9722a3daafe3b4186f6b6457e09190a35050565b6129b68061034183390190565b80356001600160a01b03811681146102ed57600080fd5b919050565b6000806040838503121561030557600080fd5b82359150610315602084016102d6565b90509250929050565b60006020828403121561033057600080fd5b610339826102d6565b939250505056fe60806040526002600155601780546001600160a01b03191661dead1790553480156200002a57600080fd5b50604051620029b6380380620029b68339810160408190526200004d91620001cc565b62000058336200008a565b6200006382620000da565b600280546001600160a01b0319166001600160a01b03929092169190911790555062000204565b600080546001600160a01b038381166001600160a01b0319831681178455604051919092169283917f8be0079c531659141344cd1fd0a4f28419497f9722a3daafe3b4186f6b6457e09190a35050565b6000546001600160a01b031633146200013a5760405162461bcd60e51b815260206004820181905260248201527f4f776e61626c653a2063616c6c6572206973206e6f7420746865206f776e657260448201526064015b60405180910390fd5b6001600160a01b038116620001a15760405162461bcd60e51b815260206004820152602660248201527f4f776e61626c653a206e6577206f776e657220697320746865207a65726f206160448201526564647265737360d01b606482015260840162000131565b620001ac816200008a565b50565b80516001600160a01b0381168114620001c757600080fd5b919050565b60008060408385031215620001e057600080fd5b620001eb83620001af565b9150620001fb60208401620001af565b90509250929050565b6127a280620002146000396000f3fe6080604052600436106103f35760003560e01c806380384d4d11610208578063bd05b43011610118578063e1eb5154116100ab578063e69aee911161007a578063e69aee9114610bb7578063f2fde38b14610bd9578063f3b6966b14610bf9578063f9110af314610c19578063fb61e99814610c3957600080fd5b8063e1eb515414610b3d578063e2611b1f14610b5f578063e325555214610b75578063e5902c2d14610b9557600080fd5b8063d162d415116100e7578063d162d41514610ac5578063d321600214610ae5578063d505cc4d14610afb578063e036a58214610b1b57600080fd5b8063bd05b43014610a57578063c554d74c14610a6d578063ca682c6d14610a8f578063cfbb2ce214610aaf57600080fd5b80639bc81a2c1161019b578063a8b5afdc1161016a578063a8b5afdc146109c0578063ab183639146109e0578063ae46567c14610a02578063b7b4005014610a17578063bc040da314610a3757600080fd5b80639bc81a2c146109465780639bd81f6814610966578063a26c86291461097c578063a385ac311461099e57600080fd5b8063885b922d116101d7578063885b922d146108dc5780638be49eb1146108fc5780638da5cb5b14610912578063913d2b9b1461093057600080fd5b806380384d4d1461086457806380d398731461088457806383d611e01461089a578063862737c9146108bc57600080fd5b80634db488821161030357806370d5ae05116102965780637749eeb3116102655780637749eeb3146107ec578063776f1e101461080e57806378bebdcc146108235780637e11b31f146108395780637f582e0e1461084f57600080fd5b806370d5ae0514610775578063715018a61461079557806375af3091146107aa57806376d747e9146107cc57600080fd5b80635c5aa9b2116102d25780635c5aa9b21461071457806366089655146107295780636845ad68146107495780636bbd52af1461075f57600080fd5b80634db48882146106a15780634f12da14146106b757806356355a90146106df57806356a6338f146106f457600080fd5b80631a788a02116103865780633268cc56116103555780633268cc56146105dd57806339c3f42b146105fd5780633e99c1e4146106135780634144f1c41461065f57806341cb87fc1461068157600080fd5b80631a788a021461056557806323cb18a4146105855780632cbfc5a51461059b5780632f1fc52c146105bb57600080fd5b8063107bf304116103c2578063107bf304146104cb57806310b567ad146104eb5780631820fe0c146105235780631866cbfa1461054357600080fd5b806305bdf464146103ff5780630787150a1461042157806307ad6d48146104545780630a9ee06c1461047657600080fd5b366103fa57005b600080fd5b34801561040b57600080fd5b5061041f61041a3660046120cc565b610ca5565b005b34801561042d57600080fd5b5061044161043c366004612101565b610d46565b6040519081526020015b60405180910390f35b34801561046057600080fd5b5061044161046f366004612101565b50601b5490565b34801561048257600080fd5b50610496610491366004612101565b610d87565b604080519788526020880196909652948601939093526060850191909152608084015260a083015260c082015260e00161044b565b3480156104d757600080fd5b5061041f6104e636600461211e565b610dc5565b3480156104f757600080fd5b50600c5461050b906001600160a01b031681565b6040516001600160a01b03909116815260200161044b565b34801561052f57600080fd5b5061041f61053e3660046121da565b610e20565b34801561054f57600080fd5b50610558610f6d565b60405161044b9190612286565b34801561057157600080fd5b5061050b610580366004612101565b610ffb565b34801561059157600080fd5b5061044160055481565b3480156105a757600080fd5b5060145461050b906001600160a01b031681565b3480156105c757600080fd5b506104416105d6366004612101565b5060185490565b3480156105e957600080fd5b5060025461050b906001600160a01b031681565b34801561060957600080fd5b5061044160115481565b34801561061f57600080fd5b5061063361062e366004612101565b611158565b604080516001600160701b03948516815293909216602084015263ffffffff169082015260600161044b565b34801561066b57600080fd5b5061044161067a366004612101565b50601c5490565b34801561068d57600080fd5b5061041f61069c366004612101565b6111d9565b3480156106ad57600080fd5b50610441600a5481565b3480156106c357600080fd5b506106cc611265565b60405161044b9796959493929190612299565b3480156106eb57600080fd5b50610558611594565b34801561070057600080fd5b5061041f61070f366004612330565b6115a1565b34801561072057600080fd5b5061055861170f565b34801561073557600080fd5b5061041f61074436600461211e565b61171c565b34801561075557600080fd5b5061044160095481565b34801561076b57600080fd5b50610441600d5481565b34801561078157600080fd5b5060175461050b906001600160a01b031681565b3480156107a157600080fd5b5061041f611784565b3480156107b657600080fd5b506104416107c5366004612101565b5060165490565b3480156107d857600080fd5b506104416107e7366004612101565b6117ba565b3480156107f857600080fd5b50610441610807366004612101565b5060195490565b34801561081a57600080fd5b506105586117fa565b34801561082f57600080fd5b50610441601c5481565b34801561084557600080fd5b5061044160015481565b34801561085b57600080fd5b50610558611807565b34801561087057600080fd5b5060105461050b906001600160a01b031681565b34801561089057600080fd5b50610441601b5481565b3480156108a657600080fd5b506104416108b5366004612101565b5060125490565b3480156108c857600080fd5b5061041f6108d73660046121da565b611814565b3480156108e857600080fd5b506104416108f7366004612101565b61194f565b34801561090857600080fd5b5061044160195481565b34801561091e57600080fd5b506000546001600160a01b031661050b565b34801561093c57600080fd5b50610441600e5481565b34801561095257600080fd5b5061041f6109613660046121da565b611963565b34801561097257600080fd5b5061044160125481565b34801561098857600080fd5b50610441610997366004612101565b5060155490565b3480156109aa57600080fd5b506104416109b9366004612101565b50600d5490565b3480156109cc57600080fd5b5061041f6109db3660046120cc565b611a9e565b3480156109ec57600080fd5b506104416109fb366004612101565b50600e5490565b348015610a0e57600080fd5b50610558611b26565b348015610a2357600080fd5b5061041f610a323660046121da565b611b33565b348015610a4357600080fd5b50610441610a52366004612330565b611c6e565b348015610a6357600080fd5b5061044160165481565b348015610a7957600080fd5b50610441610a88366004612101565b5060055490565b348015610a9b57600080fd5b5061041f610aaa36600461235c565b611ccc565b348015610abb57600080fd5b5061044160065481565b348015610ad157600080fd5b5061041f610ae03660046121da565b611dcd565b348015610af157600080fd5b5061044160155481565b348015610b0757600080fd5b50601a5461050b906001600160a01b031681565b348015610b2757600080fd5b50610441610b36366004612101565b5060115490565b348015610b4957600080fd5b50610441610b58366004612101565b50600a5490565b348015610b6b57600080fd5b5061044160185481565b348015610b8157600080fd5b5060085461050b906001600160a01b031681565b348015610ba157600080fd5b50610441610bb0366004612101565b5060095490565b348015610bc357600080fd5b50610441610bd2366004612101565b5060065490565b348015610be557600080fd5b5061041f610bf4366004612101565b611f08565b348015610c0557600080fd5b5060045461050b906001600160a01b031681565b348015610c2557600080fd5b50610496610c34366004612101565b611fa3565b348015610c4557600080fd5b50600454600854600c54601054601454601754601a54604080516001600160a01b039889168152968816602088015294871694860194909452918516606085015284166080840152831660a08301529190911660c082015260e00161044b565b6000546001600160a01b03163314610cd85760405162461bcd60e51b8152600401610ccf90612391565b60405180910390fd5b601a8054601b8054601c80546001600160a01b038981166001600160a01b0319871681179097559388905590869055604051929093169390929160008051602061274d83398151915291610d3691869186918691908b908b906123c6565b60405180910390a1505050505050565b600080610d5260185490565b601554610d5f919061245f565b90506002610d6c601b5490565b610d769190612485565b610d80908261245f565b9392505050565b6000806000806000806000610d9b60065490565b600a54600e54601254601654601954601c545b959e949d50929b5090995097509550909350915050565b6000546001600160a01b03163314610def5760405162461bcd60e51b8152600401610ccf90612391565b604051339082156108fc029083906000818181858888f19350505050158015610e1c573d6000803e3d6000fd5b5050565b6000546001600160a01b03163314610e4a5760405162461bcd60e51b8152600401610ccf90612391565b6000600f8054610e59906124a7565b80601f0160208091040260200160405190810160405280929190818152602001828054610e85906124a7565b8015610ed25780601f10610ea757610100808354040283529160200191610ed2565b820191906000526020600020905b815481529060010190602001808311610eb557829003601f168201915b50506010546011546012548b519697506001600160a01b0390921695909450909250610f069150600f9060208b019061201e565b50601080546001600160a01b0319166001600160a01b0389169081179091556011879055601286905560405160008051602061274d83398151915291610f5b918791879187918791600f91908e908e90612582565b60405180910390a15050505050505050565b600f8054610f7a906124a7565b80601f0160208091040260200160405190810160405280929190818152602001828054610fa6906124a7565b8015610ff35780601f10610fc857610100808354040283529160200191610ff3565b820191906000526020600020905b815481529060010190602001808311610fd657829003601f168201915b505050505081565b6002546040805163c45a015560e01b815290516000926001600160a01b0316918391839163c45a01559160048083019260209291908290030181865afa158015611049573d6000803e3d6000fd5b505050506040513d601f19601f8201168201806040525081019061106d91906125e9565b9050806001600160a01b031663e6a43905836001600160a01b031663ad5c46486040518163ffffffff1660e01b8152600401602060405180830381865afa1580156110bc573d6000803e3d6000fd5b505050506040513d601f19601f820116820180604052508101906110e091906125e9565b6040516001600160e01b031960e084901b1681526001600160a01b0391821660048201529087166024820152604401602060405180830381865afa15801561112c573d6000803e3d6000fd5b505050506040513d601f19601f8201168201806040525081019061115091906125e9565b949350505050565b60008060008061116785610ffb565b9050806001600160a01b0316630902f1ac6040518163ffffffff1660e01b8152600401606060405180830381865afa1580156111a7573d6000803e3d6000fd5b505050506040513d601f19601f820116820180604052508101906111cb9190612622565b935093509350509193909250565b6000546001600160a01b031633146112035760405162461bcd60e51b8152600401610ccf90612391565b600280546001600160a01b038381166001600160a01b031983168117909355604080519190921680825260208201939093527f02dc5c233404867c793b749c6d644beb2277536d18a7e7974d3f238e4c6f168491015b60405180910390a15050565b606080606080606080606060036007600b600f6013848054611286906124a7565b80601f01602080910402602001604051908101604052809291908181526020018280546112b2906124a7565b80156112ff5780601f106112d4576101008083540402835291602001916112ff565b820191906000526020600020905b8154815290600101906020018083116112e257829003601f168201915b50505050509450838054611312906124a7565b80601f016020809104026020016040519081016040528092919081815260200182805461133e906124a7565b801561138b5780601f106113605761010080835404028352916020019161138b565b820191906000526020600020905b81548152906001019060200180831161136e57829003601f168201915b5050505050935082805461139e906124a7565b80601f01602080910402602001604051908101604052809291908181526020018280546113ca906124a7565b80156114175780601f106113ec57610100808354040283529160200191611417565b820191906000526020600020905b8154815290600101906020018083116113fa57829003601f168201915b5050505050925081805461142a906124a7565b80601f0160208091040260200160405190810160405280929190818152602001828054611456906124a7565b80156114a35780601f10611478576101008083540402835291602001916114a3565b820191906000526020600020905b81548152906001019060200180831161148657829003601f168201915b505050505091508080546114b6906124a7565b80601f01602080910402602001604051908101604052809291908181526020018280546114e2906124a7565b801561152f5780601f106115045761010080835404028352916020019161152f565b820191906000526020600020905b81548152906001019060200180831161151257829003601f168201915b5050505050905060405180604001604052806008815260200167084eae4dc40a8c2f60c31b8152506040518060400160405280600d81526020016c098d2e2ead2c8d2e8f240a8c2f609b1b815250965096509650965096509650965090919293949596565b60038054610f7a906124a7565b6000546001600160a01b031633146115cb5760405162461bcd60e51b8152600401610ccf90612391565b6040516370a0823160e01b81523060048201526000906001600160a01b038416906370a0823190602401602060405180830381865afa158015611612573d6000803e3d6000fd5b505050506040513d601f19601f820116820180604052508101906116369190612672565b9050818110156116885760405162461bcd60e51b815260206004820152601a60248201527f496e73756666696369656e7420746f6b656e2062616c616e63650000000000006044820152606401610ccf565b6001600160a01b03831663a9059cbb336040516001600160e01b031960e084901b1681526001600160a01b039091166004820152602481018590526044016020604051808303816000875af11580156116e5573d6000803e3d6000fd5b505050506040513d601f19601f82011682018060405250810190611709919061268b565b50505050565b600b8054610f7a906124a7565b6000546001600160a01b031633146117465760405162461bcd60e51b8152600401610ccf90612391565b600180549082905560408051828152602081018490527fbe3cb9bb7287941a692b2b46dce4659b95fcf76e6c9695b4454a5e571d37e73a9101611259565b6000546001600160a01b031633146117ae5760405162461bcd60e51b8152600401610ccf90612391565b6117b86000611fce565b565b6000806117c660125490565b600e54600a546006546117d9919061245f565b6117e3919061245f565b6117ed919061245f565b90506002610d6c601c5490565b60078054610f7a906124a7565b601d8054610f7a906124a7565b6000546001600160a01b0316331461183e5760405162461bcd60e51b8152600401610ccf90612391565b60006007805461184d906124a7565b80601f0160208091040260200160405190810160405280929190818152602001828054611879906124a7565b80156118c65780601f1061189b576101008083540402835291602001916118c6565b820191906000526020600020905b8154815290600101906020018083116118a957829003601f168201915b5050600854600954600a548b519697506001600160a01b03909216959094509092506118fa915060079060208b019061201e565b50600880546001600160a01b0319166001600160a01b0389169081179091556009879055600a86905560405160008051602061274d83398151915291610f5b918791879187918791600791908e908e90612582565b60008061195b60195490565b6016546117e3565b6000546001600160a01b0316331461198d5760405162461bcd60e51b8152600401610ccf90612391565b60006003805461199c906124a7565b80601f01602080910402602001604051908101604052809291908181526020018280546119c8906124a7565b8015611a155780601f106119ea57610100808354040283529160200191611a15565b820191906000526020600020905b8154815290600101906020018083116119f857829003601f168201915b50506004546005546006548b519697506001600160a01b0390921695909450909250611a49915060039060208b019061201e565b50600480546001600160a01b0319166001600160a01b0389169081179091556005879055600686905560405160008051602061274d83398151915291610f5b918791879187918791600391908e908e90612582565b6000546001600160a01b03163314611ac85760405162461bcd60e51b8152600401610ccf90612391565b6017805460188054601980546001600160a01b038981166001600160a01b0319871681179097559388905590869055604051929093169390929160008051602061274d83398151915291610d3691869186918691908b908b906126ad565b60138054610f7a906124a7565b6000546001600160a01b03163314611b5d5760405162461bcd60e51b8152600401610ccf90612391565b600060138054611b6c906124a7565b80601f0160208091040260200160405190810160405280929190818152602001828054611b98906124a7565b8015611be55780601f10611bba57610100808354040283529160200191611be5565b820191906000526020600020905b815481529060010190602001808311611bc857829003601f168201915b50506014546015546016548b519697506001600160a01b0390921695909450909250611c19915060139060208b019061201e565b50601480546001600160a01b0319166001600160a01b0389169081179091556015879055601686905560405160008051602061274d83398151915291610f5b918791879187918791601391908e908e90612582565b600080611c7a60115490565b600d54600954600554611c8d919061245f565b611c97919061245f565b611ca1919061245f565b90506002611cae601b5490565b611cb89190612485565b611cc2828561245f565b611150919061245f565b6000546001600160a01b03163314611cf65760405162461bcd60e51b8152600401610ccf90612391565b6000601d8054611d05906124a7565b80601f0160208091040260200160405190810160405280929190818152602001828054611d31906124a7565b8015611d7e5780601f10611d5357610100808354040283529160200191611d7e565b820191906000526020600020905b815481529060010190602001808311611d6157829003601f168201915b50508551939450611d9a93601d9350602087019250905061201e565b507ff1b71db64e8d2411035c219af08906744c6341d677da5fc7c9f08dc7bd1a9a6981601d60405161125992919061271e565b6000546001600160a01b03163314611df75760405162461bcd60e51b8152600401610ccf90612391565b6000600b8054611e06906124a7565b80601f0160208091040260200160405190810160405280929190818152602001828054611e32906124a7565b8015611e7f5780601f10611e5457610100808354040283529160200191611e7f565b820191906000526020600020905b815481529060010190602001808311611e6257829003601f168201915b5050600c54600d54600e548b519697506001600160a01b0390921695909450909250611eb39150600b9060208b019061201e565b50600c80546001600160a01b0319166001600160a01b038916908117909155600d879055600e86905560405160008051602061274d83398151915291610f5b918791879187918791600b91908e908e90612582565b6000546001600160a01b03163314611f325760405162461bcd60e51b8152600401610ccf90612391565b6001600160a01b038116611f975760405162461bcd60e51b815260206004820152602660248201527f4f776e61626c653a206e6577206f776e657220697320746865207a65726f206160448201526564647265737360d01b6064820152608401610ccf565b611fa081611fce565b50565b6000806000806000806000611fb760055490565b600954600d54601154601554601854601b54610dae565b600080546001600160a01b038381166001600160a01b0319831681178455604051919092169283917f8be0079c531659141344cd1fd0a4f28419497f9722a3daafe3b4186f6b6457e09190a35050565b82805461202a906124a7565b90600052602060002090601f01602090048101928261204c5760008555612092565b82601f1061206557805160ff1916838001178555612092565b82800160010185558215612092579182015b82811115612092578251825591602001919060010190612077565b5061209e9291506120a2565b5090565b5b8082111561209e57600081556001016120a3565b6001600160a01b0381168114611fa057600080fd5b6000806000606084860312156120e157600080fd5b83356120ec816120b7565b95602085013595506040909401359392505050565b60006020828403121561211357600080fd5b8135610d80816120b7565b60006020828403121561213057600080fd5b5035919050565b634e487b7160e01b600052604160045260246000fd5b600082601f83011261215e57600080fd5b813567ffffffffffffffff8082111561217957612179612137565b604051601f8301601f19908116603f011681019082821181831017156121a1576121a1612137565b816040528381528660208588010111156121ba57600080fd5b836020870160208301376000602085830101528094505050505092915050565b600080600080608085870312156121f057600080fd5b843567ffffffffffffffff81111561220757600080fd5b6122138782880161214d565b9450506020850135612224816120b7565b93969395505050506040820135916060013590565b6000815180845260005b8181101561225f57602081850181015186830182015201612243565b81811115612271576000602083870101525b50601f01601f19169290920160200192915050565b602081526000610d806020830184612239565b60e0815260006122ac60e083018a612239565b82810360208401526122be818a612239565b905082810360408401526122d28189612239565b905082810360608401526122e68188612239565b905082810360808401526122fa8187612239565b905082810360a084015261230e8186612239565b905082810360c08401526123228185612239565b9a9950505050505050505050565b6000806040838503121561234357600080fd5b823561234e816120b7565b946020939093013593505050565b60006020828403121561236e57600080fd5b813567ffffffffffffffff81111561238557600080fd5b6111508482850161214d565b6020808252818101527f4f776e61626c653a2063616c6c6572206973206e6f7420746865206f776e6572604082015260600190565b60006101008083526123f4818401600d81526c098d2e2ead2c8d2e8f240a8c2f609b1b602082015260400190565b6001600160a01b038a81166020860152604085018a905260608501899052848203608086015290915061244182600d81526c098d2e2ead2c8d2e8f240a8c2f609b1b602082015260400190565b961660a0840152505060c081019290925260e0909101529392505050565b6000821982111561248057634e487b7160e01b600052601160045260246000fd5b500190565b6000826124a257634e487b7160e01b600052601260045260246000fd5b500490565b600181811c908216806124bb57607f821691505b602082108114156124dc57634e487b7160e01b600052602260045260246000fd5b50919050565b8054600090600181811c90808316806124fc57607f831692505b602080841082141561251e57634e487b7160e01b600052602260045260246000fd5b83885260208801828015612539576001811461254a57612575565b60ff19871682528282019750612575565b60008981526020902060005b8781101561256f57815484820152908601908401612556565b83019850505b5050505050505092915050565b60006101008083526125968184018c612239565b6001600160a01b038b81166020860152604085018b9052606085018a905284820360808601529091506125c982896124e2565b961660a0840152505060c081019290925260e09091015295945050505050565b6000602082840312156125fb57600080fd5b8151610d80816120b7565b80516001600160701b038116811461261d57600080fd5b919050565b60008060006060848603121561263757600080fd5b61264084612606565b925061264e60208501612606565b9150604084015163ffffffff8116811461266757600080fd5b809150509250925092565b60006020828403121561268457600080fd5b5051919050565b60006020828403121561269d57600080fd5b81518015158114610d8057600080fd5b60006101008083526126d68184016008815267084eae4dc40a8c2f60c31b602082015260400190565b6001600160a01b038a81166020860152604085018a9052606085018990528482036080860152909150612441826008815267084eae4dc40a8c2f60c31b602082015260400190565b6040815260006127316040830185612239565b828103602084015261274381856124e2565b9594505050505056fea8a8ba62162bcc4c125b3b832495f50d313eb4892e9ad2ab9900fe34831c40a6a26469706673582212203c0141dc22990ccfac01933bc9dbcae9c664f0495d0965cb43ec728b8d9418b064736f6c634300080c0033a2646970667358221220f7efb3f97546c1005205b679243fb2016657ffaa0fa365ecb23a6b0ee8a7c8db64736f6c634300080c0033",
  "linkReferences": {},
  "deployedLinkReferences": {}
}