{
  "_format": "hh-sol-artifact-1",
  "contractName": "Safemoon",
  "sourceName": "contracts/SafeMoon.sol",
  "abi": [
    {
      "anonymous": false,
      "inputs": [
        {
          "indexed": true,
          "internalType": "address",
          "name": "owner",
          "type": "address"
        },
        {
          "indexed": true,
          "internalType": "address",
          "name": "spender",
          "type": "address"
        },
        {
          "indexed": false,
          "internalType": "uint256",
          "name": "value",
          "type": "uint256"
        }
      ],
      "name": "Approval",
      "type": "event"
    },
    {
      "anonymous": false,
      "inputs": [
        {
          "indexed": false,
          "internalType": "uint256",
          "name": "minTokensBeforeSwap",
          "type": "uint256"
        }
      ],
      "name": "MinTokensBeforeSwapUpdated",
      "type": "event"
    },
    {
      "anonymous": false,
      "inputs": [
        {
          "indexed": true,
          "internalType": "address",
          "name": "previousOwner",
          "type": "address"
        },
        {
          "indexed": true,
          "internalType": "address",
          "name": "newOwner",
          "type": "address"
        }
      ],
      "name": "OwnershipTransferred",
      "type": "event"
    },
    {
      "anonymous": false,
      "inputs": [
        {
          "indexed": false,
          "internalType": "uint256",
          "name": "tokensSwapped",
          "type": "uint256"
        },
        {
          "indexed": false,
          "internalType": "uint256",
          "name": "bnbReceived",
          "type": "uint256"
        },
        {
          "indexed": false,
          "internalType": "uint256",
          "name": "tokensIntoLiquidity",
          "type": "uint256"
        }
      ],
      "name": "SwapAndLiquify",
      "type": "event"
    },
    {
      "anonymous": false,
      "inputs": [
        {
          "indexed": false,
          "internalType": "bool",
          "name": "enabled",
          "type": "bool"
        }
      ],
      "name": "SwapAndLiquifyEnabledUpdated",
      "type": "event"
    },
    {
      "anonymous": false,
      "inputs": [
        {
          "indexed": true,
          "internalType": "address",
          "name": "from",
          "type": "address"
        },
        {
          "indexed": true,
          "internalType": "address",
          "name": "to",
          "type": "address"
        },
        {
          "indexed": false,
          "internalType": "uint256",
          "name": "value",
          "type": "uint256"
        }
      ],
      "name": "Transfer",
      "type": "event"
    },
    {
      "inputs": [],
      "name": "WBNB",
      "outputs": [
        {
          "internalType": "address",
          "name": "",
          "type": "address"
        }
      ],
      "stateMutability": "view",
      "type": "function"
    },
    {
      "inputs": [],
      "name": "_burnAddress",
      "outputs": [
        {
          "internalType": "address",
          "name": "",
          "type": "address"
        }
      ],
      "stateMutability": "view",
      "type": "function"
    },
    {
      "inputs": [],
      "name": "_defaultFees",
      "outputs": [
        {
          "internalType": "uint256",
          "name": "ecoSystemFee",
          "type": "uint256"
        },
        {
          "internalType": "uint256",
          "name": "liquidityFee",
          "type": "uint256"
        },
        {
          "internalType": "uint256",
          "name": "taxFee",
          "type": "uint256"
        },
        {
          "internalType": "uint256",
          "name": "ownerFee",
          "type": "uint256"
        },
        {
          "internalType": "uint256",
          "name": "burnFee",
          "type": "uint256"
        },
        {
          "internalType": "address",
          "name": "ecoSystem",
          "type": "address"
        },
        {
          "internalType": "address",
          "name": "owner",
          "type": "address"
        }
      ],
      "stateMutability": "view",
      "type": "function"
    },
    {
      "inputs": [],
      "name": "_maxTxAmount",
      "outputs": [
        {
          "internalType": "uint256",
          "name": "",
          "type": "uint256"
        }
      ],
      "stateMutability": "view",
      "type": "function"
    },
    {
      "inputs": [
        {
          "internalType": "address",
          "name": "_account",
          "type": "address"
        }
      ],
      "name": "accountTier",
      "outputs": [
        {
          "components": [
            {
              "internalType": "uint256",
              "name": "ecoSystemFee",
              "type": "uint256"
            },
            {
              "internalType": "uint256",
              "name": "liquidityFee",
              "type": "uint256"
            },
            {
              "internalType": "uint256",
              "name": "taxFee",
              "type": "uint256"
            },
            {
              "internalType": "uint256",
              "name": "ownerFee",
              "type": "uint256"
            },
            {
              "internalType": "uint256",
              "name": "burnFee",
              "type": "uint256"
            },
            {
              "internalType": "address",
              "name": "ecoSystem",
              "type": "address"
            },
            {
              "internalType": "address",
              "name": "owner",
              "type": "address"
            }
          ],
          "internalType": "struct Safemoon.FeeTier",
          "name": "",
          "type": "tuple"
        }
      ],
      "stateMutability": "view",
      "type": "function"
    },
    {
      "inputs": [
        {
          "internalType": "uint256",
          "name": "_ecoSystemFee",
          "type": "uint256"
        },
        {
          "internalType": "uint256",
          "name": "_liquidityFee",
          "type": "uint256"
        },
        {
          "internalType": "uint256",
          "name": "_taxFee",
          "type": "uint256"
        },
        {
          "internalType": "uint256",
          "name": "_ownerFee",
          "type": "uint256"
        },
        {
          "internalType": "uint256",
          "name": "_burnFee",
          "type": "uint256"
        },
        {
          "internalType": "address",
          "name": "_ecoSystem",
          "type": "address"
        },
        {
          "internalType": "address",
          "name": "_owner",
          "type": "address"
        }
      ],
      "name": "addTier",
      "outputs": [],
      "stateMutability": "nonpayable",
      "type": "function"
    },
    {
      "inputs": [
        {
          "internalType": "address",
          "name": "owner",
          "type": "address"
        },
        {
          "internalType": "address",
          "name": "spender",
          "type": "address"
        }
      ],
      "name": "allowance",
      "outputs": [
        {
          "internalType": "uint256",
          "name": "",
          "type": "uint256"
        }
      ],
      "stateMutability": "view",
      "type": "function"
    },
    {
      "inputs": [
        {
          "internalType": "address",
          "name": "spender",
          "type": "address"
        },
        {
          "internalType": "uint256",
          "name": "amount",
          "type": "uint256"
        }
      ],
      "name": "approve",
      "outputs": [
        {
          "internalType": "bool",
          "name": "",
          "type": "bool"
        }
      ],
      "stateMutability": "nonpayable",
      "type": "function"
    },
    {
      "inputs": [
        {
          "internalType": "address",
          "name": "account",
          "type": "address"
        }
      ],
      "name": "balanceOf",
      "outputs": [
        {
          "internalType": "uint256",
          "name": "",
          "type": "uint256"
        }
      ],
      "stateMutability": "view",
      "type": "function"
    },
    {
      "inputs": [
        {
          "internalType": "address",
          "name": "account",
          "type": "address"
        }
      ],
      "name": "blacklistAddress",
      "outputs": [],
      "stateMutability": "nonpayable",
      "type": "function"
    },
    {
      "inputs": [],
      "name": "decimals",
      "outputs": [
        {
          "internalType": "uint8",
          "name": "",
          "type": "uint8"
        }
      ],
      "stateMutability": "view",
      "type": "function"
    },
    {
      "inputs": [
        {
          "internalType": "address",
          "name": "spender",
          "type": "address"
        },
        {
          "internalType": "uint256",
          "name": "subtractedValue",
          "type": "uint256"
        }
      ],
      "name": "decreaseAllowance",
      "outputs": [
        {
          "internalType": "bool",
          "name": "",
          "type": "bool"
        }
      ],
      "stateMutability": "nonpayable",
      "type": "function"
    },
    {
      "inputs": [
        {
          "internalType": "address",
          "name": "account",
          "type": "address"
        }
      ],
      "name": "excludeFromFee",
      "outputs": [],
      "stateMutability": "nonpayable",
      "type": "function"
    },
    {
      "inputs": [
        {
          "internalType": "address",
          "name": "account",
          "type": "address"
        }
      ],
      "name": "excludeFromReward",
      "outputs": [],
      "stateMutability": "nonpayable",
      "type": "function"
    },
    {
      "inputs": [
        {
          "internalType": "address",
          "name": "_account",
          "type": "address"
        }
      ],
      "name": "excludeWhitelistedAddress",
      "outputs": [],
      "stateMutability": "nonpayable",
      "type": "function"
    },
    {
      "inputs": [
        {
          "internalType": "uint256",
          "name": "_tierIndex",
          "type": "uint256"
        }
      ],
      "name": "feeTier",
      "outputs": [
        {
          "components": [
            {
              "internalType": "uint256",
              "name": "ecoSystemFee",
              "type": "uint256"
            },
            {
              "internalType": "uint256",
              "name": "liquidityFee",
              "type": "uint256"
            },
            {
              "internalType": "uint256",
              "name": "taxFee",
              "type": "uint256"
            },
            {
              "internalType": "uint256",
              "name": "ownerFee",
              "type": "uint256"
            },
            {
              "internalType": "uint256",
              "name": "burnFee",
              "type": "uint256"
            },
            {
              "internalType": "address",
              "name": "ecoSystem",
              "type": "address"
            },
            {
              "internalType": "address",
              "name": "owner",
              "type": "address"
            }
          ],
          "internalType": "struct Safemoon.FeeTier",
          "name": "",
          "type": "tuple"
        }
      ],
      "stateMutability": "view",
      "type": "function"
    },
    {
      "inputs": [],
      "name": "feeTiersLength",
      "outputs": [
        {
          "internalType": "uint256",
          "name": "",
          "type": "uint256"
        }
      ],
      "stateMutability": "view",
      "type": "function"
    },
    {
      "inputs": [
        {
          "internalType": "address",
          "name": "account",
          "type": "address"
        }
      ],
      "name": "includeInFee",
      "outputs": [],
      "stateMutability": "nonpayable",
      "type": "function"
    },
    {
      "inputs": [
        {
          "internalType": "address",
          "name": "account",
          "type": "address"
        }
      ],
      "name": "includeInReward",
      "outputs": [],
      "stateMutability": "nonpayable",
      "type": "function"
    },
    {
      "inputs": [
        {
          "internalType": "address",
          "name": "spender",
          "type": "address"
        },
        {
          "internalType": "uint256",
          "name": "addedValue",
          "type": "uint256"
        }
      ],
      "name": "increaseAllowance",
      "outputs": [
        {
          "internalType": "bool",
          "name": "",
          "type": "bool"
        }
      ],
      "stateMutability": "nonpayable",
      "type": "function"
    },
    {
      "inputs": [
        {
          "internalType": "address",
          "name": "_router",
          "type": "address"
        }
      ],
      "name": "initialize",
      "outputs": [],
      "stateMutability": "nonpayable",
      "type": "function"
    },
    {
      "inputs": [
        {
          "internalType": "address",
          "name": "account",
          "type": "address"
        }
      ],
      "name": "isBlacklisted",
      "outputs": [
        {
          "internalType": "bool",
          "name": "",
          "type": "bool"
        }
      ],
      "stateMutability": "view",
      "type": "function"
    },
    {
      "inputs": [
        {
          "internalType": "address",
          "name": "account",
          "type": "address"
        }
      ],
      "name": "isExcludedFromFee",
      "outputs": [
        {
          "internalType": "bool",
          "name": "",
          "type": "bool"
        }
      ],
      "stateMutability": "view",
      "type": "function"
    },
    {
      "inputs": [
        {
          "internalType": "address",
          "name": "account",
          "type": "address"
        }
      ],
      "name": "isExcludedFromReward",
      "outputs": [
        {
          "internalType": "bool",
          "name": "",
          "type": "bool"
        }
      ],
      "stateMutability": "view",
      "type": "function"
    },
    {
      "inputs": [],
      "name": "isMigrationStarted",
      "outputs": [
        {
          "internalType": "bool",
          "name": "",
          "type": "bool"
        }
      ],
      "stateMutability": "view",
      "type": "function"
    },
    {
      "inputs": [
        {
          "internalType": "address",
          "name": "_account",
          "type": "address"
        }
      ],
      "name": "isWhitelisted",
      "outputs": [
        {
          "internalType": "bool",
          "name": "",
          "type": "bool"
        }
      ],
      "stateMutability": "view",
      "type": "function"
    },
    {
      "inputs": [
        {
          "internalType": "address",
          "name": "account",
          "type": "address"
        },
        {
          "internalType": "uint256",
          "name": "amount",
          "type": "uint256"
        }
      ],
      "name": "migrate",
      "outputs": [],
      "stateMutability": "nonpayable",
      "type": "function"
    },
    {
      "inputs": [],
      "name": "name",
      "outputs": [
        {
          "internalType": "string",
          "name": "",
          "type": "string"
        }
      ],
      "stateMutability": "view",
      "type": "function"
    },
    {
      "inputs": [],
      "name": "owner",
      "outputs": [
        {
          "internalType": "address",
          "name": "",
          "type": "address"
        }
      ],
      "stateMutability": "view",
      "type": "function"
    },
    {
      "inputs": [
        {
          "internalType": "uint256",
          "name": "tAmount",
          "type": "uint256"
        },
        {
          "internalType": "bool",
          "name": "deductTransferFee",
          "type": "bool"
        }
      ],
      "name": "reflectionFromToken",
      "outputs": [
        {
          "internalType": "uint256",
          "name": "",
          "type": "uint256"
        }
      ],
      "stateMutability": "view",
      "type": "function"
    },
    {
      "inputs": [
        {
          "internalType": "uint256",
          "name": "tAmount",
          "type": "uint256"
        },
        {
          "internalType": "uint256",
          "name": "_tierIndex",
          "type": "uint256"
        },
        {
          "internalType": "bool",
          "name": "deductTransferFee",
          "type": "bool"
        }
      ],
      "name": "reflectionFromTokenInTiers",
      "outputs": [
        {
          "internalType": "uint256",
          "name": "",
          "type": "uint256"
        }
      ],
      "stateMutability": "view",
      "type": "function"
    },
    {
      "inputs": [],
      "name": "renounceOwnership",
      "outputs": [],
      "stateMutability": "nonpayable",
      "type": "function"
    },
    {
      "inputs": [
        {
          "internalType": "uint256",
          "name": "_tierIndex",
          "type": "uint256"
        },
        {
          "internalType": "uint256",
          "name": "_burnFee",
          "type": "uint256"
        }
      ],
      "name": "setBurnFeePercent",
      "outputs": [],
      "stateMutability": "nonpayable",
      "type": "function"
    },
    {
      "inputs": [],
      "name": "setDefaultSettings",
      "outputs": [],
      "stateMutability": "nonpayable",
      "type": "function"
    },
    {
      "inputs": [
        {
          "internalType": "uint256",
          "name": "_tierIndex",
          "type": "uint256"
        },
        {
          "internalType": "address",
          "name": "_ecoSystem",
          "type": "address"
        }
      ],
      "name": "setEcoSystemFeeAddress",
      "outputs": [],
      "stateMutability": "nonpayable",
      "type": "function"
    },
    {
      "inputs": [
        {
          "internalType": "uint256",
          "name": "_tierIndex",
          "type": "uint256"
        },
        {
          "internalType": "uint256",
          "name": "_ecoSystemFee",
          "type": "uint256"
        }
      ],
      "name": "setEcoSystemFeePercent",
      "outputs": [],
      "stateMutability": "nonpayable",
      "type": "function"
    },
    {
      "inputs": [
        {
          "internalType": "uint256",
          "name": "_tierIndex",
          "type": "uint256"
        },
        {
          "internalType": "uint256",
          "name": "_liquidityFee",
          "type": "uint256"
        }
      ],
      "name": "setLiquidityFeePercent",
      "outputs": [],
      "stateMutability": "nonpayable",
      "type": "function"
    },
    {
      "inputs": [
        {
          "internalType": "uint256",
          "name": "maxTxPercent",
          "type": "uint256"
        }
      ],
      "name": "setMaxTxPercent",
      "outputs": [],
      "stateMutability": "nonpayable",
      "type": "function"
    },
    {
      "inputs": [
        {
          "internalType": "address",
          "name": "_migration",
          "type": "address"
        }
      ],
      "name": "setMigrationAddress",
      "outputs": [],
      "stateMutability": "nonpayable",
      "type": "function"
    },
    {
      "inputs": [
        {
          "internalType": "uint256",
          "name": "_tierIndex",
          "type": "uint256"
        },
        {
          "internalType": "address",
          "name": "_owner",
          "type": "address"
        }
      ],
      "name": "setOwnerFeeAddress",
      "outputs": [],
      "stateMutability": "nonpayable",
      "type": "function"
    },
    {
      "inputs": [
        {
          "internalType": "uint256",
          "name": "_tierIndex",
          "type": "uint256"
        },
        {
          "internalType": "uint256",
          "name": "_ownerFee",
          "type": "uint256"
        }
      ],
      "name": "setOwnerFeePercent",
      "outputs": [],
      "stateMutability": "nonpayable",
      "type": "function"
    },
    {
      "inputs": [
        {
          "internalType": "bool",
          "name": "_enabled",
          "type": "bool"
        }
      ],
      "name": "setSwapAndLiquifyEnabled",
      "outputs": [],
      "stateMutability": "nonpayable",
      "type": "function"
    },
    {
      "inputs": [
        {
          "internalType": "uint256",
          "name": "_tierIndex",
          "type": "uint256"
        },
        {
          "internalType": "uint256",
          "name": "_taxFee",
          "type": "uint256"
        }
      ],
      "name": "setTaxFeePercent",
      "outputs": [],
      "stateMutability": "nonpayable",
      "type": "function"
    },
    {
      "inputs": [],
      "name": "swapAndLiquifyEnabled",
      "outputs": [
        {
          "internalType": "bool",
          "name": "",
          "type": "bool"
        }
      ],
      "stateMutability": "view",
      "type": "function"
    },
    {
      "inputs": [],
      "name": "symbol",
      "outputs": [
        {
          "internalType": "string",
          "name": "",
          "type": "string"
        }
      ],
      "stateMutability": "view",
      "type": "function"
    },
    {
      "inputs": [
        {
          "internalType": "uint256",
          "name": "rAmount",
          "type": "uint256"
        }
      ],
      "name": "tokenFromReflection",
      "outputs": [
        {
          "internalType": "uint256",
          "name": "",
          "type": "uint256"
        }
      ],
      "stateMutability": "view",
      "type": "function"
    },
    {
      "inputs": [],
      "name": "totalFees",
      "outputs": [
        {
          "internalType": "uint256",
          "name": "",
          "type": "uint256"
        }
      ],
      "stateMutability": "view",
      "type": "function"
    },
    {
      "inputs": [],
      "name": "totalSupply",
      "outputs": [
        {
          "internalType": "uint256",
          "name": "",
          "type": "uint256"
        }
      ],
      "stateMutability": "view",
      "type": "function"
    },
    {
      "inputs": [
        {
          "internalType": "address",
          "name": "recipient",
          "type": "address"
        },
        {
          "internalType": "uint256",
          "name": "amount",
          "type": "uint256"
        }
      ],
      "name": "transfer",
      "outputs": [
        {
          "internalType": "bool",
          "name": "",
          "type": "bool"
        }
      ],
      "stateMutability": "nonpayable",
      "type": "function"
    },
    {
      "inputs": [
        {
          "internalType": "address",
          "name": "sender",
          "type": "address"
        },
        {
          "internalType": "address",
          "name": "recipient",
          "type": "address"
        },
        {
          "internalType": "uint256",
          "name": "amount",
          "type": "uint256"
        }
      ],
      "name": "transferFrom",
      "outputs": [
        {
          "internalType": "bool",
          "name": "",
          "type": "bool"
        }
      ],
      "stateMutability": "nonpayable",
      "type": "function"
    },
    {
      "inputs": [
        {
          "internalType": "address",
          "name": "newOwner",
          "type": "address"
        }
      ],
      "name": "transferOwnership",
      "outputs": [],
      "stateMutability": "nonpayable",
      "type": "function"
    },
    {
      "inputs": [
        {
          "internalType": "address",
          "name": "account",
          "type": "address"
        }
      ],
      "name": "unBlacklistAddress",
      "outputs": [],
      "stateMutability": "nonpayable",
      "type": "function"
    },
    {
      "inputs": [],
      "name": "uniswapV2Pair",
      "outputs": [
        {
          "internalType": "address",
          "name": "",
          "type": "address"
        }
      ],
      "stateMutability": "view",
      "type": "function"
    },
    {
      "inputs": [],
      "name": "uniswapV2Router",
      "outputs": [
        {
          "internalType": "contract IUniswapV2Router02",
          "name": "",
          "type": "address"
        }
      ],
      "stateMutability": "view",
      "type": "function"
    },
    {
      "inputs": [
        {
          "internalType": "address",
          "name": "_uniswapV2Router",
          "type": "address"
        },
        {
          "internalType": "address",
          "name": "_uniswapV2Pair",
          "type": "address"
        }
      ],
      "name": "updateRouterAndPair",
      "outputs": [],
      "stateMutability": "nonpayable",
      "type": "function"
    },
    {
      "inputs": [],
      "name": "updateTokenDetails",
      "outputs": [],
      "stateMutability": "nonpayable",
      "type": "function"
    },
    {
      "inputs": [
        {
          "internalType": "address",
          "name": "_account",
          "type": "address"
        },
        {
          "internalType": "uint256",
          "name": "_tierIndex",
          "type": "uint256"
        }
      ],
      "name": "whitelistAddress",
      "outputs": [],
      "stateMutability": "nonpayable",
      "type": "function"
    },
    {
      "stateMutability": "payable",
      "type": "receive"
    }
  ],
  "bytecode": "0x608060405234801561001057600080fd5b50614eed806100206000396000f3fe60806040526004361061037a5760003560e01c806360d0eb73116101d1578063bd3900c011610102578063d840d1d7116100a0578063f2d58c231161006f578063f2d58c23146109cc578063f2fde38b146109ec578063f3290d7514610a0c578063fe575a8714610a2c57610381565b8063d840d1d71461094f578063dd62ed3e14610964578063dfd66cb314610984578063ea2f0b37146109ac57610381565b8063c4d66de8116100dc578063c4d66de8146108cf578063d40cf659146108ef578063d543dbeb1461090f578063d66329b01461092f57610381565b8063bd3900c01461087a578063bf2664691461088f578063c49b9a80146108af57610381565b80638da5cb5b1161016f57806395d89b411161014957806395d89b4114610805578063a457c2d71461081a578063a9059cbb1461083a578063ad68ebf71461085a57610381565b80638da5cb5b146107bb5780638dd95002146107d05780638fc3d4b8146107e557610381565b80637d1db4a5116101ab5780637d1db4a5146107465780637ed948f71461075b57806388f820201461077b5780638af319c71461079b57610381565b806360d0eb73146106fc57806370a0823114610711578063715018a61461073157610381565b8063313ce567116102ab5780634549b039116102495780634a74bb02116102235780634a74bb02146106875780634ffc14251461069c57806352390c02146106bc5780635342acb4146106dc57610381565b80634549b039146106325780634732a7dc1461065257806349bd5a5e1461067257610381565b806339aa1bba1161028557806339aa1bba146105b25780633af32abf146105d257806340b28c2f146105f2578063437823ec1461061257610381565b8063313ce567146105505780633685d41914610572578063395093511461059257610381565b80631694505e1161031857806323b872dd116102f257806323b872dd146104d05780632d838119146104f0578063301273341461051057806330b263ba1461053057610381565b80631694505e1461047957806318160ddd1461049b578063200c7295146104b057610381565b806311b326011161035457806311b326011461040057806313114a9d14610422578063132af75c14610437578063140c57591461044c57610381565b806306fdde0314610386578063095ea7b3146103b157806310844953146103de57610381565b3661038157005b600080fd5b34801561039257600080fd5b5061039b610a4c565b6040516103a891906145a9565b60405180910390f35b3480156103bd57600080fd5b506103d16103cc3660046143a0565b610ae2565b6040516103a8919061459e565b3480156103ea57600080fd5b506103fe6103f93660046142f0565b610b00565b005b34801561040c57600080fd5b50610415610bbd565b6040516103a89190614cae565b34801561042e57600080fd5b50610415610bc3565b34801561044357600080fd5b506103fe610bc9565b34801561045857600080fd5b5061046c6104673660046143e7565b610c1d565b6040516103a89190614c56565b34801561048557600080fd5b5061048e610cca565b6040516103a89190614535565b3480156104a757600080fd5b50610415610cd9565b3480156104bc57600080fd5b506103fe6104cb3660046143a0565b610cdf565b3480156104dc57600080fd5b506103d16104eb366004614360565b610ddd565b3480156104fc57600080fd5b5061041561050b3660046143e7565b610e65565b34801561051c57600080fd5b5061046c61052b3660046142f0565b610ea8565b34801561053c57600080fd5b506103fe61054b366004614447565b610f4c565b34801561055c57600080fd5b50610565611073565b6040516103a89190614d79565b34801561057e57600080fd5b506103fe61058d3660046142f0565b61107c565b34801561059e57600080fd5b506103d16105ad3660046143a0565b6111ef565b3480156105be57600080fd5b506103fe6105cd366004614447565b61123d565b3480156105de57600080fd5b506103d16105ed3660046142f0565b61135d565b3480156105fe57600080fd5b506103fe61060d366004614328565b61137a565b34801561061e57600080fd5b506103fe61062d3660046142f0565b611480565b34801561063e57600080fd5b5061041561064d366004614423565b6114e3565b34801561065e57600080fd5b506103fe61066d3660046142f0565b6114f1565b34801561067e57600080fd5b5061048e611552565b34801561069357600080fd5b506103d1611561565b3480156106a857600080fd5b506103fe6106b73660046144cd565b611571565b3480156106c857600080fd5b506103fe6106d73660046142f0565b6115c9565b3480156106e857600080fd5b506103d16106f73660046142f0565b611701565b34801561070857600080fd5b506103d161171f565b34801561071d57600080fd5b5061041561072c3660046142f0565b611730565b34801561073d57600080fd5b506103fe611792565b34801561075257600080fd5b5061041561181b565b34801561076757600080fd5b506103fe6107763660046143ff565b611821565b34801561078757600080fd5b506103d16107963660046142f0565b611916565b3480156107a757600080fd5b506103fe6107b63660046143ff565b611934565b3480156107c757600080fd5b5061048e611a2a565b3480156107dc57600080fd5b5061048e611a39565b3480156107f157600080fd5b506103fe610800366004614447565b611a48565b34801561081157600080fd5b5061039b611b6b565b34801561082657600080fd5b506103d16108353660046143a0565b611bcc565b34801561084657600080fd5b506103d16108553660046143a0565b611c34565b34801561086657600080fd5b506103fe6108753660046143a0565b611c48565b34801561088657600080fd5b5061048e611cb4565b34801561089b57600080fd5b506104156108aa366004614468565b611cc3565b3480156108bb57600080fd5b506103fe6108ca3660046143cb565b611d27565b3480156108db57600080fd5b506103fe6108ea3660046142f0565b611db8565b3480156108fb57600080fd5b506103fe61090a3660046142f0565b611e54565b34801561091b57600080fd5b506103fe61092a3660046143e7565b611eb4565b34801561093b57600080fd5b506103fe61094a366004614447565b611f1a565b34801561095b57600080fd5b506103fe61203d565b34801561097057600080fd5b5061041561097f366004614328565b6121a3565b34801561099057600080fd5b506109996121ce565b6040516103a89796959493929190614d3d565b3480156109b857600080fd5b506103fe6109c73660046142f0565b6121f3565b3480156109d857600080fd5b506103fe6109e7366004614447565b612253565b3480156109f857600080fd5b506103fe610a073660046142f0565b612374565b348015610a1857600080fd5b506103fe610a273660046142f0565b612435565b348015610a3857600080fd5b506103d1610a473660046142f0565b6124a3565b60718054604080516020601f6002600019610100600188161502019095169490940493840181900481028201810190925282815260609390929091830182828015610ad85780601f10610aad57610100808354040283529160200191610ad8565b820191906000526020600020905b815481529060010190602001808311610abb57829003601f168201915b5050505050905090565b6000610af6610aef6124c1565b84846124c5565b5060015b92915050565b610b086124c1565b6001600160a01b0316610b19611a2a565b6001600160a01b031614610b485760405162461bcd60e51b8152600401610b3f906149d3565b60405180910390fd5b6001600160a01b038116610b6e5760405162461bcd60e51b8152600401610b3f90614a08565b6001600160a01b0381166000908152606b6020526040902054610ba35760405162461bcd60e51b8152600401610b3f90614b52565b6001600160a01b03166000908152606b6020526040812055565b60895490565b606f5490565b610bd16124c1565b6001600160a01b0316610be2611a2a565b6001600160a01b031614610c085760405162461bcd60e51b8152600401610b3f906149d3565b608f805460ff60a81b1916600160a81b179055565b610c2561418c565b60895482908110610c485760405162461bcd60e51b8152600401610b3f90614924565b60898381548110610c5557fe5b60009182526020918290206040805160e081018252600790930290910180548352600181015493830193909352600283015490820152600382015460608201526004820154608082015260058201546001600160a01b0390811660a083015260069092015490911660c0820152915050919050565b608a546001600160a01b031681565b606d5490565b610ce76124c1565b6001600160a01b0316610cf8611a2a565b6001600160a01b031614610d1e5760405162461bcd60e51b8152600401610b3f906149d3565b60895481908110610d415760405162461bcd60e51b8152600401610b3f90614924565b826040518060600160405280602a8152602001614e8e602a91396001600160a01b0382166000908152606a6020526040902054819060ff1615610d975760405162461bcd60e51b8152600401610b3f91906145a9565b506001600160a01b038516610dbe5760405162461bcd60e51b8152600401610b3f90614a08565b5050506001600160a01b039091166000908152606b6020526040902055565b6000610dea84848461262b565b610e5a84610df66124c1565b610e5585604051806060016040528060288152602001614df8602891396001600160a01b038a16600090815260676020526040812090610e346124c1565b6001600160a01b031681526020810191909152604001600020549190612971565b6124c5565b5060015b9392505050565b6000606e54821115610e895760405162461bcd60e51b8152600401610b3f90614685565b6000610e9361299d565b9050610e9f83826129c0565b9150505b919050565b610eb061418c565b6001600160a01b0382166000908152606b6020526040902054608980549091908110610ed857fe5b60009182526020918290206040805160e081018252600790930290910180548352600181015493830193909352600283015490820152600382015460608201526004820154608082015260058201546001600160a01b0390811660a083015260069092015490911660c08201529050919050565b610f546124c1565b6001600160a01b0316610f65611a2a565b6001600160a01b031614610f8b5760405162461bcd60e51b8152600401610b3f906149d3565b60895482908110610fae5760405162461bcd60e51b8152600401610b3f90614924565b610fb661418c565b60898481548110610fc357fe5b60009182526020918290206040805160e0810182526007909302909101805483526001810154938301939093526002830154908201819052600383015460608301526004830154608083015260058301546001600160a01b0390811660a084015260069093015490921660c08201529150611040908290856129f2565b826089858154811061104e57fe5b60009182526020909120600260079092020101558361106d5760768390555b50505050565b60735460ff1690565b6110846124c1565b6001600160a01b0316611095611a2a565b6001600160a01b0316146110bb5760405162461bcd60e51b8152600401610b3f906149d3565b6001600160a01b03811660009081526069602052604090205460ff166110f35760405162461bcd60e51b8152600401610b3f906147ba565b60005b606c548110156111eb57816001600160a01b0316606c828154811061111757fe5b6000918252602090912001546001600160a01b031614156111e357606c8054600019810190811061114457fe5b600091825260209091200154606c80546001600160a01b03909216918390811061116a57fe5b600091825260208083209190910180546001600160a01b0319166001600160a01b039485161790559184168152606682526040808220829055606990925220805460ff19169055606c8054806111bc57fe5b600082815260209020810160001990810180546001600160a01b03191690550190556111eb565b6001016110f6565b5050565b6000610af66111fc6124c1565b84610e55856067600061120d6124c1565b6001600160a01b03908116825260208083019390935260409182016000908120918c168152925290205490612a5f565b6112456124c1565b6001600160a01b0316611256611a2a565b6001600160a01b03161461127c5760405162461bcd60e51b8152600401610b3f906149d3565b6089548290811061129f5760405162461bcd60e51b8152600401610b3f90614924565b6112a761418c565b608984815481106112b457fe5b60009182526020918290206040805160e08101825260079093029091018054808452600182015494840194909452600281015491830191909152600381015460608301526004810154608083015260058101546001600160a01b0390811660a08401526006909101541660c08201529150611331908290856129f2565b826089858154811061133f57fe5b60009182526020909120600790910201558361106d57505060745550565b6001600160a01b03166000908152606b6020526040902054151590565b6113826124c1565b6001600160a01b0316611393611a2a565b6001600160a01b0316146113b95760405162461bcd60e51b8152600401610b3f906149d3565b608a80546001600160a01b038085166001600160a01b03199283161792839055608b8054858316931692909217909155604080516315ab88c960e31b81529051929091169163ad5c464891600480820192602092909190829003018186803b15801561142457600080fd5b505afa158015611438573d6000803e3d6000fd5b505050506040513d601f19601f8201168201806040525081019061145c919061430c565b608c80546001600160a01b0319166001600160a01b03929092169190911790555050565b6114886124c1565b6001600160a01b0316611499611a2a565b6001600160a01b0316146114bf5760405162461bcd60e51b8152600401610b3f906149d3565b6001600160a01b03166000908152606860205260409020805460ff19166001179055565b6000610e5e83600084611cc3565b6114f96124c1565b6001600160a01b031661150a611a2a565b6001600160a01b0316146115305760405162461bcd60e51b8152600401610b3f906149d3565b608d80546001600160a01b0319166001600160a01b0392909216919091179055565b608b546001600160a01b031681565b608f54600160a81b900460ff1681565b6115796124c1565b6001600160a01b031661158a611a2a565b6001600160a01b0316146115b05760405162461bcd60e51b8152600401610b3f906149d3565b6115bf87878787878787612a84565b5050505050505050565b6115d16124c1565b6001600160a01b03166115e2611a2a565b6001600160a01b0316146116085760405162461bcd60e51b8152600401610b3f906149d3565b6001600160a01b03811660009081526069602052604090205460ff16156116415760405162461bcd60e51b8152600401610b3f9061474c565b6001600160a01b0381166000908152606560205260409020541561169b576001600160a01b03811660009081526065602052604090205461168190610e65565b6001600160a01b0382166000908152606660205260409020555b6001600160a01b03166000818152606960205260408120805460ff19166001908117909155606c805491820181559091527f2b4a51ab505fc96a0952efda2ba61bcd3078d4c02c39a186ec16f21883fbe0160180546001600160a01b0319169091179055565b6001600160a01b031660009081526068602052604090205460ff1690565b608d546001600160a01b0316151590565b6001600160a01b03811660009081526069602052604081205460ff161561177057506001600160a01b038116600090815260666020526040902054610ea3565b6001600160a01b038216600090815260656020526040902054610afa90610e65565b61179a6124c1565b6001600160a01b03166117ab611a2a565b6001600160a01b0316146117d15760405162461bcd60e51b8152600401610b3f906149d3565b6033546040516000916001600160a01b0316907f8be0079c531659141344cd1fd0a4f28419497f9722a3daafe3b4186f6b6457e0908390a3603380546001600160a01b0319169055565b60905481565b6118296124c1565b6001600160a01b031661183a611a2a565b6001600160a01b0316146118605760405162461bcd60e51b8152600401610b3f906149d3565b608954829081106118835760405162461bcd60e51b8152600401610b3f90614924565b6001600160a01b0382166118a95760405162461bcd60e51b8152600401610b3f90614aca565b81608984815481106118b757fe5b906000526020600020906007020160050160006101000a8154816001600160a01b0302191690836001600160a01b03160217905550826000141561191157607980546001600160a01b0319166001600160a01b0384161790555b505050565b6001600160a01b031660009081526069602052604090205460ff1690565b61193c6124c1565b6001600160a01b031661194d611a2a565b6001600160a01b0316146119735760405162461bcd60e51b8152600401610b3f906149d3565b608954829081106119965760405162461bcd60e51b8152600401610b3f90614924565b6001600160a01b0382166119bc5760405162461bcd60e51b8152600401610b3f90614aca565b81608984815481106119ca57fe5b906000526020600020906007020160060160006101000a8154816001600160a01b0302191690836001600160a01b03160217905550826000141561191157607a80546001600160a01b0384166001600160a01b0319909116179055505050565b6033546001600160a01b031690565b608c546001600160a01b031681565b611a506124c1565b6001600160a01b0316611a61611a2a565b6001600160a01b031614611a875760405162461bcd60e51b8152600401610b3f906149d3565b60895482908110611aaa5760405162461bcd60e51b8152600401610b3f90614924565b611ab261418c565b60898481548110611abf57fe5b60009182526020918290206040805160e0810182526007909302909101805483526001810154938301939093526002830154908201526003820154606082015260048201546080820181905260058301546001600160a01b0390811660a084015260069093015490921660c08201529150611b3c908290856129f2565b8260898581548110611b4a57fe5b60009182526020909120600460079092020101558361106d57505060785550565b60728054604080516020601f6002600019610100600188161502019095169490940493840181900481028201810190925282815260609390929091830182828015610ad85780601f10610aad57610100808354040283529160200191610ad8565b6000610af6611bd96124c1565b84610e5585604051806060016040528060258152602001614e696025913960676000611c036124c1565b6001600160a01b03908116825260208083019390935260409182016000908120918d16815292529020549190612971565b6000610af6611c416124c1565b848461262b565b608d546001600160a01b0316611c705760405162461bcd60e51b8152600401610b3f90614a88565b608d546001600160a01b0316611c846124c1565b6001600160a01b031614611caa5760405162461bcd60e51b8152600401610b3f906148f5565b6111eb8282612c4b565b608f546001600160a01b031681565b6000606d54841115611ce75760405162461bcd60e51b8152600401610b3f90614828565b81611d0857611cf46141db565b611cfe8585612cd8565b519150610e5e9050565b611d106141db565b611d1a8585612cd8565b602001519150610e5e9050565b611d2f6124c1565b6001600160a01b0316611d40611a2a565b6001600160a01b031614611d665760405162461bcd60e51b8152600401610b3f906149d3565b608f805460ff60a81b1916600160a81b831515021790556040517f53726dfcaf90650aa7eb35524f4d3220f07413c8d6cb404cc8c18bf5591bc15990611dad90839061459e565b60405180910390a150565b600054610100900460ff1680611dd15750611dd1612daa565b80611ddf575060005460ff16155b611dfb5760405162461bcd60e51b8152600401610b3f906148a7565b600054610100900460ff16158015611e26576000805460ff1961ff0019909116610100171660011790555b611e2e612dbb565b611e36612e3e565b611e3f82612f18565b80156111eb576000805461ff00191690555050565b611e5c6124c1565b6001600160a01b0316611e6d611a2a565b6001600160a01b031614611e935760405162461bcd60e51b8152600401610b3f906149d3565b6001600160a01b03166000908152606a60205260409020805460ff19169055565b611ebc6124c1565b6001600160a01b0316611ecd611a2a565b6001600160a01b031614611ef35760405162461bcd60e51b8152600401610b3f906149d3565b611f14612710611f0e83606d5461330290919063ffffffff16565b906129c0565b60905550565b611f226124c1565b6001600160a01b0316611f33611a2a565b6001600160a01b031614611f595760405162461bcd60e51b8152600401610b3f906149d3565b60895482908110611f7c5760405162461bcd60e51b8152600401610b3f90614924565b611f8461418c565b60898481548110611f9157fe5b60009182526020918290206040805160e0810182526007909302909101805483526001810154938301939093526002830154908201526003820154606082018190526004830154608083015260058301546001600160a01b0390811660a084015260069093015490921660c0820152915061200e908290856129f2565b826089858154811061201c57fe5b60009182526020909120600360079092020101558361106d57505060775550565b60925460ff16156120605760405162461bcd60e51b8152600401610b3f90614c1f565b6040805180820190915260088082526729b0b332a6b7b7b760c11b602090920191825261208f91607191614227565b506040805180820190915260088082526729a0a322a6a7a7a760c11b60209092019182526120bf91607291614227565b50683635c9adc5dea00000606d556818ce40f6d0219fffff19606e55674563918244f400006090556706f05b59d3b20000609155608e546001600160a01b031660009081526065602052604090205461211a906103e86129c0565b608e80546001600160a01b0390811660009081526065602090815260408083209590955592549091168152606690915220541561219457608e546001600160a01b0316600090815260666020526040902054612178906103e86129c0565b608e546001600160a01b03166000908152606660205260409020555b6092805460ff19166001179055565b6001600160a01b03918216600090815260676020908152604080832093909416825291909152205490565b607454607554607654607754607854607954607a546001600160a01b03918216911687565b6121fb6124c1565b6001600160a01b031661220c611a2a565b6001600160a01b0316146122325760405162461bcd60e51b8152600401610b3f906149d3565b6001600160a01b03166000908152606860205260409020805460ff19169055565b61225b6124c1565b6001600160a01b031661226c611a2a565b6001600160a01b0316146122925760405162461bcd60e51b8152600401610b3f906149d3565b608954829081106122b55760405162461bcd60e51b8152600401610b3f90614924565b6122bd61418c565b608984815481106122ca57fe5b60009182526020918290206040805160e0810182526007909302909101805483526001810154938301849052600281015491830191909152600381015460608301526004810154608083015260058101546001600160a01b0390811660a08401526006909101541660c08201529150612345908290856129f2565b826089858154811061235357fe5b60009182526020909120600160079092020101558361106d57505060755550565b61237c6124c1565b6001600160a01b031661238d611a2a565b6001600160a01b0316146123b35760405162461bcd60e51b8152600401610b3f906149d3565b6001600160a01b0381166123d95760405162461bcd60e51b8152600401610b3f906146cf565b6033546040516001600160a01b038084169216907f8be0079c531659141344cd1fd0a4f28419497f9722a3daafe3b4186f6b6457e090600090a3603380546001600160a01b0319166001600160a01b0392909216919091179055565b61243d6124c1565b6001600160a01b031661244e611a2a565b6001600160a01b0316146124745760405162461bcd60e51b8152600401610b3f906149d3565b6001600160a01b03166000908152606a60209081526040808320805460ff19166001179055606b909152812055565b6001600160a01b03166000908152606a602052604090205460ff1690565b3390565b82604051806060016040528060268152602001614e43602691396001600160a01b0382166000908152606a6020526040902054819060ff161561251b5760405162461bcd60e51b8152600401610b3f91906145a9565b5083604051806060016040528060288152602001614dd0602891396001600160a01b0382166000908152606a6020526040902054819060ff16156125725760405162461bcd60e51b8152600401610b3f91906145a9565b506001600160a01b0387166125995760405162461bcd60e51b8152600401610b3f90614641565b6001600160a01b0386166125bf5760405162461bcd60e51b8152600401610b3f90614bdd565b6001600160a01b038088166000818152606760209081526040808320948b168084529490915290819020889055517f8c5be1e5ebec7d5bd14f71427d1e84f3dd0314c0f7b2291e5b200ac8c7c3b9259061261a908990614cae565b60405180910390a350505050505050565b6126336124c1565b60408051808201825260208082527f536166656d6f6f6e3a204164647265737320697320626c61636b6c6973746564818301526001600160a01b0384166000908152606a9091529190912054819060ff16156126a25760405162461bcd60e51b8152600401610b3f91906145a9565b5084604051806060016040528060258152602001614dab602591396001600160a01b0382166000908152606a6020526040902054819060ff16156126f95760405162461bcd60e51b8152600401610b3f91906145a9565b5085604051806060016040528060238152602001614e20602391396001600160a01b0382166000908152606a6020526040902054819060ff16156127505760405162461bcd60e51b8152600401610b3f91906145a9565b506001600160a01b0389166127775760405162461bcd60e51b8152600401610b3f906145fc565b6001600160a01b03881661279d5760405162461bcd60e51b8152600401610b3f90614b0f565b600087116127bd5760405162461bcd60e51b8152600401610b3f90614a3f565b6127c5611a2a565b6001600160a01b0316896001600160a01b0316141580156127ff57506127e9611a2a565b6001600160a01b0316886001600160a01b031614155b15612826576090548711156128265760405162461bcd60e51b8152600401610b3f9061485f565b600061283130611730565b9050609054811061284157506090545b6091548110801590819061285f5750608f54600160a01b900460ff16155b80156128795750608b546001600160a01b038c8116911614155b801561288e5750608f54600160a81b900460ff165b156128a15760915491506128a18261333c565b6001600160a01b038b1660009081526068602052604090205460019060ff16806128e357506001600160a01b038b1660009081526068602052604090205460ff165b156128ec575060005b6000811561295557506001600160a01b038c166000818152606b6020526040902054906129176124c1565b6001600160a01b03161461295557606b60006129316124c1565b6001600160a01b03166001600160a01b031681526020019081526020016000205490505b6129628d8d8d84866133dd565b50505050505050505050505050565b600081848411156129955760405162461bcd60e51b8152600401610b3f91906145a9565b505050900390565b60008060006129aa613557565b90925090506129b982826129c0565b9250505090565b60008082116129e15760405162461bcd60e51b8152600401610b3f906147f1565b8183816129ea57fe5b049392505050565b6000612a3b82612a2f85612a358860800151612a2f8a60600151612a2f8c60400151612a2f8e602001518f60000151612a5f90919063ffffffff16565b90612a5f565b906136ba565b905060705481111561106d5760405162461bcd60e51b8152600401610b3f90614b97565b600082820183811015610e5e5760405162461bcd60e51b8152600401610b3f90614715565b612a8c61418c565b612a9461418c565b612ae16040518060e001604052808b81526020018a8152602001898152602001888152602001878152602001866001600160a01b03168152602001856001600160a01b03168152506136e2565b6089805460018101825560009190915281517f5bfa74c743914028161ae645d300d90bbdc659f169ca1469ec86b4960f7266cb60079092029182015560208201517f5bfa74c743914028161ae645d300d90bbdc659f169ca1469ec86b4960f7266cc82015560408201517f5bfa74c743914028161ae645d300d90bbdc659f169ca1469ec86b4960f7266cd82015560608201517f5bfa74c743914028161ae645d300d90bbdc659f169ca1469ec86b4960f7266ce82015560808201517f5bfa74c743914028161ae645d300d90bbdc659f169ca1469ec86b4960f7266cf82015560a08201517f5bfa74c743914028161ae645d300d90bbdc659f169ca1469ec86b4960f7266d0820180546001600160a01b03199081166001600160a01b039384161790915560c08401517f5bfa74c743914028161ae645d300d90bbdc659f169ca1469ec86b4960f7266d19093018054909116929091169190911790559998505050505050505050565b6001600160a01b038216612c715760405162461bcd60e51b8152600401610b3f9061499c565b608e54612c8b906001600160a01b031683836000806133dd565b608e546040516001600160a01b038085169216907fddf252ad1be2c89b69c2b068fc378daa952ba7f163c4a11628f55a4df523b3ef90612ccc908590614cae565b60405180910390a35050565b612ce06141db565b612ce86142a5565b612cf2848461374a565b90506000612d218260a00151612a2f8460800151612a2f86602001518760400151612a5f90919063ffffffff16565b90506000806000612d3f88866060015186612d3a61299d565b613890565b92509250925060405180610120016040528084815260200183815260200182815260200186600001518152602001866020015181526020018660400151815260200186606001518152602001866080015181526020018660a001518152509550505050505092915050565b6000612db5306138e0565b15905090565b600054610100900460ff1680612dd45750612dd4612daa565b80612de2575060005460ff16155b612dfe5760405162461bcd60e51b8152600401610b3f906148a7565b600054610100900460ff16158015612e29576000805460ff1961ff0019909116610100171660011790555b8015612e3b576000805461ff00191690555b50565b600054610100900460ff1680612e575750612e57612daa565b80612e65575060005460ff16155b612e815760405162461bcd60e51b8152600401610b3f906148a7565b600054610100900460ff16158015612eac576000805460ff1961ff0019909116610100171660011790555b6000612eb66124c1565b603380546001600160a01b0319166001600160a01b038316908117909155604051919250906000907f8be0079c531659141344cd1fd0a4f28419497f9722a3daafe3b4186f6b6457e0908290a3508015612e3b576000805461ff001916905550565b600054610100900460ff1680612f315750612f31612daa565b80612f3f575060005460ff16155b612f5b5760405162461bcd60e51b8152600401610b3f906148a7565b600054610100900460ff16158015612f86576000805460ff1961ff0019909116610100171660011790555b6040805180820190915260088082526729b0b332a6b7b7b760c11b6020909201918252612fb591607191614227565b506040805180820190915260088082526729a0a322a6a7a7a760c11b6020909201918252612fe591607291614227565b506073805460ff19166009179055683635c9adc5dea00000606d8190556000190619606e556103e8607055608f8054674563918244f400006090556706f05b59d3b200006091556001600160a01b031960ff60a81b19909116600160a81b171661dead1790556130536124c1565b608e80546001600160a01b03199081166001600160a01b039384161791829055606e5491831660009081526065602090815260409182902093909355608a8054909216868516179182905580516315ab88c960e31b81529051919093169263ad5c4648926004808301939192829003018186803b1580156130d357600080fd5b505afa1580156130e7573d6000803e3d6000fd5b505050506040513d601f19601f8201168201806040525081019061310b919061430c565b608c80546001600160a01b0319166001600160a01b03928316179055608a546040805163c45a015560e01b81529051919092169163c45a0155916004808301926020929190829003018186803b15801561316457600080fd5b505afa158015613178573d6000803e3d6000fd5b505050506040513d601f19601f8201168201806040525081019061319c919061430c565b608c546040516364e329cb60e11b81526001600160a01b039283169263c9c65396926131d092309290911690600401614549565b602060405180830381600087803b1580156131ea57600080fd5b505af11580156131fe573d6000803e3d6000fd5b505050506040513d601f19601f82011682018060405250810190613222919061430c565b608b80546001600160a01b0319166001600160a01b0392909216919091179055600160686000613250611a2a565b6001600160a01b0316815260208082019290925260409081016000908120805494151560ff1995861617905530815260689092529020805490911660011790556132986138e6565b6132a06124c1565b6001600160a01b031660006001600160a01b03167fddf252ad1be2c89b69c2b068fc378daa952ba7f163c4a11628f55a4df523b3ef606d546040516132e59190614cae565b60405180910390a380156111eb576000805461ff00191690555050565b60008261331157506000610afa565b8282028284828161331e57fe5b0414610e5e5760405162461bcd60e51b8152600401610b3f9061495b565b608f805460ff60a01b1916600160a01b179055600061335c8260026129c0565b9050600061336a83836136ba565b90504761337683613a13565b600061338247836136ba565b905061338e8382613b6f565b7f17bbfb9a6069321b6ded73bd96327c9e6b7212a5cd51ff219cd61370acafb5618482856040516133c193929190614d27565b60405180910390a15050608f805460ff60a01b19169055505050565b806133ea576133ea613c1a565b6001600160a01b03851660009081526069602052604090205460ff16801561342b57506001600160a01b03841660009081526069602052604090205460ff16155b156134415761343c85858585613d1c565b613543565b6001600160a01b03851660009081526069602052604090205460ff1615801561348257506001600160a01b03841660009081526069602052604090205460ff165b156134935761343c85858585613e48565b6001600160a01b03851660009081526069602052604090205460ff161580156134d557506001600160a01b03841660009081526069602052604090205460ff16155b156134e65761343c85858585613ef3565b6001600160a01b03851660009081526069602052604090205460ff16801561352657506001600160a01b03841660009081526069602052604090205460ff165b156135375761343c85858585613f2d565b61354385858585613ef3565b8061355057613550613f98565b5050505050565b606e54606d546000918291825b606c54811015613688578260656000606c848154811061358057fe5b60009182526020808320909101546001600160a01b0316835282019290925260400190205411806135e557508160666000606c84815481106135be57fe5b60009182526020808320909101546001600160a01b03168352820192909252604001902054115b156135fc57606e54606d54945094505050506136b6565b61363c60656000606c848154811061361057fe5b60009182526020808320909101546001600160a01b0316835282019290925260400190205484906136ba565b925061367e60666000606c848154811061365257fe5b60009182526020808320909101546001600160a01b0316835282019290925260400190205483906136ba565b9150600101613564565b50606d54606e54613698916129c0565b8210156136b057606e54606d549350935050506136b6565b90925090505b9091565b6000828211156136dc5760405162461bcd60e51b8152600401610b3f90614783565b50900390565b6136ea61418c565b600061371f8360800151612a2f8560600151612a2f8760400151612a2f89602001518a60000151612a5f90919063ffffffff16565b90506070548111156137435760405162461bcd60e51b8152600401610b3f90614b97565b5090919050565b6137526142a5565b61375a61418c565b6089838154811061376757fe5b60009182526020918290206040805160e081018252600790930290910180548352600181015493830193909352600283015490820152600382015460608201526004820154608082015260058201546001600160a01b0390811660a083015260069092015490911660c082015290506137de6142a5565b6040518060c00160405280600081526020016137fe878560000151613fa8565b8152602001613811878560200151613fa8565b8152602001613824878560400151613fa8565b8152602001613837878560600151613fa8565b815260200161384a878560800151613fa8565b81525090506138868160a00151612a358360800151612a358560400151612a358760600151612a3589602001518e6136ba90919063ffffffff16565b8152949350505050565b600080808061389f8886613302565b905060006138ad8887613302565b905060006138bb8888613302565b905060006138cd82612a3586866136ba565b939b939a50919850919650505050505050565b3b151590565b600054610100900460ff16806138ff57506138ff612daa565b8061390d575060005460ff16155b6139295760405162461bcd60e51b8152600401610b3f906148a7565b600054610100900460ff16158015613954576000805460ff1961ff0019909116610100171660011790555b61396860006101f480600080600080612a84565b8051607455602081015160755560408101516076556060810151607755608081015160785560a0810151607980546001600160a01b03199081166001600160a01b039384161790915560c090920151607a805490931691161790556139d560328060646000808080612a84565b506139e96032806064806000806000612a84565b506139fe6064607d8060966000806000612a84565b508015612e3b576000805461ff001916905550565b60408051600280825260608083018452926020830190803683370190505090503081600081518110613a4157fe5b6001600160a01b03928316602091820292909201810191909152608a54604080516315ab88c960e31b81529051919093169263ad5c4648926004808301939192829003018186803b158015613a9557600080fd5b505afa158015613aa9573d6000803e3d6000fd5b505050506040513d601f19601f82011682018060405250810190613acd919061430c565b81600181518110613ada57fe5b6001600160a01b039283166020918202929092010152608a54613b0091309116846124c5565b608a5460405163791ac94760e01b81526001600160a01b039091169063791ac94790613b39908590600090869030904290600401614cb7565b600060405180830381600087803b158015613b5357600080fd5b505af1158015613b67573d6000803e3d6000fd5b505050505050565b608a54613b879030906001600160a01b0316846124c5565b608a546001600160a01b031663f305d719823085600080613ba6611a2a565b426040518863ffffffff1660e01b8152600401613bc896959493929190614563565b6060604051808303818588803b158015613be157600080fd5b505af1158015613bf5573d6000803e3d6000fd5b50505050506040513d601f19601f8201168201806040525081019061355091906144a0565b6089600081548110613c2857fe5b6000918252602082206007909102018054607b556001810154607c556002810154607d556003810154607e556004810154607f556005810154608080546001600160a01b03199081166001600160a01b03938416179091556006909201546081805490931691161790556089805460829290613ca057fe5b6000918252602090912082546007909202019081556001808301549082015560028083015490820155600380830154908201556004808301549082015560058083015490820180546001600160a01b03199081166001600160a01b03938416179091556006938401549390920180549092169216919091179055565b613d246141db565b613d2e8383612cd8565b6001600160a01b038616600090815260666020526040902054909150613d5490846136ba565b6001600160a01b0386166000908152606660209081526040808320939093558351606590915291902054613d87916136ba565b6001600160a01b0380871660009081526065602090815260408083209490945584015191871681529190912054613dbd91612a5f565b6001600160a01b038516600090815260656020526040902055613de08183613fc7565b613df281604001518260c00151614051565b836001600160a01b0316856001600160a01b03167fddf252ad1be2c89b69c2b068fc378daa952ba7f163c4a11628f55a4df523b3ef8360600151604051613e399190614cae565b60405180910390a35050505050565b613e506141db565b613e5a8383612cd8565b80516001600160a01b038716600090815260656020526040902054919250613e8291906136ba565b6001600160a01b0380871660009081526065602090815260408083209490945560608501519288168252606690529190912054613ebe91612a5f565b6001600160a01b03851660009081526066602090815260408083209390935583810151606590915291902054613dbd91612a5f565b613efb6141db565b613f058383612cd8565b80516001600160a01b038716600090815260656020526040902054919250613d8791906136ba565b613f356141db565b613f3f8383612cd8565b6001600160a01b038616600090815260666020526040902054909150613f6590846136ba565b6001600160a01b0386166000908152606660209081526040808320939093558351606590915291902054613e82916136ba565b607b6089600081548110613ca057fe5b600081613fb757506000610afa565b610e5e612710611f0e8585613302565b613fd58260a0015130614075565b61400c826080015160898381548110613fea57fe5b60009182526020909120600560079092020101546001600160a01b0316614075565b6140438260e001516089838154811061402157fe5b60009182526020909120600660079092020101546001600160a01b0316614075565b6111eb82610100015161413f565b606e5461405e90836136ba565b606e55606f5461406e9082612a5f565b606f555050565b6001600160a01b038116614088576111eb565b81614092576111eb565b600061409c61299d565b905060006140aa8483613302565b6001600160a01b0384166000908152606560205260409020549091506140d09082612a5f565b6001600160a01b03841660009081526065602090815260408083209390935560699052205460ff161561106d576001600160a01b0383166000908152606660205260409020546141209085612a5f565b6001600160a01b03841660009081526066602052604090205550505050565b8061414957612e3b565b608f546001600160a01b031660009081526066602052604090205461416e9082612a5f565b608f546001600160a01b031660009081526066602052604090205550565b6040518060e00160405280600081526020016000815260200160008152602001600081526020016000815260200160006001600160a01b0316815260200160006001600160a01b031681525090565b6040518061012001604052806000815260200160008152602001600081526020016000815260200160008152602001600081526020016000815260200160008152602001600081525090565b828054600181600116156101000203166002900490600052602060002090601f016020900481019282601f1061426857805160ff1916838001178555614295565b82800160010185558215614295579182015b8281111561429557825182559160200191906001019061427a565b506142a19291506142db565b5090565b6040518060c001604052806000815260200160008152602001600081526020016000815260200160008152602001600081525090565b5b808211156142a157600081556001016142dc565b600060208284031215614301578081fd5b8135610e5e81614d87565b60006020828403121561431d578081fd5b8151610e5e81614d87565b6000806040838503121561433a578081fd5b823561434581614d87565b9150602083013561435581614d87565b809150509250929050565b600080600060608486031215614374578081fd5b833561437f81614d87565b9250602084013561438f81614d87565b929592945050506040919091013590565b600080604083850312156143b2578182fd5b82356143bd81614d87565b946020939093013593505050565b6000602082840312156143dc578081fd5b8135610e5e81614d9c565b6000602082840312156143f8578081fd5b5035919050565b60008060408385031215614411578182fd5b82359150602083013561435581614d87565b60008060408385031215614435578182fd5b82359150602083013561435581614d9c565b60008060408385031215614459578182fd5b50508035926020909101359150565b60008060006060848603121561447c578283fd5b8335925060208401359150604084013561449581614d9c565b809150509250925092565b6000806000606084860312156144b4578283fd5b8351925060208401519150604084015190509250925092565b600080600080600080600060e0888a0312156144e7578283fd5b873596506020880135955060408801359450606088013593506080880135925060a088013561451581614d87565b915060c088013561452581614d87565b8091505092959891949750929550565b6001600160a01b0391909116815260200190565b6001600160a01b0392831681529116602082015260400190565b6001600160a01b039687168152602081019590955260408501939093526060840191909152909216608082015260a081019190915260c00190565b901515815260200190565b6000602080835283518082850152825b818110156145d5578581018301518582016040015282016145b9565b818111156145e65783604083870101525b50601f01601f1916929092016040019392505050565b60208082526025908201527f42455032303a207472616e736665722066726f6d20746865207a65726f206164604082015264647265737360d81b606082015260800190565b60208082526024908201527f42455032303a20617070726f76652066726f6d20746865207a65726f206164646040820152637265737360e01b606082015260800190565b6020808252602a908201527f416d6f756e74206d757374206265206c657373207468616e20746f74616c207260408201526965666c656374696f6e7360b01b606082015260800190565b60208082526026908201527f4f776e61626c653a206e6577206f776e657220697320746865207a65726f206160408201526564647265737360d01b606082015260800190565b6020808252601b908201527f536166654d6174683a206164646974696f6e206f766572666c6f770000000000604082015260600190565b6020808252601b908201527f4163636f756e7420697320616c7265616479206578636c756465640000000000604082015260600190565b6020808252601e908201527f536166654d6174683a207375627472616374696f6e206f766572666c6f770000604082015260600190565b6020808252601b908201527f4163636f756e7420697320616c726561647920696e636c756465640000000000604082015260600190565b6020808252601a908201527f536166654d6174683a206469766973696f6e206279207a65726f000000000000604082015260600190565b6020808252601f908201527f416d6f756e74206d757374206265206c657373207468616e20737570706c7900604082015260600190565b60208082526028908201527f5472616e7366657220616d6f756e74206578636565647320746865206d6178546040820152673c20b6b7bab73a1760c11b606082015260800190565b6020808252602e908201527f496e697469616c697a61626c653a20636f6e747261637420697320616c72656160408201526d191e481a5b9a5d1a585b1a5e995960921b606082015260800190565b60208082526015908201527414d859995b5bdbdb8e88139bdd08105b1b1bddd959605a1b604082015260600190565b6020808252601c908201527f536166656d6f6f6e3a20496e76616c6964207469657220696e64657800000000604082015260600190565b60208082526021908201527f536166654d6174683a206d756c7469706c69636174696f6e206f766572666c6f6040820152607760f81b606082015260800190565b6020808252601f908201527f42455032303a206d696e7420746f20746865207a65726f206164647265737300604082015260600190565b6020808252818101527f4f776e61626c653a2063616c6c6572206973206e6f7420746865206f776e6572604082015260600190565b60208082526019908201527f536166656d6f6f6e3a20496e76616c6964206164647265737300000000000000604082015260600190565b60208082526029908201527f5472616e7366657220616d6f756e74206d7573742062652067726561746572206040820152687468616e207a65726f60b81b606082015260800190565b60208082526022908201527f536166656d6f6f6e3a204d6967726174696f6e206973206e6f74207374617274604082015261195960f21b606082015260800190565b60208082526025908201527f536166656d6f6f6e3a2041646472657373205a65726f206973206e6f7420616c6040820152641b1bddd95960da1b606082015260800190565b60208082526023908201527f42455032303a207472616e7366657220746f20746865207a65726f206164647260408201526265737360e81b606082015260800190565b60208082526025908201527f536166656d6f6f6e3a204163636f756e74206973206e6f7420696e2077686974604082015264195b1a5cdd60da1b606082015260800190565b60208082526026908201527f536166656d6f6f6e3a2046656573206578636565646564206d6178206c696d696040820152653a30ba34b7b760d11b606082015260800190565b60208082526022908201527f42455032303a20617070726f766520746f20746865207a65726f206164647265604082015261737360f01b606082015260800190565b6020808252601a908201527f536166656d6f6f6e3a20416c7265616479207570677261646564000000000000604082015260600190565b815181526020808301519082015260408083015190820152606080830151908201526080808301519082015260a0808301516001600160a01b039081169183019190915260c092830151169181019190915260e00190565b90815260200190565b600060a082018783526020878185015260a0604085015281875180845260c0860191508289019350845b81811015614d065784516001600160a01b031683529383019391830191600101614ce1565b50506001600160a01b03969096166060850152505050608001529392505050565b9283526020830191909152604082015260600190565b96875260208701959095526040860193909352606085019190915260808401526001600160a01b0390811660a08401521660c082015260e00190565b60ff91909116815260200190565b6001600160a01b0381168114612e3b57600080fd5b8015158114612e3b57600080fdfe536166656d6f6f6e3a2046726f6d206164647265737320697320626c61636b6c6973746564536166656d6f6f6e3a205370656e646572206164647265737320697320626c61636b6c697374656442455032303a207472616e7366657220616d6f756e74206578636565647320616c6c6f77616e6365536166656d6f6f6e3a20546f206164647265737320697320626c61636b6c6973746564536166656d6f6f6e3a204f776e6572206164647265737320697320626c61636b6c697374656442455032303a2064656372656173656420616c6c6f77616e63652062656c6f77207a65726f536166656d6f6f6e3a2053656c6563746564206163636f756e7420697320696e20626c61636b6c697374a2646970667358221220e302a3edff7f454dccc1762920261235bfa66cf062969a63324d5c1f46fd43b764736f6c634300060c0033",
  "linkReferences": {},
  "deployedLinkReferences": {}
}