{
  "_format": "hh-sol-artifact-1",
  "contractName": "PawthTaxStructure",
  "sourceName": "contracts/PawthTaxStructure.sol",
  "abi": [
    {
      "inputs": [
        {
          "internalType": "address",
          "name": "_pawthereum",
          "type": "address"
        },
        {
          "internalType": "address",
          "name": "_router",
          "type": "address"
        }
      ],
      "stateMutability": "nonpayable",
      "type": "constructor"
    },
    {
      "anonymous": false,
      "inputs": [
        {
          "indexed": false,
          "internalType": "string",
          "name": "oldName",
          "type": "string"
        },
        {
          "indexed": false,
          "internalType": "string",
          "name": "newName",
          "type": "string"
        }
      ],
      "name": "CustomTaxNameUpdated",
      "type": "event"
    },
    {
      "anonymous": false,
      "inputs": [
        {
          "indexed": true,
          "internalType": "address",
          "name": "previousOwner",
          "type": "address"
        },
        {
          "indexed": true,
          "internalType": "address",
          "name": "newOwner",
          "type": "address"
        }
      ],
      "name": "OwnershipTransferred",
      "type": "event"
    },
    {
      "anonymous": false,
      "inputs": [
        {
          "indexed": false,
          "internalType": "address",
          "name": "oldRouter",
          "type": "address"
        },
        {
          "indexed": false,
          "internalType": "address",
          "name": "newRouter",
          "type": "address"
        }
      ],
      "name": "RouterUpdated",
      "type": "event"
    },
    {
      "anonymous": false,
      "inputs": [
        {
          "indexed": false,
          "internalType": "string",
          "name": "oldName",
          "type": "string"
        },
        {
          "indexed": false,
          "internalType": "address",
          "name": "oldWallet",
          "type": "address"
        },
        {
          "indexed": false,
          "internalType": "uint256",
          "name": "oldBuyAmount",
          "type": "uint256"
        },
        {
          "indexed": false,
          "internalType": "uint256",
          "name": "oldSellAmount",
          "type": "uint256"
        },
        {
          "indexed": false,
          "internalType": "string",
          "name": "newName",
          "type": "string"
        },
        {
          "indexed": false,
          "internalType": "address",
          "name": "newWallet",
          "type": "address"
        },
        {
          "indexed": false,
          "internalType": "uint256",
          "name": "newBuyAmount",
          "type": "uint256"
        },
        {
          "indexed": false,
          "internalType": "uint256",
          "name": "newSellAmount",
          "type": "uint256"
        }
      ],
      "name": "TaxUpdated",
      "type": "event"
    },
    {
      "inputs": [],
      "name": "burnAddress",
      "outputs": [
        {
          "internalType": "address",
          "name": "",
          "type": "address"
        }
      ],
      "stateMutability": "view",
      "type": "function"
    },
    {
      "inputs": [
        {
          "internalType": "address",
          "name": "_address",
          "type": "address"
        }
      ],
      "name": "burnTaxBuyAmount",
      "outputs": [
        {
          "internalType": "uint256",
          "name": "",
          "type": "uint256"
        }
      ],
      "stateMutability": "view",
      "type": "function"
    },
    {
      "inputs": [],
      "name": "burnTaxBuyAmountConfig",
      "outputs": [
        {
          "internalType": "uint256",
          "name": "",
          "type": "uint256"
        }
      ],
      "stateMutability": "view",
      "type": "function"
    },
    {
      "inputs": [
        {
          "internalType": "address",
          "name": "_address",
          "type": "address"
        }
      ],
      "name": "burnTaxSellAmount",
      "outputs": [
        {
          "internalType": "uint256",
          "name": "",
          "type": "uint256"
        }
      ],
      "stateMutability": "view",
      "type": "function"
    },
    {
      "inputs": [],
      "name": "burnTaxSellAmountConfig",
      "outputs": [
        {
          "internalType": "uint256",
          "name": "",
          "type": "uint256"
        }
      ],
      "stateMutability": "view",
      "type": "function"
    },
    {
      "inputs": [],
      "name": "customTaxName",
      "outputs": [
        {
          "internalType": "string",
          "name": "",
          "type": "string"
        }
      ],
      "stateMutability": "view",
      "type": "function"
    },
    {
      "inputs": [],
      "name": "feeDecimal",
      "outputs": [
        {
          "internalType": "uint256",
          "name": "",
          "type": "uint256"
        }
      ],
      "stateMutability": "view",
      "type": "function"
    },
    {
      "inputs": [
        {
          "internalType": "address",
          "name": "_address",
          "type": "address"
        }
      ],
      "name": "getBuyTaxAmounts",
      "outputs": [
        {
          "internalType": "uint256",
          "name": "",
          "type": "uint256"
        },
        {
          "internalType": "uint256",
          "name": "",
          "type": "uint256"
        },
        {
          "internalType": "uint256",
          "name": "",
          "type": "uint256"
        },
        {
          "internalType": "uint256",
          "name": "",
          "type": "uint256"
        },
        {
          "internalType": "uint256",
          "name": "",
          "type": "uint256"
        },
        {
          "internalType": "uint256",
          "name": "",
          "type": "uint256"
        },
        {
          "internalType": "uint256",
          "name": "",
          "type": "uint256"
        }
      ],
      "stateMutability": "view",
      "type": "function"
    },
    {
      "inputs": [
        {
          "internalType": "address",
          "name": "_token",
          "type": "address"
        }
      ],
      "name": "getPair",
      "outputs": [
        {
          "internalType": "address",
          "name": "",
          "type": "address"
        }
      ],
      "stateMutability": "view",
      "type": "function"
    },
    {
      "inputs": [
        {
          "internalType": "address",
          "name": "_address",
          "type": "address"
        }
      ],
      "name": "getPostSwapBuyTaxAmount",
      "outputs": [
        {
          "internalType": "uint256",
          "name": "",
          "type": "uint256"
        }
      ],
      "stateMutability": "view",
      "type": "function"
    },
    {
      "inputs": [
        {
          "internalType": "address",
          "name": "_address",
          "type": "address"
        }
      ],
      "name": "getPostSwapSellTaxAmount",
      "outputs": [
        {
          "internalType": "uint256",
          "name": "",
          "type": "uint256"
        }
      ],
      "stateMutability": "view",
      "type": "function"
    },
    {
      "inputs": [
        {
          "internalType": "address",
          "name": "_address",
          "type": "address"
        },
        {
          "internalType": "uint256",
          "name": "customTaxAmount",
          "type": "uint256"
        }
      ],
      "name": "getPreSwapBuyTaxAmount",
      "outputs": [
        {
          "internalType": "uint256",
          "name": "",
          "type": "uint256"
        }
      ],
      "stateMutability": "view",
      "type": "function"
    },
    {
      "inputs": [
        {
          "internalType": "address",
          "name": "_address",
          "type": "address"
        }
      ],
      "name": "getPreSwapSellTaxAmount",
      "outputs": [
        {
          "internalType": "uint256",
          "name": "",
          "type": "uint256"
        }
      ],
      "stateMutability": "view",
      "type": "function"
    },
    {
      "inputs": [
        {
          "internalType": "address",
          "name": "_token",
          "type": "address"
        }
      ],
      "name": "getReserves",
      "outputs": [
        {
          "internalType": "uint112",
          "name": "",
          "type": "uint112"
        },
        {
          "internalType": "uint112",
          "name": "",
          "type": "uint112"
        },
        {
          "internalType": "uint32",
          "name": "",
          "type": "uint32"
        }
      ],
      "stateMutability": "view",
      "type": "function"
    },
    {
      "inputs": [
        {
          "internalType": "address",
          "name": "_address",
          "type": "address"
        }
      ],
      "name": "getSellTaxAmounts",
      "outputs": [
        {
          "internalType": "uint256",
          "name": "",
          "type": "uint256"
        },
        {
          "internalType": "uint256",
          "name": "",
          "type": "uint256"
        },
        {
          "internalType": "uint256",
          "name": "",
          "type": "uint256"
        },
        {
          "internalType": "uint256",
          "name": "",
          "type": "uint256"
        },
        {
          "internalType": "uint256",
          "name": "",
          "type": "uint256"
        },
        {
          "internalType": "uint256",
          "name": "",
          "type": "uint256"
        },
        {
          "internalType": "uint256",
          "name": "",
          "type": "uint256"
        }
      ],
      "stateMutability": "view",
      "type": "function"
    },
    {
      "inputs": [],
      "name": "getTaxNames",
      "outputs": [
        {
          "internalType": "string",
          "name": "",
          "type": "string"
        },
        {
          "internalType": "string",
          "name": "",
          "type": "string"
        },
        {
          "internalType": "string",
          "name": "",
          "type": "string"
        },
        {
          "internalType": "string",
          "name": "",
          "type": "string"
        },
        {
          "internalType": "string",
          "name": "",
          "type": "string"
        },
        {
          "internalType": "string",
          "name": "",
          "type": "string"
        },
        {
          "internalType": "string",
          "name": "",
          "type": "string"
        }
      ],
      "stateMutability": "view",
      "type": "function"
    },
    {
      "inputs": [],
      "name": "getTaxWallets",
      "outputs": [
        {
          "internalType": "address",
          "name": "",
          "type": "address"
        },
        {
          "internalType": "address",
          "name": "",
          "type": "address"
        },
        {
          "internalType": "address",
          "name": "",
          "type": "address"
        },
        {
          "internalType": "address",
          "name": "",
          "type": "address"
        },
        {
          "internalType": "address",
          "name": "",
          "type": "address"
        },
        {
          "internalType": "address",
          "name": "",
          "type": "address"
        },
        {
          "internalType": "address",
          "name": "",
          "type": "address"
        }
      ],
      "stateMutability": "view",
      "type": "function"
    },
    {
      "inputs": [
        {
          "internalType": "address",
          "name": "_address",
          "type": "address"
        }
      ],
      "name": "liquidityTaxBuyAmount",
      "outputs": [
        {
          "internalType": "uint256",
          "name": "",
          "type": "uint256"
        }
      ],
      "stateMutability": "view",
      "type": "function"
    },
    {
      "inputs": [],
      "name": "liquidityTaxBuyAmountConfig",
      "outputs": [
        {
          "internalType": "uint256",
          "name": "",
          "type": "uint256"
        }
      ],
      "stateMutability": "view",
      "type": "function"
    },
    {
      "inputs": [
        {
          "internalType": "address",
          "name": "_address",
          "type": "address"
        }
      ],
      "name": "liquidityTaxSellAmount",
      "outputs": [
        {
          "internalType": "uint256",
          "name": "",
          "type": "uint256"
        }
      ],
      "stateMutability": "view",
      "type": "function"
    },
    {
      "inputs": [],
      "name": "liquidityTaxSellAmountConfig",
      "outputs": [
        {
          "internalType": "uint256",
          "name": "",
          "type": "uint256"
        }
      ],
      "stateMutability": "view",
      "type": "function"
    },
    {
      "inputs": [],
      "name": "lpTokenHolder",
      "outputs": [
        {
          "internalType": "address",
          "name": "",
          "type": "address"
        }
      ],
      "stateMutability": "view",
      "type": "function"
    },
    {
      "inputs": [],
      "name": "nft1155BenefitAddress",
      "outputs": [
        {
          "internalType": "address",
          "name": "",
          "type": "address"
        }
      ],
      "stateMutability": "view",
      "type": "function"
    },
    {
      "inputs": [],
      "name": "nft1155BenefitId",
      "outputs": [
        {
          "internalType": "uint256",
          "name": "",
          "type": "uint256"
        }
      ],
      "stateMutability": "view",
      "type": "function"
    },
    {
      "inputs": [],
      "name": "nft1155HoldFactor",
      "outputs": [
        {
          "internalType": "uint256",
          "name": "",
          "type": "uint256"
        }
      ],
      "stateMutability": "view",
      "type": "function"
    },
    {
      "inputs": [],
      "name": "owner",
      "outputs": [
        {
          "internalType": "address",
          "name": "",
          "type": "address"
        }
      ],
      "stateMutability": "view",
      "type": "function"
    },
    {
      "inputs": [],
      "name": "purrBuyFactor",
      "outputs": [
        {
          "internalType": "uint256",
          "name": "",
          "type": "uint256"
        }
      ],
      "stateMutability": "view",
      "type": "function"
    },
    {
      "inputs": [],
      "name": "purrSellFactor",
      "outputs": [
        {
          "internalType": "uint256",
          "name": "",
          "type": "uint256"
        }
      ],
      "stateMutability": "view",
      "type": "function"
    },
    {
      "inputs": [],
      "name": "renounceOwnership",
      "outputs": [],
      "stateMutability": "nonpayable",
      "type": "function"
    },
    {
      "inputs": [],
      "name": "respect1155",
      "outputs": [
        {
          "internalType": "bool",
          "name": "",
          "type": "bool"
        }
      ],
      "stateMutability": "view",
      "type": "function"
    },
    {
      "inputs": [],
      "name": "respectPurr",
      "outputs": [
        {
          "internalType": "bool",
          "name": "",
          "type": "bool"
        }
      ],
      "stateMutability": "view",
      "type": "function"
    },
    {
      "inputs": [],
      "name": "routerAddress",
      "outputs": [
        {
          "internalType": "address",
          "name": "",
          "type": "address"
        }
      ],
      "stateMutability": "view",
      "type": "function"
    },
    {
      "inputs": [
        {
          "internalType": "address",
          "name": "_burnAddress",
          "type": "address"
        },
        {
          "internalType": "uint256",
          "name": "_buyAmount",
          "type": "uint256"
        },
        {
          "internalType": "uint256",
          "name": "_sellAmount",
          "type": "uint256"
        }
      ],
      "name": "setBurnTax",
      "outputs": [],
      "stateMutability": "nonpayable",
      "type": "function"
    },
    {
      "inputs": [
        {
          "internalType": "string",
          "name": "_name",
          "type": "string"
        }
      ],
      "name": "setCustomTaxName",
      "outputs": [],
      "stateMutability": "nonpayable",
      "type": "function"
    },
    {
      "inputs": [
        {
          "internalType": "address",
          "name": "_lpTokenHolder",
          "type": "address"
        },
        {
          "internalType": "uint256",
          "name": "_buyAmount",
          "type": "uint256"
        },
        {
          "internalType": "uint256",
          "name": "_sellAmount",
          "type": "uint256"
        }
      ],
      "name": "setLiquidityTax",
      "outputs": [],
      "stateMutability": "nonpayable",
      "type": "function"
    },
    {
      "inputs": [
        {
          "internalType": "bool",
          "name": "_respect1155",
          "type": "bool"
        },
        {
          "internalType": "uint256",
          "name": "_nft1155HoldFactor",
          "type": "uint256"
        },
        {
          "internalType": "address",
          "name": "_nftAddress",
          "type": "address"
        },
        {
          "internalType": "uint256",
          "name": "_nftId",
          "type": "uint256"
        }
      ],
      "name": "setNft1155Config",
      "outputs": [],
      "stateMutability": "nonpayable",
      "type": "function"
    },
    {
      "inputs": [
        {
          "internalType": "address",
          "name": "_pawthereum",
          "type": "address"
        }
      ],
      "name": "setPawthereum",
      "outputs": [],
      "stateMutability": "nonpayable",
      "type": "function"
    },
    {
      "inputs": [
        {
          "internalType": "bool",
          "name": "_respectPurr",
          "type": "bool"
        },
        {
          "internalType": "uint256",
          "name": "_purrBuyFactor",
          "type": "uint256"
        },
        {
          "internalType": "uint256",
          "name": "_purrSellFactor",
          "type": "uint256"
        }
      ],
      "name": "setPurrConfig",
      "outputs": [],
      "stateMutability": "nonpayable",
      "type": "function"
    },
    {
      "inputs": [
        {
          "internalType": "address",
          "name": "_newRouterAddress",
          "type": "address"
        }
      ],
      "name": "setRouterAddress",
      "outputs": [],
      "stateMutability": "nonpayable",
      "type": "function"
    },
    {
      "inputs": [
        {
          "internalType": "string",
          "name": "_name",
          "type": "string"
        },
        {
          "internalType": "address",
          "name": "_wallet",
          "type": "address"
        },
        {
          "internalType": "uint256",
          "name": "_buyAmount",
          "type": "uint256"
        },
        {
          "internalType": "uint256",
          "name": "_sellAmount",
          "type": "uint256"
        }
      ],
      "name": "setTax1",
      "outputs": [],
      "stateMutability": "nonpayable",
      "type": "function"
    },
    {
      "inputs": [
        {
          "internalType": "string",
          "name": "_name",
          "type": "string"
        },
        {
          "internalType": "address",
          "name": "_wallet",
          "type": "address"
        },
        {
          "internalType": "uint256",
          "name": "_buyAmount",
          "type": "uint256"
        },
        {
          "internalType": "uint256",
          "name": "_sellAmount",
          "type": "uint256"
        }
      ],
      "name": "setTax2",
      "outputs": [],
      "stateMutability": "nonpayable",
      "type": "function"
    },
    {
      "inputs": [
        {
          "internalType": "string",
          "name": "_name",
          "type": "string"
        },
        {
          "internalType": "address",
          "name": "_wallet",
          "type": "address"
        },
        {
          "internalType": "uint256",
          "name": "_buyAmount",
          "type": "uint256"
        },
        {
          "internalType": "uint256",
          "name": "_sellAmount",
          "type": "uint256"
        }
      ],
      "name": "setTax3",
      "outputs": [],
      "stateMutability": "nonpayable",
      "type": "function"
    },
    {
      "inputs": [
        {
          "internalType": "string",
          "name": "_name",
          "type": "string"
        },
        {
          "internalType": "address",
          "name": "_wallet",
          "type": "address"
        },
        {
          "internalType": "uint256",
          "name": "_buyAmount",
          "type": "uint256"
        },
        {
          "internalType": "uint256",
          "name": "_sellAmount",
          "type": "uint256"
        }
      ],
      "name": "setTax4",
      "outputs": [],
      "stateMutability": "nonpayable",
      "type": "function"
    },
    {
      "inputs": [
        {
          "internalType": "string",
          "name": "_name",
          "type": "string"
        },
        {
          "internalType": "address",
          "name": "_wallet",
          "type": "address"
        },
        {
          "internalType": "uint256",
          "name": "_buyAmount",
          "type": "uint256"
        },
        {
          "internalType": "uint256",
          "name": "_sellAmount",
          "type": "uint256"
        }
      ],
      "name": "setTokenTax",
      "outputs": [],
      "stateMutability": "nonpayable",
      "type": "function"
    },
    {
      "inputs": [
        {
          "internalType": "address",
          "name": "_address",
          "type": "address"
        }
      ],
      "name": "tax1",
      "outputs": [
        {
          "internalType": "uint256",
          "name": "",
          "type": "uint256"
        },
        {
          "internalType": "address",
          "name": "",
          "type": "address"
        }
      ],
      "stateMutability": "view",
      "type": "function"
    },
    {
      "inputs": [
        {
          "internalType": "address",
          "name": "_address",
          "type": "address"
        }
      ],
      "name": "tax1BuyAmount",
      "outputs": [
        {
          "internalType": "uint256",
          "name": "",
          "type": "uint256"
        }
      ],
      "stateMutability": "view",
      "type": "function"
    },
    {
      "inputs": [],
      "name": "tax1BuyAmountConfig",
      "outputs": [
        {
          "internalType": "uint256",
          "name": "",
          "type": "uint256"
        }
      ],
      "stateMutability": "view",
      "type": "function"
    },
    {
      "inputs": [],
      "name": "tax1Name",
      "outputs": [
        {
          "internalType": "string",
          "name": "",
          "type": "string"
        }
      ],
      "stateMutability": "view",
      "type": "function"
    },
    {
      "inputs": [
        {
          "internalType": "address",
          "name": "_address",
          "type": "address"
        }
      ],
      "name": "tax1SellAmount",
      "outputs": [
        {
          "internalType": "uint256",
          "name": "",
          "type": "uint256"
        }
      ],
      "stateMutability": "view",
      "type": "function"
    },
    {
      "inputs": [],
      "name": "tax1SellAmountConfig",
      "outputs": [
        {
          "internalType": "uint256",
          "name": "",
          "type": "uint256"
        }
      ],
      "stateMutability": "view",
      "type": "function"
    },
    {
      "inputs": [],
      "name": "tax1Wallet",
      "outputs": [
        {
          "internalType": "address",
          "name": "",
          "type": "address"
        }
      ],
      "stateMutability": "view",
      "type": "function"
    },
    {
      "inputs": [
        {
          "internalType": "address",
          "name": "_address",
          "type": "address"
        }
      ],
      "name": "tax2",
      "outputs": [
        {
          "internalType": "uint256",
          "name": "",
          "type": "uint256"
        },
        {
          "internalType": "address",
          "name": "",
          "type": "address"
        }
      ],
      "stateMutability": "view",
      "type": "function"
    },
    {
      "inputs": [
        {
          "internalType": "address",
          "name": "_address",
          "type": "address"
        }
      ],
      "name": "tax2BuyAmount",
      "outputs": [
        {
          "internalType": "uint256",
          "name": "",
          "type": "uint256"
        }
      ],
      "stateMutability": "view",
      "type": "function"
    },
    {
      "inputs": [],
      "name": "tax2BuyAmountConfig",
      "outputs": [
        {
          "internalType": "uint256",
          "name": "",
          "type": "uint256"
        }
      ],
      "stateMutability": "view",
      "type": "function"
    },
    {
      "inputs": [],
      "name": "tax2Name",
      "outputs": [
        {
          "internalType": "string",
          "name": "",
          "type": "string"
        }
      ],
      "stateMutability": "view",
      "type": "function"
    },
    {
      "inputs": [
        {
          "internalType": "address",
          "name": "_address",
          "type": "address"
        }
      ],
      "name": "tax2SellAmount",
      "outputs": [
        {
          "internalType": "uint256",
          "name": "",
          "type": "uint256"
        }
      ],
      "stateMutability": "view",
      "type": "function"
    },
    {
      "inputs": [],
      "name": "tax2SellAmountConfig",
      "outputs": [
        {
          "internalType": "uint256",
          "name": "",
          "type": "uint256"
        }
      ],
      "stateMutability": "view",
      "type": "function"
    },
    {
      "inputs": [],
      "name": "tax2Wallet",
      "outputs": [
        {
          "internalType": "address",
          "name": "",
          "type": "address"
        }
      ],
      "stateMutability": "view",
      "type": "function"
    },
    {
      "inputs": [
        {
          "internalType": "address",
          "name": "_address",
          "type": "address"
        }
      ],
      "name": "tax3BuyAmount",
      "outputs": [
        {
          "internalType": "uint256",
          "name": "",
          "type": "uint256"
        }
      ],
      "stateMutability": "view",
      "type": "function"
    },
    {
      "inputs": [],
      "name": "tax3BuyAmountConfig",
      "outputs": [
        {
          "internalType": "uint256",
          "name": "",
          "type": "uint256"
        }
      ],
      "stateMutability": "view",
      "type": "function"
    },
    {
      "inputs": [],
      "name": "tax3Name",
      "outputs": [
        {
          "internalType": "string",
          "name": "",
          "type": "string"
        }
      ],
      "stateMutability": "view",
      "type": "function"
    },
    {
      "inputs": [
        {
          "internalType": "address",
          "name": "_address",
          "type": "address"
        }
      ],
      "name": "tax3SellAmount",
      "outputs": [
        {
          "internalType": "uint256",
          "name": "",
          "type": "uint256"
        }
      ],
      "stateMutability": "view",
      "type": "function"
    },
    {
      "inputs": [],
      "name": "tax3SellAmountConfig",
      "outputs": [
        {
          "internalType": "uint256",
          "name": "",
          "type": "uint256"
        }
      ],
      "stateMutability": "view",
      "type": "function"
    },
    {
      "inputs": [],
      "name": "tax3Wallet",
      "outputs": [
        {
          "internalType": "address",
          "name": "",
          "type": "address"
        }
      ],
      "stateMutability": "view",
      "type": "function"
    },
    {
      "inputs": [
        {
          "internalType": "address",
          "name": "_address",
          "type": "address"
        }
      ],
      "name": "tax4BuyAmount",
      "outputs": [
        {
          "internalType": "uint256",
          "name": "",
          "type": "uint256"
        }
      ],
      "stateMutability": "view",
      "type": "function"
    },
    {
      "inputs": [],
      "name": "tax4BuyAmountConfig",
      "outputs": [
        {
          "internalType": "uint256",
          "name": "",
          "type": "uint256"
        }
      ],
      "stateMutability": "view",
      "type": "function"
    },
    {
      "inputs": [],
      "name": "tax4Name",
      "outputs": [
        {
          "internalType": "string",
          "name": "",
          "type": "string"
        }
      ],
      "stateMutability": "view",
      "type": "function"
    },
    {
      "inputs": [
        {
          "internalType": "address",
          "name": "_address",
          "type": "address"
        }
      ],
      "name": "tax4SellAmount",
      "outputs": [
        {
          "internalType": "uint256",
          "name": "",
          "type": "uint256"
        }
      ],
      "stateMutability": "view",
      "type": "function"
    },
    {
      "inputs": [],
      "name": "tax4SellAmountConfig",
      "outputs": [
        {
          "internalType": "uint256",
          "name": "",
          "type": "uint256"
        }
      ],
      "stateMutability": "view",
      "type": "function"
    },
    {
      "inputs": [],
      "name": "tax4Wallet",
      "outputs": [
        {
          "internalType": "address",
          "name": "",
          "type": "address"
        }
      ],
      "stateMutability": "view",
      "type": "function"
    },
    {
      "inputs": [
        {
          "internalType": "address",
          "name": "_address",
          "type": "address"
        }
      ],
      "name": "tokenTaxBuyAmount",
      "outputs": [
        {
          "internalType": "uint256",
          "name": "",
          "type": "uint256"
        }
      ],
      "stateMutability": "view",
      "type": "function"
    },
    {
      "inputs": [],
      "name": "tokenTaxBuyAmountConfig",
      "outputs": [
        {
          "internalType": "uint256",
          "name": "",
          "type": "uint256"
        }
      ],
      "stateMutability": "view",
      "type": "function"
    },
    {
      "inputs": [],
      "name": "tokenTaxName",
      "outputs": [
        {
          "internalType": "string",
          "name": "",
          "type": "string"
        }
      ],
      "stateMutability": "view",
      "type": "function"
    },
    {
      "inputs": [
        {
          "internalType": "address",
          "name": "_address",
          "type": "address"
        }
      ],
      "name": "tokenTaxSellAmount",
      "outputs": [
        {
          "internalType": "uint256",
          "name": "",
          "type": "uint256"
        }
      ],
      "stateMutability": "view",
      "type": "function"
    },
    {
      "inputs": [],
      "name": "tokenTaxSellAmountConfig",
      "outputs": [
        {
          "internalType": "uint256",
          "name": "",
          "type": "uint256"
        }
      ],
      "stateMutability": "view",
      "type": "function"
    },
    {
      "inputs": [],
      "name": "tokenTaxWallet",
      "outputs": [
        {
          "internalType": "address",
          "name": "",
          "type": "address"
        }
      ],
      "stateMutability": "view",
      "type": "function"
    },
    {
      "inputs": [
        {
          "internalType": "address",
          "name": "newOwner",
          "type": "address"
        }
      ],
      "name": "transferOwnership",
      "outputs": [],
      "stateMutability": "nonpayable",
      "type": "function"
    },
    {
      "inputs": [
        {
          "internalType": "uint256",
          "name": "_amount",
          "type": "uint256"
        }
      ],
      "name": "withdrawEthToOwner",
      "outputs": [],
      "stateMutability": "nonpayable",
      "type": "function"
    },
    {
      "inputs": [
        {
          "internalType": "address",
          "name": "tokenAddress",
          "type": "address"
        },
        {
          "internalType": "uint256",
          "name": "amount",
          "type": "uint256"
        }
      ],
      "name": "withdrawTokenToOwner",
      "outputs": [],
      "stateMutability": "nonpayable",
      "type": "function"
    },
    {
      "stateMutability": "payable",
      "type": "receive"
    }
  ],
  "bytecode": "0x6001805460ff60a01b19168155600280546001600160a01b0319908116736de1863f4f408d6d2ffc34a83308a386d8316b1917909155600060035561138860048190556005805460ff1916909317909255600691909155614e2060075560088054909116739ac64cc6e4415144c455bd8e4837fea55603e5c317905560c0604052600d60808190526c09ac2e4d6cae8d2dcce40a8c2f609b1b60a0908152620000ac9160099190620002d0565b50600a80546001600160a01b031916736dfcd4331b0d86bfe0318706c76b832da4c03c1b17905560c8600b818155600c91909155604080518082019091528181526a086d0c2e4d2e8f240a8c2f60ab1b60209091019081526200011391600d9190620002d0565b50600e80546001600160a01b03191673a56891cfbd0175e6fc46bf7d647de26100e95c7817905560c8600f8190556010556040805180820190915260158082527f427579204261636b20616e64204275726e20546178000000000000000000000060209092019182526200018a91601191620002d0565b50601280546001600160a01b0319908116735a185c361dd4573f1bb8044d5d8275e25831b53e17909155601680548216739036464e4ecd2d40d21ee38a0398aedd6805a09b908117909155601a8054831673445664d66c294f49bb55a90d3c30bcab0f9502a9179055601d8054831661dead1790556020805490921617905560c860218190556022553480156200022057600080fd5b506040516200346f3803806200346f833981016040819052620002439162000393565b6200024e3362000280565b600180546001600160a01b039384166001600160a01b0319918216179091556008805492909316911617905562000408565b600080546001600160a01b038381166001600160a01b0319831681178455604051919092169283917f8be0079c531659141344cd1fd0a4f28419497f9722a3daafe3b4186f6b6457e09190a35050565b828054620002de90620003cb565b90600052602060002090601f0160209004810192826200030257600085556200034d565b82601f106200031d57805160ff19168380011785556200034d565b828001600101855582156200034d579182015b828111156200034d57825182559160200191906001019062000330565b506200035b9291506200035f565b5090565b5b808211156200035b576000815560010162000360565b80516001600160a01b03811681146200038e57600080fd5b919050565b60008060408385031215620003a757600080fd5b620003b28362000376565b9150620003c26020840162000376565b90509250929050565b600181811c90821680620003e057607f821691505b602082108114156200040257634e487b7160e01b600052602260045260246000fd5b50919050565b61305780620004186000396000f3fe60806040526004361061046c5760003560e01c806380384d4d1161024a578063bc040da311610139578063e3255552116100b6578063f2fde38b1161007a578063f2fde38b14610d75578063f39331fd14610d95578063f3b6966b14610db5578063f9110af314610dd5578063fb61e99814610df557600080fd5b8063e325555214610cdf578063e52aaf2b14610cff578063e5902c2d14610d1f578063e69aee9114610d3f578063eaa8477614610d5f57600080fd5b8063ce94b99a116100fd578063ce94b99a14610c49578063d162d41514610c5f578063d505cc4d14610c7f578063e036a58214610c9f578063e1eb515414610cbf57600080fd5b8063bc040da314610bb3578063c554d74c14610bd3578063c8d87f9114610bf3578063ca682c6d14610c13578063cb6798a414610c3357600080fd5b80639d4c411c116101c7578063ae46567c1161018b578063ae46567c14610b2e578063b40a3f9314610b43578063b566540014610b59578063b7b4005014610b73578063bbaec3e014610b9357600080fd5b80639d4c411c14610a98578063a26c862914610aae578063a385ac3114610ace578063a8b5afdc14610aee578063ab18363914610b0e57600080fd5b8063885b922d1161020e578063885b922d14610a045780638da5cb5b14610a245780639712a17314610a425780639af1461214610a585780639bc81a2c14610a7857600080fd5b806380384d4d1461095d578063832033c21461097d57806383d611e014610993578063862737c9146109b3578063875138aa146109d357600080fd5b806341cb87fc1161036657806370d5ae05116102e35780637749eeb3116102a75780637749eeb3146108e8578063776f1e10146109085780637d485eb91461091d5780637e11b31f146109335780637f582e0e1461094857600080fd5b806370d5ae051461085d578063715018a61461087d5780637435a21f1461089257806375af3091146108a857806376d747e9146108c857600080fd5b806356355a901161032a57806356355a90146107e757806356a6338f146107fc5780635c5aa9b21461081c5780636a5c5c3a146108315780636f1bd5e01461084757600080fd5b806341cb87fc1461073657806342d7359b1461075657806348de3f4f1461076c5780634f12da14146107a95780634f2fc5c1146107d157600080fd5b806318b38e8a116103f45780633268cc56116103b85780633268cc561461067e578063357579d21461069e5780633c743beb146106b45780633e99c1e4146106ca5780634144f1c41461071657600080fd5b806318b38e8a146105f25780631a788a02146106085780632cbfc5a5146106285780632f1fc52c146106485780633079221b1461066857600080fd5b8063107bf3041161043b578063107bf3041461054257806310b567ad146105625780631217b0cb1461059a5780631820fe0c146105b05780631866cbfa146105d057600080fd5b806305bdf464146104785780630787150a1461049a57806307ad6d48146104cd5780630a9ee06c146104ed57600080fd5b3661047357005b600080fd5b34801561048457600080fd5b506104986104933660046127f9565b610e61565b005b3480156104a657600080fd5b506104ba6104b536600461282e565b610f02565b6040519081526020015b60405180910390f35b3480156104d957600080fd5b506104ba6104e836600461282e565b610f49565b3480156104f957600080fd5b5061050d61050836600461282e565b61104a565b604080519788526020880196909652948601939093526060850191909152608084015260a083015260c082015260e0016104c4565b34801561054e57600080fd5b5061049861055d36600461284b565b6110ab565b34801561056e57600080fd5b50601254610582906001600160a01b031681565b6040516001600160a01b0390911681526020016104c4565b3480156105a657600080fd5b506104ba60035481565b3480156105bc57600080fd5b506104986105cb366004612907565b611106565b3480156105dc57600080fd5b506105e5611253565b6040516104c491906129b3565b3480156105fe57600080fd5b506104ba60215481565b34801561061457600080fd5b5061058261062336600461282e565b6112e1565b34801561063457600080fd5b50601a54610582906001600160a01b031681565b34801561065457600080fd5b506104ba61066336600461282e565b61143e565b34801561067457600080fd5b506104ba60225481565b34801561068a57600080fd5b50600854610582906001600160a01b031681565b3480156106aa57600080fd5b506104ba601e5481565b3480156106c057600080fd5b506104ba60175481565b3480156106d657600080fd5b506106ea6106e536600461282e565b611462565b604080516001600160701b03948516815293909216602084015263ffffffff16908201526060016104c4565b34801561072257600080fd5b506104ba61073136600461282e565b6114e3565b34801561074257600080fd5b5061049861075136600461282e565b6115d4565b34801561076257600080fd5b506104ba601f5481565b34801561077857600080fd5b5061078c61078736600461282e565b611660565b604080519283526001600160a01b039091166020830152016104c4565b3480156107b557600080fd5b506107be611683565b6040516104c497969594939291906129c6565b3480156107dd57600080fd5b506104ba600f5481565b3480156107f357600080fd5b506105e56119b2565b34801561080857600080fd5b50610498610817366004612a5d565b6119bf565b34801561082857600080fd5b506105e5611b2d565b34801561083d57600080fd5b506104ba60185481565b34801561085357600080fd5b506104ba60145481565b34801561086957600080fd5b50601d54610582906001600160a01b031681565b34801561088957600080fd5b50610498611b3a565b34801561089e57600080fd5b506104ba60045481565b3480156108b457600080fd5b506104ba6108c336600461282e565b611b70565b3480156108d457600080fd5b506104ba6108e336600461282e565b611b94565b3480156108f457600080fd5b506104ba61090336600461282e565b611be6565b34801561091457600080fd5b506105e5611c0a565b34801561092957600080fd5b506104ba600c5481565b34801561093f57600080fd5b506104ba600281565b34801561095457600080fd5b506105e5611c17565b34801561096957600080fd5b50601654610582906001600160a01b031681565b34801561098957600080fd5b506104ba60135481565b34801561099f57600080fd5b506104ba6109ae36600461282e565b611c24565b3480156109bf57600080fd5b506104986109ce366004612907565b611c48565b3480156109df57600080fd5b506001546109f490600160a01b900460ff1681565b60405190151581526020016104c4565b348015610a1057600080fd5b506104ba610a1f36600461282e565b611d83565b348015610a3057600080fd5b506000546001600160a01b0316610582565b348015610a4e57600080fd5b506104ba601b5481565b348015610a6457600080fd5b50610498610a7336600461282e565b611d98565b348015610a8457600080fd5b50610498610a93366004612907565b611de4565b348015610aa457600080fd5b506104ba60075481565b348015610aba57600080fd5b506104ba610ac936600461282e565b611f1f565b348015610ada57600080fd5b506104ba610ae936600461282e565b611f43565b348015610afa57600080fd5b50610498610b093660046127f9565b611f67565b348015610b1a57600080fd5b506104ba610b2936600461282e565b611fef565b348015610b3a57600080fd5b506105e5612013565b348015610b4f57600080fd5b506104ba600b5481565b348015610b6557600080fd5b506005546109f49060ff1681565b348015610b7f57600080fd5b50610498610b8e366004612907565b612020565b348015610b9f57600080fd5b50610498610bae366004612a97565b61215b565b348015610bbf57600080fd5b506104ba610bce366004612a5d565b61219f565b348015610bdf57600080fd5b506104ba610bee36600461282e565b61220f565b348015610bff57600080fd5b50610498610c0e366004612ab7565b612233565b348015610c1f57600080fd5b50610498610c2e366004612aff565b6122a6565b348015610c3f57600080fd5b506104ba60065481565b348015610c5557600080fd5b506104ba601c5481565b348015610c6b57600080fd5b50610498610c7a366004612907565b6123a7565b348015610c8b57600080fd5b50602054610582906001600160a01b031681565b348015610cab57600080fd5b506104ba610cba36600461282e565b6124e2565b348015610ccb57600080fd5b506104ba610cda36600461282e565b612506565b348015610ceb57600080fd5b50600e54610582906001600160a01b031681565b348015610d0b57600080fd5b50600254610582906001600160a01b031681565b348015610d2b57600080fd5b506104ba610d3a36600461282e565b61252a565b348015610d4b57600080fd5b506104ba610d5a36600461282e565b61254e565b348015610d6b57600080fd5b506104ba60105481565b348015610d8157600080fd5b50610498610d9036600461282e565b612572565b348015610da157600080fd5b5061078c610db036600461282e565b61260d565b348015610dc157600080fd5b50600a54610582906001600160a01b031681565b348015610de157600080fd5b5061050d610df036600461282e565b612630565b348015610e0157600080fd5b50600a54600e54601254601654601a54601d5460208054604080516001600160a01b03998a1681529789169288019290925294871690860152918516606085015284166080840152831660a08301529190911660c082015260e0016104c4565b6000546001600160a01b03163314610e945760405162461bcd60e51b8152600401610e8b90612b34565b60405180910390fd5b6020805460218054602280546001600160a01b038981166001600160a01b0319871681179097559388905590869055604051929093169390929160008051602061300283398151915291610ef291869186918691908b908b90612b69565b60405180910390a1505050505050565b600080610f0e8361143e565b610f1784611f1f565b610f219190612c18565b90506002610f2e84610f49565b610f389190612c30565b610f429082612c18565b9392505050565b60215460015460009190600160a01b900460ff168015610f6d5750610f6d8361267a565b15610f9857610f7e6004600a612d36565b600454610f8b9083612d42565b610f959190612c30565b90505b60055460ff16801561101c5750600160009054906101000a90046001600160a01b03166001600160a01b031663a13ec8d36040518163ffffffff1660e01b8152600401602060405180830381865afa158015610ff8573d6000803e3d6000fd5b505050506040513d601f19601f8201168201806040525081019061101c9190612d61565b156110445761102d6004600a612d36565b60065461103a9083612d42565b610f429190612c30565b92915050565b600080600080600080600061105e8861254e565b61106789612506565b6110708a611fef565b6110798b611c24565b6110828c611b70565b61108b8d611be6565b6110948e6114e3565b959e949d50929b5090995097509550909350915050565b6000546001600160a01b031633146110d55760405162461bcd60e51b8152600401610e8b90612b34565b604051339082156108fc029083906000818181858888f19350505050158015611102573d6000803e3d6000fd5b5050565b6000546001600160a01b031633146111305760405162461bcd60e51b8152600401610e8b90612b34565b60006015805461113f90612d7e565b80601f016020809104026020016040519081016040528092919081815260200182805461116b90612d7e565b80156111b85780601f1061118d576101008083540402835291602001916111b8565b820191906000526020600020905b81548152906001019060200180831161119b57829003601f168201915b50506016546017546018548b519697506001600160a01b03909216959094509092506111ec915060159060208b019061274b565b50601680546001600160a01b0319166001600160a01b0389169081179091556017879055601886905560405160008051602061300283398151915291611241918791879187918791601591908e908e90612e59565b60405180910390a15050505050505050565b6015805461126090612d7e565b80601f016020809104026020016040519081016040528092919081815260200182805461128c90612d7e565b80156112d95780601f106112ae576101008083540402835291602001916112d9565b820191906000526020600020905b8154815290600101906020018083116112bc57829003601f168201915b505050505081565b6008546040805163c45a015560e01b815290516000926001600160a01b0316918391839163c45a01559160048083019260209291908290030181865afa15801561132f573d6000803e3d6000fd5b505050506040513d601f19601f820116820180604052508101906113539190612ec0565b9050806001600160a01b031663e6a43905836001600160a01b031663ad5c46486040518163ffffffff1660e01b8152600401602060405180830381865afa1580156113a2573d6000803e3d6000fd5b505050506040513d601f19601f820116820180604052508101906113c69190612ec0565b6040516001600160e01b031960e084901b1681526001600160a01b0391821660048201529087166024820152604401602060405180830381865afa158015611412573d6000803e3d6000fd5b505050506040513d601f19601f820116820180604052508101906114369190612ec0565b949350505050565b601e5460015460009190600160a01b900460ff168015610f6d5750610f6d8361267a565b600080600080611471856112e1565b9050806001600160a01b0316630902f1ac6040518163ffffffff1660e01b8152600401606060405180830381865afa1580156114b1573d6000803e3d6000fd5b505050506040513d601f19601f820116820180604052508101906114d59190612ef9565b935093509350509193909250565b60225460015460009190600160a01b900460ff16801561150757506115078361267a565b15611532576115186004600a612d36565b6004546115259083612d42565b61152f9190612c30565b90505b60055460ff1680156115b65750600160009054906101000a90046001600160a01b03166001600160a01b031663a13ec8d36040518163ffffffff1660e01b8152600401602060405180830381865afa158015611592573d6000803e3d6000fd5b505050506040513d601f19601f820116820180604052508101906115b69190612d61565b15611044576115c76004600a612d36565b60075461103a9083612d42565b6000546001600160a01b031633146115fe5760405162461bcd60e51b8152600401610e8b90612b34565b600880546001600160a01b038381166001600160a01b031983168117909355604080519190921680825260208201939093527f02dc5c233404867c793b749c6d644beb2277536d18a7e7974d3f238e4c6f168491015b60405180910390a15050565b60008061166c8361252a565b600e5490946001600160a01b039091169350915050565b60608060608060608060606009600d6011601560198480546116a490612d7e565b80601f01602080910402602001604051908101604052809291908181526020018280546116d090612d7e565b801561171d5780601f106116f25761010080835404028352916020019161171d565b820191906000526020600020905b81548152906001019060200180831161170057829003601f168201915b5050505050945083805461173090612d7e565b80601f016020809104026020016040519081016040528092919081815260200182805461175c90612d7e565b80156117a95780601f1061177e576101008083540402835291602001916117a9565b820191906000526020600020905b81548152906001019060200180831161178c57829003601f168201915b505050505093508280546117bc90612d7e565b80601f01602080910402602001604051908101604052809291908181526020018280546117e890612d7e565b80156118355780601f1061180a57610100808354040283529160200191611835565b820191906000526020600020905b81548152906001019060200180831161181857829003601f168201915b5050505050925081805461184890612d7e565b80601f016020809104026020016040519081016040528092919081815260200182805461187490612d7e565b80156118c15780601f10611896576101008083540402835291602001916118c1565b820191906000526020600020905b8154815290600101906020018083116118a457829003601f168201915b505050505091508080546118d490612d7e565b80601f016020809104026020016040519081016040528092919081815260200182805461190090612d7e565b801561194d5780601f106119225761010080835404028352916020019161194d565b820191906000526020600020905b81548152906001019060200180831161193057829003601f168201915b5050505050905060405180604001604052806008815260200167084eae4dc40a8c2f60c31b8152506040518060400160405280600d81526020016c098d2e2ead2c8d2e8f240a8c2f609b1b815250965096509650965096509650965090919293949596565b6009805461126090612d7e565b6000546001600160a01b031633146119e95760405162461bcd60e51b8152600401610e8b90612b34565b6040516370a0823160e01b81523060048201526000906001600160a01b038416906370a0823190602401602060405180830381865afa158015611a30573d6000803e3d6000fd5b505050506040513d601f19601f82011682018060405250810190611a549190612f49565b905081811015611aa65760405162461bcd60e51b815260206004820152601a60248201527f496e73756666696369656e7420746f6b656e2062616c616e63650000000000006044820152606401610e8b565b6001600160a01b03831663a9059cbb336040516001600160e01b031960e084901b1681526001600160a01b039091166004820152602481018590526044016020604051808303816000875af1158015611b03573d6000803e3d6000fd5b505050506040513d601f19601f82011682018060405250810190611b279190612d61565b50505050565b6011805461126090612d7e565b6000546001600160a01b03163314611b645760405162461bcd60e51b8152600401610e8b90612b34565b611b6e60006126fb565b565b601c5460015460009190600160a01b900460ff16801561150757506115078361267a565b600080611ba083611c24565b611ba984611fef565b611bb285612506565b611bbb8661254e565b611bc59190612c18565b611bcf9190612c18565b611bd99190612c18565b90506002610f2e846114e3565b601f5460015460009190600160a01b900460ff16801561150757506115078361267a565b600d805461126090612d7e565b6023805461126090612d7e565b60185460015460009190600160a01b900460ff16801561150757506115078361267a565b6000546001600160a01b03163314611c725760405162461bcd60e51b8152600401610e8b90612b34565b6000600d8054611c8190612d7e565b80601f0160208091040260200160405190810160405280929190818152602001828054611cad90612d7e565b8015611cfa5780601f10611ccf57610100808354040283529160200191611cfa565b820191906000526020600020905b815481529060010190602001808311611cdd57829003601f168201915b5050600e54600f546010548b519697506001600160a01b0390921695909450909250611d2e9150600d9060208b019061274b565b50600e80546001600160a01b0319166001600160a01b038916908117909155600f879055601086905560405160008051602061300283398151915291611241918791879187918791600d91908e908e90612e59565b600080611d8f83611be6565b611bcf84611b70565b6000546001600160a01b03163314611dc25760405162461bcd60e51b8152600401610e8b90612b34565b600180546001600160a01b0319166001600160a01b0392909216919091179055565b6000546001600160a01b03163314611e0e5760405162461bcd60e51b8152600401610e8b90612b34565b600060098054611e1d90612d7e565b80601f0160208091040260200160405190810160405280929190818152602001828054611e4990612d7e565b8015611e965780601f10611e6b57610100808354040283529160200191611e96565b820191906000526020600020905b815481529060010190602001808311611e7957829003601f168201915b5050600a54600b54600c548b519697506001600160a01b0390921695909450909250611eca915060099060208b019061274b565b50600a80546001600160a01b0319166001600160a01b038916908117909155600b879055600c86905560405160008051602061300283398151915291611241918791879187918791600991908e908e90612e59565b601b5460015460009190600160a01b900460ff168015610f6d5750610f6d8361267a565b60135460015460009190600160a01b900460ff168015610f6d5750610f6d8361267a565b6000546001600160a01b03163314611f915760405162461bcd60e51b8152600401610e8b90612b34565b601d8054601e8054601f80546001600160a01b038981166001600160a01b0319871681179097559388905590869055604051929093169390929160008051602061300283398151915291610ef291869186918691908b908b90612f62565b60145460015460009190600160a01b900460ff16801561150757506115078361267a565b6019805461126090612d7e565b6000546001600160a01b0316331461204a5760405162461bcd60e51b8152600401610e8b90612b34565b60006019805461205990612d7e565b80601f016020809104026020016040519081016040528092919081815260200182805461208590612d7e565b80156120d25780601f106120a7576101008083540402835291602001916120d2565b820191906000526020600020905b8154815290600101906020018083116120b557829003601f168201915b5050601a54601b54601c548b519697506001600160a01b0390921695909450909250612106915060199060208b019061274b565b50601a80546001600160a01b0319166001600160a01b038916908117909155601b879055601c86905560405160008051602061300283398151915291611241918791879187918791601991908e908e90612e59565b6000546001600160a01b031633146121855760405162461bcd60e51b8152600401610e8b90612b34565b6005805460ff191693151593909317909255600655600755565b6000806121ab846124e2565b6121b485611f43565b6121bd8661252a565b6121c68761220f565b6121d09190612c18565b6121da9190612c18565b6121e49190612c18565b905060026121f185610f49565b6121fb9190612c30565b6122058285612c18565b6114369190612c18565b600b5460015460009190600160a01b900460ff168015610f6d5750610f6d8361267a565b6000546001600160a01b0316331461225d5760405162461bcd60e51b8152600401610e8b90612b34565b60018054941515600160a01b0260ff60a01b1990951694909417909355600280546001600160a01b039092166001600160a01b0319909216919091179055600391909155600455565b6000546001600160a01b031633146122d05760405162461bcd60e51b8152600401610e8b90612b34565b6000602380546122df90612d7e565b80601f016020809104026020016040519081016040528092919081815260200182805461230b90612d7e565b80156123585780601f1061232d57610100808354040283529160200191612358565b820191906000526020600020905b81548152906001019060200180831161233b57829003601f168201915b505085519394506123749360239350602087019250905061274b565b507ff1b71db64e8d2411035c219af08906744c6341d677da5fc7c9f08dc7bd1a9a69816023604051611654929190612fd3565b6000546001600160a01b031633146123d15760405162461bcd60e51b8152600401610e8b90612b34565b6000601180546123e090612d7e565b80601f016020809104026020016040519081016040528092919081815260200182805461240c90612d7e565b80156124595780601f1061242e57610100808354040283529160200191612459565b820191906000526020600020905b81548152906001019060200180831161243c57829003601f168201915b50506012546013546014548b519697506001600160a01b039092169590945090925061248d915060119060208b019061274b565b50601280546001600160a01b0319166001600160a01b0389169081179091556013879055601486905560405160008051602061300283398151915291611241918791879187918791601191908e908e90612e59565b60175460015460009190600160a01b900460ff168015610f6d5750610f6d8361267a565b60105460015460009190600160a01b900460ff16801561150757506115078361267a565b600f5460015460009190600160a01b900460ff168015610f6d5750610f6d8361267a565b600c5460015460009190600160a01b900460ff16801561150757506115078361267a565b6000546001600160a01b0316331461259c5760405162461bcd60e51b8152600401610e8b90612b34565b6001600160a01b0381166126015760405162461bcd60e51b815260206004820152602660248201527f4f776e61626c653a206e6577206f776e657220697320746865207a65726f206160448201526564647265737360d01b6064820152608401610e8b565b61260a816126fb565b50565b6000806126198361220f565b600a5490946001600160a01b039091169350915050565b60008060008060008060006126448861220f565b61264d8961252a565b6126568a611f43565b61265f8b6124e2565b6126688c611f1f565b6126718d61143e565b6110948e610f49565b600254600354604051627eeac760e11b81526001600160a01b03848116600483015260248201929092526000928392169062fdd58e90604401602060405180830381865afa1580156126d0573d6000803e3d6000fd5b505050506040513d601f19601f820116820180604052508101906126f49190612f49565b1192915050565b600080546001600160a01b038381166001600160a01b0319831681178455604051919092169283917f8be0079c531659141344cd1fd0a4f28419497f9722a3daafe3b4186f6b6457e09190a35050565b82805461275790612d7e565b90600052602060002090601f01602090048101928261277957600085556127bf565b82601f1061279257805160ff19168380011785556127bf565b828001600101855582156127bf579182015b828111156127bf5782518255916020019190600101906127a4565b506127cb9291506127cf565b5090565b5b808211156127cb57600081556001016127d0565b6001600160a01b038116811461260a57600080fd5b60008060006060848603121561280e57600080fd5b8335612819816127e4565b95602085013595506040909401359392505050565b60006020828403121561284057600080fd5b8135610f42816127e4565b60006020828403121561285d57600080fd5b5035919050565b634e487b7160e01b600052604160045260246000fd5b600082601f83011261288b57600080fd5b813567ffffffffffffffff808211156128a6576128a6612864565b604051601f8301601f19908116603f011681019082821181831017156128ce576128ce612864565b816040528381528660208588010111156128e757600080fd5b836020870160208301376000602085830101528094505050505092915050565b6000806000806080858703121561291d57600080fd5b843567ffffffffffffffff81111561293457600080fd5b6129408782880161287a565b9450506020850135612951816127e4565b93969395505050506040820135916060013590565b6000815180845260005b8181101561298c57602081850181015186830182015201612970565b8181111561299e576000602083870101525b50601f01601f19169290920160200192915050565b602081526000610f426020830184612966565b60e0815260006129d960e083018a612966565b82810360208401526129eb818a612966565b905082810360408401526129ff8189612966565b90508281036060840152612a138188612966565b90508281036080840152612a278187612966565b905082810360a0840152612a3b8186612966565b905082810360c0840152612a4f8185612966565b9a9950505050505050505050565b60008060408385031215612a7057600080fd5b8235612a7b816127e4565b946020939093013593505050565b801515811461260a57600080fd5b600080600060608486031215612aac57600080fd5b833561281981612a89565b60008060008060808587031215612acd57600080fd5b8435612ad881612a89565b9350602085013592506040850135612aef816127e4565b9396929550929360600135925050565b600060208284031215612b1157600080fd5b813567ffffffffffffffff811115612b2857600080fd5b6114368482850161287a565b6020808252818101527f4f776e61626c653a2063616c6c6572206973206e6f7420746865206f776e6572604082015260600190565b6000610100808352612b97818401600d81526c098d2e2ead2c8d2e8f240a8c2f609b1b602082015260400190565b6001600160a01b038a81166020860152604085018a9052606085018990528482036080860152909150612be482600d81526c098d2e2ead2c8d2e8f240a8c2f609b1b602082015260400190565b961660a0840152505060c081019290925260e0909101529392505050565b634e487b7160e01b600052601160045260246000fd5b60008219821115612c2b57612c2b612c02565b500190565b600082612c4d57634e487b7160e01b600052601260045260246000fd5b500490565b600181815b80851115612c8d578160001904821115612c7357612c73612c02565b80851615612c8057918102915b93841c9390800290612c57565b509250929050565b600082612ca457506001611044565b81612cb157506000611044565b8160018114612cc75760028114612cd157612ced565b6001915050611044565b60ff841115612ce257612ce2612c02565b50506001821b611044565b5060208310610133831016604e8410600b8410161715612d10575081810a611044565b612d1a8383612c52565b8060001904821115612d2e57612d2e612c02565b029392505050565b6000610f428383612c95565b6000816000190483118215151615612d5c57612d5c612c02565b500290565b600060208284031215612d7357600080fd5b8151610f4281612a89565b600181811c90821680612d9257607f821691505b60208210811415612db357634e487b7160e01b600052602260045260246000fd5b50919050565b8054600090600181811c9080831680612dd357607f831692505b6020808410821415612df557634e487b7160e01b600052602260045260246000fd5b83885260208801828015612e105760018114612e2157612e4c565b60ff19871682528282019750612e4c565b60008981526020902060005b87811015612e4657815484820152908601908401612e2d565b83019850505b5050505050505092915050565b6000610100808352612e6d8184018c612966565b6001600160a01b038b81166020860152604085018b9052606085018a90528482036080860152909150612ea08289612db9565b961660a0840152505060c081019290925260e09091015295945050505050565b600060208284031215612ed257600080fd5b8151610f42816127e4565b80516001600160701b0381168114612ef457600080fd5b919050565b600080600060608486031215612f0e57600080fd5b612f1784612edd565b9250612f2560208501612edd565b9150604084015163ffffffff81168114612f3e57600080fd5b809150509250925092565b600060208284031215612f5b57600080fd5b5051919050565b6000610100808352612f8b8184016008815267084eae4dc40a8c2f60c31b602082015260400190565b6001600160a01b038a81166020860152604085018a9052606085018990528482036080860152909150612be4826008815267084eae4dc40a8c2f60c31b602082015260400190565b604081526000612fe66040830185612966565b8281036020840152612ff88185612db9565b9594505050505056fea8a8ba62162bcc4c125b3b832495f50d313eb4892e9ad2ab9900fe34831c40a6a26469706673582212208752958ad403ceedfa0e51aa44bbaadd533560453296e4ea92e1133e886aefa764736f6c634300080c0033",
  "linkReferences": {},
  "deployedLinkReferences": {}
}